{
	"payable.sol": {
		"Payable": {
			"abi": [
				{
					"inputs": [
						{
							"internalType": "address",
							"name": "target",
							"type": "address"
						}
					],
					"name": "AddressEmptyCode",
					"type": "error"
				},
				{
					"inputs": [
						{
							"internalType": "address",
							"name": "implementation",
							"type": "address"
						}
					],
					"name": "ERC1967InvalidImplementation",
					"type": "error"
				},
				{
					"inputs": [],
					"name": "ERC1967NonPayable",
					"type": "error"
				},
				{
					"inputs": [],
					"name": "FailedInnerCall",
					"type": "error"
				},
				{
					"inputs": [],
					"name": "InvalidInitialization",
					"type": "error"
				},
				{
					"inputs": [],
					"name": "NotInitializing",
					"type": "error"
				},
				{
					"inputs": [],
					"name": "UUPSUnauthorizedCallContext",
					"type": "error"
				},
				{
					"inputs": [
						{
							"internalType": "bytes32",
							"name": "slot",
							"type": "bytes32"
						}
					],
					"name": "UUPSUnsupportedProxiableUUID",
					"type": "error"
				},
				{
					"anonymous": false,
					"inputs": [
						{
							"indexed": false,
							"internalType": "address",
							"name": "_approver",
							"type": "address"
						}
					],
					"name": "AppliedForApprovers",
					"type": "event"
				},
				{
					"anonymous": false,
					"inputs": [
						{
							"indexed": false,
							"internalType": "address",
							"name": "approved",
							"type": "address"
						}
					],
					"name": "ApproverApproved",
					"type": "event"
				},
				{
					"anonymous": false,
					"inputs": [
						{
							"indexed": false,
							"internalType": "uint256",
							"name": "id",
							"type": "uint256"
						},
						{
							"indexed": false,
							"internalType": "address",
							"name": "to",
							"type": "address"
						},
						{
							"indexed": false,
							"internalType": "uint256",
							"name": "amount",
							"type": "uint256"
						}
					],
					"name": "FundsTransferred",
					"type": "event"
				},
				{
					"anonymous": false,
					"inputs": [
						{
							"indexed": false,
							"internalType": "uint64",
							"name": "version",
							"type": "uint64"
						}
					],
					"name": "Initialized",
					"type": "event"
				},
				{
					"anonymous": false,
					"inputs": [
						{
							"indexed": false,
							"internalType": "uint256",
							"name": "id",
							"type": "uint256"
						},
						{
							"indexed": false,
							"internalType": "address",
							"name": "approver",
							"type": "address"
						}
					],
					"name": "TransactionApproved",
					"type": "event"
				},
				{
					"anonymous": false,
					"inputs": [
						{
							"indexed": false,
							"internalType": "uint256",
							"name": "id",
							"type": "uint256"
						},
						{
							"indexed": false,
							"internalType": "address",
							"name": "to",
							"type": "address"
						},
						{
							"indexed": false,
							"internalType": "uint256",
							"name": "amount",
							"type": "uint256"
						}
					],
					"name": "TransactionCreated",
					"type": "event"
				},
				{
					"anonymous": false,
					"inputs": [
						{
							"indexed": false,
							"internalType": "uint256",
							"name": "id",
							"type": "uint256"
						},
						{
							"indexed": false,
							"internalType": "address",
							"name": "disapprover",
							"type": "address"
						}
					],
					"name": "TransactionDisapproved",
					"type": "event"
				},
				{
					"anonymous": false,
					"inputs": [
						{
							"indexed": false,
							"internalType": "uint256",
							"name": "id",
							"type": "uint256"
						},
						{
							"indexed": false,
							"internalType": "address",
							"name": "to",
							"type": "address"
						},
						{
							"indexed": false,
							"internalType": "uint256",
							"name": "amount",
							"type": "uint256"
						}
					],
					"name": "TransactionFailed",
					"type": "event"
				},
				{
					"anonymous": false,
					"inputs": [
						{
							"indexed": true,
							"internalType": "address",
							"name": "implementation",
							"type": "address"
						}
					],
					"name": "Upgraded",
					"type": "event"
				},
				{
					"inputs": [],
					"name": "UPGRADE_INTERFACE_VERSION",
					"outputs": [
						{
							"internalType": "string",
							"name": "",
							"type": "string"
						}
					],
					"stateMutability": "view",
					"type": "function"
				},
				{
					"inputs": [
						{
							"internalType": "address[]",
							"name": "addresses",
							"type": "address[]"
						}
					],
					"name": "addApprovers",
					"outputs": [],
					"stateMutability": "nonpayable",
					"type": "function"
				},
				{
					"inputs": [],
					"name": "appliedApproversList",
					"outputs": [
						{
							"internalType": "address[]",
							"name": "",
							"type": "address[]"
						}
					],
					"stateMutability": "view",
					"type": "function"
				},
				{
					"inputs": [
						{
							"internalType": "address",
							"name": "adress",
							"type": "address"
						}
					],
					"name": "applyForApprover",
					"outputs": [],
					"stateMutability": "nonpayable",
					"type": "function"
				},
				{
					"inputs": [
						{
							"internalType": "address",
							"name": "adres",
							"type": "address"
						}
					],
					"name": "approveApprover",
					"outputs": [],
					"stateMutability": "nonpayable",
					"type": "function"
				},
				{
					"inputs": [
						{
							"internalType": "uint256",
							"name": "transactionId",
							"type": "uint256"
						}
					],
					"name": "approveTransaction",
					"outputs": [],
					"stateMutability": "nonpayable",
					"type": "function"
				},
				{
					"inputs": [],
					"name": "approversList",
					"outputs": [
						{
							"internalType": "address[]",
							"name": "",
							"type": "address[]"
						}
					],
					"stateMutability": "view",
					"type": "function"
				},
				{
					"inputs": [],
					"name": "balance",
					"outputs": [
						{
							"internalType": "uint256",
							"name": "",
							"type": "uint256"
						}
					],
					"stateMutability": "view",
					"type": "function"
				},
				{
					"inputs": [
						{
							"internalType": "address",
							"name": "to",
							"type": "address"
						},
						{
							"internalType": "uint256",
							"name": "_amount",
							"type": "uint256"
						}
					],
					"name": "createTransaction",
					"outputs": [
						{
							"internalType": "uint256",
							"name": "",
							"type": "uint256"
						}
					],
					"stateMutability": "nonpayable",
					"type": "function"
				},
				{
					"inputs": [
						{
							"internalType": "uint256",
							"name": "transactionId",
							"type": "uint256"
						}
					],
					"name": "disapproveTransaction",
					"outputs": [],
					"stateMutability": "nonpayable",
					"type": "function"
				},
				{
					"inputs": [],
					"name": "getAllTransactions",
					"outputs": [
						{
							"components": [
								{
									"internalType": "address",
									"name": "to",
									"type": "address"
								},
								{
									"internalType": "uint256",
									"name": "amount",
									"type": "uint256"
								},
								{
									"internalType": "address[]",
									"name": "approvals",
									"type": "address[]"
								},
								{
									"internalType": "address[]",
									"name": "disapprovals",
									"type": "address[]"
								},
								{
									"internalType": "bool",
									"name": "executed",
									"type": "bool"
								},
								{
									"internalType": "uint256",
									"name": "timestamp",
									"type": "uint256"
								},
								{
									"internalType": "uint256",
									"name": "approvalCount",
									"type": "uint256"
								},
								{
									"internalType": "uint256",
									"name": "disapprovalCount",
									"type": "uint256"
								}
							],
							"internalType": "struct Payable.Transaction[]",
							"name": "",
							"type": "tuple[]"
						}
					],
					"stateMutability": "view",
					"type": "function"
				},
				{
					"inputs": [
						{
							"internalType": "address",
							"name": "ad",
							"type": "address"
						}
					],
					"name": "getBalance",
					"outputs": [
						{
							"internalType": "uint256",
							"name": "",
							"type": "uint256"
						}
					],
					"stateMutability": "view",
					"type": "function"
				},
				{
					"inputs": [
						{
							"internalType": "uint256",
							"name": "transactionId",
							"type": "uint256"
						}
					],
					"name": "getTransactionDetails",
					"outputs": [
						{
							"components": [
								{
									"internalType": "address",
									"name": "to",
									"type": "address"
								},
								{
									"internalType": "uint256",
									"name": "amount",
									"type": "uint256"
								},
								{
									"internalType": "address[]",
									"name": "approvals",
									"type": "address[]"
								},
								{
									"internalType": "address[]",
									"name": "disapprovals",
									"type": "address[]"
								},
								{
									"internalType": "bool",
									"name": "executed",
									"type": "bool"
								},
								{
									"internalType": "uint256",
									"name": "timestamp",
									"type": "uint256"
								},
								{
									"internalType": "uint256",
									"name": "approvalCount",
									"type": "uint256"
								},
								{
									"internalType": "uint256",
									"name": "disapprovalCount",
									"type": "uint256"
								}
							],
							"internalType": "struct Payable.Transaction",
							"name": "",
							"type": "tuple"
						}
					],
					"stateMutability": "view",
					"type": "function"
				},
				{
					"inputs": [],
					"name": "initialize",
					"outputs": [],
					"stateMutability": "nonpayable",
					"type": "function"
				},
				{
					"inputs": [],
					"name": "proxiableUUID",
					"outputs": [
						{
							"internalType": "bytes32",
							"name": "",
							"type": "bytes32"
						}
					],
					"stateMutability": "view",
					"type": "function"
				},
				{
					"inputs": [],
					"name": "receivEthere",
					"outputs": [],
					"stateMutability": "payable",
					"type": "function"
				},
				{
					"inputs": [
						{
							"internalType": "address",
							"name": "newImplementation",
							"type": "address"
						},
						{
							"internalType": "bytes",
							"name": "data",
							"type": "bytes"
						}
					],
					"name": "upgradeToAndCall",
					"outputs": [],
					"stateMutability": "payable",
					"type": "function"
				}
			],
			"devdoc": {
				"errors": {
					"AddressEmptyCode(address)": [
						{
							"details": "There's no code at `target` (it is not a contract)."
						}
					],
					"ERC1967InvalidImplementation(address)": [
						{
							"details": "The `implementation` of the proxy is invalid."
						}
					],
					"ERC1967NonPayable()": [
						{
							"details": "An upgrade function sees `msg.value > 0` that may be lost."
						}
					],
					"FailedInnerCall()": [
						{
							"details": "A call to an address target failed. The target may have reverted."
						}
					],
					"InvalidInitialization()": [
						{
							"details": "The contract is already initialized."
						}
					],
					"NotInitializing()": [
						{
							"details": "The contract is not initializing."
						}
					],
					"UUPSUnauthorizedCallContext()": [
						{
							"details": "The call is from an unauthorized context."
						}
					],
					"UUPSUnsupportedProxiableUUID(bytes32)": [
						{
							"details": "The storage `slot` is unsupported as a UUID."
						}
					]
				},
				"events": {
					"Initialized(uint64)": {
						"details": "Triggered when the contract has been initialized or reinitialized."
					},
					"Upgraded(address)": {
						"details": "Emitted when the implementation is upgraded."
					}
				},
				"kind": "dev",
				"methods": {
					"proxiableUUID()": {
						"details": "Implementation of the ERC1822 {proxiableUUID} function. This returns the storage slot used by the implementation. It is used to validate the implementation's compatibility when performing an upgrade. IMPORTANT: A proxy pointing at a proxiable contract should not be considered proxiable itself, because this risks bricking a proxy that upgrades to it, by delegating to itself until out of gas. Thus it is critical that this function revert if invoked through a proxy. This is guaranteed by the `notDelegated` modifier."
					},
					"upgradeToAndCall(address,bytes)": {
						"custom:oz-upgrades-unsafe-allow-reachable": "delegatecall",
						"details": "Upgrade the implementation of the proxy to `newImplementation`, and subsequently execute the function call encoded in `data`. Calls {_authorizeUpgrade}. Emits an {Upgraded} event."
					}
				},
				"version": 1
			},
			"evm": {
				"assembly": "    /* \"payable.sol\":213:6514  contract Payable is... */\n  mstore(0x40, 0xa0)\n    /* \"@openzeppelin/contracts-upgradeable/proxy/utils/UUPSUpgradeable.sol\":1171:1175  this */\n  address\n    /* \"@openzeppelin/contracts-upgradeable/proxy/utils/UUPSUpgradeable.sol\":1128:1176  address private immutable __self = address(this) */\n  0xffffffffffffffffffffffffffffffffffffffff\n  and\n  0x80\n  swap1\n  0xffffffffffffffffffffffffffffffffffffffff\n  and\n  dup2\n  mstore\n  pop\n    /* \"payable.sol\":213:6514  contract Payable is... */\n  callvalue\n  dup1\n  iszero\n  tag_1\n  jumpi\n  0x00\n  dup1\n  revert\ntag_1:\n  pop\n  mload(0x80)\n  codecopy(0x00, dataOffset(sub_0), dataSize(sub_0))\n  0x00\n  assignImmutable(\"0x980c46aeb242fb2816eec3c43a568cdc6adda404b46e62cce4e3fe7d929881e3\")\n  return(0x00, dataSize(sub_0))\nstop\n\nsub_0: assembly {\n        /* \"payable.sol\":213:6514  contract Payable is... */\n      mstore(0x40, 0x80)\n      jumpi(tag_1, lt(calldatasize, 0x04))\n      shr(0xe0, calldataload(0x00))\n      dup1\n      0x8129fc1c\n      gt\n      tag_19\n      jumpi\n      dup1\n      0xb69ef8a8\n      gt\n      tag_20\n      jumpi\n      dup1\n      0xb69ef8a8\n      eq\n      tag_14\n      jumpi\n      dup1\n      0xbe2af9cb\n      eq\n      tag_15\n      jumpi\n      dup1\n      0xc82830ea\n      eq\n      tag_16\n      jumpi\n      dup1\n      0xf2c7aded\n      eq\n      tag_17\n      jumpi\n      dup1\n      0xf8b2cb4f\n      eq\n      tag_18\n      jumpi\n      jump(tag_1)\n    tag_20:\n      dup1\n      0x8129fc1c\n      eq\n      tag_10\n      jumpi\n      dup1\n      0x838d4cd1\n      eq\n      tag_11\n      jumpi\n      dup1\n      0x9911a149\n      eq\n      tag_12\n      jumpi\n      dup1\n      0xad3cb1cc\n      eq\n      tag_13\n      jumpi\n      jump(tag_1)\n    tag_19:\n      dup1\n      0x35b0d745\n      gt\n      tag_21\n      jumpi\n      dup1\n      0x35b0d745\n      eq\n      tag_6\n      jumpi\n      dup1\n      0x4f1ef286\n      eq\n      tag_7\n      jumpi\n      dup1\n      0x52d1902d\n      eq\n      tag_8\n      jumpi\n      dup1\n      0x6a882d51\n      eq\n      tag_9\n      jumpi\n      jump(tag_1)\n    tag_21:\n      dup1\n      0x0fa683d3\n      eq\n      tag_2\n      jumpi\n      dup1\n      0x1e7f8f0f\n      eq\n      tag_3\n      jumpi\n      dup1\n      0x242232d1\n      eq\n      tag_4\n      jumpi\n      dup1\n      0x27506f53\n      eq\n      tag_5\n      jumpi\n    tag_1:\n      0x00\n      dup1\n      revert\n        /* \"payable.sol\":3641:3784  function getTransactionDetails(uint transactionId) public view returns (Transaction memory) {... */\n    tag_2:\n      callvalue\n      dup1\n      iszero\n      tag_22\n      jumpi\n      0x00\n      dup1\n      revert\n    tag_22:\n      pop\n      tag_23\n      0x04\n      dup1\n      calldatasize\n      sub\n      dup2\n      add\n      swap1\n      tag_24\n      swap2\n      swap1\n      tag_25\n      jump\t// in\n    tag_24:\n      tag_26\n      jump\t// in\n    tag_23:\n      mload(0x40)\n      tag_27\n      swap2\n      swap1\n      tag_28\n      jump\t// in\n    tag_27:\n      mload(0x40)\n      dup1\n      swap2\n      sub\n      swap1\n      return\n        /* \"payable.sol\":1909:2549  function createTransaction(address to, uint _amount) external returns (uint) {... */\n    tag_3:\n      callvalue\n      dup1\n      iszero\n      tag_29\n      jumpi\n      0x00\n      dup1\n      revert\n    tag_29:\n      pop\n      tag_30\n      0x04\n      dup1\n      calldatasize\n      sub\n      dup2\n      add\n      swap1\n      tag_31\n      swap2\n      swap1\n      tag_32\n      jump\t// in\n    tag_31:\n      tag_33\n      jump\t// in\n    tag_30:\n      mload(0x40)\n      tag_34\n      swap2\n      swap1\n      tag_35\n      jump\t// in\n    tag_34:\n      mload(0x40)\n      dup1\n      swap2\n      sub\n      swap1\n      return\n        /* \"payable.sol\":2559:3318  function approveTransaction(uint256 transactionId) public onlyApprover {... */\n    tag_4:\n      callvalue\n      dup1\n      iszero\n      tag_36\n      jumpi\n      0x00\n      dup1\n      revert\n    tag_36:\n      pop\n      tag_37\n      0x04\n      dup1\n      calldatasize\n      sub\n      dup2\n      add\n      swap1\n      tag_38\n      swap2\n      swap1\n      tag_25\n      jump\t// in\n    tag_38:\n      tag_39\n      jump\t// in\n    tag_37:\n      stop\n        /* \"payable.sol\":3790:3899  function getAllTransactions() public view returns (Transaction[] memory) {... */\n    tag_5:\n      callvalue\n      dup1\n      iszero\n      tag_40\n      jumpi\n      0x00\n      dup1\n      revert\n    tag_40:\n      pop\n      tag_41\n      tag_42\n      jump\t// in\n    tag_41:\n      mload(0x40)\n      tag_43\n      swap2\n      swap1\n      tag_44\n      jump\t// in\n    tag_43:\n      mload(0x40)\n      dup1\n      swap2\n      sub\n      swap1\n      return\n        /* \"payable.sol\":4019:4133  function appliedApproversList() public view returns (address[] memory) {... */\n    tag_6:\n      callvalue\n      dup1\n      iszero\n      tag_45\n      jumpi\n      0x00\n      dup1\n      revert\n    tag_45:\n      pop\n      tag_46\n      tag_47\n      jump\t// in\n    tag_46:\n      mload(0x40)\n      tag_48\n      swap2\n      swap1\n      tag_49\n      jump\t// in\n    tag_48:\n      mload(0x40)\n      dup1\n      swap2\n      sub\n      swap1\n      return\n        /* \"@openzeppelin/contracts-upgradeable/proxy/utils/UUPSUpgradeable.sol\":4158:4372  function upgradeToAndCall(address newImplementation, bytes memory data) public payable virtual onlyProxy {... */\n    tag_7:\n      tag_50\n      0x04\n      dup1\n      calldatasize\n      sub\n      dup2\n      add\n      swap1\n      tag_51\n      swap2\n      swap1\n      tag_52\n      jump\t// in\n    tag_51:\n      tag_53\n      jump\t// in\n    tag_50:\n      stop\n        /* \"@openzeppelin/contracts-upgradeable/proxy/utils/UUPSUpgradeable.sol\":3705:3839  function proxiableUUID() external view virtual notDelegated returns (bytes32) {... */\n    tag_8:\n      callvalue\n      dup1\n      iszero\n      tag_54\n      jumpi\n      0x00\n      dup1\n      revert\n    tag_54:\n      pop\n      tag_55\n      tag_56\n      jump\t// in\n    tag_55:\n      mload(0x40)\n      tag_57\n      swap2\n      swap1\n      tag_58\n      jump\t// in\n    tag_57:\n      mload(0x40)\n      dup1\n      swap2\n      sub\n      swap1\n      return\n        /* \"payable.sol\":4912:5282  function addApprovers(address[] memory addresses) public onlyOwner {... */\n    tag_9:\n      callvalue\n      dup1\n      iszero\n      tag_59\n      jumpi\n      0x00\n      dup1\n      revert\n    tag_59:\n      pop\n      tag_60\n      0x04\n      dup1\n      calldatasize\n      sub\n      dup2\n      add\n      swap1\n      tag_61\n      swap2\n      swap1\n      tag_62\n      jump\t// in\n    tag_61:\n      tag_63\n      jump\t// in\n    tag_60:\n      stop\n        /* \"payable.sol\":1557:1705  function initialize() public initializer {... */\n    tag_10:\n      callvalue\n      dup1\n      iszero\n      tag_64\n      jumpi\n      0x00\n      dup1\n      revert\n    tag_64:\n      pop\n      tag_65\n      tag_66\n      jump\t// in\n    tag_65:\n      stop\n        /* \"payable.sol\":5629:6254  function approveApprover(address adres) public onlyOwner {... */\n    tag_11:\n      callvalue\n      dup1\n      iszero\n      tag_67\n      jumpi\n      0x00\n      dup1\n      revert\n    tag_67:\n      pop\n      tag_68\n      0x04\n      dup1\n      calldatasize\n      sub\n      dup2\n      add\n      swap1\n      tag_69\n      swap2\n      swap1\n      tag_70\n      jump\t// in\n    tag_69:\n      tag_71\n      jump\t// in\n    tag_68:\n      stop\n        /* \"payable.sol\":3324:3631  function disapproveTransaction(uint256 transactionId) public onlyApprover {... */\n    tag_12:\n      callvalue\n      dup1\n      iszero\n      tag_72\n      jumpi\n      0x00\n      dup1\n      revert\n    tag_72:\n      pop\n      tag_73\n      0x04\n      dup1\n      calldatasize\n      sub\n      dup2\n      add\n      swap1\n      tag_74\n      swap2\n      swap1\n      tag_25\n      jump\t// in\n    tag_74:\n      tag_75\n      jump\t// in\n    tag_73:\n      stop\n        /* \"@openzeppelin/contracts-upgradeable/proxy/utils/UUPSUpgradeable.sol\":1819:1877  string public constant UPGRADE_INTERFACE_VERSION = \"5.0.0\" */\n    tag_13:\n      callvalue\n      dup1\n      iszero\n      tag_76\n      jumpi\n      0x00\n      dup1\n      revert\n    tag_76:\n      pop\n      tag_77\n      tag_78\n      jump\t// in\n    tag_77:\n      mload(0x40)\n      tag_79\n      swap2\n      swap1\n      tag_80\n      jump\t// in\n    tag_79:\n      mload(0x40)\n      dup1\n      swap2\n      sub\n      swap1\n      return\n        /* \"payable.sol\":6372:6463  function balance() public view returns (uint) {... */\n    tag_14:\n      callvalue\n      dup1\n      iszero\n      tag_81\n      jumpi\n      0x00\n      dup1\n      revert\n    tag_81:\n      pop\n      tag_82\n      tag_83\n      jump\t// in\n    tag_82:\n      mload(0x40)\n      tag_84\n      swap2\n      swap1\n      tag_35\n      jump\t// in\n    tag_84:\n      mload(0x40)\n      dup1\n      swap2\n      sub\n      swap1\n      return\n        /* \"payable.sol\":3905:4013  function approversList() public view returns (address[] memory) {... */\n    tag_15:\n      callvalue\n      dup1\n      iszero\n      tag_85\n      jumpi\n      0x00\n      dup1\n      revert\n    tag_85:\n      pop\n      tag_86\n      tag_87\n      jump\t// in\n    tag_86:\n      mload(0x40)\n      tag_88\n      swap2\n      swap1\n      tag_49\n      jump\t// in\n    tag_88:\n      mload(0x40)\n      dup1\n      swap2\n      sub\n      swap1\n      return\n        /* \"payable.sol\":5288:5623  function applyForApprover(address adress) public {... */\n    tag_16:\n      callvalue\n      dup1\n      iszero\n      tag_89\n      jumpi\n      0x00\n      dup1\n      revert\n    tag_89:\n      pop\n      tag_90\n      0x04\n      dup1\n      calldatasize\n      sub\n      dup2\n      add\n      swap1\n      tag_91\n      swap2\n      swap1\n      tag_70\n      jump\t// in\n    tag_91:\n      tag_92\n      jump\t// in\n    tag_90:\n      stop\n        /* \"payable.sol\":6469:6512  function receivEthere() external payable {} */\n    tag_17:\n      tag_93\n      tag_94\n      jump\t// in\n    tag_93:\n      stop\n        /* \"payable.sol\":6260:6362  function getBalance(address ad) public view returns (uint) {... */\n    tag_18:\n      callvalue\n      dup1\n      iszero\n      tag_95\n      jumpi\n      0x00\n      dup1\n      revert\n    tag_95:\n      pop\n      tag_96\n      0x04\n      dup1\n      calldatasize\n      sub\n      dup2\n      add\n      swap1\n      tag_97\n      swap2\n      swap1\n      tag_70\n      jump\t// in\n    tag_97:\n      tag_98\n      jump\t// in\n    tag_96:\n      mload(0x40)\n      tag_99\n      swap2\n      swap1\n      tag_35\n      jump\t// in\n    tag_99:\n      mload(0x40)\n      dup1\n      swap2\n      sub\n      swap1\n      return\n        /* \"payable.sol\":3641:3784  function getTransactionDetails(uint transactionId) public view returns (Transaction memory) {... */\n    tag_26:\n        /* \"payable.sol\":3713:3731  Transaction memory */\n      tag_100\n      tag_101\n      jump\t// in\n    tag_100:\n        /* \"payable.sol\":3750:3762  transactions */\n      0x05\n        /* \"payable.sol\":3763:3776  transactionId */\n      dup3\n        /* \"payable.sol\":3750:3777  transactions[transactionId] */\n      dup2\n      sload\n      dup2\n      lt\n      tag_103\n      jumpi\n      tag_104\n      tag_105\n      jump\t// in\n    tag_104:\n    tag_103:\n      swap1\n      0x00\n      mstore\n      keccak256(0x00, 0x20)\n      swap1\n      0x08\n      mul\n      add\n        /* \"payable.sol\":3743:3777  return transactions[transactionId] */\n      mload(0x40)\n      dup1\n      0x0100\n      add\n      0x40\n      mstore\n      swap1\n      dup2\n      0x00\n      dup3\n      add\n      0x00\n      swap1\n      sload\n      swap1\n      0x0100\n      exp\n      swap1\n      div\n      0xffffffffffffffffffffffffffffffffffffffff\n      and\n      0xffffffffffffffffffffffffffffffffffffffff\n      and\n      0xffffffffffffffffffffffffffffffffffffffff\n      and\n      dup2\n      mstore\n      0x20\n      add\n      0x01\n      dup3\n      add\n      sload\n      dup2\n      mstore\n      0x20\n      add\n      0x02\n      dup3\n      add\n      dup1\n      sload\n      dup1\n      0x20\n      mul\n      0x20\n      add\n      mload(0x40)\n      swap1\n      dup2\n      add\n      0x40\n      mstore\n      dup1\n      swap3\n      swap2\n      swap1\n      dup2\n      dup2\n      mstore\n      0x20\n      add\n      dup3\n      dup1\n      sload\n      dup1\n      iszero\n      tag_107\n      jumpi\n      0x20\n      mul\n      dup3\n      add\n      swap2\n      swap1\n      0x00\n      mstore\n      keccak256(0x00, 0x20)\n      swap1\n    tag_108:\n      dup2\n      0x00\n      swap1\n      sload\n      swap1\n      0x0100\n      exp\n      swap1\n      div\n      0xffffffffffffffffffffffffffffffffffffffff\n      and\n      0xffffffffffffffffffffffffffffffffffffffff\n      and\n      dup2\n      mstore\n      0x20\n      add\n      swap1\n      0x01\n      add\n      swap1\n      dup1\n      dup4\n      gt\n      tag_108\n      jumpi\n    tag_107:\n      pop\n      pop\n      pop\n      pop\n      pop\n      dup2\n      mstore\n      0x20\n      add\n      0x03\n      dup3\n      add\n      dup1\n      sload\n      dup1\n      0x20\n      mul\n      0x20\n      add\n      mload(0x40)\n      swap1\n      dup2\n      add\n      0x40\n      mstore\n      dup1\n      swap3\n      swap2\n      swap1\n      dup2\n      dup2\n      mstore\n      0x20\n      add\n      dup3\n      dup1\n      sload\n      dup1\n      iszero\n      tag_109\n      jumpi\n      0x20\n      mul\n      dup3\n      add\n      swap2\n      swap1\n      0x00\n      mstore\n      keccak256(0x00, 0x20)\n      swap1\n    tag_110:\n      dup2\n      0x00\n      swap1\n      sload\n      swap1\n      0x0100\n      exp\n      swap1\n      div\n      0xffffffffffffffffffffffffffffffffffffffff\n      and\n      0xffffffffffffffffffffffffffffffffffffffff\n      and\n      dup2\n      mstore\n      0x20\n      add\n      swap1\n      0x01\n      add\n      swap1\n      dup1\n      dup4\n      gt\n      tag_110\n      jumpi\n    tag_109:\n      pop\n      pop\n      pop\n      pop\n      pop\n      dup2\n      mstore\n      0x20\n      add\n      0x04\n      dup3\n      add\n      0x00\n      swap1\n      sload\n      swap1\n      0x0100\n      exp\n      swap1\n      div\n      0xff\n      and\n      iszero\n      iszero\n      iszero\n      iszero\n      dup2\n      mstore\n      0x20\n      add\n      0x05\n      dup3\n      add\n      sload\n      dup2\n      mstore\n      0x20\n      add\n      0x06\n      dup3\n      add\n      sload\n      dup2\n      mstore\n      0x20\n      add\n      0x07\n      dup3\n      add\n      sload\n      dup2\n      mstore\n      pop\n      pop\n      swap1\n      pop\n        /* \"payable.sol\":3641:3784  function getTransactionDetails(uint transactionId) public view returns (Transaction memory) {... */\n      swap2\n      swap1\n      pop\n      jump\t// out\n        /* \"payable.sol\":1909:2549  function createTransaction(address to, uint _amount) external returns (uint) {... */\n    tag_33:\n        /* \"payable.sol\":1980:1984  uint */\n      0x00\n        /* \"payable.sol\":2029:2036  _amount */\n      dup2\n        /* \"payable.sol\":2004:2025  address(this).balance */\n      selfbalance\n        /* \"payable.sol\":2004:2036  address(this).balance >= _amount */\n      lt\n      iszero\n        /* \"payable.sol\":1996:2077  require(address(this).balance >= _amount, \"Insufficient balance in the contract\") */\n      tag_112\n      jumpi\n      mload(0x40)\n      0x08c379a000000000000000000000000000000000000000000000000000000000\n      dup2\n      mstore\n      0x04\n      add\n      tag_113\n      swap1\n      tag_114\n      jump\t// in\n    tag_113:\n      mload(0x40)\n      dup1\n      swap2\n      sub\n      swap1\n      revert\n    tag_112:\n        /* \"payable.sol\":2087:2108  uint256 transactionId */\n      0x00\n        /* \"payable.sol\":2111:2123  transactions */\n      0x05\n        /* \"payable.sol\":2111:2130  transactions.length */\n      dup1\n      sload\n      swap1\n      pop\n        /* \"payable.sol\":2087:2130  uint256 transactionId = transactions.length */\n      swap1\n      pop\n        /* \"payable.sol\":2140:2174  Transaction storage newTransaction */\n      0x00\n        /* \"payable.sol\":2177:2189  transactions */\n      0x05\n        /* \"payable.sol\":2177:2196  transactions.push() */\n      0x01\n      dup2\n      0x01\n      dup2\n      sload\n      add\n      dup1\n      dup3\n      sstore\n      dup1\n      swap2\n      pop\n      pop\n      sub\n      swap1\n      0x00\n      mstore\n      keccak256(0x00, 0x20)\n      swap1\n      0x08\n      mul\n      add\n        /* \"payable.sol\":2140:2196  Transaction storage newTransaction = transactions.push() */\n      swap1\n      pop\n        /* \"payable.sol\":2227:2229  to */\n      dup5\n        /* \"payable.sol\":2207:2221  newTransaction */\n      dup2\n        /* \"payable.sol\":2207:2224  newTransaction.to */\n      0x00\n      add\n      0x00\n        /* \"payable.sol\":2207:2229  newTransaction.to = to */\n      0x0100\n      exp\n      dup2\n      sload\n      dup2\n      0xffffffffffffffffffffffffffffffffffffffff\n      mul\n      not\n      and\n      swap1\n      dup4\n      0xffffffffffffffffffffffffffffffffffffffff\n      and\n      mul\n      or\n      swap1\n      sstore\n      pop\n        /* \"payable.sol\":2263:2270  _amount */\n      dup4\n        /* \"payable.sol\":2239:2253  newTransaction */\n      dup2\n        /* \"payable.sol\":2239:2260  newTransaction.amount */\n      0x01\n      add\n        /* \"payable.sol\":2239:2270  newTransaction.amount = _amount */\n      dup2\n      swap1\n      sstore\n      pop\n        /* \"payable.sol\":2306:2311  false */\n      0x00\n        /* \"payable.sol\":2280:2294  newTransaction */\n      dup2\n        /* \"payable.sol\":2280:2303  newTransaction.executed */\n      0x04\n      add\n      0x00\n        /* \"payable.sol\":2280:2311  newTransaction.executed = false */\n      0x0100\n      exp\n      dup2\n      sload\n      dup2\n      0xff\n      mul\n      not\n      and\n      swap1\n      dup4\n      iszero\n      iszero\n      mul\n      or\n      swap1\n      sstore\n      pop\n        /* \"payable.sol\":2348:2363  block.timestamp */\n      timestamp\n        /* \"payable.sol\":2321:2335  newTransaction */\n      dup2\n        /* \"payable.sol\":2321:2345  newTransaction.timestamp */\n      0x05\n      add\n        /* \"payable.sol\":2321:2363  newTransaction.timestamp = block.timestamp */\n      dup2\n      swap1\n      sstore\n      pop\n        /* \"payable.sol\":2404:2405  0 */\n      0x00\n        /* \"payable.sol\":2373:2387  newTransaction */\n      dup2\n        /* \"payable.sol\":2373:2401  newTransaction.approvalCount */\n      0x06\n      add\n        /* \"payable.sol\":2373:2405  newTransaction.approvalCount = 0 */\n      dup2\n      swap1\n      sstore\n      pop\n        /* \"payable.sol\":2449:2450  0 */\n      0x00\n        /* \"payable.sol\":2415:2429  newTransaction */\n      dup2\n        /* \"payable.sol\":2415:2446  newTransaction.disapprovalCount */\n      0x07\n      add\n        /* \"payable.sol\":2415:2450  newTransaction.disapprovalCount = 0 */\n      dup2\n      swap1\n      sstore\n      pop\n        /* \"payable.sol\":2466:2512  TransactionCreated(transactionId, to, _amount) */\n      0xfd27d176b6ebb21e0182c0e43df5818e0d632867e1eb47c383c58d221205fce3\n        /* \"payable.sol\":2485:2498  transactionId */\n      dup3\n        /* \"payable.sol\":2500:2502  to */\n      dup7\n        /* \"payable.sol\":2504:2511  _amount */\n      dup7\n        /* \"payable.sol\":2466:2512  TransactionCreated(transactionId, to, _amount) */\n      mload(0x40)\n      tag_116\n      swap4\n      swap3\n      swap2\n      swap1\n      tag_117\n      jump\t// in\n    tag_116:\n      mload(0x40)\n      dup1\n      swap2\n      sub\n      swap1\n      log1\n        /* \"payable.sol\":2529:2542  transactionId */\n      dup2\n        /* \"payable.sol\":2522:2542  return transactionId */\n      swap3\n      pop\n      pop\n      pop\n        /* \"payable.sol\":1909:2549  function createTransaction(address to, uint _amount) external returns (uint) {... */\n      swap3\n      swap2\n      pop\n      pop\n      jump\t// out\n        /* \"payable.sol\":2559:3318  function approveTransaction(uint256 transactionId) public onlyApprover {... */\n    tag_39:\n        /* \"payable.sol\":1312:1329  approvedApprovers */\n      0x01\n        /* \"payable.sol\":1312:1341  approvedApprovers[msg.sender] */\n      0x00\n        /* \"payable.sol\":1330:1340  msg.sender */\n      caller\n        /* \"payable.sol\":1312:1341  approvedApprovers[msg.sender] */\n      0xffffffffffffffffffffffffffffffffffffffff\n      and\n      0xffffffffffffffffffffffffffffffffffffffff\n      and\n      dup2\n      mstore\n      0x20\n      add\n      swap1\n      dup2\n      mstore\n      0x20\n      add\n      0x00\n      keccak256\n      0x00\n      swap1\n      sload\n      swap1\n      0x0100\n      exp\n      swap1\n      div\n      0xff\n      and\n        /* \"payable.sol\":1304:1393  require(approvedApprovers[msg.sender], \"This function can only be called by an Approver\") */\n      tag_119\n      jumpi\n      mload(0x40)\n      0x08c379a000000000000000000000000000000000000000000000000000000000\n      dup2\n      mstore\n      0x04\n      add\n      tag_120\n      swap1\n      tag_121\n      jump\t// in\n    tag_120:\n      mload(0x40)\n      dup1\n      swap2\n      sub\n      swap1\n      revert\n    tag_119:\n        /* \"payable.sol\":2640:2671  Transaction storage transaction */\n      0x00\n        /* \"payable.sol\":2674:2686  transactions */\n      0x05\n        /* \"payable.sol\":2687:2700  transactionId */\n      dup3\n        /* \"payable.sol\":2674:2701  transactions[transactionId] */\n      dup2\n      sload\n      dup2\n      lt\n      tag_123\n      jumpi\n      tag_124\n      tag_105\n      jump\t// in\n    tag_124:\n    tag_123:\n      swap1\n      0x00\n      mstore\n      keccak256(0x00, 0x20)\n      swap1\n      0x08\n      mul\n      add\n        /* \"payable.sol\":2640:2701  Transaction storage transaction = transactions[transactionId] */\n      swap1\n      pop\n        /* \"payable.sol\":2720:2731  transaction */\n      dup1\n        /* \"payable.sol\":2720:2740  transaction.executed */\n      0x04\n      add\n      0x00\n      swap1\n      sload\n      swap1\n      0x0100\n      exp\n      swap1\n      div\n      0xff\n      and\n        /* \"payable.sol\":2719:2740  !transaction.executed */\n      iszero\n        /* \"payable.sol\":2711:2780  require(!transaction.executed, \"The Transaction is already executed\") */\n      tag_126\n      jumpi\n      mload(0x40)\n      0x08c379a000000000000000000000000000000000000000000000000000000000\n      dup2\n      mstore\n      0x04\n      add\n      tag_127\n      swap1\n      tag_128\n      jump\t// in\n    tag_127:\n      mload(0x40)\n      dup1\n      swap2\n      sub\n      swap1\n      revert\n    tag_126:\n        /* \"payable.sol\":2790:2801  transaction */\n      dup1\n        /* \"payable.sol\":2790:2811  transaction.approvals */\n      0x02\n      add\n        /* \"payable.sol\":2817:2827  msg.sender */\n      caller\n        /* \"payable.sol\":2790:2828  transaction.approvals.push(msg.sender) */\n      swap1\n      dup1\n      0x01\n      dup2\n      sload\n      add\n      dup1\n      dup3\n      sstore\n      dup1\n      swap2\n      pop\n      pop\n      0x01\n      swap1\n      sub\n      swap1\n      0x00\n      mstore\n      keccak256(0x00, 0x20)\n      add\n      0x00\n      swap1\n      swap2\n      swap1\n      swap2\n      swap1\n      swap2\n      0x0100\n      exp\n      dup2\n      sload\n      dup2\n      0xffffffffffffffffffffffffffffffffffffffff\n      mul\n      not\n      and\n      swap1\n      dup4\n      0xffffffffffffffffffffffffffffffffffffffff\n      and\n      mul\n      or\n      swap1\n      sstore\n      pop\n        /* \"payable.sol\":2838:2849  transaction */\n      dup1\n        /* \"payable.sol\":2838:2863  transaction.approvalCount */\n      0x06\n      add\n      0x00\n        /* \"payable.sol\":2838:2865  transaction.approvalCount++ */\n      dup2\n      sload\n      dup1\n      swap3\n      swap2\n      swap1\n      tag_130\n      swap1\n      tag_131\n      jump\t// in\n    tag_130:\n      swap2\n      swap1\n      pop\n      sstore\n      pop\n        /* \"payable.sol\":2908:2949  getMax(minimumApprovals, approverCount/2) */\n      tag_132\n        /* \"payable.sol\":2915:2931  minimumApprovals */\n      sload(0x07)\n        /* \"payable.sol\":2947:2948  2 */\n      0x02\n        /* \"payable.sol\":2933:2946  approverCount */\n      sload(0x06)\n        /* \"payable.sol\":2933:2948  approverCount/2 */\n      tag_133\n      swap2\n      swap1\n      tag_134\n      jump\t// in\n    tag_133:\n        /* \"payable.sol\":2908:2914  getMax */\n      tag_135\n        /* \"payable.sol\":2908:2949  getMax(minimumApprovals, approverCount/2) */\n      jump\t// in\n    tag_132:\n        /* \"payable.sol\":2879:2890  transaction */\n      dup2\n        /* \"payable.sol\":2879:2904  transaction.approvalCount */\n      0x06\n      add\n      sload\n        /* \"payable.sol\":2879:2949  transaction.approvalCount >= getMax(minimumApprovals, approverCount/2) */\n      lt\n        /* \"payable.sol\":2876:3312  if(transaction.approvalCount >= getMax(minimumApprovals, approverCount/2)) {... */\n      tag_136\n      jumpi\n        /* \"payable.sol\":2968:3001  executeTransaction(transactionId) */\n      tag_137\n        /* \"payable.sol\":2987:3000  transactionId */\n      dup3\n        /* \"payable.sol\":2968:2986  executeTransaction */\n      tag_138\n        /* \"payable.sol\":2968:3001  executeTransaction(transactionId) */\n      jump\t// in\n    tag_137:\n        /* \"payable.sol\":2965:3220  if(executeTransaction(transactionId)) {... */\n      iszero\n      tag_139\n      jumpi\n        /* \"payable.sol\":3026:3093  FundsTransferred(transactionId, transaction.to, transaction.amount) */\n      0xe90ae330e5aefc2a73ddff0dd88bcaf8f4a0629d6553a2a85b22cac3d5f4a19e\n        /* \"payable.sol\":3043:3056  transactionId */\n      dup3\n        /* \"payable.sol\":3058:3069  transaction */\n      dup3\n        /* \"payable.sol\":3058:3072  transaction.to */\n      0x00\n      add\n      0x00\n      swap1\n      sload\n      swap1\n      0x0100\n      exp\n      swap1\n      div\n      0xffffffffffffffffffffffffffffffffffffffff\n      and\n        /* \"payable.sol\":3074:3085  transaction */\n      dup4\n        /* \"payable.sol\":3074:3092  transaction.amount */\n      0x01\n      add\n      sload\n        /* \"payable.sol\":3026:3093  FundsTransferred(transactionId, transaction.to, transaction.amount) */\n      mload(0x40)\n      tag_140\n      swap4\n      swap3\n      swap2\n      swap1\n      tag_117\n      jump\t// in\n    tag_140:\n      mload(0x40)\n      dup1\n      swap2\n      sub\n      swap1\n      log1\n        /* \"payable.sol\":2965:3220  if(executeTransaction(transactionId)) {... */\n      jump(tag_141)\n    tag_139:\n        /* \"payable.sol\":3137:3205  TransactionFailed(transactionId, transaction.to, transaction.amount) */\n      0xe015d34eef89d312e7f4ce9ac2b7d0a952a1a5329981aa762e2a64ccfd88dcc3\n        /* \"payable.sol\":3155:3168  transactionId */\n      dup3\n        /* \"payable.sol\":3170:3181  transaction */\n      dup3\n        /* \"payable.sol\":3170:3184  transaction.to */\n      0x00\n      add\n      0x00\n      swap1\n      sload\n      swap1\n      0x0100\n      exp\n      swap1\n      div\n      0xffffffffffffffffffffffffffffffffffffffff\n      and\n        /* \"payable.sol\":3186:3197  transaction */\n      dup4\n        /* \"payable.sol\":3186:3204  transaction.amount */\n      0x01\n      add\n      sload\n        /* \"payable.sol\":3137:3205  TransactionFailed(transactionId, transaction.to, transaction.amount) */\n      mload(0x40)\n      tag_142\n      swap4\n      swap3\n      swap2\n      swap1\n      tag_117\n      jump\t// in\n    tag_142:\n      mload(0x40)\n      dup1\n      swap2\n      sub\n      swap1\n      log1\n        /* \"payable.sol\":2965:3220  if(executeTransaction(transactionId)) {... */\n    tag_141:\n        /* \"payable.sol\":2876:3312  if(transaction.approvalCount >= getMax(minimumApprovals, approverCount/2)) {... */\n      jump(tag_143)\n    tag_136:\n        /* \"payable.sol\":3255:3301  TransactionApproved(transactionId, msg.sender) */\n      0x924813d717e221b5f46dcd8a56da1679e4612584ab3237d55e5faabf6f6a3079\n        /* \"payable.sol\":3275:3288  transactionId */\n      dup3\n        /* \"payable.sol\":3290:3300  msg.sender */\n      caller\n        /* \"payable.sol\":3255:3301  TransactionApproved(transactionId, msg.sender) */\n      mload(0x40)\n      tag_144\n      swap3\n      swap2\n      swap1\n      tag_145\n      jump\t// in\n    tag_144:\n      mload(0x40)\n      dup1\n      swap2\n      sub\n      swap1\n      log1\n        /* \"payable.sol\":2876:3312  if(transaction.approvalCount >= getMax(minimumApprovals, approverCount/2)) {... */\n    tag_143:\n        /* \"payable.sol\":2630:3318  {... */\n      pop\n        /* \"payable.sol\":2559:3318  function approveTransaction(uint256 transactionId) public onlyApprover {... */\n      pop\n      jump\t// out\n        /* \"payable.sol\":3790:3899  function getAllTransactions() public view returns (Transaction[] memory) {... */\n    tag_42:\n        /* \"payable.sol\":3841:3861  Transaction[] memory */\n      0x60\n        /* \"payable.sol\":3880:3892  transactions */\n      0x05\n        /* \"payable.sol\":3873:3892  return transactions */\n      dup1\n      sload\n      dup1\n      0x20\n      mul\n      0x20\n      add\n      mload(0x40)\n      swap1\n      dup2\n      add\n      0x40\n      mstore\n      dup1\n      swap3\n      swap2\n      swap1\n      dup2\n      dup2\n      mstore\n      0x20\n      add\n      0x00\n      swap1\n    tag_147:\n      dup3\n      dup3\n      lt\n      iszero\n      tag_148\n      jumpi\n      dup4\n      dup3\n      swap1\n      0x00\n      mstore\n      keccak256(0x00, 0x20)\n      swap1\n      0x08\n      mul\n      add\n      mload(0x40)\n      dup1\n      0x0100\n      add\n      0x40\n      mstore\n      swap1\n      dup2\n      0x00\n      dup3\n      add\n      0x00\n      swap1\n      sload\n      swap1\n      0x0100\n      exp\n      swap1\n      div\n      0xffffffffffffffffffffffffffffffffffffffff\n      and\n      0xffffffffffffffffffffffffffffffffffffffff\n      and\n      0xffffffffffffffffffffffffffffffffffffffff\n      and\n      dup2\n      mstore\n      0x20\n      add\n      0x01\n      dup3\n      add\n      sload\n      dup2\n      mstore\n      0x20\n      add\n      0x02\n      dup3\n      add\n      dup1\n      sload\n      dup1\n      0x20\n      mul\n      0x20\n      add\n      mload(0x40)\n      swap1\n      dup2\n      add\n      0x40\n      mstore\n      dup1\n      swap3\n      swap2\n      swap1\n      dup2\n      dup2\n      mstore\n      0x20\n      add\n      dup3\n      dup1\n      sload\n      dup1\n      iszero\n      tag_150\n      jumpi\n      0x20\n      mul\n      dup3\n      add\n      swap2\n      swap1\n      0x00\n      mstore\n      keccak256(0x00, 0x20)\n      swap1\n    tag_151:\n      dup2\n      0x00\n      swap1\n      sload\n      swap1\n      0x0100\n      exp\n      swap1\n      div\n      0xffffffffffffffffffffffffffffffffffffffff\n      and\n      0xffffffffffffffffffffffffffffffffffffffff\n      and\n      dup2\n      mstore\n      0x20\n      add\n      swap1\n      0x01\n      add\n      swap1\n      dup1\n      dup4\n      gt\n      tag_151\n      jumpi\n    tag_150:\n      pop\n      pop\n      pop\n      pop\n      pop\n      dup2\n      mstore\n      0x20\n      add\n      0x03\n      dup3\n      add\n      dup1\n      sload\n      dup1\n      0x20\n      mul\n      0x20\n      add\n      mload(0x40)\n      swap1\n      dup2\n      add\n      0x40\n      mstore\n      dup1\n      swap3\n      swap2\n      swap1\n      dup2\n      dup2\n      mstore\n      0x20\n      add\n      dup3\n      dup1\n      sload\n      dup1\n      iszero\n      tag_152\n      jumpi\n      0x20\n      mul\n      dup3\n      add\n      swap2\n      swap1\n      0x00\n      mstore\n      keccak256(0x00, 0x20)\n      swap1\n    tag_153:\n      dup2\n      0x00\n      swap1\n      sload\n      swap1\n      0x0100\n      exp\n      swap1\n      div\n      0xffffffffffffffffffffffffffffffffffffffff\n      and\n      0xffffffffffffffffffffffffffffffffffffffff\n      and\n      dup2\n      mstore\n      0x20\n      add\n      swap1\n      0x01\n      add\n      swap1\n      dup1\n      dup4\n      gt\n      tag_153\n      jumpi\n    tag_152:\n      pop\n      pop\n      pop\n      pop\n      pop\n      dup2\n      mstore\n      0x20\n      add\n      0x04\n      dup3\n      add\n      0x00\n      swap1\n      sload\n      swap1\n      0x0100\n      exp\n      swap1\n      div\n      0xff\n      and\n      iszero\n      iszero\n      iszero\n      iszero\n      dup2\n      mstore\n      0x20\n      add\n      0x05\n      dup3\n      add\n      sload\n      dup2\n      mstore\n      0x20\n      add\n      0x06\n      dup3\n      add\n      sload\n      dup2\n      mstore\n      0x20\n      add\n      0x07\n      dup3\n      add\n      sload\n      dup2\n      mstore\n      pop\n      pop\n      dup2\n      mstore\n      0x20\n      add\n      swap1\n      0x01\n      add\n      swap1\n      jump(tag_147)\n    tag_148:\n      pop\n      pop\n      pop\n      pop\n      swap1\n      pop\n        /* \"payable.sol\":3790:3899  function getAllTransactions() public view returns (Transaction[] memory) {... */\n      swap1\n      jump\t// out\n        /* \"payable.sol\":4019:4133  function appliedApproversList() public view returns (address[] memory) {... */\n    tag_47:\n        /* \"payable.sol\":4072:4088  address[] memory */\n      0x60\n        /* \"payable.sol\":4107:4126  allAppliedAddresses */\n      0x04\n        /* \"payable.sol\":4100:4126  return allAppliedAddresses */\n      dup1\n      sload\n      dup1\n      0x20\n      mul\n      0x20\n      add\n      mload(0x40)\n      swap1\n      dup2\n      add\n      0x40\n      mstore\n      dup1\n      swap3\n      swap2\n      swap1\n      dup2\n      dup2\n      mstore\n      0x20\n      add\n      dup3\n      dup1\n      sload\n      dup1\n      iszero\n      tag_155\n      jumpi\n      0x20\n      mul\n      dup3\n      add\n      swap2\n      swap1\n      0x00\n      mstore\n      keccak256(0x00, 0x20)\n      swap1\n    tag_156:\n      dup2\n      0x00\n      swap1\n      sload\n      swap1\n      0x0100\n      exp\n      swap1\n      div\n      0xffffffffffffffffffffffffffffffffffffffff\n      and\n      0xffffffffffffffffffffffffffffffffffffffff\n      and\n      dup2\n      mstore\n      0x20\n      add\n      swap1\n      0x01\n      add\n      swap1\n      dup1\n      dup4\n      gt\n      tag_156\n      jumpi\n    tag_155:\n      pop\n      pop\n      pop\n      pop\n      pop\n      swap1\n      pop\n        /* \"payable.sol\":4019:4133  function appliedApproversList() public view returns (address[] memory) {... */\n      swap1\n      jump\t// out\n        /* \"@openzeppelin/contracts-upgradeable/proxy/utils/UUPSUpgradeable.sol\":4158:4372  function upgradeToAndCall(address newImplementation, bytes memory data) public payable virtual onlyProxy {... */\n    tag_53:\n        /* \"@openzeppelin/contracts-upgradeable/proxy/utils/UUPSUpgradeable.sol\":2653:2666  _checkProxy() */\n      tag_158\n        /* \"@openzeppelin/contracts-upgradeable/proxy/utils/UUPSUpgradeable.sol\":2653:2664  _checkProxy */\n      tag_159\n        /* \"@openzeppelin/contracts-upgradeable/proxy/utils/UUPSUpgradeable.sol\":2653:2666  _checkProxy() */\n      jump\t// in\n    tag_158:\n        /* \"@openzeppelin/contracts-upgradeable/proxy/utils/UUPSUpgradeable.sol\":4273:4309  _authorizeUpgrade(newImplementation) */\n      tag_161\n        /* \"@openzeppelin/contracts-upgradeable/proxy/utils/UUPSUpgradeable.sol\":4291:4308  newImplementation */\n      dup3\n        /* \"@openzeppelin/contracts-upgradeable/proxy/utils/UUPSUpgradeable.sol\":4273:4290  _authorizeUpgrade */\n      tag_162\n        /* \"@openzeppelin/contracts-upgradeable/proxy/utils/UUPSUpgradeable.sol\":4273:4309  _authorizeUpgrade(newImplementation) */\n      jump\t// in\n    tag_161:\n        /* \"@openzeppelin/contracts-upgradeable/proxy/utils/UUPSUpgradeable.sol\":4319:4365  _upgradeToAndCallUUPS(newImplementation, data) */\n      tag_163\n        /* \"@openzeppelin/contracts-upgradeable/proxy/utils/UUPSUpgradeable.sol\":4341:4358  newImplementation */\n      dup3\n        /* \"@openzeppelin/contracts-upgradeable/proxy/utils/UUPSUpgradeable.sol\":4360:4364  data */\n      dup3\n        /* \"@openzeppelin/contracts-upgradeable/proxy/utils/UUPSUpgradeable.sol\":4319:4340  _upgradeToAndCallUUPS */\n      tag_164\n        /* \"@openzeppelin/contracts-upgradeable/proxy/utils/UUPSUpgradeable.sol\":4319:4365  _upgradeToAndCallUUPS(newImplementation, data) */\n      jump\t// in\n    tag_163:\n        /* \"@openzeppelin/contracts-upgradeable/proxy/utils/UUPSUpgradeable.sol\":4158:4372  function upgradeToAndCall(address newImplementation, bytes memory data) public payable virtual onlyProxy {... */\n      pop\n      pop\n      jump\t// out\n        /* \"@openzeppelin/contracts-upgradeable/proxy/utils/UUPSUpgradeable.sol\":3705:3839  function proxiableUUID() external view virtual notDelegated returns (bytes32) {... */\n    tag_56:\n        /* \"@openzeppelin/contracts-upgradeable/proxy/utils/UUPSUpgradeable.sol\":3774:3781  bytes32 */\n      0x00\n        /* \"@openzeppelin/contracts-upgradeable/proxy/utils/UUPSUpgradeable.sol\":2924:2944  _checkNotDelegated() */\n      tag_166\n        /* \"@openzeppelin/contracts-upgradeable/proxy/utils/UUPSUpgradeable.sol\":2924:2942  _checkNotDelegated */\n      tag_167\n        /* \"@openzeppelin/contracts-upgradeable/proxy/utils/UUPSUpgradeable.sol\":2924:2944  _checkNotDelegated() */\n      jump\t// in\n    tag_166:\n        /* \"@openzeppelin/contracts/proxy/ERC1967/ERC1967Utils.sol\":1327:1393  0x360894a13ba1a3210667c828492db98dca3e2076cc3735a920a3ca505d382bbc */\n      0x360894a13ba1a3210667c828492db98dca3e2076cc3735a920a3ca505d382bbc\n        /* \"@openzeppelin/contracts-upgradeable/proxy/utils/UUPSUpgradeable.sol\":3800:3832  ERC1967Utils.IMPLEMENTATION_SLOT */\n      0x00\n      shl\n        /* \"@openzeppelin/contracts-upgradeable/proxy/utils/UUPSUpgradeable.sol\":3793:3832  return ERC1967Utils.IMPLEMENTATION_SLOT */\n      swap1\n      pop\n        /* \"@openzeppelin/contracts-upgradeable/proxy/utils/UUPSUpgradeable.sol\":3705:3839  function proxiableUUID() external view virtual notDelegated returns (bytes32) {... */\n      swap1\n      jump\t// out\n        /* \"payable.sol\":4912:5282  function addApprovers(address[] memory addresses) public onlyOwner {... */\n    tag_63:\n        /* \"payable.sol\":1466:1479  Contarctowner */\n      0x00\n      dup1\n      sload\n      swap1\n      0x0100\n      exp\n      swap1\n      div\n      0xffffffffffffffffffffffffffffffffffffffff\n      and\n        /* \"payable.sol\":1454:1479  msg.sender==Contarctowner */\n      0xffffffffffffffffffffffffffffffffffffffff\n      and\n        /* \"payable.sol\":1454:1464  msg.sender */\n      caller\n        /* \"payable.sol\":1454:1479  msg.sender==Contarctowner */\n      0xffffffffffffffffffffffffffffffffffffffff\n      and\n      eq\n        /* \"payable.sol\":1446:1529  require(msg.sender==Contarctowner,\"You are not the owner hence can't change this \") */\n      tag_170\n      jumpi\n      mload(0x40)\n      0x08c379a000000000000000000000000000000000000000000000000000000000\n      dup2\n      mstore\n      0x04\n      add\n      tag_171\n      swap1\n      tag_172\n      jump\t// in\n    tag_171:\n      mload(0x40)\n      dup1\n      swap2\n      sub\n      swap1\n      revert\n    tag_170:\n        /* \"payable.sol\":4994:5000  uint i */\n      0x00\n        /* \"payable.sol\":4989:5276  for (uint i = 0; i < addresses.length; i++) {... */\n    tag_174:\n        /* \"payable.sol\":5010:5019  addresses */\n      dup2\n        /* \"payable.sol\":5010:5026  addresses.length */\n      mload\n        /* \"payable.sol\":5006:5007  i */\n      dup2\n        /* \"payable.sol\":5006:5026  i < addresses.length */\n      lt\n        /* \"payable.sol\":4989:5276  for (uint i = 0; i < addresses.length; i++) {... */\n      iszero\n      tag_175\n      jumpi\n        /* \"payable.sol\":5052:5069  approvedApprovers */\n      0x01\n        /* \"payable.sol\":5052:5083  approvedApprovers[addresses[i]] */\n      0x00\n        /* \"payable.sol\":5070:5079  addresses */\n      dup4\n        /* \"payable.sol\":5080:5081  i */\n      dup4\n        /* \"payable.sol\":5070:5082  addresses[i] */\n      dup2\n      mload\n      dup2\n      lt\n      tag_177\n      jumpi\n      tag_178\n      tag_105\n      jump\t// in\n    tag_178:\n    tag_177:\n      0x20\n      mul\n      0x20\n      add\n      add\n      mload\n        /* \"payable.sol\":5052:5083  approvedApprovers[addresses[i]] */\n      0xffffffffffffffffffffffffffffffffffffffff\n      and\n      0xffffffffffffffffffffffffffffffffffffffff\n      and\n      dup2\n      mstore\n      0x20\n      add\n      swap1\n      dup2\n      mstore\n      0x20\n      add\n      0x00\n      keccak256\n      0x00\n      swap1\n      sload\n      swap1\n      0x0100\n      exp\n      swap1\n      div\n      0xff\n      and\n        /* \"payable.sol\":5047:5266  if (!approvedApprovers[addresses[i]]) {... */\n      tag_179\n      jumpi\n        /* \"payable.sol\":5137:5141  true */\n      0x01\n        /* \"payable.sol\":5103:5120  approvedApprovers */\n      dup1\n        /* \"payable.sol\":5103:5134  approvedApprovers[addresses[i]] */\n      0x00\n        /* \"payable.sol\":5121:5130  addresses */\n      dup5\n        /* \"payable.sol\":5131:5132  i */\n      dup5\n        /* \"payable.sol\":5121:5133  addresses[i] */\n      dup2\n      mload\n      dup2\n      lt\n      tag_180\n      jumpi\n      tag_181\n      tag_105\n      jump\t// in\n    tag_181:\n    tag_180:\n      0x20\n      mul\n      0x20\n      add\n      add\n      mload\n        /* \"payable.sol\":5103:5134  approvedApprovers[addresses[i]] */\n      0xffffffffffffffffffffffffffffffffffffffff\n      and\n      0xffffffffffffffffffffffffffffffffffffffff\n      and\n      dup2\n      mstore\n      0x20\n      add\n      swap1\n      dup2\n      mstore\n      0x20\n      add\n      0x00\n      keccak256\n      0x00\n        /* \"payable.sol\":5103:5141  approvedApprovers[addresses[i]] = true */\n      0x0100\n      exp\n      dup2\n      sload\n      dup2\n      0xff\n      mul\n      not\n      and\n      swap1\n      dup4\n      iszero\n      iszero\n      mul\n      or\n      swap1\n      sstore\n      pop\n        /* \"payable.sol\":5159:5179  allApprovedAddresses */\n      0x03\n        /* \"payable.sol\":5185:5194  addresses */\n      dup3\n        /* \"payable.sol\":5195:5196  i */\n      dup3\n        /* \"payable.sol\":5185:5197  addresses[i] */\n      dup2\n      mload\n      dup2\n      lt\n      tag_182\n      jumpi\n      tag_183\n      tag_105\n      jump\t// in\n    tag_183:\n    tag_182:\n      0x20\n      mul\n      0x20\n      add\n      add\n      mload\n        /* \"payable.sol\":5159:5198  allApprovedAddresses.push(addresses[i]) */\n      swap1\n      dup1\n      0x01\n      dup2\n      sload\n      add\n      dup1\n      dup3\n      sstore\n      dup1\n      swap2\n      pop\n      pop\n      0x01\n      swap1\n      sub\n      swap1\n      0x00\n      mstore\n      keccak256(0x00, 0x20)\n      add\n      0x00\n      swap1\n      swap2\n      swap1\n      swap2\n      swap1\n      swap2\n      0x0100\n      exp\n      dup2\n      sload\n      dup2\n      0xffffffffffffffffffffffffffffffffffffffff\n      mul\n      not\n      and\n      swap1\n      dup4\n      0xffffffffffffffffffffffffffffffffffffffff\n      and\n      mul\n      or\n      swap1\n      sstore\n      pop\n        /* \"payable.sol\":5221:5251  ApproverApproved(addresses[i]) */\n      0x8ffbf603707f31ab466f6b711c89ae5521b6f93b25d3f86200054018476696d6\n        /* \"payable.sol\":5238:5247  addresses */\n      dup3\n        /* \"payable.sol\":5248:5249  i */\n      dup3\n        /* \"payable.sol\":5238:5250  addresses[i] */\n      dup2\n      mload\n      dup2\n      lt\n      tag_185\n      jumpi\n      tag_186\n      tag_105\n      jump\t// in\n    tag_186:\n    tag_185:\n      0x20\n      mul\n      0x20\n      add\n      add\n      mload\n        /* \"payable.sol\":5221:5251  ApproverApproved(addresses[i]) */\n      mload(0x40)\n      tag_187\n      swap2\n      swap1\n      tag_188\n      jump\t// in\n    tag_187:\n      mload(0x40)\n      dup1\n      swap2\n      sub\n      swap1\n      log1\n        /* \"payable.sol\":5047:5266  if (!approvedApprovers[addresses[i]]) {... */\n    tag_179:\n        /* \"payable.sol\":5028:5031  i++ */\n      dup1\n      dup1\n      0x01\n      add\n      swap2\n      pop\n      pop\n        /* \"payable.sol\":4989:5276  for (uint i = 0; i < addresses.length; i++) {... */\n      jump(tag_174)\n    tag_175:\n      pop\n        /* \"payable.sol\":4912:5282  function addApprovers(address[] memory addresses) public onlyOwner {... */\n      pop\n      jump\t// out\n        /* \"payable.sol\":1557:1705  function initialize() public initializer {... */\n    tag_66:\n        /* \"@openzeppelin/contracts-upgradeable/proxy/utils/Initializable.sol\":4158:4188  InitializableStorage storage $ */\n      0x00\n        /* \"@openzeppelin/contracts-upgradeable/proxy/utils/Initializable.sol\":4191:4217  _getInitializableStorage() */\n      tag_190\n        /* \"@openzeppelin/contracts-upgradeable/proxy/utils/Initializable.sol\":4191:4215  _getInitializableStorage */\n      tag_191\n        /* \"@openzeppelin/contracts-upgradeable/proxy/utils/Initializable.sol\":4191:4217  _getInitializableStorage() */\n      jump\t// in\n    tag_190:\n        /* \"@openzeppelin/contracts-upgradeable/proxy/utils/Initializable.sol\":4158:4217  InitializableStorage storage $ = _getInitializableStorage() */\n      swap1\n      pop\n        /* \"@openzeppelin/contracts-upgradeable/proxy/utils/Initializable.sol\":4279:4298  bool isTopLevelCall */\n      0x00\n        /* \"@openzeppelin/contracts-upgradeable/proxy/utils/Initializable.sol\":4302:4303  $ */\n      dup2\n        /* \"@openzeppelin/contracts-upgradeable/proxy/utils/Initializable.sol\":4302:4317  $._initializing */\n      0x00\n      add\n      0x08\n      swap1\n      sload\n      swap1\n      0x0100\n      exp\n      swap1\n      div\n      0xff\n      and\n        /* \"@openzeppelin/contracts-upgradeable/proxy/utils/Initializable.sol\":4301:4317  !$._initializing */\n      iszero\n        /* \"@openzeppelin/contracts-upgradeable/proxy/utils/Initializable.sol\":4279:4317  bool isTopLevelCall = !$._initializing */\n      swap1\n      pop\n        /* \"@openzeppelin/contracts-upgradeable/proxy/utils/Initializable.sol\":4327:4345  uint64 initialized */\n      0x00\n        /* \"@openzeppelin/contracts-upgradeable/proxy/utils/Initializable.sol\":4348:4349  $ */\n      dup3\n        /* \"@openzeppelin/contracts-upgradeable/proxy/utils/Initializable.sol\":4348:4362  $._initialized */\n      0x00\n      add\n      0x00\n      swap1\n      sload\n      swap1\n      0x0100\n      exp\n      swap1\n      div\n      0xffffffffffffffff\n      and\n        /* \"@openzeppelin/contracts-upgradeable/proxy/utils/Initializable.sol\":4327:4362  uint64 initialized = $._initialized */\n      swap1\n      pop\n        /* \"@openzeppelin/contracts-upgradeable/proxy/utils/Initializable.sol\":4706:4723  bool initialSetup */\n      0x00\n        /* \"@openzeppelin/contracts-upgradeable/proxy/utils/Initializable.sol\":4741:4742  0 */\n      dup1\n        /* \"@openzeppelin/contracts-upgradeable/proxy/utils/Initializable.sol\":4726:4737  initialized */\n      dup3\n        /* \"@openzeppelin/contracts-upgradeable/proxy/utils/Initializable.sol\":4726:4742  initialized == 0 */\n      0xffffffffffffffff\n      and\n      eq\n        /* \"@openzeppelin/contracts-upgradeable/proxy/utils/Initializable.sol\":4726:4760  initialized == 0 && isTopLevelCall */\n      dup1\n      iszero\n      tag_192\n      jumpi\n      pop\n        /* \"@openzeppelin/contracts-upgradeable/proxy/utils/Initializable.sol\":4746:4760  isTopLevelCall */\n      dup3\n        /* \"@openzeppelin/contracts-upgradeable/proxy/utils/Initializable.sol\":4726:4760  initialized == 0 && isTopLevelCall */\n    tag_192:\n        /* \"@openzeppelin/contracts-upgradeable/proxy/utils/Initializable.sol\":4706:4760  bool initialSetup = initialized == 0 && isTopLevelCall */\n      swap1\n      pop\n        /* \"@openzeppelin/contracts-upgradeable/proxy/utils/Initializable.sol\":4770:4787  bool construction */\n      0x00\n        /* \"@openzeppelin/contracts-upgradeable/proxy/utils/Initializable.sol\":4805:4806  1 */\n      0x01\n        /* \"@openzeppelin/contracts-upgradeable/proxy/utils/Initializable.sol\":4790:4801  initialized */\n      dup4\n        /* \"@openzeppelin/contracts-upgradeable/proxy/utils/Initializable.sol\":4790:4806  initialized == 1 */\n      0xffffffffffffffff\n      and\n      eq\n        /* \"@openzeppelin/contracts-upgradeable/proxy/utils/Initializable.sol\":4790:4840  initialized == 1 && address(this).code.length == 0 */\n      dup1\n      iszero\n      tag_193\n      jumpi\n      pop\n        /* \"@openzeppelin/contracts-upgradeable/proxy/utils/Initializable.sol\":4839:4840  0 */\n      0x00\n        /* \"@openzeppelin/contracts-upgradeable/proxy/utils/Initializable.sol\":4818:4822  this */\n      address\n        /* \"@openzeppelin/contracts-upgradeable/proxy/utils/Initializable.sol\":4810:4835  address(this).code.length */\n      0xffffffffffffffffffffffffffffffffffffffff\n      and\n      extcodesize\n        /* \"@openzeppelin/contracts-upgradeable/proxy/utils/Initializable.sol\":4810:4840  address(this).code.length == 0 */\n      eq\n        /* \"@openzeppelin/contracts-upgradeable/proxy/utils/Initializable.sol\":4790:4840  initialized == 1 && address(this).code.length == 0 */\n    tag_193:\n        /* \"@openzeppelin/contracts-upgradeable/proxy/utils/Initializable.sol\":4770:4840  bool construction = initialized == 1 && address(this).code.length == 0 */\n      swap1\n      pop\n        /* \"@openzeppelin/contracts-upgradeable/proxy/utils/Initializable.sol\":4856:4868  initialSetup */\n      dup2\n        /* \"@openzeppelin/contracts-upgradeable/proxy/utils/Initializable.sol\":4855:4868  !initialSetup */\n      iszero\n        /* \"@openzeppelin/contracts-upgradeable/proxy/utils/Initializable.sol\":4855:4885  !initialSetup && !construction */\n      dup1\n      iszero\n      tag_194\n      jumpi\n      pop\n        /* \"@openzeppelin/contracts-upgradeable/proxy/utils/Initializable.sol\":4873:4885  construction */\n      dup1\n        /* \"@openzeppelin/contracts-upgradeable/proxy/utils/Initializable.sol\":4872:4885  !construction */\n      iszero\n        /* \"@openzeppelin/contracts-upgradeable/proxy/utils/Initializable.sol\":4855:4885  !initialSetup && !construction */\n    tag_194:\n        /* \"@openzeppelin/contracts-upgradeable/proxy/utils/Initializable.sol\":4851:4942  if (!initialSetup && !construction) {... */\n      iszero\n      tag_195\n      jumpi\n        /* \"@openzeppelin/contracts-upgradeable/proxy/utils/Initializable.sol\":4908:4931  InvalidInitialization() */\n      mload(0x40)\n      0xf92ee8a900000000000000000000000000000000000000000000000000000000\n      dup2\n      mstore\n      0x04\n      add\n      mload(0x40)\n      dup1\n      swap2\n      sub\n      swap1\n      revert\n        /* \"@openzeppelin/contracts-upgradeable/proxy/utils/Initializable.sol\":4851:4942  if (!initialSetup && !construction) {... */\n    tag_195:\n        /* \"@openzeppelin/contracts-upgradeable/proxy/utils/Initializable.sol\":4968:4969  1 */\n      0x01\n        /* \"@openzeppelin/contracts-upgradeable/proxy/utils/Initializable.sol\":4951:4952  $ */\n      dup6\n        /* \"@openzeppelin/contracts-upgradeable/proxy/utils/Initializable.sol\":4951:4965  $._initialized */\n      0x00\n      add\n      0x00\n        /* \"@openzeppelin/contracts-upgradeable/proxy/utils/Initializable.sol\":4951:4969  $._initialized = 1 */\n      0x0100\n      exp\n      dup2\n      sload\n      dup2\n      0xffffffffffffffff\n      mul\n      not\n      and\n      swap1\n      dup4\n      0xffffffffffffffff\n      and\n      mul\n      or\n      swap1\n      sstore\n      pop\n        /* \"@openzeppelin/contracts-upgradeable/proxy/utils/Initializable.sol\":4983:4997  isTopLevelCall */\n      dup4\n        /* \"@openzeppelin/contracts-upgradeable/proxy/utils/Initializable.sol\":4979:5046  if (isTopLevelCall) {... */\n      iszero\n      tag_196\n      jumpi\n        /* \"@openzeppelin/contracts-upgradeable/proxy/utils/Initializable.sol\":5031:5035  true */\n      0x01\n        /* \"@openzeppelin/contracts-upgradeable/proxy/utils/Initializable.sol\":5013:5014  $ */\n      dup6\n        /* \"@openzeppelin/contracts-upgradeable/proxy/utils/Initializable.sol\":5013:5028  $._initializing */\n      0x00\n      add\n      0x08\n        /* \"@openzeppelin/contracts-upgradeable/proxy/utils/Initializable.sol\":5013:5035  $._initializing = true */\n      0x0100\n      exp\n      dup2\n      sload\n      dup2\n      0xff\n      mul\n      not\n      and\n      swap1\n      dup4\n      iszero\n      iszero\n      mul\n      or\n      swap1\n      sstore\n      pop\n        /* \"@openzeppelin/contracts-upgradeable/proxy/utils/Initializable.sol\":4979:5046  if (isTopLevelCall) {... */\n    tag_196:\n        /* \"payable.sol\":1608:1632  __UUPSUpgradeable_init() */\n      tag_198\n        /* \"payable.sol\":1608:1630  __UUPSUpgradeable_init */\n      tag_199\n        /* \"payable.sol\":1608:1632  __UUPSUpgradeable_init() */\n      jump\t// in\n    tag_198:\n        /* \"payable.sol\":1658:1668  msg.sender */\n      caller\n        /* \"payable.sol\":1642:1655  Contarctowner */\n      0x00\n      dup1\n        /* \"payable.sol\":1642:1668  Contarctowner = msg.sender */\n      0x0100\n      exp\n      dup2\n      sload\n      dup2\n      0xffffffffffffffffffffffffffffffffffffffff\n      mul\n      not\n      and\n      swap1\n      dup4\n      0xffffffffffffffffffffffffffffffffffffffff\n      and\n      mul\n      or\n      swap1\n      sstore\n      pop\n        /* \"payable.sol\":1697:1698  5 */\n      0x05\n        /* \"payable.sol\":1678:1694  minimumApprovals */\n      0x07\n        /* \"payable.sol\":1678:1698  minimumApprovals = 5 */\n      dup2\n      swap1\n      sstore\n      pop\n        /* \"@openzeppelin/contracts-upgradeable/proxy/utils/Initializable.sol\":5070:5084  isTopLevelCall */\n      dup4\n        /* \"@openzeppelin/contracts-upgradeable/proxy/utils/Initializable.sol\":5066:5167  if (isTopLevelCall) {... */\n      iszero\n      tag_200\n      jumpi\n        /* \"@openzeppelin/contracts-upgradeable/proxy/utils/Initializable.sol\":5118:5123  false */\n      0x00\n        /* \"@openzeppelin/contracts-upgradeable/proxy/utils/Initializable.sol\":5100:5101  $ */\n      dup6\n        /* \"@openzeppelin/contracts-upgradeable/proxy/utils/Initializable.sol\":5100:5115  $._initializing */\n      0x00\n      add\n      0x08\n        /* \"@openzeppelin/contracts-upgradeable/proxy/utils/Initializable.sol\":5100:5123  $._initializing = false */\n      0x0100\n      exp\n      dup2\n      sload\n      dup2\n      0xff\n      mul\n      not\n      and\n      swap1\n      dup4\n      iszero\n      iszero\n      mul\n      or\n      swap1\n      sstore\n      pop\n        /* \"@openzeppelin/contracts-upgradeable/proxy/utils/Initializable.sol\":5142:5156  Initialized(1) */\n      0xc7f505b2f371ae2175ee4913f4499e1f2633a7b5936321eed1cdaeb6115181d2\n        /* \"@openzeppelin/contracts-upgradeable/proxy/utils/Initializable.sol\":5154:5155  1 */\n      0x01\n        /* \"@openzeppelin/contracts-upgradeable/proxy/utils/Initializable.sol\":5142:5156  Initialized(1) */\n      mload(0x40)\n      tag_201\n      swap2\n      swap1\n      tag_202\n      jump\t// in\n    tag_201:\n      mload(0x40)\n      dup1\n      swap2\n      sub\n      swap1\n      log1\n        /* \"@openzeppelin/contracts-upgradeable/proxy/utils/Initializable.sol\":5066:5167  if (isTopLevelCall) {... */\n    tag_200:\n        /* \"@openzeppelin/contracts-upgradeable/proxy/utils/Initializable.sol\":4092:5173  {... */\n      pop\n      pop\n      pop\n      pop\n      pop\n        /* \"payable.sol\":1557:1705  function initialize() public initializer {... */\n      jump\t// out\n        /* \"payable.sol\":5629:6254  function approveApprover(address adres) public onlyOwner {... */\n    tag_71:\n        /* \"payable.sol\":1466:1479  Contarctowner */\n      0x00\n      dup1\n      sload\n      swap1\n      0x0100\n      exp\n      swap1\n      div\n      0xffffffffffffffffffffffffffffffffffffffff\n      and\n        /* \"payable.sol\":1454:1479  msg.sender==Contarctowner */\n      0xffffffffffffffffffffffffffffffffffffffff\n      and\n        /* \"payable.sol\":1454:1464  msg.sender */\n      caller\n        /* \"payable.sol\":1454:1479  msg.sender==Contarctowner */\n      0xffffffffffffffffffffffffffffffffffffffff\n      and\n      eq\n        /* \"payable.sol\":1446:1529  require(msg.sender==Contarctowner,\"You are not the owner hence can't change this \") */\n      tag_204\n      jumpi\n      mload(0x40)\n      0x08c379a000000000000000000000000000000000000000000000000000000000\n      dup2\n      mstore\n      0x04\n      add\n      tag_205\n      swap1\n      tag_172\n      jump\t// in\n    tag_205:\n      mload(0x40)\n      dup1\n      swap2\n      sub\n      swap1\n      revert\n    tag_204:\n        /* \"payable.sol\":5705:5722  approvedApprovers */\n      0x01\n        /* \"payable.sol\":5705:5729  approvedApprovers[adres] */\n      0x00\n        /* \"payable.sol\":5723:5728  adres */\n      dup3\n        /* \"payable.sol\":5705:5729  approvedApprovers[adres] */\n      0xffffffffffffffffffffffffffffffffffffffff\n      and\n      0xffffffffffffffffffffffffffffffffffffffff\n      and\n      dup2\n      mstore\n      0x20\n      add\n      swap1\n      dup2\n      mstore\n      0x20\n      add\n      0x00\n      keccak256\n      0x00\n      swap1\n      sload\n      swap1\n      0x0100\n      exp\n      swap1\n      div\n      0xff\n      and\n        /* \"payable.sol\":5704:5729  !approvedApprovers[adres] */\n      iszero\n        /* \"payable.sol\":5696:5758  require(!approvedApprovers[adres], \"You are already approved\") */\n      tag_207\n      jumpi\n      mload(0x40)\n      0x08c379a000000000000000000000000000000000000000000000000000000000\n      dup2\n      mstore\n      0x04\n      add\n      tag_208\n      swap1\n      tag_209\n      jump\t// in\n    tag_208:\n      mload(0x40)\n      dup1\n      swap2\n      sub\n      swap1\n      revert\n    tag_207:\n        /* \"payable.sol\":5775:5794  appliedForApprovers */\n      0x02\n        /* \"payable.sol\":5775:5801  appliedForApprovers[adres] */\n      0x00\n        /* \"payable.sol\":5795:5800  adres */\n      dup3\n        /* \"payable.sol\":5775:5801  appliedForApprovers[adres] */\n      0xffffffffffffffffffffffffffffffffffffffff\n      and\n      0xffffffffffffffffffffffffffffffffffffffff\n      and\n      dup2\n      mstore\n      0x20\n      add\n      swap1\n      dup2\n      mstore\n      0x20\n      add\n      0x00\n      keccak256\n      0x00\n        /* \"payable.sol\":5768:5801  delete appliedForApprovers[adres] */\n      0x0100\n      exp\n      dup2\n      sload\n      swap1\n      0xff\n      mul\n      not\n      and\n      swap1\n      sstore\n        /* \"payable.sol\":5816:5822  uint i */\n      0x00\n        /* \"payable.sol\":5811:6101  for (uint i = 0; i < allAppliedAddresses.length; i++) {... */\n    tag_210:\n        /* \"payable.sol\":5832:5851  allAppliedAddresses */\n      0x04\n        /* \"payable.sol\":5832:5858  allAppliedAddresses.length */\n      dup1\n      sload\n      swap1\n      pop\n        /* \"payable.sol\":5828:5829  i */\n      dup2\n        /* \"payable.sol\":5828:5858  i < allAppliedAddresses.length */\n      lt\n        /* \"payable.sol\":5811:6101  for (uint i = 0; i < allAppliedAddresses.length; i++) {... */\n      iszero\n      tag_211\n      jumpi\n        /* \"payable.sol\":5909:5914  adres */\n      dup2\n        /* \"payable.sol\":5883:5914  allAppliedAddresses[i] == adres */\n      0xffffffffffffffffffffffffffffffffffffffff\n      and\n        /* \"payable.sol\":5883:5902  allAppliedAddresses */\n      0x04\n        /* \"payable.sol\":5903:5904  i */\n      dup3\n        /* \"payable.sol\":5883:5905  allAppliedAddresses[i] */\n      dup2\n      sload\n      dup2\n      lt\n      tag_213\n      jumpi\n      tag_214\n      tag_105\n      jump\t// in\n    tag_214:\n    tag_213:\n      swap1\n      0x00\n      mstore\n      keccak256(0x00, 0x20)\n      add\n      0x00\n      swap1\n      sload\n      swap1\n      0x0100\n      exp\n      swap1\n      div\n      0xffffffffffffffffffffffffffffffffffffffff\n      and\n        /* \"payable.sol\":5883:5914  allAppliedAddresses[i] == adres */\n      0xffffffffffffffffffffffffffffffffffffffff\n      and\n      sub\n        /* \"payable.sol\":5879:6091  if (allAppliedAddresses[i] == adres) {... */\n      tag_216\n      jumpi\n        /* \"payable.sol\":5959:5978  allAppliedAddresses */\n      0x04\n        /* \"payable.sol\":6008:6009  1 */\n      0x01\n        /* \"payable.sol\":5979:5998  allAppliedAddresses */\n      0x04\n        /* \"payable.sol\":5979:6005  allAppliedAddresses.length */\n      dup1\n      sload\n      swap1\n      pop\n        /* \"payable.sol\":5979:6009  allAppliedAddresses.length - 1 */\n      tag_217\n      swap2\n      swap1\n      tag_218\n      jump\t// in\n    tag_217:\n        /* \"payable.sol\":5959:6010  allAppliedAddresses[allAppliedAddresses.length - 1] */\n      dup2\n      sload\n      dup2\n      lt\n      tag_219\n      jumpi\n      tag_220\n      tag_105\n      jump\t// in\n    tag_220:\n    tag_219:\n      swap1\n      0x00\n      mstore\n      keccak256(0x00, 0x20)\n      add\n      0x00\n      swap1\n      sload\n      swap1\n      0x0100\n      exp\n      swap1\n      div\n      0xffffffffffffffffffffffffffffffffffffffff\n      and\n        /* \"payable.sol\":5934:5953  allAppliedAddresses */\n      0x04\n        /* \"payable.sol\":5954:5955  i */\n      dup3\n        /* \"payable.sol\":5934:5956  allAppliedAddresses[i] */\n      dup2\n      sload\n      dup2\n      lt\n      tag_222\n      jumpi\n      tag_223\n      tag_105\n      jump\t// in\n    tag_223:\n    tag_222:\n      swap1\n      0x00\n      mstore\n      keccak256(0x00, 0x20)\n      add\n      0x00\n        /* \"payable.sol\":5934:6010  allAppliedAddresses[i] = allAppliedAddresses[allAppliedAddresses.length - 1] */\n      0x0100\n      exp\n      dup2\n      sload\n      dup2\n      0xffffffffffffffffffffffffffffffffffffffff\n      mul\n      not\n      and\n      swap1\n      dup4\n      0xffffffffffffffffffffffffffffffffffffffff\n      and\n      mul\n      or\n      swap1\n      sstore\n      pop\n        /* \"payable.sol\":6028:6047  allAppliedAddresses */\n      0x04\n        /* \"payable.sol\":6028:6053  allAppliedAddresses.pop() */\n      dup1\n      sload\n      dup1\n      tag_225\n      jumpi\n      tag_226\n      tag_227\n      jump\t// in\n    tag_226:\n    tag_225:\n      0x01\n      swap1\n      sub\n      dup2\n      dup2\n      swap1\n      0x00\n      mstore\n      keccak256(0x00, 0x20)\n      add\n      exp(0x0100, 0x00)\n      dup2\n      sload\n      swap1\n      0xffffffffffffffffffffffffffffffffffffffff\n      mul\n      not\n      and\n      swap1\n      sstore\n      swap1\n      sstore\n        /* \"payable.sol\":6071:6076  break */\n      jump(tag_211)\n        /* \"payable.sol\":5879:6091  if (allAppliedAddresses[i] == adres) {... */\n    tag_216:\n        /* \"payable.sol\":5860:5863  i++ */\n      dup1\n      dup1\n      0x01\n      add\n      swap2\n      pop\n      pop\n        /* \"payable.sol\":5811:6101  for (uint i = 0; i < allAppliedAddresses.length; i++) {... */\n      jump(tag_210)\n    tag_211:\n      pop\n        /* \"payable.sol\":6137:6141  true */\n      0x01\n        /* \"payable.sol\":6110:6127  approvedApprovers */\n      dup1\n        /* \"payable.sol\":6110:6134  approvedApprovers[adres] */\n      0x00\n        /* \"payable.sol\":6128:6133  adres */\n      dup4\n        /* \"payable.sol\":6110:6134  approvedApprovers[adres] */\n      0xffffffffffffffffffffffffffffffffffffffff\n      and\n      0xffffffffffffffffffffffffffffffffffffffff\n      and\n      dup2\n      mstore\n      0x20\n      add\n      swap1\n      dup2\n      mstore\n      0x20\n      add\n      0x00\n      keccak256\n      0x00\n        /* \"payable.sol\":6110:6141  approvedApprovers[adres] = true */\n      0x0100\n      exp\n      dup2\n      sload\n      dup2\n      0xff\n      mul\n      not\n      and\n      swap1\n      dup4\n      iszero\n      iszero\n      mul\n      or\n      swap1\n      sstore\n      pop\n        /* \"payable.sol\":6151:6171  allApprovedAddresses */\n      0x03\n        /* \"payable.sol\":6177:6182  adres */\n      dup2\n        /* \"payable.sol\":6151:6183  allApprovedAddresses.push(adres) */\n      swap1\n      dup1\n      0x01\n      dup2\n      sload\n      add\n      dup1\n      dup3\n      sstore\n      dup1\n      swap2\n      pop\n      pop\n      0x01\n      swap1\n      sub\n      swap1\n      0x00\n      mstore\n      keccak256(0x00, 0x20)\n      add\n      0x00\n      swap1\n      swap2\n      swap1\n      swap2\n      swap1\n      swap2\n      0x0100\n      exp\n      dup2\n      sload\n      dup2\n      0xffffffffffffffffffffffffffffffffffffffff\n      mul\n      not\n      and\n      swap1\n      dup4\n      0xffffffffffffffffffffffffffffffffffffffff\n      and\n      mul\n      or\n      swap1\n      sstore\n      pop\n        /* \"payable.sol\":6193:6206  approverCount */\n      0x06\n      0x00\n        /* \"payable.sol\":6193:6208  approverCount++ */\n      dup2\n      sload\n      dup1\n      swap3\n      swap2\n      swap1\n      tag_230\n      swap1\n      tag_131\n      jump\t// in\n    tag_230:\n      swap2\n      swap1\n      pop\n      sstore\n      pop\n        /* \"payable.sol\":6224:6247  ApproverApproved(adres) */\n      0x8ffbf603707f31ab466f6b711c89ae5521b6f93b25d3f86200054018476696d6\n        /* \"payable.sol\":6241:6246  adres */\n      dup2\n        /* \"payable.sol\":6224:6247  ApproverApproved(adres) */\n      mload(0x40)\n      tag_231\n      swap2\n      swap1\n      tag_188\n      jump\t// in\n    tag_231:\n      mload(0x40)\n      dup1\n      swap2\n      sub\n      swap1\n      log1\n        /* \"payable.sol\":5629:6254  function approveApprover(address adres) public onlyOwner {... */\n      pop\n      jump\t// out\n        /* \"payable.sol\":3324:3631  function disapproveTransaction(uint256 transactionId) public onlyApprover {... */\n    tag_75:\n        /* \"payable.sol\":1312:1329  approvedApprovers */\n      0x01\n        /* \"payable.sol\":1312:1341  approvedApprovers[msg.sender] */\n      0x00\n        /* \"payable.sol\":1330:1340  msg.sender */\n      caller\n        /* \"payable.sol\":1312:1341  approvedApprovers[msg.sender] */\n      0xffffffffffffffffffffffffffffffffffffffff\n      and\n      0xffffffffffffffffffffffffffffffffffffffff\n      and\n      dup2\n      mstore\n      0x20\n      add\n      swap1\n      dup2\n      mstore\n      0x20\n      add\n      0x00\n      keccak256\n      0x00\n      swap1\n      sload\n      swap1\n      0x0100\n      exp\n      swap1\n      div\n      0xff\n      and\n        /* \"payable.sol\":1304:1393  require(approvedApprovers[msg.sender], \"This function can only be called by an Approver\") */\n      tag_233\n      jumpi\n      mload(0x40)\n      0x08c379a000000000000000000000000000000000000000000000000000000000\n      dup2\n      mstore\n      0x04\n      add\n      tag_234\n      swap1\n      tag_121\n      jump\t// in\n    tag_234:\n      mload(0x40)\n      dup1\n      swap2\n      sub\n      swap1\n      revert\n    tag_233:\n        /* \"payable.sol\":3408:3439  Transaction storage transaction */\n      0x00\n        /* \"payable.sol\":3442:3454  transactions */\n      0x05\n        /* \"payable.sol\":3455:3468  transactionId */\n      dup3\n        /* \"payable.sol\":3442:3469  transactions[transactionId] */\n      dup2\n      sload\n      dup2\n      lt\n      tag_236\n      jumpi\n      tag_237\n      tag_105\n      jump\t// in\n    tag_237:\n    tag_236:\n      swap1\n      0x00\n      mstore\n      keccak256(0x00, 0x20)\n      swap1\n      0x08\n      mul\n      add\n        /* \"payable.sol\":3408:3469  Transaction storage transaction = transactions[transactionId] */\n      swap1\n      pop\n        /* \"payable.sol\":3479:3490  transaction */\n      dup1\n        /* \"payable.sol\":3479:3503  transaction.disapprovals */\n      0x03\n      add\n        /* \"payable.sol\":3509:3519  msg.sender */\n      caller\n        /* \"payable.sol\":3479:3520  transaction.disapprovals.push(msg.sender) */\n      swap1\n      dup1\n      0x01\n      dup2\n      sload\n      add\n      dup1\n      dup3\n      sstore\n      dup1\n      swap2\n      pop\n      pop\n      0x01\n      swap1\n      sub\n      swap1\n      0x00\n      mstore\n      keccak256(0x00, 0x20)\n      add\n      0x00\n      swap1\n      swap2\n      swap1\n      swap2\n      swap1\n      swap2\n      0x0100\n      exp\n      dup2\n      sload\n      dup2\n      0xffffffffffffffffffffffffffffffffffffffff\n      mul\n      not\n      and\n      swap1\n      dup4\n      0xffffffffffffffffffffffffffffffffffffffff\n      and\n      mul\n      or\n      swap1\n      sstore\n      pop\n        /* \"payable.sol\":3530:3541  transaction */\n      dup1\n        /* \"payable.sol\":3530:3558  transaction.disapprovalCount */\n      0x07\n      add\n      0x00\n        /* \"payable.sol\":3530:3560  transaction.disapprovalCount++ */\n      dup2\n      sload\n      dup1\n      swap3\n      swap2\n      swap1\n      tag_240\n      swap1\n      tag_131\n      jump\t// in\n    tag_240:\n      swap2\n      swap1\n      pop\n      sstore\n      pop\n        /* \"payable.sol\":3575:3624  TransactionDisapproved(transactionId, msg.sender) */\n      0x51e2a629616d21b16f9d1d2549b4b88aba4d3b132f12a47ef7696e4a4263d1e8\n        /* \"payable.sol\":3598:3611  transactionId */\n      dup3\n        /* \"payable.sol\":3613:3623  msg.sender */\n      caller\n        /* \"payable.sol\":3575:3624  TransactionDisapproved(transactionId, msg.sender) */\n      mload(0x40)\n      tag_241\n      swap3\n      swap2\n      swap1\n      tag_145\n      jump\t// in\n    tag_241:\n      mload(0x40)\n      dup1\n      swap2\n      sub\n      swap1\n      log1\n        /* \"payable.sol\":3398:3631  {... */\n      pop\n        /* \"payable.sol\":3324:3631  function disapproveTransaction(uint256 transactionId) public onlyApprover {... */\n      pop\n      jump\t// out\n        /* \"@openzeppelin/contracts-upgradeable/proxy/utils/UUPSUpgradeable.sol\":1819:1877  string public constant UPGRADE_INTERFACE_VERSION = \"5.0.0\" */\n    tag_78:\n      mload(0x40)\n      dup1\n      0x40\n      add\n      0x40\n      mstore\n      dup1\n      0x05\n      dup2\n      mstore\n      0x20\n      add\n      0x352e302e30000000000000000000000000000000000000000000000000000000\n      dup2\n      mstore\n      pop\n      dup2\n      jump\t// out\n        /* \"payable.sol\":6372:6463  function balance() public view returns (uint) {... */\n    tag_83:\n        /* \"payable.sol\":6412:6416  uint */\n      0x00\n        /* \"payable.sol\":6435:6456  address(this).balance */\n      selfbalance\n        /* \"payable.sol\":6428:6456  return address(this).balance */\n      swap1\n      pop\n        /* \"payable.sol\":6372:6463  function balance() public view returns (uint) {... */\n      swap1\n      jump\t// out\n        /* \"payable.sol\":3905:4013  function approversList() public view returns (address[] memory) {... */\n    tag_87:\n        /* \"payable.sol\":3951:3967  address[] memory */\n      0x60\n        /* \"payable.sol\":3986:4006  allApprovedAddresses */\n      0x03\n        /* \"payable.sol\":3979:4006  return allApprovedAddresses */\n      dup1\n      sload\n      dup1\n      0x20\n      mul\n      0x20\n      add\n      mload(0x40)\n      swap1\n      dup2\n      add\n      0x40\n      mstore\n      dup1\n      swap3\n      swap2\n      swap1\n      dup2\n      dup2\n      mstore\n      0x20\n      add\n      dup3\n      dup1\n      sload\n      dup1\n      iszero\n      tag_244\n      jumpi\n      0x20\n      mul\n      dup3\n      add\n      swap2\n      swap1\n      0x00\n      mstore\n      keccak256(0x00, 0x20)\n      swap1\n    tag_245:\n      dup2\n      0x00\n      swap1\n      sload\n      swap1\n      0x0100\n      exp\n      swap1\n      div\n      0xffffffffffffffffffffffffffffffffffffffff\n      and\n      0xffffffffffffffffffffffffffffffffffffffff\n      and\n      dup2\n      mstore\n      0x20\n      add\n      swap1\n      0x01\n      add\n      swap1\n      dup1\n      dup4\n      gt\n      tag_245\n      jumpi\n    tag_244:\n      pop\n      pop\n      pop\n      pop\n      pop\n      swap1\n      pop\n        /* \"payable.sol\":3905:4013  function approversList() public view returns (address[] memory) {... */\n      swap1\n      jump\t// out\n        /* \"payable.sol\":5288:5623  function applyForApprover(address adress) public {... */\n    tag_92:\n        /* \"payable.sol\":5356:5373  approvedApprovers */\n      0x01\n        /* \"payable.sol\":5356:5381  approvedApprovers[adress] */\n      0x00\n        /* \"payable.sol\":5374:5380  adress */\n      dup3\n        /* \"payable.sol\":5356:5381  approvedApprovers[adress] */\n      0xffffffffffffffffffffffffffffffffffffffff\n      and\n      0xffffffffffffffffffffffffffffffffffffffff\n      and\n      dup2\n      mstore\n      0x20\n      add\n      swap1\n      dup2\n      mstore\n      0x20\n      add\n      0x00\n      keccak256\n      0x00\n      swap1\n      sload\n      swap1\n      0x0100\n      exp\n      swap1\n      div\n      0xff\n      and\n        /* \"payable.sol\":5355:5381  !approvedApprovers[adress] */\n      iszero\n        /* \"payable.sol\":5347:5413  require(!approvedApprovers[adress], \"You are already an approver\") */\n      tag_247\n      jumpi\n      mload(0x40)\n      0x08c379a000000000000000000000000000000000000000000000000000000000\n      dup2\n      mstore\n      0x04\n      add\n      tag_248\n      swap1\n      tag_249\n      jump\t// in\n    tag_248:\n      mload(0x40)\n      dup1\n      swap2\n      sub\n      swap1\n      revert\n    tag_247:\n        /* \"payable.sol\":5432:5451  appliedForApprovers */\n      0x02\n        /* \"payable.sol\":5432:5459  appliedForApprovers[adress] */\n      0x00\n        /* \"payable.sol\":5452:5458  adress */\n      dup3\n        /* \"payable.sol\":5432:5459  appliedForApprovers[adress] */\n      0xffffffffffffffffffffffffffffffffffffffff\n      and\n      0xffffffffffffffffffffffffffffffffffffffff\n      and\n      dup2\n      mstore\n      0x20\n      add\n      swap1\n      dup2\n      mstore\n      0x20\n      add\n      0x00\n      keccak256\n      0x00\n      swap1\n      sload\n      swap1\n      0x0100\n      exp\n      swap1\n      div\n      0xff\n      and\n        /* \"payable.sol\":5431:5459  !appliedForApprovers[adress] */\n      iszero\n        /* \"payable.sol\":5423:5488  require(!appliedForApprovers[adress], \"You Have already applied\") */\n      tag_250\n      jumpi\n      mload(0x40)\n      0x08c379a000000000000000000000000000000000000000000000000000000000\n      dup2\n      mstore\n      0x04\n      add\n      tag_251\n      swap1\n      tag_252\n      jump\t// in\n    tag_251:\n      mload(0x40)\n      dup1\n      swap2\n      sub\n      swap1\n      revert\n    tag_250:\n        /* \"payable.sol\":5498:5517  allAppliedAddresses */\n      0x04\n        /* \"payable.sol\":5523:5529  adress */\n      dup2\n        /* \"payable.sol\":5498:5530  allAppliedAddresses.push(adress) */\n      swap1\n      dup1\n      0x01\n      dup2\n      sload\n      add\n      dup1\n      dup3\n      sstore\n      dup1\n      swap2\n      pop\n      pop\n      0x01\n      swap1\n      sub\n      swap1\n      0x00\n      mstore\n      keccak256(0x00, 0x20)\n      add\n      0x00\n      swap1\n      swap2\n      swap1\n      swap2\n      swap1\n      swap2\n      0x0100\n      exp\n      dup2\n      sload\n      dup2\n      0xffffffffffffffffffffffffffffffffffffffff\n      mul\n      not\n      and\n      swap1\n      dup4\n      0xffffffffffffffffffffffffffffffffffffffff\n      and\n      mul\n      or\n      swap1\n      sstore\n      pop\n        /* \"payable.sol\":5570:5574  true */\n      0x01\n        /* \"payable.sol\":5540:5559  appliedForApprovers */\n      0x02\n        /* \"payable.sol\":5540:5567  appliedForApprovers[adress] */\n      0x00\n        /* \"payable.sol\":5560:5566  adress */\n      dup4\n        /* \"payable.sol\":5540:5567  appliedForApprovers[adress] */\n      0xffffffffffffffffffffffffffffffffffffffff\n      and\n      0xffffffffffffffffffffffffffffffffffffffff\n      and\n      dup2\n      mstore\n      0x20\n      add\n      swap1\n      dup2\n      mstore\n      0x20\n      add\n      0x00\n      keccak256\n      0x00\n        /* \"payable.sol\":5540:5574  appliedForApprovers[adress] = true */\n      0x0100\n      exp\n      dup2\n      sload\n      dup2\n      0xff\n      mul\n      not\n      and\n      swap1\n      dup4\n      iszero\n      iszero\n      mul\n      or\n      swap1\n      sstore\n      pop\n        /* \"payable.sol\":5589:5616  AppliedForApprovers(adress) */\n      0x626e4500941465f8684ab220d11d81f3a776c4ed7010715f25cd8e772dcbb484\n        /* \"payable.sol\":5609:5615  adress */\n      dup2\n        /* \"payable.sol\":5589:5616  AppliedForApprovers(adress) */\n      mload(0x40)\n      tag_254\n      swap2\n      swap1\n      tag_188\n      jump\t// in\n    tag_254:\n      mload(0x40)\n      dup1\n      swap2\n      sub\n      swap1\n      log1\n        /* \"payable.sol\":5288:5623  function applyForApprover(address adress) public {... */\n      pop\n      jump\t// out\n        /* \"payable.sol\":6469:6512  function receivEthere() external payable {} */\n    tag_94:\n      jump\t// out\n        /* \"payable.sol\":6260:6362  function getBalance(address ad) public view returns (uint) {... */\n    tag_98:\n        /* \"payable.sol\":6313:6317  uint */\n      0x00\n        /* \"payable.sol\":6344:6346  ad */\n      dup2\n        /* \"payable.sol\":6336:6355  address(ad).balance */\n      0xffffffffffffffffffffffffffffffffffffffff\n      and\n      balance\n        /* \"payable.sol\":6329:6355  return address(ad).balance */\n      swap1\n      pop\n        /* \"payable.sol\":6260:6362  function getBalance(address ad) public view returns (uint) {... */\n      swap2\n      swap1\n      pop\n      jump\t// out\n        /* \"payable.sol\":1805:1903  function getMax(uint a, uint b) internal pure returns (uint) {... */\n    tag_135:\n        /* \"payable.sol\":1860:1864  uint */\n      0x00\n        /* \"payable.sol\":1887:1888  b */\n      dup2\n        /* \"payable.sol\":1883:1884  a */\n      dup4\n        /* \"payable.sol\":1883:1888  a > b */\n      gt\n        /* \"payable.sol\":1883:1896  a > b ? a : b */\n      tag_258\n      jumpi\n        /* \"payable.sol\":1895:1896  b */\n      dup2\n        /* \"payable.sol\":1883:1896  a > b ? a : b */\n      jump(tag_259)\n    tag_258:\n        /* \"payable.sol\":1891:1892  a */\n      dup3\n        /* \"payable.sol\":1883:1896  a > b ? a : b */\n    tag_259:\n        /* \"payable.sol\":1876:1896  return a > b ? a : b */\n      swap1\n      pop\n        /* \"payable.sol\":1805:1903  function getMax(uint a, uint b) internal pure returns (uint) {... */\n      swap3\n      swap2\n      pop\n      pop\n      jump\t// out\n        /* \"payable.sol\":4139:4906  function executeTransaction(uint256 transactionId) internal returns (bool) {... */\n    tag_138:\n        /* \"payable.sol\":4208:4212  bool */\n      0x00\n        /* \"payable.sol\":4224:4255  Transaction storage transaction */\n      dup1\n        /* \"payable.sol\":4258:4270  transactions */\n      0x05\n        /* \"payable.sol\":4271:4284  transactionId */\n      dup4\n        /* \"payable.sol\":4258:4285  transactions[transactionId] */\n      dup2\n      sload\n      dup2\n      lt\n      tag_261\n      jumpi\n      tag_262\n      tag_105\n      jump\t// in\n    tag_262:\n    tag_261:\n      swap1\n      0x00\n      mstore\n      keccak256(0x00, 0x20)\n      swap1\n      0x08\n      mul\n      add\n        /* \"payable.sol\":4224:4285  Transaction storage transaction = transactions[transactionId] */\n      swap1\n      pop\n        /* \"payable.sol\":4359:4371  bool success */\n      0x00\n        /* \"payable.sol\":4385:4396  transaction */\n      dup2\n        /* \"payable.sol\":4385:4399  transaction.to */\n      0x00\n      add\n      0x00\n      swap1\n      sload\n      swap1\n      0x0100\n      exp\n      swap1\n      div\n      0xffffffffffffffffffffffffffffffffffffffff\n      and\n        /* \"payable.sol\":4377:4405  payable(transaction.to).call */\n      0xffffffffffffffffffffffffffffffffffffffff\n      and\n        /* \"payable.sol\":4413:4424  transaction */\n      dup3\n        /* \"payable.sol\":4413:4431  transaction.amount */\n      0x01\n      add\n      sload\n        /* \"payable.sol\":4377:4436  payable(transaction.to).call{value: transaction.amount}(\"\") */\n      mload(0x40)\n      tag_264\n      swap1\n      tag_265\n      jump\t// in\n    tag_264:\n      0x00\n      mload(0x40)\n      dup1\n      dup4\n      sub\n      dup2\n      dup6\n      dup8\n      gas\n      call\n      swap3\n      pop\n      pop\n      pop\n      returndatasize\n      dup1\n      0x00\n      dup2\n      eq\n      tag_268\n      jumpi\n      mload(0x40)\n      swap2\n      pop\n      and(add(returndatasize, 0x3f), not(0x1f))\n      dup3\n      add\n      0x40\n      mstore\n      returndatasize\n      dup3\n      mstore\n      returndatasize\n      0x00\n      0x20\n      dup5\n      add\n      returndatacopy\n      jump(tag_267)\n    tag_268:\n      0x60\n      swap2\n      pop\n    tag_267:\n      pop\n        /* \"payable.sol\":4358:4436  (bool success, ) = payable(transaction.to).call{value: transaction.amount}(\"\") */\n      pop\n      swap1\n      pop\n        /* \"payable.sol\":4450:4457  success */\n      dup1\n        /* \"payable.sol\":4446:4511  if (success) {... */\n      iszero\n      tag_269\n      jumpi\n        /* \"payable.sol\":4496:4500  true */\n      0x01\n        /* \"payable.sol\":4473:4484  transaction */\n      dup3\n        /* \"payable.sol\":4473:4493  transaction.executed */\n      0x04\n      add\n      0x00\n        /* \"payable.sol\":4473:4500  transaction.executed = true */\n      0x0100\n      exp\n      dup2\n      sload\n      dup2\n      0xff\n      mul\n      not\n      and\n      swap1\n      dup4\n      iszero\n      iszero\n      mul\n      or\n      swap1\n      sstore\n      pop\n        /* \"payable.sol\":4446:4511  if (success) {... */\n    tag_269:\n        /* \"payable.sol\":4527:4534  success */\n      dup1\n        /* \"payable.sol\":4520:4534  return success */\n      swap3\n      pop\n      pop\n      pop\n        /* \"payable.sol\":4139:4906  function executeTransaction(uint256 transactionId) internal returns (bool) {... */\n      swap2\n      swap1\n      pop\n      jump\t// out\n        /* \"@openzeppelin/contracts-upgradeable/proxy/utils/UUPSUpgradeable.sol\":4599:4911  function _checkProxy() internal view virtual {... */\n    tag_159:\n        /* \"@openzeppelin/contracts-upgradeable/proxy/utils/UUPSUpgradeable.sol\":4688:4694  __self */\n      immutable(\"0x980c46aeb242fb2816eec3c43a568cdc6adda404b46e62cce4e3fe7d929881e3\")\n        /* \"@openzeppelin/contracts-upgradeable/proxy/utils/UUPSUpgradeable.sol\":4671:4694  address(this) == __self */\n      0xffffffffffffffffffffffffffffffffffffffff\n      and\n        /* \"@openzeppelin/contracts-upgradeable/proxy/utils/UUPSUpgradeable.sol\":4679:4683  this */\n      address\n        /* \"@openzeppelin/contracts-upgradeable/proxy/utils/UUPSUpgradeable.sol\":4671:4694  address(this) == __self */\n      0xffffffffffffffffffffffffffffffffffffffff\n      and\n      eq\n        /* \"@openzeppelin/contracts-upgradeable/proxy/utils/UUPSUpgradeable.sol\":4671:4791  address(this) == __self || // Must be called through delegatecall... */\n      dup1\n      tag_271\n      jumpi\n      pop\n        /* \"@openzeppelin/contracts-upgradeable/proxy/utils/UUPSUpgradeable.sol\":4785:4791  __self */\n      immutable(\"0x980c46aeb242fb2816eec3c43a568cdc6adda404b46e62cce4e3fe7d929881e3\")\n        /* \"@openzeppelin/contracts-upgradeable/proxy/utils/UUPSUpgradeable.sol\":4749:4791  ERC1967Utils.getImplementation() != __self */\n      0xffffffffffffffffffffffffffffffffffffffff\n      and\n        /* \"@openzeppelin/contracts-upgradeable/proxy/utils/UUPSUpgradeable.sol\":4749:4781  ERC1967Utils.getImplementation() */\n      tag_272\n        /* \"@openzeppelin/contracts-upgradeable/proxy/utils/UUPSUpgradeable.sol\":4749:4779  ERC1967Utils.getImplementation */\n      tag_273\n        /* \"@openzeppelin/contracts-upgradeable/proxy/utils/UUPSUpgradeable.sol\":4749:4781  ERC1967Utils.getImplementation() */\n      jump\t// in\n    tag_272:\n        /* \"@openzeppelin/contracts-upgradeable/proxy/utils/UUPSUpgradeable.sol\":4749:4791  ERC1967Utils.getImplementation() != __self */\n      0xffffffffffffffffffffffffffffffffffffffff\n      and\n      eq\n      iszero\n        /* \"@openzeppelin/contracts-upgradeable/proxy/utils/UUPSUpgradeable.sol\":4671:4791  address(this) == __self || // Must be called through delegatecall... */\n    tag_271:\n        /* \"@openzeppelin/contracts-upgradeable/proxy/utils/UUPSUpgradeable.sol\":4654:4905  if (... */\n      iszero\n      tag_274\n      jumpi\n        /* \"@openzeppelin/contracts-upgradeable/proxy/utils/UUPSUpgradeable.sol\":4865:4894  UUPSUnauthorizedCallContext() */\n      mload(0x40)\n      0xe07c8dba00000000000000000000000000000000000000000000000000000000\n      dup2\n      mstore\n      0x04\n      add\n      mload(0x40)\n      dup1\n      swap2\n      sub\n      swap1\n      revert\n        /* \"@openzeppelin/contracts-upgradeable/proxy/utils/UUPSUpgradeable.sol\":4654:4905  if (... */\n    tag_274:\n        /* \"@openzeppelin/contracts-upgradeable/proxy/utils/UUPSUpgradeable.sol\":4599:4911  function _checkProxy() internal view virtual {... */\n      jump\t// out\n        /* \"payable.sol\":1711:1795  function _authorizeUpgrade(address newImplementation) internal override onlyOwner {} */\n    tag_162:\n        /* \"payable.sol\":1466:1479  Contarctowner */\n      0x00\n      dup1\n      sload\n      swap1\n      0x0100\n      exp\n      swap1\n      div\n      0xffffffffffffffffffffffffffffffffffffffff\n      and\n        /* \"payable.sol\":1454:1479  msg.sender==Contarctowner */\n      0xffffffffffffffffffffffffffffffffffffffff\n      and\n        /* \"payable.sol\":1454:1464  msg.sender */\n      caller\n        /* \"payable.sol\":1454:1479  msg.sender==Contarctowner */\n      0xffffffffffffffffffffffffffffffffffffffff\n      and\n      eq\n        /* \"payable.sol\":1446:1529  require(msg.sender==Contarctowner,\"You are not the owner hence can't change this \") */\n      tag_276\n      jumpi\n      mload(0x40)\n      0x08c379a000000000000000000000000000000000000000000000000000000000\n      dup2\n      mstore\n      0x04\n      add\n      tag_277\n      swap1\n      tag_172\n      jump\t// in\n    tag_277:\n      mload(0x40)\n      dup1\n      swap2\n      sub\n      swap1\n      revert\n    tag_276:\n        /* \"payable.sol\":1711:1795  function _authorizeUpgrade(address newImplementation) internal override onlyOwner {} */\n      pop\n      jump\t// out\n        /* \"@openzeppelin/contracts-upgradeable/proxy/utils/UUPSUpgradeable.sol\":6052:6590  function _upgradeToAndCallUUPS(address newImplementation, bytes memory data) private {... */\n    tag_164:\n        /* \"@openzeppelin/contracts-upgradeable/proxy/utils/UUPSUpgradeable.sol\":6169:6186  newImplementation */\n      dup2\n        /* \"@openzeppelin/contracts-upgradeable/proxy/utils/UUPSUpgradeable.sol\":6151:6201  IERC1822Proxiable(newImplementation).proxiableUUID */\n      0xffffffffffffffffffffffffffffffffffffffff\n      and\n      0x52d1902d\n        /* \"@openzeppelin/contracts-upgradeable/proxy/utils/UUPSUpgradeable.sol\":6151:6203  IERC1822Proxiable(newImplementation).proxiableUUID() */\n      mload(0x40)\n      dup2\n      0xffffffff\n      and\n      0xe0\n      shl\n      dup2\n      mstore\n      0x04\n      add\n      0x20\n      mload(0x40)\n      dup1\n      dup4\n      sub\n      dup2\n      dup7\n      gas\n      staticcall\n      swap3\n      pop\n      pop\n      pop\n      dup1\n      iszero\n      tag_280\n      jumpi\n      pop\n      mload(0x40)\n      returndatasize\n      not(0x1f)\n      0x1f\n      dup3\n      add\n      and\n      dup3\n      add\n      dup1\n      0x40\n      mstore\n      pop\n      dup2\n      add\n      swap1\n      tag_281\n      swap2\n      swap1\n      tag_282\n      jump\t// in\n    tag_281:\n      0x01\n    tag_280:\n        /* \"@openzeppelin/contracts-upgradeable/proxy/utils/UUPSUpgradeable.sol\":6147:6584  try IERC1822Proxiable(newImplementation).proxiableUUID() returns (bytes32 slot) {... */\n      tag_283\n      jumpi\n        /* \"@openzeppelin/contracts-upgradeable/proxy/utils/UUPSUpgradeable.sol\":6555:6572  newImplementation */\n      dup2\n        /* \"@openzeppelin/contracts-upgradeable/proxy/utils/UUPSUpgradeable.sol\":6513:6573  ERC1967Utils.ERC1967InvalidImplementation(newImplementation) */\n      mload(0x40)\n      0x4c9c8ce300000000000000000000000000000000000000000000000000000000\n      dup2\n      mstore\n      0x04\n      add\n      tag_287\n      swap2\n      swap1\n      tag_188\n      jump\t// in\n    tag_287:\n      mload(0x40)\n      dup1\n      swap2\n      sub\n      swap1\n      revert\n        /* \"@openzeppelin/contracts-upgradeable/proxy/utils/UUPSUpgradeable.sol\":6147:6584  try IERC1822Proxiable(newImplementation).proxiableUUID() returns (bytes32 slot) {... */\n    tag_283:\n        /* \"@openzeppelin/contracts/proxy/ERC1967/ERC1967Utils.sol\":1327:1393  0x360894a13ba1a3210667c828492db98dca3e2076cc3735a920a3ca505d382bbc */\n      0x360894a13ba1a3210667c828492db98dca3e2076cc3735a920a3ca505d382bbc\n        /* \"@openzeppelin/contracts-upgradeable/proxy/utils/UUPSUpgradeable.sol\":6253:6285  ERC1967Utils.IMPLEMENTATION_SLOT */\n      0x00\n      shl\n        /* \"@openzeppelin/contracts-upgradeable/proxy/utils/UUPSUpgradeable.sol\":6245:6249  slot */\n      dup2\n        /* \"@openzeppelin/contracts-upgradeable/proxy/utils/UUPSUpgradeable.sol\":6245:6285  slot != ERC1967Utils.IMPLEMENTATION_SLOT */\n      eq\n        /* \"@openzeppelin/contracts-upgradeable/proxy/utils/UUPSUpgradeable.sol\":6241:6361  if (slot != ERC1967Utils.IMPLEMENTATION_SLOT) {... */\n      tag_289\n      jumpi\n        /* \"@openzeppelin/contracts-upgradeable/proxy/utils/UUPSUpgradeable.sol\":6341:6345  slot */\n      dup1\n        /* \"@openzeppelin/contracts-upgradeable/proxy/utils/UUPSUpgradeable.sol\":6312:6346  UUPSUnsupportedProxiableUUID(slot) */\n      mload(0x40)\n      0xaa1d49a400000000000000000000000000000000000000000000000000000000\n      dup2\n      mstore\n      0x04\n      add\n      tag_290\n      swap2\n      swap1\n      tag_58\n      jump\t// in\n    tag_290:\n      mload(0x40)\n      dup1\n      swap2\n      sub\n      swap1\n      revert\n        /* \"@openzeppelin/contracts-upgradeable/proxy/utils/UUPSUpgradeable.sol\":6241:6361  if (slot != ERC1967Utils.IMPLEMENTATION_SLOT) {... */\n    tag_289:\n        /* \"@openzeppelin/contracts-upgradeable/proxy/utils/UUPSUpgradeable.sol\":6374:6428  ERC1967Utils.upgradeToAndCall(newImplementation, data) */\n      tag_291\n        /* \"@openzeppelin/contracts-upgradeable/proxy/utils/UUPSUpgradeable.sol\":6404:6421  newImplementation */\n      dup4\n        /* \"@openzeppelin/contracts-upgradeable/proxy/utils/UUPSUpgradeable.sol\":6423:6427  data */\n      dup4\n        /* \"@openzeppelin/contracts-upgradeable/proxy/utils/UUPSUpgradeable.sol\":6374:6403  ERC1967Utils.upgradeToAndCall */\n      tag_292\n        /* \"@openzeppelin/contracts-upgradeable/proxy/utils/UUPSUpgradeable.sol\":6374:6428  ERC1967Utils.upgradeToAndCall(newImplementation, data) */\n      jump\t// in\n    tag_291:\n        /* \"@openzeppelin/contracts-upgradeable/proxy/utils/UUPSUpgradeable.sol\":6204:6439  returns (bytes32 slot) {... */\n      pop\n        /* \"@openzeppelin/contracts-upgradeable/proxy/utils/UUPSUpgradeable.sol\":6052:6590  function _upgradeToAndCallUUPS(address newImplementation, bytes memory data) private {... */\n      pop\n      pop\n      jump\t// out\n        /* \"@openzeppelin/contracts-upgradeable/proxy/utils/UUPSUpgradeable.sol\":5028:5241  function _checkNotDelegated() internal view virtual {... */\n    tag_167:\n        /* \"@openzeppelin/contracts-upgradeable/proxy/utils/UUPSUpgradeable.sol\":5111:5117  __self */\n      immutable(\"0x980c46aeb242fb2816eec3c43a568cdc6adda404b46e62cce4e3fe7d929881e3\")\n        /* \"@openzeppelin/contracts-upgradeable/proxy/utils/UUPSUpgradeable.sol\":5094:5117  address(this) != __self */\n      0xffffffffffffffffffffffffffffffffffffffff\n      and\n        /* \"@openzeppelin/contracts-upgradeable/proxy/utils/UUPSUpgradeable.sol\":5102:5106  this */\n      address\n        /* \"@openzeppelin/contracts-upgradeable/proxy/utils/UUPSUpgradeable.sol\":5094:5117  address(this) != __self */\n      0xffffffffffffffffffffffffffffffffffffffff\n      and\n      eq\n        /* \"@openzeppelin/contracts-upgradeable/proxy/utils/UUPSUpgradeable.sol\":5090:5235  if (address(this) != __self) {... */\n      tag_294\n      jumpi\n        /* \"@openzeppelin/contracts-upgradeable/proxy/utils/UUPSUpgradeable.sol\":5195:5224  UUPSUnauthorizedCallContext() */\n      mload(0x40)\n      0xe07c8dba00000000000000000000000000000000000000000000000000000000\n      dup2\n      mstore\n      0x04\n      add\n      mload(0x40)\n      dup1\n      swap2\n      sub\n      swap1\n      revert\n        /* \"@openzeppelin/contracts-upgradeable/proxy/utils/UUPSUpgradeable.sol\":5090:5235  if (address(this) != __self) {... */\n    tag_294:\n        /* \"@openzeppelin/contracts-upgradeable/proxy/utils/UUPSUpgradeable.sol\":5028:5241  function _checkNotDelegated() internal view virtual {... */\n      jump\t// out\n        /* \"@openzeppelin/contracts-upgradeable/proxy/utils/Initializable.sol\":8737:8907  function _getInitializableStorage() private pure returns (InitializableStorage storage $) {... */\n    tag_191:\n        /* \"@openzeppelin/contracts-upgradeable/proxy/utils/Initializable.sol\":8795:8825  InitializableStorage storage $ */\n      0x00\n        /* \"@openzeppelin/contracts-upgradeable/proxy/utils/Initializable.sol\":8870:8891  INITIALIZABLE_STORAGE */\n      0xf0c57e16840df040f15088dc2f81fe391c3923bec73e23a9662efc9c229c6a00\n        /* \"@openzeppelin/contracts-upgradeable/proxy/utils/Initializable.sol\":8860:8891  $.slot := INITIALIZABLE_STORAGE */\n      swap1\n      pop\n        /* \"@openzeppelin/contracts-upgradeable/proxy/utils/Initializable.sol\":8737:8907  function _getInitializableStorage() private pure returns (InitializableStorage storage $) {... */\n      swap1\n      jump\t// out\n        /* \"@openzeppelin/contracts-upgradeable/proxy/utils/UUPSUpgradeable.sol\":2968:3035  function __UUPSUpgradeable_init() internal onlyInitializing {... */\n    tag_199:\n        /* \"@openzeppelin/contracts-upgradeable/proxy/utils/Initializable.sol\":6931:6951  _checkInitializing() */\n      tag_297\n        /* \"@openzeppelin/contracts-upgradeable/proxy/utils/Initializable.sol\":6931:6949  _checkInitializing */\n      tag_298\n        /* \"@openzeppelin/contracts-upgradeable/proxy/utils/Initializable.sol\":6931:6951  _checkInitializing() */\n      jump\t// in\n    tag_297:\n        /* \"@openzeppelin/contracts-upgradeable/proxy/utils/UUPSUpgradeable.sol\":2968:3035  function __UUPSUpgradeable_init() internal onlyInitializing {... */\n      jump\t// out\n        /* \"@openzeppelin/contracts/proxy/ERC1967/ERC1967Utils.sol\":1957:2095  function getImplementation() internal view returns (address) {... */\n    tag_273:\n        /* \"@openzeppelin/contracts/proxy/ERC1967/ERC1967Utils.sol\":2009:2016  address */\n      0x00\n        /* \"@openzeppelin/contracts/proxy/ERC1967/ERC1967Utils.sol\":2035:2082  StorageSlot.getAddressSlot(IMPLEMENTATION_SLOT) */\n      tag_301\n        /* \"@openzeppelin/contracts/proxy/ERC1967/ERC1967Utils.sol\":1327:1393  0x360894a13ba1a3210667c828492db98dca3e2076cc3735a920a3ca505d382bbc */\n      0x360894a13ba1a3210667c828492db98dca3e2076cc3735a920a3ca505d382bbc\n        /* \"@openzeppelin/contracts/proxy/ERC1967/ERC1967Utils.sol\":2062:2081  IMPLEMENTATION_SLOT */\n      0x00\n      shl\n        /* \"@openzeppelin/contracts/proxy/ERC1967/ERC1967Utils.sol\":2035:2061  StorageSlot.getAddressSlot */\n      tag_302\n        /* \"@openzeppelin/contracts/proxy/ERC1967/ERC1967Utils.sol\":2035:2082  StorageSlot.getAddressSlot(IMPLEMENTATION_SLOT) */\n      jump\t// in\n    tag_301:\n        /* \"@openzeppelin/contracts/proxy/ERC1967/ERC1967Utils.sol\":2035:2088  StorageSlot.getAddressSlot(IMPLEMENTATION_SLOT).value */\n      0x00\n      add\n      0x00\n      swap1\n      sload\n      swap1\n      0x0100\n      exp\n      swap1\n      div\n      0xffffffffffffffffffffffffffffffffffffffff\n      and\n        /* \"@openzeppelin/contracts/proxy/ERC1967/ERC1967Utils.sol\":2028:2088  return StorageSlot.getAddressSlot(IMPLEMENTATION_SLOT).value */\n      swap1\n      pop\n        /* \"@openzeppelin/contracts/proxy/ERC1967/ERC1967Utils.sol\":1957:2095  function getImplementation() internal view returns (address) {... */\n      swap1\n      jump\t// out\n        /* \"@openzeppelin/contracts/proxy/ERC1967/ERC1967Utils.sol\":2779:3114  function upgradeToAndCall(address newImplementation, bytes memory data) internal {... */\n    tag_292:\n        /* \"@openzeppelin/contracts/proxy/ERC1967/ERC1967Utils.sol\":2870:2907  _setImplementation(newImplementation) */\n      tag_304\n        /* \"@openzeppelin/contracts/proxy/ERC1967/ERC1967Utils.sol\":2889:2906  newImplementation */\n      dup3\n        /* \"@openzeppelin/contracts/proxy/ERC1967/ERC1967Utils.sol\":2870:2888  _setImplementation */\n      tag_305\n        /* \"@openzeppelin/contracts/proxy/ERC1967/ERC1967Utils.sol\":2870:2907  _setImplementation(newImplementation) */\n      jump\t// in\n    tag_304:\n        /* \"@openzeppelin/contracts/proxy/ERC1967/ERC1967Utils.sol\":2931:2948  newImplementation */\n      dup2\n        /* \"@openzeppelin/contracts/proxy/ERC1967/ERC1967Utils.sol\":2922:2949  Upgraded(newImplementation) */\n      0xffffffffffffffffffffffffffffffffffffffff\n      and\n      0xbc7cd75a20ee27fd9adebab32041f755214dbc6bffa90cc0225b39da2e5c2d3b\n      mload(0x40)\n      mload(0x40)\n      dup1\n      swap2\n      sub\n      swap1\n      log2\n        /* \"@openzeppelin/contracts/proxy/ERC1967/ERC1967Utils.sol\":2978:2979  0 */\n      0x00\n        /* \"@openzeppelin/contracts/proxy/ERC1967/ERC1967Utils.sol\":2964:2968  data */\n      dup2\n        /* \"@openzeppelin/contracts/proxy/ERC1967/ERC1967Utils.sol\":2964:2975  data.length */\n      mload\n        /* \"@openzeppelin/contracts/proxy/ERC1967/ERC1967Utils.sol\":2964:2979  data.length > 0 */\n      gt\n        /* \"@openzeppelin/contracts/proxy/ERC1967/ERC1967Utils.sol\":2960:3108  if (data.length > 0) {... */\n      iszero\n      tag_306\n      jumpi\n        /* \"@openzeppelin/contracts/proxy/ERC1967/ERC1967Utils.sol\":2995:3048  Address.functionDelegateCall(newImplementation, data) */\n      tag_307\n        /* \"@openzeppelin/contracts/proxy/ERC1967/ERC1967Utils.sol\":3024:3041  newImplementation */\n      dup3\n        /* \"@openzeppelin/contracts/proxy/ERC1967/ERC1967Utils.sol\":3043:3047  data */\n      dup3\n        /* \"@openzeppelin/contracts/proxy/ERC1967/ERC1967Utils.sol\":2995:3023  Address.functionDelegateCall */\n      tag_308\n        /* \"@openzeppelin/contracts/proxy/ERC1967/ERC1967Utils.sol\":2995:3048  Address.functionDelegateCall(newImplementation, data) */\n      jump\t// in\n    tag_307:\n      pop\n        /* \"@openzeppelin/contracts/proxy/ERC1967/ERC1967Utils.sol\":2960:3108  if (data.length > 0) {... */\n      jump(tag_309)\n    tag_306:\n        /* \"@openzeppelin/contracts/proxy/ERC1967/ERC1967Utils.sol\":3079:3097  _checkNonPayable() */\n      tag_310\n        /* \"@openzeppelin/contracts/proxy/ERC1967/ERC1967Utils.sol\":3079:3095  _checkNonPayable */\n      tag_311\n        /* \"@openzeppelin/contracts/proxy/ERC1967/ERC1967Utils.sol\":3079:3097  _checkNonPayable() */\n      jump\t// in\n    tag_310:\n        /* \"@openzeppelin/contracts/proxy/ERC1967/ERC1967Utils.sol\":2960:3108  if (data.length > 0) {... */\n    tag_309:\n        /* \"@openzeppelin/contracts/proxy/ERC1967/ERC1967Utils.sol\":2779:3114  function upgradeToAndCall(address newImplementation, bytes memory data) internal {... */\n      pop\n      pop\n      jump\t// out\n        /* \"@openzeppelin/contracts-upgradeable/proxy/utils/Initializable.sol\":7084:7225  function _checkInitializing() internal view virtual {... */\n    tag_298:\n        /* \"@openzeppelin/contracts-upgradeable/proxy/utils/Initializable.sol\":7151:7168  _isInitializing() */\n      tag_313\n        /* \"@openzeppelin/contracts-upgradeable/proxy/utils/Initializable.sol\":7151:7166  _isInitializing */\n      tag_314\n        /* \"@openzeppelin/contracts-upgradeable/proxy/utils/Initializable.sol\":7151:7168  _isInitializing() */\n      jump\t// in\n    tag_313:\n        /* \"@openzeppelin/contracts-upgradeable/proxy/utils/Initializable.sol\":7146:7219  if (!_isInitializing()) {... */\n      tag_315\n      jumpi\n        /* \"@openzeppelin/contracts-upgradeable/proxy/utils/Initializable.sol\":7191:7208  NotInitializing() */\n      mload(0x40)\n      0xd7e6bcf800000000000000000000000000000000000000000000000000000000\n      dup2\n      mstore\n      0x04\n      add\n      mload(0x40)\n      dup1\n      swap2\n      sub\n      swap1\n      revert\n        /* \"@openzeppelin/contracts-upgradeable/proxy/utils/Initializable.sol\":7146:7219  if (!_isInitializing()) {... */\n    tag_315:\n        /* \"@openzeppelin/contracts-upgradeable/proxy/utils/Initializable.sol\":7084:7225  function _checkInitializing() internal view virtual {... */\n      jump\t// out\n        /* \"@openzeppelin/contracts/utils/StorageSlot.sol\":1684:1874  function getAddressSlot(bytes32 slot) internal pure returns (AddressSlot storage r) {... */\n    tag_302:\n        /* \"@openzeppelin/contracts/utils/StorageSlot.sol\":1745:1766  AddressSlot storage r */\n      0x00\n        /* \"@openzeppelin/contracts/utils/StorageSlot.sol\":1854:1858  slot */\n      dup2\n        /* \"@openzeppelin/contracts/utils/StorageSlot.sol\":1844:1858  r.slot := slot */\n      swap1\n      pop\n        /* \"@openzeppelin/contracts/utils/StorageSlot.sol\":1684:1874  function getAddressSlot(bytes32 slot) internal pure returns (AddressSlot storage r) {... */\n      swap2\n      swap1\n      pop\n      jump\t// out\n        /* \"@openzeppelin/contracts/proxy/ERC1967/ERC1967Utils.sol\":2186:2467  function _setImplementation(address newImplementation) private {... */\n    tag_305:\n        /* \"@openzeppelin/contracts/proxy/ERC1967/ERC1967Utils.sol\":2296:2297  0 */\n      0x00\n        /* \"@openzeppelin/contracts/proxy/ERC1967/ERC1967Utils.sol\":2263:2280  newImplementation */\n      dup2\n        /* \"@openzeppelin/contracts/proxy/ERC1967/ERC1967Utils.sol\":2263:2292  newImplementation.code.length */\n      0xffffffffffffffffffffffffffffffffffffffff\n      and\n      extcodesize\n        /* \"@openzeppelin/contracts/proxy/ERC1967/ERC1967Utils.sol\":2263:2297  newImplementation.code.length == 0 */\n      sub\n        /* \"@openzeppelin/contracts/proxy/ERC1967/ERC1967Utils.sol\":2259:2378  if (newImplementation.code.length == 0) {... */\n      tag_318\n      jumpi\n        /* \"@openzeppelin/contracts/proxy/ERC1967/ERC1967Utils.sol\":2349:2366  newImplementation */\n      dup1\n        /* \"@openzeppelin/contracts/proxy/ERC1967/ERC1967Utils.sol\":2320:2367  ERC1967InvalidImplementation(newImplementation) */\n      mload(0x40)\n      0x4c9c8ce300000000000000000000000000000000000000000000000000000000\n      dup2\n      mstore\n      0x04\n      add\n      tag_319\n      swap2\n      swap1\n      tag_188\n      jump\t// in\n    tag_319:\n      mload(0x40)\n      dup1\n      swap2\n      sub\n      swap1\n      revert\n        /* \"@openzeppelin/contracts/proxy/ERC1967/ERC1967Utils.sol\":2259:2378  if (newImplementation.code.length == 0) {... */\n    tag_318:\n        /* \"@openzeppelin/contracts/proxy/ERC1967/ERC1967Utils.sol\":2443:2460  newImplementation */\n      dup1\n        /* \"@openzeppelin/contracts/proxy/ERC1967/ERC1967Utils.sol\":2387:2434  StorageSlot.getAddressSlot(IMPLEMENTATION_SLOT) */\n      tag_320\n        /* \"@openzeppelin/contracts/proxy/ERC1967/ERC1967Utils.sol\":1327:1393  0x360894a13ba1a3210667c828492db98dca3e2076cc3735a920a3ca505d382bbc */\n      0x360894a13ba1a3210667c828492db98dca3e2076cc3735a920a3ca505d382bbc\n        /* \"@openzeppelin/contracts/proxy/ERC1967/ERC1967Utils.sol\":2414:2433  IMPLEMENTATION_SLOT */\n      0x00\n      shl\n        /* \"@openzeppelin/contracts/proxy/ERC1967/ERC1967Utils.sol\":2387:2413  StorageSlot.getAddressSlot */\n      tag_302\n        /* \"@openzeppelin/contracts/proxy/ERC1967/ERC1967Utils.sol\":2387:2434  StorageSlot.getAddressSlot(IMPLEMENTATION_SLOT) */\n      jump\t// in\n    tag_320:\n        /* \"@openzeppelin/contracts/proxy/ERC1967/ERC1967Utils.sol\":2387:2440  StorageSlot.getAddressSlot(IMPLEMENTATION_SLOT).value */\n      0x00\n      add\n      0x00\n        /* \"@openzeppelin/contracts/proxy/ERC1967/ERC1967Utils.sol\":2387:2460  StorageSlot.getAddressSlot(IMPLEMENTATION_SLOT).value = newImplementation */\n      0x0100\n      exp\n      dup2\n      sload\n      dup2\n      0xffffffffffffffffffffffffffffffffffffffff\n      mul\n      not\n      and\n      swap1\n      dup4\n      0xffffffffffffffffffffffffffffffffffffffff\n      and\n      mul\n      or\n      swap1\n      sstore\n      pop\n        /* \"@openzeppelin/contracts/proxy/ERC1967/ERC1967Utils.sol\":2186:2467  function _setImplementation(address newImplementation) private {... */\n      pop\n      jump\t// out\n        /* \"@openzeppelin/contracts/utils/Address.sol\":4106:4359  function functionDelegateCall(address target, bytes memory data) internal returns (bytes memory) {... */\n    tag_308:\n        /* \"@openzeppelin/contracts/utils/Address.sol\":4189:4201  bytes memory */\n      0x60\n        /* \"@openzeppelin/contracts/utils/Address.sol\":4214:4226  bool success */\n      0x00\n        /* \"@openzeppelin/contracts/utils/Address.sol\":4228:4251  bytes memory returndata */\n      dup1\n        /* \"@openzeppelin/contracts/utils/Address.sol\":4255:4261  target */\n      dup5\n        /* \"@openzeppelin/contracts/utils/Address.sol\":4255:4274  target.delegatecall */\n      0xffffffffffffffffffffffffffffffffffffffff\n      and\n        /* \"@openzeppelin/contracts/utils/Address.sol\":4275:4279  data */\n      dup5\n        /* \"@openzeppelin/contracts/utils/Address.sol\":4255:4280  target.delegatecall(data) */\n      mload(0x40)\n      tag_322\n      swap2\n      swap1\n      tag_323\n      jump\t// in\n    tag_322:\n      0x00\n      mload(0x40)\n      dup1\n      dup4\n      sub\n      dup2\n      dup6\n      gas\n      delegatecall\n      swap2\n      pop\n      pop\n      returndatasize\n      dup1\n      0x00\n      dup2\n      eq\n      tag_326\n      jumpi\n      mload(0x40)\n      swap2\n      pop\n      and(add(returndatasize, 0x3f), not(0x1f))\n      dup3\n      add\n      0x40\n      mstore\n      returndatasize\n      dup3\n      mstore\n      returndatasize\n      0x00\n      0x20\n      dup5\n      add\n      returndatacopy\n      jump(tag_325)\n    tag_326:\n      0x60\n      swap2\n      pop\n    tag_325:\n      pop\n        /* \"@openzeppelin/contracts/utils/Address.sol\":4213:4280  (bool success, bytes memory returndata) = target.delegatecall(data) */\n      swap2\n      pop\n      swap2\n      pop\n        /* \"@openzeppelin/contracts/utils/Address.sol\":4297:4352  verifyCallResultFromTarget(target, success, returndata) */\n      tag_327\n        /* \"@openzeppelin/contracts/utils/Address.sol\":4324:4330  target */\n      dup6\n        /* \"@openzeppelin/contracts/utils/Address.sol\":4332:4339  success */\n      dup4\n        /* \"@openzeppelin/contracts/utils/Address.sol\":4341:4351  returndata */\n      dup4\n        /* \"@openzeppelin/contracts/utils/Address.sol\":4297:4323  verifyCallResultFromTarget */\n      tag_328\n        /* \"@openzeppelin/contracts/utils/Address.sol\":4297:4352  verifyCallResultFromTarget(target, success, returndata) */\n      jump\t// in\n    tag_327:\n        /* \"@openzeppelin/contracts/utils/Address.sol\":4290:4352  return verifyCallResultFromTarget(target, success, returndata) */\n      swap3\n      pop\n      pop\n      pop\n        /* \"@openzeppelin/contracts/utils/Address.sol\":4106:4359  function functionDelegateCall(address target, bytes memory data) internal returns (bytes memory) {... */\n      swap3\n      swap2\n      pop\n      pop\n      jump\t// out\n        /* \"@openzeppelin/contracts/proxy/ERC1967/ERC1967Utils.sol\":6598:6720  function _checkNonPayable() private {... */\n    tag_311:\n        /* \"@openzeppelin/contracts/proxy/ERC1967/ERC1967Utils.sol\":6660:6661  0 */\n      0x00\n        /* \"@openzeppelin/contracts/proxy/ERC1967/ERC1967Utils.sol\":6648:6657  msg.value */\n      callvalue\n        /* \"@openzeppelin/contracts/proxy/ERC1967/ERC1967Utils.sol\":6648:6661  msg.value > 0 */\n      gt\n        /* \"@openzeppelin/contracts/proxy/ERC1967/ERC1967Utils.sol\":6644:6714  if (msg.value > 0) {... */\n      iszero\n      tag_330\n      jumpi\n        /* \"@openzeppelin/contracts/proxy/ERC1967/ERC1967Utils.sol\":6684:6703  ERC1967NonPayable() */\n      mload(0x40)\n      0xb398979f00000000000000000000000000000000000000000000000000000000\n      dup2\n      mstore\n      0x04\n      add\n      mload(0x40)\n      dup1\n      swap2\n      sub\n      swap1\n      revert\n        /* \"@openzeppelin/contracts/proxy/ERC1967/ERC1967Utils.sol\":6644:6714  if (msg.value > 0) {... */\n    tag_330:\n        /* \"@openzeppelin/contracts/proxy/ERC1967/ERC1967Utils.sol\":6598:6720  function _checkNonPayable() private {... */\n      jump\t// out\n        /* \"@openzeppelin/contracts-upgradeable/proxy/utils/Initializable.sol\":8487:8607  function _isInitializing() internal view returns (bool) {... */\n    tag_314:\n        /* \"@openzeppelin/contracts-upgradeable/proxy/utils/Initializable.sol\":8537:8541  bool */\n      0x00\n        /* \"@openzeppelin/contracts-upgradeable/proxy/utils/Initializable.sol\":8560:8586  _getInitializableStorage() */\n      tag_332\n        /* \"@openzeppelin/contracts-upgradeable/proxy/utils/Initializable.sol\":8560:8584  _getInitializableStorage */\n      tag_191\n        /* \"@openzeppelin/contracts-upgradeable/proxy/utils/Initializable.sol\":8560:8586  _getInitializableStorage() */\n      jump\t// in\n    tag_332:\n        /* \"@openzeppelin/contracts-upgradeable/proxy/utils/Initializable.sol\":8560:8600  _getInitializableStorage()._initializing */\n      0x00\n      add\n      0x08\n      swap1\n      sload\n      swap1\n      0x0100\n      exp\n      swap1\n      div\n      0xff\n      and\n        /* \"@openzeppelin/contracts-upgradeable/proxy/utils/Initializable.sol\":8553:8600  return _getInitializableStorage()._initializing */\n      swap1\n      pop\n        /* \"@openzeppelin/contracts-upgradeable/proxy/utils/Initializable.sol\":8487:8607  function _isInitializing() internal view returns (bool) {... */\n      swap1\n      jump\t// out\n        /* \"@openzeppelin/contracts/utils/Address.sol\":4625:5207  function verifyCallResultFromTarget(... */\n    tag_328:\n        /* \"@openzeppelin/contracts/utils/Address.sol\":4769:4781  bytes memory */\n      0x60\n        /* \"@openzeppelin/contracts/utils/Address.sol\":4798:4805  success */\n      dup3\n        /* \"@openzeppelin/contracts/utils/Address.sol\":4793:5201  if (!success) {... */\n      tag_334\n      jumpi\n        /* \"@openzeppelin/contracts/utils/Address.sol\":4821:4840  _revert(returndata) */\n      tag_335\n        /* \"@openzeppelin/contracts/utils/Address.sol\":4829:4839  returndata */\n      dup3\n        /* \"@openzeppelin/contracts/utils/Address.sol\":4821:4828  _revert */\n      tag_336\n        /* \"@openzeppelin/contracts/utils/Address.sol\":4821:4840  _revert(returndata) */\n      jump\t// in\n    tag_335:\n        /* \"@openzeppelin/contracts/utils/Address.sol\":4793:5201  if (!success) {... */\n      jump(tag_337)\n    tag_334:\n        /* \"@openzeppelin/contracts/utils/Address.sol\":5066:5067  0 */\n      0x00\n        /* \"@openzeppelin/contracts/utils/Address.sol\":5045:5055  returndata */\n      dup3\n        /* \"@openzeppelin/contracts/utils/Address.sol\":5045:5062  returndata.length */\n      mload\n        /* \"@openzeppelin/contracts/utils/Address.sol\":5045:5067  returndata.length == 0 */\n      eq\n        /* \"@openzeppelin/contracts/utils/Address.sol\":5045:5094  returndata.length == 0 && target.code.length == 0 */\n      dup1\n      iszero\n      tag_338\n      jumpi\n      pop\n        /* \"@openzeppelin/contracts/utils/Address.sol\":5093:5094  0 */\n      0x00\n        /* \"@openzeppelin/contracts/utils/Address.sol\":5071:5077  target */\n      dup5\n        /* \"@openzeppelin/contracts/utils/Address.sol\":5071:5089  target.code.length */\n      0xffffffffffffffffffffffffffffffffffffffff\n      and\n      extcodesize\n        /* \"@openzeppelin/contracts/utils/Address.sol\":5071:5094  target.code.length == 0 */\n      eq\n        /* \"@openzeppelin/contracts/utils/Address.sol\":5045:5094  returndata.length == 0 && target.code.length == 0 */\n    tag_338:\n        /* \"@openzeppelin/contracts/utils/Address.sol\":5041:5160  if (returndata.length == 0 && target.code.length == 0) {... */\n      iszero\n      tag_339\n      jumpi\n        /* \"@openzeppelin/contracts/utils/Address.sol\":5138:5144  target */\n      dup4\n        /* \"@openzeppelin/contracts/utils/Address.sol\":5121:5145  AddressEmptyCode(target) */\n      mload(0x40)\n      0x9996b31500000000000000000000000000000000000000000000000000000000\n      dup2\n      mstore\n      0x04\n      add\n      tag_340\n      swap2\n      swap1\n      tag_188\n      jump\t// in\n    tag_340:\n      mload(0x40)\n      dup1\n      swap2\n      sub\n      swap1\n      revert\n        /* \"@openzeppelin/contracts/utils/Address.sol\":5041:5160  if (returndata.length == 0 && target.code.length == 0) {... */\n    tag_339:\n        /* \"@openzeppelin/contracts/utils/Address.sol\":5180:5190  returndata */\n      dup2\n        /* \"@openzeppelin/contracts/utils/Address.sol\":5173:5190  return returndata */\n      swap1\n      pop\n      jump(tag_333)\n        /* \"@openzeppelin/contracts/utils/Address.sol\":4793:5201  if (!success) {... */\n    tag_337:\n        /* \"@openzeppelin/contracts/utils/Address.sol\":4625:5207  function verifyCallResultFromTarget(... */\n    tag_333:\n      swap4\n      swap3\n      pop\n      pop\n      pop\n      jump\t// out\n        /* \"@openzeppelin/contracts/utils/Address.sol\":5743:6259  function _revert(bytes memory returndata) private pure {... */\n    tag_336:\n        /* \"@openzeppelin/contracts/utils/Address.sol\":5894:5895  0 */\n      0x00\n        /* \"@openzeppelin/contracts/utils/Address.sol\":5874:5884  returndata */\n      dup2\n        /* \"@openzeppelin/contracts/utils/Address.sol\":5874:5891  returndata.length */\n      mload\n        /* \"@openzeppelin/contracts/utils/Address.sol\":5874:5895  returndata.length > 0 */\n      gt\n        /* \"@openzeppelin/contracts/utils/Address.sol\":5870:6253  if (returndata.length > 0) {... */\n      iszero\n      tag_342\n      jumpi\n        /* \"@openzeppelin/contracts/utils/Address.sol\":6102:6112  returndata */\n      dup1\n        /* \"@openzeppelin/contracts/utils/Address.sol\":6096:6113  mload(returndata) */\n      mload\n        /* \"@openzeppelin/contracts/utils/Address.sol\":6158:6173  returndata_size */\n      dup1\n        /* \"@openzeppelin/contracts/utils/Address.sol\":6145:6155  returndata */\n      dup3\n        /* \"@openzeppelin/contracts/utils/Address.sol\":6141:6143  32 */\n      0x20\n        /* \"@openzeppelin/contracts/utils/Address.sol\":6137:6156  add(32, returndata) */\n      add\n        /* \"@openzeppelin/contracts/utils/Address.sol\":6130:6174  revert(add(32, returndata), returndata_size) */\n      revert\n        /* \"@openzeppelin/contracts/utils/Address.sol\":5870:6253  if (returndata.length > 0) {... */\n    tag_342:\n        /* \"@openzeppelin/contracts/utils/Address.sol\":6225:6242  FailedInnerCall() */\n      mload(0x40)\n      0x1425ea4200000000000000000000000000000000000000000000000000000000\n      dup2\n      mstore\n      0x04\n      add\n      mload(0x40)\n      dup1\n      swap2\n      sub\n      swap1\n      revert\n    tag_101:\n      mload(0x40)\n      dup1\n      0x0100\n      add\n      0x40\n      mstore\n      dup1\n      and(0xffffffffffffffffffffffffffffffffffffffff, 0x00)\n      dup2\n      mstore\n      0x20\n      add\n      0x00\n      dup2\n      mstore\n      0x20\n      add\n      0x60\n      dup2\n      mstore\n      0x20\n      add\n      0x60\n      dup2\n      mstore\n      0x20\n      add\n      iszero(iszero(0x00))\n      dup2\n      mstore\n      0x20\n      add\n      0x00\n      dup2\n      mstore\n      0x20\n      add\n      0x00\n      dup2\n      mstore\n      0x20\n      add\n      0x00\n      dup2\n      mstore\n      pop\n      swap1\n      jump\t// out\n        /* \"#utility.yul\":7:82   */\n    tag_344:\n        /* \"#utility.yul\":40:46   */\n      0x00\n        /* \"#utility.yul\":73:75   */\n      0x40\n        /* \"#utility.yul\":67:76   */\n      mload\n        /* \"#utility.yul\":57:76   */\n      swap1\n      pop\n        /* \"#utility.yul\":7:82   */\n      swap1\n      jump\t// out\n        /* \"#utility.yul\":88:205   */\n    tag_345:\n        /* \"#utility.yul\":197:198   */\n      0x00\n        /* \"#utility.yul\":194:195   */\n      dup1\n        /* \"#utility.yul\":187:199   */\n      revert\n        /* \"#utility.yul\":211:328   */\n    tag_346:\n        /* \"#utility.yul\":320:321   */\n      0x00\n        /* \"#utility.yul\":317:318   */\n      dup1\n        /* \"#utility.yul\":310:322   */\n      revert\n        /* \"#utility.yul\":334:411   */\n    tag_347:\n        /* \"#utility.yul\":371:378   */\n      0x00\n        /* \"#utility.yul\":400:405   */\n      dup2\n        /* \"#utility.yul\":389:405   */\n      swap1\n      pop\n        /* \"#utility.yul\":334:411   */\n      swap2\n      swap1\n      pop\n      jump\t// out\n        /* \"#utility.yul\":417:539   */\n    tag_348:\n        /* \"#utility.yul\":490:514   */\n      tag_430\n        /* \"#utility.yul\":508:513   */\n      dup2\n        /* \"#utility.yul\":490:514   */\n      tag_347\n      jump\t// in\n    tag_430:\n        /* \"#utility.yul\":483:488   */\n      dup2\n        /* \"#utility.yul\":480:515   */\n      eq\n        /* \"#utility.yul\":470:533   */\n      tag_431\n      jumpi\n        /* \"#utility.yul\":529:530   */\n      0x00\n        /* \"#utility.yul\":526:527   */\n      dup1\n        /* \"#utility.yul\":519:531   */\n      revert\n        /* \"#utility.yul\":470:533   */\n    tag_431:\n        /* \"#utility.yul\":417:539   */\n      pop\n      jump\t// out\n        /* \"#utility.yul\":545:684   */\n    tag_349:\n        /* \"#utility.yul\":591:596   */\n      0x00\n        /* \"#utility.yul\":629:635   */\n      dup2\n        /* \"#utility.yul\":616:636   */\n      calldataload\n        /* \"#utility.yul\":607:636   */\n      swap1\n      pop\n        /* \"#utility.yul\":645:678   */\n      tag_433\n        /* \"#utility.yul\":672:677   */\n      dup2\n        /* \"#utility.yul\":645:678   */\n      tag_348\n      jump\t// in\n    tag_433:\n        /* \"#utility.yul\":545:684   */\n      swap3\n      swap2\n      pop\n      pop\n      jump\t// out\n        /* \"#utility.yul\":690:1019   */\n    tag_25:\n        /* \"#utility.yul\":749:755   */\n      0x00\n        /* \"#utility.yul\":798:800   */\n      0x20\n        /* \"#utility.yul\":786:795   */\n      dup3\n        /* \"#utility.yul\":777:784   */\n      dup5\n        /* \"#utility.yul\":773:796   */\n      sub\n        /* \"#utility.yul\":769:801   */\n      slt\n        /* \"#utility.yul\":766:885   */\n      iszero\n      tag_435\n      jumpi\n        /* \"#utility.yul\":804:883   */\n      tag_436\n      tag_345\n      jump\t// in\n    tag_436:\n        /* \"#utility.yul\":766:885   */\n    tag_435:\n        /* \"#utility.yul\":924:925   */\n      0x00\n        /* \"#utility.yul\":949:1002   */\n      tag_437\n        /* \"#utility.yul\":994:1001   */\n      dup5\n        /* \"#utility.yul\":985:991   */\n      dup3\n        /* \"#utility.yul\":974:983   */\n      dup6\n        /* \"#utility.yul\":970:992   */\n      add\n        /* \"#utility.yul\":949:1002   */\n      tag_349\n      jump\t// in\n    tag_437:\n        /* \"#utility.yul\":939:1002   */\n      swap2\n      pop\n        /* \"#utility.yul\":895:1012   */\n      pop\n        /* \"#utility.yul\":690:1019   */\n      swap3\n      swap2\n      pop\n      pop\n      jump\t// out\n        /* \"#utility.yul\":1025:1151   */\n    tag_350:\n        /* \"#utility.yul\":1062:1069   */\n      0x00\n        /* \"#utility.yul\":1102:1144   */\n      0xffffffffffffffffffffffffffffffffffffffff\n        /* \"#utility.yul\":1095:1100   */\n      dup3\n        /* \"#utility.yul\":1091:1145   */\n      and\n        /* \"#utility.yul\":1080:1145   */\n      swap1\n      pop\n        /* \"#utility.yul\":1025:1151   */\n      swap2\n      swap1\n      pop\n      jump\t// out\n        /* \"#utility.yul\":1157:1253   */\n    tag_351:\n        /* \"#utility.yul\":1194:1201   */\n      0x00\n        /* \"#utility.yul\":1223:1247   */\n      tag_440\n        /* \"#utility.yul\":1241:1246   */\n      dup3\n        /* \"#utility.yul\":1223:1247   */\n      tag_350\n      jump\t// in\n    tag_440:\n        /* \"#utility.yul\":1212:1247   */\n      swap1\n      pop\n        /* \"#utility.yul\":1157:1253   */\n      swap2\n      swap1\n      pop\n      jump\t// out\n        /* \"#utility.yul\":1259:1367   */\n    tag_352:\n        /* \"#utility.yul\":1336:1360   */\n      tag_442\n        /* \"#utility.yul\":1354:1359   */\n      dup2\n        /* \"#utility.yul\":1336:1360   */\n      tag_351\n      jump\t// in\n    tag_442:\n        /* \"#utility.yul\":1331:1334   */\n      dup3\n        /* \"#utility.yul\":1324:1361   */\n      mstore\n        /* \"#utility.yul\":1259:1367   */\n      pop\n      pop\n      jump\t// out\n        /* \"#utility.yul\":1373:1481   */\n    tag_353:\n        /* \"#utility.yul\":1450:1474   */\n      tag_444\n        /* \"#utility.yul\":1468:1473   */\n      dup2\n        /* \"#utility.yul\":1450:1474   */\n      tag_347\n      jump\t// in\n    tag_444:\n        /* \"#utility.yul\":1445:1448   */\n      dup3\n        /* \"#utility.yul\":1438:1475   */\n      mstore\n        /* \"#utility.yul\":1373:1481   */\n      pop\n      pop\n      jump\t// out\n        /* \"#utility.yul\":1487:1601   */\n    tag_354:\n        /* \"#utility.yul\":1554:1560   */\n      0x00\n        /* \"#utility.yul\":1588:1593   */\n      dup2\n        /* \"#utility.yul\":1582:1594   */\n      mload\n        /* \"#utility.yul\":1572:1594   */\n      swap1\n      pop\n        /* \"#utility.yul\":1487:1601   */\n      swap2\n      swap1\n      pop\n      jump\t// out\n        /* \"#utility.yul\":1607:1781   */\n    tag_355:\n        /* \"#utility.yul\":1696:1707   */\n      0x00\n        /* \"#utility.yul\":1730:1736   */\n      dup3\n        /* \"#utility.yul\":1725:1728   */\n      dup3\n        /* \"#utility.yul\":1718:1737   */\n      mstore\n        /* \"#utility.yul\":1770:1774   */\n      0x20\n        /* \"#utility.yul\":1765:1768   */\n      dup3\n        /* \"#utility.yul\":1761:1775   */\n      add\n        /* \"#utility.yul\":1746:1775   */\n      swap1\n      pop\n        /* \"#utility.yul\":1607:1781   */\n      swap3\n      swap2\n      pop\n      pop\n      jump\t// out\n        /* \"#utility.yul\":1787:1919   */\n    tag_356:\n        /* \"#utility.yul\":1854:1858   */\n      0x00\n        /* \"#utility.yul\":1877:1880   */\n      dup2\n        /* \"#utility.yul\":1869:1880   */\n      swap1\n      pop\n        /* \"#utility.yul\":1907:1911   */\n      0x20\n        /* \"#utility.yul\":1902:1905   */\n      dup3\n        /* \"#utility.yul\":1898:1912   */\n      add\n        /* \"#utility.yul\":1890:1912   */\n      swap1\n      pop\n        /* \"#utility.yul\":1787:1919   */\n      swap2\n      swap1\n      pop\n      jump\t// out\n        /* \"#utility.yul\":1925:2104   */\n    tag_357:\n        /* \"#utility.yul\":1994:2004   */\n      0x00\n        /* \"#utility.yul\":2015:2061   */\n      tag_449\n        /* \"#utility.yul\":2057:2060   */\n      dup4\n        /* \"#utility.yul\":2049:2055   */\n      dup4\n        /* \"#utility.yul\":2015:2061   */\n      tag_352\n      jump\t// in\n    tag_449:\n        /* \"#utility.yul\":2093:2097   */\n      0x20\n        /* \"#utility.yul\":2088:2091   */\n      dup4\n        /* \"#utility.yul\":2084:2098   */\n      add\n        /* \"#utility.yul\":2070:2098   */\n      swap1\n      pop\n        /* \"#utility.yul\":1925:2104   */\n      swap3\n      swap2\n      pop\n      pop\n      jump\t// out\n        /* \"#utility.yul\":2110:2223   */\n    tag_358:\n        /* \"#utility.yul\":2180:2184   */\n      0x00\n        /* \"#utility.yul\":2212:2216   */\n      0x20\n        /* \"#utility.yul\":2207:2210   */\n      dup3\n        /* \"#utility.yul\":2203:2217   */\n      add\n        /* \"#utility.yul\":2195:2217   */\n      swap1\n      pop\n        /* \"#utility.yul\":2110:2223   */\n      swap2\n      swap1\n      pop\n      jump\t// out\n        /* \"#utility.yul\":2259:2971   */\n    tag_359:\n        /* \"#utility.yul\":2368:2371   */\n      0x00\n        /* \"#utility.yul\":2397:2451   */\n      tag_452\n        /* \"#utility.yul\":2445:2450   */\n      dup3\n        /* \"#utility.yul\":2397:2451   */\n      tag_354\n      jump\t// in\n    tag_452:\n        /* \"#utility.yul\":2467:2543   */\n      tag_453\n        /* \"#utility.yul\":2536:2542   */\n      dup2\n        /* \"#utility.yul\":2531:2534   */\n      dup6\n        /* \"#utility.yul\":2467:2543   */\n      tag_355\n      jump\t// in\n    tag_453:\n        /* \"#utility.yul\":2460:2543   */\n      swap4\n      pop\n        /* \"#utility.yul\":2567:2623   */\n      tag_454\n        /* \"#utility.yul\":2617:2622   */\n      dup4\n        /* \"#utility.yul\":2567:2623   */\n      tag_356\n      jump\t// in\n    tag_454:\n        /* \"#utility.yul\":2646:2653   */\n      dup1\n        /* \"#utility.yul\":2677:2678   */\n      0x00\n        /* \"#utility.yul\":2662:2946   */\n    tag_455:\n        /* \"#utility.yul\":2687:2693   */\n      dup4\n        /* \"#utility.yul\":2684:2685   */\n      dup2\n        /* \"#utility.yul\":2681:2694   */\n      lt\n        /* \"#utility.yul\":2662:2946   */\n      iszero\n      tag_457\n      jumpi\n        /* \"#utility.yul\":2763:2769   */\n      dup2\n        /* \"#utility.yul\":2757:2770   */\n      mload\n        /* \"#utility.yul\":2790:2853   */\n      tag_458\n        /* \"#utility.yul\":2849:2852   */\n      dup9\n        /* \"#utility.yul\":2834:2847   */\n      dup3\n        /* \"#utility.yul\":2790:2853   */\n      tag_357\n      jump\t// in\n    tag_458:\n        /* \"#utility.yul\":2783:2853   */\n      swap8\n      pop\n        /* \"#utility.yul\":2876:2936   */\n      tag_459\n        /* \"#utility.yul\":2929:2935   */\n      dup4\n        /* \"#utility.yul\":2876:2936   */\n      tag_358\n      jump\t// in\n    tag_459:\n        /* \"#utility.yul\":2866:2936   */\n      swap3\n      pop\n        /* \"#utility.yul\":2722:2946   */\n      pop\n        /* \"#utility.yul\":2709:2710   */\n      0x01\n        /* \"#utility.yul\":2706:2707   */\n      dup2\n        /* \"#utility.yul\":2702:2711   */\n      add\n        /* \"#utility.yul\":2697:2711   */\n      swap1\n      pop\n        /* \"#utility.yul\":2662:2946   */\n      jump(tag_455)\n    tag_457:\n        /* \"#utility.yul\":2666:2680   */\n      pop\n        /* \"#utility.yul\":2962:2965   */\n      dup6\n        /* \"#utility.yul\":2955:2965   */\n      swap4\n      pop\n        /* \"#utility.yul\":2373:2971   */\n      pop\n      pop\n      pop\n        /* \"#utility.yul\":2259:2971   */\n      swap3\n      swap2\n      pop\n      pop\n      jump\t// out\n        /* \"#utility.yul\":2977:3067   */\n    tag_360:\n        /* \"#utility.yul\":3011:3018   */\n      0x00\n        /* \"#utility.yul\":3054:3059   */\n      dup2\n        /* \"#utility.yul\":3047:3060   */\n      iszero\n        /* \"#utility.yul\":3040:3061   */\n      iszero\n        /* \"#utility.yul\":3029:3061   */\n      swap1\n      pop\n        /* \"#utility.yul\":2977:3067   */\n      swap2\n      swap1\n      pop\n      jump\t// out\n        /* \"#utility.yul\":3073:3172   */\n    tag_361:\n        /* \"#utility.yul\":3144:3165   */\n      tag_462\n        /* \"#utility.yul\":3159:3164   */\n      dup2\n        /* \"#utility.yul\":3144:3165   */\n      tag_360\n      jump\t// in\n    tag_462:\n        /* \"#utility.yul\":3139:3142   */\n      dup3\n        /* \"#utility.yul\":3132:3166   */\n      mstore\n        /* \"#utility.yul\":3073:3172   */\n      pop\n      pop\n      jump\t// out\n        /* \"#utility.yul\":3242:5070   */\n    tag_362:\n        /* \"#utility.yul\":3369:3372   */\n      0x00\n        /* \"#utility.yul\":3405:3411   */\n      0x0100\n        /* \"#utility.yul\":3400:3403   */\n      dup4\n        /* \"#utility.yul\":3396:3412   */\n      add\n        /* \"#utility.yul\":3492:3496   */\n      0x00\n        /* \"#utility.yul\":3485:3490   */\n      dup4\n        /* \"#utility.yul\":3481:3497   */\n      add\n        /* \"#utility.yul\":3475:3498   */\n      mload\n        /* \"#utility.yul\":3511:3574   */\n      tag_464\n        /* \"#utility.yul\":3568:3572   */\n      0x00\n        /* \"#utility.yul\":3563:3566   */\n      dup7\n        /* \"#utility.yul\":3559:3573   */\n      add\n        /* \"#utility.yul\":3545:3557   */\n      dup3\n        /* \"#utility.yul\":3511:3574   */\n      tag_352\n      jump\t// in\n    tag_464:\n        /* \"#utility.yul\":3422:3584   */\n      pop\n        /* \"#utility.yul\":3668:3672   */\n      0x20\n        /* \"#utility.yul\":3661:3666   */\n      dup4\n        /* \"#utility.yul\":3657:3673   */\n      add\n        /* \"#utility.yul\":3651:3674   */\n      mload\n        /* \"#utility.yul\":3687:3750   */\n      tag_465\n        /* \"#utility.yul\":3744:3748   */\n      0x20\n        /* \"#utility.yul\":3739:3742   */\n      dup7\n        /* \"#utility.yul\":3735:3749   */\n      add\n        /* \"#utility.yul\":3721:3733   */\n      dup3\n        /* \"#utility.yul\":3687:3750   */\n      tag_353\n      jump\t// in\n    tag_465:\n        /* \"#utility.yul\":3594:3760   */\n      pop\n        /* \"#utility.yul\":3847:3851   */\n      0x40\n        /* \"#utility.yul\":3840:3845   */\n      dup4\n        /* \"#utility.yul\":3836:3852   */\n      add\n        /* \"#utility.yul\":3830:3853   */\n      mload\n        /* \"#utility.yul\":3900:3903   */\n      dup5\n        /* \"#utility.yul\":3894:3898   */\n      dup3\n        /* \"#utility.yul\":3890:3904   */\n      sub\n        /* \"#utility.yul\":3883:3887   */\n      0x40\n        /* \"#utility.yul\":3878:3881   */\n      dup7\n        /* \"#utility.yul\":3874:3888   */\n      add\n        /* \"#utility.yul\":3867:3905   */\n      mstore\n        /* \"#utility.yul\":3926:4029   */\n      tag_466\n        /* \"#utility.yul\":4024:4028   */\n      dup3\n        /* \"#utility.yul\":4010:4022   */\n      dup3\n        /* \"#utility.yul\":3926:4029   */\n      tag_359\n      jump\t// in\n    tag_466:\n        /* \"#utility.yul\":3918:4029   */\n      swap2\n      pop\n        /* \"#utility.yul\":3770:4040   */\n      pop\n        /* \"#utility.yul\":4130:4134   */\n      0x60\n        /* \"#utility.yul\":4123:4128   */\n      dup4\n        /* \"#utility.yul\":4119:4135   */\n      add\n        /* \"#utility.yul\":4113:4136   */\n      mload\n        /* \"#utility.yul\":4183:4186   */\n      dup5\n        /* \"#utility.yul\":4177:4181   */\n      dup3\n        /* \"#utility.yul\":4173:4187   */\n      sub\n        /* \"#utility.yul\":4166:4170   */\n      0x60\n        /* \"#utility.yul\":4161:4164   */\n      dup7\n        /* \"#utility.yul\":4157:4171   */\n      add\n        /* \"#utility.yul\":4150:4188   */\n      mstore\n        /* \"#utility.yul\":4209:4312   */\n      tag_467\n        /* \"#utility.yul\":4307:4311   */\n      dup3\n        /* \"#utility.yul\":4293:4305   */\n      dup3\n        /* \"#utility.yul\":4209:4312   */\n      tag_359\n      jump\t// in\n    tag_467:\n        /* \"#utility.yul\":4201:4312   */\n      swap2\n      pop\n        /* \"#utility.yul\":4050:4323   */\n      pop\n        /* \"#utility.yul\":4409:4413   */\n      0x80\n        /* \"#utility.yul\":4402:4407   */\n      dup4\n        /* \"#utility.yul\":4398:4414   */\n      add\n        /* \"#utility.yul\":4392:4415   */\n      mload\n        /* \"#utility.yul\":4428:4485   */\n      tag_468\n        /* \"#utility.yul\":4479:4483   */\n      0x80\n        /* \"#utility.yul\":4474:4477   */\n      dup7\n        /* \"#utility.yul\":4470:4484   */\n      add\n        /* \"#utility.yul\":4456:4468   */\n      dup3\n        /* \"#utility.yul\":4428:4485   */\n      tag_361\n      jump\t// in\n    tag_468:\n        /* \"#utility.yul\":4333:4495   */\n      pop\n        /* \"#utility.yul\":4582:4586   */\n      0xa0\n        /* \"#utility.yul\":4575:4580   */\n      dup4\n        /* \"#utility.yul\":4571:4587   */\n      add\n        /* \"#utility.yul\":4565:4588   */\n      mload\n        /* \"#utility.yul\":4601:4664   */\n      tag_469\n        /* \"#utility.yul\":4658:4662   */\n      0xa0\n        /* \"#utility.yul\":4653:4656   */\n      dup7\n        /* \"#utility.yul\":4649:4663   */\n      add\n        /* \"#utility.yul\":4635:4647   */\n      dup3\n        /* \"#utility.yul\":4601:4664   */\n      tag_353\n      jump\t// in\n    tag_469:\n        /* \"#utility.yul\":4505:4674   */\n      pop\n        /* \"#utility.yul\":4765:4769   */\n      0xc0\n        /* \"#utility.yul\":4758:4763   */\n      dup4\n        /* \"#utility.yul\":4754:4770   */\n      add\n        /* \"#utility.yul\":4748:4771   */\n      mload\n        /* \"#utility.yul\":4784:4847   */\n      tag_470\n        /* \"#utility.yul\":4841:4845   */\n      0xc0\n        /* \"#utility.yul\":4836:4839   */\n      dup7\n        /* \"#utility.yul\":4832:4846   */\n      add\n        /* \"#utility.yul\":4818:4830   */\n      dup3\n        /* \"#utility.yul\":4784:4847   */\n      tag_353\n      jump\t// in\n    tag_470:\n        /* \"#utility.yul\":4684:4857   */\n      pop\n        /* \"#utility.yul\":4951:4955   */\n      0xe0\n        /* \"#utility.yul\":4944:4949   */\n      dup4\n        /* \"#utility.yul\":4940:4956   */\n      add\n        /* \"#utility.yul\":4934:4957   */\n      mload\n        /* \"#utility.yul\":4970:5033   */\n      tag_471\n        /* \"#utility.yul\":5027:5031   */\n      0xe0\n        /* \"#utility.yul\":5022:5025   */\n      dup7\n        /* \"#utility.yul\":5018:5032   */\n      add\n        /* \"#utility.yul\":5004:5016   */\n      dup3\n        /* \"#utility.yul\":4970:5033   */\n      tag_353\n      jump\t// in\n    tag_471:\n        /* \"#utility.yul\":4867:5043   */\n      pop\n        /* \"#utility.yul\":5060:5064   */\n      dup1\n        /* \"#utility.yul\":5053:5064   */\n      swap2\n      pop\n        /* \"#utility.yul\":3374:5070   */\n      pop\n        /* \"#utility.yul\":3242:5070   */\n      swap3\n      swap2\n      pop\n      pop\n      jump\t// out\n        /* \"#utility.yul\":5076:5465   */\n    tag_28:\n        /* \"#utility.yul\":5227:5231   */\n      0x00\n        /* \"#utility.yul\":5265:5267   */\n      0x20\n        /* \"#utility.yul\":5254:5263   */\n      dup3\n        /* \"#utility.yul\":5250:5268   */\n      add\n        /* \"#utility.yul\":5242:5268   */\n      swap1\n      pop\n        /* \"#utility.yul\":5314:5323   */\n      dup2\n        /* \"#utility.yul\":5308:5312   */\n      dup2\n        /* \"#utility.yul\":5304:5324   */\n      sub\n        /* \"#utility.yul\":5300:5301   */\n      0x00\n        /* \"#utility.yul\":5289:5298   */\n      dup4\n        /* \"#utility.yul\":5285:5302   */\n      add\n        /* \"#utility.yul\":5278:5325   */\n      mstore\n        /* \"#utility.yul\":5342:5458   */\n      tag_473\n        /* \"#utility.yul\":5453:5457   */\n      dup2\n        /* \"#utility.yul\":5444:5450   */\n      dup5\n        /* \"#utility.yul\":5342:5458   */\n      tag_362\n      jump\t// in\n    tag_473:\n        /* \"#utility.yul\":5334:5458   */\n      swap1\n      pop\n        /* \"#utility.yul\":5076:5465   */\n      swap3\n      swap2\n      pop\n      pop\n      jump\t// out\n        /* \"#utility.yul\":5471:5593   */\n    tag_363:\n        /* \"#utility.yul\":5544:5568   */\n      tag_475\n        /* \"#utility.yul\":5562:5567   */\n      dup2\n        /* \"#utility.yul\":5544:5568   */\n      tag_351\n      jump\t// in\n    tag_475:\n        /* \"#utility.yul\":5537:5542   */\n      dup2\n        /* \"#utility.yul\":5534:5569   */\n      eq\n        /* \"#utility.yul\":5524:5587   */\n      tag_476\n      jumpi\n        /* \"#utility.yul\":5583:5584   */\n      0x00\n        /* \"#utility.yul\":5580:5581   */\n      dup1\n        /* \"#utility.yul\":5573:5585   */\n      revert\n        /* \"#utility.yul\":5524:5587   */\n    tag_476:\n        /* \"#utility.yul\":5471:5593   */\n      pop\n      jump\t// out\n        /* \"#utility.yul\":5599:5738   */\n    tag_364:\n        /* \"#utility.yul\":5645:5650   */\n      0x00\n        /* \"#utility.yul\":5683:5689   */\n      dup2\n        /* \"#utility.yul\":5670:5690   */\n      calldataload\n        /* \"#utility.yul\":5661:5690   */\n      swap1\n      pop\n        /* \"#utility.yul\":5699:5732   */\n      tag_478\n        /* \"#utility.yul\":5726:5731   */\n      dup2\n        /* \"#utility.yul\":5699:5732   */\n      tag_363\n      jump\t// in\n    tag_478:\n        /* \"#utility.yul\":5599:5738   */\n      swap3\n      swap2\n      pop\n      pop\n      jump\t// out\n        /* \"#utility.yul\":5744:6218   */\n    tag_32:\n        /* \"#utility.yul\":5812:5818   */\n      0x00\n        /* \"#utility.yul\":5820:5826   */\n      dup1\n        /* \"#utility.yul\":5869:5871   */\n      0x40\n        /* \"#utility.yul\":5857:5866   */\n      dup4\n        /* \"#utility.yul\":5848:5855   */\n      dup6\n        /* \"#utility.yul\":5844:5867   */\n      sub\n        /* \"#utility.yul\":5840:5872   */\n      slt\n        /* \"#utility.yul\":5837:5956   */\n      iszero\n      tag_480\n      jumpi\n        /* \"#utility.yul\":5875:5954   */\n      tag_481\n      tag_345\n      jump\t// in\n    tag_481:\n        /* \"#utility.yul\":5837:5956   */\n    tag_480:\n        /* \"#utility.yul\":5995:5996   */\n      0x00\n        /* \"#utility.yul\":6020:6073   */\n      tag_482\n        /* \"#utility.yul\":6065:6072   */\n      dup6\n        /* \"#utility.yul\":6056:6062   */\n      dup3\n        /* \"#utility.yul\":6045:6054   */\n      dup7\n        /* \"#utility.yul\":6041:6063   */\n      add\n        /* \"#utility.yul\":6020:6073   */\n      tag_364\n      jump\t// in\n    tag_482:\n        /* \"#utility.yul\":6010:6073   */\n      swap3\n      pop\n        /* \"#utility.yul\":5966:6083   */\n      pop\n        /* \"#utility.yul\":6122:6124   */\n      0x20\n        /* \"#utility.yul\":6148:6201   */\n      tag_483\n        /* \"#utility.yul\":6193:6200   */\n      dup6\n        /* \"#utility.yul\":6184:6190   */\n      dup3\n        /* \"#utility.yul\":6173:6182   */\n      dup7\n        /* \"#utility.yul\":6169:6191   */\n      add\n        /* \"#utility.yul\":6148:6201   */\n      tag_349\n      jump\t// in\n    tag_483:\n        /* \"#utility.yul\":6138:6201   */\n      swap2\n      pop\n        /* \"#utility.yul\":6093:6211   */\n      pop\n        /* \"#utility.yul\":5744:6218   */\n      swap3\n      pop\n      swap3\n      swap1\n      pop\n      jump\t// out\n        /* \"#utility.yul\":6224:6342   */\n    tag_365:\n        /* \"#utility.yul\":6311:6335   */\n      tag_485\n        /* \"#utility.yul\":6329:6334   */\n      dup2\n        /* \"#utility.yul\":6311:6335   */\n      tag_347\n      jump\t// in\n    tag_485:\n        /* \"#utility.yul\":6306:6309   */\n      dup3\n        /* \"#utility.yul\":6299:6336   */\n      mstore\n        /* \"#utility.yul\":6224:6342   */\n      pop\n      pop\n      jump\t// out\n        /* \"#utility.yul\":6348:6570   */\n    tag_35:\n        /* \"#utility.yul\":6441:6445   */\n      0x00\n        /* \"#utility.yul\":6479:6481   */\n      0x20\n        /* \"#utility.yul\":6468:6477   */\n      dup3\n        /* \"#utility.yul\":6464:6482   */\n      add\n        /* \"#utility.yul\":6456:6482   */\n      swap1\n      pop\n        /* \"#utility.yul\":6492:6563   */\n      tag_487\n        /* \"#utility.yul\":6560:6561   */\n      0x00\n        /* \"#utility.yul\":6549:6558   */\n      dup4\n        /* \"#utility.yul\":6545:6562   */\n      add\n        /* \"#utility.yul\":6536:6542   */\n      dup5\n        /* \"#utility.yul\":6492:6563   */\n      tag_365\n      jump\t// in\n    tag_487:\n        /* \"#utility.yul\":6348:6570   */\n      swap3\n      swap2\n      pop\n      pop\n      jump\t// out\n        /* \"#utility.yul\":6576:6719   */\n    tag_366:\n        /* \"#utility.yul\":6672:6678   */\n      0x00\n        /* \"#utility.yul\":6706:6711   */\n      dup2\n        /* \"#utility.yul\":6700:6712   */\n      mload\n        /* \"#utility.yul\":6690:6712   */\n      swap1\n      pop\n        /* \"#utility.yul\":6576:6719   */\n      swap2\n      swap1\n      pop\n      jump\t// out\n        /* \"#utility.yul\":6725:6938   */\n    tag_367:\n        /* \"#utility.yul\":6853:6864   */\n      0x00\n        /* \"#utility.yul\":6887:6893   */\n      dup3\n        /* \"#utility.yul\":6882:6885   */\n      dup3\n        /* \"#utility.yul\":6875:6894   */\n      mstore\n        /* \"#utility.yul\":6927:6931   */\n      0x20\n        /* \"#utility.yul\":6922:6925   */\n      dup3\n        /* \"#utility.yul\":6918:6932   */\n      add\n        /* \"#utility.yul\":6903:6932   */\n      swap1\n      pop\n        /* \"#utility.yul\":6725:6938   */\n      swap3\n      swap2\n      pop\n      pop\n      jump\t// out\n        /* \"#utility.yul\":6944:7105   */\n    tag_368:\n        /* \"#utility.yul\":7040:7044   */\n      0x00\n        /* \"#utility.yul\":7063:7066   */\n      dup2\n        /* \"#utility.yul\":7055:7066   */\n      swap1\n      pop\n        /* \"#utility.yul\":7093:7097   */\n      0x20\n        /* \"#utility.yul\":7088:7091   */\n      dup3\n        /* \"#utility.yul\":7084:7098   */\n      add\n        /* \"#utility.yul\":7076:7098   */\n      swap1\n      pop\n        /* \"#utility.yul\":6944:7105   */\n      swap2\n      swap1\n      pop\n      jump\t// out\n        /* \"#utility.yul\":7175:8993   */\n    tag_369:\n        /* \"#utility.yul\":7292:7295   */\n      0x00\n        /* \"#utility.yul\":7328:7334   */\n      0x0100\n        /* \"#utility.yul\":7323:7326   */\n      dup4\n        /* \"#utility.yul\":7319:7335   */\n      add\n        /* \"#utility.yul\":7415:7419   */\n      0x00\n        /* \"#utility.yul\":7408:7413   */\n      dup4\n        /* \"#utility.yul\":7404:7420   */\n      add\n        /* \"#utility.yul\":7398:7421   */\n      mload\n        /* \"#utility.yul\":7434:7497   */\n      tag_492\n        /* \"#utility.yul\":7491:7495   */\n      0x00\n        /* \"#utility.yul\":7486:7489   */\n      dup7\n        /* \"#utility.yul\":7482:7496   */\n      add\n        /* \"#utility.yul\":7468:7480   */\n      dup3\n        /* \"#utility.yul\":7434:7497   */\n      tag_352\n      jump\t// in\n    tag_492:\n        /* \"#utility.yul\":7345:7507   */\n      pop\n        /* \"#utility.yul\":7591:7595   */\n      0x20\n        /* \"#utility.yul\":7584:7589   */\n      dup4\n        /* \"#utility.yul\":7580:7596   */\n      add\n        /* \"#utility.yul\":7574:7597   */\n      mload\n        /* \"#utility.yul\":7610:7673   */\n      tag_493\n        /* \"#utility.yul\":7667:7671   */\n      0x20\n        /* \"#utility.yul\":7662:7665   */\n      dup7\n        /* \"#utility.yul\":7658:7672   */\n      add\n        /* \"#utility.yul\":7644:7656   */\n      dup3\n        /* \"#utility.yul\":7610:7673   */\n      tag_353\n      jump\t// in\n    tag_493:\n        /* \"#utility.yul\":7517:7683   */\n      pop\n        /* \"#utility.yul\":7770:7774   */\n      0x40\n        /* \"#utility.yul\":7763:7768   */\n      dup4\n        /* \"#utility.yul\":7759:7775   */\n      add\n        /* \"#utility.yul\":7753:7776   */\n      mload\n        /* \"#utility.yul\":7823:7826   */\n      dup5\n        /* \"#utility.yul\":7817:7821   */\n      dup3\n        /* \"#utility.yul\":7813:7827   */\n      sub\n        /* \"#utility.yul\":7806:7810   */\n      0x40\n        /* \"#utility.yul\":7801:7804   */\n      dup7\n        /* \"#utility.yul\":7797:7811   */\n      add\n        /* \"#utility.yul\":7790:7828   */\n      mstore\n        /* \"#utility.yul\":7849:7952   */\n      tag_494\n        /* \"#utility.yul\":7947:7951   */\n      dup3\n        /* \"#utility.yul\":7933:7945   */\n      dup3\n        /* \"#utility.yul\":7849:7952   */\n      tag_359\n      jump\t// in\n    tag_494:\n        /* \"#utility.yul\":7841:7952   */\n      swap2\n      pop\n        /* \"#utility.yul\":7693:7963   */\n      pop\n        /* \"#utility.yul\":8053:8057   */\n      0x60\n        /* \"#utility.yul\":8046:8051   */\n      dup4\n        /* \"#utility.yul\":8042:8058   */\n      add\n        /* \"#utility.yul\":8036:8059   */\n      mload\n        /* \"#utility.yul\":8106:8109   */\n      dup5\n        /* \"#utility.yul\":8100:8104   */\n      dup3\n        /* \"#utility.yul\":8096:8110   */\n      sub\n        /* \"#utility.yul\":8089:8093   */\n      0x60\n        /* \"#utility.yul\":8084:8087   */\n      dup7\n        /* \"#utility.yul\":8080:8094   */\n      add\n        /* \"#utility.yul\":8073:8111   */\n      mstore\n        /* \"#utility.yul\":8132:8235   */\n      tag_495\n        /* \"#utility.yul\":8230:8234   */\n      dup3\n        /* \"#utility.yul\":8216:8228   */\n      dup3\n        /* \"#utility.yul\":8132:8235   */\n      tag_359\n      jump\t// in\n    tag_495:\n        /* \"#utility.yul\":8124:8235   */\n      swap2\n      pop\n        /* \"#utility.yul\":7973:8246   */\n      pop\n        /* \"#utility.yul\":8332:8336   */\n      0x80\n        /* \"#utility.yul\":8325:8330   */\n      dup4\n        /* \"#utility.yul\":8321:8337   */\n      add\n        /* \"#utility.yul\":8315:8338   */\n      mload\n        /* \"#utility.yul\":8351:8408   */\n      tag_496\n        /* \"#utility.yul\":8402:8406   */\n      0x80\n        /* \"#utility.yul\":8397:8400   */\n      dup7\n        /* \"#utility.yul\":8393:8407   */\n      add\n        /* \"#utility.yul\":8379:8391   */\n      dup3\n        /* \"#utility.yul\":8351:8408   */\n      tag_361\n      jump\t// in\n    tag_496:\n        /* \"#utility.yul\":8256:8418   */\n      pop\n        /* \"#utility.yul\":8505:8509   */\n      0xa0\n        /* \"#utility.yul\":8498:8503   */\n      dup4\n        /* \"#utility.yul\":8494:8510   */\n      add\n        /* \"#utility.yul\":8488:8511   */\n      mload\n        /* \"#utility.yul\":8524:8587   */\n      tag_497\n        /* \"#utility.yul\":8581:8585   */\n      0xa0\n        /* \"#utility.yul\":8576:8579   */\n      dup7\n        /* \"#utility.yul\":8572:8586   */\n      add\n        /* \"#utility.yul\":8558:8570   */\n      dup3\n        /* \"#utility.yul\":8524:8587   */\n      tag_353\n      jump\t// in\n    tag_497:\n        /* \"#utility.yul\":8428:8597   */\n      pop\n        /* \"#utility.yul\":8688:8692   */\n      0xc0\n        /* \"#utility.yul\":8681:8686   */\n      dup4\n        /* \"#utility.yul\":8677:8693   */\n      add\n        /* \"#utility.yul\":8671:8694   */\n      mload\n        /* \"#utility.yul\":8707:8770   */\n      tag_498\n        /* \"#utility.yul\":8764:8768   */\n      0xc0\n        /* \"#utility.yul\":8759:8762   */\n      dup7\n        /* \"#utility.yul\":8755:8769   */\n      add\n        /* \"#utility.yul\":8741:8753   */\n      dup3\n        /* \"#utility.yul\":8707:8770   */\n      tag_353\n      jump\t// in\n    tag_498:\n        /* \"#utility.yul\":8607:8780   */\n      pop\n        /* \"#utility.yul\":8874:8878   */\n      0xe0\n        /* \"#utility.yul\":8867:8872   */\n      dup4\n        /* \"#utility.yul\":8863:8879   */\n      add\n        /* \"#utility.yul\":8857:8880   */\n      mload\n        /* \"#utility.yul\":8893:8956   */\n      tag_499\n        /* \"#utility.yul\":8950:8954   */\n      0xe0\n        /* \"#utility.yul\":8945:8948   */\n      dup7\n        /* \"#utility.yul\":8941:8955   */\n      add\n        /* \"#utility.yul\":8927:8939   */\n      dup3\n        /* \"#utility.yul\":8893:8956   */\n      tag_353\n      jump\t// in\n    tag_499:\n        /* \"#utility.yul\":8790:8966   */\n      pop\n        /* \"#utility.yul\":8983:8987   */\n      dup1\n        /* \"#utility.yul\":8976:8987   */\n      swap2\n      pop\n        /* \"#utility.yul\":7297:8993   */\n      pop\n        /* \"#utility.yul\":7175:8993   */\n      swap3\n      swap2\n      pop\n      pop\n      jump\t// out\n        /* \"#utility.yul\":8999:9271   */\n    tag_370:\n        /* \"#utility.yul\":9126:9136   */\n      0x00\n        /* \"#utility.yul\":9161:9265   */\n      tag_501\n        /* \"#utility.yul\":9261:9264   */\n      dup4\n        /* \"#utility.yul\":9253:9259   */\n      dup4\n        /* \"#utility.yul\":9161:9265   */\n      tag_369\n      jump\t// in\n    tag_501:\n        /* \"#utility.yul\":9147:9265   */\n      swap1\n      pop\n        /* \"#utility.yul\":8999:9271   */\n      swap3\n      swap2\n      pop\n      pop\n      jump\t// out\n        /* \"#utility.yul\":9277:9419   */\n    tag_371:\n        /* \"#utility.yul\":9376:9380   */\n      0x00\n        /* \"#utility.yul\":9408:9412   */\n      0x20\n        /* \"#utility.yul\":9403:9406   */\n      dup3\n        /* \"#utility.yul\":9399:9413   */\n      add\n        /* \"#utility.yul\":9391:9413   */\n      swap1\n      pop\n        /* \"#utility.yul\":9277:9419   */\n      swap2\n      swap1\n      pop\n      jump\t// out\n        /* \"#utility.yul\":9493:10636   */\n    tag_372:\n        /* \"#utility.yul\":9670:9673   */\n      0x00\n        /* \"#utility.yul\":9699:9782   */\n      tag_504\n        /* \"#utility.yul\":9776:9781   */\n      dup3\n        /* \"#utility.yul\":9699:9782   */\n      tag_366\n      jump\t// in\n    tag_504:\n        /* \"#utility.yul\":9798:9913   */\n      tag_505\n        /* \"#utility.yul\":9906:9912   */\n      dup2\n        /* \"#utility.yul\":9901:9904   */\n      dup6\n        /* \"#utility.yul\":9798:9913   */\n      tag_367\n      jump\t// in\n    tag_505:\n        /* \"#utility.yul\":9791:9913   */\n      swap4\n      pop\n        /* \"#utility.yul\":9939:9942   */\n      dup4\n        /* \"#utility.yul\":9984:9988   */\n      0x20\n        /* \"#utility.yul\":9976:9982   */\n      dup3\n        /* \"#utility.yul\":9972:9989   */\n      mul\n        /* \"#utility.yul\":9967:9970   */\n      dup6\n        /* \"#utility.yul\":9963:9990   */\n      add\n        /* \"#utility.yul\":10014:10099   */\n      tag_506\n        /* \"#utility.yul\":10093:10098   */\n      dup6\n        /* \"#utility.yul\":10014:10099   */\n      tag_368\n      jump\t// in\n    tag_506:\n        /* \"#utility.yul\":10122:10129   */\n      dup1\n        /* \"#utility.yul\":10153:10154   */\n      0x00\n        /* \"#utility.yul\":10138:10591   */\n    tag_507:\n        /* \"#utility.yul\":10163:10169   */\n      dup6\n        /* \"#utility.yul\":10160:10161   */\n      dup2\n        /* \"#utility.yul\":10157:10170   */\n      lt\n        /* \"#utility.yul\":10138:10591   */\n      iszero\n      tag_509\n      jumpi\n        /* \"#utility.yul\":10234:10243   */\n      dup5\n        /* \"#utility.yul\":10228:10232   */\n      dup5\n        /* \"#utility.yul\":10224:10244   */\n      sub\n        /* \"#utility.yul\":10219:10222   */\n      dup10\n        /* \"#utility.yul\":10212:10245   */\n      mstore\n        /* \"#utility.yul\":10285:10291   */\n      dup2\n        /* \"#utility.yul\":10279:10292   */\n      mload\n        /* \"#utility.yul\":10313:10435   */\n      tag_510\n        /* \"#utility.yul\":10430:10434   */\n      dup6\n        /* \"#utility.yul\":10415:10428   */\n      dup3\n        /* \"#utility.yul\":10313:10435   */\n      tag_370\n      jump\t// in\n    tag_510:\n        /* \"#utility.yul\":10305:10435   */\n      swap5\n      pop\n        /* \"#utility.yul\":10458:10547   */\n      tag_511\n        /* \"#utility.yul\":10540:10546   */\n      dup4\n        /* \"#utility.yul\":10458:10547   */\n      tag_371\n      jump\t// in\n    tag_511:\n        /* \"#utility.yul\":10448:10547   */\n      swap3\n      pop\n        /* \"#utility.yul\":10576:10580   */\n      0x20\n        /* \"#utility.yul\":10571:10574   */\n      dup11\n        /* \"#utility.yul\":10567:10581   */\n      add\n        /* \"#utility.yul\":10560:10581   */\n      swap10\n      pop\n        /* \"#utility.yul\":10198:10591   */\n      pop\n        /* \"#utility.yul\":10185:10186   */\n      0x01\n        /* \"#utility.yul\":10182:10183   */\n      dup2\n        /* \"#utility.yul\":10178:10187   */\n      add\n        /* \"#utility.yul\":10173:10187   */\n      swap1\n      pop\n        /* \"#utility.yul\":10138:10591   */\n      jump(tag_507)\n    tag_509:\n        /* \"#utility.yul\":10142:10156   */\n      pop\n        /* \"#utility.yul\":10607:10611   */\n      dup3\n        /* \"#utility.yul\":10600:10611   */\n      swap8\n      pop\n        /* \"#utility.yul\":10627:10630   */\n      dup8\n        /* \"#utility.yul\":10620:10630   */\n      swap6\n      pop\n        /* \"#utility.yul\":9675:10636   */\n      pop\n      pop\n      pop\n      pop\n      pop\n        /* \"#utility.yul\":9493:10636   */\n      swap3\n      swap2\n      pop\n      pop\n      jump\t// out\n        /* \"#utility.yul\":10642:11131   */\n    tag_44:\n        /* \"#utility.yul\":10843:10847   */\n      0x00\n        /* \"#utility.yul\":10881:10883   */\n      0x20\n        /* \"#utility.yul\":10870:10879   */\n      dup3\n        /* \"#utility.yul\":10866:10884   */\n      add\n        /* \"#utility.yul\":10858:10884   */\n      swap1\n      pop\n        /* \"#utility.yul\":10930:10939   */\n      dup2\n        /* \"#utility.yul\":10924:10928   */\n      dup2\n        /* \"#utility.yul\":10920:10940   */\n      sub\n        /* \"#utility.yul\":10916:10917   */\n      0x00\n        /* \"#utility.yul\":10905:10914   */\n      dup4\n        /* \"#utility.yul\":10901:10918   */\n      add\n        /* \"#utility.yul\":10894:10941   */\n      mstore\n        /* \"#utility.yul\":10958:11124   */\n      tag_513\n        /* \"#utility.yul\":11119:11123   */\n      dup2\n        /* \"#utility.yul\":11110:11116   */\n      dup5\n        /* \"#utility.yul\":10958:11124   */\n      tag_372\n      jump\t// in\n    tag_513:\n        /* \"#utility.yul\":10950:11124   */\n      swap1\n      pop\n        /* \"#utility.yul\":10642:11131   */\n      swap3\n      swap2\n      pop\n      pop\n      jump\t// out\n        /* \"#utility.yul\":11137:11321   */\n    tag_373:\n        /* \"#utility.yul\":11236:11247   */\n      0x00\n        /* \"#utility.yul\":11270:11276   */\n      dup3\n        /* \"#utility.yul\":11265:11268   */\n      dup3\n        /* \"#utility.yul\":11258:11277   */\n      mstore\n        /* \"#utility.yul\":11310:11314   */\n      0x20\n        /* \"#utility.yul\":11305:11308   */\n      dup3\n        /* \"#utility.yul\":11301:11315   */\n      add\n        /* \"#utility.yul\":11286:11315   */\n      swap1\n      pop\n        /* \"#utility.yul\":11137:11321   */\n      swap3\n      swap2\n      pop\n      pop\n      jump\t// out\n        /* \"#utility.yul\":11357:12089   */\n    tag_374:\n        /* \"#utility.yul\":11476:11479   */\n      0x00\n        /* \"#utility.yul\":11505:11559   */\n      tag_516\n        /* \"#utility.yul\":11553:11558   */\n      dup3\n        /* \"#utility.yul\":11505:11559   */\n      tag_354\n      jump\t// in\n    tag_516:\n        /* \"#utility.yul\":11575:11661   */\n      tag_517\n        /* \"#utility.yul\":11654:11660   */\n      dup2\n        /* \"#utility.yul\":11649:11652   */\n      dup6\n        /* \"#utility.yul\":11575:11661   */\n      tag_373\n      jump\t// in\n    tag_517:\n        /* \"#utility.yul\":11568:11661   */\n      swap4\n      pop\n        /* \"#utility.yul\":11685:11741   */\n      tag_518\n        /* \"#utility.yul\":11735:11740   */\n      dup4\n        /* \"#utility.yul\":11685:11741   */\n      tag_356\n      jump\t// in\n    tag_518:\n        /* \"#utility.yul\":11764:11771   */\n      dup1\n        /* \"#utility.yul\":11795:11796   */\n      0x00\n        /* \"#utility.yul\":11780:12064   */\n    tag_519:\n        /* \"#utility.yul\":11805:11811   */\n      dup4\n        /* \"#utility.yul\":11802:11803   */\n      dup2\n        /* \"#utility.yul\":11799:11812   */\n      lt\n        /* \"#utility.yul\":11780:12064   */\n      iszero\n      tag_521\n      jumpi\n        /* \"#utility.yul\":11881:11887   */\n      dup2\n        /* \"#utility.yul\":11875:11888   */\n      mload\n        /* \"#utility.yul\":11908:11971   */\n      tag_522\n        /* \"#utility.yul\":11967:11970   */\n      dup9\n        /* \"#utility.yul\":11952:11965   */\n      dup3\n        /* \"#utility.yul\":11908:11971   */\n      tag_357\n      jump\t// in\n    tag_522:\n        /* \"#utility.yul\":11901:11971   */\n      swap8\n      pop\n        /* \"#utility.yul\":11994:12054   */\n      tag_523\n        /* \"#utility.yul\":12047:12053   */\n      dup4\n        /* \"#utility.yul\":11994:12054   */\n      tag_358\n      jump\t// in\n    tag_523:\n        /* \"#utility.yul\":11984:12054   */\n      swap3\n      pop\n        /* \"#utility.yul\":11840:12064   */\n      pop\n        /* \"#utility.yul\":11827:11828   */\n      0x01\n        /* \"#utility.yul\":11824:11825   */\n      dup2\n        /* \"#utility.yul\":11820:11829   */\n      add\n        /* \"#utility.yul\":11815:11829   */\n      swap1\n      pop\n        /* \"#utility.yul\":11780:12064   */\n      jump(tag_519)\n    tag_521:\n        /* \"#utility.yul\":11784:11798   */\n      pop\n        /* \"#utility.yul\":12080:12083   */\n      dup6\n        /* \"#utility.yul\":12073:12083   */\n      swap4\n      pop\n        /* \"#utility.yul\":11481:12089   */\n      pop\n      pop\n      pop\n        /* \"#utility.yul\":11357:12089   */\n      swap3\n      swap2\n      pop\n      pop\n      jump\t// out\n        /* \"#utility.yul\":12095:12468   */\n    tag_49:\n        /* \"#utility.yul\":12238:12242   */\n      0x00\n        /* \"#utility.yul\":12276:12278   */\n      0x20\n        /* \"#utility.yul\":12265:12274   */\n      dup3\n        /* \"#utility.yul\":12261:12279   */\n      add\n        /* \"#utility.yul\":12253:12279   */\n      swap1\n      pop\n        /* \"#utility.yul\":12325:12334   */\n      dup2\n        /* \"#utility.yul\":12319:12323   */\n      dup2\n        /* \"#utility.yul\":12315:12335   */\n      sub\n        /* \"#utility.yul\":12311:12312   */\n      0x00\n        /* \"#utility.yul\":12300:12309   */\n      dup4\n        /* \"#utility.yul\":12296:12313   */\n      add\n        /* \"#utility.yul\":12289:12336   */\n      mstore\n        /* \"#utility.yul\":12353:12461   */\n      tag_525\n        /* \"#utility.yul\":12456:12460   */\n      dup2\n        /* \"#utility.yul\":12447:12453   */\n      dup5\n        /* \"#utility.yul\":12353:12461   */\n      tag_374\n      jump\t// in\n    tag_525:\n        /* \"#utility.yul\":12345:12461   */\n      swap1\n      pop\n        /* \"#utility.yul\":12095:12468   */\n      swap3\n      swap2\n      pop\n      pop\n      jump\t// out\n        /* \"#utility.yul\":12474:12591   */\n    tag_375:\n        /* \"#utility.yul\":12583:12584   */\n      0x00\n        /* \"#utility.yul\":12580:12581   */\n      dup1\n        /* \"#utility.yul\":12573:12585   */\n      revert\n        /* \"#utility.yul\":12597:12714   */\n    tag_376:\n        /* \"#utility.yul\":12706:12707   */\n      0x00\n        /* \"#utility.yul\":12703:12704   */\n      dup1\n        /* \"#utility.yul\":12696:12708   */\n      revert\n        /* \"#utility.yul\":12720:12822   */\n    tag_377:\n        /* \"#utility.yul\":12761:12767   */\n      0x00\n        /* \"#utility.yul\":12812:12814   */\n      0x1f\n        /* \"#utility.yul\":12808:12815   */\n      not\n        /* \"#utility.yul\":12803:12805   */\n      0x1f\n        /* \"#utility.yul\":12796:12801   */\n      dup4\n        /* \"#utility.yul\":12792:12806   */\n      add\n        /* \"#utility.yul\":12788:12816   */\n      and\n        /* \"#utility.yul\":12778:12816   */\n      swap1\n      pop\n        /* \"#utility.yul\":12720:12822   */\n      swap2\n      swap1\n      pop\n      jump\t// out\n        /* \"#utility.yul\":12828:13008   */\n    tag_378:\n        /* \"#utility.yul\":12876:12953   */\n      0x4e487b7100000000000000000000000000000000000000000000000000000000\n        /* \"#utility.yul\":12873:12874   */\n      0x00\n        /* \"#utility.yul\":12866:12954   */\n      mstore\n        /* \"#utility.yul\":12973:12977   */\n      0x41\n        /* \"#utility.yul\":12970:12971   */\n      0x04\n        /* \"#utility.yul\":12963:12978   */\n      mstore\n        /* \"#utility.yul\":12997:13001   */\n      0x24\n        /* \"#utility.yul\":12994:12995   */\n      0x00\n        /* \"#utility.yul\":12987:13002   */\n      revert\n        /* \"#utility.yul\":13014:13295   */\n    tag_379:\n        /* \"#utility.yul\":13097:13124   */\n      tag_531\n        /* \"#utility.yul\":13119:13123   */\n      dup3\n        /* \"#utility.yul\":13097:13124   */\n      tag_377\n      jump\t// in\n    tag_531:\n        /* \"#utility.yul\":13089:13095   */\n      dup2\n        /* \"#utility.yul\":13085:13125   */\n      add\n        /* \"#utility.yul\":13227:13233   */\n      dup2\n        /* \"#utility.yul\":13215:13225   */\n      dup2\n        /* \"#utility.yul\":13212:13234   */\n      lt\n        /* \"#utility.yul\":13191:13209   */\n      0xffffffffffffffff\n        /* \"#utility.yul\":13179:13189   */\n      dup3\n        /* \"#utility.yul\":13176:13210   */\n      gt\n        /* \"#utility.yul\":13173:13235   */\n      or\n        /* \"#utility.yul\":13170:13258   */\n      iszero\n      tag_532\n      jumpi\n        /* \"#utility.yul\":13238:13256   */\n      tag_533\n      tag_378\n      jump\t// in\n    tag_533:\n        /* \"#utility.yul\":13170:13258   */\n    tag_532:\n        /* \"#utility.yul\":13278:13288   */\n      dup1\n        /* \"#utility.yul\":13274:13276   */\n      0x40\n        /* \"#utility.yul\":13267:13289   */\n      mstore\n        /* \"#utility.yul\":13057:13295   */\n      pop\n        /* \"#utility.yul\":13014:13295   */\n      pop\n      pop\n      jump\t// out\n        /* \"#utility.yul\":13301:13430   */\n    tag_380:\n        /* \"#utility.yul\":13335:13341   */\n      0x00\n        /* \"#utility.yul\":13362:13382   */\n      tag_535\n      tag_344\n      jump\t// in\n    tag_535:\n        /* \"#utility.yul\":13352:13382   */\n      swap1\n      pop\n        /* \"#utility.yul\":13391:13424   */\n      tag_536\n        /* \"#utility.yul\":13419:13423   */\n      dup3\n        /* \"#utility.yul\":13411:13417   */\n      dup3\n        /* \"#utility.yul\":13391:13424   */\n      tag_379\n      jump\t// in\n    tag_536:\n        /* \"#utility.yul\":13301:13430   */\n      swap2\n      swap1\n      pop\n      jump\t// out\n        /* \"#utility.yul\":13436:13743   */\n    tag_381:\n        /* \"#utility.yul\":13497:13501   */\n      0x00\n        /* \"#utility.yul\":13587:13605   */\n      0xffffffffffffffff\n        /* \"#utility.yul\":13579:13585   */\n      dup3\n        /* \"#utility.yul\":13576:13606   */\n      gt\n        /* \"#utility.yul\":13573:13629   */\n      iszero\n      tag_538\n      jumpi\n        /* \"#utility.yul\":13609:13627   */\n      tag_539\n      tag_378\n      jump\t// in\n    tag_539:\n        /* \"#utility.yul\":13573:13629   */\n    tag_538:\n        /* \"#utility.yul\":13647:13676   */\n      tag_540\n        /* \"#utility.yul\":13669:13675   */\n      dup3\n        /* \"#utility.yul\":13647:13676   */\n      tag_377\n      jump\t// in\n    tag_540:\n        /* \"#utility.yul\":13639:13676   */\n      swap1\n      pop\n        /* \"#utility.yul\":13731:13735   */\n      0x20\n        /* \"#utility.yul\":13725:13729   */\n      dup2\n        /* \"#utility.yul\":13721:13736   */\n      add\n        /* \"#utility.yul\":13713:13736   */\n      swap1\n      pop\n        /* \"#utility.yul\":13436:13743   */\n      swap2\n      swap1\n      pop\n      jump\t// out\n        /* \"#utility.yul\":13749:13897   */\n    tag_382:\n        /* \"#utility.yul\":13847:13853   */\n      dup3\n        /* \"#utility.yul\":13842:13845   */\n      dup2\n        /* \"#utility.yul\":13837:13840   */\n      dup4\n        /* \"#utility.yul\":13824:13854   */\n      calldatacopy\n        /* \"#utility.yul\":13888:13889   */\n      0x00\n        /* \"#utility.yul\":13879:13885   */\n      dup4\n        /* \"#utility.yul\":13874:13877   */\n      dup4\n        /* \"#utility.yul\":13870:13886   */\n      add\n        /* \"#utility.yul\":13863:13890   */\n      mstore\n        /* \"#utility.yul\":13749:13897   */\n      pop\n      pop\n      pop\n      jump\t// out\n        /* \"#utility.yul\":13903:14326   */\n    tag_383:\n        /* \"#utility.yul\":13980:13985   */\n      0x00\n        /* \"#utility.yul\":14005:14070   */\n      tag_543\n        /* \"#utility.yul\":14021:14069   */\n      tag_544\n        /* \"#utility.yul\":14062:14068   */\n      dup5\n        /* \"#utility.yul\":14021:14069   */\n      tag_381\n      jump\t// in\n    tag_544:\n        /* \"#utility.yul\":14005:14070   */\n      tag_380\n      jump\t// in\n    tag_543:\n        /* \"#utility.yul\":13996:14070   */\n      swap1\n      pop\n        /* \"#utility.yul\":14093:14099   */\n      dup3\n        /* \"#utility.yul\":14086:14091   */\n      dup2\n        /* \"#utility.yul\":14079:14100   */\n      mstore\n        /* \"#utility.yul\":14131:14135   */\n      0x20\n        /* \"#utility.yul\":14124:14129   */\n      dup2\n        /* \"#utility.yul\":14120:14136   */\n      add\n        /* \"#utility.yul\":14169:14172   */\n      dup5\n        /* \"#utility.yul\":14160:14166   */\n      dup5\n        /* \"#utility.yul\":14155:14158   */\n      dup5\n        /* \"#utility.yul\":14151:14167   */\n      add\n        /* \"#utility.yul\":14148:14173   */\n      gt\n        /* \"#utility.yul\":14145:14257   */\n      iszero\n      tag_545\n      jumpi\n        /* \"#utility.yul\":14176:14255   */\n      tag_546\n      tag_376\n      jump\t// in\n    tag_546:\n        /* \"#utility.yul\":14145:14257   */\n    tag_545:\n        /* \"#utility.yul\":14266:14320   */\n      tag_547\n        /* \"#utility.yul\":14313:14319   */\n      dup5\n        /* \"#utility.yul\":14308:14311   */\n      dup3\n        /* \"#utility.yul\":14303:14306   */\n      dup6\n        /* \"#utility.yul\":14266:14320   */\n      tag_382\n      jump\t// in\n    tag_547:\n        /* \"#utility.yul\":13986:14326   */\n      pop\n        /* \"#utility.yul\":13903:14326   */\n      swap4\n      swap3\n      pop\n      pop\n      pop\n      jump\t// out\n        /* \"#utility.yul\":14345:14683   */\n    tag_384:\n        /* \"#utility.yul\":14400:14405   */\n      0x00\n        /* \"#utility.yul\":14449:14452   */\n      dup3\n        /* \"#utility.yul\":14442:14446   */\n      0x1f\n        /* \"#utility.yul\":14434:14440   */\n      dup4\n        /* \"#utility.yul\":14430:14447   */\n      add\n        /* \"#utility.yul\":14426:14453   */\n      slt\n        /* \"#utility.yul\":14416:14538   */\n      tag_549\n      jumpi\n        /* \"#utility.yul\":14457:14536   */\n      tag_550\n      tag_375\n      jump\t// in\n    tag_550:\n        /* \"#utility.yul\":14416:14538   */\n    tag_549:\n        /* \"#utility.yul\":14574:14580   */\n      dup2\n        /* \"#utility.yul\":14561:14581   */\n      calldataload\n        /* \"#utility.yul\":14599:14677   */\n      tag_551\n        /* \"#utility.yul\":14673:14676   */\n      dup5\n        /* \"#utility.yul\":14665:14671   */\n      dup3\n        /* \"#utility.yul\":14658:14662   */\n      0x20\n        /* \"#utility.yul\":14650:14656   */\n      dup7\n        /* \"#utility.yul\":14646:14663   */\n      add\n        /* \"#utility.yul\":14599:14677   */\n      tag_383\n      jump\t// in\n    tag_551:\n        /* \"#utility.yul\":14590:14677   */\n      swap2\n      pop\n        /* \"#utility.yul\":14406:14683   */\n      pop\n        /* \"#utility.yul\":14345:14683   */\n      swap3\n      swap2\n      pop\n      pop\n      jump\t// out\n        /* \"#utility.yul\":14689:15341   */\n    tag_52:\n        /* \"#utility.yul\":14766:14772   */\n      0x00\n        /* \"#utility.yul\":14774:14780   */\n      dup1\n        /* \"#utility.yul\":14823:14825   */\n      0x40\n        /* \"#utility.yul\":14811:14820   */\n      dup4\n        /* \"#utility.yul\":14802:14809   */\n      dup6\n        /* \"#utility.yul\":14798:14821   */\n      sub\n        /* \"#utility.yul\":14794:14826   */\n      slt\n        /* \"#utility.yul\":14791:14910   */\n      iszero\n      tag_553\n      jumpi\n        /* \"#utility.yul\":14829:14908   */\n      tag_554\n      tag_345\n      jump\t// in\n    tag_554:\n        /* \"#utility.yul\":14791:14910   */\n    tag_553:\n        /* \"#utility.yul\":14949:14950   */\n      0x00\n        /* \"#utility.yul\":14974:15027   */\n      tag_555\n        /* \"#utility.yul\":15019:15026   */\n      dup6\n        /* \"#utility.yul\":15010:15016   */\n      dup3\n        /* \"#utility.yul\":14999:15008   */\n      dup7\n        /* \"#utility.yul\":14995:15017   */\n      add\n        /* \"#utility.yul\":14974:15027   */\n      tag_364\n      jump\t// in\n    tag_555:\n        /* \"#utility.yul\":14964:15027   */\n      swap3\n      pop\n        /* \"#utility.yul\":14920:15037   */\n      pop\n        /* \"#utility.yul\":15104:15106   */\n      0x20\n        /* \"#utility.yul\":15093:15102   */\n      dup4\n        /* \"#utility.yul\":15089:15107   */\n      add\n        /* \"#utility.yul\":15076:15108   */\n      calldataload\n        /* \"#utility.yul\":15135:15153   */\n      0xffffffffffffffff\n        /* \"#utility.yul\":15127:15133   */\n      dup2\n        /* \"#utility.yul\":15124:15154   */\n      gt\n        /* \"#utility.yul\":15121:15238   */\n      iszero\n      tag_556\n      jumpi\n        /* \"#utility.yul\":15157:15236   */\n      tag_557\n      tag_346\n      jump\t// in\n    tag_557:\n        /* \"#utility.yul\":15121:15238   */\n    tag_556:\n        /* \"#utility.yul\":15262:15324   */\n      tag_558\n        /* \"#utility.yul\":15316:15323   */\n      dup6\n        /* \"#utility.yul\":15307:15313   */\n      dup3\n        /* \"#utility.yul\":15296:15305   */\n      dup7\n        /* \"#utility.yul\":15292:15314   */\n      add\n        /* \"#utility.yul\":15262:15324   */\n      tag_384\n      jump\t// in\n    tag_558:\n        /* \"#utility.yul\":15252:15324   */\n      swap2\n      pop\n        /* \"#utility.yul\":15047:15334   */\n      pop\n        /* \"#utility.yul\":14689:15341   */\n      swap3\n      pop\n      swap3\n      swap1\n      pop\n      jump\t// out\n        /* \"#utility.yul\":15347:15424   */\n    tag_385:\n        /* \"#utility.yul\":15384:15391   */\n      0x00\n        /* \"#utility.yul\":15413:15418   */\n      dup2\n        /* \"#utility.yul\":15402:15418   */\n      swap1\n      pop\n        /* \"#utility.yul\":15347:15424   */\n      swap2\n      swap1\n      pop\n      jump\t// out\n        /* \"#utility.yul\":15430:15548   */\n    tag_386:\n        /* \"#utility.yul\":15517:15541   */\n      tag_561\n        /* \"#utility.yul\":15535:15540   */\n      dup2\n        /* \"#utility.yul\":15517:15541   */\n      tag_385\n      jump\t// in\n    tag_561:\n        /* \"#utility.yul\":15512:15515   */\n      dup3\n        /* \"#utility.yul\":15505:15542   */\n      mstore\n        /* \"#utility.yul\":15430:15548   */\n      pop\n      pop\n      jump\t// out\n        /* \"#utility.yul\":15554:15776   */\n    tag_58:\n        /* \"#utility.yul\":15647:15651   */\n      0x00\n        /* \"#utility.yul\":15685:15687   */\n      0x20\n        /* \"#utility.yul\":15674:15683   */\n      dup3\n        /* \"#utility.yul\":15670:15688   */\n      add\n        /* \"#utility.yul\":15662:15688   */\n      swap1\n      pop\n        /* \"#utility.yul\":15698:15769   */\n      tag_563\n        /* \"#utility.yul\":15766:15767   */\n      0x00\n        /* \"#utility.yul\":15755:15764   */\n      dup4\n        /* \"#utility.yul\":15751:15768   */\n      add\n        /* \"#utility.yul\":15742:15748   */\n      dup5\n        /* \"#utility.yul\":15698:15769   */\n      tag_386\n      jump\t// in\n    tag_563:\n        /* \"#utility.yul\":15554:15776   */\n      swap3\n      swap2\n      pop\n      pop\n      jump\t// out\n        /* \"#utility.yul\":15782:16093   */\n    tag_387:\n        /* \"#utility.yul\":15859:15863   */\n      0x00\n        /* \"#utility.yul\":15949:15967   */\n      0xffffffffffffffff\n        /* \"#utility.yul\":15941:15947   */\n      dup3\n        /* \"#utility.yul\":15938:15968   */\n      gt\n        /* \"#utility.yul\":15935:15991   */\n      iszero\n      tag_565\n      jumpi\n        /* \"#utility.yul\":15971:15989   */\n      tag_566\n      tag_378\n      jump\t// in\n    tag_566:\n        /* \"#utility.yul\":15935:15991   */\n    tag_565:\n        /* \"#utility.yul\":16021:16025   */\n      0x20\n        /* \"#utility.yul\":16013:16019   */\n      dup3\n        /* \"#utility.yul\":16009:16026   */\n      mul\n        /* \"#utility.yul\":16001:16026   */\n      swap1\n      pop\n        /* \"#utility.yul\":16081:16085   */\n      0x20\n        /* \"#utility.yul\":16075:16079   */\n      dup2\n        /* \"#utility.yul\":16071:16086   */\n      add\n        /* \"#utility.yul\":16063:16086   */\n      swap1\n      pop\n        /* \"#utility.yul\":15782:16093   */\n      swap2\n      swap1\n      pop\n      jump\t// out\n        /* \"#utility.yul\":16099:16216   */\n    tag_388:\n        /* \"#utility.yul\":16208:16209   */\n      0x00\n        /* \"#utility.yul\":16205:16206   */\n      dup1\n        /* \"#utility.yul\":16198:16210   */\n      revert\n        /* \"#utility.yul\":16239:16949   */\n    tag_389:\n        /* \"#utility.yul\":16335:16340   */\n      0x00\n        /* \"#utility.yul\":16360:16441   */\n      tag_569\n        /* \"#utility.yul\":16376:16440   */\n      tag_570\n        /* \"#utility.yul\":16433:16439   */\n      dup5\n        /* \"#utility.yul\":16376:16440   */\n      tag_387\n      jump\t// in\n    tag_570:\n        /* \"#utility.yul\":16360:16441   */\n      tag_380\n      jump\t// in\n    tag_569:\n        /* \"#utility.yul\":16351:16441   */\n      swap1\n      pop\n        /* \"#utility.yul\":16461:16466   */\n      dup1\n        /* \"#utility.yul\":16490:16496   */\n      dup4\n        /* \"#utility.yul\":16483:16488   */\n      dup3\n        /* \"#utility.yul\":16476:16497   */\n      mstore\n        /* \"#utility.yul\":16524:16528   */\n      0x20\n        /* \"#utility.yul\":16517:16522   */\n      dup3\n        /* \"#utility.yul\":16513:16529   */\n      add\n        /* \"#utility.yul\":16506:16529   */\n      swap1\n      pop\n        /* \"#utility.yul\":16577:16581   */\n      0x20\n        /* \"#utility.yul\":16569:16575   */\n      dup5\n        /* \"#utility.yul\":16565:16582   */\n      mul\n        /* \"#utility.yul\":16557:16563   */\n      dup4\n        /* \"#utility.yul\":16553:16583   */\n      add\n        /* \"#utility.yul\":16606:16609   */\n      dup6\n        /* \"#utility.yul\":16598:16604   */\n      dup2\n        /* \"#utility.yul\":16595:16610   */\n      gt\n        /* \"#utility.yul\":16592:16714   */\n      iszero\n      tag_571\n      jumpi\n        /* \"#utility.yul\":16625:16704   */\n      tag_572\n      tag_388\n      jump\t// in\n    tag_572:\n        /* \"#utility.yul\":16592:16714   */\n    tag_571:\n        /* \"#utility.yul\":16740:16746   */\n      dup4\n        /* \"#utility.yul\":16723:16943   */\n    tag_573:\n        /* \"#utility.yul\":16757:16763   */\n      dup2\n        /* \"#utility.yul\":16752:16755   */\n      dup2\n        /* \"#utility.yul\":16749:16764   */\n      lt\n        /* \"#utility.yul\":16723:16943   */\n      iszero\n      tag_575\n      jumpi\n        /* \"#utility.yul\":16832:16835   */\n      dup1\n        /* \"#utility.yul\":16861:16898   */\n      tag_576\n        /* \"#utility.yul\":16894:16897   */\n      dup9\n        /* \"#utility.yul\":16882:16892   */\n      dup3\n        /* \"#utility.yul\":16861:16898   */\n      tag_364\n      jump\t// in\n    tag_576:\n        /* \"#utility.yul\":16856:16859   */\n      dup5\n        /* \"#utility.yul\":16849:16899   */\n      mstore\n        /* \"#utility.yul\":16928:16932   */\n      0x20\n        /* \"#utility.yul\":16923:16926   */\n      dup5\n        /* \"#utility.yul\":16919:16933   */\n      add\n        /* \"#utility.yul\":16912:16933   */\n      swap4\n      pop\n        /* \"#utility.yul\":16799:16943   */\n      pop\n        /* \"#utility.yul\":16783:16787   */\n      0x20\n        /* \"#utility.yul\":16778:16781   */\n      dup2\n        /* \"#utility.yul\":16774:16788   */\n      add\n        /* \"#utility.yul\":16767:16788   */\n      swap1\n      pop\n        /* \"#utility.yul\":16723:16943   */\n      jump(tag_573)\n    tag_575:\n        /* \"#utility.yul\":16727:16748   */\n      pop\n        /* \"#utility.yul\":16341:16949   */\n      pop\n      pop\n        /* \"#utility.yul\":16239:16949   */\n      swap4\n      swap3\n      pop\n      pop\n      pop\n      jump\t// out\n        /* \"#utility.yul\":16972:17342   */\n    tag_390:\n        /* \"#utility.yul\":17043:17048   */\n      0x00\n        /* \"#utility.yul\":17092:17095   */\n      dup3\n        /* \"#utility.yul\":17085:17089   */\n      0x1f\n        /* \"#utility.yul\":17077:17083   */\n      dup4\n        /* \"#utility.yul\":17073:17090   */\n      add\n        /* \"#utility.yul\":17069:17096   */\n      slt\n        /* \"#utility.yul\":17059:17181   */\n      tag_578\n      jumpi\n        /* \"#utility.yul\":17100:17179   */\n      tag_579\n      tag_375\n      jump\t// in\n    tag_579:\n        /* \"#utility.yul\":17059:17181   */\n    tag_578:\n        /* \"#utility.yul\":17217:17223   */\n      dup2\n        /* \"#utility.yul\":17204:17224   */\n      calldataload\n        /* \"#utility.yul\":17242:17336   */\n      tag_580\n        /* \"#utility.yul\":17332:17335   */\n      dup5\n        /* \"#utility.yul\":17324:17330   */\n      dup3\n        /* \"#utility.yul\":17317:17321   */\n      0x20\n        /* \"#utility.yul\":17309:17315   */\n      dup7\n        /* \"#utility.yul\":17305:17322   */\n      add\n        /* \"#utility.yul\":17242:17336   */\n      tag_389\n      jump\t// in\n    tag_580:\n        /* \"#utility.yul\":17233:17336   */\n      swap2\n      pop\n        /* \"#utility.yul\":17049:17342   */\n      pop\n        /* \"#utility.yul\":16972:17342   */\n      swap3\n      swap2\n      pop\n      pop\n      jump\t// out\n        /* \"#utility.yul\":17348:17887   */\n    tag_62:\n        /* \"#utility.yul\":17432:17438   */\n      0x00\n        /* \"#utility.yul\":17481:17483   */\n      0x20\n        /* \"#utility.yul\":17469:17478   */\n      dup3\n        /* \"#utility.yul\":17460:17467   */\n      dup5\n        /* \"#utility.yul\":17456:17479   */\n      sub\n        /* \"#utility.yul\":17452:17484   */\n      slt\n        /* \"#utility.yul\":17449:17568   */\n      iszero\n      tag_582\n      jumpi\n        /* \"#utility.yul\":17487:17566   */\n      tag_583\n      tag_345\n      jump\t// in\n    tag_583:\n        /* \"#utility.yul\":17449:17568   */\n    tag_582:\n        /* \"#utility.yul\":17635:17636   */\n      0x00\n        /* \"#utility.yul\":17624:17633   */\n      dup3\n        /* \"#utility.yul\":17620:17637   */\n      add\n        /* \"#utility.yul\":17607:17638   */\n      calldataload\n        /* \"#utility.yul\":17665:17683   */\n      0xffffffffffffffff\n        /* \"#utility.yul\":17657:17663   */\n      dup2\n        /* \"#utility.yul\":17654:17684   */\n      gt\n        /* \"#utility.yul\":17651:17768   */\n      iszero\n      tag_584\n      jumpi\n        /* \"#utility.yul\":17687:17766   */\n      tag_585\n      tag_346\n      jump\t// in\n    tag_585:\n        /* \"#utility.yul\":17651:17768   */\n    tag_584:\n        /* \"#utility.yul\":17792:17870   */\n      tag_586\n        /* \"#utility.yul\":17862:17869   */\n      dup5\n        /* \"#utility.yul\":17853:17859   */\n      dup3\n        /* \"#utility.yul\":17842:17851   */\n      dup6\n        /* \"#utility.yul\":17838:17860   */\n      add\n        /* \"#utility.yul\":17792:17870   */\n      tag_390\n      jump\t// in\n    tag_586:\n        /* \"#utility.yul\":17782:17870   */\n      swap2\n      pop\n        /* \"#utility.yul\":17578:17880   */\n      pop\n        /* \"#utility.yul\":17348:17887   */\n      swap3\n      swap2\n      pop\n      pop\n      jump\t// out\n        /* \"#utility.yul\":17893:18222   */\n    tag_70:\n        /* \"#utility.yul\":17952:17958   */\n      0x00\n        /* \"#utility.yul\":18001:18003   */\n      0x20\n        /* \"#utility.yul\":17989:17998   */\n      dup3\n        /* \"#utility.yul\":17980:17987   */\n      dup5\n        /* \"#utility.yul\":17976:17999   */\n      sub\n        /* \"#utility.yul\":17972:18004   */\n      slt\n        /* \"#utility.yul\":17969:18088   */\n      iszero\n      tag_588\n      jumpi\n        /* \"#utility.yul\":18007:18086   */\n      tag_589\n      tag_345\n      jump\t// in\n    tag_589:\n        /* \"#utility.yul\":17969:18088   */\n    tag_588:\n        /* \"#utility.yul\":18127:18128   */\n      0x00\n        /* \"#utility.yul\":18152:18205   */\n      tag_590\n        /* \"#utility.yul\":18197:18204   */\n      dup5\n        /* \"#utility.yul\":18188:18194   */\n      dup3\n        /* \"#utility.yul\":18177:18186   */\n      dup6\n        /* \"#utility.yul\":18173:18195   */\n      add\n        /* \"#utility.yul\":18152:18205   */\n      tag_364\n      jump\t// in\n    tag_590:\n        /* \"#utility.yul\":18142:18205   */\n      swap2\n      pop\n        /* \"#utility.yul\":18098:18215   */\n      pop\n        /* \"#utility.yul\":17893:18222   */\n      swap3\n      swap2\n      pop\n      pop\n      jump\t// out\n        /* \"#utility.yul\":18228:18327   */\n    tag_391:\n        /* \"#utility.yul\":18280:18286   */\n      0x00\n        /* \"#utility.yul\":18314:18319   */\n      dup2\n        /* \"#utility.yul\":18308:18320   */\n      mload\n        /* \"#utility.yul\":18298:18320   */\n      swap1\n      pop\n        /* \"#utility.yul\":18228:18327   */\n      swap2\n      swap1\n      pop\n      jump\t// out\n        /* \"#utility.yul\":18333:18502   */\n    tag_392:\n        /* \"#utility.yul\":18417:18428   */\n      0x00\n        /* \"#utility.yul\":18451:18457   */\n      dup3\n        /* \"#utility.yul\":18446:18449   */\n      dup3\n        /* \"#utility.yul\":18439:18458   */\n      mstore\n        /* \"#utility.yul\":18491:18495   */\n      0x20\n        /* \"#utility.yul\":18486:18489   */\n      dup3\n        /* \"#utility.yul\":18482:18496   */\n      add\n        /* \"#utility.yul\":18467:18496   */\n      swap1\n      pop\n        /* \"#utility.yul\":18333:18502   */\n      swap3\n      swap2\n      pop\n      pop\n      jump\t// out\n        /* \"#utility.yul\":18508:18647   */\n    tag_393:\n        /* \"#utility.yul\":18597:18603   */\n      dup3\n        /* \"#utility.yul\":18592:18595   */\n      dup2\n        /* \"#utility.yul\":18587:18590   */\n      dup4\n        /* \"#utility.yul\":18581:18604   */\n      mcopy\n        /* \"#utility.yul\":18638:18639   */\n      0x00\n        /* \"#utility.yul\":18629:18635   */\n      dup4\n        /* \"#utility.yul\":18624:18627   */\n      dup4\n        /* \"#utility.yul\":18620:18636   */\n      add\n        /* \"#utility.yul\":18613:18640   */\n      mstore\n        /* \"#utility.yul\":18508:18647   */\n      pop\n      pop\n      pop\n      jump\t// out\n        /* \"#utility.yul\":18653:19030   */\n    tag_394:\n        /* \"#utility.yul\":18741:18744   */\n      0x00\n        /* \"#utility.yul\":18769:18808   */\n      tag_595\n        /* \"#utility.yul\":18802:18807   */\n      dup3\n        /* \"#utility.yul\":18769:18808   */\n      tag_391\n      jump\t// in\n    tag_595:\n        /* \"#utility.yul\":18824:18895   */\n      tag_596\n        /* \"#utility.yul\":18888:18894   */\n      dup2\n        /* \"#utility.yul\":18883:18886   */\n      dup6\n        /* \"#utility.yul\":18824:18895   */\n      tag_392\n      jump\t// in\n    tag_596:\n        /* \"#utility.yul\":18817:18895   */\n      swap4\n      pop\n        /* \"#utility.yul\":18904:18969   */\n      tag_597\n        /* \"#utility.yul\":18962:18968   */\n      dup2\n        /* \"#utility.yul\":18957:18960   */\n      dup6\n        /* \"#utility.yul\":18950:18954   */\n      0x20\n        /* \"#utility.yul\":18943:18948   */\n      dup7\n        /* \"#utility.yul\":18939:18955   */\n      add\n        /* \"#utility.yul\":18904:18969   */\n      tag_393\n      jump\t// in\n    tag_597:\n        /* \"#utility.yul\":18994:19023   */\n      tag_598\n        /* \"#utility.yul\":19016:19022   */\n      dup2\n        /* \"#utility.yul\":18994:19023   */\n      tag_377\n      jump\t// in\n    tag_598:\n        /* \"#utility.yul\":18989:18992   */\n      dup5\n        /* \"#utility.yul\":18985:19024   */\n      add\n        /* \"#utility.yul\":18978:19024   */\n      swap2\n      pop\n        /* \"#utility.yul\":18745:19030   */\n      pop\n        /* \"#utility.yul\":18653:19030   */\n      swap3\n      swap2\n      pop\n      pop\n      jump\t// out\n        /* \"#utility.yul\":19036:19349   */\n    tag_80:\n        /* \"#utility.yul\":19149:19153   */\n      0x00\n        /* \"#utility.yul\":19187:19189   */\n      0x20\n        /* \"#utility.yul\":19176:19185   */\n      dup3\n        /* \"#utility.yul\":19172:19190   */\n      add\n        /* \"#utility.yul\":19164:19190   */\n      swap1\n      pop\n        /* \"#utility.yul\":19236:19245   */\n      dup2\n        /* \"#utility.yul\":19230:19234   */\n      dup2\n        /* \"#utility.yul\":19226:19246   */\n      sub\n        /* \"#utility.yul\":19222:19223   */\n      0x00\n        /* \"#utility.yul\":19211:19220   */\n      dup4\n        /* \"#utility.yul\":19207:19224   */\n      add\n        /* \"#utility.yul\":19200:19247   */\n      mstore\n        /* \"#utility.yul\":19264:19342   */\n      tag_600\n        /* \"#utility.yul\":19337:19341   */\n      dup2\n        /* \"#utility.yul\":19328:19334   */\n      dup5\n        /* \"#utility.yul\":19264:19342   */\n      tag_394\n      jump\t// in\n    tag_600:\n        /* \"#utility.yul\":19256:19342   */\n      swap1\n      pop\n        /* \"#utility.yul\":19036:19349   */\n      swap3\n      swap2\n      pop\n      pop\n      jump\t// out\n        /* \"#utility.yul\":19355:19535   */\n    tag_105:\n        /* \"#utility.yul\":19403:19480   */\n      0x4e487b7100000000000000000000000000000000000000000000000000000000\n        /* \"#utility.yul\":19400:19401   */\n      0x00\n        /* \"#utility.yul\":19393:19481   */\n      mstore\n        /* \"#utility.yul\":19500:19504   */\n      0x32\n        /* \"#utility.yul\":19497:19498   */\n      0x04\n        /* \"#utility.yul\":19490:19505   */\n      mstore\n        /* \"#utility.yul\":19524:19528   */\n      0x24\n        /* \"#utility.yul\":19521:19522   */\n      0x00\n        /* \"#utility.yul\":19514:19529   */\n      revert\n        /* \"#utility.yul\":19541:19764   */\n    tag_395:\n        /* \"#utility.yul\":19681:19715   */\n      0x496e73756666696369656e742062616c616e636520696e2074686520636f6e74\n        /* \"#utility.yul\":19677:19678   */\n      0x00\n        /* \"#utility.yul\":19669:19675   */\n      dup3\n        /* \"#utility.yul\":19665:19679   */\n      add\n        /* \"#utility.yul\":19658:19716   */\n      mstore\n        /* \"#utility.yul\":19750:19756   */\n      0x7261637400000000000000000000000000000000000000000000000000000000\n        /* \"#utility.yul\":19745:19747   */\n      0x20\n        /* \"#utility.yul\":19737:19743   */\n      dup3\n        /* \"#utility.yul\":19733:19748   */\n      add\n        /* \"#utility.yul\":19726:19757   */\n      mstore\n        /* \"#utility.yul\":19541:19764   */\n      pop\n      jump\t// out\n        /* \"#utility.yul\":19770:20136   */\n    tag_396:\n        /* \"#utility.yul\":19912:19915   */\n      0x00\n        /* \"#utility.yul\":19933:20000   */\n      tag_604\n        /* \"#utility.yul\":19997:19999   */\n      0x24\n        /* \"#utility.yul\":19992:19995   */\n      dup4\n        /* \"#utility.yul\":19933:20000   */\n      tag_392\n      jump\t// in\n    tag_604:\n        /* \"#utility.yul\":19926:20000   */\n      swap2\n      pop\n        /* \"#utility.yul\":20009:20102   */\n      tag_605\n        /* \"#utility.yul\":20098:20101   */\n      dup3\n        /* \"#utility.yul\":20009:20102   */\n      tag_395\n      jump\t// in\n    tag_605:\n        /* \"#utility.yul\":20127:20129   */\n      0x40\n        /* \"#utility.yul\":20122:20125   */\n      dup3\n        /* \"#utility.yul\":20118:20130   */\n      add\n        /* \"#utility.yul\":20111:20130   */\n      swap1\n      pop\n        /* \"#utility.yul\":19770:20136   */\n      swap2\n      swap1\n      pop\n      jump\t// out\n        /* \"#utility.yul\":20142:20561   */\n    tag_114:\n        /* \"#utility.yul\":20308:20312   */\n      0x00\n        /* \"#utility.yul\":20346:20348   */\n      0x20\n        /* \"#utility.yul\":20335:20344   */\n      dup3\n        /* \"#utility.yul\":20331:20349   */\n      add\n        /* \"#utility.yul\":20323:20349   */\n      swap1\n      pop\n        /* \"#utility.yul\":20395:20404   */\n      dup2\n        /* \"#utility.yul\":20389:20393   */\n      dup2\n        /* \"#utility.yul\":20385:20405   */\n      sub\n        /* \"#utility.yul\":20381:20382   */\n      0x00\n        /* \"#utility.yul\":20370:20379   */\n      dup4\n        /* \"#utility.yul\":20366:20383   */\n      add\n        /* \"#utility.yul\":20359:20406   */\n      mstore\n        /* \"#utility.yul\":20423:20554   */\n      tag_607\n        /* \"#utility.yul\":20549:20553   */\n      dup2\n        /* \"#utility.yul\":20423:20554   */\n      tag_396\n      jump\t// in\n    tag_607:\n        /* \"#utility.yul\":20415:20554   */\n      swap1\n      pop\n        /* \"#utility.yul\":20142:20561   */\n      swap2\n      swap1\n      pop\n      jump\t// out\n        /* \"#utility.yul\":20567:20685   */\n    tag_397:\n        /* \"#utility.yul\":20654:20678   */\n      tag_609\n        /* \"#utility.yul\":20672:20677   */\n      dup2\n        /* \"#utility.yul\":20654:20678   */\n      tag_351\n      jump\t// in\n    tag_609:\n        /* \"#utility.yul\":20649:20652   */\n      dup3\n        /* \"#utility.yul\":20642:20679   */\n      mstore\n        /* \"#utility.yul\":20567:20685   */\n      pop\n      pop\n      jump\t// out\n        /* \"#utility.yul\":20691:21133   */\n    tag_117:\n        /* \"#utility.yul\":20840:20844   */\n      0x00\n        /* \"#utility.yul\":20878:20880   */\n      0x60\n        /* \"#utility.yul\":20867:20876   */\n      dup3\n        /* \"#utility.yul\":20863:20881   */\n      add\n        /* \"#utility.yul\":20855:20881   */\n      swap1\n      pop\n        /* \"#utility.yul\":20891:20962   */\n      tag_611\n        /* \"#utility.yul\":20959:20960   */\n      0x00\n        /* \"#utility.yul\":20948:20957   */\n      dup4\n        /* \"#utility.yul\":20944:20961   */\n      add\n        /* \"#utility.yul\":20935:20941   */\n      dup7\n        /* \"#utility.yul\":20891:20962   */\n      tag_365\n      jump\t// in\n    tag_611:\n        /* \"#utility.yul\":20972:21044   */\n      tag_612\n        /* \"#utility.yul\":21040:21042   */\n      0x20\n        /* \"#utility.yul\":21029:21038   */\n      dup4\n        /* \"#utility.yul\":21025:21043   */\n      add\n        /* \"#utility.yul\":21016:21022   */\n      dup6\n        /* \"#utility.yul\":20972:21044   */\n      tag_397\n      jump\t// in\n    tag_612:\n        /* \"#utility.yul\":21054:21126   */\n      tag_613\n        /* \"#utility.yul\":21122:21124   */\n      0x40\n        /* \"#utility.yul\":21111:21120   */\n      dup4\n        /* \"#utility.yul\":21107:21125   */\n      add\n        /* \"#utility.yul\":21098:21104   */\n      dup5\n        /* \"#utility.yul\":21054:21126   */\n      tag_365\n      jump\t// in\n    tag_613:\n        /* \"#utility.yul\":20691:21133   */\n      swap5\n      swap4\n      pop\n      pop\n      pop\n      pop\n      jump\t// out\n        /* \"#utility.yul\":21139:21373   */\n    tag_398:\n        /* \"#utility.yul\":21279:21313   */\n      0x546869732066756e6374696f6e2063616e206f6e6c792062652063616c6c6564\n        /* \"#utility.yul\":21275:21276   */\n      0x00\n        /* \"#utility.yul\":21267:21273   */\n      dup3\n        /* \"#utility.yul\":21263:21277   */\n      add\n        /* \"#utility.yul\":21256:21314   */\n      mstore\n        /* \"#utility.yul\":21348:21365   */\n      0x20627920616e20417070726f7665720000000000000000000000000000000000\n        /* \"#utility.yul\":21343:21345   */\n      0x20\n        /* \"#utility.yul\":21335:21341   */\n      dup3\n        /* \"#utility.yul\":21331:21346   */\n      add\n        /* \"#utility.yul\":21324:21366   */\n      mstore\n        /* \"#utility.yul\":21139:21373   */\n      pop\n      jump\t// out\n        /* \"#utility.yul\":21379:21745   */\n    tag_399:\n        /* \"#utility.yul\":21521:21524   */\n      0x00\n        /* \"#utility.yul\":21542:21609   */\n      tag_616\n        /* \"#utility.yul\":21606:21608   */\n      0x2f\n        /* \"#utility.yul\":21601:21604   */\n      dup4\n        /* \"#utility.yul\":21542:21609   */\n      tag_392\n      jump\t// in\n    tag_616:\n        /* \"#utility.yul\":21535:21609   */\n      swap2\n      pop\n        /* \"#utility.yul\":21618:21711   */\n      tag_617\n        /* \"#utility.yul\":21707:21710   */\n      dup3\n        /* \"#utility.yul\":21618:21711   */\n      tag_398\n      jump\t// in\n    tag_617:\n        /* \"#utility.yul\":21736:21738   */\n      0x40\n        /* \"#utility.yul\":21731:21734   */\n      dup3\n        /* \"#utility.yul\":21727:21739   */\n      add\n        /* \"#utility.yul\":21720:21739   */\n      swap1\n      pop\n        /* \"#utility.yul\":21379:21745   */\n      swap2\n      swap1\n      pop\n      jump\t// out\n        /* \"#utility.yul\":21751:22170   */\n    tag_121:\n        /* \"#utility.yul\":21917:21921   */\n      0x00\n        /* \"#utility.yul\":21955:21957   */\n      0x20\n        /* \"#utility.yul\":21944:21953   */\n      dup3\n        /* \"#utility.yul\":21940:21958   */\n      add\n        /* \"#utility.yul\":21932:21958   */\n      swap1\n      pop\n        /* \"#utility.yul\":22004:22013   */\n      dup2\n        /* \"#utility.yul\":21998:22002   */\n      dup2\n        /* \"#utility.yul\":21994:22014   */\n      sub\n        /* \"#utility.yul\":21990:21991   */\n      0x00\n        /* \"#utility.yul\":21979:21988   */\n      dup4\n        /* \"#utility.yul\":21975:21992   */\n      add\n        /* \"#utility.yul\":21968:22015   */\n      mstore\n        /* \"#utility.yul\":22032:22163   */\n      tag_619\n        /* \"#utility.yul\":22158:22162   */\n      dup2\n        /* \"#utility.yul\":22032:22163   */\n      tag_399\n      jump\t// in\n    tag_619:\n        /* \"#utility.yul\":22024:22163   */\n      swap1\n      pop\n        /* \"#utility.yul\":21751:22170   */\n      swap2\n      swap1\n      pop\n      jump\t// out\n        /* \"#utility.yul\":22176:22398   */\n    tag_400:\n        /* \"#utility.yul\":22316:22350   */\n      0x546865205472616e73616374696f6e20697320616c7265616479206578656375\n        /* \"#utility.yul\":22312:22313   */\n      0x00\n        /* \"#utility.yul\":22304:22310   */\n      dup3\n        /* \"#utility.yul\":22300:22314   */\n      add\n        /* \"#utility.yul\":22293:22351   */\n      mstore\n        /* \"#utility.yul\":22385:22390   */\n      0x7465640000000000000000000000000000000000000000000000000000000000\n        /* \"#utility.yul\":22380:22382   */\n      0x20\n        /* \"#utility.yul\":22372:22378   */\n      dup3\n        /* \"#utility.yul\":22368:22383   */\n      add\n        /* \"#utility.yul\":22361:22391   */\n      mstore\n        /* \"#utility.yul\":22176:22398   */\n      pop\n      jump\t// out\n        /* \"#utility.yul\":22404:22770   */\n    tag_401:\n        /* \"#utility.yul\":22546:22549   */\n      0x00\n        /* \"#utility.yul\":22567:22634   */\n      tag_622\n        /* \"#utility.yul\":22631:22633   */\n      0x23\n        /* \"#utility.yul\":22626:22629   */\n      dup4\n        /* \"#utility.yul\":22567:22634   */\n      tag_392\n      jump\t// in\n    tag_622:\n        /* \"#utility.yul\":22560:22634   */\n      swap2\n      pop\n        /* \"#utility.yul\":22643:22736   */\n      tag_623\n        /* \"#utility.yul\":22732:22735   */\n      dup3\n        /* \"#utility.yul\":22643:22736   */\n      tag_400\n      jump\t// in\n    tag_623:\n        /* \"#utility.yul\":22761:22763   */\n      0x40\n        /* \"#utility.yul\":22756:22759   */\n      dup3\n        /* \"#utility.yul\":22752:22764   */\n      add\n        /* \"#utility.yul\":22745:22764   */\n      swap1\n      pop\n        /* \"#utility.yul\":22404:22770   */\n      swap2\n      swap1\n      pop\n      jump\t// out\n        /* \"#utility.yul\":22776:23195   */\n    tag_128:\n        /* \"#utility.yul\":22942:22946   */\n      0x00\n        /* \"#utility.yul\":22980:22982   */\n      0x20\n        /* \"#utility.yul\":22969:22978   */\n      dup3\n        /* \"#utility.yul\":22965:22983   */\n      add\n        /* \"#utility.yul\":22957:22983   */\n      swap1\n      pop\n        /* \"#utility.yul\":23029:23038   */\n      dup2\n        /* \"#utility.yul\":23023:23027   */\n      dup2\n        /* \"#utility.yul\":23019:23039   */\n      sub\n        /* \"#utility.yul\":23015:23016   */\n      0x00\n        /* \"#utility.yul\":23004:23013   */\n      dup4\n        /* \"#utility.yul\":23000:23017   */\n      add\n        /* \"#utility.yul\":22993:23040   */\n      mstore\n        /* \"#utility.yul\":23057:23188   */\n      tag_625\n        /* \"#utility.yul\":23183:23187   */\n      dup2\n        /* \"#utility.yul\":23057:23188   */\n      tag_401\n      jump\t// in\n    tag_625:\n        /* \"#utility.yul\":23049:23188   */\n      swap1\n      pop\n        /* \"#utility.yul\":22776:23195   */\n      swap2\n      swap1\n      pop\n      jump\t// out\n        /* \"#utility.yul\":23201:23381   */\n    tag_402:\n        /* \"#utility.yul\":23249:23326   */\n      0x4e487b7100000000000000000000000000000000000000000000000000000000\n        /* \"#utility.yul\":23246:23247   */\n      0x00\n        /* \"#utility.yul\":23239:23327   */\n      mstore\n        /* \"#utility.yul\":23346:23350   */\n      0x11\n        /* \"#utility.yul\":23343:23344   */\n      0x04\n        /* \"#utility.yul\":23336:23351   */\n      mstore\n        /* \"#utility.yul\":23370:23374   */\n      0x24\n        /* \"#utility.yul\":23367:23368   */\n      0x00\n        /* \"#utility.yul\":23360:23375   */\n      revert\n        /* \"#utility.yul\":23387:23620   */\n    tag_131:\n        /* \"#utility.yul\":23426:23429   */\n      0x00\n        /* \"#utility.yul\":23449:23473   */\n      tag_628\n        /* \"#utility.yul\":23467:23472   */\n      dup3\n        /* \"#utility.yul\":23449:23473   */\n      tag_347\n      jump\t// in\n    tag_628:\n        /* \"#utility.yul\":23440:23473   */\n      swap2\n      pop\n        /* \"#utility.yul\":23495:23561   */\n      0xffffffffffffffffffffffffffffffffffffffffffffffffffffffffffffffff\n        /* \"#utility.yul\":23488:23493   */\n      dup3\n        /* \"#utility.yul\":23485:23562   */\n      sub\n        /* \"#utility.yul\":23482:23585   */\n      tag_629\n      jumpi\n        /* \"#utility.yul\":23565:23583   */\n      tag_630\n      tag_402\n      jump\t// in\n    tag_630:\n        /* \"#utility.yul\":23482:23585   */\n    tag_629:\n        /* \"#utility.yul\":23612:23613   */\n      0x01\n        /* \"#utility.yul\":23605:23610   */\n      dup3\n        /* \"#utility.yul\":23601:23614   */\n      add\n        /* \"#utility.yul\":23594:23614   */\n      swap1\n      pop\n        /* \"#utility.yul\":23387:23620   */\n      swap2\n      swap1\n      pop\n      jump\t// out\n        /* \"#utility.yul\":23626:23806   */\n    tag_403:\n        /* \"#utility.yul\":23674:23751   */\n      0x4e487b7100000000000000000000000000000000000000000000000000000000\n        /* \"#utility.yul\":23671:23672   */\n      0x00\n        /* \"#utility.yul\":23664:23752   */\n      mstore\n        /* \"#utility.yul\":23771:23775   */\n      0x12\n        /* \"#utility.yul\":23768:23769   */\n      0x04\n        /* \"#utility.yul\":23761:23776   */\n      mstore\n        /* \"#utility.yul\":23795:23799   */\n      0x24\n        /* \"#utility.yul\":23792:23793   */\n      0x00\n        /* \"#utility.yul\":23785:23800   */\n      revert\n        /* \"#utility.yul\":23812:23997   */\n    tag_134:\n        /* \"#utility.yul\":23852:23853   */\n      0x00\n        /* \"#utility.yul\":23869:23889   */\n      tag_633\n        /* \"#utility.yul\":23887:23888   */\n      dup3\n        /* \"#utility.yul\":23869:23889   */\n      tag_347\n      jump\t// in\n    tag_633:\n        /* \"#utility.yul\":23864:23889   */\n      swap2\n      pop\n        /* \"#utility.yul\":23903:23923   */\n      tag_634\n        /* \"#utility.yul\":23921:23922   */\n      dup4\n        /* \"#utility.yul\":23903:23923   */\n      tag_347\n      jump\t// in\n    tag_634:\n        /* \"#utility.yul\":23898:23923   */\n      swap3\n      pop\n        /* \"#utility.yul\":23942:23943   */\n      dup3\n        /* \"#utility.yul\":23932:23967   */\n      tag_635\n      jumpi\n        /* \"#utility.yul\":23947:23965   */\n      tag_636\n      tag_403\n      jump\t// in\n    tag_636:\n        /* \"#utility.yul\":23932:23967   */\n    tag_635:\n        /* \"#utility.yul\":23989:23990   */\n      dup3\n        /* \"#utility.yul\":23986:23987   */\n      dup3\n        /* \"#utility.yul\":23982:23991   */\n      div\n        /* \"#utility.yul\":23977:23991   */\n      swap1\n      pop\n        /* \"#utility.yul\":23812:23997   */\n      swap3\n      swap2\n      pop\n      pop\n      jump\t// out\n        /* \"#utility.yul\":24003:24335   */\n    tag_145:\n        /* \"#utility.yul\":24124:24128   */\n      0x00\n        /* \"#utility.yul\":24162:24164   */\n      0x40\n        /* \"#utility.yul\":24151:24160   */\n      dup3\n        /* \"#utility.yul\":24147:24165   */\n      add\n        /* \"#utility.yul\":24139:24165   */\n      swap1\n      pop\n        /* \"#utility.yul\":24175:24246   */\n      tag_638\n        /* \"#utility.yul\":24243:24244   */\n      0x00\n        /* \"#utility.yul\":24232:24241   */\n      dup4\n        /* \"#utility.yul\":24228:24245   */\n      add\n        /* \"#utility.yul\":24219:24225   */\n      dup6\n        /* \"#utility.yul\":24175:24246   */\n      tag_365\n      jump\t// in\n    tag_638:\n        /* \"#utility.yul\":24256:24328   */\n      tag_639\n        /* \"#utility.yul\":24324:24326   */\n      0x20\n        /* \"#utility.yul\":24313:24322   */\n      dup4\n        /* \"#utility.yul\":24309:24327   */\n      add\n        /* \"#utility.yul\":24300:24306   */\n      dup5\n        /* \"#utility.yul\":24256:24328   */\n      tag_397\n      jump\t// in\n    tag_639:\n        /* \"#utility.yul\":24003:24335   */\n      swap4\n      swap3\n      pop\n      pop\n      pop\n      jump\t// out\n        /* \"#utility.yul\":24341:24574   */\n    tag_404:\n        /* \"#utility.yul\":24481:24515   */\n      0x596f7520617265206e6f7420746865206f776e65722068656e63652063616e27\n        /* \"#utility.yul\":24477:24478   */\n      0x00\n        /* \"#utility.yul\":24469:24475   */\n      dup3\n        /* \"#utility.yul\":24465:24479   */\n      add\n        /* \"#utility.yul\":24458:24516   */\n      mstore\n        /* \"#utility.yul\":24550:24566   */\n      0x74206368616e6765207468697320000000000000000000000000000000000000\n        /* \"#utility.yul\":24545:24547   */\n      0x20\n        /* \"#utility.yul\":24537:24543   */\n      dup3\n        /* \"#utility.yul\":24533:24548   */\n      add\n        /* \"#utility.yul\":24526:24567   */\n      mstore\n        /* \"#utility.yul\":24341:24574   */\n      pop\n      jump\t// out\n        /* \"#utility.yul\":24580:24946   */\n    tag_405:\n        /* \"#utility.yul\":24722:24725   */\n      0x00\n        /* \"#utility.yul\":24743:24810   */\n      tag_642\n        /* \"#utility.yul\":24807:24809   */\n      0x2e\n        /* \"#utility.yul\":24802:24805   */\n      dup4\n        /* \"#utility.yul\":24743:24810   */\n      tag_392\n      jump\t// in\n    tag_642:\n        /* \"#utility.yul\":24736:24810   */\n      swap2\n      pop\n        /* \"#utility.yul\":24819:24912   */\n      tag_643\n        /* \"#utility.yul\":24908:24911   */\n      dup3\n        /* \"#utility.yul\":24819:24912   */\n      tag_404\n      jump\t// in\n    tag_643:\n        /* \"#utility.yul\":24937:24939   */\n      0x40\n        /* \"#utility.yul\":24932:24935   */\n      dup3\n        /* \"#utility.yul\":24928:24940   */\n      add\n        /* \"#utility.yul\":24921:24940   */\n      swap1\n      pop\n        /* \"#utility.yul\":24580:24946   */\n      swap2\n      swap1\n      pop\n      jump\t// out\n        /* \"#utility.yul\":24952:25371   */\n    tag_172:\n        /* \"#utility.yul\":25118:25122   */\n      0x00\n        /* \"#utility.yul\":25156:25158   */\n      0x20\n        /* \"#utility.yul\":25145:25154   */\n      dup3\n        /* \"#utility.yul\":25141:25159   */\n      add\n        /* \"#utility.yul\":25133:25159   */\n      swap1\n      pop\n        /* \"#utility.yul\":25205:25214   */\n      dup2\n        /* \"#utility.yul\":25199:25203   */\n      dup2\n        /* \"#utility.yul\":25195:25215   */\n      sub\n        /* \"#utility.yul\":25191:25192   */\n      0x00\n        /* \"#utility.yul\":25180:25189   */\n      dup4\n        /* \"#utility.yul\":25176:25193   */\n      add\n        /* \"#utility.yul\":25169:25216   */\n      mstore\n        /* \"#utility.yul\":25233:25364   */\n      tag_645\n        /* \"#utility.yul\":25359:25363   */\n      dup2\n        /* \"#utility.yul\":25233:25364   */\n      tag_405\n      jump\t// in\n    tag_645:\n        /* \"#utility.yul\":25225:25364   */\n      swap1\n      pop\n        /* \"#utility.yul\":24952:25371   */\n      swap2\n      swap1\n      pop\n      jump\t// out\n        /* \"#utility.yul\":25377:25599   */\n    tag_188:\n        /* \"#utility.yul\":25470:25474   */\n      0x00\n        /* \"#utility.yul\":25508:25510   */\n      0x20\n        /* \"#utility.yul\":25497:25506   */\n      dup3\n        /* \"#utility.yul\":25493:25511   */\n      add\n        /* \"#utility.yul\":25485:25511   */\n      swap1\n      pop\n        /* \"#utility.yul\":25521:25592   */\n      tag_647\n        /* \"#utility.yul\":25589:25590   */\n      0x00\n        /* \"#utility.yul\":25578:25587   */\n      dup4\n        /* \"#utility.yul\":25574:25591   */\n      add\n        /* \"#utility.yul\":25565:25571   */\n      dup5\n        /* \"#utility.yul\":25521:25592   */\n      tag_397\n      jump\t// in\n    tag_647:\n        /* \"#utility.yul\":25377:25599   */\n      swap3\n      swap2\n      pop\n      pop\n      jump\t// out\n        /* \"#utility.yul\":25605:25690   */\n    tag_406:\n        /* \"#utility.yul\":25650:25657   */\n      0x00\n        /* \"#utility.yul\":25679:25684   */\n      dup2\n        /* \"#utility.yul\":25668:25684   */\n      swap1\n      pop\n        /* \"#utility.yul\":25605:25690   */\n      swap2\n      swap1\n      pop\n      jump\t// out\n        /* \"#utility.yul\":25696:25797   */\n    tag_407:\n        /* \"#utility.yul\":25732:25739   */\n      0x00\n        /* \"#utility.yul\":25772:25790   */\n      0xffffffffffffffff\n        /* \"#utility.yul\":25765:25770   */\n      dup3\n        /* \"#utility.yul\":25761:25791   */\n      and\n        /* \"#utility.yul\":25750:25791   */\n      swap1\n      pop\n        /* \"#utility.yul\":25696:25797   */\n      swap2\n      swap1\n      pop\n      jump\t// out\n        /* \"#utility.yul\":25803:25863   */\n    tag_408:\n        /* \"#utility.yul\":25831:25834   */\n      0x00\n        /* \"#utility.yul\":25852:25857   */\n      dup2\n        /* \"#utility.yul\":25845:25857   */\n      swap1\n      pop\n        /* \"#utility.yul\":25803:25863   */\n      swap2\n      swap1\n      pop\n      jump\t// out\n        /* \"#utility.yul\":25869:26025   */\n    tag_409:\n        /* \"#utility.yul\":25926:25935   */\n      0x00\n        /* \"#utility.yul\":25959:26019   */\n      tag_652\n        /* \"#utility.yul\":25976:26018   */\n      tag_653\n        /* \"#utility.yul\":25985:26017   */\n      tag_654\n        /* \"#utility.yul\":26011:26016   */\n      dup5\n        /* \"#utility.yul\":25985:26017   */\n      tag_406\n      jump\t// in\n    tag_654:\n        /* \"#utility.yul\":25976:26018   */\n      tag_408\n      jump\t// in\n    tag_653:\n        /* \"#utility.yul\":25959:26019   */\n      tag_407\n      jump\t// in\n    tag_652:\n        /* \"#utility.yul\":25946:26019   */\n      swap1\n      pop\n        /* \"#utility.yul\":25869:26025   */\n      swap2\n      swap1\n      pop\n      jump\t// out\n        /* \"#utility.yul\":26031:26176   */\n    tag_410:\n        /* \"#utility.yul\":26125:26169   */\n      tag_656\n        /* \"#utility.yul\":26163:26168   */\n      dup2\n        /* \"#utility.yul\":26125:26169   */\n      tag_409\n      jump\t// in\n    tag_656:\n        /* \"#utility.yul\":26120:26123   */\n      dup3\n        /* \"#utility.yul\":26113:26170   */\n      mstore\n        /* \"#utility.yul\":26031:26176   */\n      pop\n      pop\n      jump\t// out\n        /* \"#utility.yul\":26182:26418   */\n    tag_202:\n        /* \"#utility.yul\":26282:26286   */\n      0x00\n        /* \"#utility.yul\":26320:26322   */\n      0x20\n        /* \"#utility.yul\":26309:26318   */\n      dup3\n        /* \"#utility.yul\":26305:26323   */\n      add\n        /* \"#utility.yul\":26297:26323   */\n      swap1\n      pop\n        /* \"#utility.yul\":26333:26411   */\n      tag_658\n        /* \"#utility.yul\":26408:26409   */\n      0x00\n        /* \"#utility.yul\":26397:26406   */\n      dup4\n        /* \"#utility.yul\":26393:26410   */\n      add\n        /* \"#utility.yul\":26384:26390   */\n      dup5\n        /* \"#utility.yul\":26333:26411   */\n      tag_410\n      jump\t// in\n    tag_658:\n        /* \"#utility.yul\":26182:26418   */\n      swap3\n      swap2\n      pop\n      pop\n      jump\t// out\n        /* \"#utility.yul\":26424:26598   */\n    tag_411:\n        /* \"#utility.yul\":26564:26590   */\n      0x596f752061726520616c726561647920617070726f7665640000000000000000\n        /* \"#utility.yul\":26560:26561   */\n      0x00\n        /* \"#utility.yul\":26552:26558   */\n      dup3\n        /* \"#utility.yul\":26548:26562   */\n      add\n        /* \"#utility.yul\":26541:26591   */\n      mstore\n        /* \"#utility.yul\":26424:26598   */\n      pop\n      jump\t// out\n        /* \"#utility.yul\":26604:26970   */\n    tag_412:\n        /* \"#utility.yul\":26746:26749   */\n      0x00\n        /* \"#utility.yul\":26767:26834   */\n      tag_661\n        /* \"#utility.yul\":26831:26833   */\n      0x18\n        /* \"#utility.yul\":26826:26829   */\n      dup4\n        /* \"#utility.yul\":26767:26834   */\n      tag_392\n      jump\t// in\n    tag_661:\n        /* \"#utility.yul\":26760:26834   */\n      swap2\n      pop\n        /* \"#utility.yul\":26843:26936   */\n      tag_662\n        /* \"#utility.yul\":26932:26935   */\n      dup3\n        /* \"#utility.yul\":26843:26936   */\n      tag_411\n      jump\t// in\n    tag_662:\n        /* \"#utility.yul\":26961:26963   */\n      0x20\n        /* \"#utility.yul\":26956:26959   */\n      dup3\n        /* \"#utility.yul\":26952:26964   */\n      add\n        /* \"#utility.yul\":26945:26964   */\n      swap1\n      pop\n        /* \"#utility.yul\":26604:26970   */\n      swap2\n      swap1\n      pop\n      jump\t// out\n        /* \"#utility.yul\":26976:27395   */\n    tag_209:\n        /* \"#utility.yul\":27142:27146   */\n      0x00\n        /* \"#utility.yul\":27180:27182   */\n      0x20\n        /* \"#utility.yul\":27169:27178   */\n      dup3\n        /* \"#utility.yul\":27165:27183   */\n      add\n        /* \"#utility.yul\":27157:27183   */\n      swap1\n      pop\n        /* \"#utility.yul\":27229:27238   */\n      dup2\n        /* \"#utility.yul\":27223:27227   */\n      dup2\n        /* \"#utility.yul\":27219:27239   */\n      sub\n        /* \"#utility.yul\":27215:27216   */\n      0x00\n        /* \"#utility.yul\":27204:27213   */\n      dup4\n        /* \"#utility.yul\":27200:27217   */\n      add\n        /* \"#utility.yul\":27193:27240   */\n      mstore\n        /* \"#utility.yul\":27257:27388   */\n      tag_664\n        /* \"#utility.yul\":27383:27387   */\n      dup2\n        /* \"#utility.yul\":27257:27388   */\n      tag_412\n      jump\t// in\n    tag_664:\n        /* \"#utility.yul\":27249:27388   */\n      swap1\n      pop\n        /* \"#utility.yul\":26976:27395   */\n      swap2\n      swap1\n      pop\n      jump\t// out\n        /* \"#utility.yul\":27401:27595   */\n    tag_218:\n        /* \"#utility.yul\":27441:27445   */\n      0x00\n        /* \"#utility.yul\":27461:27481   */\n      tag_666\n        /* \"#utility.yul\":27479:27480   */\n      dup3\n        /* \"#utility.yul\":27461:27481   */\n      tag_347\n      jump\t// in\n    tag_666:\n        /* \"#utility.yul\":27456:27481   */\n      swap2\n      pop\n        /* \"#utility.yul\":27495:27515   */\n      tag_667\n        /* \"#utility.yul\":27513:27514   */\n      dup4\n        /* \"#utility.yul\":27495:27515   */\n      tag_347\n      jump\t// in\n    tag_667:\n        /* \"#utility.yul\":27490:27515   */\n      swap3\n      pop\n        /* \"#utility.yul\":27539:27540   */\n      dup3\n        /* \"#utility.yul\":27536:27537   */\n      dup3\n        /* \"#utility.yul\":27532:27541   */\n      sub\n        /* \"#utility.yul\":27524:27541   */\n      swap1\n      pop\n        /* \"#utility.yul\":27563:27564   */\n      dup2\n        /* \"#utility.yul\":27557:27561   */\n      dup2\n        /* \"#utility.yul\":27554:27565   */\n      gt\n        /* \"#utility.yul\":27551:27588   */\n      iszero\n      tag_668\n      jumpi\n        /* \"#utility.yul\":27568:27586   */\n      tag_669\n      tag_402\n      jump\t// in\n    tag_669:\n        /* \"#utility.yul\":27551:27588   */\n    tag_668:\n        /* \"#utility.yul\":27401:27595   */\n      swap3\n      swap2\n      pop\n      pop\n      jump\t// out\n        /* \"#utility.yul\":27601:27781   */\n    tag_227:\n        /* \"#utility.yul\":27649:27726   */\n      0x4e487b7100000000000000000000000000000000000000000000000000000000\n        /* \"#utility.yul\":27646:27647   */\n      0x00\n        /* \"#utility.yul\":27639:27727   */\n      mstore\n        /* \"#utility.yul\":27746:27750   */\n      0x31\n        /* \"#utility.yul\":27743:27744   */\n      0x04\n        /* \"#utility.yul\":27736:27751   */\n      mstore\n        /* \"#utility.yul\":27770:27774   */\n      0x24\n        /* \"#utility.yul\":27767:27768   */\n      0x00\n        /* \"#utility.yul\":27760:27775   */\n      revert\n        /* \"#utility.yul\":27787:27964   */\n    tag_413:\n        /* \"#utility.yul\":27927:27956   */\n      0x596f752061726520616c726561647920616e20617070726f7665720000000000\n        /* \"#utility.yul\":27923:27924   */\n      0x00\n        /* \"#utility.yul\":27915:27921   */\n      dup3\n        /* \"#utility.yul\":27911:27925   */\n      add\n        /* \"#utility.yul\":27904:27957   */\n      mstore\n        /* \"#utility.yul\":27787:27964   */\n      pop\n      jump\t// out\n        /* \"#utility.yul\":27970:28336   */\n    tag_414:\n        /* \"#utility.yul\":28112:28115   */\n      0x00\n        /* \"#utility.yul\":28133:28200   */\n      tag_673\n        /* \"#utility.yul\":28197:28199   */\n      0x1b\n        /* \"#utility.yul\":28192:28195   */\n      dup4\n        /* \"#utility.yul\":28133:28200   */\n      tag_392\n      jump\t// in\n    tag_673:\n        /* \"#utility.yul\":28126:28200   */\n      swap2\n      pop\n        /* \"#utility.yul\":28209:28302   */\n      tag_674\n        /* \"#utility.yul\":28298:28301   */\n      dup3\n        /* \"#utility.yul\":28209:28302   */\n      tag_413\n      jump\t// in\n    tag_674:\n        /* \"#utility.yul\":28327:28329   */\n      0x20\n        /* \"#utility.yul\":28322:28325   */\n      dup3\n        /* \"#utility.yul\":28318:28330   */\n      add\n        /* \"#utility.yul\":28311:28330   */\n      swap1\n      pop\n        /* \"#utility.yul\":27970:28336   */\n      swap2\n      swap1\n      pop\n      jump\t// out\n        /* \"#utility.yul\":28342:28761   */\n    tag_249:\n        /* \"#utility.yul\":28508:28512   */\n      0x00\n        /* \"#utility.yul\":28546:28548   */\n      0x20\n        /* \"#utility.yul\":28535:28544   */\n      dup3\n        /* \"#utility.yul\":28531:28549   */\n      add\n        /* \"#utility.yul\":28523:28549   */\n      swap1\n      pop\n        /* \"#utility.yul\":28595:28604   */\n      dup2\n        /* \"#utility.yul\":28589:28593   */\n      dup2\n        /* \"#utility.yul\":28585:28605   */\n      sub\n        /* \"#utility.yul\":28581:28582   */\n      0x00\n        /* \"#utility.yul\":28570:28579   */\n      dup4\n        /* \"#utility.yul\":28566:28583   */\n      add\n        /* \"#utility.yul\":28559:28606   */\n      mstore\n        /* \"#utility.yul\":28623:28754   */\n      tag_676\n        /* \"#utility.yul\":28749:28753   */\n      dup2\n        /* \"#utility.yul\":28623:28754   */\n      tag_414\n      jump\t// in\n    tag_676:\n        /* \"#utility.yul\":28615:28754   */\n      swap1\n      pop\n        /* \"#utility.yul\":28342:28761   */\n      swap2\n      swap1\n      pop\n      jump\t// out\n        /* \"#utility.yul\":28767:28941   */\n    tag_415:\n        /* \"#utility.yul\":28907:28933   */\n      0x596f75204861766520616c7265616479206170706c6965640000000000000000\n        /* \"#utility.yul\":28903:28904   */\n      0x00\n        /* \"#utility.yul\":28895:28901   */\n      dup3\n        /* \"#utility.yul\":28891:28905   */\n      add\n        /* \"#utility.yul\":28884:28934   */\n      mstore\n        /* \"#utility.yul\":28767:28941   */\n      pop\n      jump\t// out\n        /* \"#utility.yul\":28947:29313   */\n    tag_416:\n        /* \"#utility.yul\":29089:29092   */\n      0x00\n        /* \"#utility.yul\":29110:29177   */\n      tag_679\n        /* \"#utility.yul\":29174:29176   */\n      0x18\n        /* \"#utility.yul\":29169:29172   */\n      dup4\n        /* \"#utility.yul\":29110:29177   */\n      tag_392\n      jump\t// in\n    tag_679:\n        /* \"#utility.yul\":29103:29177   */\n      swap2\n      pop\n        /* \"#utility.yul\":29186:29279   */\n      tag_680\n        /* \"#utility.yul\":29275:29278   */\n      dup3\n        /* \"#utility.yul\":29186:29279   */\n      tag_415\n      jump\t// in\n    tag_680:\n        /* \"#utility.yul\":29304:29306   */\n      0x20\n        /* \"#utility.yul\":29299:29302   */\n      dup3\n        /* \"#utility.yul\":29295:29307   */\n      add\n        /* \"#utility.yul\":29288:29307   */\n      swap1\n      pop\n        /* \"#utility.yul\":28947:29313   */\n      swap2\n      swap1\n      pop\n      jump\t// out\n        /* \"#utility.yul\":29319:29738   */\n    tag_252:\n        /* \"#utility.yul\":29485:29489   */\n      0x00\n        /* \"#utility.yul\":29523:29525   */\n      0x20\n        /* \"#utility.yul\":29512:29521   */\n      dup3\n        /* \"#utility.yul\":29508:29526   */\n      add\n        /* \"#utility.yul\":29500:29526   */\n      swap1\n      pop\n        /* \"#utility.yul\":29572:29581   */\n      dup2\n        /* \"#utility.yul\":29566:29570   */\n      dup2\n        /* \"#utility.yul\":29562:29582   */\n      sub\n        /* \"#utility.yul\":29558:29559   */\n      0x00\n        /* \"#utility.yul\":29547:29556   */\n      dup4\n        /* \"#utility.yul\":29543:29560   */\n      add\n        /* \"#utility.yul\":29536:29583   */\n      mstore\n        /* \"#utility.yul\":29600:29731   */\n      tag_682\n        /* \"#utility.yul\":29726:29730   */\n      dup2\n        /* \"#utility.yul\":29600:29731   */\n      tag_416\n      jump\t// in\n    tag_682:\n        /* \"#utility.yul\":29592:29731   */\n      swap1\n      pop\n        /* \"#utility.yul\":29319:29738   */\n      swap2\n      swap1\n      pop\n      jump\t// out\n        /* \"#utility.yul\":29744:29891   */\n    tag_417:\n        /* \"#utility.yul\":29845:29856   */\n      0x00\n        /* \"#utility.yul\":29882:29885   */\n      dup2\n        /* \"#utility.yul\":29867:29885   */\n      swap1\n      pop\n        /* \"#utility.yul\":29744:29891   */\n      swap3\n      swap2\n      pop\n      pop\n      jump\t// out\n        /* \"#utility.yul\":29897:30011   */\n    tag_418:\n      pop\n      jump\t// out\n        /* \"#utility.yul\":30017:30415   */\n    tag_419:\n        /* \"#utility.yul\":30176:30179   */\n      0x00\n        /* \"#utility.yul\":30197:30280   */\n      tag_686\n        /* \"#utility.yul\":30278:30279   */\n      0x00\n        /* \"#utility.yul\":30273:30276   */\n      dup4\n        /* \"#utility.yul\":30197:30280   */\n      tag_417\n      jump\t// in\n    tag_686:\n        /* \"#utility.yul\":30190:30280   */\n      swap2\n      pop\n        /* \"#utility.yul\":30289:30382   */\n      tag_687\n        /* \"#utility.yul\":30378:30381   */\n      dup3\n        /* \"#utility.yul\":30289:30382   */\n      tag_418\n      jump\t// in\n    tag_687:\n        /* \"#utility.yul\":30407:30408   */\n      0x00\n        /* \"#utility.yul\":30402:30405   */\n      dup3\n        /* \"#utility.yul\":30398:30409   */\n      add\n        /* \"#utility.yul\":30391:30409   */\n      swap1\n      pop\n        /* \"#utility.yul\":30017:30415   */\n      swap2\n      swap1\n      pop\n      jump\t// out\n        /* \"#utility.yul\":30421:30800   */\n    tag_265:\n        /* \"#utility.yul\":30605:30608   */\n      0x00\n        /* \"#utility.yul\":30627:30774   */\n      tag_689\n        /* \"#utility.yul\":30770:30773   */\n      dup3\n        /* \"#utility.yul\":30627:30774   */\n      tag_419\n      jump\t// in\n    tag_689:\n        /* \"#utility.yul\":30620:30774   */\n      swap2\n      pop\n        /* \"#utility.yul\":30791:30794   */\n      dup2\n        /* \"#utility.yul\":30784:30794   */\n      swap1\n      pop\n        /* \"#utility.yul\":30421:30800   */\n      swap2\n      swap1\n      pop\n      jump\t// out\n        /* \"#utility.yul\":30806:30928   */\n    tag_420:\n        /* \"#utility.yul\":30879:30903   */\n      tag_691\n        /* \"#utility.yul\":30897:30902   */\n      dup2\n        /* \"#utility.yul\":30879:30903   */\n      tag_385\n      jump\t// in\n    tag_691:\n        /* \"#utility.yul\":30872:30877   */\n      dup2\n        /* \"#utility.yul\":30869:30904   */\n      eq\n        /* \"#utility.yul\":30859:30922   */\n      tag_692\n      jumpi\n        /* \"#utility.yul\":30918:30919   */\n      0x00\n        /* \"#utility.yul\":30915:30916   */\n      dup1\n        /* \"#utility.yul\":30908:30920   */\n      revert\n        /* \"#utility.yul\":30859:30922   */\n    tag_692:\n        /* \"#utility.yul\":30806:30928   */\n      pop\n      jump\t// out\n        /* \"#utility.yul\":30934:31077   */\n    tag_421:\n        /* \"#utility.yul\":30991:30996   */\n      0x00\n        /* \"#utility.yul\":31022:31028   */\n      dup2\n        /* \"#utility.yul\":31016:31029   */\n      mload\n        /* \"#utility.yul\":31007:31029   */\n      swap1\n      pop\n        /* \"#utility.yul\":31038:31071   */\n      tag_694\n        /* \"#utility.yul\":31065:31070   */\n      dup2\n        /* \"#utility.yul\":31038:31071   */\n      tag_420\n      jump\t// in\n    tag_694:\n        /* \"#utility.yul\":30934:31077   */\n      swap3\n      swap2\n      pop\n      pop\n      jump\t// out\n        /* \"#utility.yul\":31083:31434   */\n    tag_282:\n        /* \"#utility.yul\":31153:31159   */\n      0x00\n        /* \"#utility.yul\":31202:31204   */\n      0x20\n        /* \"#utility.yul\":31190:31199   */\n      dup3\n        /* \"#utility.yul\":31181:31188   */\n      dup5\n        /* \"#utility.yul\":31177:31200   */\n      sub\n        /* \"#utility.yul\":31173:31205   */\n      slt\n        /* \"#utility.yul\":31170:31289   */\n      iszero\n      tag_696\n      jumpi\n        /* \"#utility.yul\":31208:31287   */\n      tag_697\n      tag_345\n      jump\t// in\n    tag_697:\n        /* \"#utility.yul\":31170:31289   */\n    tag_696:\n        /* \"#utility.yul\":31328:31329   */\n      0x00\n        /* \"#utility.yul\":31353:31417   */\n      tag_698\n        /* \"#utility.yul\":31409:31416   */\n      dup5\n        /* \"#utility.yul\":31400:31406   */\n      dup3\n        /* \"#utility.yul\":31389:31398   */\n      dup6\n        /* \"#utility.yul\":31385:31407   */\n      add\n        /* \"#utility.yul\":31353:31417   */\n      tag_421\n      jump\t// in\n    tag_698:\n        /* \"#utility.yul\":31343:31417   */\n      swap2\n      pop\n        /* \"#utility.yul\":31299:31427   */\n      pop\n        /* \"#utility.yul\":31083:31434   */\n      swap3\n      swap2\n      pop\n      pop\n      jump\t// out\n        /* \"#utility.yul\":31440:31538   */\n    tag_422:\n        /* \"#utility.yul\":31491:31497   */\n      0x00\n        /* \"#utility.yul\":31525:31530   */\n      dup2\n        /* \"#utility.yul\":31519:31531   */\n      mload\n        /* \"#utility.yul\":31509:31531   */\n      swap1\n      pop\n        /* \"#utility.yul\":31440:31538   */\n      swap2\n      swap1\n      pop\n      jump\t// out\n        /* \"#utility.yul\":31544:31930   */\n    tag_423:\n        /* \"#utility.yul\":31648:31651   */\n      0x00\n        /* \"#utility.yul\":31676:31714   */\n      tag_701\n        /* \"#utility.yul\":31708:31713   */\n      dup3\n        /* \"#utility.yul\":31676:31714   */\n      tag_422\n      jump\t// in\n    tag_701:\n        /* \"#utility.yul\":31730:31818   */\n      tag_702\n        /* \"#utility.yul\":31811:31817   */\n      dup2\n        /* \"#utility.yul\":31806:31809   */\n      dup6\n        /* \"#utility.yul\":31730:31818   */\n      tag_417\n      jump\t// in\n    tag_702:\n        /* \"#utility.yul\":31723:31818   */\n      swap4\n      pop\n        /* \"#utility.yul\":31827:31892   */\n      tag_703\n        /* \"#utility.yul\":31885:31891   */\n      dup2\n        /* \"#utility.yul\":31880:31883   */\n      dup6\n        /* \"#utility.yul\":31873:31877   */\n      0x20\n        /* \"#utility.yul\":31866:31871   */\n      dup7\n        /* \"#utility.yul\":31862:31878   */\n      add\n        /* \"#utility.yul\":31827:31892   */\n      tag_393\n      jump\t// in\n    tag_703:\n        /* \"#utility.yul\":31917:31923   */\n      dup1\n        /* \"#utility.yul\":31912:31915   */\n      dup5\n        /* \"#utility.yul\":31908:31924   */\n      add\n        /* \"#utility.yul\":31901:31924   */\n      swap2\n      pop\n        /* \"#utility.yul\":31652:31930   */\n      pop\n        /* \"#utility.yul\":31544:31930   */\n      swap3\n      swap2\n      pop\n      pop\n      jump\t// out\n        /* \"#utility.yul\":31936:32207   */\n    tag_323:\n        /* \"#utility.yul\":32066:32069   */\n      0x00\n        /* \"#utility.yul\":32088:32181   */\n      tag_705\n        /* \"#utility.yul\":32177:32180   */\n      dup3\n        /* \"#utility.yul\":32168:32174   */\n      dup5\n        /* \"#utility.yul\":32088:32181   */\n      tag_423\n      jump\t// in\n    tag_705:\n        /* \"#utility.yul\":32081:32181   */\n      swap2\n      pop\n        /* \"#utility.yul\":32198:32201   */\n      dup2\n        /* \"#utility.yul\":32191:32201   */\n      swap1\n      pop\n        /* \"#utility.yul\":31936:32207   */\n      swap3\n      swap2\n      pop\n      pop\n      jump\t// out\n\n    auxdata: 0xa26469706673582212202436e357d52c387e32fa6a73d9587281574a9062ae88fac421eec300a7cda49164736f6c634300081a0033\n}\n",
				"bytecode": {
					"linkReferences": {},
					"object": "60a06040523073ffffffffffffffffffffffffffffffffffffffff1660809073ffffffffffffffffffffffffffffffffffffffff168152503480156041575f80fd5b506080516130236100685f395f81816119a9015281816119fe0152611c3d01526130235ff3fe6080604052600436106100fd575f3560e01c80638129fc1c11610094578063b69ef8a811610063578063b69ef8a8146102f3578063be2af9cb1461031d578063c82830ea14610347578063f2c7aded1461036f578063f8b2cb4f14610379576100fd565b80638129fc1c14610263578063838d4cd1146102795780639911a149146102a1578063ad3cb1cc146102c9576100fd565b806335b0d745116100d057806335b0d745146101cb5780634f1ef286146101f557806352d1902d146102115780636a882d511461023b576100fd565b80630fa683d3146101015780631e7f8f0f1461013d578063242232d11461017957806327506f53146101a1575b5f80fd5b34801561010c575f80fd5b5061012760048036038101906101229190612110565b6103b5565b60405161013491906122ff565b60405180910390f35b348015610148575f80fd5b50610163600480360381019061015e9190612349565b61059c565b6040516101709190612396565b60405180910390f35b348015610184575f80fd5b5061019f600480360381019061019a9190612110565b6106d0565b005b3480156101ac575f80fd5b506101b5610985565b6040516101c2919061251e565b60405180910390f35b3480156101d6575f80fd5b506101df610b8e565b6040516101ec91906125aa565b60405180910390f35b61020f600480360381019061020a9190612706565b610c19565b005b34801561021c575f80fd5b50610225610c38565b6040516102329190612778565b60405180910390f35b348015610246575f80fd5b50610261600480360381019061025c9190612855565b610c69565b005b34801561026e575f80fd5b50610277610eb4565b005b348015610284575f80fd5b5061029f600480360381019061029a919061289c565b61107a565b005b3480156102ac575f80fd5b506102c760048036038101906102c29190612110565b61145c565b005b3480156102d4575f80fd5b506102dd6115c0565b6040516102ea9190612927565b60405180910390f35b3480156102fe575f80fd5b506103076115f9565b6040516103149190612396565b60405180910390f35b348015610328575f80fd5b50610331611600565b60405161033e91906125aa565b60405180910390f35b348015610352575f80fd5b5061036d6004803603810190610368919061289c565b61168b565b005b61037761188e565b005b348015610384575f80fd5b5061039f600480360381019061039a919061289c565b611890565b6040516103ac9190612396565b60405180910390f35b6103bd612075565b600582815481106103d1576103d0612947565b5b905f5260205f209060080201604051806101000160405290815f82015f9054906101000a900473ffffffffffffffffffffffffffffffffffffffff1673ffffffffffffffffffffffffffffffffffffffff1673ffffffffffffffffffffffffffffffffffffffff16815260200160018201548152602001600282018054806020026020016040519081016040528092919081815260200182805480156104c957602002820191905f5260205f20905b815f9054906101000a900473ffffffffffffffffffffffffffffffffffffffff1673ffffffffffffffffffffffffffffffffffffffff1681526020019060010190808311610480575b505050505081526020016003820180548060200260200160405190810160405280929190818152602001828054801561055457602002820191905f5260205f20905b815f9054906101000a900473ffffffffffffffffffffffffffffffffffffffff1673ffffffffffffffffffffffffffffffffffffffff168152602001906001019080831161050b575b50505050508152602001600482015f9054906101000a900460ff1615151515815260200160058201548152602001600682015481526020016007820154815250509050919050565b5f814710156105e0576040517f08c379a00000000000000000000000000000000000000000000000000000000081526004016105d7906129e4565b60405180910390fd5b5f60058054905090505f600560018160018154018082558091505003905f5260205f209060080201905084815f015f6101000a81548173ffffffffffffffffffffffffffffffffffffffff021916908373ffffffffffffffffffffffffffffffffffffffff1602179055508381600101819055505f816004015f6101000a81548160ff0219169083151502179055504281600501819055505f81600601819055505f81600701819055507ffd27d176b6ebb21e0182c0e43df5818e0d632867e1eb47c383c58d221205fce38286866040516106bd93929190612a11565b60405180910390a1819250505092915050565b60015f3373ffffffffffffffffffffffffffffffffffffffff1673ffffffffffffffffffffffffffffffffffffffff1681526020019081526020015f205f9054906101000a900460ff16610759576040517f08c379a000000000000000000000000000000000000000000000000000000000815260040161075090612ab6565b60405180910390fd5b5f6005828154811061076e5761076d612947565b5b905f5260205f2090600802019050806004015f9054906101000a900460ff16156107cd576040517f08c379a00000000000000000000000000000000000000000000000000000000081526004016107c490612b44565b60405180910390fd5b8060020133908060018154018082558091505060019003905f5260205f20015f9091909190916101000a81548173ffffffffffffffffffffffffffffffffffffffff021916908373ffffffffffffffffffffffffffffffffffffffff160217905550806006015f81548092919061084390612b8f565b9190505550610862600754600260065461085d9190612c03565b6118b0565b81600601541061094757610875826118c8565b156108e0577fe90ae330e5aefc2a73ddff0dd88bcaf8f4a0629d6553a2a85b22cac3d5f4a19e82825f015f9054906101000a900473ffffffffffffffffffffffffffffffffffffffff1683600101546040516108d393929190612a11565b60405180910390a1610942565b7fe015d34eef89d312e7f4ce9ac2b7d0a952a1a5329981aa762e2a64ccfd88dcc382825f015f9054906101000a900473ffffffffffffffffffffffffffffffffffffffff16836001015460405161093993929190612a11565b60405180910390a15b610981565b7f924813d717e221b5f46dcd8a56da1679e4612584ab3237d55e5faabf6f6a30798233604051610978929190612c33565b60405180910390a15b5050565b60606005805480602002602001604051908101604052809291908181526020015f905b82821015610b85578382905f5260205f209060080201604051806101000160405290815f82015f9054906101000a900473ffffffffffffffffffffffffffffffffffffffff1673ffffffffffffffffffffffffffffffffffffffff1673ffffffffffffffffffffffffffffffffffffffff1681526020016001820154815260200160028201805480602002602001604051908101604052809291908181526020018280548015610aaa57602002820191905f5260205f20905b815f9054906101000a900473ffffffffffffffffffffffffffffffffffffffff1673ffffffffffffffffffffffffffffffffffffffff1681526020019060010190808311610a61575b5050505050815260200160038201805480602002602001604051908101604052809291908181526020018280548015610b3557602002820191905f5260205f20905b815f9054906101000a900473ffffffffffffffffffffffffffffffffffffffff1673ffffffffffffffffffffffffffffffffffffffff1681526020019060010190808311610aec575b50505050508152602001600482015f9054906101000a900460ff161515151581526020016005820154815260200160068201548152602001600782015481525050815260200190600101906109a8565b50505050905090565b60606004805480602002602001604051908101604052809291908181526020018280548015610c0f57602002820191905f5260205f20905b815f9054906101000a900473ffffffffffffffffffffffffffffffffffffffff1673ffffffffffffffffffffffffffffffffffffffff1681526020019060010190808311610bc6575b5050505050905090565b610c216119a7565b610c2a82611a8d565b610c348282611b1d565b5050565b5f610c41611c3b565b7f360894a13ba1a3210667c828492db98dca3e2076cc3735a920a3ca505d382bbc5f1b905090565b5f8054906101000a900473ffffffffffffffffffffffffffffffffffffffff1673ffffffffffffffffffffffffffffffffffffffff163373ffffffffffffffffffffffffffffffffffffffff1614610cf6576040517f08c379a0000000000000000000000000000000000000000000000000000000008152600401610ced90612cca565b60405180910390fd5b5f5b8151811015610eb05760015f838381518110610d1757610d16612947565b5b602002602001015173ffffffffffffffffffffffffffffffffffffffff1673ffffffffffffffffffffffffffffffffffffffff1681526020019081526020015f205f9054906101000a900460ff16610ea3576001805f848481518110610d8057610d7f612947565b5b602002602001015173ffffffffffffffffffffffffffffffffffffffff1673ffffffffffffffffffffffffffffffffffffffff1681526020019081526020015f205f6101000a81548160ff0219169083151502179055506003828281518110610dec57610deb612947565b5b6020026020010151908060018154018082558091505060019003905f5260205f20015f9091909190916101000a81548173ffffffffffffffffffffffffffffffffffffffff021916908373ffffffffffffffffffffffffffffffffffffffff1602179055507f8ffbf603707f31ab466f6b711c89ae5521b6f93b25d3f86200054018476696d6828281518110610e8557610e84612947565b5b6020026020010151604051610e9a9190612ce8565b60405180910390a15b8080600101915050610cf8565b5050565b5f610ebd611cc2565b90505f815f0160089054906101000a900460ff161590505f825f015f9054906101000a900467ffffffffffffffff1690505f808267ffffffffffffffff16148015610f055750825b90505f60018367ffffffffffffffff16148015610f3857505f3073ffffffffffffffffffffffffffffffffffffffff163b145b905081158015610f46575080155b15610f7d576040517ff92ee8a900000000000000000000000000000000000000000000000000000000815260040160405180910390fd5b6001855f015f6101000a81548167ffffffffffffffff021916908367ffffffffffffffff1602179055508315610fca576001855f0160086101000a81548160ff0219169083151502179055505b610fd2611ce9565b335f806101000a81548173ffffffffffffffffffffffffffffffffffffffff021916908373ffffffffffffffffffffffffffffffffffffffff16021790555060056007819055508315611073575f855f0160086101000a81548160ff0219169083151502179055507fc7f505b2f371ae2175ee4913f4499e1f2633a7b5936321eed1cdaeb6115181d2600160405161106a9190612d56565b60405180910390a15b5050505050565b5f8054906101000a900473ffffffffffffffffffffffffffffffffffffffff1673ffffffffffffffffffffffffffffffffffffffff163373ffffffffffffffffffffffffffffffffffffffff1614611107576040517f08c379a00000000000000000000000000000000000000000000000000000000081526004016110fe90612cca565b60405180910390fd5b60015f8273ffffffffffffffffffffffffffffffffffffffff1673ffffffffffffffffffffffffffffffffffffffff1681526020019081526020015f205f9054906101000a900460ff1615611191576040517f08c379a000000000000000000000000000000000000000000000000000000000815260040161118890612db9565b60405180910390fd5b60025f8273ffffffffffffffffffffffffffffffffffffffff1673ffffffffffffffffffffffffffffffffffffffff1681526020019081526020015f205f6101000a81549060ff02191690555f5b600480549050811015611356578173ffffffffffffffffffffffffffffffffffffffff166004828154811061121757611216612947565b5b905f5260205f20015f9054906101000a900473ffffffffffffffffffffffffffffffffffffffff1673ffffffffffffffffffffffffffffffffffffffff1603611349576004600160048054905061126e9190612dd7565b8154811061127f5761127e612947565b5b905f5260205f20015f9054906101000a900473ffffffffffffffffffffffffffffffffffffffff16600482815481106112bb576112ba612947565b5b905f5260205f20015f6101000a81548173ffffffffffffffffffffffffffffffffffffffff021916908373ffffffffffffffffffffffffffffffffffffffff160217905550600480548061131257611311612e0a565b5b600190038181905f5260205f20015f6101000a81549073ffffffffffffffffffffffffffffffffffffffff02191690559055611356565b80806001019150506111df565b506001805f8373ffffffffffffffffffffffffffffffffffffffff1673ffffffffffffffffffffffffffffffffffffffff1681526020019081526020015f205f6101000a81548160ff021916908315150217905550600381908060018154018082558091505060019003905f5260205f20015f9091909190916101000a81548173ffffffffffffffffffffffffffffffffffffffff021916908373ffffffffffffffffffffffffffffffffffffffff16021790555060065f81548092919061141d90612b8f565b91905055507f8ffbf603707f31ab466f6b711c89ae5521b6f93b25d3f86200054018476696d6816040516114519190612ce8565b60405180910390a150565b60015f3373ffffffffffffffffffffffffffffffffffffffff1673ffffffffffffffffffffffffffffffffffffffff1681526020019081526020015f205f9054906101000a900460ff166114e5576040517f08c379a00000000000000000000000000000000000000000000000000000000081526004016114dc90612ab6565b60405180910390fd5b5f600582815481106114fa576114f9612947565b5b905f5260205f20906008020190508060030133908060018154018082558091505060019003905f5260205f20015f9091909190916101000a81548173ffffffffffffffffffffffffffffffffffffffff021916908373ffffffffffffffffffffffffffffffffffffffff160217905550806007015f81548092919061157e90612b8f565b91905055507f51e2a629616d21b16f9d1d2549b4b88aba4d3b132f12a47ef7696e4a4263d1e882336040516115b4929190612c33565b60405180910390a15050565b6040518060400160405280600581526020017f352e302e3000000000000000000000000000000000000000000000000000000081525081565b5f47905090565b6060600380548060200260200160405190810160405280929190818152602001828054801561168157602002820191905f5260205f20905b815f9054906101000a900473ffffffffffffffffffffffffffffffffffffffff1673ffffffffffffffffffffffffffffffffffffffff1681526020019060010190808311611638575b5050505050905090565b60015f8273ffffffffffffffffffffffffffffffffffffffff1673ffffffffffffffffffffffffffffffffffffffff1681526020019081526020015f205f9054906101000a900460ff1615611715576040517f08c379a000000000000000000000000000000000000000000000000000000000815260040161170c90612e81565b60405180910390fd5b60025f8273ffffffffffffffffffffffffffffffffffffffff1673ffffffffffffffffffffffffffffffffffffffff1681526020019081526020015f205f9054906101000a900460ff161561179f576040517f08c379a000000000000000000000000000000000000000000000000000000000815260040161179690612ee9565b60405180910390fd5b600481908060018154018082558091505060019003905f5260205f20015f9091909190916101000a81548173ffffffffffffffffffffffffffffffffffffffff021916908373ffffffffffffffffffffffffffffffffffffffff160217905550600160025f8373ffffffffffffffffffffffffffffffffffffffff1673ffffffffffffffffffffffffffffffffffffffff1681526020019081526020015f205f6101000a81548160ff0219169083151502179055507f626e4500941465f8684ab220d11d81f3a776c4ed7010715f25cd8e772dcbb484816040516118839190612ce8565b60405180910390a150565b565b5f8173ffffffffffffffffffffffffffffffffffffffff16319050919050565b5f8183116118be57816118c0565b825b905092915050565b5f80600583815481106118de576118dd612947565b5b905f5260205f20906008020190505f815f015f9054906101000a900473ffffffffffffffffffffffffffffffffffffffff1673ffffffffffffffffffffffffffffffffffffffff16826001015460405161193790612f34565b5f6040518083038185875af1925050503d805f8114611971576040519150601f19603f3d011682016040523d82523d5f602084013e611976565b606091505b50509050801561199d576001826004015f6101000a81548160ff0219169083151502179055505b8092505050919050565b7f000000000000000000000000000000000000000000000000000000000000000073ffffffffffffffffffffffffffffffffffffffff163073ffffffffffffffffffffffffffffffffffffffff161480611a5457507f000000000000000000000000000000000000000000000000000000000000000073ffffffffffffffffffffffffffffffffffffffff16611a3b611cf3565b73ffffffffffffffffffffffffffffffffffffffff1614155b15611a8b576040517fe07c8dba00000000000000000000000000000000000000000000000000000000815260040160405180910390fd5b565b5f8054906101000a900473ffffffffffffffffffffffffffffffffffffffff1673ffffffffffffffffffffffffffffffffffffffff163373ffffffffffffffffffffffffffffffffffffffff1614611b1a576040517f08c379a0000000000000000000000000000000000000000000000000000000008152600401611b1190612cca565b60405180910390fd5b50565b8173ffffffffffffffffffffffffffffffffffffffff166352d1902d6040518163ffffffff1660e01b8152600401602060405180830381865afa925050508015611b8557506040513d601f19601f82011682018060405250810190611b829190612f72565b60015b611bc657816040517f4c9c8ce3000000000000000000000000000000000000000000000000000000008152600401611bbd9190612ce8565b60405180910390fd5b7f360894a13ba1a3210667c828492db98dca3e2076cc3735a920a3ca505d382bbc5f1b8114611c2c57806040517faa1d49a4000000000000000000000000000000000000000000000000000000008152600401611c239190612778565b60405180910390fd5b611c368383611d46565b505050565b7f000000000000000000000000000000000000000000000000000000000000000073ffffffffffffffffffffffffffffffffffffffff163073ffffffffffffffffffffffffffffffffffffffff1614611cc0576040517fe07c8dba00000000000000000000000000000000000000000000000000000000815260040160405180910390fd5b565b5f7ff0c57e16840df040f15088dc2f81fe391c3923bec73e23a9662efc9c229c6a00905090565b611cf1611db8565b565b5f611d1f7f360894a13ba1a3210667c828492db98dca3e2076cc3735a920a3ca505d382bbc5f1b611df8565b5f015f9054906101000a900473ffffffffffffffffffffffffffffffffffffffff16905090565b611d4f82611e01565b8173ffffffffffffffffffffffffffffffffffffffff167fbc7cd75a20ee27fd9adebab32041f755214dbc6bffa90cc0225b39da2e5c2d3b60405160405180910390a25f81511115611dab57611da58282611eca565b50611db4565b611db3611f4a565b5b5050565b611dc0611f86565b611df6576040517fd7e6bcf800000000000000000000000000000000000000000000000000000000815260040160405180910390fd5b565b5f819050919050565b5f8173ffffffffffffffffffffffffffffffffffffffff163b03611e5c57806040517f4c9c8ce3000000000000000000000000000000000000000000000000000000008152600401611e539190612ce8565b60405180910390fd5b80611e887f360894a13ba1a3210667c828492db98dca3e2076cc3735a920a3ca505d382bbc5f1b611df8565b5f015f6101000a81548173ffffffffffffffffffffffffffffffffffffffff021916908373ffffffffffffffffffffffffffffffffffffffff16021790555050565b60605f808473ffffffffffffffffffffffffffffffffffffffff1684604051611ef39190612fd7565b5f60405180830381855af49150503d805f8114611f2b576040519150601f19603f3d011682016040523d82523d5f602084013e611f30565b606091505b5091509150611f40858383611fa4565b9250505092915050565b5f341115611f84576040517fb398979f00000000000000000000000000000000000000000000000000000000815260040160405180910390fd5b565b5f611f8f611cc2565b5f0160089054906101000a900460ff16905090565b606082611fb957611fb482612031565b612029565b5f8251148015611fdf57505f8473ffffffffffffffffffffffffffffffffffffffff163b145b1561202157836040517f9996b3150000000000000000000000000000000000000000000000000000000081526004016120189190612ce8565b60405180910390fd5b81905061202a565b5b9392505050565b5f815111156120435780518082602001fd5b6040517f1425ea4200000000000000000000000000000000000000000000000000000000815260040160405180910390fd5b6040518061010001604052805f73ffffffffffffffffffffffffffffffffffffffff1681526020015f815260200160608152602001606081526020015f151581526020015f81526020015f81526020015f81525090565b5f604051905090565b5f80fd5b5f80fd5b5f819050919050565b6120ef816120dd565b81146120f9575f80fd5b50565b5f8135905061210a816120e6565b92915050565b5f60208284031215612125576121246120d5565b5b5f612132848285016120fc565b91505092915050565b5f73ffffffffffffffffffffffffffffffffffffffff82169050919050565b5f6121648261213b565b9050919050565b6121748161215a565b82525050565b612183816120dd565b82525050565b5f81519050919050565b5f82825260208201905092915050565b5f819050602082019050919050565b5f6121bd838361216b565b60208301905092915050565b5f602082019050919050565b5f6121df82612189565b6121e98185612193565b93506121f4836121a3565b805f5b8381101561222457815161220b88826121b2565b9750612216836121c9565b9250506001810190506121f7565b5085935050505092915050565b5f8115159050919050565b61224581612231565b82525050565b5f61010083015f8301516122615f86018261216b565b506020830151612274602086018261217a565b506040830151848203604086015261228c82826121d5565b915050606083015184820360608601526122a682826121d5565b91505060808301516122bb608086018261223c565b5060a08301516122ce60a086018261217a565b5060c08301516122e160c086018261217a565b5060e08301516122f460e086018261217a565b508091505092915050565b5f6020820190508181035f830152612317818461224b565b905092915050565b6123288161215a565b8114612332575f80fd5b50565b5f813590506123438161231f565b92915050565b5f806040838503121561235f5761235e6120d5565b5b5f61236c85828601612335565b925050602061237d858286016120fc565b9150509250929050565b612390816120dd565b82525050565b5f6020820190506123a95f830184612387565b92915050565b5f81519050919050565b5f82825260208201905092915050565b5f819050602082019050919050565b5f61010083015f8301516123ee5f86018261216b565b506020830151612401602086018261217a565b506040830151848203604086015261241982826121d5565b9150506060830151848203606086015261243382826121d5565b9150506080830151612448608086018261223c565b5060a083015161245b60a086018261217a565b5060c083015161246e60c086018261217a565b5060e083015161248160e086018261217a565b508091505092915050565b5f61249783836123d8565b905092915050565b5f602082019050919050565b5f6124b5826123af565b6124bf81856123b9565b9350836020820285016124d1856123c9565b805f5b8581101561250c57848403895281516124ed858261248c565b94506124f88361249f565b925060208a019950506001810190506124d4565b50829750879550505050505092915050565b5f6020820190508181035f83015261253681846124ab565b905092915050565b5f82825260208201905092915050565b5f61255882612189565b612562818561253e565b935061256d836121a3565b805f5b8381101561259d57815161258488826121b2565b975061258f836121c9565b925050600181019050612570565b5085935050505092915050565b5f6020820190508181035f8301526125c2818461254e565b905092915050565b5f80fd5b5f80fd5b5f601f19601f8301169050919050565b7f4e487b71000000000000000000000000000000000000000000000000000000005f52604160045260245ffd5b612618826125d2565b810181811067ffffffffffffffff82111715612637576126366125e2565b5b80604052505050565b5f6126496120cc565b9050612655828261260f565b919050565b5f67ffffffffffffffff821115612674576126736125e2565b5b61267d826125d2565b9050602081019050919050565b828183375f83830152505050565b5f6126aa6126a58461265a565b612640565b9050828152602081018484840111156126c6576126c56125ce565b5b6126d184828561268a565b509392505050565b5f82601f8301126126ed576126ec6125ca565b5b81356126fd848260208601612698565b91505092915050565b5f806040838503121561271c5761271b6120d5565b5b5f61272985828601612335565b925050602083013567ffffffffffffffff81111561274a576127496120d9565b5b612756858286016126d9565b9150509250929050565b5f819050919050565b61277281612760565b82525050565b5f60208201905061278b5f830184612769565b92915050565b5f67ffffffffffffffff8211156127ab576127aa6125e2565b5b602082029050602081019050919050565b5f80fd5b5f6127d26127cd84612791565b612640565b905080838252602082019050602084028301858111156127f5576127f46127bc565b5b835b8181101561281e578061280a8882612335565b8452602084019350506020810190506127f7565b5050509392505050565b5f82601f83011261283c5761283b6125ca565b5b813561284c8482602086016127c0565b91505092915050565b5f6020828403121561286a576128696120d5565b5b5f82013567ffffffffffffffff811115612887576128866120d9565b5b61289384828501612828565b91505092915050565b5f602082840312156128b1576128b06120d5565b5b5f6128be84828501612335565b91505092915050565b5f81519050919050565b5f82825260208201905092915050565b8281835e5f83830152505050565b5f6128f9826128c7565b61290381856128d1565b93506129138185602086016128e1565b61291c816125d2565b840191505092915050565b5f6020820190508181035f83015261293f81846128ef565b905092915050565b7f4e487b71000000000000000000000000000000000000000000000000000000005f52603260045260245ffd5b7f496e73756666696369656e742062616c616e636520696e2074686520636f6e745f8201527f7261637400000000000000000000000000000000000000000000000000000000602082015250565b5f6129ce6024836128d1565b91506129d982612974565b604082019050919050565b5f6020820190508181035f8301526129fb816129c2565b9050919050565b612a0b8161215a565b82525050565b5f606082019050612a245f830186612387565b612a316020830185612a02565b612a3e6040830184612387565b949350505050565b7f546869732066756e6374696f6e2063616e206f6e6c792062652063616c6c65645f8201527f20627920616e20417070726f7665720000000000000000000000000000000000602082015250565b5f612aa0602f836128d1565b9150612aab82612a46565b604082019050919050565b5f6020820190508181035f830152612acd81612a94565b9050919050565b7f546865205472616e73616374696f6e20697320616c72656164792065786563755f8201527f7465640000000000000000000000000000000000000000000000000000000000602082015250565b5f612b2e6023836128d1565b9150612b3982612ad4565b604082019050919050565b5f6020820190508181035f830152612b5b81612b22565b9050919050565b7f4e487b71000000000000000000000000000000000000000000000000000000005f52601160045260245ffd5b5f612b99826120dd565b91507fffffffffffffffffffffffffffffffffffffffffffffffffffffffffffffffff8203612bcb57612bca612b62565b5b600182019050919050565b7f4e487b71000000000000000000000000000000000000000000000000000000005f52601260045260245ffd5b5f612c0d826120dd565b9150612c18836120dd565b925082612c2857612c27612bd6565b5b828204905092915050565b5f604082019050612c465f830185612387565b612c536020830184612a02565b9392505050565b7f596f7520617265206e6f7420746865206f776e65722068656e63652063616e275f8201527f74206368616e6765207468697320000000000000000000000000000000000000602082015250565b5f612cb4602e836128d1565b9150612cbf82612c5a565b604082019050919050565b5f6020820190508181035f830152612ce181612ca8565b9050919050565b5f602082019050612cfb5f830184612a02565b92915050565b5f819050919050565b5f67ffffffffffffffff82169050919050565b5f819050919050565b5f612d40612d3b612d3684612d01565b612d1d565b612d0a565b9050919050565b612d5081612d26565b82525050565b5f602082019050612d695f830184612d47565b92915050565b7f596f752061726520616c726561647920617070726f76656400000000000000005f82015250565b5f612da36018836128d1565b9150612dae82612d6f565b602082019050919050565b5f6020820190508181035f830152612dd081612d97565b9050919050565b5f612de1826120dd565b9150612dec836120dd565b9250828203905081811115612e0457612e03612b62565b5b92915050565b7f4e487b71000000000000000000000000000000000000000000000000000000005f52603160045260245ffd5b7f596f752061726520616c726561647920616e20617070726f76657200000000005f82015250565b5f612e6b601b836128d1565b9150612e7682612e37565b602082019050919050565b5f6020820190508181035f830152612e9881612e5f565b9050919050565b7f596f75204861766520616c7265616479206170706c69656400000000000000005f82015250565b5f612ed36018836128d1565b9150612ede82612e9f565b602082019050919050565b5f6020820190508181035f830152612f0081612ec7565b9050919050565b5f81905092915050565b50565b5f612f1f5f83612f07565b9150612f2a82612f11565b5f82019050919050565b5f612f3e82612f14565b9150819050919050565b612f5181612760565b8114612f5b575f80fd5b50565b5f81519050612f6c81612f48565b92915050565b5f60208284031215612f8757612f866120d5565b5b5f612f9484828501612f5e565b91505092915050565b5f81519050919050565b5f612fb182612f9d565b612fbb8185612f07565b9350612fcb8185602086016128e1565b80840191505092915050565b5f612fe28284612fa7565b91508190509291505056fea26469706673582212202436e357d52c387e32fa6a73d9587281574a9062ae88fac421eec300a7cda49164736f6c634300081a0033",
					"opcodes": "PUSH1 0xA0 PUSH1 0x40 MSTORE ADDRESS PUSH20 0xFFFFFFFFFFFFFFFFFFFFFFFFFFFFFFFFFFFFFFFF AND PUSH1 0x80 SWAP1 PUSH20 0xFFFFFFFFFFFFFFFFFFFFFFFFFFFFFFFFFFFFFFFF AND DUP2 MSTORE POP CALLVALUE DUP1 ISZERO PUSH1 0x41 JUMPI PUSH0 DUP1 REVERT JUMPDEST POP PUSH1 0x80 MLOAD PUSH2 0x3023 PUSH2 0x68 PUSH0 CODECOPY PUSH0 DUP2 DUP2 PUSH2 0x19A9 ADD MSTORE DUP2 DUP2 PUSH2 0x19FE ADD MSTORE PUSH2 0x1C3D ADD MSTORE PUSH2 0x3023 PUSH0 RETURN INVALID PUSH1 0x80 PUSH1 0x40 MSTORE PUSH1 0x4 CALLDATASIZE LT PUSH2 0xFD JUMPI PUSH0 CALLDATALOAD PUSH1 0xE0 SHR DUP1 PUSH4 0x8129FC1C GT PUSH2 0x94 JUMPI DUP1 PUSH4 0xB69EF8A8 GT PUSH2 0x63 JUMPI DUP1 PUSH4 0xB69EF8A8 EQ PUSH2 0x2F3 JUMPI DUP1 PUSH4 0xBE2AF9CB EQ PUSH2 0x31D JUMPI DUP1 PUSH4 0xC82830EA EQ PUSH2 0x347 JUMPI DUP1 PUSH4 0xF2C7ADED EQ PUSH2 0x36F JUMPI DUP1 PUSH4 0xF8B2CB4F EQ PUSH2 0x379 JUMPI PUSH2 0xFD JUMP JUMPDEST DUP1 PUSH4 0x8129FC1C EQ PUSH2 0x263 JUMPI DUP1 PUSH4 0x838D4CD1 EQ PUSH2 0x279 JUMPI DUP1 PUSH4 0x9911A149 EQ PUSH2 0x2A1 JUMPI DUP1 PUSH4 0xAD3CB1CC EQ PUSH2 0x2C9 JUMPI PUSH2 0xFD JUMP JUMPDEST DUP1 PUSH4 0x35B0D745 GT PUSH2 0xD0 JUMPI DUP1 PUSH4 0x35B0D745 EQ PUSH2 0x1CB JUMPI DUP1 PUSH4 0x4F1EF286 EQ PUSH2 0x1F5 JUMPI DUP1 PUSH4 0x52D1902D EQ PUSH2 0x211 JUMPI DUP1 PUSH4 0x6A882D51 EQ PUSH2 0x23B JUMPI PUSH2 0xFD JUMP JUMPDEST DUP1 PUSH4 0xFA683D3 EQ PUSH2 0x101 JUMPI DUP1 PUSH4 0x1E7F8F0F EQ PUSH2 0x13D JUMPI DUP1 PUSH4 0x242232D1 EQ PUSH2 0x179 JUMPI DUP1 PUSH4 0x27506F53 EQ PUSH2 0x1A1 JUMPI JUMPDEST PUSH0 DUP1 REVERT JUMPDEST CALLVALUE DUP1 ISZERO PUSH2 0x10C JUMPI PUSH0 DUP1 REVERT JUMPDEST POP PUSH2 0x127 PUSH1 0x4 DUP1 CALLDATASIZE SUB DUP2 ADD SWAP1 PUSH2 0x122 SWAP2 SWAP1 PUSH2 0x2110 JUMP JUMPDEST PUSH2 0x3B5 JUMP JUMPDEST PUSH1 0x40 MLOAD PUSH2 0x134 SWAP2 SWAP1 PUSH2 0x22FF JUMP JUMPDEST PUSH1 0x40 MLOAD DUP1 SWAP2 SUB SWAP1 RETURN JUMPDEST CALLVALUE DUP1 ISZERO PUSH2 0x148 JUMPI PUSH0 DUP1 REVERT JUMPDEST POP PUSH2 0x163 PUSH1 0x4 DUP1 CALLDATASIZE SUB DUP2 ADD SWAP1 PUSH2 0x15E SWAP2 SWAP1 PUSH2 0x2349 JUMP JUMPDEST PUSH2 0x59C JUMP JUMPDEST PUSH1 0x40 MLOAD PUSH2 0x170 SWAP2 SWAP1 PUSH2 0x2396 JUMP JUMPDEST PUSH1 0x40 MLOAD DUP1 SWAP2 SUB SWAP1 RETURN JUMPDEST CALLVALUE DUP1 ISZERO PUSH2 0x184 JUMPI PUSH0 DUP1 REVERT JUMPDEST POP PUSH2 0x19F PUSH1 0x4 DUP1 CALLDATASIZE SUB DUP2 ADD SWAP1 PUSH2 0x19A SWAP2 SWAP1 PUSH2 0x2110 JUMP JUMPDEST PUSH2 0x6D0 JUMP JUMPDEST STOP JUMPDEST CALLVALUE DUP1 ISZERO PUSH2 0x1AC JUMPI PUSH0 DUP1 REVERT JUMPDEST POP PUSH2 0x1B5 PUSH2 0x985 JUMP JUMPDEST PUSH1 0x40 MLOAD PUSH2 0x1C2 SWAP2 SWAP1 PUSH2 0x251E JUMP JUMPDEST PUSH1 0x40 MLOAD DUP1 SWAP2 SUB SWAP1 RETURN JUMPDEST CALLVALUE DUP1 ISZERO PUSH2 0x1D6 JUMPI PUSH0 DUP1 REVERT JUMPDEST POP PUSH2 0x1DF PUSH2 0xB8E JUMP JUMPDEST PUSH1 0x40 MLOAD PUSH2 0x1EC SWAP2 SWAP1 PUSH2 0x25AA JUMP JUMPDEST PUSH1 0x40 MLOAD DUP1 SWAP2 SUB SWAP1 RETURN JUMPDEST PUSH2 0x20F PUSH1 0x4 DUP1 CALLDATASIZE SUB DUP2 ADD SWAP1 PUSH2 0x20A SWAP2 SWAP1 PUSH2 0x2706 JUMP JUMPDEST PUSH2 0xC19 JUMP JUMPDEST STOP JUMPDEST CALLVALUE DUP1 ISZERO PUSH2 0x21C JUMPI PUSH0 DUP1 REVERT JUMPDEST POP PUSH2 0x225 PUSH2 0xC38 JUMP JUMPDEST PUSH1 0x40 MLOAD PUSH2 0x232 SWAP2 SWAP1 PUSH2 0x2778 JUMP JUMPDEST PUSH1 0x40 MLOAD DUP1 SWAP2 SUB SWAP1 RETURN JUMPDEST CALLVALUE DUP1 ISZERO PUSH2 0x246 JUMPI PUSH0 DUP1 REVERT JUMPDEST POP PUSH2 0x261 PUSH1 0x4 DUP1 CALLDATASIZE SUB DUP2 ADD SWAP1 PUSH2 0x25C SWAP2 SWAP1 PUSH2 0x2855 JUMP JUMPDEST PUSH2 0xC69 JUMP JUMPDEST STOP JUMPDEST CALLVALUE DUP1 ISZERO PUSH2 0x26E JUMPI PUSH0 DUP1 REVERT JUMPDEST POP PUSH2 0x277 PUSH2 0xEB4 JUMP JUMPDEST STOP JUMPDEST CALLVALUE DUP1 ISZERO PUSH2 0x284 JUMPI PUSH0 DUP1 REVERT JUMPDEST POP PUSH2 0x29F PUSH1 0x4 DUP1 CALLDATASIZE SUB DUP2 ADD SWAP1 PUSH2 0x29A SWAP2 SWAP1 PUSH2 0x289C JUMP JUMPDEST PUSH2 0x107A JUMP JUMPDEST STOP JUMPDEST CALLVALUE DUP1 ISZERO PUSH2 0x2AC JUMPI PUSH0 DUP1 REVERT JUMPDEST POP PUSH2 0x2C7 PUSH1 0x4 DUP1 CALLDATASIZE SUB DUP2 ADD SWAP1 PUSH2 0x2C2 SWAP2 SWAP1 PUSH2 0x2110 JUMP JUMPDEST PUSH2 0x145C JUMP JUMPDEST STOP JUMPDEST CALLVALUE DUP1 ISZERO PUSH2 0x2D4 JUMPI PUSH0 DUP1 REVERT JUMPDEST POP PUSH2 0x2DD PUSH2 0x15C0 JUMP JUMPDEST PUSH1 0x40 MLOAD PUSH2 0x2EA SWAP2 SWAP1 PUSH2 0x2927 JUMP JUMPDEST PUSH1 0x40 MLOAD DUP1 SWAP2 SUB SWAP1 RETURN JUMPDEST CALLVALUE DUP1 ISZERO PUSH2 0x2FE JUMPI PUSH0 DUP1 REVERT JUMPDEST POP PUSH2 0x307 PUSH2 0x15F9 JUMP JUMPDEST PUSH1 0x40 MLOAD PUSH2 0x314 SWAP2 SWAP1 PUSH2 0x2396 JUMP JUMPDEST PUSH1 0x40 MLOAD DUP1 SWAP2 SUB SWAP1 RETURN JUMPDEST CALLVALUE DUP1 ISZERO PUSH2 0x328 JUMPI PUSH0 DUP1 REVERT JUMPDEST POP PUSH2 0x331 PUSH2 0x1600 JUMP JUMPDEST PUSH1 0x40 MLOAD PUSH2 0x33E SWAP2 SWAP1 PUSH2 0x25AA JUMP JUMPDEST PUSH1 0x40 MLOAD DUP1 SWAP2 SUB SWAP1 RETURN JUMPDEST CALLVALUE DUP1 ISZERO PUSH2 0x352 JUMPI PUSH0 DUP1 REVERT JUMPDEST POP PUSH2 0x36D PUSH1 0x4 DUP1 CALLDATASIZE SUB DUP2 ADD SWAP1 PUSH2 0x368 SWAP2 SWAP1 PUSH2 0x289C JUMP JUMPDEST PUSH2 0x168B JUMP JUMPDEST STOP JUMPDEST PUSH2 0x377 PUSH2 0x188E JUMP JUMPDEST STOP JUMPDEST CALLVALUE DUP1 ISZERO PUSH2 0x384 JUMPI PUSH0 DUP1 REVERT JUMPDEST POP PUSH2 0x39F PUSH1 0x4 DUP1 CALLDATASIZE SUB DUP2 ADD SWAP1 PUSH2 0x39A SWAP2 SWAP1 PUSH2 0x289C JUMP JUMPDEST PUSH2 0x1890 JUMP JUMPDEST PUSH1 0x40 MLOAD PUSH2 0x3AC SWAP2 SWAP1 PUSH2 0x2396 JUMP JUMPDEST PUSH1 0x40 MLOAD DUP1 SWAP2 SUB SWAP1 RETURN JUMPDEST PUSH2 0x3BD PUSH2 0x2075 JUMP JUMPDEST PUSH1 0x5 DUP3 DUP2 SLOAD DUP2 LT PUSH2 0x3D1 JUMPI PUSH2 0x3D0 PUSH2 0x2947 JUMP JUMPDEST JUMPDEST SWAP1 PUSH0 MSTORE PUSH1 0x20 PUSH0 KECCAK256 SWAP1 PUSH1 0x8 MUL ADD PUSH1 0x40 MLOAD DUP1 PUSH2 0x100 ADD PUSH1 0x40 MSTORE SWAP1 DUP2 PUSH0 DUP3 ADD PUSH0 SWAP1 SLOAD SWAP1 PUSH2 0x100 EXP SWAP1 DIV PUSH20 0xFFFFFFFFFFFFFFFFFFFFFFFFFFFFFFFFFFFFFFFF AND PUSH20 0xFFFFFFFFFFFFFFFFFFFFFFFFFFFFFFFFFFFFFFFF AND PUSH20 0xFFFFFFFFFFFFFFFFFFFFFFFFFFFFFFFFFFFFFFFF AND DUP2 MSTORE PUSH1 0x20 ADD PUSH1 0x1 DUP3 ADD SLOAD DUP2 MSTORE PUSH1 0x20 ADD PUSH1 0x2 DUP3 ADD DUP1 SLOAD DUP1 PUSH1 0x20 MUL PUSH1 0x20 ADD PUSH1 0x40 MLOAD SWAP1 DUP2 ADD PUSH1 0x40 MSTORE DUP1 SWAP3 SWAP2 SWAP1 DUP2 DUP2 MSTORE PUSH1 0x20 ADD DUP3 DUP1 SLOAD DUP1 ISZERO PUSH2 0x4C9 JUMPI PUSH1 0x20 MUL DUP3 ADD SWAP2 SWAP1 PUSH0 MSTORE PUSH1 0x20 PUSH0 KECCAK256 SWAP1 JUMPDEST DUP2 PUSH0 SWAP1 SLOAD SWAP1 PUSH2 0x100 EXP SWAP1 DIV PUSH20 0xFFFFFFFFFFFFFFFFFFFFFFFFFFFFFFFFFFFFFFFF AND PUSH20 0xFFFFFFFFFFFFFFFFFFFFFFFFFFFFFFFFFFFFFFFF AND DUP2 MSTORE PUSH1 0x20 ADD SWAP1 PUSH1 0x1 ADD SWAP1 DUP1 DUP4 GT PUSH2 0x480 JUMPI JUMPDEST POP POP POP POP POP DUP2 MSTORE PUSH1 0x20 ADD PUSH1 0x3 DUP3 ADD DUP1 SLOAD DUP1 PUSH1 0x20 MUL PUSH1 0x20 ADD PUSH1 0x40 MLOAD SWAP1 DUP2 ADD PUSH1 0x40 MSTORE DUP1 SWAP3 SWAP2 SWAP1 DUP2 DUP2 MSTORE PUSH1 0x20 ADD DUP3 DUP1 SLOAD DUP1 ISZERO PUSH2 0x554 JUMPI PUSH1 0x20 MUL DUP3 ADD SWAP2 SWAP1 PUSH0 MSTORE PUSH1 0x20 PUSH0 KECCAK256 SWAP1 JUMPDEST DUP2 PUSH0 SWAP1 SLOAD SWAP1 PUSH2 0x100 EXP SWAP1 DIV PUSH20 0xFFFFFFFFFFFFFFFFFFFFFFFFFFFFFFFFFFFFFFFF AND PUSH20 0xFFFFFFFFFFFFFFFFFFFFFFFFFFFFFFFFFFFFFFFF AND DUP2 MSTORE PUSH1 0x20 ADD SWAP1 PUSH1 0x1 ADD SWAP1 DUP1 DUP4 GT PUSH2 0x50B JUMPI JUMPDEST POP POP POP POP POP DUP2 MSTORE PUSH1 0x20 ADD PUSH1 0x4 DUP3 ADD PUSH0 SWAP1 SLOAD SWAP1 PUSH2 0x100 EXP SWAP1 DIV PUSH1 0xFF AND ISZERO ISZERO ISZERO ISZERO DUP2 MSTORE PUSH1 0x20 ADD PUSH1 0x5 DUP3 ADD SLOAD DUP2 MSTORE PUSH1 0x20 ADD PUSH1 0x6 DUP3 ADD SLOAD DUP2 MSTORE PUSH1 0x20 ADD PUSH1 0x7 DUP3 ADD SLOAD DUP2 MSTORE POP POP SWAP1 POP SWAP2 SWAP1 POP JUMP JUMPDEST PUSH0 DUP2 SELFBALANCE LT ISZERO PUSH2 0x5E0 JUMPI PUSH1 0x40 MLOAD PUSH32 0x8C379A000000000000000000000000000000000000000000000000000000000 DUP2 MSTORE PUSH1 0x4 ADD PUSH2 0x5D7 SWAP1 PUSH2 0x29E4 JUMP JUMPDEST PUSH1 0x40 MLOAD DUP1 SWAP2 SUB SWAP1 REVERT JUMPDEST PUSH0 PUSH1 0x5 DUP1 SLOAD SWAP1 POP SWAP1 POP PUSH0 PUSH1 0x5 PUSH1 0x1 DUP2 PUSH1 0x1 DUP2 SLOAD ADD DUP1 DUP3 SSTORE DUP1 SWAP2 POP POP SUB SWAP1 PUSH0 MSTORE PUSH1 0x20 PUSH0 KECCAK256 SWAP1 PUSH1 0x8 MUL ADD SWAP1 POP DUP5 DUP2 PUSH0 ADD PUSH0 PUSH2 0x100 EXP DUP2 SLOAD DUP2 PUSH20 0xFFFFFFFFFFFFFFFFFFFFFFFFFFFFFFFFFFFFFFFF MUL NOT AND SWAP1 DUP4 PUSH20 0xFFFFFFFFFFFFFFFFFFFFFFFFFFFFFFFFFFFFFFFF AND MUL OR SWAP1 SSTORE POP DUP4 DUP2 PUSH1 0x1 ADD DUP2 SWAP1 SSTORE POP PUSH0 DUP2 PUSH1 0x4 ADD PUSH0 PUSH2 0x100 EXP DUP2 SLOAD DUP2 PUSH1 0xFF MUL NOT AND SWAP1 DUP4 ISZERO ISZERO MUL OR SWAP1 SSTORE POP TIMESTAMP DUP2 PUSH1 0x5 ADD DUP2 SWAP1 SSTORE POP PUSH0 DUP2 PUSH1 0x6 ADD DUP2 SWAP1 SSTORE POP PUSH0 DUP2 PUSH1 0x7 ADD DUP2 SWAP1 SSTORE POP PUSH32 0xFD27D176B6EBB21E0182C0E43DF5818E0D632867E1EB47C383C58D221205FCE3 DUP3 DUP7 DUP7 PUSH1 0x40 MLOAD PUSH2 0x6BD SWAP4 SWAP3 SWAP2 SWAP1 PUSH2 0x2A11 JUMP JUMPDEST PUSH1 0x40 MLOAD DUP1 SWAP2 SUB SWAP1 LOG1 DUP2 SWAP3 POP POP POP SWAP3 SWAP2 POP POP JUMP JUMPDEST PUSH1 0x1 PUSH0 CALLER PUSH20 0xFFFFFFFFFFFFFFFFFFFFFFFFFFFFFFFFFFFFFFFF AND PUSH20 0xFFFFFFFFFFFFFFFFFFFFFFFFFFFFFFFFFFFFFFFF AND DUP2 MSTORE PUSH1 0x20 ADD SWAP1 DUP2 MSTORE PUSH1 0x20 ADD PUSH0 KECCAK256 PUSH0 SWAP1 SLOAD SWAP1 PUSH2 0x100 EXP SWAP1 DIV PUSH1 0xFF AND PUSH2 0x759 JUMPI PUSH1 0x40 MLOAD PUSH32 0x8C379A000000000000000000000000000000000000000000000000000000000 DUP2 MSTORE PUSH1 0x4 ADD PUSH2 0x750 SWAP1 PUSH2 0x2AB6 JUMP JUMPDEST PUSH1 0x40 MLOAD DUP1 SWAP2 SUB SWAP1 REVERT JUMPDEST PUSH0 PUSH1 0x5 DUP3 DUP2 SLOAD DUP2 LT PUSH2 0x76E JUMPI PUSH2 0x76D PUSH2 0x2947 JUMP JUMPDEST JUMPDEST SWAP1 PUSH0 MSTORE PUSH1 0x20 PUSH0 KECCAK256 SWAP1 PUSH1 0x8 MUL ADD SWAP1 POP DUP1 PUSH1 0x4 ADD PUSH0 SWAP1 SLOAD SWAP1 PUSH2 0x100 EXP SWAP1 DIV PUSH1 0xFF AND ISZERO PUSH2 0x7CD JUMPI PUSH1 0x40 MLOAD PUSH32 0x8C379A000000000000000000000000000000000000000000000000000000000 DUP2 MSTORE PUSH1 0x4 ADD PUSH2 0x7C4 SWAP1 PUSH2 0x2B44 JUMP JUMPDEST PUSH1 0x40 MLOAD DUP1 SWAP2 SUB SWAP1 REVERT JUMPDEST DUP1 PUSH1 0x2 ADD CALLER SWAP1 DUP1 PUSH1 0x1 DUP2 SLOAD ADD DUP1 DUP3 SSTORE DUP1 SWAP2 POP POP PUSH1 0x1 SWAP1 SUB SWAP1 PUSH0 MSTORE PUSH1 0x20 PUSH0 KECCAK256 ADD PUSH0 SWAP1 SWAP2 SWAP1 SWAP2 SWAP1 SWAP2 PUSH2 0x100 EXP DUP2 SLOAD DUP2 PUSH20 0xFFFFFFFFFFFFFFFFFFFFFFFFFFFFFFFFFFFFFFFF MUL NOT AND SWAP1 DUP4 PUSH20 0xFFFFFFFFFFFFFFFFFFFFFFFFFFFFFFFFFFFFFFFF AND MUL OR SWAP1 SSTORE POP DUP1 PUSH1 0x6 ADD PUSH0 DUP2 SLOAD DUP1 SWAP3 SWAP2 SWAP1 PUSH2 0x843 SWAP1 PUSH2 0x2B8F JUMP JUMPDEST SWAP2 SWAP1 POP SSTORE POP PUSH2 0x862 PUSH1 0x7 SLOAD PUSH1 0x2 PUSH1 0x6 SLOAD PUSH2 0x85D SWAP2 SWAP1 PUSH2 0x2C03 JUMP JUMPDEST PUSH2 0x18B0 JUMP JUMPDEST DUP2 PUSH1 0x6 ADD SLOAD LT PUSH2 0x947 JUMPI PUSH2 0x875 DUP3 PUSH2 0x18C8 JUMP JUMPDEST ISZERO PUSH2 0x8E0 JUMPI PUSH32 0xE90AE330E5AEFC2A73DDFF0DD88BCAF8F4A0629D6553A2A85B22CAC3D5F4A19E DUP3 DUP3 PUSH0 ADD PUSH0 SWAP1 SLOAD SWAP1 PUSH2 0x100 EXP SWAP1 DIV PUSH20 0xFFFFFFFFFFFFFFFFFFFFFFFFFFFFFFFFFFFFFFFF AND DUP4 PUSH1 0x1 ADD SLOAD PUSH1 0x40 MLOAD PUSH2 0x8D3 SWAP4 SWAP3 SWAP2 SWAP1 PUSH2 0x2A11 JUMP JUMPDEST PUSH1 0x40 MLOAD DUP1 SWAP2 SUB SWAP1 LOG1 PUSH2 0x942 JUMP JUMPDEST PUSH32 0xE015D34EEF89D312E7F4CE9AC2B7D0A952A1A5329981AA762E2A64CCFD88DCC3 DUP3 DUP3 PUSH0 ADD PUSH0 SWAP1 SLOAD SWAP1 PUSH2 0x100 EXP SWAP1 DIV PUSH20 0xFFFFFFFFFFFFFFFFFFFFFFFFFFFFFFFFFFFFFFFF AND DUP4 PUSH1 0x1 ADD SLOAD PUSH1 0x40 MLOAD PUSH2 0x939 SWAP4 SWAP3 SWAP2 SWAP1 PUSH2 0x2A11 JUMP JUMPDEST PUSH1 0x40 MLOAD DUP1 SWAP2 SUB SWAP1 LOG1 JUMPDEST PUSH2 0x981 JUMP JUMPDEST PUSH32 0x924813D717E221B5F46DCD8A56DA1679E4612584AB3237D55E5FAABF6F6A3079 DUP3 CALLER PUSH1 0x40 MLOAD PUSH2 0x978 SWAP3 SWAP2 SWAP1 PUSH2 0x2C33 JUMP JUMPDEST PUSH1 0x40 MLOAD DUP1 SWAP2 SUB SWAP1 LOG1 JUMPDEST POP POP JUMP JUMPDEST PUSH1 0x60 PUSH1 0x5 DUP1 SLOAD DUP1 PUSH1 0x20 MUL PUSH1 0x20 ADD PUSH1 0x40 MLOAD SWAP1 DUP2 ADD PUSH1 0x40 MSTORE DUP1 SWAP3 SWAP2 SWAP1 DUP2 DUP2 MSTORE PUSH1 0x20 ADD PUSH0 SWAP1 JUMPDEST DUP3 DUP3 LT ISZERO PUSH2 0xB85 JUMPI DUP4 DUP3 SWAP1 PUSH0 MSTORE PUSH1 0x20 PUSH0 KECCAK256 SWAP1 PUSH1 0x8 MUL ADD PUSH1 0x40 MLOAD DUP1 PUSH2 0x100 ADD PUSH1 0x40 MSTORE SWAP1 DUP2 PUSH0 DUP3 ADD PUSH0 SWAP1 SLOAD SWAP1 PUSH2 0x100 EXP SWAP1 DIV PUSH20 0xFFFFFFFFFFFFFFFFFFFFFFFFFFFFFFFFFFFFFFFF AND PUSH20 0xFFFFFFFFFFFFFFFFFFFFFFFFFFFFFFFFFFFFFFFF AND PUSH20 0xFFFFFFFFFFFFFFFFFFFFFFFFFFFFFFFFFFFFFFFF AND DUP2 MSTORE PUSH1 0x20 ADD PUSH1 0x1 DUP3 ADD SLOAD DUP2 MSTORE PUSH1 0x20 ADD PUSH1 0x2 DUP3 ADD DUP1 SLOAD DUP1 PUSH1 0x20 MUL PUSH1 0x20 ADD PUSH1 0x40 MLOAD SWAP1 DUP2 ADD PUSH1 0x40 MSTORE DUP1 SWAP3 SWAP2 SWAP1 DUP2 DUP2 MSTORE PUSH1 0x20 ADD DUP3 DUP1 SLOAD DUP1 ISZERO PUSH2 0xAAA JUMPI PUSH1 0x20 MUL DUP3 ADD SWAP2 SWAP1 PUSH0 MSTORE PUSH1 0x20 PUSH0 KECCAK256 SWAP1 JUMPDEST DUP2 PUSH0 SWAP1 SLOAD SWAP1 PUSH2 0x100 EXP SWAP1 DIV PUSH20 0xFFFFFFFFFFFFFFFFFFFFFFFFFFFFFFFFFFFFFFFF AND PUSH20 0xFFFFFFFFFFFFFFFFFFFFFFFFFFFFFFFFFFFFFFFF AND DUP2 MSTORE PUSH1 0x20 ADD SWAP1 PUSH1 0x1 ADD SWAP1 DUP1 DUP4 GT PUSH2 0xA61 JUMPI JUMPDEST POP POP POP POP POP DUP2 MSTORE PUSH1 0x20 ADD PUSH1 0x3 DUP3 ADD DUP1 SLOAD DUP1 PUSH1 0x20 MUL PUSH1 0x20 ADD PUSH1 0x40 MLOAD SWAP1 DUP2 ADD PUSH1 0x40 MSTORE DUP1 SWAP3 SWAP2 SWAP1 DUP2 DUP2 MSTORE PUSH1 0x20 ADD DUP3 DUP1 SLOAD DUP1 ISZERO PUSH2 0xB35 JUMPI PUSH1 0x20 MUL DUP3 ADD SWAP2 SWAP1 PUSH0 MSTORE PUSH1 0x20 PUSH0 KECCAK256 SWAP1 JUMPDEST DUP2 PUSH0 SWAP1 SLOAD SWAP1 PUSH2 0x100 EXP SWAP1 DIV PUSH20 0xFFFFFFFFFFFFFFFFFFFFFFFFFFFFFFFFFFFFFFFF AND PUSH20 0xFFFFFFFFFFFFFFFFFFFFFFFFFFFFFFFFFFFFFFFF AND DUP2 MSTORE PUSH1 0x20 ADD SWAP1 PUSH1 0x1 ADD SWAP1 DUP1 DUP4 GT PUSH2 0xAEC JUMPI JUMPDEST POP POP POP POP POP DUP2 MSTORE PUSH1 0x20 ADD PUSH1 0x4 DUP3 ADD PUSH0 SWAP1 SLOAD SWAP1 PUSH2 0x100 EXP SWAP1 DIV PUSH1 0xFF AND ISZERO ISZERO ISZERO ISZERO DUP2 MSTORE PUSH1 0x20 ADD PUSH1 0x5 DUP3 ADD SLOAD DUP2 MSTORE PUSH1 0x20 ADD PUSH1 0x6 DUP3 ADD SLOAD DUP2 MSTORE PUSH1 0x20 ADD PUSH1 0x7 DUP3 ADD SLOAD DUP2 MSTORE POP POP DUP2 MSTORE PUSH1 0x20 ADD SWAP1 PUSH1 0x1 ADD SWAP1 PUSH2 0x9A8 JUMP JUMPDEST POP POP POP POP SWAP1 POP SWAP1 JUMP JUMPDEST PUSH1 0x60 PUSH1 0x4 DUP1 SLOAD DUP1 PUSH1 0x20 MUL PUSH1 0x20 ADD PUSH1 0x40 MLOAD SWAP1 DUP2 ADD PUSH1 0x40 MSTORE DUP1 SWAP3 SWAP2 SWAP1 DUP2 DUP2 MSTORE PUSH1 0x20 ADD DUP3 DUP1 SLOAD DUP1 ISZERO PUSH2 0xC0F JUMPI PUSH1 0x20 MUL DUP3 ADD SWAP2 SWAP1 PUSH0 MSTORE PUSH1 0x20 PUSH0 KECCAK256 SWAP1 JUMPDEST DUP2 PUSH0 SWAP1 SLOAD SWAP1 PUSH2 0x100 EXP SWAP1 DIV PUSH20 0xFFFFFFFFFFFFFFFFFFFFFFFFFFFFFFFFFFFFFFFF AND PUSH20 0xFFFFFFFFFFFFFFFFFFFFFFFFFFFFFFFFFFFFFFFF AND DUP2 MSTORE PUSH1 0x20 ADD SWAP1 PUSH1 0x1 ADD SWAP1 DUP1 DUP4 GT PUSH2 0xBC6 JUMPI JUMPDEST POP POP POP POP POP SWAP1 POP SWAP1 JUMP JUMPDEST PUSH2 0xC21 PUSH2 0x19A7 JUMP JUMPDEST PUSH2 0xC2A DUP3 PUSH2 0x1A8D JUMP JUMPDEST PUSH2 0xC34 DUP3 DUP3 PUSH2 0x1B1D JUMP JUMPDEST POP POP JUMP JUMPDEST PUSH0 PUSH2 0xC41 PUSH2 0x1C3B JUMP JUMPDEST PUSH32 0x360894A13BA1A3210667C828492DB98DCA3E2076CC3735A920A3CA505D382BBC PUSH0 SHL SWAP1 POP SWAP1 JUMP JUMPDEST PUSH0 DUP1 SLOAD SWAP1 PUSH2 0x100 EXP SWAP1 DIV PUSH20 0xFFFFFFFFFFFFFFFFFFFFFFFFFFFFFFFFFFFFFFFF AND PUSH20 0xFFFFFFFFFFFFFFFFFFFFFFFFFFFFFFFFFFFFFFFF AND CALLER PUSH20 0xFFFFFFFFFFFFFFFFFFFFFFFFFFFFFFFFFFFFFFFF AND EQ PUSH2 0xCF6 JUMPI PUSH1 0x40 MLOAD PUSH32 0x8C379A000000000000000000000000000000000000000000000000000000000 DUP2 MSTORE PUSH1 0x4 ADD PUSH2 0xCED SWAP1 PUSH2 0x2CCA JUMP JUMPDEST PUSH1 0x40 MLOAD DUP1 SWAP2 SUB SWAP1 REVERT JUMPDEST PUSH0 JUMPDEST DUP2 MLOAD DUP2 LT ISZERO PUSH2 0xEB0 JUMPI PUSH1 0x1 PUSH0 DUP4 DUP4 DUP2 MLOAD DUP2 LT PUSH2 0xD17 JUMPI PUSH2 0xD16 PUSH2 0x2947 JUMP JUMPDEST JUMPDEST PUSH1 0x20 MUL PUSH1 0x20 ADD ADD MLOAD PUSH20 0xFFFFFFFFFFFFFFFFFFFFFFFFFFFFFFFFFFFFFFFF AND PUSH20 0xFFFFFFFFFFFFFFFFFFFFFFFFFFFFFFFFFFFFFFFF AND DUP2 MSTORE PUSH1 0x20 ADD SWAP1 DUP2 MSTORE PUSH1 0x20 ADD PUSH0 KECCAK256 PUSH0 SWAP1 SLOAD SWAP1 PUSH2 0x100 EXP SWAP1 DIV PUSH1 0xFF AND PUSH2 0xEA3 JUMPI PUSH1 0x1 DUP1 PUSH0 DUP5 DUP5 DUP2 MLOAD DUP2 LT PUSH2 0xD80 JUMPI PUSH2 0xD7F PUSH2 0x2947 JUMP JUMPDEST JUMPDEST PUSH1 0x20 MUL PUSH1 0x20 ADD ADD MLOAD PUSH20 0xFFFFFFFFFFFFFFFFFFFFFFFFFFFFFFFFFFFFFFFF AND PUSH20 0xFFFFFFFFFFFFFFFFFFFFFFFFFFFFFFFFFFFFFFFF AND DUP2 MSTORE PUSH1 0x20 ADD SWAP1 DUP2 MSTORE PUSH1 0x20 ADD PUSH0 KECCAK256 PUSH0 PUSH2 0x100 EXP DUP2 SLOAD DUP2 PUSH1 0xFF MUL NOT AND SWAP1 DUP4 ISZERO ISZERO MUL OR SWAP1 SSTORE POP PUSH1 0x3 DUP3 DUP3 DUP2 MLOAD DUP2 LT PUSH2 0xDEC JUMPI PUSH2 0xDEB PUSH2 0x2947 JUMP JUMPDEST JUMPDEST PUSH1 0x20 MUL PUSH1 0x20 ADD ADD MLOAD SWAP1 DUP1 PUSH1 0x1 DUP2 SLOAD ADD DUP1 DUP3 SSTORE DUP1 SWAP2 POP POP PUSH1 0x1 SWAP1 SUB SWAP1 PUSH0 MSTORE PUSH1 0x20 PUSH0 KECCAK256 ADD PUSH0 SWAP1 SWAP2 SWAP1 SWAP2 SWAP1 SWAP2 PUSH2 0x100 EXP DUP2 SLOAD DUP2 PUSH20 0xFFFFFFFFFFFFFFFFFFFFFFFFFFFFFFFFFFFFFFFF MUL NOT AND SWAP1 DUP4 PUSH20 0xFFFFFFFFFFFFFFFFFFFFFFFFFFFFFFFFFFFFFFFF AND MUL OR SWAP1 SSTORE POP PUSH32 0x8FFBF603707F31AB466F6B711C89AE5521B6F93B25D3F86200054018476696D6 DUP3 DUP3 DUP2 MLOAD DUP2 LT PUSH2 0xE85 JUMPI PUSH2 0xE84 PUSH2 0x2947 JUMP JUMPDEST JUMPDEST PUSH1 0x20 MUL PUSH1 0x20 ADD ADD MLOAD PUSH1 0x40 MLOAD PUSH2 0xE9A SWAP2 SWAP1 PUSH2 0x2CE8 JUMP JUMPDEST PUSH1 0x40 MLOAD DUP1 SWAP2 SUB SWAP1 LOG1 JUMPDEST DUP1 DUP1 PUSH1 0x1 ADD SWAP2 POP POP PUSH2 0xCF8 JUMP JUMPDEST POP POP JUMP JUMPDEST PUSH0 PUSH2 0xEBD PUSH2 0x1CC2 JUMP JUMPDEST SWAP1 POP PUSH0 DUP2 PUSH0 ADD PUSH1 0x8 SWAP1 SLOAD SWAP1 PUSH2 0x100 EXP SWAP1 DIV PUSH1 0xFF AND ISZERO SWAP1 POP PUSH0 DUP3 PUSH0 ADD PUSH0 SWAP1 SLOAD SWAP1 PUSH2 0x100 EXP SWAP1 DIV PUSH8 0xFFFFFFFFFFFFFFFF AND SWAP1 POP PUSH0 DUP1 DUP3 PUSH8 0xFFFFFFFFFFFFFFFF AND EQ DUP1 ISZERO PUSH2 0xF05 JUMPI POP DUP3 JUMPDEST SWAP1 POP PUSH0 PUSH1 0x1 DUP4 PUSH8 0xFFFFFFFFFFFFFFFF AND EQ DUP1 ISZERO PUSH2 0xF38 JUMPI POP PUSH0 ADDRESS PUSH20 0xFFFFFFFFFFFFFFFFFFFFFFFFFFFFFFFFFFFFFFFF AND EXTCODESIZE EQ JUMPDEST SWAP1 POP DUP2 ISZERO DUP1 ISZERO PUSH2 0xF46 JUMPI POP DUP1 ISZERO JUMPDEST ISZERO PUSH2 0xF7D JUMPI PUSH1 0x40 MLOAD PUSH32 0xF92EE8A900000000000000000000000000000000000000000000000000000000 DUP2 MSTORE PUSH1 0x4 ADD PUSH1 0x40 MLOAD DUP1 SWAP2 SUB SWAP1 REVERT JUMPDEST PUSH1 0x1 DUP6 PUSH0 ADD PUSH0 PUSH2 0x100 EXP DUP2 SLOAD DUP2 PUSH8 0xFFFFFFFFFFFFFFFF MUL NOT AND SWAP1 DUP4 PUSH8 0xFFFFFFFFFFFFFFFF AND MUL OR SWAP1 SSTORE POP DUP4 ISZERO PUSH2 0xFCA JUMPI PUSH1 0x1 DUP6 PUSH0 ADD PUSH1 0x8 PUSH2 0x100 EXP DUP2 SLOAD DUP2 PUSH1 0xFF MUL NOT AND SWAP1 DUP4 ISZERO ISZERO MUL OR SWAP1 SSTORE POP JUMPDEST PUSH2 0xFD2 PUSH2 0x1CE9 JUMP JUMPDEST CALLER PUSH0 DUP1 PUSH2 0x100 EXP DUP2 SLOAD DUP2 PUSH20 0xFFFFFFFFFFFFFFFFFFFFFFFFFFFFFFFFFFFFFFFF MUL NOT AND SWAP1 DUP4 PUSH20 0xFFFFFFFFFFFFFFFFFFFFFFFFFFFFFFFFFFFFFFFF AND MUL OR SWAP1 SSTORE POP PUSH1 0x5 PUSH1 0x7 DUP2 SWAP1 SSTORE POP DUP4 ISZERO PUSH2 0x1073 JUMPI PUSH0 DUP6 PUSH0 ADD PUSH1 0x8 PUSH2 0x100 EXP DUP2 SLOAD DUP2 PUSH1 0xFF MUL NOT AND SWAP1 DUP4 ISZERO ISZERO MUL OR SWAP1 SSTORE POP PUSH32 0xC7F505B2F371AE2175EE4913F4499E1F2633A7B5936321EED1CDAEB6115181D2 PUSH1 0x1 PUSH1 0x40 MLOAD PUSH2 0x106A SWAP2 SWAP1 PUSH2 0x2D56 JUMP JUMPDEST PUSH1 0x40 MLOAD DUP1 SWAP2 SUB SWAP1 LOG1 JUMPDEST POP POP POP POP POP JUMP JUMPDEST PUSH0 DUP1 SLOAD SWAP1 PUSH2 0x100 EXP SWAP1 DIV PUSH20 0xFFFFFFFFFFFFFFFFFFFFFFFFFFFFFFFFFFFFFFFF AND PUSH20 0xFFFFFFFFFFFFFFFFFFFFFFFFFFFFFFFFFFFFFFFF AND CALLER PUSH20 0xFFFFFFFFFFFFFFFFFFFFFFFFFFFFFFFFFFFFFFFF AND EQ PUSH2 0x1107 JUMPI PUSH1 0x40 MLOAD PUSH32 0x8C379A000000000000000000000000000000000000000000000000000000000 DUP2 MSTORE PUSH1 0x4 ADD PUSH2 0x10FE SWAP1 PUSH2 0x2CCA JUMP JUMPDEST PUSH1 0x40 MLOAD DUP1 SWAP2 SUB SWAP1 REVERT JUMPDEST PUSH1 0x1 PUSH0 DUP3 PUSH20 0xFFFFFFFFFFFFFFFFFFFFFFFFFFFFFFFFFFFFFFFF AND PUSH20 0xFFFFFFFFFFFFFFFFFFFFFFFFFFFFFFFFFFFFFFFF AND DUP2 MSTORE PUSH1 0x20 ADD SWAP1 DUP2 MSTORE PUSH1 0x20 ADD PUSH0 KECCAK256 PUSH0 SWAP1 SLOAD SWAP1 PUSH2 0x100 EXP SWAP1 DIV PUSH1 0xFF AND ISZERO PUSH2 0x1191 JUMPI PUSH1 0x40 MLOAD PUSH32 0x8C379A000000000000000000000000000000000000000000000000000000000 DUP2 MSTORE PUSH1 0x4 ADD PUSH2 0x1188 SWAP1 PUSH2 0x2DB9 JUMP JUMPDEST PUSH1 0x40 MLOAD DUP1 SWAP2 SUB SWAP1 REVERT JUMPDEST PUSH1 0x2 PUSH0 DUP3 PUSH20 0xFFFFFFFFFFFFFFFFFFFFFFFFFFFFFFFFFFFFFFFF AND PUSH20 0xFFFFFFFFFFFFFFFFFFFFFFFFFFFFFFFFFFFFFFFF AND DUP2 MSTORE PUSH1 0x20 ADD SWAP1 DUP2 MSTORE PUSH1 0x20 ADD PUSH0 KECCAK256 PUSH0 PUSH2 0x100 EXP DUP2 SLOAD SWAP1 PUSH1 0xFF MUL NOT AND SWAP1 SSTORE PUSH0 JUMPDEST PUSH1 0x4 DUP1 SLOAD SWAP1 POP DUP2 LT ISZERO PUSH2 0x1356 JUMPI DUP2 PUSH20 0xFFFFFFFFFFFFFFFFFFFFFFFFFFFFFFFFFFFFFFFF AND PUSH1 0x4 DUP3 DUP2 SLOAD DUP2 LT PUSH2 0x1217 JUMPI PUSH2 0x1216 PUSH2 0x2947 JUMP JUMPDEST JUMPDEST SWAP1 PUSH0 MSTORE PUSH1 0x20 PUSH0 KECCAK256 ADD PUSH0 SWAP1 SLOAD SWAP1 PUSH2 0x100 EXP SWAP1 DIV PUSH20 0xFFFFFFFFFFFFFFFFFFFFFFFFFFFFFFFFFFFFFFFF AND PUSH20 0xFFFFFFFFFFFFFFFFFFFFFFFFFFFFFFFFFFFFFFFF AND SUB PUSH2 0x1349 JUMPI PUSH1 0x4 PUSH1 0x1 PUSH1 0x4 DUP1 SLOAD SWAP1 POP PUSH2 0x126E SWAP2 SWAP1 PUSH2 0x2DD7 JUMP JUMPDEST DUP2 SLOAD DUP2 LT PUSH2 0x127F JUMPI PUSH2 0x127E PUSH2 0x2947 JUMP JUMPDEST JUMPDEST SWAP1 PUSH0 MSTORE PUSH1 0x20 PUSH0 KECCAK256 ADD PUSH0 SWAP1 SLOAD SWAP1 PUSH2 0x100 EXP SWAP1 DIV PUSH20 0xFFFFFFFFFFFFFFFFFFFFFFFFFFFFFFFFFFFFFFFF AND PUSH1 0x4 DUP3 DUP2 SLOAD DUP2 LT PUSH2 0x12BB JUMPI PUSH2 0x12BA PUSH2 0x2947 JUMP JUMPDEST JUMPDEST SWAP1 PUSH0 MSTORE PUSH1 0x20 PUSH0 KECCAK256 ADD PUSH0 PUSH2 0x100 EXP DUP2 SLOAD DUP2 PUSH20 0xFFFFFFFFFFFFFFFFFFFFFFFFFFFFFFFFFFFFFFFF MUL NOT AND SWAP1 DUP4 PUSH20 0xFFFFFFFFFFFFFFFFFFFFFFFFFFFFFFFFFFFFFFFF AND MUL OR SWAP1 SSTORE POP PUSH1 0x4 DUP1 SLOAD DUP1 PUSH2 0x1312 JUMPI PUSH2 0x1311 PUSH2 0x2E0A JUMP JUMPDEST JUMPDEST PUSH1 0x1 SWAP1 SUB DUP2 DUP2 SWAP1 PUSH0 MSTORE PUSH1 0x20 PUSH0 KECCAK256 ADD PUSH0 PUSH2 0x100 EXP DUP2 SLOAD SWAP1 PUSH20 0xFFFFFFFFFFFFFFFFFFFFFFFFFFFFFFFFFFFFFFFF MUL NOT AND SWAP1 SSTORE SWAP1 SSTORE PUSH2 0x1356 JUMP JUMPDEST DUP1 DUP1 PUSH1 0x1 ADD SWAP2 POP POP PUSH2 0x11DF JUMP JUMPDEST POP PUSH1 0x1 DUP1 PUSH0 DUP4 PUSH20 0xFFFFFFFFFFFFFFFFFFFFFFFFFFFFFFFFFFFFFFFF AND PUSH20 0xFFFFFFFFFFFFFFFFFFFFFFFFFFFFFFFFFFFFFFFF AND DUP2 MSTORE PUSH1 0x20 ADD SWAP1 DUP2 MSTORE PUSH1 0x20 ADD PUSH0 KECCAK256 PUSH0 PUSH2 0x100 EXP DUP2 SLOAD DUP2 PUSH1 0xFF MUL NOT AND SWAP1 DUP4 ISZERO ISZERO MUL OR SWAP1 SSTORE POP PUSH1 0x3 DUP2 SWAP1 DUP1 PUSH1 0x1 DUP2 SLOAD ADD DUP1 DUP3 SSTORE DUP1 SWAP2 POP POP PUSH1 0x1 SWAP1 SUB SWAP1 PUSH0 MSTORE PUSH1 0x20 PUSH0 KECCAK256 ADD PUSH0 SWAP1 SWAP2 SWAP1 SWAP2 SWAP1 SWAP2 PUSH2 0x100 EXP DUP2 SLOAD DUP2 PUSH20 0xFFFFFFFFFFFFFFFFFFFFFFFFFFFFFFFFFFFFFFFF MUL NOT AND SWAP1 DUP4 PUSH20 0xFFFFFFFFFFFFFFFFFFFFFFFFFFFFFFFFFFFFFFFF AND MUL OR SWAP1 SSTORE POP PUSH1 0x6 PUSH0 DUP2 SLOAD DUP1 SWAP3 SWAP2 SWAP1 PUSH2 0x141D SWAP1 PUSH2 0x2B8F JUMP JUMPDEST SWAP2 SWAP1 POP SSTORE POP PUSH32 0x8FFBF603707F31AB466F6B711C89AE5521B6F93B25D3F86200054018476696D6 DUP2 PUSH1 0x40 MLOAD PUSH2 0x1451 SWAP2 SWAP1 PUSH2 0x2CE8 JUMP JUMPDEST PUSH1 0x40 MLOAD DUP1 SWAP2 SUB SWAP1 LOG1 POP JUMP JUMPDEST PUSH1 0x1 PUSH0 CALLER PUSH20 0xFFFFFFFFFFFFFFFFFFFFFFFFFFFFFFFFFFFFFFFF AND PUSH20 0xFFFFFFFFFFFFFFFFFFFFFFFFFFFFFFFFFFFFFFFF AND DUP2 MSTORE PUSH1 0x20 ADD SWAP1 DUP2 MSTORE PUSH1 0x20 ADD PUSH0 KECCAK256 PUSH0 SWAP1 SLOAD SWAP1 PUSH2 0x100 EXP SWAP1 DIV PUSH1 0xFF AND PUSH2 0x14E5 JUMPI PUSH1 0x40 MLOAD PUSH32 0x8C379A000000000000000000000000000000000000000000000000000000000 DUP2 MSTORE PUSH1 0x4 ADD PUSH2 0x14DC SWAP1 PUSH2 0x2AB6 JUMP JUMPDEST PUSH1 0x40 MLOAD DUP1 SWAP2 SUB SWAP1 REVERT JUMPDEST PUSH0 PUSH1 0x5 DUP3 DUP2 SLOAD DUP2 LT PUSH2 0x14FA JUMPI PUSH2 0x14F9 PUSH2 0x2947 JUMP JUMPDEST JUMPDEST SWAP1 PUSH0 MSTORE PUSH1 0x20 PUSH0 KECCAK256 SWAP1 PUSH1 0x8 MUL ADD SWAP1 POP DUP1 PUSH1 0x3 ADD CALLER SWAP1 DUP1 PUSH1 0x1 DUP2 SLOAD ADD DUP1 DUP3 SSTORE DUP1 SWAP2 POP POP PUSH1 0x1 SWAP1 SUB SWAP1 PUSH0 MSTORE PUSH1 0x20 PUSH0 KECCAK256 ADD PUSH0 SWAP1 SWAP2 SWAP1 SWAP2 SWAP1 SWAP2 PUSH2 0x100 EXP DUP2 SLOAD DUP2 PUSH20 0xFFFFFFFFFFFFFFFFFFFFFFFFFFFFFFFFFFFFFFFF MUL NOT AND SWAP1 DUP4 PUSH20 0xFFFFFFFFFFFFFFFFFFFFFFFFFFFFFFFFFFFFFFFF AND MUL OR SWAP1 SSTORE POP DUP1 PUSH1 0x7 ADD PUSH0 DUP2 SLOAD DUP1 SWAP3 SWAP2 SWAP1 PUSH2 0x157E SWAP1 PUSH2 0x2B8F JUMP JUMPDEST SWAP2 SWAP1 POP SSTORE POP PUSH32 0x51E2A629616D21B16F9D1D2549B4B88ABA4D3B132F12A47EF7696E4A4263D1E8 DUP3 CALLER PUSH1 0x40 MLOAD PUSH2 0x15B4 SWAP3 SWAP2 SWAP1 PUSH2 0x2C33 JUMP JUMPDEST PUSH1 0x40 MLOAD DUP1 SWAP2 SUB SWAP1 LOG1 POP POP JUMP JUMPDEST PUSH1 0x40 MLOAD DUP1 PUSH1 0x40 ADD PUSH1 0x40 MSTORE DUP1 PUSH1 0x5 DUP2 MSTORE PUSH1 0x20 ADD PUSH32 0x352E302E30000000000000000000000000000000000000000000000000000000 DUP2 MSTORE POP DUP2 JUMP JUMPDEST PUSH0 SELFBALANCE SWAP1 POP SWAP1 JUMP JUMPDEST PUSH1 0x60 PUSH1 0x3 DUP1 SLOAD DUP1 PUSH1 0x20 MUL PUSH1 0x20 ADD PUSH1 0x40 MLOAD SWAP1 DUP2 ADD PUSH1 0x40 MSTORE DUP1 SWAP3 SWAP2 SWAP1 DUP2 DUP2 MSTORE PUSH1 0x20 ADD DUP3 DUP1 SLOAD DUP1 ISZERO PUSH2 0x1681 JUMPI PUSH1 0x20 MUL DUP3 ADD SWAP2 SWAP1 PUSH0 MSTORE PUSH1 0x20 PUSH0 KECCAK256 SWAP1 JUMPDEST DUP2 PUSH0 SWAP1 SLOAD SWAP1 PUSH2 0x100 EXP SWAP1 DIV PUSH20 0xFFFFFFFFFFFFFFFFFFFFFFFFFFFFFFFFFFFFFFFF AND PUSH20 0xFFFFFFFFFFFFFFFFFFFFFFFFFFFFFFFFFFFFFFFF AND DUP2 MSTORE PUSH1 0x20 ADD SWAP1 PUSH1 0x1 ADD SWAP1 DUP1 DUP4 GT PUSH2 0x1638 JUMPI JUMPDEST POP POP POP POP POP SWAP1 POP SWAP1 JUMP JUMPDEST PUSH1 0x1 PUSH0 DUP3 PUSH20 0xFFFFFFFFFFFFFFFFFFFFFFFFFFFFFFFFFFFFFFFF AND PUSH20 0xFFFFFFFFFFFFFFFFFFFFFFFFFFFFFFFFFFFFFFFF AND DUP2 MSTORE PUSH1 0x20 ADD SWAP1 DUP2 MSTORE PUSH1 0x20 ADD PUSH0 KECCAK256 PUSH0 SWAP1 SLOAD SWAP1 PUSH2 0x100 EXP SWAP1 DIV PUSH1 0xFF AND ISZERO PUSH2 0x1715 JUMPI PUSH1 0x40 MLOAD PUSH32 0x8C379A000000000000000000000000000000000000000000000000000000000 DUP2 MSTORE PUSH1 0x4 ADD PUSH2 0x170C SWAP1 PUSH2 0x2E81 JUMP JUMPDEST PUSH1 0x40 MLOAD DUP1 SWAP2 SUB SWAP1 REVERT JUMPDEST PUSH1 0x2 PUSH0 DUP3 PUSH20 0xFFFFFFFFFFFFFFFFFFFFFFFFFFFFFFFFFFFFFFFF AND PUSH20 0xFFFFFFFFFFFFFFFFFFFFFFFFFFFFFFFFFFFFFFFF AND DUP2 MSTORE PUSH1 0x20 ADD SWAP1 DUP2 MSTORE PUSH1 0x20 ADD PUSH0 KECCAK256 PUSH0 SWAP1 SLOAD SWAP1 PUSH2 0x100 EXP SWAP1 DIV PUSH1 0xFF AND ISZERO PUSH2 0x179F JUMPI PUSH1 0x40 MLOAD PUSH32 0x8C379A000000000000000000000000000000000000000000000000000000000 DUP2 MSTORE PUSH1 0x4 ADD PUSH2 0x1796 SWAP1 PUSH2 0x2EE9 JUMP JUMPDEST PUSH1 0x40 MLOAD DUP1 SWAP2 SUB SWAP1 REVERT JUMPDEST PUSH1 0x4 DUP2 SWAP1 DUP1 PUSH1 0x1 DUP2 SLOAD ADD DUP1 DUP3 SSTORE DUP1 SWAP2 POP POP PUSH1 0x1 SWAP1 SUB SWAP1 PUSH0 MSTORE PUSH1 0x20 PUSH0 KECCAK256 ADD PUSH0 SWAP1 SWAP2 SWAP1 SWAP2 SWAP1 SWAP2 PUSH2 0x100 EXP DUP2 SLOAD DUP2 PUSH20 0xFFFFFFFFFFFFFFFFFFFFFFFFFFFFFFFFFFFFFFFF MUL NOT AND SWAP1 DUP4 PUSH20 0xFFFFFFFFFFFFFFFFFFFFFFFFFFFFFFFFFFFFFFFF AND MUL OR SWAP1 SSTORE POP PUSH1 0x1 PUSH1 0x2 PUSH0 DUP4 PUSH20 0xFFFFFFFFFFFFFFFFFFFFFFFFFFFFFFFFFFFFFFFF AND PUSH20 0xFFFFFFFFFFFFFFFFFFFFFFFFFFFFFFFFFFFFFFFF AND DUP2 MSTORE PUSH1 0x20 ADD SWAP1 DUP2 MSTORE PUSH1 0x20 ADD PUSH0 KECCAK256 PUSH0 PUSH2 0x100 EXP DUP2 SLOAD DUP2 PUSH1 0xFF MUL NOT AND SWAP1 DUP4 ISZERO ISZERO MUL OR SWAP1 SSTORE POP PUSH32 0x626E4500941465F8684AB220D11D81F3A776C4ED7010715F25CD8E772DCBB484 DUP2 PUSH1 0x40 MLOAD PUSH2 0x1883 SWAP2 SWAP1 PUSH2 0x2CE8 JUMP JUMPDEST PUSH1 0x40 MLOAD DUP1 SWAP2 SUB SWAP1 LOG1 POP JUMP JUMPDEST JUMP JUMPDEST PUSH0 DUP2 PUSH20 0xFFFFFFFFFFFFFFFFFFFFFFFFFFFFFFFFFFFFFFFF AND BALANCE SWAP1 POP SWAP2 SWAP1 POP JUMP JUMPDEST PUSH0 DUP2 DUP4 GT PUSH2 0x18BE JUMPI DUP2 PUSH2 0x18C0 JUMP JUMPDEST DUP3 JUMPDEST SWAP1 POP SWAP3 SWAP2 POP POP JUMP JUMPDEST PUSH0 DUP1 PUSH1 0x5 DUP4 DUP2 SLOAD DUP2 LT PUSH2 0x18DE JUMPI PUSH2 0x18DD PUSH2 0x2947 JUMP JUMPDEST JUMPDEST SWAP1 PUSH0 MSTORE PUSH1 0x20 PUSH0 KECCAK256 SWAP1 PUSH1 0x8 MUL ADD SWAP1 POP PUSH0 DUP2 PUSH0 ADD PUSH0 SWAP1 SLOAD SWAP1 PUSH2 0x100 EXP SWAP1 DIV PUSH20 0xFFFFFFFFFFFFFFFFFFFFFFFFFFFFFFFFFFFFFFFF AND PUSH20 0xFFFFFFFFFFFFFFFFFFFFFFFFFFFFFFFFFFFFFFFF AND DUP3 PUSH1 0x1 ADD SLOAD PUSH1 0x40 MLOAD PUSH2 0x1937 SWAP1 PUSH2 0x2F34 JUMP JUMPDEST PUSH0 PUSH1 0x40 MLOAD DUP1 DUP4 SUB DUP2 DUP6 DUP8 GAS CALL SWAP3 POP POP POP RETURNDATASIZE DUP1 PUSH0 DUP2 EQ PUSH2 0x1971 JUMPI PUSH1 0x40 MLOAD SWAP2 POP PUSH1 0x1F NOT PUSH1 0x3F RETURNDATASIZE ADD AND DUP3 ADD PUSH1 0x40 MSTORE RETURNDATASIZE DUP3 MSTORE RETURNDATASIZE PUSH0 PUSH1 0x20 DUP5 ADD RETURNDATACOPY PUSH2 0x1976 JUMP JUMPDEST PUSH1 0x60 SWAP2 POP JUMPDEST POP POP SWAP1 POP DUP1 ISZERO PUSH2 0x199D JUMPI PUSH1 0x1 DUP3 PUSH1 0x4 ADD PUSH0 PUSH2 0x100 EXP DUP2 SLOAD DUP2 PUSH1 0xFF MUL NOT AND SWAP1 DUP4 ISZERO ISZERO MUL OR SWAP1 SSTORE POP JUMPDEST DUP1 SWAP3 POP POP POP SWAP2 SWAP1 POP JUMP JUMPDEST PUSH32 0x0 PUSH20 0xFFFFFFFFFFFFFFFFFFFFFFFFFFFFFFFFFFFFFFFF AND ADDRESS PUSH20 0xFFFFFFFFFFFFFFFFFFFFFFFFFFFFFFFFFFFFFFFF AND EQ DUP1 PUSH2 0x1A54 JUMPI POP PUSH32 0x0 PUSH20 0xFFFFFFFFFFFFFFFFFFFFFFFFFFFFFFFFFFFFFFFF AND PUSH2 0x1A3B PUSH2 0x1CF3 JUMP JUMPDEST PUSH20 0xFFFFFFFFFFFFFFFFFFFFFFFFFFFFFFFFFFFFFFFF AND EQ ISZERO JUMPDEST ISZERO PUSH2 0x1A8B JUMPI PUSH1 0x40 MLOAD PUSH32 0xE07C8DBA00000000000000000000000000000000000000000000000000000000 DUP2 MSTORE PUSH1 0x4 ADD PUSH1 0x40 MLOAD DUP1 SWAP2 SUB SWAP1 REVERT JUMPDEST JUMP JUMPDEST PUSH0 DUP1 SLOAD SWAP1 PUSH2 0x100 EXP SWAP1 DIV PUSH20 0xFFFFFFFFFFFFFFFFFFFFFFFFFFFFFFFFFFFFFFFF AND PUSH20 0xFFFFFFFFFFFFFFFFFFFFFFFFFFFFFFFFFFFFFFFF AND CALLER PUSH20 0xFFFFFFFFFFFFFFFFFFFFFFFFFFFFFFFFFFFFFFFF AND EQ PUSH2 0x1B1A JUMPI PUSH1 0x40 MLOAD PUSH32 0x8C379A000000000000000000000000000000000000000000000000000000000 DUP2 MSTORE PUSH1 0x4 ADD PUSH2 0x1B11 SWAP1 PUSH2 0x2CCA JUMP JUMPDEST PUSH1 0x40 MLOAD DUP1 SWAP2 SUB SWAP1 REVERT JUMPDEST POP JUMP JUMPDEST DUP2 PUSH20 0xFFFFFFFFFFFFFFFFFFFFFFFFFFFFFFFFFFFFFFFF AND PUSH4 0x52D1902D PUSH1 0x40 MLOAD DUP2 PUSH4 0xFFFFFFFF AND PUSH1 0xE0 SHL DUP2 MSTORE PUSH1 0x4 ADD PUSH1 0x20 PUSH1 0x40 MLOAD DUP1 DUP4 SUB DUP2 DUP7 GAS STATICCALL SWAP3 POP POP POP DUP1 ISZERO PUSH2 0x1B85 JUMPI POP PUSH1 0x40 MLOAD RETURNDATASIZE PUSH1 0x1F NOT PUSH1 0x1F DUP3 ADD AND DUP3 ADD DUP1 PUSH1 0x40 MSTORE POP DUP2 ADD SWAP1 PUSH2 0x1B82 SWAP2 SWAP1 PUSH2 0x2F72 JUMP JUMPDEST PUSH1 0x1 JUMPDEST PUSH2 0x1BC6 JUMPI DUP2 PUSH1 0x40 MLOAD PUSH32 0x4C9C8CE300000000000000000000000000000000000000000000000000000000 DUP2 MSTORE PUSH1 0x4 ADD PUSH2 0x1BBD SWAP2 SWAP1 PUSH2 0x2CE8 JUMP JUMPDEST PUSH1 0x40 MLOAD DUP1 SWAP2 SUB SWAP1 REVERT JUMPDEST PUSH32 0x360894A13BA1A3210667C828492DB98DCA3E2076CC3735A920A3CA505D382BBC PUSH0 SHL DUP2 EQ PUSH2 0x1C2C JUMPI DUP1 PUSH1 0x40 MLOAD PUSH32 0xAA1D49A400000000000000000000000000000000000000000000000000000000 DUP2 MSTORE PUSH1 0x4 ADD PUSH2 0x1C23 SWAP2 SWAP1 PUSH2 0x2778 JUMP JUMPDEST PUSH1 0x40 MLOAD DUP1 SWAP2 SUB SWAP1 REVERT JUMPDEST PUSH2 0x1C36 DUP4 DUP4 PUSH2 0x1D46 JUMP JUMPDEST POP POP POP JUMP JUMPDEST PUSH32 0x0 PUSH20 0xFFFFFFFFFFFFFFFFFFFFFFFFFFFFFFFFFFFFFFFF AND ADDRESS PUSH20 0xFFFFFFFFFFFFFFFFFFFFFFFFFFFFFFFFFFFFFFFF AND EQ PUSH2 0x1CC0 JUMPI PUSH1 0x40 MLOAD PUSH32 0xE07C8DBA00000000000000000000000000000000000000000000000000000000 DUP2 MSTORE PUSH1 0x4 ADD PUSH1 0x40 MLOAD DUP1 SWAP2 SUB SWAP1 REVERT JUMPDEST JUMP JUMPDEST PUSH0 PUSH32 0xF0C57E16840DF040F15088DC2F81FE391C3923BEC73E23A9662EFC9C229C6A00 SWAP1 POP SWAP1 JUMP JUMPDEST PUSH2 0x1CF1 PUSH2 0x1DB8 JUMP JUMPDEST JUMP JUMPDEST PUSH0 PUSH2 0x1D1F PUSH32 0x360894A13BA1A3210667C828492DB98DCA3E2076CC3735A920A3CA505D382BBC PUSH0 SHL PUSH2 0x1DF8 JUMP JUMPDEST PUSH0 ADD PUSH0 SWAP1 SLOAD SWAP1 PUSH2 0x100 EXP SWAP1 DIV PUSH20 0xFFFFFFFFFFFFFFFFFFFFFFFFFFFFFFFFFFFFFFFF AND SWAP1 POP SWAP1 JUMP JUMPDEST PUSH2 0x1D4F DUP3 PUSH2 0x1E01 JUMP JUMPDEST DUP2 PUSH20 0xFFFFFFFFFFFFFFFFFFFFFFFFFFFFFFFFFFFFFFFF AND PUSH32 0xBC7CD75A20EE27FD9ADEBAB32041F755214DBC6BFFA90CC0225B39DA2E5C2D3B PUSH1 0x40 MLOAD PUSH1 0x40 MLOAD DUP1 SWAP2 SUB SWAP1 LOG2 PUSH0 DUP2 MLOAD GT ISZERO PUSH2 0x1DAB JUMPI PUSH2 0x1DA5 DUP3 DUP3 PUSH2 0x1ECA JUMP JUMPDEST POP PUSH2 0x1DB4 JUMP JUMPDEST PUSH2 0x1DB3 PUSH2 0x1F4A JUMP JUMPDEST JUMPDEST POP POP JUMP JUMPDEST PUSH2 0x1DC0 PUSH2 0x1F86 JUMP JUMPDEST PUSH2 0x1DF6 JUMPI PUSH1 0x40 MLOAD PUSH32 0xD7E6BCF800000000000000000000000000000000000000000000000000000000 DUP2 MSTORE PUSH1 0x4 ADD PUSH1 0x40 MLOAD DUP1 SWAP2 SUB SWAP1 REVERT JUMPDEST JUMP JUMPDEST PUSH0 DUP2 SWAP1 POP SWAP2 SWAP1 POP JUMP JUMPDEST PUSH0 DUP2 PUSH20 0xFFFFFFFFFFFFFFFFFFFFFFFFFFFFFFFFFFFFFFFF AND EXTCODESIZE SUB PUSH2 0x1E5C JUMPI DUP1 PUSH1 0x40 MLOAD PUSH32 0x4C9C8CE300000000000000000000000000000000000000000000000000000000 DUP2 MSTORE PUSH1 0x4 ADD PUSH2 0x1E53 SWAP2 SWAP1 PUSH2 0x2CE8 JUMP JUMPDEST PUSH1 0x40 MLOAD DUP1 SWAP2 SUB SWAP1 REVERT JUMPDEST DUP1 PUSH2 0x1E88 PUSH32 0x360894A13BA1A3210667C828492DB98DCA3E2076CC3735A920A3CA505D382BBC PUSH0 SHL PUSH2 0x1DF8 JUMP JUMPDEST PUSH0 ADD PUSH0 PUSH2 0x100 EXP DUP2 SLOAD DUP2 PUSH20 0xFFFFFFFFFFFFFFFFFFFFFFFFFFFFFFFFFFFFFFFF MUL NOT AND SWAP1 DUP4 PUSH20 0xFFFFFFFFFFFFFFFFFFFFFFFFFFFFFFFFFFFFFFFF AND MUL OR SWAP1 SSTORE POP POP JUMP JUMPDEST PUSH1 0x60 PUSH0 DUP1 DUP5 PUSH20 0xFFFFFFFFFFFFFFFFFFFFFFFFFFFFFFFFFFFFFFFF AND DUP5 PUSH1 0x40 MLOAD PUSH2 0x1EF3 SWAP2 SWAP1 PUSH2 0x2FD7 JUMP JUMPDEST PUSH0 PUSH1 0x40 MLOAD DUP1 DUP4 SUB DUP2 DUP6 GAS DELEGATECALL SWAP2 POP POP RETURNDATASIZE DUP1 PUSH0 DUP2 EQ PUSH2 0x1F2B JUMPI PUSH1 0x40 MLOAD SWAP2 POP PUSH1 0x1F NOT PUSH1 0x3F RETURNDATASIZE ADD AND DUP3 ADD PUSH1 0x40 MSTORE RETURNDATASIZE DUP3 MSTORE RETURNDATASIZE PUSH0 PUSH1 0x20 DUP5 ADD RETURNDATACOPY PUSH2 0x1F30 JUMP JUMPDEST PUSH1 0x60 SWAP2 POP JUMPDEST POP SWAP2 POP SWAP2 POP PUSH2 0x1F40 DUP6 DUP4 DUP4 PUSH2 0x1FA4 JUMP JUMPDEST SWAP3 POP POP POP SWAP3 SWAP2 POP POP JUMP JUMPDEST PUSH0 CALLVALUE GT ISZERO PUSH2 0x1F84 JUMPI PUSH1 0x40 MLOAD PUSH32 0xB398979F00000000000000000000000000000000000000000000000000000000 DUP2 MSTORE PUSH1 0x4 ADD PUSH1 0x40 MLOAD DUP1 SWAP2 SUB SWAP1 REVERT JUMPDEST JUMP JUMPDEST PUSH0 PUSH2 0x1F8F PUSH2 0x1CC2 JUMP JUMPDEST PUSH0 ADD PUSH1 0x8 SWAP1 SLOAD SWAP1 PUSH2 0x100 EXP SWAP1 DIV PUSH1 0xFF AND SWAP1 POP SWAP1 JUMP JUMPDEST PUSH1 0x60 DUP3 PUSH2 0x1FB9 JUMPI PUSH2 0x1FB4 DUP3 PUSH2 0x2031 JUMP JUMPDEST PUSH2 0x2029 JUMP JUMPDEST PUSH0 DUP3 MLOAD EQ DUP1 ISZERO PUSH2 0x1FDF JUMPI POP PUSH0 DUP5 PUSH20 0xFFFFFFFFFFFFFFFFFFFFFFFFFFFFFFFFFFFFFFFF AND EXTCODESIZE EQ JUMPDEST ISZERO PUSH2 0x2021 JUMPI DUP4 PUSH1 0x40 MLOAD PUSH32 0x9996B31500000000000000000000000000000000000000000000000000000000 DUP2 MSTORE PUSH1 0x4 ADD PUSH2 0x2018 SWAP2 SWAP1 PUSH2 0x2CE8 JUMP JUMPDEST PUSH1 0x40 MLOAD DUP1 SWAP2 SUB SWAP1 REVERT JUMPDEST DUP2 SWAP1 POP PUSH2 0x202A JUMP JUMPDEST JUMPDEST SWAP4 SWAP3 POP POP POP JUMP JUMPDEST PUSH0 DUP2 MLOAD GT ISZERO PUSH2 0x2043 JUMPI DUP1 MLOAD DUP1 DUP3 PUSH1 0x20 ADD REVERT JUMPDEST PUSH1 0x40 MLOAD PUSH32 0x1425EA4200000000000000000000000000000000000000000000000000000000 DUP2 MSTORE PUSH1 0x4 ADD PUSH1 0x40 MLOAD DUP1 SWAP2 SUB SWAP1 REVERT JUMPDEST PUSH1 0x40 MLOAD DUP1 PUSH2 0x100 ADD PUSH1 0x40 MSTORE DUP1 PUSH0 PUSH20 0xFFFFFFFFFFFFFFFFFFFFFFFFFFFFFFFFFFFFFFFF AND DUP2 MSTORE PUSH1 0x20 ADD PUSH0 DUP2 MSTORE PUSH1 0x20 ADD PUSH1 0x60 DUP2 MSTORE PUSH1 0x20 ADD PUSH1 0x60 DUP2 MSTORE PUSH1 0x20 ADD PUSH0 ISZERO ISZERO DUP2 MSTORE PUSH1 0x20 ADD PUSH0 DUP2 MSTORE PUSH1 0x20 ADD PUSH0 DUP2 MSTORE PUSH1 0x20 ADD PUSH0 DUP2 MSTORE POP SWAP1 JUMP JUMPDEST PUSH0 PUSH1 0x40 MLOAD SWAP1 POP SWAP1 JUMP JUMPDEST PUSH0 DUP1 REVERT JUMPDEST PUSH0 DUP1 REVERT JUMPDEST PUSH0 DUP2 SWAP1 POP SWAP2 SWAP1 POP JUMP JUMPDEST PUSH2 0x20EF DUP2 PUSH2 0x20DD JUMP JUMPDEST DUP2 EQ PUSH2 0x20F9 JUMPI PUSH0 DUP1 REVERT JUMPDEST POP JUMP JUMPDEST PUSH0 DUP2 CALLDATALOAD SWAP1 POP PUSH2 0x210A DUP2 PUSH2 0x20E6 JUMP JUMPDEST SWAP3 SWAP2 POP POP JUMP JUMPDEST PUSH0 PUSH1 0x20 DUP3 DUP5 SUB SLT ISZERO PUSH2 0x2125 JUMPI PUSH2 0x2124 PUSH2 0x20D5 JUMP JUMPDEST JUMPDEST PUSH0 PUSH2 0x2132 DUP5 DUP3 DUP6 ADD PUSH2 0x20FC JUMP JUMPDEST SWAP2 POP POP SWAP3 SWAP2 POP POP JUMP JUMPDEST PUSH0 PUSH20 0xFFFFFFFFFFFFFFFFFFFFFFFFFFFFFFFFFFFFFFFF DUP3 AND SWAP1 POP SWAP2 SWAP1 POP JUMP JUMPDEST PUSH0 PUSH2 0x2164 DUP3 PUSH2 0x213B JUMP JUMPDEST SWAP1 POP SWAP2 SWAP1 POP JUMP JUMPDEST PUSH2 0x2174 DUP2 PUSH2 0x215A JUMP JUMPDEST DUP3 MSTORE POP POP JUMP JUMPDEST PUSH2 0x2183 DUP2 PUSH2 0x20DD JUMP JUMPDEST DUP3 MSTORE POP POP JUMP JUMPDEST PUSH0 DUP2 MLOAD SWAP1 POP SWAP2 SWAP1 POP JUMP JUMPDEST PUSH0 DUP3 DUP3 MSTORE PUSH1 0x20 DUP3 ADD SWAP1 POP SWAP3 SWAP2 POP POP JUMP JUMPDEST PUSH0 DUP2 SWAP1 POP PUSH1 0x20 DUP3 ADD SWAP1 POP SWAP2 SWAP1 POP JUMP JUMPDEST PUSH0 PUSH2 0x21BD DUP4 DUP4 PUSH2 0x216B JUMP JUMPDEST PUSH1 0x20 DUP4 ADD SWAP1 POP SWAP3 SWAP2 POP POP JUMP JUMPDEST PUSH0 PUSH1 0x20 DUP3 ADD SWAP1 POP SWAP2 SWAP1 POP JUMP JUMPDEST PUSH0 PUSH2 0x21DF DUP3 PUSH2 0x2189 JUMP JUMPDEST PUSH2 0x21E9 DUP2 DUP6 PUSH2 0x2193 JUMP JUMPDEST SWAP4 POP PUSH2 0x21F4 DUP4 PUSH2 0x21A3 JUMP JUMPDEST DUP1 PUSH0 JUMPDEST DUP4 DUP2 LT ISZERO PUSH2 0x2224 JUMPI DUP2 MLOAD PUSH2 0x220B DUP9 DUP3 PUSH2 0x21B2 JUMP JUMPDEST SWAP8 POP PUSH2 0x2216 DUP4 PUSH2 0x21C9 JUMP JUMPDEST SWAP3 POP POP PUSH1 0x1 DUP2 ADD SWAP1 POP PUSH2 0x21F7 JUMP JUMPDEST POP DUP6 SWAP4 POP POP POP POP SWAP3 SWAP2 POP POP JUMP JUMPDEST PUSH0 DUP2 ISZERO ISZERO SWAP1 POP SWAP2 SWAP1 POP JUMP JUMPDEST PUSH2 0x2245 DUP2 PUSH2 0x2231 JUMP JUMPDEST DUP3 MSTORE POP POP JUMP JUMPDEST PUSH0 PUSH2 0x100 DUP4 ADD PUSH0 DUP4 ADD MLOAD PUSH2 0x2261 PUSH0 DUP7 ADD DUP3 PUSH2 0x216B JUMP JUMPDEST POP PUSH1 0x20 DUP4 ADD MLOAD PUSH2 0x2274 PUSH1 0x20 DUP7 ADD DUP3 PUSH2 0x217A JUMP JUMPDEST POP PUSH1 0x40 DUP4 ADD MLOAD DUP5 DUP3 SUB PUSH1 0x40 DUP7 ADD MSTORE PUSH2 0x228C DUP3 DUP3 PUSH2 0x21D5 JUMP JUMPDEST SWAP2 POP POP PUSH1 0x60 DUP4 ADD MLOAD DUP5 DUP3 SUB PUSH1 0x60 DUP7 ADD MSTORE PUSH2 0x22A6 DUP3 DUP3 PUSH2 0x21D5 JUMP JUMPDEST SWAP2 POP POP PUSH1 0x80 DUP4 ADD MLOAD PUSH2 0x22BB PUSH1 0x80 DUP7 ADD DUP3 PUSH2 0x223C JUMP JUMPDEST POP PUSH1 0xA0 DUP4 ADD MLOAD PUSH2 0x22CE PUSH1 0xA0 DUP7 ADD DUP3 PUSH2 0x217A JUMP JUMPDEST POP PUSH1 0xC0 DUP4 ADD MLOAD PUSH2 0x22E1 PUSH1 0xC0 DUP7 ADD DUP3 PUSH2 0x217A JUMP JUMPDEST POP PUSH1 0xE0 DUP4 ADD MLOAD PUSH2 0x22F4 PUSH1 0xE0 DUP7 ADD DUP3 PUSH2 0x217A JUMP JUMPDEST POP DUP1 SWAP2 POP POP SWAP3 SWAP2 POP POP JUMP JUMPDEST PUSH0 PUSH1 0x20 DUP3 ADD SWAP1 POP DUP2 DUP2 SUB PUSH0 DUP4 ADD MSTORE PUSH2 0x2317 DUP2 DUP5 PUSH2 0x224B JUMP JUMPDEST SWAP1 POP SWAP3 SWAP2 POP POP JUMP JUMPDEST PUSH2 0x2328 DUP2 PUSH2 0x215A JUMP JUMPDEST DUP2 EQ PUSH2 0x2332 JUMPI PUSH0 DUP1 REVERT JUMPDEST POP JUMP JUMPDEST PUSH0 DUP2 CALLDATALOAD SWAP1 POP PUSH2 0x2343 DUP2 PUSH2 0x231F JUMP JUMPDEST SWAP3 SWAP2 POP POP JUMP JUMPDEST PUSH0 DUP1 PUSH1 0x40 DUP4 DUP6 SUB SLT ISZERO PUSH2 0x235F JUMPI PUSH2 0x235E PUSH2 0x20D5 JUMP JUMPDEST JUMPDEST PUSH0 PUSH2 0x236C DUP6 DUP3 DUP7 ADD PUSH2 0x2335 JUMP JUMPDEST SWAP3 POP POP PUSH1 0x20 PUSH2 0x237D DUP6 DUP3 DUP7 ADD PUSH2 0x20FC JUMP JUMPDEST SWAP2 POP POP SWAP3 POP SWAP3 SWAP1 POP JUMP JUMPDEST PUSH2 0x2390 DUP2 PUSH2 0x20DD JUMP JUMPDEST DUP3 MSTORE POP POP JUMP JUMPDEST PUSH0 PUSH1 0x20 DUP3 ADD SWAP1 POP PUSH2 0x23A9 PUSH0 DUP4 ADD DUP5 PUSH2 0x2387 JUMP JUMPDEST SWAP3 SWAP2 POP POP JUMP JUMPDEST PUSH0 DUP2 MLOAD SWAP1 POP SWAP2 SWAP1 POP JUMP JUMPDEST PUSH0 DUP3 DUP3 MSTORE PUSH1 0x20 DUP3 ADD SWAP1 POP SWAP3 SWAP2 POP POP JUMP JUMPDEST PUSH0 DUP2 SWAP1 POP PUSH1 0x20 DUP3 ADD SWAP1 POP SWAP2 SWAP1 POP JUMP JUMPDEST PUSH0 PUSH2 0x100 DUP4 ADD PUSH0 DUP4 ADD MLOAD PUSH2 0x23EE PUSH0 DUP7 ADD DUP3 PUSH2 0x216B JUMP JUMPDEST POP PUSH1 0x20 DUP4 ADD MLOAD PUSH2 0x2401 PUSH1 0x20 DUP7 ADD DUP3 PUSH2 0x217A JUMP JUMPDEST POP PUSH1 0x40 DUP4 ADD MLOAD DUP5 DUP3 SUB PUSH1 0x40 DUP7 ADD MSTORE PUSH2 0x2419 DUP3 DUP3 PUSH2 0x21D5 JUMP JUMPDEST SWAP2 POP POP PUSH1 0x60 DUP4 ADD MLOAD DUP5 DUP3 SUB PUSH1 0x60 DUP7 ADD MSTORE PUSH2 0x2433 DUP3 DUP3 PUSH2 0x21D5 JUMP JUMPDEST SWAP2 POP POP PUSH1 0x80 DUP4 ADD MLOAD PUSH2 0x2448 PUSH1 0x80 DUP7 ADD DUP3 PUSH2 0x223C JUMP JUMPDEST POP PUSH1 0xA0 DUP4 ADD MLOAD PUSH2 0x245B PUSH1 0xA0 DUP7 ADD DUP3 PUSH2 0x217A JUMP JUMPDEST POP PUSH1 0xC0 DUP4 ADD MLOAD PUSH2 0x246E PUSH1 0xC0 DUP7 ADD DUP3 PUSH2 0x217A JUMP JUMPDEST POP PUSH1 0xE0 DUP4 ADD MLOAD PUSH2 0x2481 PUSH1 0xE0 DUP7 ADD DUP3 PUSH2 0x217A JUMP JUMPDEST POP DUP1 SWAP2 POP POP SWAP3 SWAP2 POP POP JUMP JUMPDEST PUSH0 PUSH2 0x2497 DUP4 DUP4 PUSH2 0x23D8 JUMP JUMPDEST SWAP1 POP SWAP3 SWAP2 POP POP JUMP JUMPDEST PUSH0 PUSH1 0x20 DUP3 ADD SWAP1 POP SWAP2 SWAP1 POP JUMP JUMPDEST PUSH0 PUSH2 0x24B5 DUP3 PUSH2 0x23AF JUMP JUMPDEST PUSH2 0x24BF DUP2 DUP6 PUSH2 0x23B9 JUMP JUMPDEST SWAP4 POP DUP4 PUSH1 0x20 DUP3 MUL DUP6 ADD PUSH2 0x24D1 DUP6 PUSH2 0x23C9 JUMP JUMPDEST DUP1 PUSH0 JUMPDEST DUP6 DUP2 LT ISZERO PUSH2 0x250C JUMPI DUP5 DUP5 SUB DUP10 MSTORE DUP2 MLOAD PUSH2 0x24ED DUP6 DUP3 PUSH2 0x248C JUMP JUMPDEST SWAP5 POP PUSH2 0x24F8 DUP4 PUSH2 0x249F JUMP JUMPDEST SWAP3 POP PUSH1 0x20 DUP11 ADD SWAP10 POP POP PUSH1 0x1 DUP2 ADD SWAP1 POP PUSH2 0x24D4 JUMP JUMPDEST POP DUP3 SWAP8 POP DUP8 SWAP6 POP POP POP POP POP POP SWAP3 SWAP2 POP POP JUMP JUMPDEST PUSH0 PUSH1 0x20 DUP3 ADD SWAP1 POP DUP2 DUP2 SUB PUSH0 DUP4 ADD MSTORE PUSH2 0x2536 DUP2 DUP5 PUSH2 0x24AB JUMP JUMPDEST SWAP1 POP SWAP3 SWAP2 POP POP JUMP JUMPDEST PUSH0 DUP3 DUP3 MSTORE PUSH1 0x20 DUP3 ADD SWAP1 POP SWAP3 SWAP2 POP POP JUMP JUMPDEST PUSH0 PUSH2 0x2558 DUP3 PUSH2 0x2189 JUMP JUMPDEST PUSH2 0x2562 DUP2 DUP6 PUSH2 0x253E JUMP JUMPDEST SWAP4 POP PUSH2 0x256D DUP4 PUSH2 0x21A3 JUMP JUMPDEST DUP1 PUSH0 JUMPDEST DUP4 DUP2 LT ISZERO PUSH2 0x259D JUMPI DUP2 MLOAD PUSH2 0x2584 DUP9 DUP3 PUSH2 0x21B2 JUMP JUMPDEST SWAP8 POP PUSH2 0x258F DUP4 PUSH2 0x21C9 JUMP JUMPDEST SWAP3 POP POP PUSH1 0x1 DUP2 ADD SWAP1 POP PUSH2 0x2570 JUMP JUMPDEST POP DUP6 SWAP4 POP POP POP POP SWAP3 SWAP2 POP POP JUMP JUMPDEST PUSH0 PUSH1 0x20 DUP3 ADD SWAP1 POP DUP2 DUP2 SUB PUSH0 DUP4 ADD MSTORE PUSH2 0x25C2 DUP2 DUP5 PUSH2 0x254E JUMP JUMPDEST SWAP1 POP SWAP3 SWAP2 POP POP JUMP JUMPDEST PUSH0 DUP1 REVERT JUMPDEST PUSH0 DUP1 REVERT JUMPDEST PUSH0 PUSH1 0x1F NOT PUSH1 0x1F DUP4 ADD AND SWAP1 POP SWAP2 SWAP1 POP JUMP JUMPDEST PUSH32 0x4E487B7100000000000000000000000000000000000000000000000000000000 PUSH0 MSTORE PUSH1 0x41 PUSH1 0x4 MSTORE PUSH1 0x24 PUSH0 REVERT JUMPDEST PUSH2 0x2618 DUP3 PUSH2 0x25D2 JUMP JUMPDEST DUP2 ADD DUP2 DUP2 LT PUSH8 0xFFFFFFFFFFFFFFFF DUP3 GT OR ISZERO PUSH2 0x2637 JUMPI PUSH2 0x2636 PUSH2 0x25E2 JUMP JUMPDEST JUMPDEST DUP1 PUSH1 0x40 MSTORE POP POP POP JUMP JUMPDEST PUSH0 PUSH2 0x2649 PUSH2 0x20CC JUMP JUMPDEST SWAP1 POP PUSH2 0x2655 DUP3 DUP3 PUSH2 0x260F JUMP JUMPDEST SWAP2 SWAP1 POP JUMP JUMPDEST PUSH0 PUSH8 0xFFFFFFFFFFFFFFFF DUP3 GT ISZERO PUSH2 0x2674 JUMPI PUSH2 0x2673 PUSH2 0x25E2 JUMP JUMPDEST JUMPDEST PUSH2 0x267D DUP3 PUSH2 0x25D2 JUMP JUMPDEST SWAP1 POP PUSH1 0x20 DUP2 ADD SWAP1 POP SWAP2 SWAP1 POP JUMP JUMPDEST DUP3 DUP2 DUP4 CALLDATACOPY PUSH0 DUP4 DUP4 ADD MSTORE POP POP POP JUMP JUMPDEST PUSH0 PUSH2 0x26AA PUSH2 0x26A5 DUP5 PUSH2 0x265A JUMP JUMPDEST PUSH2 0x2640 JUMP JUMPDEST SWAP1 POP DUP3 DUP2 MSTORE PUSH1 0x20 DUP2 ADD DUP5 DUP5 DUP5 ADD GT ISZERO PUSH2 0x26C6 JUMPI PUSH2 0x26C5 PUSH2 0x25CE JUMP JUMPDEST JUMPDEST PUSH2 0x26D1 DUP5 DUP3 DUP6 PUSH2 0x268A JUMP JUMPDEST POP SWAP4 SWAP3 POP POP POP JUMP JUMPDEST PUSH0 DUP3 PUSH1 0x1F DUP4 ADD SLT PUSH2 0x26ED JUMPI PUSH2 0x26EC PUSH2 0x25CA JUMP JUMPDEST JUMPDEST DUP2 CALLDATALOAD PUSH2 0x26FD DUP5 DUP3 PUSH1 0x20 DUP7 ADD PUSH2 0x2698 JUMP JUMPDEST SWAP2 POP POP SWAP3 SWAP2 POP POP JUMP JUMPDEST PUSH0 DUP1 PUSH1 0x40 DUP4 DUP6 SUB SLT ISZERO PUSH2 0x271C JUMPI PUSH2 0x271B PUSH2 0x20D5 JUMP JUMPDEST JUMPDEST PUSH0 PUSH2 0x2729 DUP6 DUP3 DUP7 ADD PUSH2 0x2335 JUMP JUMPDEST SWAP3 POP POP PUSH1 0x20 DUP4 ADD CALLDATALOAD PUSH8 0xFFFFFFFFFFFFFFFF DUP2 GT ISZERO PUSH2 0x274A JUMPI PUSH2 0x2749 PUSH2 0x20D9 JUMP JUMPDEST JUMPDEST PUSH2 0x2756 DUP6 DUP3 DUP7 ADD PUSH2 0x26D9 JUMP JUMPDEST SWAP2 POP POP SWAP3 POP SWAP3 SWAP1 POP JUMP JUMPDEST PUSH0 DUP2 SWAP1 POP SWAP2 SWAP1 POP JUMP JUMPDEST PUSH2 0x2772 DUP2 PUSH2 0x2760 JUMP JUMPDEST DUP3 MSTORE POP POP JUMP JUMPDEST PUSH0 PUSH1 0x20 DUP3 ADD SWAP1 POP PUSH2 0x278B PUSH0 DUP4 ADD DUP5 PUSH2 0x2769 JUMP JUMPDEST SWAP3 SWAP2 POP POP JUMP JUMPDEST PUSH0 PUSH8 0xFFFFFFFFFFFFFFFF DUP3 GT ISZERO PUSH2 0x27AB JUMPI PUSH2 0x27AA PUSH2 0x25E2 JUMP JUMPDEST JUMPDEST PUSH1 0x20 DUP3 MUL SWAP1 POP PUSH1 0x20 DUP2 ADD SWAP1 POP SWAP2 SWAP1 POP JUMP JUMPDEST PUSH0 DUP1 REVERT JUMPDEST PUSH0 PUSH2 0x27D2 PUSH2 0x27CD DUP5 PUSH2 0x2791 JUMP JUMPDEST PUSH2 0x2640 JUMP JUMPDEST SWAP1 POP DUP1 DUP4 DUP3 MSTORE PUSH1 0x20 DUP3 ADD SWAP1 POP PUSH1 0x20 DUP5 MUL DUP4 ADD DUP6 DUP2 GT ISZERO PUSH2 0x27F5 JUMPI PUSH2 0x27F4 PUSH2 0x27BC JUMP JUMPDEST JUMPDEST DUP4 JUMPDEST DUP2 DUP2 LT ISZERO PUSH2 0x281E JUMPI DUP1 PUSH2 0x280A DUP9 DUP3 PUSH2 0x2335 JUMP JUMPDEST DUP5 MSTORE PUSH1 0x20 DUP5 ADD SWAP4 POP POP PUSH1 0x20 DUP2 ADD SWAP1 POP PUSH2 0x27F7 JUMP JUMPDEST POP POP POP SWAP4 SWAP3 POP POP POP JUMP JUMPDEST PUSH0 DUP3 PUSH1 0x1F DUP4 ADD SLT PUSH2 0x283C JUMPI PUSH2 0x283B PUSH2 0x25CA JUMP JUMPDEST JUMPDEST DUP2 CALLDATALOAD PUSH2 0x284C DUP5 DUP3 PUSH1 0x20 DUP7 ADD PUSH2 0x27C0 JUMP JUMPDEST SWAP2 POP POP SWAP3 SWAP2 POP POP JUMP JUMPDEST PUSH0 PUSH1 0x20 DUP3 DUP5 SUB SLT ISZERO PUSH2 0x286A JUMPI PUSH2 0x2869 PUSH2 0x20D5 JUMP JUMPDEST JUMPDEST PUSH0 DUP3 ADD CALLDATALOAD PUSH8 0xFFFFFFFFFFFFFFFF DUP2 GT ISZERO PUSH2 0x2887 JUMPI PUSH2 0x2886 PUSH2 0x20D9 JUMP JUMPDEST JUMPDEST PUSH2 0x2893 DUP5 DUP3 DUP6 ADD PUSH2 0x2828 JUMP JUMPDEST SWAP2 POP POP SWAP3 SWAP2 POP POP JUMP JUMPDEST PUSH0 PUSH1 0x20 DUP3 DUP5 SUB SLT ISZERO PUSH2 0x28B1 JUMPI PUSH2 0x28B0 PUSH2 0x20D5 JUMP JUMPDEST JUMPDEST PUSH0 PUSH2 0x28BE DUP5 DUP3 DUP6 ADD PUSH2 0x2335 JUMP JUMPDEST SWAP2 POP POP SWAP3 SWAP2 POP POP JUMP JUMPDEST PUSH0 DUP2 MLOAD SWAP1 POP SWAP2 SWAP1 POP JUMP JUMPDEST PUSH0 DUP3 DUP3 MSTORE PUSH1 0x20 DUP3 ADD SWAP1 POP SWAP3 SWAP2 POP POP JUMP JUMPDEST DUP3 DUP2 DUP4 MCOPY PUSH0 DUP4 DUP4 ADD MSTORE POP POP POP JUMP JUMPDEST PUSH0 PUSH2 0x28F9 DUP3 PUSH2 0x28C7 JUMP JUMPDEST PUSH2 0x2903 DUP2 DUP6 PUSH2 0x28D1 JUMP JUMPDEST SWAP4 POP PUSH2 0x2913 DUP2 DUP6 PUSH1 0x20 DUP7 ADD PUSH2 0x28E1 JUMP JUMPDEST PUSH2 0x291C DUP2 PUSH2 0x25D2 JUMP JUMPDEST DUP5 ADD SWAP2 POP POP SWAP3 SWAP2 POP POP JUMP JUMPDEST PUSH0 PUSH1 0x20 DUP3 ADD SWAP1 POP DUP2 DUP2 SUB PUSH0 DUP4 ADD MSTORE PUSH2 0x293F DUP2 DUP5 PUSH2 0x28EF JUMP JUMPDEST SWAP1 POP SWAP3 SWAP2 POP POP JUMP JUMPDEST PUSH32 0x4E487B7100000000000000000000000000000000000000000000000000000000 PUSH0 MSTORE PUSH1 0x32 PUSH1 0x4 MSTORE PUSH1 0x24 PUSH0 REVERT JUMPDEST PUSH32 0x496E73756666696369656E742062616C616E636520696E2074686520636F6E74 PUSH0 DUP3 ADD MSTORE PUSH32 0x7261637400000000000000000000000000000000000000000000000000000000 PUSH1 0x20 DUP3 ADD MSTORE POP JUMP JUMPDEST PUSH0 PUSH2 0x29CE PUSH1 0x24 DUP4 PUSH2 0x28D1 JUMP JUMPDEST SWAP2 POP PUSH2 0x29D9 DUP3 PUSH2 0x2974 JUMP JUMPDEST PUSH1 0x40 DUP3 ADD SWAP1 POP SWAP2 SWAP1 POP JUMP JUMPDEST PUSH0 PUSH1 0x20 DUP3 ADD SWAP1 POP DUP2 DUP2 SUB PUSH0 DUP4 ADD MSTORE PUSH2 0x29FB DUP2 PUSH2 0x29C2 JUMP JUMPDEST SWAP1 POP SWAP2 SWAP1 POP JUMP JUMPDEST PUSH2 0x2A0B DUP2 PUSH2 0x215A JUMP JUMPDEST DUP3 MSTORE POP POP JUMP JUMPDEST PUSH0 PUSH1 0x60 DUP3 ADD SWAP1 POP PUSH2 0x2A24 PUSH0 DUP4 ADD DUP7 PUSH2 0x2387 JUMP JUMPDEST PUSH2 0x2A31 PUSH1 0x20 DUP4 ADD DUP6 PUSH2 0x2A02 JUMP JUMPDEST PUSH2 0x2A3E PUSH1 0x40 DUP4 ADD DUP5 PUSH2 0x2387 JUMP JUMPDEST SWAP5 SWAP4 POP POP POP POP JUMP JUMPDEST PUSH32 0x546869732066756E6374696F6E2063616E206F6E6C792062652063616C6C6564 PUSH0 DUP3 ADD MSTORE PUSH32 0x20627920616E20417070726F7665720000000000000000000000000000000000 PUSH1 0x20 DUP3 ADD MSTORE POP JUMP JUMPDEST PUSH0 PUSH2 0x2AA0 PUSH1 0x2F DUP4 PUSH2 0x28D1 JUMP JUMPDEST SWAP2 POP PUSH2 0x2AAB DUP3 PUSH2 0x2A46 JUMP JUMPDEST PUSH1 0x40 DUP3 ADD SWAP1 POP SWAP2 SWAP1 POP JUMP JUMPDEST PUSH0 PUSH1 0x20 DUP3 ADD SWAP1 POP DUP2 DUP2 SUB PUSH0 DUP4 ADD MSTORE PUSH2 0x2ACD DUP2 PUSH2 0x2A94 JUMP JUMPDEST SWAP1 POP SWAP2 SWAP1 POP JUMP JUMPDEST PUSH32 0x546865205472616E73616374696F6E20697320616C7265616479206578656375 PUSH0 DUP3 ADD MSTORE PUSH32 0x7465640000000000000000000000000000000000000000000000000000000000 PUSH1 0x20 DUP3 ADD MSTORE POP JUMP JUMPDEST PUSH0 PUSH2 0x2B2E PUSH1 0x23 DUP4 PUSH2 0x28D1 JUMP JUMPDEST SWAP2 POP PUSH2 0x2B39 DUP3 PUSH2 0x2AD4 JUMP JUMPDEST PUSH1 0x40 DUP3 ADD SWAP1 POP SWAP2 SWAP1 POP JUMP JUMPDEST PUSH0 PUSH1 0x20 DUP3 ADD SWAP1 POP DUP2 DUP2 SUB PUSH0 DUP4 ADD MSTORE PUSH2 0x2B5B DUP2 PUSH2 0x2B22 JUMP JUMPDEST SWAP1 POP SWAP2 SWAP1 POP JUMP JUMPDEST PUSH32 0x4E487B7100000000000000000000000000000000000000000000000000000000 PUSH0 MSTORE PUSH1 0x11 PUSH1 0x4 MSTORE PUSH1 0x24 PUSH0 REVERT JUMPDEST PUSH0 PUSH2 0x2B99 DUP3 PUSH2 0x20DD JUMP JUMPDEST SWAP2 POP PUSH32 0xFFFFFFFFFFFFFFFFFFFFFFFFFFFFFFFFFFFFFFFFFFFFFFFFFFFFFFFFFFFFFFFF DUP3 SUB PUSH2 0x2BCB JUMPI PUSH2 0x2BCA PUSH2 0x2B62 JUMP JUMPDEST JUMPDEST PUSH1 0x1 DUP3 ADD SWAP1 POP SWAP2 SWAP1 POP JUMP JUMPDEST PUSH32 0x4E487B7100000000000000000000000000000000000000000000000000000000 PUSH0 MSTORE PUSH1 0x12 PUSH1 0x4 MSTORE PUSH1 0x24 PUSH0 REVERT JUMPDEST PUSH0 PUSH2 0x2C0D DUP3 PUSH2 0x20DD JUMP JUMPDEST SWAP2 POP PUSH2 0x2C18 DUP4 PUSH2 0x20DD JUMP JUMPDEST SWAP3 POP DUP3 PUSH2 0x2C28 JUMPI PUSH2 0x2C27 PUSH2 0x2BD6 JUMP JUMPDEST JUMPDEST DUP3 DUP3 DIV SWAP1 POP SWAP3 SWAP2 POP POP JUMP JUMPDEST PUSH0 PUSH1 0x40 DUP3 ADD SWAP1 POP PUSH2 0x2C46 PUSH0 DUP4 ADD DUP6 PUSH2 0x2387 JUMP JUMPDEST PUSH2 0x2C53 PUSH1 0x20 DUP4 ADD DUP5 PUSH2 0x2A02 JUMP JUMPDEST SWAP4 SWAP3 POP POP POP JUMP JUMPDEST PUSH32 0x596F7520617265206E6F7420746865206F776E65722068656E63652063616E27 PUSH0 DUP3 ADD MSTORE PUSH32 0x74206368616E6765207468697320000000000000000000000000000000000000 PUSH1 0x20 DUP3 ADD MSTORE POP JUMP JUMPDEST PUSH0 PUSH2 0x2CB4 PUSH1 0x2E DUP4 PUSH2 0x28D1 JUMP JUMPDEST SWAP2 POP PUSH2 0x2CBF DUP3 PUSH2 0x2C5A JUMP JUMPDEST PUSH1 0x40 DUP3 ADD SWAP1 POP SWAP2 SWAP1 POP JUMP JUMPDEST PUSH0 PUSH1 0x20 DUP3 ADD SWAP1 POP DUP2 DUP2 SUB PUSH0 DUP4 ADD MSTORE PUSH2 0x2CE1 DUP2 PUSH2 0x2CA8 JUMP JUMPDEST SWAP1 POP SWAP2 SWAP1 POP JUMP JUMPDEST PUSH0 PUSH1 0x20 DUP3 ADD SWAP1 POP PUSH2 0x2CFB PUSH0 DUP4 ADD DUP5 PUSH2 0x2A02 JUMP JUMPDEST SWAP3 SWAP2 POP POP JUMP JUMPDEST PUSH0 DUP2 SWAP1 POP SWAP2 SWAP1 POP JUMP JUMPDEST PUSH0 PUSH8 0xFFFFFFFFFFFFFFFF DUP3 AND SWAP1 POP SWAP2 SWAP1 POP JUMP JUMPDEST PUSH0 DUP2 SWAP1 POP SWAP2 SWAP1 POP JUMP JUMPDEST PUSH0 PUSH2 0x2D40 PUSH2 0x2D3B PUSH2 0x2D36 DUP5 PUSH2 0x2D01 JUMP JUMPDEST PUSH2 0x2D1D JUMP JUMPDEST PUSH2 0x2D0A JUMP JUMPDEST SWAP1 POP SWAP2 SWAP1 POP JUMP JUMPDEST PUSH2 0x2D50 DUP2 PUSH2 0x2D26 JUMP JUMPDEST DUP3 MSTORE POP POP JUMP JUMPDEST PUSH0 PUSH1 0x20 DUP3 ADD SWAP1 POP PUSH2 0x2D69 PUSH0 DUP4 ADD DUP5 PUSH2 0x2D47 JUMP JUMPDEST SWAP3 SWAP2 POP POP JUMP JUMPDEST PUSH32 0x596F752061726520616C726561647920617070726F7665640000000000000000 PUSH0 DUP3 ADD MSTORE POP JUMP JUMPDEST PUSH0 PUSH2 0x2DA3 PUSH1 0x18 DUP4 PUSH2 0x28D1 JUMP JUMPDEST SWAP2 POP PUSH2 0x2DAE DUP3 PUSH2 0x2D6F JUMP JUMPDEST PUSH1 0x20 DUP3 ADD SWAP1 POP SWAP2 SWAP1 POP JUMP JUMPDEST PUSH0 PUSH1 0x20 DUP3 ADD SWAP1 POP DUP2 DUP2 SUB PUSH0 DUP4 ADD MSTORE PUSH2 0x2DD0 DUP2 PUSH2 0x2D97 JUMP JUMPDEST SWAP1 POP SWAP2 SWAP1 POP JUMP JUMPDEST PUSH0 PUSH2 0x2DE1 DUP3 PUSH2 0x20DD JUMP JUMPDEST SWAP2 POP PUSH2 0x2DEC DUP4 PUSH2 0x20DD JUMP JUMPDEST SWAP3 POP DUP3 DUP3 SUB SWAP1 POP DUP2 DUP2 GT ISZERO PUSH2 0x2E04 JUMPI PUSH2 0x2E03 PUSH2 0x2B62 JUMP JUMPDEST JUMPDEST SWAP3 SWAP2 POP POP JUMP JUMPDEST PUSH32 0x4E487B7100000000000000000000000000000000000000000000000000000000 PUSH0 MSTORE PUSH1 0x31 PUSH1 0x4 MSTORE PUSH1 0x24 PUSH0 REVERT JUMPDEST PUSH32 0x596F752061726520616C726561647920616E20617070726F7665720000000000 PUSH0 DUP3 ADD MSTORE POP JUMP JUMPDEST PUSH0 PUSH2 0x2E6B PUSH1 0x1B DUP4 PUSH2 0x28D1 JUMP JUMPDEST SWAP2 POP PUSH2 0x2E76 DUP3 PUSH2 0x2E37 JUMP JUMPDEST PUSH1 0x20 DUP3 ADD SWAP1 POP SWAP2 SWAP1 POP JUMP JUMPDEST PUSH0 PUSH1 0x20 DUP3 ADD SWAP1 POP DUP2 DUP2 SUB PUSH0 DUP4 ADD MSTORE PUSH2 0x2E98 DUP2 PUSH2 0x2E5F JUMP JUMPDEST SWAP1 POP SWAP2 SWAP1 POP JUMP JUMPDEST PUSH32 0x596F75204861766520616C7265616479206170706C6965640000000000000000 PUSH0 DUP3 ADD MSTORE POP JUMP JUMPDEST PUSH0 PUSH2 0x2ED3 PUSH1 0x18 DUP4 PUSH2 0x28D1 JUMP JUMPDEST SWAP2 POP PUSH2 0x2EDE DUP3 PUSH2 0x2E9F JUMP JUMPDEST PUSH1 0x20 DUP3 ADD SWAP1 POP SWAP2 SWAP1 POP JUMP JUMPDEST PUSH0 PUSH1 0x20 DUP3 ADD SWAP1 POP DUP2 DUP2 SUB PUSH0 DUP4 ADD MSTORE PUSH2 0x2F00 DUP2 PUSH2 0x2EC7 JUMP JUMPDEST SWAP1 POP SWAP2 SWAP1 POP JUMP JUMPDEST PUSH0 DUP2 SWAP1 POP SWAP3 SWAP2 POP POP JUMP JUMPDEST POP JUMP JUMPDEST PUSH0 PUSH2 0x2F1F PUSH0 DUP4 PUSH2 0x2F07 JUMP JUMPDEST SWAP2 POP PUSH2 0x2F2A DUP3 PUSH2 0x2F11 JUMP JUMPDEST PUSH0 DUP3 ADD SWAP1 POP SWAP2 SWAP1 POP JUMP JUMPDEST PUSH0 PUSH2 0x2F3E DUP3 PUSH2 0x2F14 JUMP JUMPDEST SWAP2 POP DUP2 SWAP1 POP SWAP2 SWAP1 POP JUMP JUMPDEST PUSH2 0x2F51 DUP2 PUSH2 0x2760 JUMP JUMPDEST DUP2 EQ PUSH2 0x2F5B JUMPI PUSH0 DUP1 REVERT JUMPDEST POP JUMP JUMPDEST PUSH0 DUP2 MLOAD SWAP1 POP PUSH2 0x2F6C DUP2 PUSH2 0x2F48 JUMP JUMPDEST SWAP3 SWAP2 POP POP JUMP JUMPDEST PUSH0 PUSH1 0x20 DUP3 DUP5 SUB SLT ISZERO PUSH2 0x2F87 JUMPI PUSH2 0x2F86 PUSH2 0x20D5 JUMP JUMPDEST JUMPDEST PUSH0 PUSH2 0x2F94 DUP5 DUP3 DUP6 ADD PUSH2 0x2F5E JUMP JUMPDEST SWAP2 POP POP SWAP3 SWAP2 POP POP JUMP JUMPDEST PUSH0 DUP2 MLOAD SWAP1 POP SWAP2 SWAP1 POP JUMP JUMPDEST PUSH0 PUSH2 0x2FB1 DUP3 PUSH2 0x2F9D JUMP JUMPDEST PUSH2 0x2FBB DUP2 DUP6 PUSH2 0x2F07 JUMP JUMPDEST SWAP4 POP PUSH2 0x2FCB DUP2 DUP6 PUSH1 0x20 DUP7 ADD PUSH2 0x28E1 JUMP JUMPDEST DUP1 DUP5 ADD SWAP2 POP POP SWAP3 SWAP2 POP POP JUMP JUMPDEST PUSH0 PUSH2 0x2FE2 DUP3 DUP5 PUSH2 0x2FA7 JUMP JUMPDEST SWAP2 POP DUP2 SWAP1 POP SWAP3 SWAP2 POP POP JUMP INVALID LOG2 PUSH5 0x6970667358 0x22 SLT KECCAK256 0x24 CALLDATASIZE 0xE3 JUMPI 0xD5 0x2C CODESIZE PUSH31 0x32FA6A73D9587281574A9062AE88FAC421EEC300A7CDA49164736F6C634300 ADDMOD BYTE STOP CALLER "
				},
				"gasEstimates": {
					"creation": {
						"codeDepositCost": "2464600",
						"executionCost": "infinite",
						"totalCost": "infinite"
					},
					"external": {
						"UPGRADE_INTERFACE_VERSION()": "infinite",
						"addApprovers(address[])": "infinite",
						"appliedApproversList()": "infinite",
						"applyForApprover(address)": "infinite",
						"approveApprover(address)": "infinite",
						"approveTransaction(uint256)": "infinite",
						"approversList()": "infinite",
						"balance()": "356",
						"createTransaction(address,uint256)": "infinite",
						"disapproveTransaction(uint256)": "infinite",
						"getAllTransactions()": "infinite",
						"getBalance(address)": "3357",
						"getTransactionDetails(uint256)": "infinite",
						"initialize()": "infinite",
						"proxiableUUID()": "infinite",
						"receivEthere()": "207",
						"upgradeToAndCall(address,bytes)": "infinite"
					},
					"internal": {
						"_authorizeUpgrade(address)": "infinite",
						"executeTransaction(uint256)": "infinite",
						"getMax(uint256,uint256)": "63"
					}
				},
				"methodIdentifiers": {
					"UPGRADE_INTERFACE_VERSION()": "ad3cb1cc",
					"addApprovers(address[])": "6a882d51",
					"appliedApproversList()": "35b0d745",
					"applyForApprover(address)": "c82830ea",
					"approveApprover(address)": "838d4cd1",
					"approveTransaction(uint256)": "242232d1",
					"approversList()": "be2af9cb",
					"balance()": "b69ef8a8",
					"createTransaction(address,uint256)": "1e7f8f0f",
					"disapproveTransaction(uint256)": "9911a149",
					"getAllTransactions()": "27506f53",
					"getBalance(address)": "f8b2cb4f",
					"getTransactionDetails(uint256)": "0fa683d3",
					"initialize()": "8129fc1c",
					"proxiableUUID()": "52d1902d",
					"receivEthere()": "f2c7aded",
					"upgradeToAndCall(address,bytes)": "4f1ef286"
				}
			},
			"storageLayout": {
				"storage": [
					{
						"astId": 1203,
						"contract": "payable.sol:Payable",
						"label": "Contarctowner",
						"offset": 0,
						"slot": "0",
						"type": "t_address"
					},
					{
						"astId": 1207,
						"contract": "payable.sol:Payable",
						"label": "approvedApprovers",
						"offset": 0,
						"slot": "1",
						"type": "t_mapping(t_address,t_bool)"
					},
					{
						"astId": 1211,
						"contract": "payable.sol:Payable",
						"label": "appliedForApprovers",
						"offset": 0,
						"slot": "2",
						"type": "t_mapping(t_address,t_bool)"
					},
					{
						"astId": 1214,
						"contract": "payable.sol:Payable",
						"label": "allApprovedAddresses",
						"offset": 0,
						"slot": "3",
						"type": "t_array(t_address)dyn_storage"
					},
					{
						"astId": 1217,
						"contract": "payable.sol:Payable",
						"label": "allAppliedAddresses",
						"offset": 0,
						"slot": "4",
						"type": "t_array(t_address)dyn_storage"
					},
					{
						"astId": 1221,
						"contract": "payable.sol:Payable",
						"label": "transactions",
						"offset": 0,
						"slot": "5",
						"type": "t_array(t_struct(Transaction)1288_storage)dyn_storage"
					},
					{
						"astId": 1223,
						"contract": "payable.sol:Payable",
						"label": "approverCount",
						"offset": 0,
						"slot": "6",
						"type": "t_uint256"
					},
					{
						"astId": 1225,
						"contract": "payable.sol:Payable",
						"label": "minimumApprovals",
						"offset": 0,
						"slot": "7",
						"type": "t_uint256"
					}
				],
				"types": {
					"t_address": {
						"encoding": "inplace",
						"label": "address",
						"numberOfBytes": "20"
					},
					"t_array(t_address)dyn_storage": {
						"base": "t_address",
						"encoding": "dynamic_array",
						"label": "address[]",
						"numberOfBytes": "32"
					},
					"t_array(t_struct(Transaction)1288_storage)dyn_storage": {
						"base": "t_struct(Transaction)1288_storage",
						"encoding": "dynamic_array",
						"label": "struct Payable.Transaction[]",
						"numberOfBytes": "32"
					},
					"t_bool": {
						"encoding": "inplace",
						"label": "bool",
						"numberOfBytes": "1"
					},
					"t_mapping(t_address,t_bool)": {
						"encoding": "mapping",
						"key": "t_address",
						"label": "mapping(address => bool)",
						"numberOfBytes": "32",
						"value": "t_bool"
					},
					"t_struct(Transaction)1288_storage": {
						"encoding": "inplace",
						"label": "struct Payable.Transaction",
						"members": [
							{
								"astId": 1271,
								"contract": "payable.sol:Payable",
								"label": "to",
								"offset": 0,
								"slot": "0",
								"type": "t_address"
							},
							{
								"astId": 1273,
								"contract": "payable.sol:Payable",
								"label": "amount",
								"offset": 0,
								"slot": "1",
								"type": "t_uint256"
							},
							{
								"astId": 1276,
								"contract": "payable.sol:Payable",
								"label": "approvals",
								"offset": 0,
								"slot": "2",
								"type": "t_array(t_address)dyn_storage"
							},
							{
								"astId": 1279,
								"contract": "payable.sol:Payable",
								"label": "disapprovals",
								"offset": 0,
								"slot": "3",
								"type": "t_array(t_address)dyn_storage"
							},
							{
								"astId": 1281,
								"contract": "payable.sol:Payable",
								"label": "executed",
								"offset": 0,
								"slot": "4",
								"type": "t_bool"
							},
							{
								"astId": 1283,
								"contract": "payable.sol:Payable",
								"label": "timestamp",
								"offset": 0,
								"slot": "5",
								"type": "t_uint256"
							},
							{
								"astId": 1285,
								"contract": "payable.sol:Payable",
								"label": "approvalCount",
								"offset": 0,
								"slot": "6",
								"type": "t_uint256"
							},
							{
								"astId": 1287,
								"contract": "payable.sol:Payable",
								"label": "disapprovalCount",
								"offset": 0,
								"slot": "7",
								"type": "t_uint256"
							}
						],
						"numberOfBytes": "256"
					},
					"t_uint256": {
						"encoding": "inplace",
						"label": "uint256",
						"numberOfBytes": "32"
					}
				}
			},
			"userdoc": {
				"kind": "user",
				"methods": {},
				"version": 1
			}
		}
	}
}