{
	"learning.sol": {
		"ApproverToken": {
			"abi": [
				{
					"inputs": [
						{
							"internalType": "string",
							"name": "name",
							"type": "string"
						},
						{
							"internalType": "string",
							"name": "symbol",
							"type": "string"
						}
					],
					"stateMutability": "nonpayable",
					"type": "constructor"
				},
				{
					"inputs": [
						{
							"internalType": "address",
							"name": "spender",
							"type": "address"
						},
						{
							"internalType": "uint256",
							"name": "allowance",
							"type": "uint256"
						},
						{
							"internalType": "uint256",
							"name": "needed",
							"type": "uint256"
						}
					],
					"name": "ERC20InsufficientAllowance",
					"type": "error"
				},
				{
					"inputs": [
						{
							"internalType": "address",
							"name": "sender",
							"type": "address"
						},
						{
							"internalType": "uint256",
							"name": "balance",
							"type": "uint256"
						},
						{
							"internalType": "uint256",
							"name": "needed",
							"type": "uint256"
						}
					],
					"name": "ERC20InsufficientBalance",
					"type": "error"
				},
				{
					"inputs": [
						{
							"internalType": "address",
							"name": "approver",
							"type": "address"
						}
					],
					"name": "ERC20InvalidApprover",
					"type": "error"
				},
				{
					"inputs": [
						{
							"internalType": "address",
							"name": "receiver",
							"type": "address"
						}
					],
					"name": "ERC20InvalidReceiver",
					"type": "error"
				},
				{
					"inputs": [
						{
							"internalType": "address",
							"name": "sender",
							"type": "address"
						}
					],
					"name": "ERC20InvalidSender",
					"type": "error"
				},
				{
					"inputs": [
						{
							"internalType": "address",
							"name": "spender",
							"type": "address"
						}
					],
					"name": "ERC20InvalidSpender",
					"type": "error"
				},
				{
					"anonymous": false,
					"inputs": [
						{
							"indexed": false,
							"internalType": "address",
							"name": "applied",
							"type": "address"
						}
					],
					"name": "AppliedForApproval",
					"type": "event"
				},
				{
					"anonymous": false,
					"inputs": [
						{
							"indexed": true,
							"internalType": "address",
							"name": "owner",
							"type": "address"
						},
						{
							"indexed": true,
							"internalType": "address",
							"name": "spender",
							"type": "address"
						},
						{
							"indexed": false,
							"internalType": "uint256",
							"name": "value",
							"type": "uint256"
						}
					],
					"name": "Approval",
					"type": "event"
				},
				{
					"anonymous": false,
					"inputs": [
						{
							"indexed": false,
							"internalType": "address",
							"name": "approved",
							"type": "address"
						}
					],
					"name": "Approved",
					"type": "event"
				},
				{
					"anonymous": false,
					"inputs": [
						{
							"indexed": false,
							"internalType": "address",
							"name": "deleted",
							"type": "address"
						}
					],
					"name": "DeletedApprover",
					"type": "event"
				},
				{
					"anonymous": false,
					"inputs": [
						{
							"indexed": false,
							"internalType": "uint256",
							"name": "transactionId",
							"type": "uint256"
						},
						{
							"indexed": false,
							"internalType": "address",
							"name": "approver",
							"type": "address"
						}
					],
					"name": "TransactionApproved",
					"type": "event"
				},
				{
					"anonymous": false,
					"inputs": [
						{
							"indexed": false,
							"internalType": "uint256",
							"name": "transactionId",
							"type": "uint256"
						},
						{
							"indexed": false,
							"internalType": "address",
							"name": "from",
							"type": "address"
						},
						{
							"indexed": false,
							"internalType": "address",
							"name": "to",
							"type": "address"
						},
						{
							"indexed": false,
							"internalType": "uint256",
							"name": "amount",
							"type": "uint256"
						}
					],
					"name": "TransactionCreated",
					"type": "event"
				},
				{
					"anonymous": false,
					"inputs": [
						{
							"indexed": false,
							"internalType": "uint256",
							"name": "transactionId",
							"type": "uint256"
						}
					],
					"name": "TransactionExecuted",
					"type": "event"
				},
				{
					"anonymous": false,
					"inputs": [
						{
							"indexed": true,
							"internalType": "address",
							"name": "from",
							"type": "address"
						},
						{
							"indexed": true,
							"internalType": "address",
							"name": "to",
							"type": "address"
						},
						{
							"indexed": false,
							"internalType": "uint256",
							"name": "value",
							"type": "uint256"
						}
					],
					"name": "Transfer",
					"type": "event"
				},
				{
					"inputs": [
						{
							"internalType": "address",
							"name": "owner",
							"type": "address"
						},
						{
							"internalType": "address",
							"name": "spender",
							"type": "address"
						}
					],
					"name": "allowance",
					"outputs": [
						{
							"internalType": "uint256",
							"name": "",
							"type": "uint256"
						}
					],
					"stateMutability": "view",
					"type": "function"
				},
				{
					"inputs": [
						{
							"internalType": "address",
							"name": "",
							"type": "address"
						}
					],
					"name": "appliedForApprovals",
					"outputs": [
						{
							"internalType": "bool",
							"name": "",
							"type": "bool"
						}
					],
					"stateMutability": "view",
					"type": "function"
				},
				{
					"inputs": [],
					"name": "applyForApproval",
					"outputs": [],
					"stateMutability": "nonpayable",
					"type": "function"
				},
				{
					"inputs": [
						{
							"internalType": "address",
							"name": "spender",
							"type": "address"
						},
						{
							"internalType": "uint256",
							"name": "value",
							"type": "uint256"
						}
					],
					"name": "approve",
					"outputs": [
						{
							"internalType": "bool",
							"name": "",
							"type": "bool"
						}
					],
					"stateMutability": "nonpayable",
					"type": "function"
				},
				{
					"inputs": [
						{
							"internalType": "address",
							"name": "toBeApproved",
							"type": "address"
						}
					],
					"name": "approveApprovall",
					"outputs": [],
					"stateMutability": "nonpayable",
					"type": "function"
				},
				{
					"inputs": [
						{
							"internalType": "uint256",
							"name": "_transactionId",
							"type": "uint256"
						}
					],
					"name": "approveTransaction",
					"outputs": [],
					"stateMutability": "nonpayable",
					"type": "function"
				},
				{
					"inputs": [
						{
							"internalType": "address",
							"name": "",
							"type": "address"
						}
					],
					"name": "approvedApprovers",
					"outputs": [
						{
							"internalType": "bool",
							"name": "",
							"type": "bool"
						}
					],
					"stateMutability": "view",
					"type": "function"
				},
				{
					"inputs": [
						{
							"internalType": "address",
							"name": "account",
							"type": "address"
						}
					],
					"name": "balanceOf",
					"outputs": [
						{
							"internalType": "uint256",
							"name": "",
							"type": "uint256"
						}
					],
					"stateMutability": "view",
					"type": "function"
				},
				{
					"inputs": [
						{
							"internalType": "address",
							"name": "_to",
							"type": "address"
						},
						{
							"internalType": "uint256",
							"name": "_amount",
							"type": "uint256"
						}
					],
					"name": "createTransaction",
					"outputs": [],
					"stateMutability": "nonpayable",
					"type": "function"
				},
				{
					"inputs": [],
					"name": "decimals",
					"outputs": [
						{
							"internalType": "uint8",
							"name": "",
							"type": "uint8"
						}
					],
					"stateMutability": "view",
					"type": "function"
				},
				{
					"inputs": [
						{
							"internalType": "address",
							"name": "toBeDeleted",
							"type": "address"
						}
					],
					"name": "deleteApprover",
					"outputs": [],
					"stateMutability": "nonpayable",
					"type": "function"
				},
				{
					"inputs": [],
					"name": "name",
					"outputs": [
						{
							"internalType": "string",
							"name": "",
							"type": "string"
						}
					],
					"stateMutability": "view",
					"type": "function"
				},
				{
					"inputs": [],
					"name": "owner",
					"outputs": [
						{
							"internalType": "address",
							"name": "",
							"type": "address"
						}
					],
					"stateMutability": "view",
					"type": "function"
				},
				{
					"inputs": [],
					"name": "symbol",
					"outputs": [
						{
							"internalType": "string",
							"name": "",
							"type": "string"
						}
					],
					"stateMutability": "view",
					"type": "function"
				},
				{
					"inputs": [],
					"name": "totalSupply",
					"outputs": [
						{
							"internalType": "uint256",
							"name": "",
							"type": "uint256"
						}
					],
					"stateMutability": "view",
					"type": "function"
				},
				{
					"inputs": [
						{
							"internalType": "uint256",
							"name": "",
							"type": "uint256"
						}
					],
					"name": "transactions",
					"outputs": [
						{
							"internalType": "address",
							"name": "from",
							"type": "address"
						},
						{
							"internalType": "address",
							"name": "to",
							"type": "address"
						},
						{
							"internalType": "uint256",
							"name": "amount",
							"type": "uint256"
						},
						{
							"internalType": "uint256",
							"name": "approvalCount",
							"type": "uint256"
						},
						{
							"internalType": "bool",
							"name": "executed",
							"type": "bool"
						}
					],
					"stateMutability": "view",
					"type": "function"
				},
				{
					"inputs": [
						{
							"internalType": "address",
							"name": "to",
							"type": "address"
						},
						{
							"internalType": "uint256",
							"name": "value",
							"type": "uint256"
						}
					],
					"name": "transfer",
					"outputs": [
						{
							"internalType": "bool",
							"name": "",
							"type": "bool"
						}
					],
					"stateMutability": "nonpayable",
					"type": "function"
				},
				{
					"inputs": [
						{
							"internalType": "address",
							"name": "from",
							"type": "address"
						},
						{
							"internalType": "address",
							"name": "to",
							"type": "address"
						},
						{
							"internalType": "uint256",
							"name": "value",
							"type": "uint256"
						}
					],
					"name": "transferFrom",
					"outputs": [
						{
							"internalType": "bool",
							"name": "",
							"type": "bool"
						}
					],
					"stateMutability": "nonpayable",
					"type": "function"
				}
			],
			"devdoc": {
				"errors": {
					"ERC20InsufficientAllowance(address,uint256,uint256)": [
						{
							"details": "Indicates a failure with the `spender`’s `allowance`. Used in transfers.",
							"params": {
								"allowance": "Amount of tokens a `spender` is allowed to operate with.",
								"needed": "Minimum amount required to perform a transfer.",
								"spender": "Address that may be allowed to operate on tokens without being their owner."
							}
						}
					],
					"ERC20InsufficientBalance(address,uint256,uint256)": [
						{
							"details": "Indicates an error related to the current `balance` of a `sender`. Used in transfers.",
							"params": {
								"balance": "Current balance for the interacting account.",
								"needed": "Minimum amount required to perform a transfer.",
								"sender": "Address whose tokens are being transferred."
							}
						}
					],
					"ERC20InvalidApprover(address)": [
						{
							"details": "Indicates a failure with the `approver` of a token to be approved. Used in approvals.",
							"params": {
								"approver": "Address initiating an approval operation."
							}
						}
					],
					"ERC20InvalidReceiver(address)": [
						{
							"details": "Indicates a failure with the token `receiver`. Used in transfers.",
							"params": {
								"receiver": "Address to which tokens are being transferred."
							}
						}
					],
					"ERC20InvalidSender(address)": [
						{
							"details": "Indicates a failure with the token `sender`. Used in transfers.",
							"params": {
								"sender": "Address whose tokens are being transferred."
							}
						}
					],
					"ERC20InvalidSpender(address)": [
						{
							"details": "Indicates a failure with the `spender` to be approved. Used in approvals.",
							"params": {
								"spender": "Address that may be allowed to operate on tokens without being their owner."
							}
						}
					]
				},
				"events": {
					"Approval(address,address,uint256)": {
						"details": "Emitted when the allowance of a `spender` for an `owner` is set by a call to {approve}. `value` is the new allowance."
					},
					"Transfer(address,address,uint256)": {
						"details": "Emitted when `value` tokens are moved from one account (`from`) to another (`to`). Note that `value` may be zero."
					}
				},
				"kind": "dev",
				"methods": {
					"allowance(address,address)": {
						"details": "See {IERC20-allowance}."
					},
					"approve(address,uint256)": {
						"details": "See {IERC20-approve}. NOTE: If `value` is the maximum `uint256`, the allowance is not updated on `transferFrom`. This is semantically equivalent to an infinite approval. Requirements: - `spender` cannot be the zero address."
					},
					"balanceOf(address)": {
						"details": "See {IERC20-balanceOf}."
					},
					"decimals()": {
						"details": "Returns the number of decimals used to get its user representation. For example, if `decimals` equals `2`, a balance of `505` tokens should be displayed to a user as `5.05` (`505 / 10 ** 2`). Tokens usually opt for a value of 18, imitating the relationship between Ether and Wei. This is the default value returned by this function, unless it's overridden. NOTE: This information is only used for _display_ purposes: it in no way affects any of the arithmetic of the contract, including {IERC20-balanceOf} and {IERC20-transfer}."
					},
					"name()": {
						"details": "Returns the name of the token."
					},
					"symbol()": {
						"details": "Returns the symbol of the token, usually a shorter version of the name."
					},
					"totalSupply()": {
						"details": "See {IERC20-totalSupply}."
					},
					"transfer(address,uint256)": {
						"details": "See {IERC20-transfer}. Requirements: - `to` cannot be the zero address. - the caller must have a balance of at least `value`."
					},
					"transferFrom(address,address,uint256)": {
						"details": "See {IERC20-transferFrom}. Emits an {Approval} event indicating the updated allowance. This is not required by the EIP. See the note at the beginning of {ERC20}. NOTE: Does not update the allowance if the current allowance is the maximum `uint256`. Requirements: - `from` and `to` cannot be the zero address. - `from` must have a balance of at least `value`. - the caller must have allowance for ``from``'s tokens of at least `value`."
					}
				},
				"version": 1
			},
			"evm": {
				"assembly": "    /* \"learning.sol\":114:3761  contract ApproverToken is ERC20{ ... */\n  mstore(0x40, 0x80)\n    /* \"learning.sol\":941:1144  constructor(string memory name, string memory symbol) ERC20(name, symbol){... */\n  callvalue\n  dup1\n  iszero\n  tag_1\n  jumpi\n  0x00\n  dup1\n  revert\ntag_1:\n  pop\n  mload(0x40)\n  sub(codesize, bytecodeSize)\n  dup1\n  bytecodeSize\n  dup4\n  codecopy\n  dup2\n  dup2\n  add\n  0x40\n  mstore\n  dup2\n  add\n  swap1\n  tag_2\n  swap2\n  swap1\n  tag_3\n  jump\t// in\ntag_2:\n    /* \"learning.sol\":1001:1005  name */\n  dup2\n    /* \"learning.sol\":1007:1013  symbol */\n  dup2\n    /* \"@openzeppelin/contracts/token/ERC20/ERC20.sol\":1970:1975  name_ */\n  dup2\n    /* \"@openzeppelin/contracts/token/ERC20/ERC20.sol\":1962:1967  _name */\n  0x03\n    /* \"@openzeppelin/contracts/token/ERC20/ERC20.sol\":1962:1975  _name = name_ */\n  swap1\n  dup2\n  tag_7\n  swap2\n  swap1\n  tag_8\n  jump\t// in\ntag_7:\n  pop\n    /* \"@openzeppelin/contracts/token/ERC20/ERC20.sol\":1995:2002  symbol_ */\n  dup1\n    /* \"@openzeppelin/contracts/token/ERC20/ERC20.sol\":1985:1992  _symbol */\n  0x04\n    /* \"@openzeppelin/contracts/token/ERC20/ERC20.sol\":1985:2002  _symbol = symbol_ */\n  swap1\n  dup2\n  tag_9\n  swap2\n  swap1\n  tag_8\n  jump\t// in\ntag_9:\n  pop\n    /* \"@openzeppelin/contracts/token/ERC20/ERC20.sol\":1896:2009  constructor(string memory name_, string memory symbol_) {... */\n  pop\n  pop\n    /* \"learning.sol\":1030:1040  msg.sender */\n  caller\n    /* \"learning.sol\":1024:1029  owner */\n  0x05\n  0x00\n    /* \"learning.sol\":1024:1040  owner=msg.sender */\n  0x0100\n  exp\n  dup2\n  sload\n  dup2\n  0xffffffffffffffffffffffffffffffffffffffff\n  mul\n  not\n  and\n  swap1\n  dup4\n  0xffffffffffffffffffffffffffffffffffffffff\n  and\n  mul\n  or\n  swap1\n  sstore\n  pop\n    /* \"learning.sol\":1080:1084  true */\n  0x01\n    /* \"learning.sol\":1050:1067  approvedApprovers */\n  0x06\n    /* \"learning.sol\":1050:1079  approvedApprovers[msg.sender] */\n  0x00\n    /* \"learning.sol\":1068:1078  msg.sender */\n  caller\n    /* \"learning.sol\":1050:1079  approvedApprovers[msg.sender] */\n  0xffffffffffffffffffffffffffffffffffffffff\n  and\n  0xffffffffffffffffffffffffffffffffffffffff\n  and\n  dup2\n  mstore\n  0x20\n  add\n  swap1\n  dup2\n  mstore\n  0x20\n  add\n  0x00\n  keccak256\n  0x00\n    /* \"learning.sol\":1050:1084  approvedApprovers[msg.sender]=true */\n  0x0100\n  exp\n  dup2\n  sload\n  dup2\n  0xff\n  mul\n  not\n  and\n  swap1\n  dup4\n  iszero\n  iszero\n  mul\n  or\n  swap1\n  sstore\n  pop\n    /* \"learning.sol\":1094:1137  _mint(msg.sender, 1000000 * 10**decimals()) */\n  tag_11\n    /* \"learning.sol\":1100:1110  msg.sender */\n  caller\n    /* \"learning.sol\":1126:1136  decimals() */\n  tag_12\n    /* \"learning.sol\":1126:1134  decimals */\n  shl(0x20, tag_13)\n    /* \"learning.sol\":1126:1136  decimals() */\n  0x20\n  shr\n  jump\t// in\ntag_12:\n    /* \"learning.sol\":1122:1124  10 */\n  0x0a\n    /* \"learning.sol\":1122:1136  10**decimals() */\n  tag_14\n  swap2\n  swap1\n  tag_15\n  jump\t// in\ntag_14:\n    /* \"learning.sol\":1112:1119  1000000 */\n  0x0f4240\n    /* \"learning.sol\":1112:1136  1000000 * 10**decimals() */\n  tag_16\n  swap2\n  swap1\n  tag_17\n  jump\t// in\ntag_16:\n    /* \"learning.sol\":1094:1099  _mint */\n  shl(0x20, tag_18)\n    /* \"learning.sol\":1094:1137  _mint(msg.sender, 1000000 * 10**decimals()) */\n  0x20\n  shr\n  jump\t// in\ntag_11:\n    /* \"learning.sol\":941:1144  constructor(string memory name, string memory symbol) ERC20(name, symbol){... */\n  pop\n  pop\n    /* \"learning.sol\":114:3761  contract ApproverToken is ERC20{ ... */\n  jump(tag_19)\n    /* \"@openzeppelin/contracts/token/ERC20/ERC20.sol\":3002:3084  function decimals() public view virtual returns (uint8) {... */\ntag_13:\n    /* \"@openzeppelin/contracts/token/ERC20/ERC20.sol\":3051:3056  uint8 */\n  0x00\n    /* \"@openzeppelin/contracts/token/ERC20/ERC20.sol\":3075:3077  18 */\n  0x12\n    /* \"@openzeppelin/contracts/token/ERC20/ERC20.sol\":3068:3077  return 18 */\n  swap1\n  pop\n    /* \"@openzeppelin/contracts/token/ERC20/ERC20.sol\":3002:3084  function decimals() public view virtual returns (uint8) {... */\n  swap1\n  jump\t// out\n    /* \"@openzeppelin/contracts/token/ERC20/ERC20.sol\":7721:7929  function _mint(address account, uint256 value) internal {... */\ntag_18:\n    /* \"@openzeppelin/contracts/token/ERC20/ERC20.sol\":7810:7811  0 */\n  0x00\n    /* \"@openzeppelin/contracts/token/ERC20/ERC20.sol\":7791:7812  account == address(0) */\n  0xffffffffffffffffffffffffffffffffffffffff\n  and\n    /* \"@openzeppelin/contracts/token/ERC20/ERC20.sol\":7791:7798  account */\n  dup3\n    /* \"@openzeppelin/contracts/token/ERC20/ERC20.sol\":7791:7812  account == address(0) */\n  0xffffffffffffffffffffffffffffffffffffffff\n  and\n  sub\n    /* \"@openzeppelin/contracts/token/ERC20/ERC20.sol\":7787:7878  if (account == address(0)) {... */\n  tag_22\n  jumpi\n    /* \"@openzeppelin/contracts/token/ERC20/ERC20.sol\":7864:7865  0 */\n  0x00\n    /* \"@openzeppelin/contracts/token/ERC20/ERC20.sol\":7835:7867  ERC20InvalidReceiver(address(0)) */\n  mload(0x40)\n  0xec442f0500000000000000000000000000000000000000000000000000000000\n  dup2\n  mstore\n  0x04\n  add\n  tag_23\n  swap2\n  swap1\n  tag_24\n  jump\t// in\ntag_23:\n  mload(0x40)\n  dup1\n  swap2\n  sub\n  swap1\n  revert\n    /* \"@openzeppelin/contracts/token/ERC20/ERC20.sol\":7787:7878  if (account == address(0)) {... */\ntag_22:\n    /* \"@openzeppelin/contracts/token/ERC20/ERC20.sol\":7887:7922  _update(address(0), account, value) */\n  tag_25\n    /* \"@openzeppelin/contracts/token/ERC20/ERC20.sol\":7903:7904  0 */\n  0x00\n    /* \"@openzeppelin/contracts/token/ERC20/ERC20.sol\":7907:7914  account */\n  dup4\n    /* \"@openzeppelin/contracts/token/ERC20/ERC20.sol\":7916:7921  value */\n  dup4\n    /* \"@openzeppelin/contracts/token/ERC20/ERC20.sol\":7887:7894  _update */\n  shl(0x20, tag_26)\n    /* \"@openzeppelin/contracts/token/ERC20/ERC20.sol\":7887:7922  _update(address(0), account, value) */\n  0x20\n  shr\n  jump\t// in\ntag_25:\n    /* \"@openzeppelin/contracts/token/ERC20/ERC20.sol\":7721:7929  function _mint(address account, uint256 value) internal {... */\n  pop\n  pop\n  jump\t// out\n    /* \"@openzeppelin/contracts/token/ERC20/ERC20.sol\":6271:7378  function _update(address from, address to, uint256 value) internal virtual {... */\ntag_26:\n    /* \"@openzeppelin/contracts/token/ERC20/ERC20.sol\":6376:6377  0 */\n  0x00\n    /* \"@openzeppelin/contracts/token/ERC20/ERC20.sol\":6360:6378  from == address(0) */\n  0xffffffffffffffffffffffffffffffffffffffff\n  and\n    /* \"@openzeppelin/contracts/token/ERC20/ERC20.sol\":6360:6364  from */\n  dup4\n    /* \"@openzeppelin/contracts/token/ERC20/ERC20.sol\":6360:6378  from == address(0) */\n  0xffffffffffffffffffffffffffffffffffffffff\n  and\n  sub\n    /* \"@openzeppelin/contracts/token/ERC20/ERC20.sol\":6356:6896  if (from == address(0)) {... */\n  tag_28\n  jumpi\n    /* \"@openzeppelin/contracts/token/ERC20/ERC20.sol\":6512:6517  value */\n  dup1\n    /* \"@openzeppelin/contracts/token/ERC20/ERC20.sol\":6496:6508  _totalSupply */\n  0x02\n  0x00\n    /* \"@openzeppelin/contracts/token/ERC20/ERC20.sol\":6496:6517  _totalSupply += value */\n  dup3\n  dup3\n  sload\n  tag_29\n  swap2\n  swap1\n  tag_30\n  jump\t// in\ntag_29:\n  swap3\n  pop\n  pop\n  dup2\n  swap1\n  sstore\n  pop\n    /* \"@openzeppelin/contracts/token/ERC20/ERC20.sol\":6356:6896  if (from == address(0)) {... */\n  jump(tag_31)\ntag_28:\n    /* \"@openzeppelin/contracts/token/ERC20/ERC20.sol\":6548:6567  uint256 fromBalance */\n  0x00\n    /* \"@openzeppelin/contracts/token/ERC20/ERC20.sol\":6570:6579  _balances */\n  dup1\n    /* \"@openzeppelin/contracts/token/ERC20/ERC20.sol\":6570:6585  _balances[from] */\n  0x00\n    /* \"@openzeppelin/contracts/token/ERC20/ERC20.sol\":6580:6584  from */\n  dup6\n    /* \"@openzeppelin/contracts/token/ERC20/ERC20.sol\":6570:6585  _balances[from] */\n  0xffffffffffffffffffffffffffffffffffffffff\n  and\n  0xffffffffffffffffffffffffffffffffffffffff\n  and\n  dup2\n  mstore\n  0x20\n  add\n  swap1\n  dup2\n  mstore\n  0x20\n  add\n  0x00\n  keccak256\n  sload\n    /* \"@openzeppelin/contracts/token/ERC20/ERC20.sol\":6548:6585  uint256 fromBalance = _balances[from] */\n  swap1\n  pop\n    /* \"@openzeppelin/contracts/token/ERC20/ERC20.sol\":6617:6622  value */\n  dup2\n    /* \"@openzeppelin/contracts/token/ERC20/ERC20.sol\":6603:6614  fromBalance */\n  dup2\n    /* \"@openzeppelin/contracts/token/ERC20/ERC20.sol\":6603:6622  fromBalance < value */\n  lt\n    /* \"@openzeppelin/contracts/token/ERC20/ERC20.sol\":6599:6714  if (fromBalance < value) {... */\n  iszero\n  tag_32\n  jumpi\n    /* \"@openzeppelin/contracts/token/ERC20/ERC20.sol\":6674:6678  from */\n  dup4\n    /* \"@openzeppelin/contracts/token/ERC20/ERC20.sol\":6680:6691  fromBalance */\n  dup2\n    /* \"@openzeppelin/contracts/token/ERC20/ERC20.sol\":6693:6698  value */\n  dup4\n    /* \"@openzeppelin/contracts/token/ERC20/ERC20.sol\":6649:6699  ERC20InsufficientBalance(from, fromBalance, value) */\n  mload(0x40)\n  0xe450d38c00000000000000000000000000000000000000000000000000000000\n  dup2\n  mstore\n  0x04\n  add\n  tag_33\n  swap4\n  swap3\n  swap2\n  swap1\n  tag_34\n  jump\t// in\ntag_33:\n  mload(0x40)\n  dup1\n  swap2\n  sub\n  swap1\n  revert\n    /* \"@openzeppelin/contracts/token/ERC20/ERC20.sol\":6599:6714  if (fromBalance < value) {... */\ntag_32:\n    /* \"@openzeppelin/contracts/token/ERC20/ERC20.sol\":6866:6871  value */\n  dup2\n    /* \"@openzeppelin/contracts/token/ERC20/ERC20.sol\":6852:6863  fromBalance */\n  dup2\n    /* \"@openzeppelin/contracts/token/ERC20/ERC20.sol\":6852:6871  fromBalance - value */\n  sub\n    /* \"@openzeppelin/contracts/token/ERC20/ERC20.sol\":6834:6843  _balances */\n  0x00\n    /* \"@openzeppelin/contracts/token/ERC20/ERC20.sol\":6834:6849  _balances[from] */\n  dup1\n    /* \"@openzeppelin/contracts/token/ERC20/ERC20.sol\":6844:6848  from */\n  dup7\n    /* \"@openzeppelin/contracts/token/ERC20/ERC20.sol\":6834:6849  _balances[from] */\n  0xffffffffffffffffffffffffffffffffffffffff\n  and\n  0xffffffffffffffffffffffffffffffffffffffff\n  and\n  dup2\n  mstore\n  0x20\n  add\n  swap1\n  dup2\n  mstore\n  0x20\n  add\n  0x00\n  keccak256\n    /* \"@openzeppelin/contracts/token/ERC20/ERC20.sol\":6834:6871  _balances[from] = fromBalance - value */\n  dup2\n  swap1\n  sstore\n  pop\n    /* \"@openzeppelin/contracts/token/ERC20/ERC20.sol\":6534:6896  {... */\n  pop\n    /* \"@openzeppelin/contracts/token/ERC20/ERC20.sol\":6356:6896  if (from == address(0)) {... */\ntag_31:\n    /* \"@openzeppelin/contracts/token/ERC20/ERC20.sol\":6924:6925  0 */\n  0x00\n    /* \"@openzeppelin/contracts/token/ERC20/ERC20.sol\":6910:6926  to == address(0) */\n  0xffffffffffffffffffffffffffffffffffffffff\n  and\n    /* \"@openzeppelin/contracts/token/ERC20/ERC20.sol\":6910:6912  to */\n  dup3\n    /* \"@openzeppelin/contracts/token/ERC20/ERC20.sol\":6910:6926  to == address(0) */\n  0xffffffffffffffffffffffffffffffffffffffff\n  and\n  sub\n    /* \"@openzeppelin/contracts/token/ERC20/ERC20.sol\":6906:7331  if (to == address(0)) {... */\n  tag_35\n  jumpi\n    /* \"@openzeppelin/contracts/token/ERC20/ERC20.sol\":7089:7094  value */\n  dup1\n    /* \"@openzeppelin/contracts/token/ERC20/ERC20.sol\":7073:7085  _totalSupply */\n  0x02\n  0x00\n    /* \"@openzeppelin/contracts/token/ERC20/ERC20.sol\":7073:7094  _totalSupply -= value */\n  dup3\n  dup3\n  sload\n  sub\n  swap3\n  pop\n  pop\n  dup2\n  swap1\n  sstore\n  pop\n    /* \"@openzeppelin/contracts/token/ERC20/ERC20.sol\":6906:7331  if (to == address(0)) {... */\n  jump(tag_36)\ntag_35:\n    /* \"@openzeppelin/contracts/token/ERC20/ERC20.sol\":7301:7306  value */\n  dup1\n    /* \"@openzeppelin/contracts/token/ERC20/ERC20.sol\":7284:7293  _balances */\n  0x00\n    /* \"@openzeppelin/contracts/token/ERC20/ERC20.sol\":7284:7297  _balances[to] */\n  dup1\n    /* \"@openzeppelin/contracts/token/ERC20/ERC20.sol\":7294:7296  to */\n  dup5\n    /* \"@openzeppelin/contracts/token/ERC20/ERC20.sol\":7284:7297  _balances[to] */\n  0xffffffffffffffffffffffffffffffffffffffff\n  and\n  0xffffffffffffffffffffffffffffffffffffffff\n  and\n  dup2\n  mstore\n  0x20\n  add\n  swap1\n  dup2\n  mstore\n  0x20\n  add\n  0x00\n  keccak256\n  0x00\n    /* \"@openzeppelin/contracts/token/ERC20/ERC20.sol\":7284:7306  _balances[to] += value */\n  dup3\n  dup3\n  sload\n  add\n  swap3\n  pop\n  pop\n  dup2\n  swap1\n  sstore\n  pop\n    /* \"@openzeppelin/contracts/token/ERC20/ERC20.sol\":6906:7331  if (to == address(0)) {... */\ntag_36:\n    /* \"@openzeppelin/contracts/token/ERC20/ERC20.sol\":7361:7363  to */\n  dup2\n    /* \"@openzeppelin/contracts/token/ERC20/ERC20.sol\":7346:7371  Transfer(from, to, value) */\n  0xffffffffffffffffffffffffffffffffffffffff\n  and\n    /* \"@openzeppelin/contracts/token/ERC20/ERC20.sol\":7355:7359  from */\n  dup4\n    /* \"@openzeppelin/contracts/token/ERC20/ERC20.sol\":7346:7371  Transfer(from, to, value) */\n  0xffffffffffffffffffffffffffffffffffffffff\n  and\n  0xddf252ad1be2c89b69c2b068fc378daa952ba7f163c4a11628f55a4df523b3ef\n    /* \"@openzeppelin/contracts/token/ERC20/ERC20.sol\":7365:7370  value */\n  dup4\n    /* \"@openzeppelin/contracts/token/ERC20/ERC20.sol\":7346:7371  Transfer(from, to, value) */\n  mload(0x40)\n  tag_37\n  swap2\n  swap1\n  tag_38\n  jump\t// in\ntag_37:\n  mload(0x40)\n  dup1\n  swap2\n  sub\n  swap1\n  log3\n    /* \"@openzeppelin/contracts/token/ERC20/ERC20.sol\":6271:7378  function _update(address from, address to, uint256 value) internal virtual {... */\n  pop\n  pop\n  pop\n  jump\t// out\n    /* \"#utility.yul\":7:82   */\ntag_39:\n    /* \"#utility.yul\":40:46   */\n  0x00\n    /* \"#utility.yul\":73:75   */\n  0x40\n    /* \"#utility.yul\":67:76   */\n  mload\n    /* \"#utility.yul\":57:76   */\n  swap1\n  pop\n    /* \"#utility.yul\":7:82   */\n  swap1\n  jump\t// out\n    /* \"#utility.yul\":88:205   */\ntag_40:\n    /* \"#utility.yul\":197:198   */\n  0x00\n    /* \"#utility.yul\":194:195   */\n  dup1\n    /* \"#utility.yul\":187:199   */\n  revert\n    /* \"#utility.yul\":211:328   */\ntag_41:\n    /* \"#utility.yul\":320:321   */\n  0x00\n    /* \"#utility.yul\":317:318   */\n  dup1\n    /* \"#utility.yul\":310:322   */\n  revert\n    /* \"#utility.yul\":334:451   */\ntag_42:\n    /* \"#utility.yul\":443:444   */\n  0x00\n    /* \"#utility.yul\":440:441   */\n  dup1\n    /* \"#utility.yul\":433:445   */\n  revert\n    /* \"#utility.yul\":457:574   */\ntag_43:\n    /* \"#utility.yul\":566:567   */\n  0x00\n    /* \"#utility.yul\":563:564   */\n  dup1\n    /* \"#utility.yul\":556:568   */\n  revert\n    /* \"#utility.yul\":580:682   */\ntag_44:\n    /* \"#utility.yul\":621:627   */\n  0x00\n    /* \"#utility.yul\":672:674   */\n  0x1f\n    /* \"#utility.yul\":668:675   */\n  not\n    /* \"#utility.yul\":663:665   */\n  0x1f\n    /* \"#utility.yul\":656:661   */\n  dup4\n    /* \"#utility.yul\":652:666   */\n  add\n    /* \"#utility.yul\":648:676   */\n  and\n    /* \"#utility.yul\":638:676   */\n  swap1\n  pop\n    /* \"#utility.yul\":580:682   */\n  swap2\n  swap1\n  pop\n  jump\t// out\n    /* \"#utility.yul\":688:868   */\ntag_45:\n    /* \"#utility.yul\":736:813   */\n  0x4e487b7100000000000000000000000000000000000000000000000000000000\n    /* \"#utility.yul\":733:734   */\n  0x00\n    /* \"#utility.yul\":726:814   */\n  mstore\n    /* \"#utility.yul\":833:837   */\n  0x41\n    /* \"#utility.yul\":830:831   */\n  0x04\n    /* \"#utility.yul\":823:838   */\n  mstore\n    /* \"#utility.yul\":857:861   */\n  0x24\n    /* \"#utility.yul\":854:855   */\n  0x00\n    /* \"#utility.yul\":847:862   */\n  revert\n    /* \"#utility.yul\":874:1155   */\ntag_46:\n    /* \"#utility.yul\":957:984   */\n  tag_89\n    /* \"#utility.yul\":979:983   */\n  dup3\n    /* \"#utility.yul\":957:984   */\n  tag_44\n  jump\t// in\ntag_89:\n    /* \"#utility.yul\":949:955   */\n  dup2\n    /* \"#utility.yul\":945:985   */\n  add\n    /* \"#utility.yul\":1087:1093   */\n  dup2\n    /* \"#utility.yul\":1075:1085   */\n  dup2\n    /* \"#utility.yul\":1072:1094   */\n  lt\n    /* \"#utility.yul\":1051:1069   */\n  0xffffffffffffffff\n    /* \"#utility.yul\":1039:1049   */\n  dup3\n    /* \"#utility.yul\":1036:1070   */\n  gt\n    /* \"#utility.yul\":1033:1095   */\n  or\n    /* \"#utility.yul\":1030:1118   */\n  iszero\n  tag_90\n  jumpi\n    /* \"#utility.yul\":1098:1116   */\n  tag_91\n  tag_45\n  jump\t// in\ntag_91:\n    /* \"#utility.yul\":1030:1118   */\ntag_90:\n    /* \"#utility.yul\":1138:1148   */\n  dup1\n    /* \"#utility.yul\":1134:1136   */\n  0x40\n    /* \"#utility.yul\":1127:1149   */\n  mstore\n    /* \"#utility.yul\":917:1155   */\n  pop\n    /* \"#utility.yul\":874:1155   */\n  pop\n  pop\n  jump\t// out\n    /* \"#utility.yul\":1161:1290   */\ntag_47:\n    /* \"#utility.yul\":1195:1201   */\n  0x00\n    /* \"#utility.yul\":1222:1242   */\n  tag_93\n  tag_39\n  jump\t// in\ntag_93:\n    /* \"#utility.yul\":1212:1242   */\n  swap1\n  pop\n    /* \"#utility.yul\":1251:1284   */\n  tag_94\n    /* \"#utility.yul\":1279:1283   */\n  dup3\n    /* \"#utility.yul\":1271:1277   */\n  dup3\n    /* \"#utility.yul\":1251:1284   */\n  tag_46\n  jump\t// in\ntag_94:\n    /* \"#utility.yul\":1161:1290   */\n  swap2\n  swap1\n  pop\n  jump\t// out\n    /* \"#utility.yul\":1296:1604   */\ntag_48:\n    /* \"#utility.yul\":1358:1362   */\n  0x00\n    /* \"#utility.yul\":1448:1466   */\n  0xffffffffffffffff\n    /* \"#utility.yul\":1440:1446   */\n  dup3\n    /* \"#utility.yul\":1437:1467   */\n  gt\n    /* \"#utility.yul\":1434:1490   */\n  iszero\n  tag_96\n  jumpi\n    /* \"#utility.yul\":1470:1488   */\n  tag_97\n  tag_45\n  jump\t// in\ntag_97:\n    /* \"#utility.yul\":1434:1490   */\ntag_96:\n    /* \"#utility.yul\":1508:1537   */\n  tag_98\n    /* \"#utility.yul\":1530:1536   */\n  dup3\n    /* \"#utility.yul\":1508:1537   */\n  tag_44\n  jump\t// in\ntag_98:\n    /* \"#utility.yul\":1500:1537   */\n  swap1\n  pop\n    /* \"#utility.yul\":1592:1596   */\n  0x20\n    /* \"#utility.yul\":1586:1590   */\n  dup2\n    /* \"#utility.yul\":1582:1597   */\n  add\n    /* \"#utility.yul\":1574:1597   */\n  swap1\n  pop\n    /* \"#utility.yul\":1296:1604   */\n  swap2\n  swap1\n  pop\n  jump\t// out\n    /* \"#utility.yul\":1610:1749   */\ntag_49:\n    /* \"#utility.yul\":1699:1705   */\n  dup3\n    /* \"#utility.yul\":1694:1697   */\n  dup2\n    /* \"#utility.yul\":1689:1692   */\n  dup4\n    /* \"#utility.yul\":1683:1706   */\n  mcopy\n    /* \"#utility.yul\":1740:1741   */\n  0x00\n    /* \"#utility.yul\":1731:1737   */\n  dup4\n    /* \"#utility.yul\":1726:1729   */\n  dup4\n    /* \"#utility.yul\":1722:1738   */\n  add\n    /* \"#utility.yul\":1715:1742   */\n  mstore\n    /* \"#utility.yul\":1610:1749   */\n  pop\n  pop\n  pop\n  jump\t// out\n    /* \"#utility.yul\":1755:2189   */\ntag_50:\n    /* \"#utility.yul\":1844:1849   */\n  0x00\n    /* \"#utility.yul\":1869:1935   */\n  tag_101\n    /* \"#utility.yul\":1885:1934   */\n  tag_102\n    /* \"#utility.yul\":1927:1933   */\n  dup5\n    /* \"#utility.yul\":1885:1934   */\n  tag_48\n  jump\t// in\ntag_102:\n    /* \"#utility.yul\":1869:1935   */\n  tag_47\n  jump\t// in\ntag_101:\n    /* \"#utility.yul\":1860:1935   */\n  swap1\n  pop\n    /* \"#utility.yul\":1958:1964   */\n  dup3\n    /* \"#utility.yul\":1951:1956   */\n  dup2\n    /* \"#utility.yul\":1944:1965   */\n  mstore\n    /* \"#utility.yul\":1996:2000   */\n  0x20\n    /* \"#utility.yul\":1989:1994   */\n  dup2\n    /* \"#utility.yul\":1985:2001   */\n  add\n    /* \"#utility.yul\":2034:2037   */\n  dup5\n    /* \"#utility.yul\":2025:2031   */\n  dup5\n    /* \"#utility.yul\":2020:2023   */\n  dup5\n    /* \"#utility.yul\":2016:2032   */\n  add\n    /* \"#utility.yul\":2013:2038   */\n  gt\n    /* \"#utility.yul\":2010:2122   */\n  iszero\n  tag_103\n  jumpi\n    /* \"#utility.yul\":2041:2120   */\n  tag_104\n  tag_43\n  jump\t// in\ntag_104:\n    /* \"#utility.yul\":2010:2122   */\ntag_103:\n    /* \"#utility.yul\":2131:2183   */\n  tag_105\n    /* \"#utility.yul\":2176:2182   */\n  dup5\n    /* \"#utility.yul\":2171:2174   */\n  dup3\n    /* \"#utility.yul\":2166:2169   */\n  dup6\n    /* \"#utility.yul\":2131:2183   */\n  tag_49\n  jump\t// in\ntag_105:\n    /* \"#utility.yul\":1850:2189   */\n  pop\n    /* \"#utility.yul\":1755:2189   */\n  swap4\n  swap3\n  pop\n  pop\n  pop\n  jump\t// out\n    /* \"#utility.yul\":2209:2564   */\ntag_51:\n    /* \"#utility.yul\":2276:2281   */\n  0x00\n    /* \"#utility.yul\":2325:2328   */\n  dup3\n    /* \"#utility.yul\":2318:2322   */\n  0x1f\n    /* \"#utility.yul\":2310:2316   */\n  dup4\n    /* \"#utility.yul\":2306:2323   */\n  add\n    /* \"#utility.yul\":2302:2329   */\n  slt\n    /* \"#utility.yul\":2292:2414   */\n  tag_107\n  jumpi\n    /* \"#utility.yul\":2333:2412   */\n  tag_108\n  tag_42\n  jump\t// in\ntag_108:\n    /* \"#utility.yul\":2292:2414   */\ntag_107:\n    /* \"#utility.yul\":2443:2449   */\n  dup2\n    /* \"#utility.yul\":2437:2450   */\n  mload\n    /* \"#utility.yul\":2468:2558   */\n  tag_109\n    /* \"#utility.yul\":2554:2557   */\n  dup5\n    /* \"#utility.yul\":2546:2552   */\n  dup3\n    /* \"#utility.yul\":2539:2543   */\n  0x20\n    /* \"#utility.yul\":2531:2537   */\n  dup7\n    /* \"#utility.yul\":2527:2544   */\n  add\n    /* \"#utility.yul\":2468:2558   */\n  tag_50\n  jump\t// in\ntag_109:\n    /* \"#utility.yul\":2459:2558   */\n  swap2\n  pop\n    /* \"#utility.yul\":2282:2564   */\n  pop\n    /* \"#utility.yul\":2209:2564   */\n  swap3\n  swap2\n  pop\n  pop\n  jump\t// out\n    /* \"#utility.yul\":2570:3423   */\ntag_3:\n    /* \"#utility.yul\":2669:2675   */\n  0x00\n    /* \"#utility.yul\":2677:2683   */\n  dup1\n    /* \"#utility.yul\":2726:2728   */\n  0x40\n    /* \"#utility.yul\":2714:2723   */\n  dup4\n    /* \"#utility.yul\":2705:2712   */\n  dup6\n    /* \"#utility.yul\":2701:2724   */\n  sub\n    /* \"#utility.yul\":2697:2729   */\n  slt\n    /* \"#utility.yul\":2694:2813   */\n  iszero\n  tag_111\n  jumpi\n    /* \"#utility.yul\":2732:2811   */\n  tag_112\n  tag_40\n  jump\t// in\ntag_112:\n    /* \"#utility.yul\":2694:2813   */\ntag_111:\n    /* \"#utility.yul\":2873:2874   */\n  0x00\n    /* \"#utility.yul\":2862:2871   */\n  dup4\n    /* \"#utility.yul\":2858:2875   */\n  add\n    /* \"#utility.yul\":2852:2876   */\n  mload\n    /* \"#utility.yul\":2903:2921   */\n  0xffffffffffffffff\n    /* \"#utility.yul\":2895:2901   */\n  dup2\n    /* \"#utility.yul\":2892:2922   */\n  gt\n    /* \"#utility.yul\":2889:3006   */\n  iszero\n  tag_113\n  jumpi\n    /* \"#utility.yul\":2925:3004   */\n  tag_114\n  tag_41\n  jump\t// in\ntag_114:\n    /* \"#utility.yul\":2889:3006   */\ntag_113:\n    /* \"#utility.yul\":3030:3104   */\n  tag_115\n    /* \"#utility.yul\":3096:3103   */\n  dup6\n    /* \"#utility.yul\":3087:3093   */\n  dup3\n    /* \"#utility.yul\":3076:3085   */\n  dup7\n    /* \"#utility.yul\":3072:3094   */\n  add\n    /* \"#utility.yul\":3030:3104   */\n  tag_51\n  jump\t// in\ntag_115:\n    /* \"#utility.yul\":3020:3104   */\n  swap3\n  pop\n    /* \"#utility.yul\":2823:3114   */\n  pop\n    /* \"#utility.yul\":3174:3176   */\n  0x20\n    /* \"#utility.yul\":3163:3172   */\n  dup4\n    /* \"#utility.yul\":3159:3177   */\n  add\n    /* \"#utility.yul\":3153:3178   */\n  mload\n    /* \"#utility.yul\":3205:3223   */\n  0xffffffffffffffff\n    /* \"#utility.yul\":3197:3203   */\n  dup2\n    /* \"#utility.yul\":3194:3224   */\n  gt\n    /* \"#utility.yul\":3191:3308   */\n  iszero\n  tag_116\n  jumpi\n    /* \"#utility.yul\":3227:3306   */\n  tag_117\n  tag_41\n  jump\t// in\ntag_117:\n    /* \"#utility.yul\":3191:3308   */\ntag_116:\n    /* \"#utility.yul\":3332:3406   */\n  tag_118\n    /* \"#utility.yul\":3398:3405   */\n  dup6\n    /* \"#utility.yul\":3389:3395   */\n  dup3\n    /* \"#utility.yul\":3378:3387   */\n  dup7\n    /* \"#utility.yul\":3374:3396   */\n  add\n    /* \"#utility.yul\":3332:3406   */\n  tag_51\n  jump\t// in\ntag_118:\n    /* \"#utility.yul\":3322:3406   */\n  swap2\n  pop\n    /* \"#utility.yul\":3124:3416   */\n  pop\n    /* \"#utility.yul\":2570:3423   */\n  swap3\n  pop\n  swap3\n  swap1\n  pop\n  jump\t// out\n    /* \"#utility.yul\":3429:3528   */\ntag_52:\n    /* \"#utility.yul\":3481:3487   */\n  0x00\n    /* \"#utility.yul\":3515:3520   */\n  dup2\n    /* \"#utility.yul\":3509:3521   */\n  mload\n    /* \"#utility.yul\":3499:3521   */\n  swap1\n  pop\n    /* \"#utility.yul\":3429:3528   */\n  swap2\n  swap1\n  pop\n  jump\t// out\n    /* \"#utility.yul\":3534:3714   */\ntag_53:\n    /* \"#utility.yul\":3582:3659   */\n  0x4e487b7100000000000000000000000000000000000000000000000000000000\n    /* \"#utility.yul\":3579:3580   */\n  0x00\n    /* \"#utility.yul\":3572:3660   */\n  mstore\n    /* \"#utility.yul\":3679:3683   */\n  0x22\n    /* \"#utility.yul\":3676:3677   */\n  0x04\n    /* \"#utility.yul\":3669:3684   */\n  mstore\n    /* \"#utility.yul\":3703:3707   */\n  0x24\n    /* \"#utility.yul\":3700:3701   */\n  0x00\n    /* \"#utility.yul\":3693:3708   */\n  revert\n    /* \"#utility.yul\":3720:4040   */\ntag_54:\n    /* \"#utility.yul\":3764:3770   */\n  0x00\n    /* \"#utility.yul\":3801:3802   */\n  0x02\n    /* \"#utility.yul\":3795:3799   */\n  dup3\n    /* \"#utility.yul\":3791:3803   */\n  div\n    /* \"#utility.yul\":3781:3803   */\n  swap1\n  pop\n    /* \"#utility.yul\":3848:3849   */\n  0x01\n    /* \"#utility.yul\":3842:3846   */\n  dup3\n    /* \"#utility.yul\":3838:3850   */\n  and\n    /* \"#utility.yul\":3869:3887   */\n  dup1\n    /* \"#utility.yul\":3859:3940   */\n  tag_122\n  jumpi\n    /* \"#utility.yul\":3925:3929   */\n  0x7f\n    /* \"#utility.yul\":3917:3923   */\n  dup3\n    /* \"#utility.yul\":3913:3930   */\n  and\n    /* \"#utility.yul\":3903:3930   */\n  swap2\n  pop\n    /* \"#utility.yul\":3859:3940   */\ntag_122:\n    /* \"#utility.yul\":3987:3989   */\n  0x20\n    /* \"#utility.yul\":3979:3985   */\n  dup3\n    /* \"#utility.yul\":3976:3990   */\n  lt\n    /* \"#utility.yul\":3956:3974   */\n  dup2\n    /* \"#utility.yul\":3953:3991   */\n  sub\n    /* \"#utility.yul\":3950:4034   */\n  tag_123\n  jumpi\n    /* \"#utility.yul\":4006:4024   */\n  tag_124\n  tag_53\n  jump\t// in\ntag_124:\n    /* \"#utility.yul\":3950:4034   */\ntag_123:\n    /* \"#utility.yul\":3771:4040   */\n  pop\n    /* \"#utility.yul\":3720:4040   */\n  swap2\n  swap1\n  pop\n  jump\t// out\n    /* \"#utility.yul\":4046:4187   */\ntag_55:\n    /* \"#utility.yul\":4095:4099   */\n  0x00\n    /* \"#utility.yul\":4118:4121   */\n  dup2\n    /* \"#utility.yul\":4110:4121   */\n  swap1\n  pop\n    /* \"#utility.yul\":4141:4144   */\n  dup2\n    /* \"#utility.yul\":4138:4139   */\n  0x00\n    /* \"#utility.yul\":4131:4145   */\n  mstore\n    /* \"#utility.yul\":4175:4179   */\n  0x20\n    /* \"#utility.yul\":4172:4173   */\n  0x00\n    /* \"#utility.yul\":4162:4180   */\n  keccak256\n    /* \"#utility.yul\":4154:4180   */\n  swap1\n  pop\n    /* \"#utility.yul\":4046:4187   */\n  swap2\n  swap1\n  pop\n  jump\t// out\n    /* \"#utility.yul\":4193:4286   */\ntag_56:\n    /* \"#utility.yul\":4230:4236   */\n  0x00\n    /* \"#utility.yul\":4277:4279   */\n  0x20\n    /* \"#utility.yul\":4272:4274   */\n  0x1f\n    /* \"#utility.yul\":4265:4270   */\n  dup4\n    /* \"#utility.yul\":4261:4275   */\n  add\n    /* \"#utility.yul\":4257:4280   */\n  div\n    /* \"#utility.yul\":4247:4280   */\n  swap1\n  pop\n    /* \"#utility.yul\":4193:4286   */\n  swap2\n  swap1\n  pop\n  jump\t// out\n    /* \"#utility.yul\":4292:4399   */\ntag_57:\n    /* \"#utility.yul\":4336:4344   */\n  0x00\n    /* \"#utility.yul\":4386:4391   */\n  dup3\n    /* \"#utility.yul\":4380:4384   */\n  dup3\n    /* \"#utility.yul\":4376:4392   */\n  shl\n    /* \"#utility.yul\":4355:4392   */\n  swap1\n  pop\n    /* \"#utility.yul\":4292:4399   */\n  swap3\n  swap2\n  pop\n  pop\n  jump\t// out\n    /* \"#utility.yul\":4405:4798   */\ntag_58:\n    /* \"#utility.yul\":4474:4480   */\n  0x00\n    /* \"#utility.yul\":4524:4525   */\n  0x08\n    /* \"#utility.yul\":4512:4522   */\n  dup4\n    /* \"#utility.yul\":4508:4526   */\n  mul\n    /* \"#utility.yul\":4547:4644   */\n  tag_129\n    /* \"#utility.yul\":4577:4643   */\n  0xffffffffffffffffffffffffffffffffffffffffffffffffffffffffffffffff\n    /* \"#utility.yul\":4566:4575   */\n  dup3\n    /* \"#utility.yul\":4547:4644   */\n  tag_57\n  jump\t// in\ntag_129:\n    /* \"#utility.yul\":4665:4704   */\n  tag_130\n    /* \"#utility.yul\":4695:4703   */\n  dup7\n    /* \"#utility.yul\":4684:4693   */\n  dup4\n    /* \"#utility.yul\":4665:4704   */\n  tag_57\n  jump\t// in\ntag_130:\n    /* \"#utility.yul\":4653:4704   */\n  swap6\n  pop\n    /* \"#utility.yul\":4737:4741   */\n  dup1\n    /* \"#utility.yul\":4733:4742   */\n  not\n    /* \"#utility.yul\":4726:4731   */\n  dup5\n    /* \"#utility.yul\":4722:4743   */\n  and\n    /* \"#utility.yul\":4713:4743   */\n  swap4\n  pop\n    /* \"#utility.yul\":4786:4790   */\n  dup1\n    /* \"#utility.yul\":4776:4784   */\n  dup7\n    /* \"#utility.yul\":4772:4791   */\n  and\n    /* \"#utility.yul\":4765:4770   */\n  dup5\n    /* \"#utility.yul\":4762:4792   */\n  or\n    /* \"#utility.yul\":4752:4792   */\n  swap3\n  pop\n    /* \"#utility.yul\":4481:4798   */\n  pop\n  pop\n    /* \"#utility.yul\":4405:4798   */\n  swap4\n  swap3\n  pop\n  pop\n  pop\n  jump\t// out\n    /* \"#utility.yul\":4804:4881   */\ntag_59:\n    /* \"#utility.yul\":4841:4848   */\n  0x00\n    /* \"#utility.yul\":4870:4875   */\n  dup2\n    /* \"#utility.yul\":4859:4875   */\n  swap1\n  pop\n    /* \"#utility.yul\":4804:4881   */\n  swap2\n  swap1\n  pop\n  jump\t// out\n    /* \"#utility.yul\":4887:4947   */\ntag_60:\n    /* \"#utility.yul\":4915:4918   */\n  0x00\n    /* \"#utility.yul\":4936:4941   */\n  dup2\n    /* \"#utility.yul\":4929:4941   */\n  swap1\n  pop\n    /* \"#utility.yul\":4887:4947   */\n  swap2\n  swap1\n  pop\n  jump\t// out\n    /* \"#utility.yul\":4953:5095   */\ntag_61:\n    /* \"#utility.yul\":5003:5012   */\n  0x00\n    /* \"#utility.yul\":5036:5089   */\n  tag_134\n    /* \"#utility.yul\":5054:5088   */\n  tag_135\n    /* \"#utility.yul\":5063:5087   */\n  tag_136\n    /* \"#utility.yul\":5081:5086   */\n  dup5\n    /* \"#utility.yul\":5063:5087   */\n  tag_59\n  jump\t// in\ntag_136:\n    /* \"#utility.yul\":5054:5088   */\n  tag_60\n  jump\t// in\ntag_135:\n    /* \"#utility.yul\":5036:5089   */\n  tag_59\n  jump\t// in\ntag_134:\n    /* \"#utility.yul\":5023:5089   */\n  swap1\n  pop\n    /* \"#utility.yul\":4953:5095   */\n  swap2\n  swap1\n  pop\n  jump\t// out\n    /* \"#utility.yul\":5101:5176   */\ntag_62:\n    /* \"#utility.yul\":5144:5147   */\n  0x00\n    /* \"#utility.yul\":5165:5170   */\n  dup2\n    /* \"#utility.yul\":5158:5170   */\n  swap1\n  pop\n    /* \"#utility.yul\":5101:5176   */\n  swap2\n  swap1\n  pop\n  jump\t// out\n    /* \"#utility.yul\":5182:5451   */\ntag_63:\n    /* \"#utility.yul\":5292:5331   */\n  tag_139\n    /* \"#utility.yul\":5323:5330   */\n  dup4\n    /* \"#utility.yul\":5292:5331   */\n  tag_61\n  jump\t// in\ntag_139:\n    /* \"#utility.yul\":5353:5444   */\n  tag_140\n    /* \"#utility.yul\":5402:5443   */\n  tag_141\n    /* \"#utility.yul\":5426:5442   */\n  dup3\n    /* \"#utility.yul\":5402:5443   */\n  tag_62\n  jump\t// in\ntag_141:\n    /* \"#utility.yul\":5394:5400   */\n  dup5\n    /* \"#utility.yul\":5387:5391   */\n  dup5\n    /* \"#utility.yul\":5381:5392   */\n  sload\n    /* \"#utility.yul\":5353:5444   */\n  tag_58\n  jump\t// in\ntag_140:\n    /* \"#utility.yul\":5347:5351   */\n  dup3\n    /* \"#utility.yul\":5340:5445   */\n  sstore\n    /* \"#utility.yul\":5258:5451   */\n  pop\n    /* \"#utility.yul\":5182:5451   */\n  pop\n  pop\n  pop\n  jump\t// out\n    /* \"#utility.yul\":5457:5530   */\ntag_64:\n    /* \"#utility.yul\":5502:5505   */\n  0x00\n    /* \"#utility.yul\":5457:5530   */\n  swap1\n  jump\t// out\n    /* \"#utility.yul\":5536:5725   */\ntag_65:\n    /* \"#utility.yul\":5613:5645   */\n  tag_144\n  tag_64\n  jump\t// in\ntag_144:\n    /* \"#utility.yul\":5654:5719   */\n  tag_145\n    /* \"#utility.yul\":5712:5718   */\n  dup2\n    /* \"#utility.yul\":5704:5710   */\n  dup5\n    /* \"#utility.yul\":5698:5702   */\n  dup5\n    /* \"#utility.yul\":5654:5719   */\n  tag_63\n  jump\t// in\ntag_145:\n    /* \"#utility.yul\":5589:5725   */\n  pop\n    /* \"#utility.yul\":5536:5725   */\n  pop\n  pop\n  jump\t// out\n    /* \"#utility.yul\":5731:5917   */\ntag_66:\n    /* \"#utility.yul\":5791:5911   */\ntag_147:\n    /* \"#utility.yul\":5808:5811   */\n  dup2\n    /* \"#utility.yul\":5801:5806   */\n  dup2\n    /* \"#utility.yul\":5798:5812   */\n  lt\n    /* \"#utility.yul\":5791:5911   */\n  iszero\n  tag_149\n  jumpi\n    /* \"#utility.yul\":5862:5901   */\n  tag_150\n    /* \"#utility.yul\":5899:5900   */\n  0x00\n    /* \"#utility.yul\":5892:5897   */\n  dup3\n    /* \"#utility.yul\":5862:5901   */\n  tag_65\n  jump\t// in\ntag_150:\n    /* \"#utility.yul\":5835:5836   */\n  0x01\n    /* \"#utility.yul\":5828:5833   */\n  dup2\n    /* \"#utility.yul\":5824:5837   */\n  add\n    /* \"#utility.yul\":5815:5837   */\n  swap1\n  pop\n    /* \"#utility.yul\":5791:5911   */\n  jump(tag_147)\ntag_149:\n    /* \"#utility.yul\":5731:5917   */\n  pop\n  pop\n  jump\t// out\n    /* \"#utility.yul\":5923:6466   */\ntag_67:\n    /* \"#utility.yul\":6024:6026   */\n  0x1f\n    /* \"#utility.yul\":6019:6022   */\n  dup3\n    /* \"#utility.yul\":6016:6027   */\n  gt\n    /* \"#utility.yul\":6013:6459   */\n  iszero\n  tag_152\n  jumpi\n    /* \"#utility.yul\":6058:6096   */\n  tag_153\n    /* \"#utility.yul\":6090:6095   */\n  dup2\n    /* \"#utility.yul\":6058:6096   */\n  tag_55\n  jump\t// in\ntag_153:\n    /* \"#utility.yul\":6142:6171   */\n  tag_154\n    /* \"#utility.yul\":6160:6170   */\n  dup5\n    /* \"#utility.yul\":6142:6171   */\n  tag_56\n  jump\t// in\ntag_154:\n    /* \"#utility.yul\":6132:6140   */\n  dup2\n    /* \"#utility.yul\":6128:6172   */\n  add\n    /* \"#utility.yul\":6325:6327   */\n  0x20\n    /* \"#utility.yul\":6313:6323   */\n  dup6\n    /* \"#utility.yul\":6310:6328   */\n  lt\n    /* \"#utility.yul\":6307:6356   */\n  iszero\n  tag_155\n  jumpi\n    /* \"#utility.yul\":6346:6354   */\n  dup2\n    /* \"#utility.yul\":6331:6354   */\n  swap1\n  pop\n    /* \"#utility.yul\":6307:6356   */\ntag_155:\n    /* \"#utility.yul\":6369:6449   */\n  tag_156\n    /* \"#utility.yul\":6425:6447   */\n  tag_157\n    /* \"#utility.yul\":6443:6446   */\n  dup6\n    /* \"#utility.yul\":6425:6447   */\n  tag_56\n  jump\t// in\ntag_157:\n    /* \"#utility.yul\":6415:6423   */\n  dup4\n    /* \"#utility.yul\":6411:6448   */\n  add\n    /* \"#utility.yul\":6398:6409   */\n  dup3\n    /* \"#utility.yul\":6369:6449   */\n  tag_66\n  jump\t// in\ntag_156:\n    /* \"#utility.yul\":6028:6459   */\n  pop\n  pop\n    /* \"#utility.yul\":6013:6459   */\ntag_152:\n    /* \"#utility.yul\":5923:6466   */\n  pop\n  pop\n  pop\n  jump\t// out\n    /* \"#utility.yul\":6472:6589   */\ntag_68:\n    /* \"#utility.yul\":6526:6534   */\n  0x00\n    /* \"#utility.yul\":6576:6581   */\n  dup3\n    /* \"#utility.yul\":6570:6574   */\n  dup3\n    /* \"#utility.yul\":6566:6582   */\n  shr\n    /* \"#utility.yul\":6545:6582   */\n  swap1\n  pop\n    /* \"#utility.yul\":6472:6589   */\n  swap3\n  swap2\n  pop\n  pop\n  jump\t// out\n    /* \"#utility.yul\":6595:6764   */\ntag_69:\n    /* \"#utility.yul\":6639:6645   */\n  0x00\n    /* \"#utility.yul\":6672:6723   */\n  tag_160\n    /* \"#utility.yul\":6720:6721   */\n  0x00\n    /* \"#utility.yul\":6716:6722   */\n  not\n    /* \"#utility.yul\":6708:6713   */\n  dup5\n    /* \"#utility.yul\":6705:6706   */\n  0x08\n    /* \"#utility.yul\":6701:6714   */\n  mul\n    /* \"#utility.yul\":6672:6723   */\n  tag_68\n  jump\t// in\ntag_160:\n    /* \"#utility.yul\":6668:6724   */\n  not\n    /* \"#utility.yul\":6753:6757   */\n  dup1\n    /* \"#utility.yul\":6747:6751   */\n  dup4\n    /* \"#utility.yul\":6743:6758   */\n  and\n    /* \"#utility.yul\":6733:6758   */\n  swap2\n  pop\n    /* \"#utility.yul\":6646:6764   */\n  pop\n    /* \"#utility.yul\":6595:6764   */\n  swap3\n  swap2\n  pop\n  pop\n  jump\t// out\n    /* \"#utility.yul\":6769:7064   */\ntag_70:\n    /* \"#utility.yul\":6845:6849   */\n  0x00\n    /* \"#utility.yul\":6991:7020   */\n  tag_162\n    /* \"#utility.yul\":7016:7019   */\n  dup4\n    /* \"#utility.yul\":7010:7014   */\n  dup4\n    /* \"#utility.yul\":6991:7020   */\n  tag_69\n  jump\t// in\ntag_162:\n    /* \"#utility.yul\":6983:7020   */\n  swap2\n  pop\n    /* \"#utility.yul\":7053:7056   */\n  dup3\n    /* \"#utility.yul\":7050:7051   */\n  0x02\n    /* \"#utility.yul\":7046:7057   */\n  mul\n    /* \"#utility.yul\":7040:7044   */\n  dup3\n    /* \"#utility.yul\":7037:7058   */\n  or\n    /* \"#utility.yul\":7029:7058   */\n  swap1\n  pop\n    /* \"#utility.yul\":6769:7064   */\n  swap3\n  swap2\n  pop\n  pop\n  jump\t// out\n    /* \"#utility.yul\":7069:8464   */\ntag_8:\n    /* \"#utility.yul\":7186:7223   */\n  tag_164\n    /* \"#utility.yul\":7219:7222   */\n  dup3\n    /* \"#utility.yul\":7186:7223   */\n  tag_52\n  jump\t// in\ntag_164:\n    /* \"#utility.yul\":7288:7306   */\n  0xffffffffffffffff\n    /* \"#utility.yul\":7280:7286   */\n  dup2\n    /* \"#utility.yul\":7277:7307   */\n  gt\n    /* \"#utility.yul\":7274:7330   */\n  iszero\n  tag_165\n  jumpi\n    /* \"#utility.yul\":7310:7328   */\n  tag_166\n  tag_45\n  jump\t// in\ntag_166:\n    /* \"#utility.yul\":7274:7330   */\ntag_165:\n    /* \"#utility.yul\":7354:7392   */\n  tag_167\n    /* \"#utility.yul\":7386:7390   */\n  dup3\n    /* \"#utility.yul\":7380:7391   */\n  sload\n    /* \"#utility.yul\":7354:7392   */\n  tag_54\n  jump\t// in\ntag_167:\n    /* \"#utility.yul\":7439:7506   */\n  tag_168\n    /* \"#utility.yul\":7499:7505   */\n  dup3\n    /* \"#utility.yul\":7491:7497   */\n  dup3\n    /* \"#utility.yul\":7485:7489   */\n  dup6\n    /* \"#utility.yul\":7439:7506   */\n  tag_67\n  jump\t// in\ntag_168:\n    /* \"#utility.yul\":7533:7534   */\n  0x00\n    /* \"#utility.yul\":7557:7561   */\n  0x20\n    /* \"#utility.yul\":7544:7561   */\n  swap1\n  pop\n    /* \"#utility.yul\":7589:7591   */\n  0x1f\n    /* \"#utility.yul\":7581:7587   */\n  dup4\n    /* \"#utility.yul\":7578:7592   */\n  gt\n    /* \"#utility.yul\":7606:7607   */\n  0x01\n    /* \"#utility.yul\":7601:8219   */\n  dup2\n  eq\n  tag_170\n  jumpi\n    /* \"#utility.yul\":8263:8264   */\n  0x00\n    /* \"#utility.yul\":8280:8286   */\n  dup5\n    /* \"#utility.yul\":8277:8354   */\n  iszero\n  tag_171\n  jumpi\n    /* \"#utility.yul\":8329:8338   */\n  dup3\n    /* \"#utility.yul\":8324:8327   */\n  dup8\n    /* \"#utility.yul\":8320:8339   */\n  add\n    /* \"#utility.yul\":8314:8340   */\n  mload\n    /* \"#utility.yul\":8305:8340   */\n  swap1\n  pop\n    /* \"#utility.yul\":8277:8354   */\ntag_171:\n    /* \"#utility.yul\":8380:8447   */\n  tag_172\n    /* \"#utility.yul\":8440:8446   */\n  dup6\n    /* \"#utility.yul\":8433:8438   */\n  dup3\n    /* \"#utility.yul\":8380:8447   */\n  tag_70\n  jump\t// in\ntag_172:\n    /* \"#utility.yul\":8374:8378   */\n  dup7\n    /* \"#utility.yul\":8367:8448   */\n  sstore\n    /* \"#utility.yul\":8236:8458   */\n  pop\n    /* \"#utility.yul\":7571:8458   */\n  jump(tag_169)\n    /* \"#utility.yul\":7601:8219   */\ntag_170:\n    /* \"#utility.yul\":7653:7657   */\n  0x1f\n    /* \"#utility.yul\":7649:7658   */\n  not\n    /* \"#utility.yul\":7641:7647   */\n  dup5\n    /* \"#utility.yul\":7637:7659   */\n  and\n    /* \"#utility.yul\":7687:7724   */\n  tag_173\n    /* \"#utility.yul\":7719:7723   */\n  dup7\n    /* \"#utility.yul\":7687:7724   */\n  tag_55\n  jump\t// in\ntag_173:\n    /* \"#utility.yul\":7746:7747   */\n  0x00\n    /* \"#utility.yul\":7760:7968   */\ntag_174:\n    /* \"#utility.yul\":7774:7781   */\n  dup3\n    /* \"#utility.yul\":7771:7772   */\n  dup2\n    /* \"#utility.yul\":7768:7782   */\n  lt\n    /* \"#utility.yul\":7760:7968   */\n  iszero\n  tag_176\n  jumpi\n    /* \"#utility.yul\":7853:7862   */\n  dup5\n    /* \"#utility.yul\":7848:7851   */\n  dup10\n    /* \"#utility.yul\":7844:7863   */\n  add\n    /* \"#utility.yul\":7838:7864   */\n  mload\n    /* \"#utility.yul\":7830:7836   */\n  dup3\n    /* \"#utility.yul\":7823:7865   */\n  sstore\n    /* \"#utility.yul\":7904:7905   */\n  0x01\n    /* \"#utility.yul\":7896:7902   */\n  dup3\n    /* \"#utility.yul\":7892:7906   */\n  add\n    /* \"#utility.yul\":7882:7906   */\n  swap2\n  pop\n    /* \"#utility.yul\":7951:7953   */\n  0x20\n    /* \"#utility.yul\":7940:7949   */\n  dup6\n    /* \"#utility.yul\":7936:7954   */\n  add\n    /* \"#utility.yul\":7923:7954   */\n  swap5\n  pop\n    /* \"#utility.yul\":7797:7801   */\n  0x20\n    /* \"#utility.yul\":7794:7795   */\n  dup2\n    /* \"#utility.yul\":7790:7802   */\n  add\n    /* \"#utility.yul\":7785:7802   */\n  swap1\n  pop\n    /* \"#utility.yul\":7760:7968   */\n  jump(tag_174)\ntag_176:\n    /* \"#utility.yul\":7996:8002   */\n  dup7\n    /* \"#utility.yul\":7987:7994   */\n  dup4\n    /* \"#utility.yul\":7984:8003   */\n  lt\n    /* \"#utility.yul\":7981:8160   */\n  iszero\n  tag_177\n  jumpi\n    /* \"#utility.yul\":8054:8063   */\n  dup5\n    /* \"#utility.yul\":8049:8052   */\n  dup10\n    /* \"#utility.yul\":8045:8064   */\n  add\n    /* \"#utility.yul\":8039:8065   */\n  mload\n    /* \"#utility.yul\":8097:8145   */\n  tag_178\n    /* \"#utility.yul\":8139:8143   */\n  0x1f\n    /* \"#utility.yul\":8131:8137   */\n  dup10\n    /* \"#utility.yul\":8127:8144   */\n  and\n    /* \"#utility.yul\":8116:8125   */\n  dup3\n    /* \"#utility.yul\":8097:8145   */\n  tag_69\n  jump\t// in\ntag_178:\n    /* \"#utility.yul\":8089:8095   */\n  dup4\n    /* \"#utility.yul\":8082:8146   */\n  sstore\n    /* \"#utility.yul\":8004:8160   */\n  pop\n    /* \"#utility.yul\":7981:8160   */\ntag_177:\n    /* \"#utility.yul\":8206:8207   */\n  0x01\n    /* \"#utility.yul\":8202:8203   */\n  0x02\n    /* \"#utility.yul\":8194:8200   */\n  dup9\n    /* \"#utility.yul\":8190:8204   */\n  mul\n    /* \"#utility.yul\":8186:8208   */\n  add\n    /* \"#utility.yul\":8180:8184   */\n  dup9\n    /* \"#utility.yul\":8173:8209   */\n  sstore\n    /* \"#utility.yul\":7608:8219   */\n  pop\n  pop\n  pop\n    /* \"#utility.yul\":7571:8458   */\ntag_169:\n  pop\n    /* \"#utility.yul\":7161:8464   */\n  pop\n  pop\n  pop\n    /* \"#utility.yul\":7069:8464   */\n  pop\n  pop\n  jump\t// out\n    /* \"#utility.yul\":8470:8650   */\ntag_71:\n    /* \"#utility.yul\":8518:8595   */\n  0x4e487b7100000000000000000000000000000000000000000000000000000000\n    /* \"#utility.yul\":8515:8516   */\n  0x00\n    /* \"#utility.yul\":8508:8596   */\n  mstore\n    /* \"#utility.yul\":8615:8619   */\n  0x11\n    /* \"#utility.yul\":8612:8613   */\n  0x04\n    /* \"#utility.yul\":8605:8620   */\n  mstore\n    /* \"#utility.yul\":8639:8643   */\n  0x24\n    /* \"#utility.yul\":8636:8637   */\n  0x00\n    /* \"#utility.yul\":8629:8644   */\n  revert\n    /* \"#utility.yul\":8656:8758   */\ntag_72:\n    /* \"#utility.yul\":8698:8706   */\n  0x00\n    /* \"#utility.yul\":8745:8750   */\n  dup2\n    /* \"#utility.yul\":8742:8743   */\n  0x01\n    /* \"#utility.yul\":8738:8751   */\n  shr\n    /* \"#utility.yul\":8717:8751   */\n  swap1\n  pop\n    /* \"#utility.yul\":8656:8758   */\n  swap2\n  swap1\n  pop\n  jump\t// out\n    /* \"#utility.yul\":8764:9612   */\ntag_73:\n    /* \"#utility.yul\":8825:8830   */\n  0x00\n    /* \"#utility.yul\":8832:8836   */\n  dup1\n    /* \"#utility.yul\":8856:8862   */\n  dup3\n    /* \"#utility.yul\":8847:8862   */\n  swap2\n  pop\n    /* \"#utility.yul\":8880:8885   */\n  dup4\n    /* \"#utility.yul\":8871:8885   */\n  swap1\n  pop\n    /* \"#utility.yul\":8894:9606   */\ntag_182:\n    /* \"#utility.yul\":8915:8916   */\n  0x01\n    /* \"#utility.yul\":8905:8913   */\n  dup6\n    /* \"#utility.yul\":8902:8917   */\n  gt\n    /* \"#utility.yul\":8894:9606   */\n  iszero\n  tag_184\n  jumpi\n    /* \"#utility.yul\":9010:9014   */\n  dup1\n    /* \"#utility.yul\":9005:9008   */\n  dup7\n    /* \"#utility.yul\":9001:9015   */\n  div\n    /* \"#utility.yul\":8995:8999   */\n  dup2\n    /* \"#utility.yul\":8992:9016   */\n  gt\n    /* \"#utility.yul\":8989:9039   */\n  iszero\n  tag_185\n  jumpi\n    /* \"#utility.yul\":9019:9037   */\n  tag_186\n  tag_71\n  jump\t// in\ntag_186:\n    /* \"#utility.yul\":8989:9039   */\ntag_185:\n    /* \"#utility.yul\":9069:9070   */\n  0x01\n    /* \"#utility.yul\":9059:9067   */\n  dup6\n    /* \"#utility.yul\":9055:9071   */\n  and\n    /* \"#utility.yul\":9052:9503   */\n  iszero\n  tag_187\n  jumpi\n    /* \"#utility.yul\":9484:9488   */\n  dup1\n    /* \"#utility.yul\":9477:9482   */\n  dup3\n    /* \"#utility.yul\":9473:9489   */\n  mul\n    /* \"#utility.yul\":9464:9489   */\n  swap2\n  pop\n    /* \"#utility.yul\":9052:9503   */\ntag_187:\n    /* \"#utility.yul\":9534:9538   */\n  dup1\n    /* \"#utility.yul\":9528:9532   */\n  dup2\n    /* \"#utility.yul\":9524:9539   */\n  mul\n    /* \"#utility.yul\":9516:9539   */\n  swap1\n  pop\n    /* \"#utility.yul\":9564:9596   */\n  tag_188\n    /* \"#utility.yul\":9587:9595   */\n  dup6\n    /* \"#utility.yul\":9564:9596   */\n  tag_72\n  jump\t// in\ntag_188:\n    /* \"#utility.yul\":9552:9596   */\n  swap5\n  pop\n    /* \"#utility.yul\":8894:9606   */\n  jump(tag_182)\ntag_184:\n    /* \"#utility.yul\":8764:9612   */\n  swap5\n  pop\n  swap5\n  swap3\n  pop\n  pop\n  pop\n  jump\t// out\n    /* \"#utility.yul\":9618:10691   */\ntag_74:\n    /* \"#utility.yul\":9672:9677   */\n  0x00\n    /* \"#utility.yul\":9863:9871   */\n  dup3\n    /* \"#utility.yul\":9853:9893   */\n  tag_190\n  jumpi\n    /* \"#utility.yul\":9884:9885   */\n  0x01\n    /* \"#utility.yul\":9875:9885   */\n  swap1\n  pop\n    /* \"#utility.yul\":9886:9891   */\n  jump(tag_189)\n    /* \"#utility.yul\":9853:9893   */\ntag_190:\n    /* \"#utility.yul\":9912:9916   */\n  dup2\n    /* \"#utility.yul\":9902:9938   */\n  tag_191\n  jumpi\n    /* \"#utility.yul\":9929:9930   */\n  0x00\n    /* \"#utility.yul\":9920:9930   */\n  swap1\n  pop\n    /* \"#utility.yul\":9931:9936   */\n  jump(tag_189)\n    /* \"#utility.yul\":9902:9938   */\ntag_191:\n    /* \"#utility.yul\":9998:10002   */\n  dup2\n    /* \"#utility.yul\":10046:10047   */\n  0x01\n    /* \"#utility.yul\":10041:10068   */\n  dup2\n  eq\n  tag_193\n  jumpi\n    /* \"#utility.yul\":10082:10083   */\n  0x02\n    /* \"#utility.yul\":10077:10268   */\n  dup2\n  eq\n  tag_194\n  jumpi\n    /* \"#utility.yul\":9991:10268   */\n  jump(tag_192)\n    /* \"#utility.yul\":10041:10068   */\ntag_193:\n    /* \"#utility.yul\":10059:10060   */\n  0x01\n    /* \"#utility.yul\":10050:10060   */\n  swap2\n  pop\n    /* \"#utility.yul\":10061:10066   */\n  pop\n  jump(tag_189)\n    /* \"#utility.yul\":10077:10268   */\ntag_194:\n    /* \"#utility.yul\":10122:10125   */\n  0xff\n    /* \"#utility.yul\":10112:10120   */\n  dup5\n    /* \"#utility.yul\":10109:10126   */\n  gt\n    /* \"#utility.yul\":10106:10149   */\n  iszero\n  tag_195\n  jumpi\n    /* \"#utility.yul\":10129:10147   */\n  tag_196\n  tag_71\n  jump\t// in\ntag_196:\n    /* \"#utility.yul\":10106:10149   */\ntag_195:\n    /* \"#utility.yul\":10178:10186   */\n  dup4\n    /* \"#utility.yul\":10175:10176   */\n  0x02\n    /* \"#utility.yul\":10171:10187   */\n  exp\n    /* \"#utility.yul\":10162:10187   */\n  swap2\n  pop\n    /* \"#utility.yul\":10213:10216   */\n  dup5\n    /* \"#utility.yul\":10206:10211   */\n  dup3\n    /* \"#utility.yul\":10203:10217   */\n  gt\n    /* \"#utility.yul\":10200:10240   */\n  iszero\n  tag_197\n  jumpi\n    /* \"#utility.yul\":10220:10238   */\n  tag_198\n  tag_71\n  jump\t// in\ntag_198:\n    /* \"#utility.yul\":10200:10240   */\ntag_197:\n    /* \"#utility.yul\":10253:10258   */\n  pop\n  jump(tag_189)\n    /* \"#utility.yul\":9991:10268   */\ntag_192:\n  pop\n    /* \"#utility.yul\":10377:10379   */\n  0x20\n    /* \"#utility.yul\":10367:10375   */\n  dup4\n    /* \"#utility.yul\":10364:10380   */\n  lt\n    /* \"#utility.yul\":10358:10361   */\n  0x0133\n    /* \"#utility.yul\":10352:10356   */\n  dup4\n    /* \"#utility.yul\":10349:10362   */\n  lt\n    /* \"#utility.yul\":10345:10381   */\n  and\n    /* \"#utility.yul\":10327:10329   */\n  0x4e\n    /* \"#utility.yul\":10317:10325   */\n  dup5\n    /* \"#utility.yul\":10314:10330   */\n  lt\n    /* \"#utility.yul\":10309:10311   */\n  0x0b\n    /* \"#utility.yul\":10303:10307   */\n  dup5\n    /* \"#utility.yul\":10300:10312   */\n  lt\n    /* \"#utility.yul\":10296:10331   */\n  and\n    /* \"#utility.yul\":10280:10391   */\n  or\n    /* \"#utility.yul\":10277:10523   */\n  iszero\n  tag_199\n  jumpi\n    /* \"#utility.yul\":10433:10441   */\n  dup3\n    /* \"#utility.yul\":10427:10431   */\n  dup3\n    /* \"#utility.yul\":10423:10442   */\n  exp\n    /* \"#utility.yul\":10414:10442   */\n  swap1\n  pop\n    /* \"#utility.yul\":10468:10471   */\n  dup4\n    /* \"#utility.yul\":10461:10466   */\n  dup2\n    /* \"#utility.yul\":10458:10472   */\n  gt\n    /* \"#utility.yul\":10455:10495   */\n  iszero\n  tag_200\n  jumpi\n    /* \"#utility.yul\":10475:10493   */\n  tag_201\n  tag_71\n  jump\t// in\ntag_201:\n    /* \"#utility.yul\":10455:10495   */\ntag_200:\n    /* \"#utility.yul\":10508:10513   */\n  jump(tag_189)\n    /* \"#utility.yul\":10277:10523   */\ntag_199:\n    /* \"#utility.yul\":10548:10590   */\n  tag_202\n    /* \"#utility.yul\":10586:10589   */\n  dup5\n    /* \"#utility.yul\":10576:10584   */\n  dup5\n    /* \"#utility.yul\":10570:10574   */\n  dup5\n    /* \"#utility.yul\":10567:10568   */\n  0x01\n    /* \"#utility.yul\":10548:10590   */\n  tag_73\n  jump\t// in\ntag_202:\n    /* \"#utility.yul\":10533:10590   */\n  swap3\n  pop\n  swap1\n  pop\n    /* \"#utility.yul\":10622:10626   */\n  dup2\n    /* \"#utility.yul\":10617:10620   */\n  dup5\n    /* \"#utility.yul\":10613:10627   */\n  div\n    /* \"#utility.yul\":10606:10611   */\n  dup2\n    /* \"#utility.yul\":10603:10628   */\n  gt\n    /* \"#utility.yul\":10600:10651   */\n  iszero\n  tag_203\n  jumpi\n    /* \"#utility.yul\":10631:10649   */\n  tag_204\n  tag_71\n  jump\t// in\ntag_204:\n    /* \"#utility.yul\":10600:10651   */\ntag_203:\n    /* \"#utility.yul\":10680:10684   */\n  dup2\n    /* \"#utility.yul\":10673:10678   */\n  dup2\n    /* \"#utility.yul\":10669:10685   */\n  mul\n    /* \"#utility.yul\":10660:10685   */\n  swap1\n  pop\n    /* \"#utility.yul\":9618:10691   */\ntag_189:\n  swap4\n  swap3\n  pop\n  pop\n  pop\n  jump\t// out\n    /* \"#utility.yul\":10697:10783   */\ntag_75:\n    /* \"#utility.yul\":10732:10739   */\n  0x00\n    /* \"#utility.yul\":10772:10776   */\n  0xff\n    /* \"#utility.yul\":10765:10770   */\n  dup3\n    /* \"#utility.yul\":10761:10777   */\n  and\n    /* \"#utility.yul\":10750:10777   */\n  swap1\n  pop\n    /* \"#utility.yul\":10697:10783   */\n  swap2\n  swap1\n  pop\n  jump\t// out\n    /* \"#utility.yul\":10789:11070   */\ntag_15:\n    /* \"#utility.yul\":10847:10852   */\n  0x00\n    /* \"#utility.yul\":10871:10894   */\n  tag_207\n    /* \"#utility.yul\":10889:10893   */\n  dup3\n    /* \"#utility.yul\":10871:10894   */\n  tag_59\n  jump\t// in\ntag_207:\n    /* \"#utility.yul\":10863:10894   */\n  swap2\n  pop\n    /* \"#utility.yul\":10915:10940   */\n  tag_208\n    /* \"#utility.yul\":10931:10939   */\n  dup4\n    /* \"#utility.yul\":10915:10940   */\n  tag_75\n  jump\t// in\ntag_208:\n    /* \"#utility.yul\":10903:10940   */\n  swap3\n  pop\n    /* \"#utility.yul\":10959:11063   */\n  tag_209\n    /* \"#utility.yul\":10996:11062   */\n  0xffffffffffffffffffffffffffffffffffffffffffffffffffffffffffffffff\n    /* \"#utility.yul\":10986:10994   */\n  dup5\n    /* \"#utility.yul\":10980:10984   */\n  dup5\n    /* \"#utility.yul\":10959:11063   */\n  tag_74\n  jump\t// in\ntag_209:\n    /* \"#utility.yul\":10950:11063   */\n  swap1\n  pop\n    /* \"#utility.yul\":10789:11070   */\n  swap3\n  swap2\n  pop\n  pop\n  jump\t// out\n    /* \"#utility.yul\":11076:11486   */\ntag_17:\n    /* \"#utility.yul\":11116:11123   */\n  0x00\n    /* \"#utility.yul\":11139:11159   */\n  tag_211\n    /* \"#utility.yul\":11157:11158   */\n  dup3\n    /* \"#utility.yul\":11139:11159   */\n  tag_59\n  jump\t// in\ntag_211:\n    /* \"#utility.yul\":11134:11159   */\n  swap2\n  pop\n    /* \"#utility.yul\":11173:11193   */\n  tag_212\n    /* \"#utility.yul\":11191:11192   */\n  dup4\n    /* \"#utility.yul\":11173:11193   */\n  tag_59\n  jump\t// in\ntag_212:\n    /* \"#utility.yul\":11168:11193   */\n  swap3\n  pop\n    /* \"#utility.yul\":11228:11229   */\n  dup3\n    /* \"#utility.yul\":11225:11226   */\n  dup3\n    /* \"#utility.yul\":11221:11230   */\n  mul\n    /* \"#utility.yul\":11250:11280   */\n  tag_213\n    /* \"#utility.yul\":11268:11279   */\n  dup2\n    /* \"#utility.yul\":11250:11280   */\n  tag_59\n  jump\t// in\ntag_213:\n    /* \"#utility.yul\":11239:11280   */\n  swap2\n  pop\n    /* \"#utility.yul\":11429:11430   */\n  dup3\n    /* \"#utility.yul\":11420:11427   */\n  dup3\n    /* \"#utility.yul\":11416:11431   */\n  div\n    /* \"#utility.yul\":11413:11414   */\n  dup5\n    /* \"#utility.yul\":11410:11432   */\n  eq\n    /* \"#utility.yul\":11390:11391   */\n  dup4\n    /* \"#utility.yul\":11383:11392   */\n  iszero\n    /* \"#utility.yul\":11363:11446   */\n  or\n    /* \"#utility.yul\":11340:11479   */\n  tag_214\n  jumpi\n    /* \"#utility.yul\":11459:11477   */\n  tag_215\n  tag_71\n  jump\t// in\ntag_215:\n    /* \"#utility.yul\":11340:11479   */\ntag_214:\n    /* \"#utility.yul\":11124:11486   */\n  pop\n    /* \"#utility.yul\":11076:11486   */\n  swap3\n  swap2\n  pop\n  pop\n  jump\t// out\n    /* \"#utility.yul\":11492:11618   */\ntag_76:\n    /* \"#utility.yul\":11529:11536   */\n  0x00\n    /* \"#utility.yul\":11569:11611   */\n  0xffffffffffffffffffffffffffffffffffffffff\n    /* \"#utility.yul\":11562:11567   */\n  dup3\n    /* \"#utility.yul\":11558:11612   */\n  and\n    /* \"#utility.yul\":11547:11612   */\n  swap1\n  pop\n    /* \"#utility.yul\":11492:11618   */\n  swap2\n  swap1\n  pop\n  jump\t// out\n    /* \"#utility.yul\":11624:11720   */\ntag_77:\n    /* \"#utility.yul\":11661:11668   */\n  0x00\n    /* \"#utility.yul\":11690:11714   */\n  tag_218\n    /* \"#utility.yul\":11708:11713   */\n  dup3\n    /* \"#utility.yul\":11690:11714   */\n  tag_76\n  jump\t// in\ntag_218:\n    /* \"#utility.yul\":11679:11714   */\n  swap1\n  pop\n    /* \"#utility.yul\":11624:11720   */\n  swap2\n  swap1\n  pop\n  jump\t// out\n    /* \"#utility.yul\":11726:11844   */\ntag_78:\n    /* \"#utility.yul\":11813:11837   */\n  tag_220\n    /* \"#utility.yul\":11831:11836   */\n  dup2\n    /* \"#utility.yul\":11813:11837   */\n  tag_77\n  jump\t// in\ntag_220:\n    /* \"#utility.yul\":11808:11811   */\n  dup3\n    /* \"#utility.yul\":11801:11838   */\n  mstore\n    /* \"#utility.yul\":11726:11844   */\n  pop\n  pop\n  jump\t// out\n    /* \"#utility.yul\":11850:12072   */\ntag_24:\n    /* \"#utility.yul\":11943:11947   */\n  0x00\n    /* \"#utility.yul\":11981:11983   */\n  0x20\n    /* \"#utility.yul\":11970:11979   */\n  dup3\n    /* \"#utility.yul\":11966:11984   */\n  add\n    /* \"#utility.yul\":11958:11984   */\n  swap1\n  pop\n    /* \"#utility.yul\":11994:12065   */\n  tag_222\n    /* \"#utility.yul\":12062:12063   */\n  0x00\n    /* \"#utility.yul\":12051:12060   */\n  dup4\n    /* \"#utility.yul\":12047:12064   */\n  add\n    /* \"#utility.yul\":12038:12044   */\n  dup5\n    /* \"#utility.yul\":11994:12065   */\n  tag_78\n  jump\t// in\ntag_222:\n    /* \"#utility.yul\":11850:12072   */\n  swap3\n  swap2\n  pop\n  pop\n  jump\t// out\n    /* \"#utility.yul\":12078:12269   */\ntag_30:\n    /* \"#utility.yul\":12118:12121   */\n  0x00\n    /* \"#utility.yul\":12137:12157   */\n  tag_224\n    /* \"#utility.yul\":12155:12156   */\n  dup3\n    /* \"#utility.yul\":12137:12157   */\n  tag_59\n  jump\t// in\ntag_224:\n    /* \"#utility.yul\":12132:12157   */\n  swap2\n  pop\n    /* \"#utility.yul\":12171:12191   */\n  tag_225\n    /* \"#utility.yul\":12189:12190   */\n  dup4\n    /* \"#utility.yul\":12171:12191   */\n  tag_59\n  jump\t// in\ntag_225:\n    /* \"#utility.yul\":12166:12191   */\n  swap3\n  pop\n    /* \"#utility.yul\":12214:12215   */\n  dup3\n    /* \"#utility.yul\":12211:12212   */\n  dup3\n    /* \"#utility.yul\":12207:12216   */\n  add\n    /* \"#utility.yul\":12200:12216   */\n  swap1\n  pop\n    /* \"#utility.yul\":12235:12238   */\n  dup1\n    /* \"#utility.yul\":12232:12233   */\n  dup3\n    /* \"#utility.yul\":12229:12239   */\n  gt\n    /* \"#utility.yul\":12226:12262   */\n  iszero\n  tag_226\n  jumpi\n    /* \"#utility.yul\":12242:12260   */\n  tag_227\n  tag_71\n  jump\t// in\ntag_227:\n    /* \"#utility.yul\":12226:12262   */\ntag_226:\n    /* \"#utility.yul\":12078:12269   */\n  swap3\n  swap2\n  pop\n  pop\n  jump\t// out\n    /* \"#utility.yul\":12275:12393   */\ntag_79:\n    /* \"#utility.yul\":12362:12386   */\n  tag_229\n    /* \"#utility.yul\":12380:12385   */\n  dup2\n    /* \"#utility.yul\":12362:12386   */\n  tag_59\n  jump\t// in\ntag_229:\n    /* \"#utility.yul\":12357:12360   */\n  dup3\n    /* \"#utility.yul\":12350:12387   */\n  mstore\n    /* \"#utility.yul\":12275:12393   */\n  pop\n  pop\n  jump\t// out\n    /* \"#utility.yul\":12399:12841   */\ntag_34:\n    /* \"#utility.yul\":12548:12552   */\n  0x00\n    /* \"#utility.yul\":12586:12588   */\n  0x60\n    /* \"#utility.yul\":12575:12584   */\n  dup3\n    /* \"#utility.yul\":12571:12589   */\n  add\n    /* \"#utility.yul\":12563:12589   */\n  swap1\n  pop\n    /* \"#utility.yul\":12599:12670   */\n  tag_231\n    /* \"#utility.yul\":12667:12668   */\n  0x00\n    /* \"#utility.yul\":12656:12665   */\n  dup4\n    /* \"#utility.yul\":12652:12669   */\n  add\n    /* \"#utility.yul\":12643:12649   */\n  dup7\n    /* \"#utility.yul\":12599:12670   */\n  tag_78\n  jump\t// in\ntag_231:\n    /* \"#utility.yul\":12680:12752   */\n  tag_232\n    /* \"#utility.yul\":12748:12750   */\n  0x20\n    /* \"#utility.yul\":12737:12746   */\n  dup4\n    /* \"#utility.yul\":12733:12751   */\n  add\n    /* \"#utility.yul\":12724:12730   */\n  dup6\n    /* \"#utility.yul\":12680:12752   */\n  tag_79\n  jump\t// in\ntag_232:\n    /* \"#utility.yul\":12762:12834   */\n  tag_233\n    /* \"#utility.yul\":12830:12832   */\n  0x40\n    /* \"#utility.yul\":12819:12828   */\n  dup4\n    /* \"#utility.yul\":12815:12833   */\n  add\n    /* \"#utility.yul\":12806:12812   */\n  dup5\n    /* \"#utility.yul\":12762:12834   */\n  tag_79\n  jump\t// in\ntag_233:\n    /* \"#utility.yul\":12399:12841   */\n  swap5\n  swap4\n  pop\n  pop\n  pop\n  pop\n  jump\t// out\n    /* \"#utility.yul\":12847:13069   */\ntag_38:\n    /* \"#utility.yul\":12940:12944   */\n  0x00\n    /* \"#utility.yul\":12978:12980   */\n  0x20\n    /* \"#utility.yul\":12967:12976   */\n  dup3\n    /* \"#utility.yul\":12963:12981   */\n  add\n    /* \"#utility.yul\":12955:12981   */\n  swap1\n  pop\n    /* \"#utility.yul\":12991:13062   */\n  tag_235\n    /* \"#utility.yul\":13059:13060   */\n  0x00\n    /* \"#utility.yul\":13048:13057   */\n  dup4\n    /* \"#utility.yul\":13044:13061   */\n  add\n    /* \"#utility.yul\":13035:13041   */\n  dup5\n    /* \"#utility.yul\":12991:13062   */\n  tag_79\n  jump\t// in\ntag_235:\n    /* \"#utility.yul\":12847:13069   */\n  swap3\n  swap2\n  pop\n  pop\n  jump\t// out\n    /* \"learning.sol\":114:3761  contract ApproverToken is ERC20{ ... */\ntag_19:\n  dataSize(sub_0)\n  dup1\n  dataOffset(sub_0)\n  0x00\n  codecopy\n  0x00\n  return\nstop\n\nsub_0: assembly {\n        /* \"learning.sol\":114:3761  contract ApproverToken is ERC20{ ... */\n      mstore(0x40, 0x80)\n      callvalue\n      dup1\n      iszero\n      tag_1\n      jumpi\n      0x00\n      dup1\n      revert\n    tag_1:\n      pop\n      jumpi(tag_2, lt(calldatasize, 0x04))\n      shr(0xe0, calldataload(0x00))\n      dup1\n      0x70a08231\n      gt\n      tag_21\n      jumpi\n      dup1\n      0x94ec6756\n      gt\n      tag_22\n      jumpi\n      dup1\n      0x94ec6756\n      eq\n      tag_16\n      jumpi\n      dup1\n      0x95d89b41\n      eq\n      tag_17\n      jumpi\n      dup1\n      0x9ace38c2\n      eq\n      tag_18\n      jumpi\n      dup1\n      0xa9059cbb\n      eq\n      tag_19\n      jumpi\n      dup1\n      0xdd62ed3e\n      eq\n      tag_20\n      jumpi\n      jump(tag_2)\n    tag_22:\n      dup1\n      0x70a08231\n      eq\n      tag_12\n      jumpi\n      dup1\n      0x7b0a60b0\n      eq\n      tag_13\n      jumpi\n      dup1\n      0x8da5cb5b\n      eq\n      tag_14\n      jumpi\n      dup1\n      0x9102891a\n      eq\n      tag_15\n      jumpi\n      jump(tag_2)\n    tag_21:\n      dup1\n      0x23b872dd\n      gt\n      tag_23\n      jumpi\n      dup1\n      0x23b872dd\n      eq\n      tag_7\n      jumpi\n      dup1\n      0x242232d1\n      eq\n      tag_8\n      jumpi\n      dup1\n      0x313ce567\n      eq\n      tag_9\n      jumpi\n      dup1\n      0x3ca7697d\n      eq\n      tag_10\n      jumpi\n      dup1\n      0x6da2b552\n      eq\n      tag_11\n      jumpi\n      jump(tag_2)\n    tag_23:\n      dup1\n      0x06fdde03\n      eq\n      tag_3\n      jumpi\n      dup1\n      0x095ea7b3\n      eq\n      tag_4\n      jumpi\n      dup1\n      0x18160ddd\n      eq\n      tag_5\n      jumpi\n      dup1\n      0x1e7f8f0f\n      eq\n      tag_6\n      jumpi\n    tag_2:\n      0x00\n      dup1\n      revert\n        /* \"@openzeppelin/contracts/token/ERC20/ERC20.sol\":2074:2163  function name() public view virtual returns (string memory) {... */\n    tag_3:\n      tag_24\n      tag_25\n      jump\t// in\n    tag_24:\n      mload(0x40)\n      tag_26\n      swap2\n      swap1\n      tag_27\n      jump\t// in\n    tag_26:\n      mload(0x40)\n      dup1\n      swap2\n      sub\n      swap1\n      return\n        /* \"@openzeppelin/contracts/token/ERC20/ERC20.sol\":4293:4479  function approve(address spender, uint256 value) public virtual returns (bool) {... */\n    tag_4:\n      tag_28\n      0x04\n      dup1\n      calldatasize\n      sub\n      dup2\n      add\n      swap1\n      tag_29\n      swap2\n      swap1\n      tag_30\n      jump\t// in\n    tag_29:\n      tag_31\n      jump\t// in\n    tag_28:\n      mload(0x40)\n      tag_32\n      swap2\n      swap1\n      tag_33\n      jump\t// in\n    tag_32:\n      mload(0x40)\n      dup1\n      swap2\n      sub\n      swap1\n      return\n        /* \"@openzeppelin/contracts/token/ERC20/ERC20.sol\":3144:3241  function totalSupply() public view virtual returns (uint256) {... */\n    tag_5:\n      tag_34\n      tag_35\n      jump\t// in\n    tag_34:\n      mload(0x40)\n      tag_36\n      swap2\n      swap1\n      tag_37\n      jump\t// in\n    tag_36:\n      mload(0x40)\n      dup1\n      swap2\n      sub\n      swap1\n      return\n        /* \"learning.sol\":1287:1853  function createTransaction(address _to, uint _amount) external{... */\n    tag_6:\n      tag_38\n      0x04\n      dup1\n      calldatasize\n      sub\n      dup2\n      add\n      swap1\n      tag_39\n      swap2\n      swap1\n      tag_30\n      jump\t// in\n    tag_39:\n      tag_40\n      jump\t// in\n    tag_38:\n      stop\n        /* \"@openzeppelin/contracts/token/ERC20/ERC20.sol\":5039:5283  function transferFrom(address from, address to, uint256 value) public virtual returns (bool) {... */\n    tag_7:\n      tag_41\n      0x04\n      dup1\n      calldatasize\n      sub\n      dup2\n      add\n      swap1\n      tag_42\n      swap2\n      swap1\n      tag_43\n      jump\t// in\n    tag_42:\n      tag_44\n      jump\t// in\n    tag_41:\n      mload(0x40)\n      tag_45\n      swap2\n      swap1\n      tag_33\n      jump\t// in\n    tag_45:\n      mload(0x40)\n      dup1\n      swap2\n      sub\n      swap1\n      return\n        /* \"learning.sol\":1859:2442  function approveTransaction(uint _transactionId) external onlyApprover{... */\n    tag_8:\n      tag_46\n      0x04\n      dup1\n      calldatasize\n      sub\n      dup2\n      add\n      swap1\n      tag_47\n      swap2\n      swap1\n      tag_48\n      jump\t// in\n    tag_47:\n      tag_49\n      jump\t// in\n    tag_46:\n      stop\n        /* \"@openzeppelin/contracts/token/ERC20/ERC20.sol\":3002:3084  function decimals() public view virtual returns (uint8) {... */\n    tag_9:\n      tag_50\n      tag_51\n      jump\t// in\n    tag_50:\n      mload(0x40)\n      tag_52\n      swap2\n      swap1\n      tag_53\n      jump\t// in\n    tag_52:\n      mload(0x40)\n      dup1\n      swap2\n      sub\n      swap1\n      return\n        /* \"learning.sol\":2907:3195  function applyForApproval() public{... */\n    tag_10:\n      tag_54\n      tag_55\n      jump\t// in\n    tag_54:\n      stop\n        /* \"learning.sol\":178:227  mapping(address => bool) public approvedApprovers */\n    tag_11:\n      tag_56\n      0x04\n      dup1\n      calldatasize\n      sub\n      dup2\n      add\n      swap1\n      tag_57\n      swap2\n      swap1\n      tag_58\n      jump\t// in\n    tag_57:\n      tag_59\n      jump\t// in\n    tag_56:\n      mload(0x40)\n      tag_60\n      swap2\n      swap1\n      tag_33\n      jump\t// in\n    tag_60:\n      mload(0x40)\n      dup1\n      swap2\n      sub\n      swap1\n      return\n        /* \"@openzeppelin/contracts/token/ERC20/ERC20.sol\":3299:3415  function balanceOf(address account) public view virtual returns (uint256) {... */\n    tag_12:\n      tag_61\n      0x04\n      dup1\n      calldatasize\n      sub\n      dup2\n      add\n      swap1\n      tag_62\n      swap2\n      swap1\n      tag_58\n      jump\t// in\n    tag_62:\n      tag_63\n      jump\t// in\n    tag_61:\n      mload(0x40)\n      tag_64\n      swap2\n      swap1\n      tag_37\n      jump\t// in\n    tag_64:\n      mload(0x40)\n      dup1\n      swap2\n      sub\n      swap1\n      return\n        /* \"learning.sol\":233:284  mapping(address => bool) public appliedForApprovals */\n    tag_13:\n      tag_65\n      0x04\n      dup1\n      calldatasize\n      sub\n      dup2\n      add\n      swap1\n      tag_66\n      swap2\n      swap1\n      tag_58\n      jump\t// in\n    tag_66:\n      tag_67\n      jump\t// in\n    tag_65:\n      mload(0x40)\n      tag_68\n      swap2\n      swap1\n      tag_33\n      jump\t// in\n    tag_68:\n      mload(0x40)\n      dup1\n      swap2\n      sub\n      swap1\n      return\n        /* \"learning.sol\":152:172  address public owner */\n    tag_14:\n      tag_69\n      tag_70\n      jump\t// in\n    tag_69:\n      mload(0x40)\n      tag_71\n      swap2\n      swap1\n      tag_72\n      jump\t// in\n    tag_71:\n      mload(0x40)\n      dup1\n      swap2\n      sub\n      swap1\n      return\n        /* \"learning.sol\":3511:3754  function deleteApprover(address toBeDeleted) public{... */\n    tag_15:\n      tag_73\n      0x04\n      dup1\n      calldatasize\n      sub\n      dup2\n      add\n      swap1\n      tag_74\n      swap2\n      swap1\n      tag_58\n      jump\t// in\n    tag_74:\n      tag_75\n      jump\t// in\n    tag_73:\n      stop\n        /* \"learning.sol\":3200:3506  function approveApprovall(address toBeApproved) public{... */\n    tag_16:\n      tag_76\n      0x04\n      dup1\n      calldatasize\n      sub\n      dup2\n      add\n      swap1\n      tag_77\n      swap2\n      swap1\n      tag_58\n      jump\t// in\n    tag_77:\n      tag_78\n      jump\t// in\n    tag_76:\n      stop\n        /* \"@openzeppelin/contracts/token/ERC20/ERC20.sol\":2276:2369  function symbol() public view virtual returns (string memory) {... */\n    tag_17:\n      tag_79\n      tag_80\n      jump\t// in\n    tag_79:\n      mload(0x40)\n      tag_81\n      swap2\n      swap1\n      tag_27\n      jump\t// in\n    tag_81:\n      mload(0x40)\n      dup1\n      swap2\n      sub\n      swap1\n      return\n        /* \"learning.sol\":879:930  mapping(uint256 => Transaction) public transactions */\n    tag_18:\n      tag_82\n      0x04\n      dup1\n      calldatasize\n      sub\n      dup2\n      add\n      swap1\n      tag_83\n      swap2\n      swap1\n      tag_48\n      jump\t// in\n    tag_83:\n      tag_84\n      jump\t// in\n    tag_82:\n      mload(0x40)\n      tag_85\n      swap6\n      swap5\n      swap4\n      swap3\n      swap2\n      swap1\n      tag_86\n      jump\t// in\n    tag_85:\n      mload(0x40)\n      dup1\n      swap2\n      sub\n      swap1\n      return\n        /* \"@openzeppelin/contracts/token/ERC20/ERC20.sol\":3610:3788  function transfer(address to, uint256 value) public virtual returns (bool) {... */\n    tag_19:\n      tag_87\n      0x04\n      dup1\n      calldatasize\n      sub\n      dup2\n      add\n      swap1\n      tag_88\n      swap2\n      swap1\n      tag_30\n      jump\t// in\n    tag_88:\n      tag_89\n      jump\t// in\n    tag_87:\n      mload(0x40)\n      tag_90\n      swap2\n      swap1\n      tag_33\n      jump\t// in\n    tag_90:\n      mload(0x40)\n      dup1\n      swap2\n      sub\n      swap1\n      return\n        /* \"@openzeppelin/contracts/token/ERC20/ERC20.sol\":3846:3986  function allowance(address owner, address spender) public view virtual returns (uint256) {... */\n    tag_20:\n      tag_91\n      0x04\n      dup1\n      calldatasize\n      sub\n      dup2\n      add\n      swap1\n      tag_92\n      swap2\n      swap1\n      tag_93\n      jump\t// in\n    tag_92:\n      tag_94\n      jump\t// in\n    tag_91:\n      mload(0x40)\n      tag_95\n      swap2\n      swap1\n      tag_37\n      jump\t// in\n    tag_95:\n      mload(0x40)\n      dup1\n      swap2\n      sub\n      swap1\n      return\n        /* \"@openzeppelin/contracts/token/ERC20/ERC20.sol\":2074:2163  function name() public view virtual returns (string memory) {... */\n    tag_25:\n        /* \"@openzeppelin/contracts/token/ERC20/ERC20.sol\":2119:2132  string memory */\n      0x60\n        /* \"@openzeppelin/contracts/token/ERC20/ERC20.sol\":2151:2156  _name */\n      0x03\n        /* \"@openzeppelin/contracts/token/ERC20/ERC20.sol\":2144:2156  return _name */\n      dup1\n      sload\n      tag_97\n      swap1\n      tag_98\n      jump\t// in\n    tag_97:\n      dup1\n      0x1f\n      add\n      0x20\n      dup1\n      swap2\n      div\n      mul\n      0x20\n      add\n      mload(0x40)\n      swap1\n      dup2\n      add\n      0x40\n      mstore\n      dup1\n      swap3\n      swap2\n      swap1\n      dup2\n      dup2\n      mstore\n      0x20\n      add\n      dup3\n      dup1\n      sload\n      tag_99\n      swap1\n      tag_98\n      jump\t// in\n    tag_99:\n      dup1\n      iszero\n      tag_100\n      jumpi\n      dup1\n      0x1f\n      lt\n      tag_101\n      jumpi\n      0x0100\n      dup1\n      dup4\n      sload\n      div\n      mul\n      dup4\n      mstore\n      swap2\n      0x20\n      add\n      swap2\n      jump(tag_100)\n    tag_101:\n      dup3\n      add\n      swap2\n      swap1\n      0x00\n      mstore\n      keccak256(0x00, 0x20)\n      swap1\n    tag_102:\n      dup2\n      sload\n      dup2\n      mstore\n      swap1\n      0x01\n      add\n      swap1\n      0x20\n      add\n      dup1\n      dup4\n      gt\n      tag_102\n      jumpi\n      dup3\n      swap1\n      sub\n      0x1f\n      and\n      dup3\n      add\n      swap2\n    tag_100:\n      pop\n      pop\n      pop\n      pop\n      pop\n      swap1\n      pop\n        /* \"@openzeppelin/contracts/token/ERC20/ERC20.sol\":2074:2163  function name() public view virtual returns (string memory) {... */\n      swap1\n      jump\t// out\n        /* \"@openzeppelin/contracts/token/ERC20/ERC20.sol\":4293:4479  function approve(address spender, uint256 value) public virtual returns (bool) {... */\n    tag_31:\n        /* \"@openzeppelin/contracts/token/ERC20/ERC20.sol\":4366:4370  bool */\n      0x00\n        /* \"@openzeppelin/contracts/token/ERC20/ERC20.sol\":4382:4395  address owner */\n      dup1\n        /* \"@openzeppelin/contracts/token/ERC20/ERC20.sol\":4398:4410  _msgSender() */\n      tag_104\n        /* \"@openzeppelin/contracts/token/ERC20/ERC20.sol\":4398:4408  _msgSender */\n      tag_105\n        /* \"@openzeppelin/contracts/token/ERC20/ERC20.sol\":4398:4410  _msgSender() */\n      jump\t// in\n    tag_104:\n        /* \"@openzeppelin/contracts/token/ERC20/ERC20.sol\":4382:4410  address owner = _msgSender() */\n      swap1\n      pop\n        /* \"@openzeppelin/contracts/token/ERC20/ERC20.sol\":4420:4451  _approve(owner, spender, value) */\n      tag_106\n        /* \"@openzeppelin/contracts/token/ERC20/ERC20.sol\":4429:4434  owner */\n      dup2\n        /* \"@openzeppelin/contracts/token/ERC20/ERC20.sol\":4436:4443  spender */\n      dup6\n        /* \"@openzeppelin/contracts/token/ERC20/ERC20.sol\":4445:4450  value */\n      dup6\n        /* \"@openzeppelin/contracts/token/ERC20/ERC20.sol\":4420:4428  _approve */\n      tag_107\n        /* \"@openzeppelin/contracts/token/ERC20/ERC20.sol\":4420:4451  _approve(owner, spender, value) */\n      jump\t// in\n    tag_106:\n        /* \"@openzeppelin/contracts/token/ERC20/ERC20.sol\":4468:4472  true */\n      0x01\n        /* \"@openzeppelin/contracts/token/ERC20/ERC20.sol\":4461:4472  return true */\n      swap2\n      pop\n      pop\n        /* \"@openzeppelin/contracts/token/ERC20/ERC20.sol\":4293:4479  function approve(address spender, uint256 value) public virtual returns (bool) {... */\n      swap3\n      swap2\n      pop\n      pop\n      jump\t// out\n        /* \"@openzeppelin/contracts/token/ERC20/ERC20.sol\":3144:3241  function totalSupply() public view virtual returns (uint256) {... */\n    tag_35:\n        /* \"@openzeppelin/contracts/token/ERC20/ERC20.sol\":3196:3203  uint256 */\n      0x00\n        /* \"@openzeppelin/contracts/token/ERC20/ERC20.sol\":3222:3234  _totalSupply */\n      sload(0x02)\n        /* \"@openzeppelin/contracts/token/ERC20/ERC20.sol\":3215:3234  return _totalSupply */\n      swap1\n      pop\n        /* \"@openzeppelin/contracts/token/ERC20/ERC20.sol\":3144:3241  function totalSupply() public view virtual returns (uint256) {... */\n      swap1\n      jump\t// out\n        /* \"learning.sol\":1287:1853  function createTransaction(address _to, uint _amount) external{... */\n    tag_40:\n        /* \"learning.sol\":1390:1397  _amount */\n      dup1\n        /* \"learning.sol\":1367:1388  balanceOf(msg.sender) */\n      tag_110\n        /* \"learning.sol\":1377:1387  msg.sender */\n      caller\n        /* \"learning.sol\":1367:1376  balanceOf */\n      tag_63\n        /* \"learning.sol\":1367:1388  balanceOf(msg.sender) */\n      jump\t// in\n    tag_110:\n        /* \"learning.sol\":1367:1397  balanceOf(msg.sender)>=_amount */\n      lt\n      iszero\n        /* \"learning.sol\":1359:1429  require(balanceOf(msg.sender)>=_amount,\"You don't have enough tokens\") */\n      tag_111\n      jumpi\n      mload(0x40)\n      0x08c379a000000000000000000000000000000000000000000000000000000000\n      dup2\n      mstore\n      0x04\n      add\n      tag_112\n      swap1\n      tag_113\n      jump\t// in\n    tag_112:\n      mload(0x40)\n      dup1\n      swap2\n      sub\n      swap1\n      revert\n    tag_111:\n        /* \"learning.sol\":1439:1457  uint transactionId */\n      0x00\n        /* \"learning.sol\":1458:1474  transactionCount */\n      sload(0x09)\n        /* \"learning.sol\":1439:1474  uint transactionId=transactionCount */\n      swap1\n      pop\n        /* \"learning.sol\":1484:1518  Transaction storage newTransaction */\n      0x00\n        /* \"learning.sol\":1519:1531  transactions */\n      0x0a\n        /* \"learning.sol\":1519:1546  transactions[transactionId] */\n      0x00\n        /* \"learning.sol\":1532:1545  transactionId */\n      dup4\n        /* \"learning.sol\":1519:1546  transactions[transactionId] */\n      dup2\n      mstore\n      0x20\n      add\n      swap1\n      dup2\n      mstore\n      0x20\n      add\n      0x00\n      keccak256\n        /* \"learning.sol\":1484:1546  Transaction storage newTransaction=transactions[transactionId] */\n      swap1\n      pop\n        /* \"learning.sol\":1576:1586  msg.sender */\n      caller\n        /* \"learning.sol\":1556:1570  newTransaction */\n      dup2\n        /* \"learning.sol\":1556:1575  newTransaction.from */\n      0x00\n      add\n      0x00\n        /* \"learning.sol\":1556:1586  newTransaction.from=msg.sender */\n      0x0100\n      exp\n      dup2\n      sload\n      dup2\n      0xffffffffffffffffffffffffffffffffffffffff\n      mul\n      not\n      and\n      swap1\n      dup4\n      0xffffffffffffffffffffffffffffffffffffffff\n      and\n      mul\n      or\n      swap1\n      sstore\n      pop\n        /* \"learning.sol\":1614:1617  _to */\n      dup4\n        /* \"learning.sol\":1596:1610  newTransaction */\n      dup2\n        /* \"learning.sol\":1596:1613  newTransaction.to */\n      0x01\n      add\n      0x00\n        /* \"learning.sol\":1596:1617  newTransaction.to=_to */\n      0x0100\n      exp\n      dup2\n      sload\n      dup2\n      0xffffffffffffffffffffffffffffffffffffffff\n      mul\n      not\n      and\n      swap1\n      dup4\n      0xffffffffffffffffffffffffffffffffffffffff\n      and\n      mul\n      or\n      swap1\n      sstore\n      pop\n        /* \"learning.sol\":1649:1656  _amount */\n      dup3\n        /* \"learning.sol\":1627:1641  newTransaction */\n      dup2\n        /* \"learning.sol\":1627:1648  newTransaction.amount */\n      0x02\n      add\n        /* \"learning.sol\":1627:1656  newTransaction.amount=_amount */\n      dup2\n      swap1\n      sstore\n      pop\n        /* \"learning.sol\":1695:1696  0 */\n      0x00\n        /* \"learning.sol\":1666:1680  newTransaction */\n      dup2\n        /* \"learning.sol\":1666:1694  newTransaction.approvalCount */\n      0x03\n      add\n        /* \"learning.sol\":1666:1696  newTransaction.approvalCount=0 */\n      dup2\n      swap1\n      sstore\n      pop\n        /* \"learning.sol\":1730:1735  false */\n      0x00\n        /* \"learning.sol\":1706:1720  newTransaction */\n      dup2\n        /* \"learning.sol\":1706:1729  newTransaction.executed */\n      0x05\n      add\n      0x00\n        /* \"learning.sol\":1706:1735  newTransaction.executed=false */\n      0x0100\n      exp\n      dup2\n      sload\n      dup2\n      0xff\n      mul\n      not\n      and\n      swap1\n      dup4\n      iszero\n      iszero\n      mul\n      or\n      swap1\n      sstore\n      pop\n        /* \"learning.sol\":1754:1770  transactionCount */\n      0x09\n      0x00\n        /* \"learning.sol\":1754:1772  transactionCount++ */\n      dup2\n      sload\n      dup1\n      swap3\n      swap2\n      swap1\n      tag_114\n      swap1\n      tag_115\n      jump\t// in\n    tag_114:\n      swap2\n      swap1\n      pop\n      sstore\n      pop\n        /* \"learning.sol\":1787:1846  TransactionCreated(transactionId, msg.sender, _to, _amount) */\n      0xe9097a4f4eddc0e5906640fcd9e1193c9db52771536ca4c8b06ab4c40aa045d2\n        /* \"learning.sol\":1806:1819  transactionId */\n      dup3\n        /* \"learning.sol\":1821:1831  msg.sender */\n      caller\n        /* \"learning.sol\":1833:1836  _to */\n      dup7\n        /* \"learning.sol\":1838:1845  _amount */\n      dup7\n        /* \"learning.sol\":1787:1846  TransactionCreated(transactionId, msg.sender, _to, _amount) */\n      mload(0x40)\n      tag_116\n      swap5\n      swap4\n      swap3\n      swap2\n      swap1\n      tag_117\n      jump\t// in\n    tag_116:\n      mload(0x40)\n      dup1\n      swap2\n      sub\n      swap1\n      log1\n        /* \"learning.sol\":1349:1853  {... */\n      pop\n      pop\n        /* \"learning.sol\":1287:1853  function createTransaction(address _to, uint _amount) external{... */\n      pop\n      pop\n      jump\t// out\n        /* \"@openzeppelin/contracts/token/ERC20/ERC20.sol\":5039:5283  function transferFrom(address from, address to, uint256 value) public virtual returns (bool) {... */\n    tag_44:\n        /* \"@openzeppelin/contracts/token/ERC20/ERC20.sol\":5126:5130  bool */\n      0x00\n        /* \"@openzeppelin/contracts/token/ERC20/ERC20.sol\":5142:5157  address spender */\n      dup1\n        /* \"@openzeppelin/contracts/token/ERC20/ERC20.sol\":5160:5172  _msgSender() */\n      tag_119\n        /* \"@openzeppelin/contracts/token/ERC20/ERC20.sol\":5160:5170  _msgSender */\n      tag_105\n        /* \"@openzeppelin/contracts/token/ERC20/ERC20.sol\":5160:5172  _msgSender() */\n      jump\t// in\n    tag_119:\n        /* \"@openzeppelin/contracts/token/ERC20/ERC20.sol\":5142:5172  address spender = _msgSender() */\n      swap1\n      pop\n        /* \"@openzeppelin/contracts/token/ERC20/ERC20.sol\":5182:5219  _spendAllowance(from, spender, value) */\n      tag_120\n        /* \"@openzeppelin/contracts/token/ERC20/ERC20.sol\":5198:5202  from */\n      dup6\n        /* \"@openzeppelin/contracts/token/ERC20/ERC20.sol\":5204:5211  spender */\n      dup3\n        /* \"@openzeppelin/contracts/token/ERC20/ERC20.sol\":5213:5218  value */\n      dup6\n        /* \"@openzeppelin/contracts/token/ERC20/ERC20.sol\":5182:5197  _spendAllowance */\n      tag_121\n        /* \"@openzeppelin/contracts/token/ERC20/ERC20.sol\":5182:5219  _spendAllowance(from, spender, value) */\n      jump\t// in\n    tag_120:\n        /* \"@openzeppelin/contracts/token/ERC20/ERC20.sol\":5229:5255  _transfer(from, to, value) */\n      tag_122\n        /* \"@openzeppelin/contracts/token/ERC20/ERC20.sol\":5239:5243  from */\n      dup6\n        /* \"@openzeppelin/contracts/token/ERC20/ERC20.sol\":5245:5247  to */\n      dup6\n        /* \"@openzeppelin/contracts/token/ERC20/ERC20.sol\":5249:5254  value */\n      dup6\n        /* \"@openzeppelin/contracts/token/ERC20/ERC20.sol\":5229:5238  _transfer */\n      tag_123\n        /* \"@openzeppelin/contracts/token/ERC20/ERC20.sol\":5229:5255  _transfer(from, to, value) */\n      jump\t// in\n    tag_122:\n        /* \"@openzeppelin/contracts/token/ERC20/ERC20.sol\":5272:5276  true */\n      0x01\n        /* \"@openzeppelin/contracts/token/ERC20/ERC20.sol\":5265:5276  return true */\n      swap2\n      pop\n      pop\n        /* \"@openzeppelin/contracts/token/ERC20/ERC20.sol\":5039:5283  function transferFrom(address from, address to, uint256 value) public virtual returns (bool) {... */\n      swap4\n      swap3\n      pop\n      pop\n      pop\n      jump\t// out\n        /* \"learning.sol\":1859:2442  function approveTransaction(uint _transactionId) external onlyApprover{... */\n    tag_49:\n        /* \"learning.sol\":1191:1208  approvedApprovers */\n      0x06\n        /* \"learning.sol\":1191:1220  approvedApprovers[msg.sender] */\n      0x00\n        /* \"learning.sol\":1209:1219  msg.sender */\n      caller\n        /* \"learning.sol\":1191:1220  approvedApprovers[msg.sender] */\n      0xffffffffffffffffffffffffffffffffffffffff\n      and\n      0xffffffffffffffffffffffffffffffffffffffff\n      and\n      dup2\n      mstore\n      0x20\n      add\n      swap1\n      dup2\n      mstore\n      0x20\n      add\n      0x00\n      keccak256\n      0x00\n      swap1\n      sload\n      swap1\n      0x0100\n      exp\n      swap1\n      div\n      0xff\n      and\n        /* \"learning.sol\":1183:1264  require(approvedApprovers[msg.sender],\"Only approvers can execute this function\") */\n      tag_125\n      jumpi\n      mload(0x40)\n      0x08c379a000000000000000000000000000000000000000000000000000000000\n      dup2\n      mstore\n      0x04\n      add\n      tag_126\n      swap1\n      tag_127\n      jump\t// in\n    tag_126:\n      mload(0x40)\n      dup1\n      swap2\n      sub\n      swap1\n      revert\n    tag_125:\n        /* \"learning.sol\":1939:1970  Transaction storage transaction */\n      0x00\n        /* \"learning.sol\":1972:1984  transactions */\n      0x0a\n        /* \"learning.sol\":1972:2000  transactions[_transactionId] */\n      0x00\n        /* \"learning.sol\":1985:1999  _transactionId */\n      dup4\n        /* \"learning.sol\":1972:2000  transactions[_transactionId] */\n      dup2\n      mstore\n      0x20\n      add\n      swap1\n      dup2\n      mstore\n      0x20\n      add\n      0x00\n      keccak256\n        /* \"learning.sol\":1939:2000  Transaction storage transaction= transactions[_transactionId] */\n      swap1\n      pop\n        /* \"learning.sol\":2019:2030  transaction */\n      dup1\n        /* \"learning.sol\":2019:2039  transaction.executed */\n      0x05\n      add\n      0x00\n      swap1\n      sload\n      swap1\n      0x0100\n      exp\n      swap1\n      div\n      0xff\n      and\n        /* \"learning.sol\":2018:2039  !transaction.executed */\n      iszero\n        /* \"learning.sol\":2010:2071  require(!transaction.executed,\"Transaction already executed\") */\n      tag_129\n      jumpi\n      mload(0x40)\n      0x08c379a000000000000000000000000000000000000000000000000000000000\n      dup2\n      mstore\n      0x04\n      add\n      tag_130\n      swap1\n      tag_131\n      jump\t// in\n    tag_130:\n      mload(0x40)\n      dup1\n      swap2\n      sub\n      swap1\n      revert\n    tag_129:\n        /* \"learning.sol\":2090:2101  transaction */\n      dup1\n        /* \"learning.sol\":2090:2111  transaction.approvals */\n      0x04\n      add\n        /* \"learning.sol\":2090:2123  transaction.approvals[msg.sender] */\n      0x00\n        /* \"learning.sol\":2112:2122  msg.sender */\n      caller\n        /* \"learning.sol\":2090:2123  transaction.approvals[msg.sender] */\n      0xffffffffffffffffffffffffffffffffffffffff\n      and\n      0xffffffffffffffffffffffffffffffffffffffff\n      and\n      dup2\n      mstore\n      0x20\n      add\n      swap1\n      dup2\n      mstore\n      0x20\n      add\n      0x00\n      keccak256\n      0x00\n      swap1\n      sload\n      swap1\n      0x0100\n      exp\n      swap1\n      div\n      0xff\n      and\n        /* \"learning.sol\":2089:2123  !transaction.approvals[msg.sender] */\n      iszero\n        /* \"learning.sol\":2081:2173  require(!transaction.approvals[msg.sender], \"Transaction already approved by this approver\") */\n      tag_132\n      jumpi\n      mload(0x40)\n      0x08c379a000000000000000000000000000000000000000000000000000000000\n      dup2\n      mstore\n      0x04\n      add\n      tag_133\n      swap1\n      tag_134\n      jump\t// in\n    tag_133:\n      mload(0x40)\n      dup1\n      swap2\n      sub\n      swap1\n      revert\n    tag_132:\n        /* \"learning.sol\":2218:2222  true */\n      0x01\n        /* \"learning.sol\":2184:2195  transaction */\n      dup2\n        /* \"learning.sol\":2184:2205  transaction.approvals */\n      0x04\n      add\n        /* \"learning.sol\":2184:2217  transaction.approvals[msg.sender] */\n      0x00\n        /* \"learning.sol\":2206:2216  msg.sender */\n      caller\n        /* \"learning.sol\":2184:2217  transaction.approvals[msg.sender] */\n      0xffffffffffffffffffffffffffffffffffffffff\n      and\n      0xffffffffffffffffffffffffffffffffffffffff\n      and\n      dup2\n      mstore\n      0x20\n      add\n      swap1\n      dup2\n      mstore\n      0x20\n      add\n      0x00\n      keccak256\n      0x00\n        /* \"learning.sol\":2184:2222  transaction.approvals[msg.sender]=true */\n      0x0100\n      exp\n      dup2\n      sload\n      dup2\n      0xff\n      mul\n      not\n      and\n      swap1\n      dup4\n      iszero\n      iszero\n      mul\n      or\n      swap1\n      sstore\n      pop\n        /* \"learning.sol\":2232:2243  transaction */\n      dup1\n        /* \"learning.sol\":2232:2257  transaction.approvalCount */\n      0x03\n      add\n      0x00\n        /* \"learning.sol\":2232:2259  transaction.approvalCount++ */\n      dup2\n      sload\n      dup1\n      swap3\n      swap2\n      swap1\n      tag_135\n      swap1\n      tag_115\n      jump\t// in\n    tag_135:\n      swap2\n      swap1\n      pop\n      sstore\n      pop\n        /* \"learning.sol\":2275:2322  TransactionApproved(_transactionId, msg.sender) */\n      0x924813d717e221b5f46dcd8a56da1679e4612584ab3237d55e5faabf6f6a3079\n        /* \"learning.sol\":2295:2309  _transactionId */\n      dup3\n        /* \"learning.sol\":2311:2321  msg.sender */\n      caller\n        /* \"learning.sol\":2275:2322  TransactionApproved(_transactionId, msg.sender) */\n      mload(0x40)\n      tag_136\n      swap3\n      swap2\n      swap1\n      tag_137\n      jump\t// in\n    tag_136:\n      mload(0x40)\n      dup1\n      swap2\n      sub\n      swap1\n      log1\n        /* \"learning.sol\":2375:2376  2 */\n      0x02\n        /* \"learning.sol\":2361:2374  approverCount */\n      sload(0x08)\n        /* \"learning.sol\":2361:2376  approverCount/2 */\n      tag_138\n      swap2\n      swap1\n      tag_139\n      jump\t// in\n    tag_138:\n        /* \"learning.sol\":2335:2346  transaction */\n      dup2\n        /* \"learning.sol\":2335:2360  transaction.approvalCount */\n      0x03\n      add\n      sload\n        /* \"learning.sol\":2335:2376  transaction.approvalCount>approverCount/2 */\n      gt\n        /* \"learning.sol\":2332:2436  if(transaction.approvalCount>approverCount/2){... */\n      iszero\n      tag_140\n      jumpi\n        /* \"learning.sol\":2391:2425  executeTransaction(_transactionId) */\n      tag_141\n        /* \"learning.sol\":2410:2424  _transactionId */\n      dup3\n        /* \"learning.sol\":2391:2409  executeTransaction */\n      tag_142\n        /* \"learning.sol\":2391:2425  executeTransaction(_transactionId) */\n      jump\t// in\n    tag_141:\n        /* \"learning.sol\":2332:2436  if(transaction.approvalCount>approverCount/2){... */\n    tag_140:\n        /* \"learning.sol\":1929:2442  {... */\n      pop\n        /* \"learning.sol\":1859:2442  function approveTransaction(uint _transactionId) external onlyApprover{... */\n      pop\n      jump\t// out\n        /* \"@openzeppelin/contracts/token/ERC20/ERC20.sol\":3002:3084  function decimals() public view virtual returns (uint8) {... */\n    tag_51:\n        /* \"@openzeppelin/contracts/token/ERC20/ERC20.sol\":3051:3056  uint8 */\n      0x00\n        /* \"@openzeppelin/contracts/token/ERC20/ERC20.sol\":3075:3077  18 */\n      0x12\n        /* \"@openzeppelin/contracts/token/ERC20/ERC20.sol\":3068:3077  return 18 */\n      swap1\n      pop\n        /* \"@openzeppelin/contracts/token/ERC20/ERC20.sol\":3002:3084  function decimals() public view virtual returns (uint8) {... */\n      swap1\n      jump\t// out\n        /* \"learning.sol\":2907:3195  function applyForApproval() public{... */\n    tag_55:\n        /* \"learning.sol\":2960:2977  approvedApprovers */\n      0x06\n        /* \"learning.sol\":2960:2989  approvedApprovers[msg.sender] */\n      0x00\n        /* \"learning.sol\":2978:2988  msg.sender */\n      caller\n        /* \"learning.sol\":2960:2989  approvedApprovers[msg.sender] */\n      0xffffffffffffffffffffffffffffffffffffffff\n      and\n      0xffffffffffffffffffffffffffffffffffffffff\n      and\n      dup2\n      mstore\n      0x20\n      add\n      swap1\n      dup2\n      mstore\n      0x20\n      add\n      0x00\n      keccak256\n      0x00\n      swap1\n      sload\n      swap1\n      0x0100\n      exp\n      swap1\n      div\n      0xff\n      and\n        /* \"learning.sol\":2959:2989  !approvedApprovers[msg.sender] */\n      iszero\n        /* \"learning.sol\":2951:3017  require(!approvedApprovers[msg.sender],\"You are already approved\") */\n      tag_145\n      jumpi\n      mload(0x40)\n      0x08c379a000000000000000000000000000000000000000000000000000000000\n      dup2\n      mstore\n      0x04\n      add\n      tag_146\n      swap1\n      tag_147\n      jump\t// in\n    tag_146:\n      mload(0x40)\n      dup1\n      swap2\n      sub\n      swap1\n      revert\n    tag_145:\n        /* \"learning.sol\":3036:3055  appliedForApprovals */\n      0x07\n        /* \"learning.sol\":3036:3067  appliedForApprovals[msg.sender] */\n      0x00\n        /* \"learning.sol\":3056:3066  msg.sender */\n      caller\n        /* \"learning.sol\":3036:3067  appliedForApprovals[msg.sender] */\n      0xffffffffffffffffffffffffffffffffffffffff\n      and\n      0xffffffffffffffffffffffffffffffffffffffff\n      and\n      dup2\n      mstore\n      0x20\n      add\n      swap1\n      dup2\n      mstore\n      0x20\n      add\n      0x00\n      keccak256\n      0x00\n      swap1\n      sload\n      swap1\n      0x0100\n      exp\n      swap1\n      div\n      0xff\n      and\n        /* \"learning.sol\":3035:3067  !appliedForApprovals[msg.sender] */\n      iszero\n        /* \"learning.sol\":3027:3096  require(!appliedForApprovals[msg.sender], \"You have already applied\") */\n      tag_148\n      jumpi\n      mload(0x40)\n      0x08c379a000000000000000000000000000000000000000000000000000000000\n      dup2\n      mstore\n      0x04\n      add\n      tag_149\n      swap1\n      tag_150\n      jump\t// in\n    tag_149:\n      mload(0x40)\n      dup1\n      swap2\n      sub\n      swap1\n      revert\n    tag_148:\n        /* \"learning.sol\":3139:3143  true */\n      0x01\n        /* \"learning.sol\":3107:3126  appliedForApprovals */\n      0x07\n        /* \"learning.sol\":3107:3138  appliedForApprovals[msg.sender] */\n      0x00\n        /* \"learning.sol\":3127:3137  msg.sender */\n      caller\n        /* \"learning.sol\":3107:3138  appliedForApprovals[msg.sender] */\n      0xffffffffffffffffffffffffffffffffffffffff\n      and\n      0xffffffffffffffffffffffffffffffffffffffff\n      and\n      dup2\n      mstore\n      0x20\n      add\n      swap1\n      dup2\n      mstore\n      0x20\n      add\n      0x00\n      keccak256\n      0x00\n        /* \"learning.sol\":3107:3143  appliedForApprovals[msg.sender]=true */\n      0x0100\n      exp\n      dup2\n      sload\n      dup2\n      0xff\n      mul\n      not\n      and\n      swap1\n      dup4\n      iszero\n      iszero\n      mul\n      or\n      swap1\n      sstore\n      pop\n        /* \"learning.sol\":3158:3188  AppliedForApproval(msg.sender) */\n      0x80ac0fcf7b2e6101ca51f7fa686995d8766af6abedb2267d0ed8784ce7515a8d\n        /* \"learning.sol\":3177:3187  msg.sender */\n      caller\n        /* \"learning.sol\":3158:3188  AppliedForApproval(msg.sender) */\n      mload(0x40)\n      tag_151\n      swap2\n      swap1\n      tag_72\n      jump\t// in\n    tag_151:\n      mload(0x40)\n      dup1\n      swap2\n      sub\n      swap1\n      log1\n        /* \"learning.sol\":2907:3195  function applyForApproval() public{... */\n      jump\t// out\n        /* \"learning.sol\":178:227  mapping(address => bool) public approvedApprovers */\n    tag_59:\n      mstore(0x20, 0x06)\n      dup1\n      0x00\n      mstore\n      keccak256(0x00, 0x40)\n      0x00\n      swap2\n      pop\n      sload\n      swap1\n      0x0100\n      exp\n      swap1\n      div\n      0xff\n      and\n      dup2\n      jump\t// out\n        /* \"@openzeppelin/contracts/token/ERC20/ERC20.sol\":3299:3415  function balanceOf(address account) public view virtual returns (uint256) {... */\n    tag_63:\n        /* \"@openzeppelin/contracts/token/ERC20/ERC20.sol\":3364:3371  uint256 */\n      0x00\n        /* \"@openzeppelin/contracts/token/ERC20/ERC20.sol\":3390:3399  _balances */\n      dup1\n        /* \"@openzeppelin/contracts/token/ERC20/ERC20.sol\":3390:3408  _balances[account] */\n      0x00\n        /* \"@openzeppelin/contracts/token/ERC20/ERC20.sol\":3400:3407  account */\n      dup4\n        /* \"@openzeppelin/contracts/token/ERC20/ERC20.sol\":3390:3408  _balances[account] */\n      0xffffffffffffffffffffffffffffffffffffffff\n      and\n      0xffffffffffffffffffffffffffffffffffffffff\n      and\n      dup2\n      mstore\n      0x20\n      add\n      swap1\n      dup2\n      mstore\n      0x20\n      add\n      0x00\n      keccak256\n      sload\n        /* \"@openzeppelin/contracts/token/ERC20/ERC20.sol\":3383:3408  return _balances[account] */\n      swap1\n      pop\n        /* \"@openzeppelin/contracts/token/ERC20/ERC20.sol\":3299:3415  function balanceOf(address account) public view virtual returns (uint256) {... */\n      swap2\n      swap1\n      pop\n      jump\t// out\n        /* \"learning.sol\":233:284  mapping(address => bool) public appliedForApprovals */\n    tag_67:\n      mstore(0x20, 0x07)\n      dup1\n      0x00\n      mstore\n      keccak256(0x00, 0x40)\n      0x00\n      swap2\n      pop\n      sload\n      swap1\n      0x0100\n      exp\n      swap1\n      div\n      0xff\n      and\n      dup2\n      jump\t// out\n        /* \"learning.sol\":152:172  address public owner */\n    tag_70:\n      0x05\n      0x00\n      swap1\n      sload\n      swap1\n      0x0100\n      exp\n      swap1\n      div\n      0xffffffffffffffffffffffffffffffffffffffff\n      and\n      dup2\n      jump\t// out\n        /* \"learning.sol\":3511:3754  function deleteApprover(address toBeDeleted) public{... */\n    tag_75:\n        /* \"learning.sol\":3580:3597  approvedApprovers */\n      0x06\n        /* \"learning.sol\":3580:3610  approvedApprovers[toBeDeleted] */\n      0x00\n        /* \"learning.sol\":3598:3609  toBeDeleted */\n      dup3\n        /* \"learning.sol\":3580:3610  approvedApprovers[toBeDeleted] */\n      0xffffffffffffffffffffffffffffffffffffffff\n      and\n      0xffffffffffffffffffffffffffffffffffffffff\n      and\n      dup2\n      mstore\n      0x20\n      add\n      swap1\n      dup2\n      mstore\n      0x20\n      add\n      0x00\n      keccak256\n      0x00\n      swap1\n      sload\n      swap1\n      0x0100\n      exp\n      swap1\n      div\n      0xff\n      and\n        /* \"learning.sol\":3572:3631  require(approvedApprovers[toBeDeleted],\"Address Not Found\") */\n      tag_154\n      jumpi\n      mload(0x40)\n      0x08c379a000000000000000000000000000000000000000000000000000000000\n      dup2\n      mstore\n      0x04\n      add\n      tag_155\n      swap1\n      tag_156\n      jump\t// in\n    tag_155:\n      mload(0x40)\n      dup1\n      swap2\n      sub\n      swap1\n      revert\n    tag_154:\n        /* \"learning.sol\":3641:3654  approverCount */\n      0x08\n      0x00\n        /* \"learning.sol\":3641:3656  approverCount-- */\n      dup2\n      sload\n      dup1\n      swap3\n      swap2\n      swap1\n      tag_157\n      swap1\n      tag_158\n      jump\t// in\n    tag_157:\n      swap2\n      swap1\n      pop\n      sstore\n      pop\n        /* \"learning.sol\":3673:3690  approvedApprovers */\n      0x06\n        /* \"learning.sol\":3673:3703  approvedApprovers[toBeDeleted] */\n      0x00\n        /* \"learning.sol\":3691:3702  toBeDeleted */\n      dup3\n        /* \"learning.sol\":3673:3703  approvedApprovers[toBeDeleted] */\n      0xffffffffffffffffffffffffffffffffffffffff\n      and\n      0xffffffffffffffffffffffffffffffffffffffff\n      and\n      dup2\n      mstore\n      0x20\n      add\n      swap1\n      dup2\n      mstore\n      0x20\n      add\n      0x00\n      keccak256\n      0x00\n        /* \"learning.sol\":3666:3704  delete(approvedApprovers[toBeDeleted]) */\n      0x0100\n      exp\n      dup2\n      sload\n      swap1\n      0xff\n      mul\n      not\n      and\n      swap1\n      sstore\n        /* \"learning.sol\":3719:3747  DeletedApprover(toBeDeleted) */\n      0x86537fcd7fdb3b362cc725fe5f9da81ae7553ce4fc465e3a0f08799b0fc3bf55\n        /* \"learning.sol\":3735:3746  toBeDeleted */\n      dup2\n        /* \"learning.sol\":3719:3747  DeletedApprover(toBeDeleted) */\n      mload(0x40)\n      tag_159\n      swap2\n      swap1\n      tag_72\n      jump\t// in\n    tag_159:\n      mload(0x40)\n      dup1\n      swap2\n      sub\n      swap1\n      log1\n        /* \"learning.sol\":3511:3754  function deleteApprover(address toBeDeleted) public{... */\n      pop\n      jump\t// out\n        /* \"learning.sol\":3200:3506  function approveApprovall(address toBeApproved) public{... */\n    tag_78:\n        /* \"learning.sol\":3273:3290  approvedApprovers */\n      0x06\n        /* \"learning.sol\":3273:3304  approvedApprovers[toBeApproved] */\n      0x00\n        /* \"learning.sol\":3291:3303  toBeApproved */\n      dup3\n        /* \"learning.sol\":3273:3304  approvedApprovers[toBeApproved] */\n      0xffffffffffffffffffffffffffffffffffffffff\n      and\n      0xffffffffffffffffffffffffffffffffffffffff\n      and\n      dup2\n      mstore\n      0x20\n      add\n      swap1\n      dup2\n      mstore\n      0x20\n      add\n      0x00\n      keccak256\n      0x00\n      swap1\n      sload\n      swap1\n      0x0100\n      exp\n      swap1\n      div\n      0xff\n      and\n        /* \"learning.sol\":3272:3304  !approvedApprovers[toBeApproved] */\n      iszero\n        /* \"learning.sol\":3264:3339  require(!approvedApprovers[toBeApproved],\"The Address is already approved\") */\n      tag_161\n      jumpi\n      mload(0x40)\n      0x08c379a000000000000000000000000000000000000000000000000000000000\n      dup2\n      mstore\n      0x04\n      add\n      tag_162\n      swap1\n      tag_163\n      jump\t// in\n    tag_162:\n      mload(0x40)\n      dup1\n      swap2\n      sub\n      swap1\n      revert\n    tag_161:\n        /* \"learning.sol\":3383:3387  true */\n      0x01\n        /* \"learning.sol\":3349:3366  approvedApprovers */\n      0x06\n        /* \"learning.sol\":3349:3380  approvedApprovers[toBeApproved] */\n      0x00\n        /* \"learning.sol\":3367:3379  toBeApproved */\n      dup4\n        /* \"learning.sol\":3349:3380  approvedApprovers[toBeApproved] */\n      0xffffffffffffffffffffffffffffffffffffffff\n      and\n      0xffffffffffffffffffffffffffffffffffffffff\n      and\n      dup2\n      mstore\n      0x20\n      add\n      swap1\n      dup2\n      mstore\n      0x20\n      add\n      0x00\n      keccak256\n      0x00\n        /* \"learning.sol\":3349:3387  approvedApprovers[toBeApproved] = true */\n      0x0100\n      exp\n      dup2\n      sload\n      dup2\n      0xff\n      mul\n      not\n      and\n      swap1\n      dup4\n      iszero\n      iszero\n      mul\n      or\n      swap1\n      sstore\n      pop\n        /* \"learning.sol\":3397:3410  approverCount */\n      0x08\n      0x00\n        /* \"learning.sol\":3397:3412  approverCount++ */\n      dup2\n      sload\n      dup1\n      swap3\n      swap2\n      swap1\n      tag_164\n      swap1\n      tag_115\n      jump\t// in\n    tag_164:\n      swap2\n      swap1\n      pop\n      sstore\n      pop\n        /* \"learning.sol\":3429:3448  appliedForApprovals */\n      0x07\n        /* \"learning.sol\":3429:3462  appliedForApprovals[toBeApproved] */\n      0x00\n        /* \"learning.sol\":3449:3461  toBeApproved */\n      dup3\n        /* \"learning.sol\":3429:3462  appliedForApprovals[toBeApproved] */\n      0xffffffffffffffffffffffffffffffffffffffff\n      and\n      0xffffffffffffffffffffffffffffffffffffffff\n      and\n      dup2\n      mstore\n      0x20\n      add\n      swap1\n      dup2\n      mstore\n      0x20\n      add\n      0x00\n      keccak256\n      0x00\n        /* \"learning.sol\":3422:3462  delete appliedForApprovals[toBeApproved] */\n      0x0100\n      exp\n      dup2\n      sload\n      swap1\n      0xff\n      mul\n      not\n      and\n      swap1\n      sstore\n        /* \"learning.sol\":3477:3499  Approved(toBeApproved) */\n      0x5d91bd0cecc45fef102af61de92c5462fadc884a5ce9d21c15e8a85198f2349e\n        /* \"learning.sol\":3486:3498  toBeApproved */\n      dup2\n        /* \"learning.sol\":3477:3499  Approved(toBeApproved) */\n      mload(0x40)\n      tag_165\n      swap2\n      swap1\n      tag_72\n      jump\t// in\n    tag_165:\n      mload(0x40)\n      dup1\n      swap2\n      sub\n      swap1\n      log1\n        /* \"learning.sol\":3200:3506  function approveApprovall(address toBeApproved) public{... */\n      pop\n      jump\t// out\n        /* \"@openzeppelin/contracts/token/ERC20/ERC20.sol\":2276:2369  function symbol() public view virtual returns (string memory) {... */\n    tag_80:\n        /* \"@openzeppelin/contracts/token/ERC20/ERC20.sol\":2323:2336  string memory */\n      0x60\n        /* \"@openzeppelin/contracts/token/ERC20/ERC20.sol\":2355:2362  _symbol */\n      0x04\n        /* \"@openzeppelin/contracts/token/ERC20/ERC20.sol\":2348:2362  return _symbol */\n      dup1\n      sload\n      tag_167\n      swap1\n      tag_98\n      jump\t// in\n    tag_167:\n      dup1\n      0x1f\n      add\n      0x20\n      dup1\n      swap2\n      div\n      mul\n      0x20\n      add\n      mload(0x40)\n      swap1\n      dup2\n      add\n      0x40\n      mstore\n      dup1\n      swap3\n      swap2\n      swap1\n      dup2\n      dup2\n      mstore\n      0x20\n      add\n      dup3\n      dup1\n      sload\n      tag_168\n      swap1\n      tag_98\n      jump\t// in\n    tag_168:\n      dup1\n      iszero\n      tag_169\n      jumpi\n      dup1\n      0x1f\n      lt\n      tag_170\n      jumpi\n      0x0100\n      dup1\n      dup4\n      sload\n      div\n      mul\n      dup4\n      mstore\n      swap2\n      0x20\n      add\n      swap2\n      jump(tag_169)\n    tag_170:\n      dup3\n      add\n      swap2\n      swap1\n      0x00\n      mstore\n      keccak256(0x00, 0x20)\n      swap1\n    tag_171:\n      dup2\n      sload\n      dup2\n      mstore\n      swap1\n      0x01\n      add\n      swap1\n      0x20\n      add\n      dup1\n      dup4\n      gt\n      tag_171\n      jumpi\n      dup3\n      swap1\n      sub\n      0x1f\n      and\n      dup3\n      add\n      swap2\n    tag_169:\n      pop\n      pop\n      pop\n      pop\n      pop\n      swap1\n      pop\n        /* \"@openzeppelin/contracts/token/ERC20/ERC20.sol\":2276:2369  function symbol() public view virtual returns (string memory) {... */\n      swap1\n      jump\t// out\n        /* \"learning.sol\":879:930  mapping(uint256 => Transaction) public transactions */\n    tag_84:\n      mstore(0x20, 0x0a)\n      dup1\n      0x00\n      mstore\n      keccak256(0x00, 0x40)\n      0x00\n      swap2\n      pop\n      swap1\n      pop\n      dup1\n      0x00\n      add\n      0x00\n      swap1\n      sload\n      swap1\n      0x0100\n      exp\n      swap1\n      div\n      0xffffffffffffffffffffffffffffffffffffffff\n      and\n      swap1\n      dup1\n      0x01\n      add\n      0x00\n      swap1\n      sload\n      swap1\n      0x0100\n      exp\n      swap1\n      div\n      0xffffffffffffffffffffffffffffffffffffffff\n      and\n      swap1\n      dup1\n      0x02\n      add\n      sload\n      swap1\n      dup1\n      0x03\n      add\n      sload\n      swap1\n      dup1\n      0x05\n      add\n      0x00\n      swap1\n      sload\n      swap1\n      0x0100\n      exp\n      swap1\n      div\n      0xff\n      and\n      swap1\n      pop\n      dup6\n      jump\t// out\n        /* \"@openzeppelin/contracts/token/ERC20/ERC20.sol\":3610:3788  function transfer(address to, uint256 value) public virtual returns (bool) {... */\n    tag_89:\n        /* \"@openzeppelin/contracts/token/ERC20/ERC20.sol\":3679:3683  bool */\n      0x00\n        /* \"@openzeppelin/contracts/token/ERC20/ERC20.sol\":3695:3708  address owner */\n      dup1\n        /* \"@openzeppelin/contracts/token/ERC20/ERC20.sol\":3711:3723  _msgSender() */\n      tag_173\n        /* \"@openzeppelin/contracts/token/ERC20/ERC20.sol\":3711:3721  _msgSender */\n      tag_105\n        /* \"@openzeppelin/contracts/token/ERC20/ERC20.sol\":3711:3723  _msgSender() */\n      jump\t// in\n    tag_173:\n        /* \"@openzeppelin/contracts/token/ERC20/ERC20.sol\":3695:3723  address owner = _msgSender() */\n      swap1\n      pop\n        /* \"@openzeppelin/contracts/token/ERC20/ERC20.sol\":3733:3760  _transfer(owner, to, value) */\n      tag_174\n        /* \"@openzeppelin/contracts/token/ERC20/ERC20.sol\":3743:3748  owner */\n      dup2\n        /* \"@openzeppelin/contracts/token/ERC20/ERC20.sol\":3750:3752  to */\n      dup6\n        /* \"@openzeppelin/contracts/token/ERC20/ERC20.sol\":3754:3759  value */\n      dup6\n        /* \"@openzeppelin/contracts/token/ERC20/ERC20.sol\":3733:3742  _transfer */\n      tag_123\n        /* \"@openzeppelin/contracts/token/ERC20/ERC20.sol\":3733:3760  _transfer(owner, to, value) */\n      jump\t// in\n    tag_174:\n        /* \"@openzeppelin/contracts/token/ERC20/ERC20.sol\":3777:3781  true */\n      0x01\n        /* \"@openzeppelin/contracts/token/ERC20/ERC20.sol\":3770:3781  return true */\n      swap2\n      pop\n      pop\n        /* \"@openzeppelin/contracts/token/ERC20/ERC20.sol\":3610:3788  function transfer(address to, uint256 value) public virtual returns (bool) {... */\n      swap3\n      swap2\n      pop\n      pop\n      jump\t// out\n        /* \"@openzeppelin/contracts/token/ERC20/ERC20.sol\":3846:3986  function allowance(address owner, address spender) public view virtual returns (uint256) {... */\n    tag_94:\n        /* \"@openzeppelin/contracts/token/ERC20/ERC20.sol\":3926:3933  uint256 */\n      0x00\n        /* \"@openzeppelin/contracts/token/ERC20/ERC20.sol\":3952:3963  _allowances */\n      0x01\n        /* \"@openzeppelin/contracts/token/ERC20/ERC20.sol\":3952:3970  _allowances[owner] */\n      0x00\n        /* \"@openzeppelin/contracts/token/ERC20/ERC20.sol\":3964:3969  owner */\n      dup5\n        /* \"@openzeppelin/contracts/token/ERC20/ERC20.sol\":3952:3970  _allowances[owner] */\n      0xffffffffffffffffffffffffffffffffffffffff\n      and\n      0xffffffffffffffffffffffffffffffffffffffff\n      and\n      dup2\n      mstore\n      0x20\n      add\n      swap1\n      dup2\n      mstore\n      0x20\n      add\n      0x00\n      keccak256\n        /* \"@openzeppelin/contracts/token/ERC20/ERC20.sol\":3952:3979  _allowances[owner][spender] */\n      0x00\n        /* \"@openzeppelin/contracts/token/ERC20/ERC20.sol\":3971:3978  spender */\n      dup4\n        /* \"@openzeppelin/contracts/token/ERC20/ERC20.sol\":3952:3979  _allowances[owner][spender] */\n      0xffffffffffffffffffffffffffffffffffffffff\n      and\n      0xffffffffffffffffffffffffffffffffffffffff\n      and\n      dup2\n      mstore\n      0x20\n      add\n      swap1\n      dup2\n      mstore\n      0x20\n      add\n      0x00\n      keccak256\n      sload\n        /* \"@openzeppelin/contracts/token/ERC20/ERC20.sol\":3945:3979  return _allowances[owner][spender] */\n      swap1\n      pop\n        /* \"@openzeppelin/contracts/token/ERC20/ERC20.sol\":3846:3986  function allowance(address owner, address spender) public view virtual returns (uint256) {... */\n      swap3\n      swap2\n      pop\n      pop\n      jump\t// out\n        /* \"@openzeppelin/contracts/utils/Context.sol\":656:752  function _msgSender() internal view virtual returns (address) {... */\n    tag_105:\n        /* \"@openzeppelin/contracts/utils/Context.sol\":709:716  address */\n      0x00\n        /* \"@openzeppelin/contracts/utils/Context.sol\":735:745  msg.sender */\n      caller\n        /* \"@openzeppelin/contracts/utils/Context.sol\":728:745  return msg.sender */\n      swap1\n      pop\n        /* \"@openzeppelin/contracts/utils/Context.sol\":656:752  function _msgSender() internal view virtual returns (address) {... */\n      swap1\n      jump\t// out\n        /* \"@openzeppelin/contracts/token/ERC20/ERC20.sol\":8989:9117  function _approve(address owner, address spender, uint256 value) internal {... */\n    tag_107:\n        /* \"@openzeppelin/contracts/token/ERC20/ERC20.sol\":9073:9110  _approve(owner, spender, value, true) */\n      tag_178\n        /* \"@openzeppelin/contracts/token/ERC20/ERC20.sol\":9082:9087  owner */\n      dup4\n        /* \"@openzeppelin/contracts/token/ERC20/ERC20.sol\":9089:9096  spender */\n      dup4\n        /* \"@openzeppelin/contracts/token/ERC20/ERC20.sol\":9098:9103  value */\n      dup4\n        /* \"@openzeppelin/contracts/token/ERC20/ERC20.sol\":9105:9109  true */\n      0x01\n        /* \"@openzeppelin/contracts/token/ERC20/ERC20.sol\":9073:9081  _approve */\n      tag_179\n        /* \"@openzeppelin/contracts/token/ERC20/ERC20.sol\":9073:9110  _approve(owner, spender, value, true) */\n      jump\t// in\n    tag_178:\n        /* \"@openzeppelin/contracts/token/ERC20/ERC20.sol\":8989:9117  function _approve(address owner, address spender, uint256 value) internal {... */\n      pop\n      pop\n      pop\n      jump\t// out\n        /* \"@openzeppelin/contracts/token/ERC20/ERC20.sol\":10663:11140  function _spendAllowance(address owner, address spender, uint256 value) internal virtual {... */\n    tag_121:\n        /* \"@openzeppelin/contracts/token/ERC20/ERC20.sol\":10762:10786  uint256 currentAllowance */\n      0x00\n        /* \"@openzeppelin/contracts/token/ERC20/ERC20.sol\":10789:10814  allowance(owner, spender) */\n      tag_181\n        /* \"@openzeppelin/contracts/token/ERC20/ERC20.sol\":10799:10804  owner */\n      dup5\n        /* \"@openzeppelin/contracts/token/ERC20/ERC20.sol\":10806:10813  spender */\n      dup5\n        /* \"@openzeppelin/contracts/token/ERC20/ERC20.sol\":10789:10798  allowance */\n      tag_94\n        /* \"@openzeppelin/contracts/token/ERC20/ERC20.sol\":10789:10814  allowance(owner, spender) */\n      jump\t// in\n    tag_181:\n        /* \"@openzeppelin/contracts/token/ERC20/ERC20.sol\":10762:10814  uint256 currentAllowance = allowance(owner, spender) */\n      swap1\n      pop\n        /* \"@openzeppelin/contracts/token/ERC20/ERC20.sol\":10848:10865  type(uint256).max */\n      0xffffffffffffffffffffffffffffffffffffffffffffffffffffffffffffffff\n        /* \"@openzeppelin/contracts/token/ERC20/ERC20.sol\":10828:10844  currentAllowance */\n      dup2\n        /* \"@openzeppelin/contracts/token/ERC20/ERC20.sol\":10828:10865  currentAllowance != type(uint256).max */\n      eq\n        /* \"@openzeppelin/contracts/token/ERC20/ERC20.sol\":10824:11134  if (currentAllowance != type(uint256).max) {... */\n      tag_182\n      jumpi\n        /* \"@openzeppelin/contracts/token/ERC20/ERC20.sol\":10904:10909  value */\n      dup2\n        /* \"@openzeppelin/contracts/token/ERC20/ERC20.sol\":10885:10901  currentAllowance */\n      dup2\n        /* \"@openzeppelin/contracts/token/ERC20/ERC20.sol\":10885:10909  currentAllowance < value */\n      lt\n        /* \"@openzeppelin/contracts/token/ERC20/ERC20.sol\":10881:11011  if (currentAllowance < value) {... */\n      iszero\n      tag_183\n      jumpi\n        /* \"@openzeppelin/contracts/token/ERC20/ERC20.sol\":10963:10970  spender */\n      dup3\n        /* \"@openzeppelin/contracts/token/ERC20/ERC20.sol\":10972:10988  currentAllowance */\n      dup2\n        /* \"@openzeppelin/contracts/token/ERC20/ERC20.sol\":10990:10995  value */\n      dup4\n        /* \"@openzeppelin/contracts/token/ERC20/ERC20.sol\":10936:10996  ERC20InsufficientAllowance(spender, currentAllowance, value) */\n      mload(0x40)\n      0xfb8f41b200000000000000000000000000000000000000000000000000000000\n      dup2\n      mstore\n      0x04\n      add\n      tag_184\n      swap4\n      swap3\n      swap2\n      swap1\n      tag_185\n      jump\t// in\n    tag_184:\n      mload(0x40)\n      dup1\n      swap2\n      sub\n      swap1\n      revert\n        /* \"@openzeppelin/contracts/token/ERC20/ERC20.sol\":10881:11011  if (currentAllowance < value) {... */\n    tag_183:\n        /* \"@openzeppelin/contracts/token/ERC20/ERC20.sol\":11052:11109  _approve(owner, spender, currentAllowance - value, false) */\n      tag_186\n        /* \"@openzeppelin/contracts/token/ERC20/ERC20.sol\":11061:11066  owner */\n      dup5\n        /* \"@openzeppelin/contracts/token/ERC20/ERC20.sol\":11068:11075  spender */\n      dup5\n        /* \"@openzeppelin/contracts/token/ERC20/ERC20.sol\":11096:11101  value */\n      dup5\n        /* \"@openzeppelin/contracts/token/ERC20/ERC20.sol\":11077:11093  currentAllowance */\n      dup5\n        /* \"@openzeppelin/contracts/token/ERC20/ERC20.sol\":11077:11101  currentAllowance - value */\n      sub\n        /* \"@openzeppelin/contracts/token/ERC20/ERC20.sol\":11103:11108  false */\n      0x00\n        /* \"@openzeppelin/contracts/token/ERC20/ERC20.sol\":11052:11060  _approve */\n      tag_179\n        /* \"@openzeppelin/contracts/token/ERC20/ERC20.sol\":11052:11109  _approve(owner, spender, currentAllowance - value, false) */\n      jump\t// in\n    tag_186:\n        /* \"@openzeppelin/contracts/token/ERC20/ERC20.sol\":10824:11134  if (currentAllowance != type(uint256).max) {... */\n    tag_182:\n        /* \"@openzeppelin/contracts/token/ERC20/ERC20.sol\":10752:11140  {... */\n      pop\n        /* \"@openzeppelin/contracts/token/ERC20/ERC20.sol\":10663:11140  function _spendAllowance(address owner, address spender, uint256 value) internal virtual {... */\n      pop\n      pop\n      pop\n      jump\t// out\n        /* \"@openzeppelin/contracts/token/ERC20/ERC20.sol\":5656:5956  function _transfer(address from, address to, uint256 value) internal {... */\n    tag_123:\n        /* \"@openzeppelin/contracts/token/ERC20/ERC20.sol\":5755:5756  0 */\n      0x00\n        /* \"@openzeppelin/contracts/token/ERC20/ERC20.sol\":5739:5757  from == address(0) */\n      0xffffffffffffffffffffffffffffffffffffffff\n      and\n        /* \"@openzeppelin/contracts/token/ERC20/ERC20.sol\":5739:5743  from */\n      dup4\n        /* \"@openzeppelin/contracts/token/ERC20/ERC20.sol\":5739:5757  from == address(0) */\n      0xffffffffffffffffffffffffffffffffffffffff\n      and\n      sub\n        /* \"@openzeppelin/contracts/token/ERC20/ERC20.sol\":5735:5821  if (from == address(0)) {... */\n      tag_188\n      jumpi\n        /* \"@openzeppelin/contracts/token/ERC20/ERC20.sol\":5807:5808  0 */\n      0x00\n        /* \"@openzeppelin/contracts/token/ERC20/ERC20.sol\":5780:5810  ERC20InvalidSender(address(0)) */\n      mload(0x40)\n      0x96c6fd1e00000000000000000000000000000000000000000000000000000000\n      dup2\n      mstore\n      0x04\n      add\n      tag_189\n      swap2\n      swap1\n      tag_72\n      jump\t// in\n    tag_189:\n      mload(0x40)\n      dup1\n      swap2\n      sub\n      swap1\n      revert\n        /* \"@openzeppelin/contracts/token/ERC20/ERC20.sol\":5735:5821  if (from == address(0)) {... */\n    tag_188:\n        /* \"@openzeppelin/contracts/token/ERC20/ERC20.sol\":5848:5849  0 */\n      0x00\n        /* \"@openzeppelin/contracts/token/ERC20/ERC20.sol\":5834:5850  to == address(0) */\n      0xffffffffffffffffffffffffffffffffffffffff\n      and\n        /* \"@openzeppelin/contracts/token/ERC20/ERC20.sol\":5834:5836  to */\n      dup3\n        /* \"@openzeppelin/contracts/token/ERC20/ERC20.sol\":5834:5850  to == address(0) */\n      0xffffffffffffffffffffffffffffffffffffffff\n      and\n      sub\n        /* \"@openzeppelin/contracts/token/ERC20/ERC20.sol\":5830:5916  if (to == address(0)) {... */\n      tag_190\n      jumpi\n        /* \"@openzeppelin/contracts/token/ERC20/ERC20.sol\":5902:5903  0 */\n      0x00\n        /* \"@openzeppelin/contracts/token/ERC20/ERC20.sol\":5873:5905  ERC20InvalidReceiver(address(0)) */\n      mload(0x40)\n      0xec442f0500000000000000000000000000000000000000000000000000000000\n      dup2\n      mstore\n      0x04\n      add\n      tag_191\n      swap2\n      swap1\n      tag_72\n      jump\t// in\n    tag_191:\n      mload(0x40)\n      dup1\n      swap2\n      sub\n      swap1\n      revert\n        /* \"@openzeppelin/contracts/token/ERC20/ERC20.sol\":5830:5916  if (to == address(0)) {... */\n    tag_190:\n        /* \"@openzeppelin/contracts/token/ERC20/ERC20.sol\":5925:5949  _update(from, to, value) */\n      tag_192\n        /* \"@openzeppelin/contracts/token/ERC20/ERC20.sol\":5933:5937  from */\n      dup4\n        /* \"@openzeppelin/contracts/token/ERC20/ERC20.sol\":5939:5941  to */\n      dup4\n        /* \"@openzeppelin/contracts/token/ERC20/ERC20.sol\":5943:5948  value */\n      dup4\n        /* \"@openzeppelin/contracts/token/ERC20/ERC20.sol\":5925:5932  _update */\n      tag_193\n        /* \"@openzeppelin/contracts/token/ERC20/ERC20.sol\":5925:5949  _update(from, to, value) */\n      jump\t// in\n    tag_192:\n        /* \"@openzeppelin/contracts/token/ERC20/ERC20.sol\":5656:5956  function _transfer(address from, address to, uint256 value) internal {... */\n      pop\n      pop\n      pop\n      jump\t// out\n        /* \"learning.sol\":2448:2902  function executeTransaction(uint _transactionId) internal {... */\n    tag_142:\n        /* \"learning.sol\":2516:2547  Transaction storage transaction */\n      0x00\n        /* \"learning.sol\":2550:2562  transactions */\n      0x0a\n        /* \"learning.sol\":2550:2578  transactions[_transactionId] */\n      0x00\n        /* \"learning.sol\":2563:2577  _transactionId */\n      dup4\n        /* \"learning.sol\":2550:2578  transactions[_transactionId] */\n      dup2\n      mstore\n      0x20\n      add\n      swap1\n      dup2\n      mstore\n      0x20\n      add\n      0x00\n      keccak256\n        /* \"learning.sol\":2516:2578  Transaction storage transaction = transactions[_transactionId] */\n      swap1\n      pop\n        /* \"learning.sol\":2597:2608  transaction */\n      dup1\n        /* \"learning.sol\":2597:2617  transaction.executed */\n      0x05\n      add\n      0x00\n      swap1\n      sload\n      swap1\n      0x0100\n      exp\n      swap1\n      div\n      0xff\n      and\n        /* \"learning.sol\":2596:2617  !transaction.executed */\n      iszero\n        /* \"learning.sol\":2588:2649  require(!transaction.executed,\"Transaction already executed\") */\n      tag_195\n      jumpi\n      mload(0x40)\n      0x08c379a000000000000000000000000000000000000000000000000000000000\n      dup2\n      mstore\n      0x04\n      add\n      tag_196\n      swap1\n      tag_131\n      jump\t// in\n    tag_196:\n      mload(0x40)\n      dup1\n      swap2\n      sub\n      swap1\n      revert\n    tag_195:\n        /* \"learning.sol\":2708:2709  2 */\n      0x02\n        /* \"learning.sol\":2694:2707  approverCount */\n      sload(0x08)\n        /* \"learning.sol\":2694:2709  approverCount/2 */\n      tag_197\n      swap2\n      swap1\n      tag_139\n      jump\t// in\n    tag_197:\n        /* \"learning.sol\":2667:2678  transaction */\n      dup2\n        /* \"learning.sol\":2667:2692  transaction.approvalCount */\n      0x03\n      add\n      sload\n        /* \"learning.sol\":2667:2709  transaction.approvalCount> approverCount/2 */\n      gt\n        /* \"learning.sol\":2659:2735  require(transaction.approvalCount> approverCount/2,\"Insufficient Approvals\") */\n      tag_198\n      jumpi\n      mload(0x40)\n      0x08c379a000000000000000000000000000000000000000000000000000000000\n      dup2\n      mstore\n      0x04\n      add\n      tag_199\n      swap1\n      tag_200\n      jump\t// in\n    tag_199:\n      mload(0x40)\n      dup1\n      swap2\n      sub\n      swap1\n      revert\n    tag_198:\n        /* \"learning.sol\":2767:2771  true */\n      0x01\n        /* \"learning.sol\":2746:2757  transaction */\n      dup2\n        /* \"learning.sol\":2746:2766  transaction.executed */\n      0x05\n      add\n      0x00\n        /* \"learning.sol\":2746:2771  transaction.executed=true */\n      0x0100\n      exp\n      dup2\n      sload\n      dup2\n      0xff\n      mul\n      not\n      and\n      swap1\n      dup4\n      iszero\n      iszero\n      mul\n      or\n      swap1\n      sstore\n      pop\n        /* \"learning.sol\":2781:2844  _transfer(transaction.from, transaction.to, transaction.amount) */\n      tag_201\n        /* \"learning.sol\":2791:2802  transaction */\n      dup2\n        /* \"learning.sol\":2791:2807  transaction.from */\n      0x00\n      add\n      0x00\n      swap1\n      sload\n      swap1\n      0x0100\n      exp\n      swap1\n      div\n      0xffffffffffffffffffffffffffffffffffffffff\n      and\n        /* \"learning.sol\":2809:2820  transaction */\n      dup3\n        /* \"learning.sol\":2809:2823  transaction.to */\n      0x01\n      add\n      0x00\n      swap1\n      sload\n      swap1\n      0x0100\n      exp\n      swap1\n      div\n      0xffffffffffffffffffffffffffffffffffffffff\n      and\n        /* \"learning.sol\":2825:2836  transaction */\n      dup4\n        /* \"learning.sol\":2825:2843  transaction.amount */\n      0x02\n      add\n      sload\n        /* \"learning.sol\":2781:2790  _transfer */\n      tag_123\n        /* \"learning.sol\":2781:2844  _transfer(transaction.from, transaction.to, transaction.amount) */\n      jump\t// in\n    tag_201:\n        /* \"learning.sol\":2860:2895  TransactionExecuted(_transactionId) */\n      0x15ed165a284872ea7017f03df402a0cadfbfab588320ffaf83f160c2f82781c7\n        /* \"learning.sol\":2880:2894  _transactionId */\n      dup3\n        /* \"learning.sol\":2860:2895  TransactionExecuted(_transactionId) */\n      mload(0x40)\n      tag_202\n      swap2\n      swap1\n      tag_37\n      jump\t// in\n    tag_202:\n      mload(0x40)\n      dup1\n      swap2\n      sub\n      swap1\n      log1\n        /* \"learning.sol\":2506:2902  {... */\n      pop\n        /* \"learning.sol\":2448:2902  function executeTransaction(uint _transactionId) internal {... */\n      pop\n      jump\t// out\n        /* \"@openzeppelin/contracts/token/ERC20/ERC20.sol\":9949:10381  function _approve(address owner, address spender, uint256 value, bool emitEvent) internal virtual {... */\n    tag_179:\n        /* \"@openzeppelin/contracts/token/ERC20/ERC20.sol\":10078:10079  0 */\n      0x00\n        /* \"@openzeppelin/contracts/token/ERC20/ERC20.sol\":10061:10080  owner == address(0) */\n      0xffffffffffffffffffffffffffffffffffffffff\n      and\n        /* \"@openzeppelin/contracts/token/ERC20/ERC20.sol\":10061:10066  owner */\n      dup5\n        /* \"@openzeppelin/contracts/token/ERC20/ERC20.sol\":10061:10080  owner == address(0) */\n      0xffffffffffffffffffffffffffffffffffffffff\n      and\n      sub\n        /* \"@openzeppelin/contracts/token/ERC20/ERC20.sol\":10057:10146  if (owner == address(0)) {... */\n      tag_204\n      jumpi\n        /* \"@openzeppelin/contracts/token/ERC20/ERC20.sol\":10132:10133  0 */\n      0x00\n        /* \"@openzeppelin/contracts/token/ERC20/ERC20.sol\":10103:10135  ERC20InvalidApprover(address(0)) */\n      mload(0x40)\n      0xe602df0500000000000000000000000000000000000000000000000000000000\n      dup2\n      mstore\n      0x04\n      add\n      tag_205\n      swap2\n      swap1\n      tag_72\n      jump\t// in\n    tag_205:\n      mload(0x40)\n      dup1\n      swap2\n      sub\n      swap1\n      revert\n        /* \"@openzeppelin/contracts/token/ERC20/ERC20.sol\":10057:10146  if (owner == address(0)) {... */\n    tag_204:\n        /* \"@openzeppelin/contracts/token/ERC20/ERC20.sol\":10178:10179  0 */\n      0x00\n        /* \"@openzeppelin/contracts/token/ERC20/ERC20.sol\":10159:10180  spender == address(0) */\n      0xffffffffffffffffffffffffffffffffffffffff\n      and\n        /* \"@openzeppelin/contracts/token/ERC20/ERC20.sol\":10159:10166  spender */\n      dup4\n        /* \"@openzeppelin/contracts/token/ERC20/ERC20.sol\":10159:10180  spender == address(0) */\n      0xffffffffffffffffffffffffffffffffffffffff\n      and\n      sub\n        /* \"@openzeppelin/contracts/token/ERC20/ERC20.sol\":10155:10245  if (spender == address(0)) {... */\n      tag_206\n      jumpi\n        /* \"@openzeppelin/contracts/token/ERC20/ERC20.sol\":10231:10232  0 */\n      0x00\n        /* \"@openzeppelin/contracts/token/ERC20/ERC20.sol\":10203:10234  ERC20InvalidSpender(address(0)) */\n      mload(0x40)\n      0x94280d6200000000000000000000000000000000000000000000000000000000\n      dup2\n      mstore\n      0x04\n      add\n      tag_207\n      swap2\n      swap1\n      tag_72\n      jump\t// in\n    tag_207:\n      mload(0x40)\n      dup1\n      swap2\n      sub\n      swap1\n      revert\n        /* \"@openzeppelin/contracts/token/ERC20/ERC20.sol\":10155:10245  if (spender == address(0)) {... */\n    tag_206:\n        /* \"@openzeppelin/contracts/token/ERC20/ERC20.sol\":10284:10289  value */\n      dup2\n        /* \"@openzeppelin/contracts/token/ERC20/ERC20.sol\":10254:10265  _allowances */\n      0x01\n        /* \"@openzeppelin/contracts/token/ERC20/ERC20.sol\":10254:10272  _allowances[owner] */\n      0x00\n        /* \"@openzeppelin/contracts/token/ERC20/ERC20.sol\":10266:10271  owner */\n      dup7\n        /* \"@openzeppelin/contracts/token/ERC20/ERC20.sol\":10254:10272  _allowances[owner] */\n      0xffffffffffffffffffffffffffffffffffffffff\n      and\n      0xffffffffffffffffffffffffffffffffffffffff\n      and\n      dup2\n      mstore\n      0x20\n      add\n      swap1\n      dup2\n      mstore\n      0x20\n      add\n      0x00\n      keccak256\n        /* \"@openzeppelin/contracts/token/ERC20/ERC20.sol\":10254:10281  _allowances[owner][spender] */\n      0x00\n        /* \"@openzeppelin/contracts/token/ERC20/ERC20.sol\":10273:10280  spender */\n      dup6\n        /* \"@openzeppelin/contracts/token/ERC20/ERC20.sol\":10254:10281  _allowances[owner][spender] */\n      0xffffffffffffffffffffffffffffffffffffffff\n      and\n      0xffffffffffffffffffffffffffffffffffffffff\n      and\n      dup2\n      mstore\n      0x20\n      add\n      swap1\n      dup2\n      mstore\n      0x20\n      add\n      0x00\n      keccak256\n        /* \"@openzeppelin/contracts/token/ERC20/ERC20.sol\":10254:10289  _allowances[owner][spender] = value */\n      dup2\n      swap1\n      sstore\n      pop\n        /* \"@openzeppelin/contracts/token/ERC20/ERC20.sol\":10303:10312  emitEvent */\n      dup1\n        /* \"@openzeppelin/contracts/token/ERC20/ERC20.sol\":10299:10375  if (emitEvent) {... */\n      iszero\n      tag_208\n      jumpi\n        /* \"@openzeppelin/contracts/token/ERC20/ERC20.sol\":10349:10356  spender */\n      dup3\n        /* \"@openzeppelin/contracts/token/ERC20/ERC20.sol\":10333:10364  Approval(owner, spender, value) */\n      0xffffffffffffffffffffffffffffffffffffffff\n      and\n        /* \"@openzeppelin/contracts/token/ERC20/ERC20.sol\":10342:10347  owner */\n      dup5\n        /* \"@openzeppelin/contracts/token/ERC20/ERC20.sol\":10333:10364  Approval(owner, spender, value) */\n      0xffffffffffffffffffffffffffffffffffffffff\n      and\n      0x8c5be1e5ebec7d5bd14f71427d1e84f3dd0314c0f7b2291e5b200ac8c7c3b925\n        /* \"@openzeppelin/contracts/token/ERC20/ERC20.sol\":10358:10363  value */\n      dup5\n        /* \"@openzeppelin/contracts/token/ERC20/ERC20.sol\":10333:10364  Approval(owner, spender, value) */\n      mload(0x40)\n      tag_209\n      swap2\n      swap1\n      tag_37\n      jump\t// in\n    tag_209:\n      mload(0x40)\n      dup1\n      swap2\n      sub\n      swap1\n      log3\n        /* \"@openzeppelin/contracts/token/ERC20/ERC20.sol\":10299:10375  if (emitEvent) {... */\n    tag_208:\n        /* \"@openzeppelin/contracts/token/ERC20/ERC20.sol\":9949:10381  function _approve(address owner, address spender, uint256 value, bool emitEvent) internal virtual {... */\n      pop\n      pop\n      pop\n      pop\n      jump\t// out\n        /* \"@openzeppelin/contracts/token/ERC20/ERC20.sol\":6271:7378  function _update(address from, address to, uint256 value) internal virtual {... */\n    tag_193:\n        /* \"@openzeppelin/contracts/token/ERC20/ERC20.sol\":6376:6377  0 */\n      0x00\n        /* \"@openzeppelin/contracts/token/ERC20/ERC20.sol\":6360:6378  from == address(0) */\n      0xffffffffffffffffffffffffffffffffffffffff\n      and\n        /* \"@openzeppelin/contracts/token/ERC20/ERC20.sol\":6360:6364  from */\n      dup4\n        /* \"@openzeppelin/contracts/token/ERC20/ERC20.sol\":6360:6378  from == address(0) */\n      0xffffffffffffffffffffffffffffffffffffffff\n      and\n      sub\n        /* \"@openzeppelin/contracts/token/ERC20/ERC20.sol\":6356:6896  if (from == address(0)) {... */\n      tag_211\n      jumpi\n        /* \"@openzeppelin/contracts/token/ERC20/ERC20.sol\":6512:6517  value */\n      dup1\n        /* \"@openzeppelin/contracts/token/ERC20/ERC20.sol\":6496:6508  _totalSupply */\n      0x02\n      0x00\n        /* \"@openzeppelin/contracts/token/ERC20/ERC20.sol\":6496:6517  _totalSupply += value */\n      dup3\n      dup3\n      sload\n      tag_212\n      swap2\n      swap1\n      tag_213\n      jump\t// in\n    tag_212:\n      swap3\n      pop\n      pop\n      dup2\n      swap1\n      sstore\n      pop\n        /* \"@openzeppelin/contracts/token/ERC20/ERC20.sol\":6356:6896  if (from == address(0)) {... */\n      jump(tag_214)\n    tag_211:\n        /* \"@openzeppelin/contracts/token/ERC20/ERC20.sol\":6548:6567  uint256 fromBalance */\n      0x00\n        /* \"@openzeppelin/contracts/token/ERC20/ERC20.sol\":6570:6579  _balances */\n      dup1\n        /* \"@openzeppelin/contracts/token/ERC20/ERC20.sol\":6570:6585  _balances[from] */\n      0x00\n        /* \"@openzeppelin/contracts/token/ERC20/ERC20.sol\":6580:6584  from */\n      dup6\n        /* \"@openzeppelin/contracts/token/ERC20/ERC20.sol\":6570:6585  _balances[from] */\n      0xffffffffffffffffffffffffffffffffffffffff\n      and\n      0xffffffffffffffffffffffffffffffffffffffff\n      and\n      dup2\n      mstore\n      0x20\n      add\n      swap1\n      dup2\n      mstore\n      0x20\n      add\n      0x00\n      keccak256\n      sload\n        /* \"@openzeppelin/contracts/token/ERC20/ERC20.sol\":6548:6585  uint256 fromBalance = _balances[from] */\n      swap1\n      pop\n        /* \"@openzeppelin/contracts/token/ERC20/ERC20.sol\":6617:6622  value */\n      dup2\n        /* \"@openzeppelin/contracts/token/ERC20/ERC20.sol\":6603:6614  fromBalance */\n      dup2\n        /* \"@openzeppelin/contracts/token/ERC20/ERC20.sol\":6603:6622  fromBalance < value */\n      lt\n        /* \"@openzeppelin/contracts/token/ERC20/ERC20.sol\":6599:6714  if (fromBalance < value) {... */\n      iszero\n      tag_215\n      jumpi\n        /* \"@openzeppelin/contracts/token/ERC20/ERC20.sol\":6674:6678  from */\n      dup4\n        /* \"@openzeppelin/contracts/token/ERC20/ERC20.sol\":6680:6691  fromBalance */\n      dup2\n        /* \"@openzeppelin/contracts/token/ERC20/ERC20.sol\":6693:6698  value */\n      dup4\n        /* \"@openzeppelin/contracts/token/ERC20/ERC20.sol\":6649:6699  ERC20InsufficientBalance(from, fromBalance, value) */\n      mload(0x40)\n      0xe450d38c00000000000000000000000000000000000000000000000000000000\n      dup2\n      mstore\n      0x04\n      add\n      tag_216\n      swap4\n      swap3\n      swap2\n      swap1\n      tag_185\n      jump\t// in\n    tag_216:\n      mload(0x40)\n      dup1\n      swap2\n      sub\n      swap1\n      revert\n        /* \"@openzeppelin/contracts/token/ERC20/ERC20.sol\":6599:6714  if (fromBalance < value) {... */\n    tag_215:\n        /* \"@openzeppelin/contracts/token/ERC20/ERC20.sol\":6866:6871  value */\n      dup2\n        /* \"@openzeppelin/contracts/token/ERC20/ERC20.sol\":6852:6863  fromBalance */\n      dup2\n        /* \"@openzeppelin/contracts/token/ERC20/ERC20.sol\":6852:6871  fromBalance - value */\n      sub\n        /* \"@openzeppelin/contracts/token/ERC20/ERC20.sol\":6834:6843  _balances */\n      0x00\n        /* \"@openzeppelin/contracts/token/ERC20/ERC20.sol\":6834:6849  _balances[from] */\n      dup1\n        /* \"@openzeppelin/contracts/token/ERC20/ERC20.sol\":6844:6848  from */\n      dup7\n        /* \"@openzeppelin/contracts/token/ERC20/ERC20.sol\":6834:6849  _balances[from] */\n      0xffffffffffffffffffffffffffffffffffffffff\n      and\n      0xffffffffffffffffffffffffffffffffffffffff\n      and\n      dup2\n      mstore\n      0x20\n      add\n      swap1\n      dup2\n      mstore\n      0x20\n      add\n      0x00\n      keccak256\n        /* \"@openzeppelin/contracts/token/ERC20/ERC20.sol\":6834:6871  _balances[from] = fromBalance - value */\n      dup2\n      swap1\n      sstore\n      pop\n        /* \"@openzeppelin/contracts/token/ERC20/ERC20.sol\":6534:6896  {... */\n      pop\n        /* \"@openzeppelin/contracts/token/ERC20/ERC20.sol\":6356:6896  if (from == address(0)) {... */\n    tag_214:\n        /* \"@openzeppelin/contracts/token/ERC20/ERC20.sol\":6924:6925  0 */\n      0x00\n        /* \"@openzeppelin/contracts/token/ERC20/ERC20.sol\":6910:6926  to == address(0) */\n      0xffffffffffffffffffffffffffffffffffffffff\n      and\n        /* \"@openzeppelin/contracts/token/ERC20/ERC20.sol\":6910:6912  to */\n      dup3\n        /* \"@openzeppelin/contracts/token/ERC20/ERC20.sol\":6910:6926  to == address(0) */\n      0xffffffffffffffffffffffffffffffffffffffff\n      and\n      sub\n        /* \"@openzeppelin/contracts/token/ERC20/ERC20.sol\":6906:7331  if (to == address(0)) {... */\n      tag_217\n      jumpi\n        /* \"@openzeppelin/contracts/token/ERC20/ERC20.sol\":7089:7094  value */\n      dup1\n        /* \"@openzeppelin/contracts/token/ERC20/ERC20.sol\":7073:7085  _totalSupply */\n      0x02\n      0x00\n        /* \"@openzeppelin/contracts/token/ERC20/ERC20.sol\":7073:7094  _totalSupply -= value */\n      dup3\n      dup3\n      sload\n      sub\n      swap3\n      pop\n      pop\n      dup2\n      swap1\n      sstore\n      pop\n        /* \"@openzeppelin/contracts/token/ERC20/ERC20.sol\":6906:7331  if (to == address(0)) {... */\n      jump(tag_218)\n    tag_217:\n        /* \"@openzeppelin/contracts/token/ERC20/ERC20.sol\":7301:7306  value */\n      dup1\n        /* \"@openzeppelin/contracts/token/ERC20/ERC20.sol\":7284:7293  _balances */\n      0x00\n        /* \"@openzeppelin/contracts/token/ERC20/ERC20.sol\":7284:7297  _balances[to] */\n      dup1\n        /* \"@openzeppelin/contracts/token/ERC20/ERC20.sol\":7294:7296  to */\n      dup5\n        /* \"@openzeppelin/contracts/token/ERC20/ERC20.sol\":7284:7297  _balances[to] */\n      0xffffffffffffffffffffffffffffffffffffffff\n      and\n      0xffffffffffffffffffffffffffffffffffffffff\n      and\n      dup2\n      mstore\n      0x20\n      add\n      swap1\n      dup2\n      mstore\n      0x20\n      add\n      0x00\n      keccak256\n      0x00\n        /* \"@openzeppelin/contracts/token/ERC20/ERC20.sol\":7284:7306  _balances[to] += value */\n      dup3\n      dup3\n      sload\n      add\n      swap3\n      pop\n      pop\n      dup2\n      swap1\n      sstore\n      pop\n        /* \"@openzeppelin/contracts/token/ERC20/ERC20.sol\":6906:7331  if (to == address(0)) {... */\n    tag_218:\n        /* \"@openzeppelin/contracts/token/ERC20/ERC20.sol\":7361:7363  to */\n      dup2\n        /* \"@openzeppelin/contracts/token/ERC20/ERC20.sol\":7346:7371  Transfer(from, to, value) */\n      0xffffffffffffffffffffffffffffffffffffffff\n      and\n        /* \"@openzeppelin/contracts/token/ERC20/ERC20.sol\":7355:7359  from */\n      dup4\n        /* \"@openzeppelin/contracts/token/ERC20/ERC20.sol\":7346:7371  Transfer(from, to, value) */\n      0xffffffffffffffffffffffffffffffffffffffff\n      and\n      0xddf252ad1be2c89b69c2b068fc378daa952ba7f163c4a11628f55a4df523b3ef\n        /* \"@openzeppelin/contracts/token/ERC20/ERC20.sol\":7365:7370  value */\n      dup4\n        /* \"@openzeppelin/contracts/token/ERC20/ERC20.sol\":7346:7371  Transfer(from, to, value) */\n      mload(0x40)\n      tag_219\n      swap2\n      swap1\n      tag_37\n      jump\t// in\n    tag_219:\n      mload(0x40)\n      dup1\n      swap2\n      sub\n      swap1\n      log3\n        /* \"@openzeppelin/contracts/token/ERC20/ERC20.sol\":6271:7378  function _update(address from, address to, uint256 value) internal virtual {... */\n      pop\n      pop\n      pop\n      jump\t// out\n        /* \"#utility.yul\":7:106   */\n    tag_220:\n        /* \"#utility.yul\":59:65   */\n      0x00\n        /* \"#utility.yul\":93:98   */\n      dup2\n        /* \"#utility.yul\":87:99   */\n      mload\n        /* \"#utility.yul\":77:99   */\n      swap1\n      pop\n        /* \"#utility.yul\":7:106   */\n      swap2\n      swap1\n      pop\n      jump\t// out\n        /* \"#utility.yul\":112:281   */\n    tag_221:\n        /* \"#utility.yul\":196:207   */\n      0x00\n        /* \"#utility.yul\":230:236   */\n      dup3\n        /* \"#utility.yul\":225:228   */\n      dup3\n        /* \"#utility.yul\":218:237   */\n      mstore\n        /* \"#utility.yul\":270:274   */\n      0x20\n        /* \"#utility.yul\":265:268   */\n      dup3\n        /* \"#utility.yul\":261:275   */\n      add\n        /* \"#utility.yul\":246:275   */\n      swap1\n      pop\n        /* \"#utility.yul\":112:281   */\n      swap3\n      swap2\n      pop\n      pop\n      jump\t// out\n        /* \"#utility.yul\":287:426   */\n    tag_222:\n        /* \"#utility.yul\":376:382   */\n      dup3\n        /* \"#utility.yul\":371:374   */\n      dup2\n        /* \"#utility.yul\":366:369   */\n      dup4\n        /* \"#utility.yul\":360:383   */\n      mcopy\n        /* \"#utility.yul\":417:418   */\n      0x00\n        /* \"#utility.yul\":408:414   */\n      dup4\n        /* \"#utility.yul\":403:406   */\n      dup4\n        /* \"#utility.yul\":399:415   */\n      add\n        /* \"#utility.yul\":392:419   */\n      mstore\n        /* \"#utility.yul\":287:426   */\n      pop\n      pop\n      pop\n      jump\t// out\n        /* \"#utility.yul\":432:534   */\n    tag_223:\n        /* \"#utility.yul\":473:479   */\n      0x00\n        /* \"#utility.yul\":524:526   */\n      0x1f\n        /* \"#utility.yul\":520:527   */\n      not\n        /* \"#utility.yul\":515:517   */\n      0x1f\n        /* \"#utility.yul\":508:513   */\n      dup4\n        /* \"#utility.yul\":504:518   */\n      add\n        /* \"#utility.yul\":500:528   */\n      and\n        /* \"#utility.yul\":490:528   */\n      swap1\n      pop\n        /* \"#utility.yul\":432:534   */\n      swap2\n      swap1\n      pop\n      jump\t// out\n        /* \"#utility.yul\":540:917   */\n    tag_224:\n        /* \"#utility.yul\":628:631   */\n      0x00\n        /* \"#utility.yul\":656:695   */\n      tag_268\n        /* \"#utility.yul\":689:694   */\n      dup3\n        /* \"#utility.yul\":656:695   */\n      tag_220\n      jump\t// in\n    tag_268:\n        /* \"#utility.yul\":711:782   */\n      tag_269\n        /* \"#utility.yul\":775:781   */\n      dup2\n        /* \"#utility.yul\":770:773   */\n      dup6\n        /* \"#utility.yul\":711:782   */\n      tag_221\n      jump\t// in\n    tag_269:\n        /* \"#utility.yul\":704:782   */\n      swap4\n      pop\n        /* \"#utility.yul\":791:856   */\n      tag_270\n        /* \"#utility.yul\":849:855   */\n      dup2\n        /* \"#utility.yul\":844:847   */\n      dup6\n        /* \"#utility.yul\":837:841   */\n      0x20\n        /* \"#utility.yul\":830:835   */\n      dup7\n        /* \"#utility.yul\":826:842   */\n      add\n        /* \"#utility.yul\":791:856   */\n      tag_222\n      jump\t// in\n    tag_270:\n        /* \"#utility.yul\":881:910   */\n      tag_271\n        /* \"#utility.yul\":903:909   */\n      dup2\n        /* \"#utility.yul\":881:910   */\n      tag_223\n      jump\t// in\n    tag_271:\n        /* \"#utility.yul\":876:879   */\n      dup5\n        /* \"#utility.yul\":872:911   */\n      add\n        /* \"#utility.yul\":865:911   */\n      swap2\n      pop\n        /* \"#utility.yul\":632:917   */\n      pop\n        /* \"#utility.yul\":540:917   */\n      swap3\n      swap2\n      pop\n      pop\n      jump\t// out\n        /* \"#utility.yul\":923:1236   */\n    tag_27:\n        /* \"#utility.yul\":1036:1040   */\n      0x00\n        /* \"#utility.yul\":1074:1076   */\n      0x20\n        /* \"#utility.yul\":1063:1072   */\n      dup3\n        /* \"#utility.yul\":1059:1077   */\n      add\n        /* \"#utility.yul\":1051:1077   */\n      swap1\n      pop\n        /* \"#utility.yul\":1123:1132   */\n      dup2\n        /* \"#utility.yul\":1117:1121   */\n      dup2\n        /* \"#utility.yul\":1113:1133   */\n      sub\n        /* \"#utility.yul\":1109:1110   */\n      0x00\n        /* \"#utility.yul\":1098:1107   */\n      dup4\n        /* \"#utility.yul\":1094:1111   */\n      add\n        /* \"#utility.yul\":1087:1134   */\n      mstore\n        /* \"#utility.yul\":1151:1229   */\n      tag_273\n        /* \"#utility.yul\":1224:1228   */\n      dup2\n        /* \"#utility.yul\":1215:1221   */\n      dup5\n        /* \"#utility.yul\":1151:1229   */\n      tag_224\n      jump\t// in\n    tag_273:\n        /* \"#utility.yul\":1143:1229   */\n      swap1\n      pop\n        /* \"#utility.yul\":923:1236   */\n      swap3\n      swap2\n      pop\n      pop\n      jump\t// out\n        /* \"#utility.yul\":1323:1440   */\n    tag_226:\n        /* \"#utility.yul\":1432:1433   */\n      0x00\n        /* \"#utility.yul\":1429:1430   */\n      dup1\n        /* \"#utility.yul\":1422:1434   */\n      revert\n        /* \"#utility.yul\":1569:1695   */\n    tag_228:\n        /* \"#utility.yul\":1606:1613   */\n      0x00\n        /* \"#utility.yul\":1646:1688   */\n      0xffffffffffffffffffffffffffffffffffffffff\n        /* \"#utility.yul\":1639:1644   */\n      dup3\n        /* \"#utility.yul\":1635:1689   */\n      and\n        /* \"#utility.yul\":1624:1689   */\n      swap1\n      pop\n        /* \"#utility.yul\":1569:1695   */\n      swap2\n      swap1\n      pop\n      jump\t// out\n        /* \"#utility.yul\":1701:1797   */\n    tag_229:\n        /* \"#utility.yul\":1738:1745   */\n      0x00\n        /* \"#utility.yul\":1767:1791   */\n      tag_279\n        /* \"#utility.yul\":1785:1790   */\n      dup3\n        /* \"#utility.yul\":1767:1791   */\n      tag_228\n      jump\t// in\n    tag_279:\n        /* \"#utility.yul\":1756:1791   */\n      swap1\n      pop\n        /* \"#utility.yul\":1701:1797   */\n      swap2\n      swap1\n      pop\n      jump\t// out\n        /* \"#utility.yul\":1803:1925   */\n    tag_230:\n        /* \"#utility.yul\":1876:1900   */\n      tag_281\n        /* \"#utility.yul\":1894:1899   */\n      dup2\n        /* \"#utility.yul\":1876:1900   */\n      tag_229\n      jump\t// in\n    tag_281:\n        /* \"#utility.yul\":1869:1874   */\n      dup2\n        /* \"#utility.yul\":1866:1901   */\n      eq\n        /* \"#utility.yul\":1856:1919   */\n      tag_282\n      jumpi\n        /* \"#utility.yul\":1915:1916   */\n      0x00\n        /* \"#utility.yul\":1912:1913   */\n      dup1\n        /* \"#utility.yul\":1905:1917   */\n      revert\n        /* \"#utility.yul\":1856:1919   */\n    tag_282:\n        /* \"#utility.yul\":1803:1925   */\n      pop\n      jump\t// out\n        /* \"#utility.yul\":1931:2070   */\n    tag_231:\n        /* \"#utility.yul\":1977:1982   */\n      0x00\n        /* \"#utility.yul\":2015:2021   */\n      dup2\n        /* \"#utility.yul\":2002:2022   */\n      calldataload\n        /* \"#utility.yul\":1993:2022   */\n      swap1\n      pop\n        /* \"#utility.yul\":2031:2064   */\n      tag_284\n        /* \"#utility.yul\":2058:2063   */\n      dup2\n        /* \"#utility.yul\":2031:2064   */\n      tag_230\n      jump\t// in\n    tag_284:\n        /* \"#utility.yul\":1931:2070   */\n      swap3\n      swap2\n      pop\n      pop\n      jump\t// out\n        /* \"#utility.yul\":2076:2153   */\n    tag_232:\n        /* \"#utility.yul\":2113:2120   */\n      0x00\n        /* \"#utility.yul\":2142:2147   */\n      dup2\n        /* \"#utility.yul\":2131:2147   */\n      swap1\n      pop\n        /* \"#utility.yul\":2076:2153   */\n      swap2\n      swap1\n      pop\n      jump\t// out\n        /* \"#utility.yul\":2159:2281   */\n    tag_233:\n        /* \"#utility.yul\":2232:2256   */\n      tag_287\n        /* \"#utility.yul\":2250:2255   */\n      dup2\n        /* \"#utility.yul\":2232:2256   */\n      tag_232\n      jump\t// in\n    tag_287:\n        /* \"#utility.yul\":2225:2230   */\n      dup2\n        /* \"#utility.yul\":2222:2257   */\n      eq\n        /* \"#utility.yul\":2212:2275   */\n      tag_288\n      jumpi\n        /* \"#utility.yul\":2271:2272   */\n      0x00\n        /* \"#utility.yul\":2268:2269   */\n      dup1\n        /* \"#utility.yul\":2261:2273   */\n      revert\n        /* \"#utility.yul\":2212:2275   */\n    tag_288:\n        /* \"#utility.yul\":2159:2281   */\n      pop\n      jump\t// out\n        /* \"#utility.yul\":2287:2426   */\n    tag_234:\n        /* \"#utility.yul\":2333:2338   */\n      0x00\n        /* \"#utility.yul\":2371:2377   */\n      dup2\n        /* \"#utility.yul\":2358:2378   */\n      calldataload\n        /* \"#utility.yul\":2349:2378   */\n      swap1\n      pop\n        /* \"#utility.yul\":2387:2420   */\n      tag_290\n        /* \"#utility.yul\":2414:2419   */\n      dup2\n        /* \"#utility.yul\":2387:2420   */\n      tag_233\n      jump\t// in\n    tag_290:\n        /* \"#utility.yul\":2287:2426   */\n      swap3\n      swap2\n      pop\n      pop\n      jump\t// out\n        /* \"#utility.yul\":2432:2906   */\n    tag_30:\n        /* \"#utility.yul\":2500:2506   */\n      0x00\n        /* \"#utility.yul\":2508:2514   */\n      dup1\n        /* \"#utility.yul\":2557:2559   */\n      0x40\n        /* \"#utility.yul\":2545:2554   */\n      dup4\n        /* \"#utility.yul\":2536:2543   */\n      dup6\n        /* \"#utility.yul\":2532:2555   */\n      sub\n        /* \"#utility.yul\":2528:2560   */\n      slt\n        /* \"#utility.yul\":2525:2644   */\n      iszero\n      tag_292\n      jumpi\n        /* \"#utility.yul\":2563:2642   */\n      tag_293\n      tag_226\n      jump\t// in\n    tag_293:\n        /* \"#utility.yul\":2525:2644   */\n    tag_292:\n        /* \"#utility.yul\":2683:2684   */\n      0x00\n        /* \"#utility.yul\":2708:2761   */\n      tag_294\n        /* \"#utility.yul\":2753:2760   */\n      dup6\n        /* \"#utility.yul\":2744:2750   */\n      dup3\n        /* \"#utility.yul\":2733:2742   */\n      dup7\n        /* \"#utility.yul\":2729:2751   */\n      add\n        /* \"#utility.yul\":2708:2761   */\n      tag_231\n      jump\t// in\n    tag_294:\n        /* \"#utility.yul\":2698:2761   */\n      swap3\n      pop\n        /* \"#utility.yul\":2654:2771   */\n      pop\n        /* \"#utility.yul\":2810:2812   */\n      0x20\n        /* \"#utility.yul\":2836:2889   */\n      tag_295\n        /* \"#utility.yul\":2881:2888   */\n      dup6\n        /* \"#utility.yul\":2872:2878   */\n      dup3\n        /* \"#utility.yul\":2861:2870   */\n      dup7\n        /* \"#utility.yul\":2857:2879   */\n      add\n        /* \"#utility.yul\":2836:2889   */\n      tag_234\n      jump\t// in\n    tag_295:\n        /* \"#utility.yul\":2826:2889   */\n      swap2\n      pop\n        /* \"#utility.yul\":2781:2899   */\n      pop\n        /* \"#utility.yul\":2432:2906   */\n      swap3\n      pop\n      swap3\n      swap1\n      pop\n      jump\t// out\n        /* \"#utility.yul\":2912:3002   */\n    tag_235:\n        /* \"#utility.yul\":2946:2953   */\n      0x00\n        /* \"#utility.yul\":2989:2994   */\n      dup2\n        /* \"#utility.yul\":2982:2995   */\n      iszero\n        /* \"#utility.yul\":2975:2996   */\n      iszero\n        /* \"#utility.yul\":2964:2996   */\n      swap1\n      pop\n        /* \"#utility.yul\":2912:3002   */\n      swap2\n      swap1\n      pop\n      jump\t// out\n        /* \"#utility.yul\":3008:3117   */\n    tag_236:\n        /* \"#utility.yul\":3089:3110   */\n      tag_298\n        /* \"#utility.yul\":3104:3109   */\n      dup2\n        /* \"#utility.yul\":3089:3110   */\n      tag_235\n      jump\t// in\n    tag_298:\n        /* \"#utility.yul\":3084:3087   */\n      dup3\n        /* \"#utility.yul\":3077:3111   */\n      mstore\n        /* \"#utility.yul\":3008:3117   */\n      pop\n      pop\n      jump\t// out\n        /* \"#utility.yul\":3123:3333   */\n    tag_33:\n        /* \"#utility.yul\":3210:3214   */\n      0x00\n        /* \"#utility.yul\":3248:3250   */\n      0x20\n        /* \"#utility.yul\":3237:3246   */\n      dup3\n        /* \"#utility.yul\":3233:3251   */\n      add\n        /* \"#utility.yul\":3225:3251   */\n      swap1\n      pop\n        /* \"#utility.yul\":3261:3326   */\n      tag_300\n        /* \"#utility.yul\":3323:3324   */\n      0x00\n        /* \"#utility.yul\":3312:3321   */\n      dup4\n        /* \"#utility.yul\":3308:3325   */\n      add\n        /* \"#utility.yul\":3299:3305   */\n      dup5\n        /* \"#utility.yul\":3261:3326   */\n      tag_236\n      jump\t// in\n    tag_300:\n        /* \"#utility.yul\":3123:3333   */\n      swap3\n      swap2\n      pop\n      pop\n      jump\t// out\n        /* \"#utility.yul\":3339:3457   */\n    tag_237:\n        /* \"#utility.yul\":3426:3450   */\n      tag_302\n        /* \"#utility.yul\":3444:3449   */\n      dup2\n        /* \"#utility.yul\":3426:3450   */\n      tag_232\n      jump\t// in\n    tag_302:\n        /* \"#utility.yul\":3421:3424   */\n      dup3\n        /* \"#utility.yul\":3414:3451   */\n      mstore\n        /* \"#utility.yul\":3339:3457   */\n      pop\n      pop\n      jump\t// out\n        /* \"#utility.yul\":3463:3685   */\n    tag_37:\n        /* \"#utility.yul\":3556:3560   */\n      0x00\n        /* \"#utility.yul\":3594:3596   */\n      0x20\n        /* \"#utility.yul\":3583:3592   */\n      dup3\n        /* \"#utility.yul\":3579:3597   */\n      add\n        /* \"#utility.yul\":3571:3597   */\n      swap1\n      pop\n        /* \"#utility.yul\":3607:3678   */\n      tag_304\n        /* \"#utility.yul\":3675:3676   */\n      0x00\n        /* \"#utility.yul\":3664:3673   */\n      dup4\n        /* \"#utility.yul\":3660:3677   */\n      add\n        /* \"#utility.yul\":3651:3657   */\n      dup5\n        /* \"#utility.yul\":3607:3678   */\n      tag_237\n      jump\t// in\n    tag_304:\n        /* \"#utility.yul\":3463:3685   */\n      swap3\n      swap2\n      pop\n      pop\n      jump\t// out\n        /* \"#utility.yul\":3691:4310   */\n    tag_43:\n        /* \"#utility.yul\":3768:3774   */\n      0x00\n        /* \"#utility.yul\":3776:3782   */\n      dup1\n        /* \"#utility.yul\":3784:3790   */\n      0x00\n        /* \"#utility.yul\":3833:3835   */\n      0x60\n        /* \"#utility.yul\":3821:3830   */\n      dup5\n        /* \"#utility.yul\":3812:3819   */\n      dup7\n        /* \"#utility.yul\":3808:3831   */\n      sub\n        /* \"#utility.yul\":3804:3836   */\n      slt\n        /* \"#utility.yul\":3801:3920   */\n      iszero\n      tag_306\n      jumpi\n        /* \"#utility.yul\":3839:3918   */\n      tag_307\n      tag_226\n      jump\t// in\n    tag_307:\n        /* \"#utility.yul\":3801:3920   */\n    tag_306:\n        /* \"#utility.yul\":3959:3960   */\n      0x00\n        /* \"#utility.yul\":3984:4037   */\n      tag_308\n        /* \"#utility.yul\":4029:4036   */\n      dup7\n        /* \"#utility.yul\":4020:4026   */\n      dup3\n        /* \"#utility.yul\":4009:4018   */\n      dup8\n        /* \"#utility.yul\":4005:4027   */\n      add\n        /* \"#utility.yul\":3984:4037   */\n      tag_231\n      jump\t// in\n    tag_308:\n        /* \"#utility.yul\":3974:4037   */\n      swap4\n      pop\n        /* \"#utility.yul\":3930:4047   */\n      pop\n        /* \"#utility.yul\":4086:4088   */\n      0x20\n        /* \"#utility.yul\":4112:4165   */\n      tag_309\n        /* \"#utility.yul\":4157:4164   */\n      dup7\n        /* \"#utility.yul\":4148:4154   */\n      dup3\n        /* \"#utility.yul\":4137:4146   */\n      dup8\n        /* \"#utility.yul\":4133:4155   */\n      add\n        /* \"#utility.yul\":4112:4165   */\n      tag_231\n      jump\t// in\n    tag_309:\n        /* \"#utility.yul\":4102:4165   */\n      swap3\n      pop\n        /* \"#utility.yul\":4057:4175   */\n      pop\n        /* \"#utility.yul\":4214:4216   */\n      0x40\n        /* \"#utility.yul\":4240:4293   */\n      tag_310\n        /* \"#utility.yul\":4285:4292   */\n      dup7\n        /* \"#utility.yul\":4276:4282   */\n      dup3\n        /* \"#utility.yul\":4265:4274   */\n      dup8\n        /* \"#utility.yul\":4261:4283   */\n      add\n        /* \"#utility.yul\":4240:4293   */\n      tag_234\n      jump\t// in\n    tag_310:\n        /* \"#utility.yul\":4230:4293   */\n      swap2\n      pop\n        /* \"#utility.yul\":4185:4303   */\n      pop\n        /* \"#utility.yul\":3691:4310   */\n      swap3\n      pop\n      swap3\n      pop\n      swap3\n      jump\t// out\n        /* \"#utility.yul\":4316:4645   */\n    tag_48:\n        /* \"#utility.yul\":4375:4381   */\n      0x00\n        /* \"#utility.yul\":4424:4426   */\n      0x20\n        /* \"#utility.yul\":4412:4421   */\n      dup3\n        /* \"#utility.yul\":4403:4410   */\n      dup5\n        /* \"#utility.yul\":4399:4422   */\n      sub\n        /* \"#utility.yul\":4395:4427   */\n      slt\n        /* \"#utility.yul\":4392:4511   */\n      iszero\n      tag_312\n      jumpi\n        /* \"#utility.yul\":4430:4509   */\n      tag_313\n      tag_226\n      jump\t// in\n    tag_313:\n        /* \"#utility.yul\":4392:4511   */\n    tag_312:\n        /* \"#utility.yul\":4550:4551   */\n      0x00\n        /* \"#utility.yul\":4575:4628   */\n      tag_314\n        /* \"#utility.yul\":4620:4627   */\n      dup5\n        /* \"#utility.yul\":4611:4617   */\n      dup3\n        /* \"#utility.yul\":4600:4609   */\n      dup6\n        /* \"#utility.yul\":4596:4618   */\n      add\n        /* \"#utility.yul\":4575:4628   */\n      tag_234\n      jump\t// in\n    tag_314:\n        /* \"#utility.yul\":4565:4628   */\n      swap2\n      pop\n        /* \"#utility.yul\":4521:4638   */\n      pop\n        /* \"#utility.yul\":4316:4645   */\n      swap3\n      swap2\n      pop\n      pop\n      jump\t// out\n        /* \"#utility.yul\":4651:4737   */\n    tag_238:\n        /* \"#utility.yul\":4686:4693   */\n      0x00\n        /* \"#utility.yul\":4726:4730   */\n      0xff\n        /* \"#utility.yul\":4719:4724   */\n      dup3\n        /* \"#utility.yul\":4715:4731   */\n      and\n        /* \"#utility.yul\":4704:4731   */\n      swap1\n      pop\n        /* \"#utility.yul\":4651:4737   */\n      swap2\n      swap1\n      pop\n      jump\t// out\n        /* \"#utility.yul\":4743:4855   */\n    tag_239:\n        /* \"#utility.yul\":4826:4848   */\n      tag_317\n        /* \"#utility.yul\":4842:4847   */\n      dup2\n        /* \"#utility.yul\":4826:4848   */\n      tag_238\n      jump\t// in\n    tag_317:\n        /* \"#utility.yul\":4821:4824   */\n      dup3\n        /* \"#utility.yul\":4814:4849   */\n      mstore\n        /* \"#utility.yul\":4743:4855   */\n      pop\n      pop\n      jump\t// out\n        /* \"#utility.yul\":4861:5075   */\n    tag_53:\n        /* \"#utility.yul\":4950:4954   */\n      0x00\n        /* \"#utility.yul\":4988:4990   */\n      0x20\n        /* \"#utility.yul\":4977:4986   */\n      dup3\n        /* \"#utility.yul\":4973:4991   */\n      add\n        /* \"#utility.yul\":4965:4991   */\n      swap1\n      pop\n        /* \"#utility.yul\":5001:5068   */\n      tag_319\n        /* \"#utility.yul\":5065:5066   */\n      0x00\n        /* \"#utility.yul\":5054:5063   */\n      dup4\n        /* \"#utility.yul\":5050:5067   */\n      add\n        /* \"#utility.yul\":5041:5047   */\n      dup5\n        /* \"#utility.yul\":5001:5068   */\n      tag_239\n      jump\t// in\n    tag_319:\n        /* \"#utility.yul\":4861:5075   */\n      swap3\n      swap2\n      pop\n      pop\n      jump\t// out\n        /* \"#utility.yul\":5081:5410   */\n    tag_58:\n        /* \"#utility.yul\":5140:5146   */\n      0x00\n        /* \"#utility.yul\":5189:5191   */\n      0x20\n        /* \"#utility.yul\":5177:5186   */\n      dup3\n        /* \"#utility.yul\":5168:5175   */\n      dup5\n        /* \"#utility.yul\":5164:5187   */\n      sub\n        /* \"#utility.yul\":5160:5192   */\n      slt\n        /* \"#utility.yul\":5157:5276   */\n      iszero\n      tag_321\n      jumpi\n        /* \"#utility.yul\":5195:5274   */\n      tag_322\n      tag_226\n      jump\t// in\n    tag_322:\n        /* \"#utility.yul\":5157:5276   */\n    tag_321:\n        /* \"#utility.yul\":5315:5316   */\n      0x00\n        /* \"#utility.yul\":5340:5393   */\n      tag_323\n        /* \"#utility.yul\":5385:5392   */\n      dup5\n        /* \"#utility.yul\":5376:5382   */\n      dup3\n        /* \"#utility.yul\":5365:5374   */\n      dup6\n        /* \"#utility.yul\":5361:5383   */\n      add\n        /* \"#utility.yul\":5340:5393   */\n      tag_231\n      jump\t// in\n    tag_323:\n        /* \"#utility.yul\":5330:5393   */\n      swap2\n      pop\n        /* \"#utility.yul\":5286:5403   */\n      pop\n        /* \"#utility.yul\":5081:5410   */\n      swap3\n      swap2\n      pop\n      pop\n      jump\t// out\n        /* \"#utility.yul\":5416:5534   */\n    tag_240:\n        /* \"#utility.yul\":5503:5527   */\n      tag_325\n        /* \"#utility.yul\":5521:5526   */\n      dup2\n        /* \"#utility.yul\":5503:5527   */\n      tag_229\n      jump\t// in\n    tag_325:\n        /* \"#utility.yul\":5498:5501   */\n      dup3\n        /* \"#utility.yul\":5491:5528   */\n      mstore\n        /* \"#utility.yul\":5416:5534   */\n      pop\n      pop\n      jump\t// out\n        /* \"#utility.yul\":5540:5762   */\n    tag_72:\n        /* \"#utility.yul\":5633:5637   */\n      0x00\n        /* \"#utility.yul\":5671:5673   */\n      0x20\n        /* \"#utility.yul\":5660:5669   */\n      dup3\n        /* \"#utility.yul\":5656:5674   */\n      add\n        /* \"#utility.yul\":5648:5674   */\n      swap1\n      pop\n        /* \"#utility.yul\":5684:5755   */\n      tag_327\n        /* \"#utility.yul\":5752:5753   */\n      0x00\n        /* \"#utility.yul\":5741:5750   */\n      dup4\n        /* \"#utility.yul\":5737:5754   */\n      add\n        /* \"#utility.yul\":5728:5734   */\n      dup5\n        /* \"#utility.yul\":5684:5755   */\n      tag_240\n      jump\t// in\n    tag_327:\n        /* \"#utility.yul\":5540:5762   */\n      swap3\n      swap2\n      pop\n      pop\n      jump\t// out\n        /* \"#utility.yul\":5768:6420   */\n    tag_86:\n        /* \"#utility.yul\":5967:5971   */\n      0x00\n        /* \"#utility.yul\":6005:6008   */\n      0xa0\n        /* \"#utility.yul\":5994:6003   */\n      dup3\n        /* \"#utility.yul\":5990:6009   */\n      add\n        /* \"#utility.yul\":5982:6009   */\n      swap1\n      pop\n        /* \"#utility.yul\":6019:6090   */\n      tag_329\n        /* \"#utility.yul\":6087:6088   */\n      0x00\n        /* \"#utility.yul\":6076:6085   */\n      dup4\n        /* \"#utility.yul\":6072:6089   */\n      add\n        /* \"#utility.yul\":6063:6069   */\n      dup9\n        /* \"#utility.yul\":6019:6090   */\n      tag_240\n      jump\t// in\n    tag_329:\n        /* \"#utility.yul\":6100:6172   */\n      tag_330\n        /* \"#utility.yul\":6168:6170   */\n      0x20\n        /* \"#utility.yul\":6157:6166   */\n      dup4\n        /* \"#utility.yul\":6153:6171   */\n      add\n        /* \"#utility.yul\":6144:6150   */\n      dup8\n        /* \"#utility.yul\":6100:6172   */\n      tag_240\n      jump\t// in\n    tag_330:\n        /* \"#utility.yul\":6182:6254   */\n      tag_331\n        /* \"#utility.yul\":6250:6252   */\n      0x40\n        /* \"#utility.yul\":6239:6248   */\n      dup4\n        /* \"#utility.yul\":6235:6253   */\n      add\n        /* \"#utility.yul\":6226:6232   */\n      dup7\n        /* \"#utility.yul\":6182:6254   */\n      tag_237\n      jump\t// in\n    tag_331:\n        /* \"#utility.yul\":6264:6336   */\n      tag_332\n        /* \"#utility.yul\":6332:6334   */\n      0x60\n        /* \"#utility.yul\":6321:6330   */\n      dup4\n        /* \"#utility.yul\":6317:6335   */\n      add\n        /* \"#utility.yul\":6308:6314   */\n      dup6\n        /* \"#utility.yul\":6264:6336   */\n      tag_237\n      jump\t// in\n    tag_332:\n        /* \"#utility.yul\":6346:6413   */\n      tag_333\n        /* \"#utility.yul\":6408:6411   */\n      0x80\n        /* \"#utility.yul\":6397:6406   */\n      dup4\n        /* \"#utility.yul\":6393:6412   */\n      add\n        /* \"#utility.yul\":6384:6390   */\n      dup5\n        /* \"#utility.yul\":6346:6413   */\n      tag_236\n      jump\t// in\n    tag_333:\n        /* \"#utility.yul\":5768:6420   */\n      swap7\n      swap6\n      pop\n      pop\n      pop\n      pop\n      pop\n      pop\n      jump\t// out\n        /* \"#utility.yul\":6426:6900   */\n    tag_93:\n        /* \"#utility.yul\":6494:6500   */\n      0x00\n        /* \"#utility.yul\":6502:6508   */\n      dup1\n        /* \"#utility.yul\":6551:6553   */\n      0x40\n        /* \"#utility.yul\":6539:6548   */\n      dup4\n        /* \"#utility.yul\":6530:6537   */\n      dup6\n        /* \"#utility.yul\":6526:6549   */\n      sub\n        /* \"#utility.yul\":6522:6554   */\n      slt\n        /* \"#utility.yul\":6519:6638   */\n      iszero\n      tag_335\n      jumpi\n        /* \"#utility.yul\":6557:6636   */\n      tag_336\n      tag_226\n      jump\t// in\n    tag_336:\n        /* \"#utility.yul\":6519:6638   */\n    tag_335:\n        /* \"#utility.yul\":6677:6678   */\n      0x00\n        /* \"#utility.yul\":6702:6755   */\n      tag_337\n        /* \"#utility.yul\":6747:6754   */\n      dup6\n        /* \"#utility.yul\":6738:6744   */\n      dup3\n        /* \"#utility.yul\":6727:6736   */\n      dup7\n        /* \"#utility.yul\":6723:6745   */\n      add\n        /* \"#utility.yul\":6702:6755   */\n      tag_231\n      jump\t// in\n    tag_337:\n        /* \"#utility.yul\":6692:6755   */\n      swap3\n      pop\n        /* \"#utility.yul\":6648:6765   */\n      pop\n        /* \"#utility.yul\":6804:6806   */\n      0x20\n        /* \"#utility.yul\":6830:6883   */\n      tag_338\n        /* \"#utility.yul\":6875:6882   */\n      dup6\n        /* \"#utility.yul\":6866:6872   */\n      dup3\n        /* \"#utility.yul\":6855:6864   */\n      dup7\n        /* \"#utility.yul\":6851:6873   */\n      add\n        /* \"#utility.yul\":6830:6883   */\n      tag_231\n      jump\t// in\n    tag_338:\n        /* \"#utility.yul\":6820:6883   */\n      swap2\n      pop\n        /* \"#utility.yul\":6775:6893   */\n      pop\n        /* \"#utility.yul\":6426:6900   */\n      swap3\n      pop\n      swap3\n      swap1\n      pop\n      jump\t// out\n        /* \"#utility.yul\":6906:7086   */\n    tag_241:\n        /* \"#utility.yul\":6954:7031   */\n      0x4e487b7100000000000000000000000000000000000000000000000000000000\n        /* \"#utility.yul\":6951:6952   */\n      0x00\n        /* \"#utility.yul\":6944:7032   */\n      mstore\n        /* \"#utility.yul\":7051:7055   */\n      0x22\n        /* \"#utility.yul\":7048:7049   */\n      0x04\n        /* \"#utility.yul\":7041:7056   */\n      mstore\n        /* \"#utility.yul\":7075:7079   */\n      0x24\n        /* \"#utility.yul\":7072:7073   */\n      0x00\n        /* \"#utility.yul\":7065:7080   */\n      revert\n        /* \"#utility.yul\":7092:7412   */\n    tag_98:\n        /* \"#utility.yul\":7136:7142   */\n      0x00\n        /* \"#utility.yul\":7173:7174   */\n      0x02\n        /* \"#utility.yul\":7167:7171   */\n      dup3\n        /* \"#utility.yul\":7163:7175   */\n      div\n        /* \"#utility.yul\":7153:7175   */\n      swap1\n      pop\n        /* \"#utility.yul\":7220:7221   */\n      0x01\n        /* \"#utility.yul\":7214:7218   */\n      dup3\n        /* \"#utility.yul\":7210:7222   */\n      and\n        /* \"#utility.yul\":7241:7259   */\n      dup1\n        /* \"#utility.yul\":7231:7312   */\n      tag_341\n      jumpi\n        /* \"#utility.yul\":7297:7301   */\n      0x7f\n        /* \"#utility.yul\":7289:7295   */\n      dup3\n        /* \"#utility.yul\":7285:7302   */\n      and\n        /* \"#utility.yul\":7275:7302   */\n      swap2\n      pop\n        /* \"#utility.yul\":7231:7312   */\n    tag_341:\n        /* \"#utility.yul\":7359:7361   */\n      0x20\n        /* \"#utility.yul\":7351:7357   */\n      dup3\n        /* \"#utility.yul\":7348:7362   */\n      lt\n        /* \"#utility.yul\":7328:7346   */\n      dup2\n        /* \"#utility.yul\":7325:7363   */\n      sub\n        /* \"#utility.yul\":7322:7406   */\n      tag_342\n      jumpi\n        /* \"#utility.yul\":7378:7396   */\n      tag_343\n      tag_241\n      jump\t// in\n    tag_343:\n        /* \"#utility.yul\":7322:7406   */\n    tag_342:\n        /* \"#utility.yul\":7143:7412   */\n      pop\n        /* \"#utility.yul\":7092:7412   */\n      swap2\n      swap1\n      pop\n      jump\t// out\n        /* \"#utility.yul\":7418:7596   */\n    tag_242:\n        /* \"#utility.yul\":7558:7588   */\n      0x596f7520646f6e2774206861766520656e6f75676820746f6b656e7300000000\n        /* \"#utility.yul\":7554:7555   */\n      0x00\n        /* \"#utility.yul\":7546:7552   */\n      dup3\n        /* \"#utility.yul\":7542:7556   */\n      add\n        /* \"#utility.yul\":7535:7589   */\n      mstore\n        /* \"#utility.yul\":7418:7596   */\n      pop\n      jump\t// out\n        /* \"#utility.yul\":7602:7968   */\n    tag_243:\n        /* \"#utility.yul\":7744:7747   */\n      0x00\n        /* \"#utility.yul\":7765:7832   */\n      tag_346\n        /* \"#utility.yul\":7829:7831   */\n      0x1c\n        /* \"#utility.yul\":7824:7827   */\n      dup4\n        /* \"#utility.yul\":7765:7832   */\n      tag_221\n      jump\t// in\n    tag_346:\n        /* \"#utility.yul\":7758:7832   */\n      swap2\n      pop\n        /* \"#utility.yul\":7841:7934   */\n      tag_347\n        /* \"#utility.yul\":7930:7933   */\n      dup3\n        /* \"#utility.yul\":7841:7934   */\n      tag_242\n      jump\t// in\n    tag_347:\n        /* \"#utility.yul\":7959:7961   */\n      0x20\n        /* \"#utility.yul\":7954:7957   */\n      dup3\n        /* \"#utility.yul\":7950:7962   */\n      add\n        /* \"#utility.yul\":7943:7962   */\n      swap1\n      pop\n        /* \"#utility.yul\":7602:7968   */\n      swap2\n      swap1\n      pop\n      jump\t// out\n        /* \"#utility.yul\":7974:8393   */\n    tag_113:\n        /* \"#utility.yul\":8140:8144   */\n      0x00\n        /* \"#utility.yul\":8178:8180   */\n      0x20\n        /* \"#utility.yul\":8167:8176   */\n      dup3\n        /* \"#utility.yul\":8163:8181   */\n      add\n        /* \"#utility.yul\":8155:8181   */\n      swap1\n      pop\n        /* \"#utility.yul\":8227:8236   */\n      dup2\n        /* \"#utility.yul\":8221:8225   */\n      dup2\n        /* \"#utility.yul\":8217:8237   */\n      sub\n        /* \"#utility.yul\":8213:8214   */\n      0x00\n        /* \"#utility.yul\":8202:8211   */\n      dup4\n        /* \"#utility.yul\":8198:8215   */\n      add\n        /* \"#utility.yul\":8191:8238   */\n      mstore\n        /* \"#utility.yul\":8255:8386   */\n      tag_349\n        /* \"#utility.yul\":8381:8385   */\n      dup2\n        /* \"#utility.yul\":8255:8386   */\n      tag_243\n      jump\t// in\n    tag_349:\n        /* \"#utility.yul\":8247:8386   */\n      swap1\n      pop\n        /* \"#utility.yul\":7974:8393   */\n      swap2\n      swap1\n      pop\n      jump\t// out\n        /* \"#utility.yul\":8399:8579   */\n    tag_244:\n        /* \"#utility.yul\":8447:8524   */\n      0x4e487b7100000000000000000000000000000000000000000000000000000000\n        /* \"#utility.yul\":8444:8445   */\n      0x00\n        /* \"#utility.yul\":8437:8525   */\n      mstore\n        /* \"#utility.yul\":8544:8548   */\n      0x11\n        /* \"#utility.yul\":8541:8542   */\n      0x04\n        /* \"#utility.yul\":8534:8549   */\n      mstore\n        /* \"#utility.yul\":8568:8572   */\n      0x24\n        /* \"#utility.yul\":8565:8566   */\n      0x00\n        /* \"#utility.yul\":8558:8573   */\n      revert\n        /* \"#utility.yul\":8585:8818   */\n    tag_115:\n        /* \"#utility.yul\":8624:8627   */\n      0x00\n        /* \"#utility.yul\":8647:8671   */\n      tag_352\n        /* \"#utility.yul\":8665:8670   */\n      dup3\n        /* \"#utility.yul\":8647:8671   */\n      tag_232\n      jump\t// in\n    tag_352:\n        /* \"#utility.yul\":8638:8671   */\n      swap2\n      pop\n        /* \"#utility.yul\":8693:8759   */\n      0xffffffffffffffffffffffffffffffffffffffffffffffffffffffffffffffff\n        /* \"#utility.yul\":8686:8691   */\n      dup3\n        /* \"#utility.yul\":8683:8760   */\n      sub\n        /* \"#utility.yul\":8680:8783   */\n      tag_353\n      jumpi\n        /* \"#utility.yul\":8763:8781   */\n      tag_354\n      tag_244\n      jump\t// in\n    tag_354:\n        /* \"#utility.yul\":8680:8783   */\n    tag_353:\n        /* \"#utility.yul\":8810:8811   */\n      0x01\n        /* \"#utility.yul\":8803:8808   */\n      dup3\n        /* \"#utility.yul\":8799:8812   */\n      add\n        /* \"#utility.yul\":8792:8812   */\n      swap1\n      pop\n        /* \"#utility.yul\":8585:8818   */\n      swap2\n      swap1\n      pop\n      jump\t// out\n        /* \"#utility.yul\":8824:9377   */\n    tag_117:\n        /* \"#utility.yul\":9001:9005   */\n      0x00\n        /* \"#utility.yul\":9039:9042   */\n      0x80\n        /* \"#utility.yul\":9028:9037   */\n      dup3\n        /* \"#utility.yul\":9024:9043   */\n      add\n        /* \"#utility.yul\":9016:9043   */\n      swap1\n      pop\n        /* \"#utility.yul\":9053:9124   */\n      tag_356\n        /* \"#utility.yul\":9121:9122   */\n      0x00\n        /* \"#utility.yul\":9110:9119   */\n      dup4\n        /* \"#utility.yul\":9106:9123   */\n      add\n        /* \"#utility.yul\":9097:9103   */\n      dup8\n        /* \"#utility.yul\":9053:9124   */\n      tag_237\n      jump\t// in\n    tag_356:\n        /* \"#utility.yul\":9134:9206   */\n      tag_357\n        /* \"#utility.yul\":9202:9204   */\n      0x20\n        /* \"#utility.yul\":9191:9200   */\n      dup4\n        /* \"#utility.yul\":9187:9205   */\n      add\n        /* \"#utility.yul\":9178:9184   */\n      dup7\n        /* \"#utility.yul\":9134:9206   */\n      tag_240\n      jump\t// in\n    tag_357:\n        /* \"#utility.yul\":9216:9288   */\n      tag_358\n        /* \"#utility.yul\":9284:9286   */\n      0x40\n        /* \"#utility.yul\":9273:9282   */\n      dup4\n        /* \"#utility.yul\":9269:9287   */\n      add\n        /* \"#utility.yul\":9260:9266   */\n      dup6\n        /* \"#utility.yul\":9216:9288   */\n      tag_240\n      jump\t// in\n    tag_358:\n        /* \"#utility.yul\":9298:9370   */\n      tag_359\n        /* \"#utility.yul\":9366:9368   */\n      0x60\n        /* \"#utility.yul\":9355:9364   */\n      dup4\n        /* \"#utility.yul\":9351:9369   */\n      add\n        /* \"#utility.yul\":9342:9348   */\n      dup5\n        /* \"#utility.yul\":9298:9370   */\n      tag_237\n      jump\t// in\n    tag_359:\n        /* \"#utility.yul\":8824:9377   */\n      swap6\n      swap5\n      pop\n      pop\n      pop\n      pop\n      pop\n      jump\t// out\n        /* \"#utility.yul\":9383:9610   */\n    tag_245:\n        /* \"#utility.yul\":9523:9557   */\n      0x4f6e6c7920617070726f766572732063616e2065786563757465207468697320\n        /* \"#utility.yul\":9519:9520   */\n      0x00\n        /* \"#utility.yul\":9511:9517   */\n      dup3\n        /* \"#utility.yul\":9507:9521   */\n      add\n        /* \"#utility.yul\":9500:9558   */\n      mstore\n        /* \"#utility.yul\":9592:9602   */\n      0x66756e6374696f6e000000000000000000000000000000000000000000000000\n        /* \"#utility.yul\":9587:9589   */\n      0x20\n        /* \"#utility.yul\":9579:9585   */\n      dup3\n        /* \"#utility.yul\":9575:9590   */\n      add\n        /* \"#utility.yul\":9568:9603   */\n      mstore\n        /* \"#utility.yul\":9383:9610   */\n      pop\n      jump\t// out\n        /* \"#utility.yul\":9616:9982   */\n    tag_246:\n        /* \"#utility.yul\":9758:9761   */\n      0x00\n        /* \"#utility.yul\":9779:9846   */\n      tag_362\n        /* \"#utility.yul\":9843:9845   */\n      0x28\n        /* \"#utility.yul\":9838:9841   */\n      dup4\n        /* \"#utility.yul\":9779:9846   */\n      tag_221\n      jump\t// in\n    tag_362:\n        /* \"#utility.yul\":9772:9846   */\n      swap2\n      pop\n        /* \"#utility.yul\":9855:9948   */\n      tag_363\n        /* \"#utility.yul\":9944:9947   */\n      dup3\n        /* \"#utility.yul\":9855:9948   */\n      tag_245\n      jump\t// in\n    tag_363:\n        /* \"#utility.yul\":9973:9975   */\n      0x40\n        /* \"#utility.yul\":9968:9971   */\n      dup3\n        /* \"#utility.yul\":9964:9976   */\n      add\n        /* \"#utility.yul\":9957:9976   */\n      swap1\n      pop\n        /* \"#utility.yul\":9616:9982   */\n      swap2\n      swap1\n      pop\n      jump\t// out\n        /* \"#utility.yul\":9988:10407   */\n    tag_127:\n        /* \"#utility.yul\":10154:10158   */\n      0x00\n        /* \"#utility.yul\":10192:10194   */\n      0x20\n        /* \"#utility.yul\":10181:10190   */\n      dup3\n        /* \"#utility.yul\":10177:10195   */\n      add\n        /* \"#utility.yul\":10169:10195   */\n      swap1\n      pop\n        /* \"#utility.yul\":10241:10250   */\n      dup2\n        /* \"#utility.yul\":10235:10239   */\n      dup2\n        /* \"#utility.yul\":10231:10251   */\n      sub\n        /* \"#utility.yul\":10227:10228   */\n      0x00\n        /* \"#utility.yul\":10216:10225   */\n      dup4\n        /* \"#utility.yul\":10212:10229   */\n      add\n        /* \"#utility.yul\":10205:10252   */\n      mstore\n        /* \"#utility.yul\":10269:10400   */\n      tag_365\n        /* \"#utility.yul\":10395:10399   */\n      dup2\n        /* \"#utility.yul\":10269:10400   */\n      tag_246\n      jump\t// in\n    tag_365:\n        /* \"#utility.yul\":10261:10400   */\n      swap1\n      pop\n        /* \"#utility.yul\":9988:10407   */\n      swap2\n      swap1\n      pop\n      jump\t// out\n        /* \"#utility.yul\":10413:10591   */\n    tag_247:\n        /* \"#utility.yul\":10553:10583   */\n      0x5472616e73616374696f6e20616c726561647920657865637574656400000000\n        /* \"#utility.yul\":10549:10550   */\n      0x00\n        /* \"#utility.yul\":10541:10547   */\n      dup3\n        /* \"#utility.yul\":10537:10551   */\n      add\n        /* \"#utility.yul\":10530:10584   */\n      mstore\n        /* \"#utility.yul\":10413:10591   */\n      pop\n      jump\t// out\n        /* \"#utility.yul\":10597:10963   */\n    tag_248:\n        /* \"#utility.yul\":10739:10742   */\n      0x00\n        /* \"#utility.yul\":10760:10827   */\n      tag_368\n        /* \"#utility.yul\":10824:10826   */\n      0x1c\n        /* \"#utility.yul\":10819:10822   */\n      dup4\n        /* \"#utility.yul\":10760:10827   */\n      tag_221\n      jump\t// in\n    tag_368:\n        /* \"#utility.yul\":10753:10827   */\n      swap2\n      pop\n        /* \"#utility.yul\":10836:10929   */\n      tag_369\n        /* \"#utility.yul\":10925:10928   */\n      dup3\n        /* \"#utility.yul\":10836:10929   */\n      tag_247\n      jump\t// in\n    tag_369:\n        /* \"#utility.yul\":10954:10956   */\n      0x20\n        /* \"#utility.yul\":10949:10952   */\n      dup3\n        /* \"#utility.yul\":10945:10957   */\n      add\n        /* \"#utility.yul\":10938:10957   */\n      swap1\n      pop\n        /* \"#utility.yul\":10597:10963   */\n      swap2\n      swap1\n      pop\n      jump\t// out\n        /* \"#utility.yul\":10969:11388   */\n    tag_131:\n        /* \"#utility.yul\":11135:11139   */\n      0x00\n        /* \"#utility.yul\":11173:11175   */\n      0x20\n        /* \"#utility.yul\":11162:11171   */\n      dup3\n        /* \"#utility.yul\":11158:11176   */\n      add\n        /* \"#utility.yul\":11150:11176   */\n      swap1\n      pop\n        /* \"#utility.yul\":11222:11231   */\n      dup2\n        /* \"#utility.yul\":11216:11220   */\n      dup2\n        /* \"#utility.yul\":11212:11232   */\n      sub\n        /* \"#utility.yul\":11208:11209   */\n      0x00\n        /* \"#utility.yul\":11197:11206   */\n      dup4\n        /* \"#utility.yul\":11193:11210   */\n      add\n        /* \"#utility.yul\":11186:11233   */\n      mstore\n        /* \"#utility.yul\":11250:11381   */\n      tag_371\n        /* \"#utility.yul\":11376:11380   */\n      dup2\n        /* \"#utility.yul\":11250:11381   */\n      tag_248\n      jump\t// in\n    tag_371:\n        /* \"#utility.yul\":11242:11381   */\n      swap1\n      pop\n        /* \"#utility.yul\":10969:11388   */\n      swap2\n      swap1\n      pop\n      jump\t// out\n        /* \"#utility.yul\":11394:11626   */\n    tag_249:\n        /* \"#utility.yul\":11534:11568   */\n      0x5472616e73616374696f6e20616c726561647920617070726f76656420627920\n        /* \"#utility.yul\":11530:11531   */\n      0x00\n        /* \"#utility.yul\":11522:11528   */\n      dup3\n        /* \"#utility.yul\":11518:11532   */\n      add\n        /* \"#utility.yul\":11511:11569   */\n      mstore\n        /* \"#utility.yul\":11603:11618   */\n      0x7468697320617070726f76657200000000000000000000000000000000000000\n        /* \"#utility.yul\":11598:11600   */\n      0x20\n        /* \"#utility.yul\":11590:11596   */\n      dup3\n        /* \"#utility.yul\":11586:11601   */\n      add\n        /* \"#utility.yul\":11579:11619   */\n      mstore\n        /* \"#utility.yul\":11394:11626   */\n      pop\n      jump\t// out\n        /* \"#utility.yul\":11632:11998   */\n    tag_250:\n        /* \"#utility.yul\":11774:11777   */\n      0x00\n        /* \"#utility.yul\":11795:11862   */\n      tag_374\n        /* \"#utility.yul\":11859:11861   */\n      0x2d\n        /* \"#utility.yul\":11854:11857   */\n      dup4\n        /* \"#utility.yul\":11795:11862   */\n      tag_221\n      jump\t// in\n    tag_374:\n        /* \"#utility.yul\":11788:11862   */\n      swap2\n      pop\n        /* \"#utility.yul\":11871:11964   */\n      tag_375\n        /* \"#utility.yul\":11960:11963   */\n      dup3\n        /* \"#utility.yul\":11871:11964   */\n      tag_249\n      jump\t// in\n    tag_375:\n        /* \"#utility.yul\":11989:11991   */\n      0x40\n        /* \"#utility.yul\":11984:11987   */\n      dup3\n        /* \"#utility.yul\":11980:11992   */\n      add\n        /* \"#utility.yul\":11973:11992   */\n      swap1\n      pop\n        /* \"#utility.yul\":11632:11998   */\n      swap2\n      swap1\n      pop\n      jump\t// out\n        /* \"#utility.yul\":12004:12423   */\n    tag_134:\n        /* \"#utility.yul\":12170:12174   */\n      0x00\n        /* \"#utility.yul\":12208:12210   */\n      0x20\n        /* \"#utility.yul\":12197:12206   */\n      dup3\n        /* \"#utility.yul\":12193:12211   */\n      add\n        /* \"#utility.yul\":12185:12211   */\n      swap1\n      pop\n        /* \"#utility.yul\":12257:12266   */\n      dup2\n        /* \"#utility.yul\":12251:12255   */\n      dup2\n        /* \"#utility.yul\":12247:12267   */\n      sub\n        /* \"#utility.yul\":12243:12244   */\n      0x00\n        /* \"#utility.yul\":12232:12241   */\n      dup4\n        /* \"#utility.yul\":12228:12245   */\n      add\n        /* \"#utility.yul\":12221:12268   */\n      mstore\n        /* \"#utility.yul\":12285:12416   */\n      tag_377\n        /* \"#utility.yul\":12411:12415   */\n      dup2\n        /* \"#utility.yul\":12285:12416   */\n      tag_250\n      jump\t// in\n    tag_377:\n        /* \"#utility.yul\":12277:12416   */\n      swap1\n      pop\n        /* \"#utility.yul\":12004:12423   */\n      swap2\n      swap1\n      pop\n      jump\t// out\n        /* \"#utility.yul\":12429:12761   */\n    tag_137:\n        /* \"#utility.yul\":12550:12554   */\n      0x00\n        /* \"#utility.yul\":12588:12590   */\n      0x40\n        /* \"#utility.yul\":12577:12586   */\n      dup3\n        /* \"#utility.yul\":12573:12591   */\n      add\n        /* \"#utility.yul\":12565:12591   */\n      swap1\n      pop\n        /* \"#utility.yul\":12601:12672   */\n      tag_379\n        /* \"#utility.yul\":12669:12670   */\n      0x00\n        /* \"#utility.yul\":12658:12667   */\n      dup4\n        /* \"#utility.yul\":12654:12671   */\n      add\n        /* \"#utility.yul\":12645:12651   */\n      dup6\n        /* \"#utility.yul\":12601:12672   */\n      tag_237\n      jump\t// in\n    tag_379:\n        /* \"#utility.yul\":12682:12754   */\n      tag_380\n        /* \"#utility.yul\":12750:12752   */\n      0x20\n        /* \"#utility.yul\":12739:12748   */\n      dup4\n        /* \"#utility.yul\":12735:12753   */\n      add\n        /* \"#utility.yul\":12726:12732   */\n      dup5\n        /* \"#utility.yul\":12682:12754   */\n      tag_240\n      jump\t// in\n    tag_380:\n        /* \"#utility.yul\":12429:12761   */\n      swap4\n      swap3\n      pop\n      pop\n      pop\n      jump\t// out\n        /* \"#utility.yul\":12767:12947   */\n    tag_251:\n        /* \"#utility.yul\":12815:12892   */\n      0x4e487b7100000000000000000000000000000000000000000000000000000000\n        /* \"#utility.yul\":12812:12813   */\n      0x00\n        /* \"#utility.yul\":12805:12893   */\n      mstore\n        /* \"#utility.yul\":12912:12916   */\n      0x12\n        /* \"#utility.yul\":12909:12910   */\n      0x04\n        /* \"#utility.yul\":12902:12917   */\n      mstore\n        /* \"#utility.yul\":12936:12940   */\n      0x24\n        /* \"#utility.yul\":12933:12934   */\n      0x00\n        /* \"#utility.yul\":12926:12941   */\n      revert\n        /* \"#utility.yul\":12953:13138   */\n    tag_139:\n        /* \"#utility.yul\":12993:12994   */\n      0x00\n        /* \"#utility.yul\":13010:13030   */\n      tag_383\n        /* \"#utility.yul\":13028:13029   */\n      dup3\n        /* \"#utility.yul\":13010:13030   */\n      tag_232\n      jump\t// in\n    tag_383:\n        /* \"#utility.yul\":13005:13030   */\n      swap2\n      pop\n        /* \"#utility.yul\":13044:13064   */\n      tag_384\n        /* \"#utility.yul\":13062:13063   */\n      dup4\n        /* \"#utility.yul\":13044:13064   */\n      tag_232\n      jump\t// in\n    tag_384:\n        /* \"#utility.yul\":13039:13064   */\n      swap3\n      pop\n        /* \"#utility.yul\":13083:13084   */\n      dup3\n        /* \"#utility.yul\":13073:13108   */\n      tag_385\n      jumpi\n        /* \"#utility.yul\":13088:13106   */\n      tag_386\n      tag_251\n      jump\t// in\n    tag_386:\n        /* \"#utility.yul\":13073:13108   */\n    tag_385:\n        /* \"#utility.yul\":13130:13131   */\n      dup3\n        /* \"#utility.yul\":13127:13128   */\n      dup3\n        /* \"#utility.yul\":13123:13132   */\n      div\n        /* \"#utility.yul\":13118:13132   */\n      swap1\n      pop\n        /* \"#utility.yul\":12953:13138   */\n      swap3\n      swap2\n      pop\n      pop\n      jump\t// out\n        /* \"#utility.yul\":13144:13318   */\n    tag_252:\n        /* \"#utility.yul\":13284:13310   */\n      0x596f752061726520616c726561647920617070726f7665640000000000000000\n        /* \"#utility.yul\":13280:13281   */\n      0x00\n        /* \"#utility.yul\":13272:13278   */\n      dup3\n        /* \"#utility.yul\":13268:13282   */\n      add\n        /* \"#utility.yul\":13261:13311   */\n      mstore\n        /* \"#utility.yul\":13144:13318   */\n      pop\n      jump\t// out\n        /* \"#utility.yul\":13324:13690   */\n    tag_253:\n        /* \"#utility.yul\":13466:13469   */\n      0x00\n        /* \"#utility.yul\":13487:13554   */\n      tag_389\n        /* \"#utility.yul\":13551:13553   */\n      0x18\n        /* \"#utility.yul\":13546:13549   */\n      dup4\n        /* \"#utility.yul\":13487:13554   */\n      tag_221\n      jump\t// in\n    tag_389:\n        /* \"#utility.yul\":13480:13554   */\n      swap2\n      pop\n        /* \"#utility.yul\":13563:13656   */\n      tag_390\n        /* \"#utility.yul\":13652:13655   */\n      dup3\n        /* \"#utility.yul\":13563:13656   */\n      tag_252\n      jump\t// in\n    tag_390:\n        /* \"#utility.yul\":13681:13683   */\n      0x20\n        /* \"#utility.yul\":13676:13679   */\n      dup3\n        /* \"#utility.yul\":13672:13684   */\n      add\n        /* \"#utility.yul\":13665:13684   */\n      swap1\n      pop\n        /* \"#utility.yul\":13324:13690   */\n      swap2\n      swap1\n      pop\n      jump\t// out\n        /* \"#utility.yul\":13696:14115   */\n    tag_147:\n        /* \"#utility.yul\":13862:13866   */\n      0x00\n        /* \"#utility.yul\":13900:13902   */\n      0x20\n        /* \"#utility.yul\":13889:13898   */\n      dup3\n        /* \"#utility.yul\":13885:13903   */\n      add\n        /* \"#utility.yul\":13877:13903   */\n      swap1\n      pop\n        /* \"#utility.yul\":13949:13958   */\n      dup2\n        /* \"#utility.yul\":13943:13947   */\n      dup2\n        /* \"#utility.yul\":13939:13959   */\n      sub\n        /* \"#utility.yul\":13935:13936   */\n      0x00\n        /* \"#utility.yul\":13924:13933   */\n      dup4\n        /* \"#utility.yul\":13920:13937   */\n      add\n        /* \"#utility.yul\":13913:13960   */\n      mstore\n        /* \"#utility.yul\":13977:14108   */\n      tag_392\n        /* \"#utility.yul\":14103:14107   */\n      dup2\n        /* \"#utility.yul\":13977:14108   */\n      tag_253\n      jump\t// in\n    tag_392:\n        /* \"#utility.yul\":13969:14108   */\n      swap1\n      pop\n        /* \"#utility.yul\":13696:14115   */\n      swap2\n      swap1\n      pop\n      jump\t// out\n        /* \"#utility.yul\":14121:14295   */\n    tag_254:\n        /* \"#utility.yul\":14261:14287   */\n      0x596f75206861766520616c7265616479206170706c6965640000000000000000\n        /* \"#utility.yul\":14257:14258   */\n      0x00\n        /* \"#utility.yul\":14249:14255   */\n      dup3\n        /* \"#utility.yul\":14245:14259   */\n      add\n        /* \"#utility.yul\":14238:14288   */\n      mstore\n        /* \"#utility.yul\":14121:14295   */\n      pop\n      jump\t// out\n        /* \"#utility.yul\":14301:14667   */\n    tag_255:\n        /* \"#utility.yul\":14443:14446   */\n      0x00\n        /* \"#utility.yul\":14464:14531   */\n      tag_395\n        /* \"#utility.yul\":14528:14530   */\n      0x18\n        /* \"#utility.yul\":14523:14526   */\n      dup4\n        /* \"#utility.yul\":14464:14531   */\n      tag_221\n      jump\t// in\n    tag_395:\n        /* \"#utility.yul\":14457:14531   */\n      swap2\n      pop\n        /* \"#utility.yul\":14540:14633   */\n      tag_396\n        /* \"#utility.yul\":14629:14632   */\n      dup3\n        /* \"#utility.yul\":14540:14633   */\n      tag_254\n      jump\t// in\n    tag_396:\n        /* \"#utility.yul\":14658:14660   */\n      0x20\n        /* \"#utility.yul\":14653:14656   */\n      dup3\n        /* \"#utility.yul\":14649:14661   */\n      add\n        /* \"#utility.yul\":14642:14661   */\n      swap1\n      pop\n        /* \"#utility.yul\":14301:14667   */\n      swap2\n      swap1\n      pop\n      jump\t// out\n        /* \"#utility.yul\":14673:15092   */\n    tag_150:\n        /* \"#utility.yul\":14839:14843   */\n      0x00\n        /* \"#utility.yul\":14877:14879   */\n      0x20\n        /* \"#utility.yul\":14866:14875   */\n      dup3\n        /* \"#utility.yul\":14862:14880   */\n      add\n        /* \"#utility.yul\":14854:14880   */\n      swap1\n      pop\n        /* \"#utility.yul\":14926:14935   */\n      dup2\n        /* \"#utility.yul\":14920:14924   */\n      dup2\n        /* \"#utility.yul\":14916:14936   */\n      sub\n        /* \"#utility.yul\":14912:14913   */\n      0x00\n        /* \"#utility.yul\":14901:14910   */\n      dup4\n        /* \"#utility.yul\":14897:14914   */\n      add\n        /* \"#utility.yul\":14890:14937   */\n      mstore\n        /* \"#utility.yul\":14954:15085   */\n      tag_398\n        /* \"#utility.yul\":15080:15084   */\n      dup2\n        /* \"#utility.yul\":14954:15085   */\n      tag_255\n      jump\t// in\n    tag_398:\n        /* \"#utility.yul\":14946:15085   */\n      swap1\n      pop\n        /* \"#utility.yul\":14673:15092   */\n      swap2\n      swap1\n      pop\n      jump\t// out\n        /* \"#utility.yul\":15098:15265   */\n    tag_256:\n        /* \"#utility.yul\":15238:15257   */\n      0x41646472657373204e6f7420466f756e64000000000000000000000000000000\n        /* \"#utility.yul\":15234:15235   */\n      0x00\n        /* \"#utility.yul\":15226:15232   */\n      dup3\n        /* \"#utility.yul\":15222:15236   */\n      add\n        /* \"#utility.yul\":15215:15258   */\n      mstore\n        /* \"#utility.yul\":15098:15265   */\n      pop\n      jump\t// out\n        /* \"#utility.yul\":15271:15637   */\n    tag_257:\n        /* \"#utility.yul\":15413:15416   */\n      0x00\n        /* \"#utility.yul\":15434:15501   */\n      tag_401\n        /* \"#utility.yul\":15498:15500   */\n      0x11\n        /* \"#utility.yul\":15493:15496   */\n      dup4\n        /* \"#utility.yul\":15434:15501   */\n      tag_221\n      jump\t// in\n    tag_401:\n        /* \"#utility.yul\":15427:15501   */\n      swap2\n      pop\n        /* \"#utility.yul\":15510:15603   */\n      tag_402\n        /* \"#utility.yul\":15599:15602   */\n      dup3\n        /* \"#utility.yul\":15510:15603   */\n      tag_256\n      jump\t// in\n    tag_402:\n        /* \"#utility.yul\":15628:15630   */\n      0x20\n        /* \"#utility.yul\":15623:15626   */\n      dup3\n        /* \"#utility.yul\":15619:15631   */\n      add\n        /* \"#utility.yul\":15612:15631   */\n      swap1\n      pop\n        /* \"#utility.yul\":15271:15637   */\n      swap2\n      swap1\n      pop\n      jump\t// out\n        /* \"#utility.yul\":15643:16062   */\n    tag_156:\n        /* \"#utility.yul\":15809:15813   */\n      0x00\n        /* \"#utility.yul\":15847:15849   */\n      0x20\n        /* \"#utility.yul\":15836:15845   */\n      dup3\n        /* \"#utility.yul\":15832:15850   */\n      add\n        /* \"#utility.yul\":15824:15850   */\n      swap1\n      pop\n        /* \"#utility.yul\":15896:15905   */\n      dup2\n        /* \"#utility.yul\":15890:15894   */\n      dup2\n        /* \"#utility.yul\":15886:15906   */\n      sub\n        /* \"#utility.yul\":15882:15883   */\n      0x00\n        /* \"#utility.yul\":15871:15880   */\n      dup4\n        /* \"#utility.yul\":15867:15884   */\n      add\n        /* \"#utility.yul\":15860:15907   */\n      mstore\n        /* \"#utility.yul\":15924:16055   */\n      tag_404\n        /* \"#utility.yul\":16050:16054   */\n      dup2\n        /* \"#utility.yul\":15924:16055   */\n      tag_257\n      jump\t// in\n    tag_404:\n        /* \"#utility.yul\":15916:16055   */\n      swap1\n      pop\n        /* \"#utility.yul\":15643:16062   */\n      swap2\n      swap1\n      pop\n      jump\t// out\n        /* \"#utility.yul\":16068:16239   */\n    tag_158:\n        /* \"#utility.yul\":16107:16110   */\n      0x00\n        /* \"#utility.yul\":16130:16154   */\n      tag_406\n        /* \"#utility.yul\":16148:16153   */\n      dup3\n        /* \"#utility.yul\":16130:16154   */\n      tag_232\n      jump\t// in\n    tag_406:\n        /* \"#utility.yul\":16121:16154   */\n      swap2\n      pop\n        /* \"#utility.yul\":16176:16180   */\n      0x00\n        /* \"#utility.yul\":16169:16174   */\n      dup3\n        /* \"#utility.yul\":16166:16181   */\n      sub\n        /* \"#utility.yul\":16163:16204   */\n      tag_407\n      jumpi\n        /* \"#utility.yul\":16184:16202   */\n      tag_408\n      tag_244\n      jump\t// in\n    tag_408:\n        /* \"#utility.yul\":16163:16204   */\n    tag_407:\n        /* \"#utility.yul\":16231:16232   */\n      0x01\n        /* \"#utility.yul\":16224:16229   */\n      dup3\n        /* \"#utility.yul\":16220:16233   */\n      sub\n        /* \"#utility.yul\":16213:16233   */\n      swap1\n      pop\n        /* \"#utility.yul\":16068:16239   */\n      swap2\n      swap1\n      pop\n      jump\t// out\n        /* \"#utility.yul\":16245:16426   */\n    tag_258:\n        /* \"#utility.yul\":16385:16418   */\n      0x546865204164647265737320697320616c726561647920617070726f76656400\n        /* \"#utility.yul\":16381:16382   */\n      0x00\n        /* \"#utility.yul\":16373:16379   */\n      dup3\n        /* \"#utility.yul\":16369:16383   */\n      add\n        /* \"#utility.yul\":16362:16419   */\n      mstore\n        /* \"#utility.yul\":16245:16426   */\n      pop\n      jump\t// out\n        /* \"#utility.yul\":16432:16798   */\n    tag_259:\n        /* \"#utility.yul\":16574:16577   */\n      0x00\n        /* \"#utility.yul\":16595:16662   */\n      tag_411\n        /* \"#utility.yul\":16659:16661   */\n      0x1f\n        /* \"#utility.yul\":16654:16657   */\n      dup4\n        /* \"#utility.yul\":16595:16662   */\n      tag_221\n      jump\t// in\n    tag_411:\n        /* \"#utility.yul\":16588:16662   */\n      swap2\n      pop\n        /* \"#utility.yul\":16671:16764   */\n      tag_412\n        /* \"#utility.yul\":16760:16763   */\n      dup3\n        /* \"#utility.yul\":16671:16764   */\n      tag_258\n      jump\t// in\n    tag_412:\n        /* \"#utility.yul\":16789:16791   */\n      0x20\n        /* \"#utility.yul\":16784:16787   */\n      dup3\n        /* \"#utility.yul\":16780:16792   */\n      add\n        /* \"#utility.yul\":16773:16792   */\n      swap1\n      pop\n        /* \"#utility.yul\":16432:16798   */\n      swap2\n      swap1\n      pop\n      jump\t// out\n        /* \"#utility.yul\":16804:17223   */\n    tag_163:\n        /* \"#utility.yul\":16970:16974   */\n      0x00\n        /* \"#utility.yul\":17008:17010   */\n      0x20\n        /* \"#utility.yul\":16997:17006   */\n      dup3\n        /* \"#utility.yul\":16993:17011   */\n      add\n        /* \"#utility.yul\":16985:17011   */\n      swap1\n      pop\n        /* \"#utility.yul\":17057:17066   */\n      dup2\n        /* \"#utility.yul\":17051:17055   */\n      dup2\n        /* \"#utility.yul\":17047:17067   */\n      sub\n        /* \"#utility.yul\":17043:17044   */\n      0x00\n        /* \"#utility.yul\":17032:17041   */\n      dup4\n        /* \"#utility.yul\":17028:17045   */\n      add\n        /* \"#utility.yul\":17021:17068   */\n      mstore\n        /* \"#utility.yul\":17085:17216   */\n      tag_414\n        /* \"#utility.yul\":17211:17215   */\n      dup2\n        /* \"#utility.yul\":17085:17216   */\n      tag_259\n      jump\t// in\n    tag_414:\n        /* \"#utility.yul\":17077:17216   */\n      swap1\n      pop\n        /* \"#utility.yul\":16804:17223   */\n      swap2\n      swap1\n      pop\n      jump\t// out\n        /* \"#utility.yul\":17229:17671   */\n    tag_185:\n        /* \"#utility.yul\":17378:17382   */\n      0x00\n        /* \"#utility.yul\":17416:17418   */\n      0x60\n        /* \"#utility.yul\":17405:17414   */\n      dup3\n        /* \"#utility.yul\":17401:17419   */\n      add\n        /* \"#utility.yul\":17393:17419   */\n      swap1\n      pop\n        /* \"#utility.yul\":17429:17500   */\n      tag_416\n        /* \"#utility.yul\":17497:17498   */\n      0x00\n        /* \"#utility.yul\":17486:17495   */\n      dup4\n        /* \"#utility.yul\":17482:17499   */\n      add\n        /* \"#utility.yul\":17473:17479   */\n      dup7\n        /* \"#utility.yul\":17429:17500   */\n      tag_240\n      jump\t// in\n    tag_416:\n        /* \"#utility.yul\":17510:17582   */\n      tag_417\n        /* \"#utility.yul\":17578:17580   */\n      0x20\n        /* \"#utility.yul\":17567:17576   */\n      dup4\n        /* \"#utility.yul\":17563:17581   */\n      add\n        /* \"#utility.yul\":17554:17560   */\n      dup6\n        /* \"#utility.yul\":17510:17582   */\n      tag_237\n      jump\t// in\n    tag_417:\n        /* \"#utility.yul\":17592:17664   */\n      tag_418\n        /* \"#utility.yul\":17660:17662   */\n      0x40\n        /* \"#utility.yul\":17649:17658   */\n      dup4\n        /* \"#utility.yul\":17645:17663   */\n      add\n        /* \"#utility.yul\":17636:17642   */\n      dup5\n        /* \"#utility.yul\":17592:17664   */\n      tag_237\n      jump\t// in\n    tag_418:\n        /* \"#utility.yul\":17229:17671   */\n      swap5\n      swap4\n      pop\n      pop\n      pop\n      pop\n      jump\t// out\n        /* \"#utility.yul\":17677:17849   */\n    tag_260:\n        /* \"#utility.yul\":17817:17841   */\n      0x496e73756666696369656e7420417070726f76616c7300000000000000000000\n        /* \"#utility.yul\":17813:17814   */\n      0x00\n        /* \"#utility.yul\":17805:17811   */\n      dup3\n        /* \"#utility.yul\":17801:17815   */\n      add\n        /* \"#utility.yul\":17794:17842   */\n      mstore\n        /* \"#utility.yul\":17677:17849   */\n      pop\n      jump\t// out\n        /* \"#utility.yul\":17855:18221   */\n    tag_261:\n        /* \"#utility.yul\":17997:18000   */\n      0x00\n        /* \"#utility.yul\":18018:18085   */\n      tag_421\n        /* \"#utility.yul\":18082:18084   */\n      0x16\n        /* \"#utility.yul\":18077:18080   */\n      dup4\n        /* \"#utility.yul\":18018:18085   */\n      tag_221\n      jump\t// in\n    tag_421:\n        /* \"#utility.yul\":18011:18085   */\n      swap2\n      pop\n        /* \"#utility.yul\":18094:18187   */\n      tag_422\n        /* \"#utility.yul\":18183:18186   */\n      dup3\n        /* \"#utility.yul\":18094:18187   */\n      tag_260\n      jump\t// in\n    tag_422:\n        /* \"#utility.yul\":18212:18214   */\n      0x20\n        /* \"#utility.yul\":18207:18210   */\n      dup3\n        /* \"#utility.yul\":18203:18215   */\n      add\n        /* \"#utility.yul\":18196:18215   */\n      swap1\n      pop\n        /* \"#utility.yul\":17855:18221   */\n      swap2\n      swap1\n      pop\n      jump\t// out\n        /* \"#utility.yul\":18227:18646   */\n    tag_200:\n        /* \"#utility.yul\":18393:18397   */\n      0x00\n        /* \"#utility.yul\":18431:18433   */\n      0x20\n        /* \"#utility.yul\":18420:18429   */\n      dup3\n        /* \"#utility.yul\":18416:18434   */\n      add\n        /* \"#utility.yul\":18408:18434   */\n      swap1\n      pop\n        /* \"#utility.yul\":18480:18489   */\n      dup2\n        /* \"#utility.yul\":18474:18478   */\n      dup2\n        /* \"#utility.yul\":18470:18490   */\n      sub\n        /* \"#utility.yul\":18466:18467   */\n      0x00\n        /* \"#utility.yul\":18455:18464   */\n      dup4\n        /* \"#utility.yul\":18451:18468   */\n      add\n        /* \"#utility.yul\":18444:18491   */\n      mstore\n        /* \"#utility.yul\":18508:18639   */\n      tag_424\n        /* \"#utility.yul\":18634:18638   */\n      dup2\n        /* \"#utility.yul\":18508:18639   */\n      tag_261\n      jump\t// in\n    tag_424:\n        /* \"#utility.yul\":18500:18639   */\n      swap1\n      pop\n        /* \"#utility.yul\":18227:18646   */\n      swap2\n      swap1\n      pop\n      jump\t// out\n        /* \"#utility.yul\":18652:18843   */\n    tag_213:\n        /* \"#utility.yul\":18692:18695   */\n      0x00\n        /* \"#utility.yul\":18711:18731   */\n      tag_426\n        /* \"#utility.yul\":18729:18730   */\n      dup3\n        /* \"#utility.yul\":18711:18731   */\n      tag_232\n      jump\t// in\n    tag_426:\n        /* \"#utility.yul\":18706:18731   */\n      swap2\n      pop\n        /* \"#utility.yul\":18745:18765   */\n      tag_427\n        /* \"#utility.yul\":18763:18764   */\n      dup4\n        /* \"#utility.yul\":18745:18765   */\n      tag_232\n      jump\t// in\n    tag_427:\n        /* \"#utility.yul\":18740:18765   */\n      swap3\n      pop\n        /* \"#utility.yul\":18788:18789   */\n      dup3\n        /* \"#utility.yul\":18785:18786   */\n      dup3\n        /* \"#utility.yul\":18781:18790   */\n      add\n        /* \"#utility.yul\":18774:18790   */\n      swap1\n      pop\n        /* \"#utility.yul\":18809:18812   */\n      dup1\n        /* \"#utility.yul\":18806:18807   */\n      dup3\n        /* \"#utility.yul\":18803:18813   */\n      gt\n        /* \"#utility.yul\":18800:18836   */\n      iszero\n      tag_428\n      jumpi\n        /* \"#utility.yul\":18816:18834   */\n      tag_429\n      tag_244\n      jump\t// in\n    tag_429:\n        /* \"#utility.yul\":18800:18836   */\n    tag_428:\n        /* \"#utility.yul\":18652:18843   */\n      swap3\n      swap2\n      pop\n      pop\n      jump\t// out\n\n    auxdata: 0xa26469706673582212203e3669282e6bd449d183866e664e2b6b174f5eff64d99bfef8640b10a52de39b64736f6c634300081a0033\n}\n",
				"bytecode": {
					"linkReferences": {},
					"object": "608060405234801561000f575f80fd5b50604051612ac7380380612ac78339818101604052810190610031919061051b565b81818160039081610042919061079e565b508060049081610052919061079e565b5050503360055f6101000a81548173ffffffffffffffffffffffffffffffffffffffff021916908373ffffffffffffffffffffffffffffffffffffffff160217905550600160065f3373ffffffffffffffffffffffffffffffffffffffff1673ffffffffffffffffffffffffffffffffffffffff1681526020019081526020015f205f6101000a81548160ff021916908315150217905550610121336100fc61012860201b60201c565b600a61010891906109d5565b620f42406101169190610a1f565b61013060201b60201c565b5050610b48565b5f6012905090565b5f73ffffffffffffffffffffffffffffffffffffffff168273ffffffffffffffffffffffffffffffffffffffff16036101a0575f6040517fec442f050000000000000000000000000000000000000000000000000000000081526004016101979190610a9f565b60405180910390fd5b6101b15f83836101b560201b60201c565b5050565b5f73ffffffffffffffffffffffffffffffffffffffff168373ffffffffffffffffffffffffffffffffffffffff1603610205578060025f8282546101f99190610ab8565b925050819055506102d3565b5f805f8573ffffffffffffffffffffffffffffffffffffffff1673ffffffffffffffffffffffffffffffffffffffff1681526020019081526020015f205490508181101561028e578381836040517fe450d38c00000000000000000000000000000000000000000000000000000000815260040161028593929190610afa565b60405180910390fd5b8181035f808673ffffffffffffffffffffffffffffffffffffffff1673ffffffffffffffffffffffffffffffffffffffff1681526020019081526020015f2081905550505b5f73ffffffffffffffffffffffffffffffffffffffff168273ffffffffffffffffffffffffffffffffffffffff160361031a578060025f8282540392505081905550610364565b805f808473ffffffffffffffffffffffffffffffffffffffff1673ffffffffffffffffffffffffffffffffffffffff1681526020019081526020015f205f82825401925050819055505b8173ffffffffffffffffffffffffffffffffffffffff168373ffffffffffffffffffffffffffffffffffffffff167fddf252ad1be2c89b69c2b068fc378daa952ba7f163c4a11628f55a4df523b3ef836040516103c19190610b2f565b60405180910390a3505050565b5f604051905090565b5f80fd5b5f80fd5b5f80fd5b5f80fd5b5f601f19601f8301169050919050565b7f4e487b71000000000000000000000000000000000000000000000000000000005f52604160045260245ffd5b61042d826103e7565b810181811067ffffffffffffffff8211171561044c5761044b6103f7565b5b80604052505050565b5f61045e6103ce565b905061046a8282610424565b919050565b5f67ffffffffffffffff821115610489576104886103f7565b5b610492826103e7565b9050602081019050919050565b8281835e5f83830152505050565b5f6104bf6104ba8461046f565b610455565b9050828152602081018484840111156104db576104da6103e3565b5b6104e684828561049f565b509392505050565b5f82601f830112610502576105016103df565b5b81516105128482602086016104ad565b91505092915050565b5f8060408385031215610531576105306103d7565b5b5f83015167ffffffffffffffff81111561054e5761054d6103db565b5b61055a858286016104ee565b925050602083015167ffffffffffffffff81111561057b5761057a6103db565b5b610587858286016104ee565b9150509250929050565b5f81519050919050565b7f4e487b71000000000000000000000000000000000000000000000000000000005f52602260045260245ffd5b5f60028204905060018216806105df57607f821691505b6020821081036105f2576105f161059b565b5b50919050565b5f819050815f5260205f209050919050565b5f6020601f8301049050919050565b5f82821b905092915050565b5f600883026106547fffffffffffffffffffffffffffffffffffffffffffffffffffffffffffffffff82610619565b61065e8683610619565b95508019841693508086168417925050509392505050565b5f819050919050565b5f819050919050565b5f6106a261069d61069884610676565b61067f565b610676565b9050919050565b5f819050919050565b6106bb83610688565b6106cf6106c7826106a9565b848454610625565b825550505050565b5f90565b6106e36106d7565b6106ee8184846106b2565b505050565b5b81811015610711576107065f826106db565b6001810190506106f4565b5050565b601f82111561075657610727816105f8565b6107308461060a565b8101602085101561073f578190505b61075361074b8561060a565b8301826106f3565b50505b505050565b5f82821c905092915050565b5f6107765f198460080261075b565b1980831691505092915050565b5f61078e8383610767565b9150826002028217905092915050565b6107a782610591565b67ffffffffffffffff8111156107c0576107bf6103f7565b5b6107ca82546105c8565b6107d5828285610715565b5f60209050601f831160018114610806575f84156107f4578287015190505b6107fe8582610783565b865550610865565b601f198416610814866105f8565b5f5b8281101561083b57848901518255600182019150602085019450602081019050610816565b868310156108585784890151610854601f891682610767565b8355505b6001600288020188555050505b505050505050565b7f4e487b71000000000000000000000000000000000000000000000000000000005f52601160045260245ffd5b5f8160011c9050919050565b5f808291508390505b60018511156108ef578086048111156108cb576108ca61086d565b5b60018516156108da5780820291505b80810290506108e88561089a565b94506108af565b94509492505050565b5f8261090757600190506109c2565b81610914575f90506109c2565b816001811461092a576002811461093457610963565b60019150506109c2565b60ff8411156109465761094561086d565b5b8360020a91508482111561095d5761095c61086d565b5b506109c2565b5060208310610133831016604e8410600b84101617156109985782820a9050838111156109935761099261086d565b5b6109c2565b6109a584848460016108a6565b925090508184048111156109bc576109bb61086d565b5b81810290505b9392505050565b5f60ff82169050919050565b5f6109df82610676565b91506109ea836109c9565b9250610a177fffffffffffffffffffffffffffffffffffffffffffffffffffffffffffffffff84846108f8565b905092915050565b5f610a2982610676565b9150610a3483610676565b9250828202610a4281610676565b91508282048414831517610a5957610a5861086d565b5b5092915050565b5f73ffffffffffffffffffffffffffffffffffffffff82169050919050565b5f610a8982610a60565b9050919050565b610a9981610a7f565b82525050565b5f602082019050610ab25f830184610a90565b92915050565b5f610ac282610676565b9150610acd83610676565b9250828201905080821115610ae557610ae461086d565b5b92915050565b610af481610676565b82525050565b5f606082019050610b0d5f830186610a90565b610b1a6020830185610aeb565b610b276040830184610aeb565b949350505050565b5f602082019050610b425f830184610aeb565b92915050565b611f7280610b555f395ff3fe608060405234801561000f575f80fd5b5060043610610114575f3560e01c806370a08231116100a057806394ec67561161006f57806394ec6756146102de57806395d89b41146102fa5780639ace38c214610318578063a9059cbb1461034c578063dd62ed3e1461037c57610114565b806370a08231146102445780637b0a60b0146102745780638da5cb5b146102a45780639102891a146102c257610114565b806323b872dd116100e757806323b872dd146101a0578063242232d1146101d0578063313ce567146101ec5780633ca7697d1461020a5780636da2b5521461021457610114565b806306fdde0314610118578063095ea7b31461013657806318160ddd146101665780631e7f8f0f14610184575b5f80fd5b6101206103ac565b60405161012d9190611646565b60405180910390f35b610150600480360381019061014b91906116f7565b61043c565b60405161015d919061174f565b60405180910390f35b61016e61045e565b60405161017b9190611777565b60405180910390f35b61019e600480360381019061019991906116f7565b610467565b005b6101ba60048036038101906101b59190611790565b6105d6565b6040516101c7919061174f565b60405180910390f35b6101ea60048036038101906101e591906117e0565b610604565b005b6101f461084f565b6040516102019190611826565b60405180910390f35b610212610857565b005b61022e6004803603810190610229919061183f565b6109f9565b60405161023b919061174f565b60405180910390f35b61025e6004803603810190610259919061183f565b610a16565b60405161026b9190611777565b60405180910390f35b61028e6004803603810190610289919061183f565b610a5b565b60405161029b919061174f565b60405180910390f35b6102ac610a78565b6040516102b99190611879565b60405180910390f35b6102dc60048036038101906102d7919061183f565b610a9d565b005b6102f860048036038101906102f3919061183f565b610bc3565b005b610302610d3f565b60405161030f9190611646565b60405180910390f35b610332600480360381019061032d91906117e0565b610dcf565b604051610343959493929190611892565b60405180910390f35b610366600480360381019061036191906116f7565b610e4b565b604051610373919061174f565b60405180910390f35b610396600480360381019061039191906118e3565b610e6d565b6040516103a39190611777565b60405180910390f35b6060600380546103bb9061194e565b80601f01602080910402602001604051908101604052809291908181526020018280546103e79061194e565b80156104325780601f1061040957610100808354040283529160200191610432565b820191905f5260205f20905b81548152906001019060200180831161041557829003601f168201915b5050505050905090565b5f80610446610eef565b9050610453818585610ef6565b600191505092915050565b5f600254905090565b8061047133610a16565b10156104b2576040517f08c379a00000000000000000000000000000000000000000000000000000000081526004016104a9906119c8565b60405180910390fd5b5f60095490505f600a5f8381526020019081526020015f20905033815f015f6101000a81548173ffffffffffffffffffffffffffffffffffffffff021916908373ffffffffffffffffffffffffffffffffffffffff16021790555083816001015f6101000a81548173ffffffffffffffffffffffffffffffffffffffff021916908373ffffffffffffffffffffffffffffffffffffffff1602179055508281600201819055505f81600301819055505f816005015f6101000a81548160ff02191690831515021790555060095f81548092919061058e90611a13565b91905055507fe9097a4f4eddc0e5906640fcd9e1193c9db52771536ca4c8b06ab4c40aa045d2823386866040516105c89493929190611a5a565b60405180910390a150505050565b5f806105e0610eef565b90506105ed858285610f08565b6105f8858585610f9a565b60019150509392505050565b60065f3373ffffffffffffffffffffffffffffffffffffffff1673ffffffffffffffffffffffffffffffffffffffff1681526020019081526020015f205f9054906101000a900460ff1661068d576040517f08c379a000000000000000000000000000000000000000000000000000000000815260040161068490611b0d565b60405180910390fd5b5f600a5f8381526020019081526020015f209050806005015f9054906101000a900460ff16156106f2576040517f08c379a00000000000000000000000000000000000000000000000000000000081526004016106e990611b75565b60405180910390fd5b806004015f3373ffffffffffffffffffffffffffffffffffffffff1673ffffffffffffffffffffffffffffffffffffffff1681526020019081526020015f205f9054906101000a900460ff161561077e576040517f08c379a000000000000000000000000000000000000000000000000000000000815260040161077590611c03565b60405180910390fd5b6001816004015f3373ffffffffffffffffffffffffffffffffffffffff1673ffffffffffffffffffffffffffffffffffffffff1681526020019081526020015f205f6101000a81548160ff021916908315150217905550806003015f8154809291906107e990611a13565b91905055507f924813d717e221b5f46dcd8a56da1679e4612584ab3237d55e5faabf6f6a3079823360405161081f929190611c21565b60405180910390a160026008546108369190611c75565b8160030154111561084b5761084a8261108a565b5b5050565b5f6012905090565b60065f3373ffffffffffffffffffffffffffffffffffffffff1673ffffffffffffffffffffffffffffffffffffffff1681526020019081526020015f205f9054906101000a900460ff16156108e1576040517f08c379a00000000000000000000000000000000000000000000000000000000081526004016108d890611cef565b60405180910390fd5b60075f3373ffffffffffffffffffffffffffffffffffffffff1673ffffffffffffffffffffffffffffffffffffffff1681526020019081526020015f205f9054906101000a900460ff161561096b576040517f08c379a000000000000000000000000000000000000000000000000000000000815260040161096290611d57565b60405180910390fd5b600160075f3373ffffffffffffffffffffffffffffffffffffffff1673ffffffffffffffffffffffffffffffffffffffff1681526020019081526020015f205f6101000a81548160ff0219169083151502179055507f80ac0fcf7b2e6101ca51f7fa686995d8766af6abedb2267d0ed8784ce7515a8d336040516109ef9190611879565b60405180910390a1565b6006602052805f5260405f205f915054906101000a900460ff1681565b5f805f8373ffffffffffffffffffffffffffffffffffffffff1673ffffffffffffffffffffffffffffffffffffffff1681526020019081526020015f20549050919050565b6007602052805f5260405f205f915054906101000a900460ff1681565b60055f9054906101000a900473ffffffffffffffffffffffffffffffffffffffff1681565b60065f8273ffffffffffffffffffffffffffffffffffffffff1673ffffffffffffffffffffffffffffffffffffffff1681526020019081526020015f205f9054906101000a900460ff16610b26576040517f08c379a0000000000000000000000000000000000000000000000000000000008152600401610b1d90611dbf565b60405180910390fd5b60085f815480929190610b3890611ddd565b919050555060065f8273ffffffffffffffffffffffffffffffffffffffff1673ffffffffffffffffffffffffffffffffffffffff1681526020019081526020015f205f6101000a81549060ff02191690557f86537fcd7fdb3b362cc725fe5f9da81ae7553ce4fc465e3a0f08799b0fc3bf5581604051610bb89190611879565b60405180910390a150565b60065f8273ffffffffffffffffffffffffffffffffffffffff1673ffffffffffffffffffffffffffffffffffffffff1681526020019081526020015f205f9054906101000a900460ff1615610c4d576040517f08c379a0000000000000000000000000000000000000000000000000000000008152600401610c4490611e4e565b60405180910390fd5b600160065f8373ffffffffffffffffffffffffffffffffffffffff1673ffffffffffffffffffffffffffffffffffffffff1681526020019081526020015f205f6101000a81548160ff02191690831515021790555060085f815480929190610cb490611a13565b919050555060075f8273ffffffffffffffffffffffffffffffffffffffff1673ffffffffffffffffffffffffffffffffffffffff1681526020019081526020015f205f6101000a81549060ff02191690557f5d91bd0cecc45fef102af61de92c5462fadc884a5ce9d21c15e8a85198f2349e81604051610d349190611879565b60405180910390a150565b606060048054610d4e9061194e565b80601f0160208091040260200160405190810160405280929190818152602001828054610d7a9061194e565b8015610dc55780601f10610d9c57610100808354040283529160200191610dc5565b820191905f5260205f20905b815481529060010190602001808311610da857829003601f168201915b5050505050905090565b600a602052805f5260405f205f91509050805f015f9054906101000a900473ffffffffffffffffffffffffffffffffffffffff1690806001015f9054906101000a900473ffffffffffffffffffffffffffffffffffffffff1690806002015490806003015490806005015f9054906101000a900460ff16905085565b5f80610e55610eef565b9050610e62818585610f9a565b600191505092915050565b5f60015f8473ffffffffffffffffffffffffffffffffffffffff1673ffffffffffffffffffffffffffffffffffffffff1681526020019081526020015f205f8373ffffffffffffffffffffffffffffffffffffffff1673ffffffffffffffffffffffffffffffffffffffff1681526020019081526020015f2054905092915050565b5f33905090565b610f0383838360016111ee565b505050565b5f610f138484610e6d565b90507fffffffffffffffffffffffffffffffffffffffffffffffffffffffffffffffff8114610f945781811015610f85578281836040517ffb8f41b2000000000000000000000000000000000000000000000000000000008152600401610f7c93929190611e6c565b60405180910390fd5b610f9384848484035f6111ee565b5b50505050565b5f73ffffffffffffffffffffffffffffffffffffffff168373ffffffffffffffffffffffffffffffffffffffff160361100a575f6040517f96c6fd1e0000000000000000000000000000000000000000000000000000000081526004016110019190611879565b60405180910390fd5b5f73ffffffffffffffffffffffffffffffffffffffff168273ffffffffffffffffffffffffffffffffffffffff160361107a575f6040517fec442f050000000000000000000000000000000000000000000000000000000081526004016110719190611879565b60405180910390fd5b6110858383836113bd565b505050565b5f600a5f8381526020019081526020015f209050806005015f9054906101000a900460ff16156110ef576040517f08c379a00000000000000000000000000000000000000000000000000000000081526004016110e690611b75565b60405180910390fd5b60026008546110fe9190611c75565b816003015411611143576040517f08c379a000000000000000000000000000000000000000000000000000000000815260040161113a90611eeb565b60405180910390fd5b6001816005015f6101000a81548160ff0219169083151502179055506111b3815f015f9054906101000a900473ffffffffffffffffffffffffffffffffffffffff16826001015f9054906101000a900473ffffffffffffffffffffffffffffffffffffffff168360020154610f9a565b7f15ed165a284872ea7017f03df402a0cadfbfab588320ffaf83f160c2f82781c7826040516111e29190611777565b60405180910390a15050565b5f73ffffffffffffffffffffffffffffffffffffffff168473ffffffffffffffffffffffffffffffffffffffff160361125e575f6040517fe602df050000000000000000000000000000000000000000000000000000000081526004016112559190611879565b60405180910390fd5b5f73ffffffffffffffffffffffffffffffffffffffff168373ffffffffffffffffffffffffffffffffffffffff16036112ce575f6040517f94280d620000000000000000000000000000000000000000000000000000000081526004016112c59190611879565b60405180910390fd5b8160015f8673ffffffffffffffffffffffffffffffffffffffff1673ffffffffffffffffffffffffffffffffffffffff1681526020019081526020015f205f8573ffffffffffffffffffffffffffffffffffffffff1673ffffffffffffffffffffffffffffffffffffffff1681526020019081526020015f208190555080156113b7578273ffffffffffffffffffffffffffffffffffffffff168473ffffffffffffffffffffffffffffffffffffffff167f8c5be1e5ebec7d5bd14f71427d1e84f3dd0314c0f7b2291e5b200ac8c7c3b925846040516113ae9190611777565b60405180910390a35b50505050565b5f73ffffffffffffffffffffffffffffffffffffffff168373ffffffffffffffffffffffffffffffffffffffff160361140d578060025f8282546114019190611f09565b925050819055506114db565b5f805f8573ffffffffffffffffffffffffffffffffffffffff1673ffffffffffffffffffffffffffffffffffffffff1681526020019081526020015f2054905081811015611496578381836040517fe450d38c00000000000000000000000000000000000000000000000000000000815260040161148d93929190611e6c565b60405180910390fd5b8181035f808673ffffffffffffffffffffffffffffffffffffffff1673ffffffffffffffffffffffffffffffffffffffff1681526020019081526020015f2081905550505b5f73ffffffffffffffffffffffffffffffffffffffff168273ffffffffffffffffffffffffffffffffffffffff1603611522578060025f828254039250508190555061156c565b805f808473ffffffffffffffffffffffffffffffffffffffff1673ffffffffffffffffffffffffffffffffffffffff1681526020019081526020015f205f82825401925050819055505b8173ffffffffffffffffffffffffffffffffffffffff168373ffffffffffffffffffffffffffffffffffffffff167fddf252ad1be2c89b69c2b068fc378daa952ba7f163c4a11628f55a4df523b3ef836040516115c99190611777565b60405180910390a3505050565b5f81519050919050565b5f82825260208201905092915050565b8281835e5f83830152505050565b5f601f19601f8301169050919050565b5f611618826115d6565b61162281856115e0565b93506116328185602086016115f0565b61163b816115fe565b840191505092915050565b5f6020820190508181035f83015261165e818461160e565b905092915050565b5f80fd5b5f73ffffffffffffffffffffffffffffffffffffffff82169050919050565b5f6116938261166a565b9050919050565b6116a381611689565b81146116ad575f80fd5b50565b5f813590506116be8161169a565b92915050565b5f819050919050565b6116d6816116c4565b81146116e0575f80fd5b50565b5f813590506116f1816116cd565b92915050565b5f806040838503121561170d5761170c611666565b5b5f61171a858286016116b0565b925050602061172b858286016116e3565b9150509250929050565b5f8115159050919050565b61174981611735565b82525050565b5f6020820190506117625f830184611740565b92915050565b611771816116c4565b82525050565b5f60208201905061178a5f830184611768565b92915050565b5f805f606084860312156117a7576117a6611666565b5b5f6117b4868287016116b0565b93505060206117c5868287016116b0565b92505060406117d6868287016116e3565b9150509250925092565b5f602082840312156117f5576117f4611666565b5b5f611802848285016116e3565b91505092915050565b5f60ff82169050919050565b6118208161180b565b82525050565b5f6020820190506118395f830184611817565b92915050565b5f6020828403121561185457611853611666565b5b5f611861848285016116b0565b91505092915050565b61187381611689565b82525050565b5f60208201905061188c5f83018461186a565b92915050565b5f60a0820190506118a55f83018861186a565b6118b2602083018761186a565b6118bf6040830186611768565b6118cc6060830185611768565b6118d96080830184611740565b9695505050505050565b5f80604083850312156118f9576118f8611666565b5b5f611906858286016116b0565b9250506020611917858286016116b0565b9150509250929050565b7f4e487b71000000000000000000000000000000000000000000000000000000005f52602260045260245ffd5b5f600282049050600182168061196557607f821691505b60208210810361197857611977611921565b5b50919050565b7f596f7520646f6e2774206861766520656e6f75676820746f6b656e73000000005f82015250565b5f6119b2601c836115e0565b91506119bd8261197e565b602082019050919050565b5f6020820190508181035f8301526119df816119a6565b9050919050565b7f4e487b71000000000000000000000000000000000000000000000000000000005f52601160045260245ffd5b5f611a1d826116c4565b91507fffffffffffffffffffffffffffffffffffffffffffffffffffffffffffffffff8203611a4f57611a4e6119e6565b5b600182019050919050565b5f608082019050611a6d5f830187611768565b611a7a602083018661186a565b611a87604083018561186a565b611a946060830184611768565b95945050505050565b7f4f6e6c7920617070726f766572732063616e20657865637574652074686973205f8201527f66756e6374696f6e000000000000000000000000000000000000000000000000602082015250565b5f611af76028836115e0565b9150611b0282611a9d565b604082019050919050565b5f6020820190508181035f830152611b2481611aeb565b9050919050565b7f5472616e73616374696f6e20616c7265616479206578656375746564000000005f82015250565b5f611b5f601c836115e0565b9150611b6a82611b2b565b602082019050919050565b5f6020820190508181035f830152611b8c81611b53565b9050919050565b7f5472616e73616374696f6e20616c726561647920617070726f766564206279205f8201527f7468697320617070726f76657200000000000000000000000000000000000000602082015250565b5f611bed602d836115e0565b9150611bf882611b93565b604082019050919050565b5f6020820190508181035f830152611c1a81611be1565b9050919050565b5f604082019050611c345f830185611768565b611c41602083018461186a565b9392505050565b7f4e487b71000000000000000000000000000000000000000000000000000000005f52601260045260245ffd5b5f611c7f826116c4565b9150611c8a836116c4565b925082611c9a57611c99611c48565b5b828204905092915050565b7f596f752061726520616c726561647920617070726f76656400000000000000005f82015250565b5f611cd96018836115e0565b9150611ce482611ca5565b602082019050919050565b5f6020820190508181035f830152611d0681611ccd565b9050919050565b7f596f75206861766520616c7265616479206170706c69656400000000000000005f82015250565b5f611d416018836115e0565b9150611d4c82611d0d565b602082019050919050565b5f6020820190508181035f830152611d6e81611d35565b9050919050565b7f41646472657373204e6f7420466f756e640000000000000000000000000000005f82015250565b5f611da96011836115e0565b9150611db482611d75565b602082019050919050565b5f6020820190508181035f830152611dd681611d9d565b9050919050565b5f611de7826116c4565b91505f8203611df957611df86119e6565b5b600182039050919050565b7f546865204164647265737320697320616c726561647920617070726f766564005f82015250565b5f611e38601f836115e0565b9150611e4382611e04565b602082019050919050565b5f6020820190508181035f830152611e6581611e2c565b9050919050565b5f606082019050611e7f5f83018661186a565b611e8c6020830185611768565b611e996040830184611768565b949350505050565b7f496e73756666696369656e7420417070726f76616c73000000000000000000005f82015250565b5f611ed56016836115e0565b9150611ee082611ea1565b602082019050919050565b5f6020820190508181035f830152611f0281611ec9565b9050919050565b5f611f13826116c4565b9150611f1e836116c4565b9250828201905080821115611f3657611f356119e6565b5b9291505056fea26469706673582212203e3669282e6bd449d183866e664e2b6b174f5eff64d99bfef8640b10a52de39b64736f6c634300081a0033",
					"opcodes": "PUSH1 0x80 PUSH1 0x40 MSTORE CALLVALUE DUP1 ISZERO PUSH2 0xF JUMPI PUSH0 DUP1 REVERT JUMPDEST POP PUSH1 0x40 MLOAD PUSH2 0x2AC7 CODESIZE SUB DUP1 PUSH2 0x2AC7 DUP4 CODECOPY DUP2 DUP2 ADD PUSH1 0x40 MSTORE DUP2 ADD SWAP1 PUSH2 0x31 SWAP2 SWAP1 PUSH2 0x51B JUMP JUMPDEST DUP2 DUP2 DUP2 PUSH1 0x3 SWAP1 DUP2 PUSH2 0x42 SWAP2 SWAP1 PUSH2 0x79E JUMP JUMPDEST POP DUP1 PUSH1 0x4 SWAP1 DUP2 PUSH2 0x52 SWAP2 SWAP1 PUSH2 0x79E JUMP JUMPDEST POP POP POP CALLER PUSH1 0x5 PUSH0 PUSH2 0x100 EXP DUP2 SLOAD DUP2 PUSH20 0xFFFFFFFFFFFFFFFFFFFFFFFFFFFFFFFFFFFFFFFF MUL NOT AND SWAP1 DUP4 PUSH20 0xFFFFFFFFFFFFFFFFFFFFFFFFFFFFFFFFFFFFFFFF AND MUL OR SWAP1 SSTORE POP PUSH1 0x1 PUSH1 0x6 PUSH0 CALLER PUSH20 0xFFFFFFFFFFFFFFFFFFFFFFFFFFFFFFFFFFFFFFFF AND PUSH20 0xFFFFFFFFFFFFFFFFFFFFFFFFFFFFFFFFFFFFFFFF AND DUP2 MSTORE PUSH1 0x20 ADD SWAP1 DUP2 MSTORE PUSH1 0x20 ADD PUSH0 KECCAK256 PUSH0 PUSH2 0x100 EXP DUP2 SLOAD DUP2 PUSH1 0xFF MUL NOT AND SWAP1 DUP4 ISZERO ISZERO MUL OR SWAP1 SSTORE POP PUSH2 0x121 CALLER PUSH2 0xFC PUSH2 0x128 PUSH1 0x20 SHL PUSH1 0x20 SHR JUMP JUMPDEST PUSH1 0xA PUSH2 0x108 SWAP2 SWAP1 PUSH2 0x9D5 JUMP JUMPDEST PUSH3 0xF4240 PUSH2 0x116 SWAP2 SWAP1 PUSH2 0xA1F JUMP JUMPDEST PUSH2 0x130 PUSH1 0x20 SHL PUSH1 0x20 SHR JUMP JUMPDEST POP POP PUSH2 0xB48 JUMP JUMPDEST PUSH0 PUSH1 0x12 SWAP1 POP SWAP1 JUMP JUMPDEST PUSH0 PUSH20 0xFFFFFFFFFFFFFFFFFFFFFFFFFFFFFFFFFFFFFFFF AND DUP3 PUSH20 0xFFFFFFFFFFFFFFFFFFFFFFFFFFFFFFFFFFFFFFFF AND SUB PUSH2 0x1A0 JUMPI PUSH0 PUSH1 0x40 MLOAD PUSH32 0xEC442F0500000000000000000000000000000000000000000000000000000000 DUP2 MSTORE PUSH1 0x4 ADD PUSH2 0x197 SWAP2 SWAP1 PUSH2 0xA9F JUMP JUMPDEST PUSH1 0x40 MLOAD DUP1 SWAP2 SUB SWAP1 REVERT JUMPDEST PUSH2 0x1B1 PUSH0 DUP4 DUP4 PUSH2 0x1B5 PUSH1 0x20 SHL PUSH1 0x20 SHR JUMP JUMPDEST POP POP JUMP JUMPDEST PUSH0 PUSH20 0xFFFFFFFFFFFFFFFFFFFFFFFFFFFFFFFFFFFFFFFF AND DUP4 PUSH20 0xFFFFFFFFFFFFFFFFFFFFFFFFFFFFFFFFFFFFFFFF AND SUB PUSH2 0x205 JUMPI DUP1 PUSH1 0x2 PUSH0 DUP3 DUP3 SLOAD PUSH2 0x1F9 SWAP2 SWAP1 PUSH2 0xAB8 JUMP JUMPDEST SWAP3 POP POP DUP2 SWAP1 SSTORE POP PUSH2 0x2D3 JUMP JUMPDEST PUSH0 DUP1 PUSH0 DUP6 PUSH20 0xFFFFFFFFFFFFFFFFFFFFFFFFFFFFFFFFFFFFFFFF AND PUSH20 0xFFFFFFFFFFFFFFFFFFFFFFFFFFFFFFFFFFFFFFFF AND DUP2 MSTORE PUSH1 0x20 ADD SWAP1 DUP2 MSTORE PUSH1 0x20 ADD PUSH0 KECCAK256 SLOAD SWAP1 POP DUP2 DUP2 LT ISZERO PUSH2 0x28E JUMPI DUP4 DUP2 DUP4 PUSH1 0x40 MLOAD PUSH32 0xE450D38C00000000000000000000000000000000000000000000000000000000 DUP2 MSTORE PUSH1 0x4 ADD PUSH2 0x285 SWAP4 SWAP3 SWAP2 SWAP1 PUSH2 0xAFA JUMP JUMPDEST PUSH1 0x40 MLOAD DUP1 SWAP2 SUB SWAP1 REVERT JUMPDEST DUP2 DUP2 SUB PUSH0 DUP1 DUP7 PUSH20 0xFFFFFFFFFFFFFFFFFFFFFFFFFFFFFFFFFFFFFFFF AND PUSH20 0xFFFFFFFFFFFFFFFFFFFFFFFFFFFFFFFFFFFFFFFF AND DUP2 MSTORE PUSH1 0x20 ADD SWAP1 DUP2 MSTORE PUSH1 0x20 ADD PUSH0 KECCAK256 DUP2 SWAP1 SSTORE POP POP JUMPDEST PUSH0 PUSH20 0xFFFFFFFFFFFFFFFFFFFFFFFFFFFFFFFFFFFFFFFF AND DUP3 PUSH20 0xFFFFFFFFFFFFFFFFFFFFFFFFFFFFFFFFFFFFFFFF AND SUB PUSH2 0x31A JUMPI DUP1 PUSH1 0x2 PUSH0 DUP3 DUP3 SLOAD SUB SWAP3 POP POP DUP2 SWAP1 SSTORE POP PUSH2 0x364 JUMP JUMPDEST DUP1 PUSH0 DUP1 DUP5 PUSH20 0xFFFFFFFFFFFFFFFFFFFFFFFFFFFFFFFFFFFFFFFF AND PUSH20 0xFFFFFFFFFFFFFFFFFFFFFFFFFFFFFFFFFFFFFFFF AND DUP2 MSTORE PUSH1 0x20 ADD SWAP1 DUP2 MSTORE PUSH1 0x20 ADD PUSH0 KECCAK256 PUSH0 DUP3 DUP3 SLOAD ADD SWAP3 POP POP DUP2 SWAP1 SSTORE POP JUMPDEST DUP2 PUSH20 0xFFFFFFFFFFFFFFFFFFFFFFFFFFFFFFFFFFFFFFFF AND DUP4 PUSH20 0xFFFFFFFFFFFFFFFFFFFFFFFFFFFFFFFFFFFFFFFF AND PUSH32 0xDDF252AD1BE2C89B69C2B068FC378DAA952BA7F163C4A11628F55A4DF523B3EF DUP4 PUSH1 0x40 MLOAD PUSH2 0x3C1 SWAP2 SWAP1 PUSH2 0xB2F JUMP JUMPDEST PUSH1 0x40 MLOAD DUP1 SWAP2 SUB SWAP1 LOG3 POP POP POP JUMP JUMPDEST PUSH0 PUSH1 0x40 MLOAD SWAP1 POP SWAP1 JUMP JUMPDEST PUSH0 DUP1 REVERT JUMPDEST PUSH0 DUP1 REVERT JUMPDEST PUSH0 DUP1 REVERT JUMPDEST PUSH0 DUP1 REVERT JUMPDEST PUSH0 PUSH1 0x1F NOT PUSH1 0x1F DUP4 ADD AND SWAP1 POP SWAP2 SWAP1 POP JUMP JUMPDEST PUSH32 0x4E487B7100000000000000000000000000000000000000000000000000000000 PUSH0 MSTORE PUSH1 0x41 PUSH1 0x4 MSTORE PUSH1 0x24 PUSH0 REVERT JUMPDEST PUSH2 0x42D DUP3 PUSH2 0x3E7 JUMP JUMPDEST DUP2 ADD DUP2 DUP2 LT PUSH8 0xFFFFFFFFFFFFFFFF DUP3 GT OR ISZERO PUSH2 0x44C JUMPI PUSH2 0x44B PUSH2 0x3F7 JUMP JUMPDEST JUMPDEST DUP1 PUSH1 0x40 MSTORE POP POP POP JUMP JUMPDEST PUSH0 PUSH2 0x45E PUSH2 0x3CE JUMP JUMPDEST SWAP1 POP PUSH2 0x46A DUP3 DUP3 PUSH2 0x424 JUMP JUMPDEST SWAP2 SWAP1 POP JUMP JUMPDEST PUSH0 PUSH8 0xFFFFFFFFFFFFFFFF DUP3 GT ISZERO PUSH2 0x489 JUMPI PUSH2 0x488 PUSH2 0x3F7 JUMP JUMPDEST JUMPDEST PUSH2 0x492 DUP3 PUSH2 0x3E7 JUMP JUMPDEST SWAP1 POP PUSH1 0x20 DUP2 ADD SWAP1 POP SWAP2 SWAP1 POP JUMP JUMPDEST DUP3 DUP2 DUP4 MCOPY PUSH0 DUP4 DUP4 ADD MSTORE POP POP POP JUMP JUMPDEST PUSH0 PUSH2 0x4BF PUSH2 0x4BA DUP5 PUSH2 0x46F JUMP JUMPDEST PUSH2 0x455 JUMP JUMPDEST SWAP1 POP DUP3 DUP2 MSTORE PUSH1 0x20 DUP2 ADD DUP5 DUP5 DUP5 ADD GT ISZERO PUSH2 0x4DB JUMPI PUSH2 0x4DA PUSH2 0x3E3 JUMP JUMPDEST JUMPDEST PUSH2 0x4E6 DUP5 DUP3 DUP6 PUSH2 0x49F JUMP JUMPDEST POP SWAP4 SWAP3 POP POP POP JUMP JUMPDEST PUSH0 DUP3 PUSH1 0x1F DUP4 ADD SLT PUSH2 0x502 JUMPI PUSH2 0x501 PUSH2 0x3DF JUMP JUMPDEST JUMPDEST DUP2 MLOAD PUSH2 0x512 DUP5 DUP3 PUSH1 0x20 DUP7 ADD PUSH2 0x4AD JUMP JUMPDEST SWAP2 POP POP SWAP3 SWAP2 POP POP JUMP JUMPDEST PUSH0 DUP1 PUSH1 0x40 DUP4 DUP6 SUB SLT ISZERO PUSH2 0x531 JUMPI PUSH2 0x530 PUSH2 0x3D7 JUMP JUMPDEST JUMPDEST PUSH0 DUP4 ADD MLOAD PUSH8 0xFFFFFFFFFFFFFFFF DUP2 GT ISZERO PUSH2 0x54E JUMPI PUSH2 0x54D PUSH2 0x3DB JUMP JUMPDEST JUMPDEST PUSH2 0x55A DUP6 DUP3 DUP7 ADD PUSH2 0x4EE JUMP JUMPDEST SWAP3 POP POP PUSH1 0x20 DUP4 ADD MLOAD PUSH8 0xFFFFFFFFFFFFFFFF DUP2 GT ISZERO PUSH2 0x57B JUMPI PUSH2 0x57A PUSH2 0x3DB JUMP JUMPDEST JUMPDEST PUSH2 0x587 DUP6 DUP3 DUP7 ADD PUSH2 0x4EE JUMP JUMPDEST SWAP2 POP POP SWAP3 POP SWAP3 SWAP1 POP JUMP JUMPDEST PUSH0 DUP2 MLOAD SWAP1 POP SWAP2 SWAP1 POP JUMP JUMPDEST PUSH32 0x4E487B7100000000000000000000000000000000000000000000000000000000 PUSH0 MSTORE PUSH1 0x22 PUSH1 0x4 MSTORE PUSH1 0x24 PUSH0 REVERT JUMPDEST PUSH0 PUSH1 0x2 DUP3 DIV SWAP1 POP PUSH1 0x1 DUP3 AND DUP1 PUSH2 0x5DF JUMPI PUSH1 0x7F DUP3 AND SWAP2 POP JUMPDEST PUSH1 0x20 DUP3 LT DUP2 SUB PUSH2 0x5F2 JUMPI PUSH2 0x5F1 PUSH2 0x59B JUMP JUMPDEST JUMPDEST POP SWAP2 SWAP1 POP JUMP JUMPDEST PUSH0 DUP2 SWAP1 POP DUP2 PUSH0 MSTORE PUSH1 0x20 PUSH0 KECCAK256 SWAP1 POP SWAP2 SWAP1 POP JUMP JUMPDEST PUSH0 PUSH1 0x20 PUSH1 0x1F DUP4 ADD DIV SWAP1 POP SWAP2 SWAP1 POP JUMP JUMPDEST PUSH0 DUP3 DUP3 SHL SWAP1 POP SWAP3 SWAP2 POP POP JUMP JUMPDEST PUSH0 PUSH1 0x8 DUP4 MUL PUSH2 0x654 PUSH32 0xFFFFFFFFFFFFFFFFFFFFFFFFFFFFFFFFFFFFFFFFFFFFFFFFFFFFFFFFFFFFFFFF DUP3 PUSH2 0x619 JUMP JUMPDEST PUSH2 0x65E DUP7 DUP4 PUSH2 0x619 JUMP JUMPDEST SWAP6 POP DUP1 NOT DUP5 AND SWAP4 POP DUP1 DUP7 AND DUP5 OR SWAP3 POP POP POP SWAP4 SWAP3 POP POP POP JUMP JUMPDEST PUSH0 DUP2 SWAP1 POP SWAP2 SWAP1 POP JUMP JUMPDEST PUSH0 DUP2 SWAP1 POP SWAP2 SWAP1 POP JUMP JUMPDEST PUSH0 PUSH2 0x6A2 PUSH2 0x69D PUSH2 0x698 DUP5 PUSH2 0x676 JUMP JUMPDEST PUSH2 0x67F JUMP JUMPDEST PUSH2 0x676 JUMP JUMPDEST SWAP1 POP SWAP2 SWAP1 POP JUMP JUMPDEST PUSH0 DUP2 SWAP1 POP SWAP2 SWAP1 POP JUMP JUMPDEST PUSH2 0x6BB DUP4 PUSH2 0x688 JUMP JUMPDEST PUSH2 0x6CF PUSH2 0x6C7 DUP3 PUSH2 0x6A9 JUMP JUMPDEST DUP5 DUP5 SLOAD PUSH2 0x625 JUMP JUMPDEST DUP3 SSTORE POP POP POP POP JUMP JUMPDEST PUSH0 SWAP1 JUMP JUMPDEST PUSH2 0x6E3 PUSH2 0x6D7 JUMP JUMPDEST PUSH2 0x6EE DUP2 DUP5 DUP5 PUSH2 0x6B2 JUMP JUMPDEST POP POP POP JUMP JUMPDEST JUMPDEST DUP2 DUP2 LT ISZERO PUSH2 0x711 JUMPI PUSH2 0x706 PUSH0 DUP3 PUSH2 0x6DB JUMP JUMPDEST PUSH1 0x1 DUP2 ADD SWAP1 POP PUSH2 0x6F4 JUMP JUMPDEST POP POP JUMP JUMPDEST PUSH1 0x1F DUP3 GT ISZERO PUSH2 0x756 JUMPI PUSH2 0x727 DUP2 PUSH2 0x5F8 JUMP JUMPDEST PUSH2 0x730 DUP5 PUSH2 0x60A JUMP JUMPDEST DUP2 ADD PUSH1 0x20 DUP6 LT ISZERO PUSH2 0x73F JUMPI DUP2 SWAP1 POP JUMPDEST PUSH2 0x753 PUSH2 0x74B DUP6 PUSH2 0x60A JUMP JUMPDEST DUP4 ADD DUP3 PUSH2 0x6F3 JUMP JUMPDEST POP POP JUMPDEST POP POP POP JUMP JUMPDEST PUSH0 DUP3 DUP3 SHR SWAP1 POP SWAP3 SWAP2 POP POP JUMP JUMPDEST PUSH0 PUSH2 0x776 PUSH0 NOT DUP5 PUSH1 0x8 MUL PUSH2 0x75B JUMP JUMPDEST NOT DUP1 DUP4 AND SWAP2 POP POP SWAP3 SWAP2 POP POP JUMP JUMPDEST PUSH0 PUSH2 0x78E DUP4 DUP4 PUSH2 0x767 JUMP JUMPDEST SWAP2 POP DUP3 PUSH1 0x2 MUL DUP3 OR SWAP1 POP SWAP3 SWAP2 POP POP JUMP JUMPDEST PUSH2 0x7A7 DUP3 PUSH2 0x591 JUMP JUMPDEST PUSH8 0xFFFFFFFFFFFFFFFF DUP2 GT ISZERO PUSH2 0x7C0 JUMPI PUSH2 0x7BF PUSH2 0x3F7 JUMP JUMPDEST JUMPDEST PUSH2 0x7CA DUP3 SLOAD PUSH2 0x5C8 JUMP JUMPDEST PUSH2 0x7D5 DUP3 DUP3 DUP6 PUSH2 0x715 JUMP JUMPDEST PUSH0 PUSH1 0x20 SWAP1 POP PUSH1 0x1F DUP4 GT PUSH1 0x1 DUP2 EQ PUSH2 0x806 JUMPI PUSH0 DUP5 ISZERO PUSH2 0x7F4 JUMPI DUP3 DUP8 ADD MLOAD SWAP1 POP JUMPDEST PUSH2 0x7FE DUP6 DUP3 PUSH2 0x783 JUMP JUMPDEST DUP7 SSTORE POP PUSH2 0x865 JUMP JUMPDEST PUSH1 0x1F NOT DUP5 AND PUSH2 0x814 DUP7 PUSH2 0x5F8 JUMP JUMPDEST PUSH0 JUMPDEST DUP3 DUP2 LT ISZERO PUSH2 0x83B JUMPI DUP5 DUP10 ADD MLOAD DUP3 SSTORE PUSH1 0x1 DUP3 ADD SWAP2 POP PUSH1 0x20 DUP6 ADD SWAP5 POP PUSH1 0x20 DUP2 ADD SWAP1 POP PUSH2 0x816 JUMP JUMPDEST DUP7 DUP4 LT ISZERO PUSH2 0x858 JUMPI DUP5 DUP10 ADD MLOAD PUSH2 0x854 PUSH1 0x1F DUP10 AND DUP3 PUSH2 0x767 JUMP JUMPDEST DUP4 SSTORE POP JUMPDEST PUSH1 0x1 PUSH1 0x2 DUP9 MUL ADD DUP9 SSTORE POP POP POP JUMPDEST POP POP POP POP POP POP JUMP JUMPDEST PUSH32 0x4E487B7100000000000000000000000000000000000000000000000000000000 PUSH0 MSTORE PUSH1 0x11 PUSH1 0x4 MSTORE PUSH1 0x24 PUSH0 REVERT JUMPDEST PUSH0 DUP2 PUSH1 0x1 SHR SWAP1 POP SWAP2 SWAP1 POP JUMP JUMPDEST PUSH0 DUP1 DUP3 SWAP2 POP DUP4 SWAP1 POP JUMPDEST PUSH1 0x1 DUP6 GT ISZERO PUSH2 0x8EF JUMPI DUP1 DUP7 DIV DUP2 GT ISZERO PUSH2 0x8CB JUMPI PUSH2 0x8CA PUSH2 0x86D JUMP JUMPDEST JUMPDEST PUSH1 0x1 DUP6 AND ISZERO PUSH2 0x8DA JUMPI DUP1 DUP3 MUL SWAP2 POP JUMPDEST DUP1 DUP2 MUL SWAP1 POP PUSH2 0x8E8 DUP6 PUSH2 0x89A JUMP JUMPDEST SWAP5 POP PUSH2 0x8AF JUMP JUMPDEST SWAP5 POP SWAP5 SWAP3 POP POP POP JUMP JUMPDEST PUSH0 DUP3 PUSH2 0x907 JUMPI PUSH1 0x1 SWAP1 POP PUSH2 0x9C2 JUMP JUMPDEST DUP2 PUSH2 0x914 JUMPI PUSH0 SWAP1 POP PUSH2 0x9C2 JUMP JUMPDEST DUP2 PUSH1 0x1 DUP2 EQ PUSH2 0x92A JUMPI PUSH1 0x2 DUP2 EQ PUSH2 0x934 JUMPI PUSH2 0x963 JUMP JUMPDEST PUSH1 0x1 SWAP2 POP POP PUSH2 0x9C2 JUMP JUMPDEST PUSH1 0xFF DUP5 GT ISZERO PUSH2 0x946 JUMPI PUSH2 0x945 PUSH2 0x86D JUMP JUMPDEST JUMPDEST DUP4 PUSH1 0x2 EXP SWAP2 POP DUP5 DUP3 GT ISZERO PUSH2 0x95D JUMPI PUSH2 0x95C PUSH2 0x86D JUMP JUMPDEST JUMPDEST POP PUSH2 0x9C2 JUMP JUMPDEST POP PUSH1 0x20 DUP4 LT PUSH2 0x133 DUP4 LT AND PUSH1 0x4E DUP5 LT PUSH1 0xB DUP5 LT AND OR ISZERO PUSH2 0x998 JUMPI DUP3 DUP3 EXP SWAP1 POP DUP4 DUP2 GT ISZERO PUSH2 0x993 JUMPI PUSH2 0x992 PUSH2 0x86D JUMP JUMPDEST JUMPDEST PUSH2 0x9C2 JUMP JUMPDEST PUSH2 0x9A5 DUP5 DUP5 DUP5 PUSH1 0x1 PUSH2 0x8A6 JUMP JUMPDEST SWAP3 POP SWAP1 POP DUP2 DUP5 DIV DUP2 GT ISZERO PUSH2 0x9BC JUMPI PUSH2 0x9BB PUSH2 0x86D JUMP JUMPDEST JUMPDEST DUP2 DUP2 MUL SWAP1 POP JUMPDEST SWAP4 SWAP3 POP POP POP JUMP JUMPDEST PUSH0 PUSH1 0xFF DUP3 AND SWAP1 POP SWAP2 SWAP1 POP JUMP JUMPDEST PUSH0 PUSH2 0x9DF DUP3 PUSH2 0x676 JUMP JUMPDEST SWAP2 POP PUSH2 0x9EA DUP4 PUSH2 0x9C9 JUMP JUMPDEST SWAP3 POP PUSH2 0xA17 PUSH32 0xFFFFFFFFFFFFFFFFFFFFFFFFFFFFFFFFFFFFFFFFFFFFFFFFFFFFFFFFFFFFFFFF DUP5 DUP5 PUSH2 0x8F8 JUMP JUMPDEST SWAP1 POP SWAP3 SWAP2 POP POP JUMP JUMPDEST PUSH0 PUSH2 0xA29 DUP3 PUSH2 0x676 JUMP JUMPDEST SWAP2 POP PUSH2 0xA34 DUP4 PUSH2 0x676 JUMP JUMPDEST SWAP3 POP DUP3 DUP3 MUL PUSH2 0xA42 DUP2 PUSH2 0x676 JUMP JUMPDEST SWAP2 POP DUP3 DUP3 DIV DUP5 EQ DUP4 ISZERO OR PUSH2 0xA59 JUMPI PUSH2 0xA58 PUSH2 0x86D JUMP JUMPDEST JUMPDEST POP SWAP3 SWAP2 POP POP JUMP JUMPDEST PUSH0 PUSH20 0xFFFFFFFFFFFFFFFFFFFFFFFFFFFFFFFFFFFFFFFF DUP3 AND SWAP1 POP SWAP2 SWAP1 POP JUMP JUMPDEST PUSH0 PUSH2 0xA89 DUP3 PUSH2 0xA60 JUMP JUMPDEST SWAP1 POP SWAP2 SWAP1 POP JUMP JUMPDEST PUSH2 0xA99 DUP2 PUSH2 0xA7F JUMP JUMPDEST DUP3 MSTORE POP POP JUMP JUMPDEST PUSH0 PUSH1 0x20 DUP3 ADD SWAP1 POP PUSH2 0xAB2 PUSH0 DUP4 ADD DUP5 PUSH2 0xA90 JUMP JUMPDEST SWAP3 SWAP2 POP POP JUMP JUMPDEST PUSH0 PUSH2 0xAC2 DUP3 PUSH2 0x676 JUMP JUMPDEST SWAP2 POP PUSH2 0xACD DUP4 PUSH2 0x676 JUMP JUMPDEST SWAP3 POP DUP3 DUP3 ADD SWAP1 POP DUP1 DUP3 GT ISZERO PUSH2 0xAE5 JUMPI PUSH2 0xAE4 PUSH2 0x86D JUMP JUMPDEST JUMPDEST SWAP3 SWAP2 POP POP JUMP JUMPDEST PUSH2 0xAF4 DUP2 PUSH2 0x676 JUMP JUMPDEST DUP3 MSTORE POP POP JUMP JUMPDEST PUSH0 PUSH1 0x60 DUP3 ADD SWAP1 POP PUSH2 0xB0D PUSH0 DUP4 ADD DUP7 PUSH2 0xA90 JUMP JUMPDEST PUSH2 0xB1A PUSH1 0x20 DUP4 ADD DUP6 PUSH2 0xAEB JUMP JUMPDEST PUSH2 0xB27 PUSH1 0x40 DUP4 ADD DUP5 PUSH2 0xAEB JUMP JUMPDEST SWAP5 SWAP4 POP POP POP POP JUMP JUMPDEST PUSH0 PUSH1 0x20 DUP3 ADD SWAP1 POP PUSH2 0xB42 PUSH0 DUP4 ADD DUP5 PUSH2 0xAEB JUMP JUMPDEST SWAP3 SWAP2 POP POP JUMP JUMPDEST PUSH2 0x1F72 DUP1 PUSH2 0xB55 PUSH0 CODECOPY PUSH0 RETURN INVALID PUSH1 0x80 PUSH1 0x40 MSTORE CALLVALUE DUP1 ISZERO PUSH2 0xF JUMPI PUSH0 DUP1 REVERT JUMPDEST POP PUSH1 0x4 CALLDATASIZE LT PUSH2 0x114 JUMPI PUSH0 CALLDATALOAD PUSH1 0xE0 SHR DUP1 PUSH4 0x70A08231 GT PUSH2 0xA0 JUMPI DUP1 PUSH4 0x94EC6756 GT PUSH2 0x6F JUMPI DUP1 PUSH4 0x94EC6756 EQ PUSH2 0x2DE JUMPI DUP1 PUSH4 0x95D89B41 EQ PUSH2 0x2FA JUMPI DUP1 PUSH4 0x9ACE38C2 EQ PUSH2 0x318 JUMPI DUP1 PUSH4 0xA9059CBB EQ PUSH2 0x34C JUMPI DUP1 PUSH4 0xDD62ED3E EQ PUSH2 0x37C JUMPI PUSH2 0x114 JUMP JUMPDEST DUP1 PUSH4 0x70A08231 EQ PUSH2 0x244 JUMPI DUP1 PUSH4 0x7B0A60B0 EQ PUSH2 0x274 JUMPI DUP1 PUSH4 0x8DA5CB5B EQ PUSH2 0x2A4 JUMPI DUP1 PUSH4 0x9102891A EQ PUSH2 0x2C2 JUMPI PUSH2 0x114 JUMP JUMPDEST DUP1 PUSH4 0x23B872DD GT PUSH2 0xE7 JUMPI DUP1 PUSH4 0x23B872DD EQ PUSH2 0x1A0 JUMPI DUP1 PUSH4 0x242232D1 EQ PUSH2 0x1D0 JUMPI DUP1 PUSH4 0x313CE567 EQ PUSH2 0x1EC JUMPI DUP1 PUSH4 0x3CA7697D EQ PUSH2 0x20A JUMPI DUP1 PUSH4 0x6DA2B552 EQ PUSH2 0x214 JUMPI PUSH2 0x114 JUMP JUMPDEST DUP1 PUSH4 0x6FDDE03 EQ PUSH2 0x118 JUMPI DUP1 PUSH4 0x95EA7B3 EQ PUSH2 0x136 JUMPI DUP1 PUSH4 0x18160DDD EQ PUSH2 0x166 JUMPI DUP1 PUSH4 0x1E7F8F0F EQ PUSH2 0x184 JUMPI JUMPDEST PUSH0 DUP1 REVERT JUMPDEST PUSH2 0x120 PUSH2 0x3AC JUMP JUMPDEST PUSH1 0x40 MLOAD PUSH2 0x12D SWAP2 SWAP1 PUSH2 0x1646 JUMP JUMPDEST PUSH1 0x40 MLOAD DUP1 SWAP2 SUB SWAP1 RETURN JUMPDEST PUSH2 0x150 PUSH1 0x4 DUP1 CALLDATASIZE SUB DUP2 ADD SWAP1 PUSH2 0x14B SWAP2 SWAP1 PUSH2 0x16F7 JUMP JUMPDEST PUSH2 0x43C JUMP JUMPDEST PUSH1 0x40 MLOAD PUSH2 0x15D SWAP2 SWAP1 PUSH2 0x174F JUMP JUMPDEST PUSH1 0x40 MLOAD DUP1 SWAP2 SUB SWAP1 RETURN JUMPDEST PUSH2 0x16E PUSH2 0x45E JUMP JUMPDEST PUSH1 0x40 MLOAD PUSH2 0x17B SWAP2 SWAP1 PUSH2 0x1777 JUMP JUMPDEST PUSH1 0x40 MLOAD DUP1 SWAP2 SUB SWAP1 RETURN JUMPDEST PUSH2 0x19E PUSH1 0x4 DUP1 CALLDATASIZE SUB DUP2 ADD SWAP1 PUSH2 0x199 SWAP2 SWAP1 PUSH2 0x16F7 JUMP JUMPDEST PUSH2 0x467 JUMP JUMPDEST STOP JUMPDEST PUSH2 0x1BA PUSH1 0x4 DUP1 CALLDATASIZE SUB DUP2 ADD SWAP1 PUSH2 0x1B5 SWAP2 SWAP1 PUSH2 0x1790 JUMP JUMPDEST PUSH2 0x5D6 JUMP JUMPDEST PUSH1 0x40 MLOAD PUSH2 0x1C7 SWAP2 SWAP1 PUSH2 0x174F JUMP JUMPDEST PUSH1 0x40 MLOAD DUP1 SWAP2 SUB SWAP1 RETURN JUMPDEST PUSH2 0x1EA PUSH1 0x4 DUP1 CALLDATASIZE SUB DUP2 ADD SWAP1 PUSH2 0x1E5 SWAP2 SWAP1 PUSH2 0x17E0 JUMP JUMPDEST PUSH2 0x604 JUMP JUMPDEST STOP JUMPDEST PUSH2 0x1F4 PUSH2 0x84F JUMP JUMPDEST PUSH1 0x40 MLOAD PUSH2 0x201 SWAP2 SWAP1 PUSH2 0x1826 JUMP JUMPDEST PUSH1 0x40 MLOAD DUP1 SWAP2 SUB SWAP1 RETURN JUMPDEST PUSH2 0x212 PUSH2 0x857 JUMP JUMPDEST STOP JUMPDEST PUSH2 0x22E PUSH1 0x4 DUP1 CALLDATASIZE SUB DUP2 ADD SWAP1 PUSH2 0x229 SWAP2 SWAP1 PUSH2 0x183F JUMP JUMPDEST PUSH2 0x9F9 JUMP JUMPDEST PUSH1 0x40 MLOAD PUSH2 0x23B SWAP2 SWAP1 PUSH2 0x174F JUMP JUMPDEST PUSH1 0x40 MLOAD DUP1 SWAP2 SUB SWAP1 RETURN JUMPDEST PUSH2 0x25E PUSH1 0x4 DUP1 CALLDATASIZE SUB DUP2 ADD SWAP1 PUSH2 0x259 SWAP2 SWAP1 PUSH2 0x183F JUMP JUMPDEST PUSH2 0xA16 JUMP JUMPDEST PUSH1 0x40 MLOAD PUSH2 0x26B SWAP2 SWAP1 PUSH2 0x1777 JUMP JUMPDEST PUSH1 0x40 MLOAD DUP1 SWAP2 SUB SWAP1 RETURN JUMPDEST PUSH2 0x28E PUSH1 0x4 DUP1 CALLDATASIZE SUB DUP2 ADD SWAP1 PUSH2 0x289 SWAP2 SWAP1 PUSH2 0x183F JUMP JUMPDEST PUSH2 0xA5B JUMP JUMPDEST PUSH1 0x40 MLOAD PUSH2 0x29B SWAP2 SWAP1 PUSH2 0x174F JUMP JUMPDEST PUSH1 0x40 MLOAD DUP1 SWAP2 SUB SWAP1 RETURN JUMPDEST PUSH2 0x2AC PUSH2 0xA78 JUMP JUMPDEST PUSH1 0x40 MLOAD PUSH2 0x2B9 SWAP2 SWAP1 PUSH2 0x1879 JUMP JUMPDEST PUSH1 0x40 MLOAD DUP1 SWAP2 SUB SWAP1 RETURN JUMPDEST PUSH2 0x2DC PUSH1 0x4 DUP1 CALLDATASIZE SUB DUP2 ADD SWAP1 PUSH2 0x2D7 SWAP2 SWAP1 PUSH2 0x183F JUMP JUMPDEST PUSH2 0xA9D JUMP JUMPDEST STOP JUMPDEST PUSH2 0x2F8 PUSH1 0x4 DUP1 CALLDATASIZE SUB DUP2 ADD SWAP1 PUSH2 0x2F3 SWAP2 SWAP1 PUSH2 0x183F JUMP JUMPDEST PUSH2 0xBC3 JUMP JUMPDEST STOP JUMPDEST PUSH2 0x302 PUSH2 0xD3F JUMP JUMPDEST PUSH1 0x40 MLOAD PUSH2 0x30F SWAP2 SWAP1 PUSH2 0x1646 JUMP JUMPDEST PUSH1 0x40 MLOAD DUP1 SWAP2 SUB SWAP1 RETURN JUMPDEST PUSH2 0x332 PUSH1 0x4 DUP1 CALLDATASIZE SUB DUP2 ADD SWAP1 PUSH2 0x32D SWAP2 SWAP1 PUSH2 0x17E0 JUMP JUMPDEST PUSH2 0xDCF JUMP JUMPDEST PUSH1 0x40 MLOAD PUSH2 0x343 SWAP6 SWAP5 SWAP4 SWAP3 SWAP2 SWAP1 PUSH2 0x1892 JUMP JUMPDEST PUSH1 0x40 MLOAD DUP1 SWAP2 SUB SWAP1 RETURN JUMPDEST PUSH2 0x366 PUSH1 0x4 DUP1 CALLDATASIZE SUB DUP2 ADD SWAP1 PUSH2 0x361 SWAP2 SWAP1 PUSH2 0x16F7 JUMP JUMPDEST PUSH2 0xE4B JUMP JUMPDEST PUSH1 0x40 MLOAD PUSH2 0x373 SWAP2 SWAP1 PUSH2 0x174F JUMP JUMPDEST PUSH1 0x40 MLOAD DUP1 SWAP2 SUB SWAP1 RETURN JUMPDEST PUSH2 0x396 PUSH1 0x4 DUP1 CALLDATASIZE SUB DUP2 ADD SWAP1 PUSH2 0x391 SWAP2 SWAP1 PUSH2 0x18E3 JUMP JUMPDEST PUSH2 0xE6D JUMP JUMPDEST PUSH1 0x40 MLOAD PUSH2 0x3A3 SWAP2 SWAP1 PUSH2 0x1777 JUMP JUMPDEST PUSH1 0x40 MLOAD DUP1 SWAP2 SUB SWAP1 RETURN JUMPDEST PUSH1 0x60 PUSH1 0x3 DUP1 SLOAD PUSH2 0x3BB SWAP1 PUSH2 0x194E JUMP JUMPDEST DUP1 PUSH1 0x1F ADD PUSH1 0x20 DUP1 SWAP2 DIV MUL PUSH1 0x20 ADD PUSH1 0x40 MLOAD SWAP1 DUP2 ADD PUSH1 0x40 MSTORE DUP1 SWAP3 SWAP2 SWAP1 DUP2 DUP2 MSTORE PUSH1 0x20 ADD DUP3 DUP1 SLOAD PUSH2 0x3E7 SWAP1 PUSH2 0x194E JUMP JUMPDEST DUP1 ISZERO PUSH2 0x432 JUMPI DUP1 PUSH1 0x1F LT PUSH2 0x409 JUMPI PUSH2 0x100 DUP1 DUP4 SLOAD DIV MUL DUP4 MSTORE SWAP2 PUSH1 0x20 ADD SWAP2 PUSH2 0x432 JUMP JUMPDEST DUP3 ADD SWAP2 SWAP1 PUSH0 MSTORE PUSH1 0x20 PUSH0 KECCAK256 SWAP1 JUMPDEST DUP2 SLOAD DUP2 MSTORE SWAP1 PUSH1 0x1 ADD SWAP1 PUSH1 0x20 ADD DUP1 DUP4 GT PUSH2 0x415 JUMPI DUP3 SWAP1 SUB PUSH1 0x1F AND DUP3 ADD SWAP2 JUMPDEST POP POP POP POP POP SWAP1 POP SWAP1 JUMP JUMPDEST PUSH0 DUP1 PUSH2 0x446 PUSH2 0xEEF JUMP JUMPDEST SWAP1 POP PUSH2 0x453 DUP2 DUP6 DUP6 PUSH2 0xEF6 JUMP JUMPDEST PUSH1 0x1 SWAP2 POP POP SWAP3 SWAP2 POP POP JUMP JUMPDEST PUSH0 PUSH1 0x2 SLOAD SWAP1 POP SWAP1 JUMP JUMPDEST DUP1 PUSH2 0x471 CALLER PUSH2 0xA16 JUMP JUMPDEST LT ISZERO PUSH2 0x4B2 JUMPI PUSH1 0x40 MLOAD PUSH32 0x8C379A000000000000000000000000000000000000000000000000000000000 DUP2 MSTORE PUSH1 0x4 ADD PUSH2 0x4A9 SWAP1 PUSH2 0x19C8 JUMP JUMPDEST PUSH1 0x40 MLOAD DUP1 SWAP2 SUB SWAP1 REVERT JUMPDEST PUSH0 PUSH1 0x9 SLOAD SWAP1 POP PUSH0 PUSH1 0xA PUSH0 DUP4 DUP2 MSTORE PUSH1 0x20 ADD SWAP1 DUP2 MSTORE PUSH1 0x20 ADD PUSH0 KECCAK256 SWAP1 POP CALLER DUP2 PUSH0 ADD PUSH0 PUSH2 0x100 EXP DUP2 SLOAD DUP2 PUSH20 0xFFFFFFFFFFFFFFFFFFFFFFFFFFFFFFFFFFFFFFFF MUL NOT AND SWAP1 DUP4 PUSH20 0xFFFFFFFFFFFFFFFFFFFFFFFFFFFFFFFFFFFFFFFF AND MUL OR SWAP1 SSTORE POP DUP4 DUP2 PUSH1 0x1 ADD PUSH0 PUSH2 0x100 EXP DUP2 SLOAD DUP2 PUSH20 0xFFFFFFFFFFFFFFFFFFFFFFFFFFFFFFFFFFFFFFFF MUL NOT AND SWAP1 DUP4 PUSH20 0xFFFFFFFFFFFFFFFFFFFFFFFFFFFFFFFFFFFFFFFF AND MUL OR SWAP1 SSTORE POP DUP3 DUP2 PUSH1 0x2 ADD DUP2 SWAP1 SSTORE POP PUSH0 DUP2 PUSH1 0x3 ADD DUP2 SWAP1 SSTORE POP PUSH0 DUP2 PUSH1 0x5 ADD PUSH0 PUSH2 0x100 EXP DUP2 SLOAD DUP2 PUSH1 0xFF MUL NOT AND SWAP1 DUP4 ISZERO ISZERO MUL OR SWAP1 SSTORE POP PUSH1 0x9 PUSH0 DUP2 SLOAD DUP1 SWAP3 SWAP2 SWAP1 PUSH2 0x58E SWAP1 PUSH2 0x1A13 JUMP JUMPDEST SWAP2 SWAP1 POP SSTORE POP PUSH32 0xE9097A4F4EDDC0E5906640FCD9E1193C9DB52771536CA4C8B06AB4C40AA045D2 DUP3 CALLER DUP7 DUP7 PUSH1 0x40 MLOAD PUSH2 0x5C8 SWAP5 SWAP4 SWAP3 SWAP2 SWAP1 PUSH2 0x1A5A JUMP JUMPDEST PUSH1 0x40 MLOAD DUP1 SWAP2 SUB SWAP1 LOG1 POP POP POP POP JUMP JUMPDEST PUSH0 DUP1 PUSH2 0x5E0 PUSH2 0xEEF JUMP JUMPDEST SWAP1 POP PUSH2 0x5ED DUP6 DUP3 DUP6 PUSH2 0xF08 JUMP JUMPDEST PUSH2 0x5F8 DUP6 DUP6 DUP6 PUSH2 0xF9A JUMP JUMPDEST PUSH1 0x1 SWAP2 POP POP SWAP4 SWAP3 POP POP POP JUMP JUMPDEST PUSH1 0x6 PUSH0 CALLER PUSH20 0xFFFFFFFFFFFFFFFFFFFFFFFFFFFFFFFFFFFFFFFF AND PUSH20 0xFFFFFFFFFFFFFFFFFFFFFFFFFFFFFFFFFFFFFFFF AND DUP2 MSTORE PUSH1 0x20 ADD SWAP1 DUP2 MSTORE PUSH1 0x20 ADD PUSH0 KECCAK256 PUSH0 SWAP1 SLOAD SWAP1 PUSH2 0x100 EXP SWAP1 DIV PUSH1 0xFF AND PUSH2 0x68D JUMPI PUSH1 0x40 MLOAD PUSH32 0x8C379A000000000000000000000000000000000000000000000000000000000 DUP2 MSTORE PUSH1 0x4 ADD PUSH2 0x684 SWAP1 PUSH2 0x1B0D JUMP JUMPDEST PUSH1 0x40 MLOAD DUP1 SWAP2 SUB SWAP1 REVERT JUMPDEST PUSH0 PUSH1 0xA PUSH0 DUP4 DUP2 MSTORE PUSH1 0x20 ADD SWAP1 DUP2 MSTORE PUSH1 0x20 ADD PUSH0 KECCAK256 SWAP1 POP DUP1 PUSH1 0x5 ADD PUSH0 SWAP1 SLOAD SWAP1 PUSH2 0x100 EXP SWAP1 DIV PUSH1 0xFF AND ISZERO PUSH2 0x6F2 JUMPI PUSH1 0x40 MLOAD PUSH32 0x8C379A000000000000000000000000000000000000000000000000000000000 DUP2 MSTORE PUSH1 0x4 ADD PUSH2 0x6E9 SWAP1 PUSH2 0x1B75 JUMP JUMPDEST PUSH1 0x40 MLOAD DUP1 SWAP2 SUB SWAP1 REVERT JUMPDEST DUP1 PUSH1 0x4 ADD PUSH0 CALLER PUSH20 0xFFFFFFFFFFFFFFFFFFFFFFFFFFFFFFFFFFFFFFFF AND PUSH20 0xFFFFFFFFFFFFFFFFFFFFFFFFFFFFFFFFFFFFFFFF AND DUP2 MSTORE PUSH1 0x20 ADD SWAP1 DUP2 MSTORE PUSH1 0x20 ADD PUSH0 KECCAK256 PUSH0 SWAP1 SLOAD SWAP1 PUSH2 0x100 EXP SWAP1 DIV PUSH1 0xFF AND ISZERO PUSH2 0x77E JUMPI PUSH1 0x40 MLOAD PUSH32 0x8C379A000000000000000000000000000000000000000000000000000000000 DUP2 MSTORE PUSH1 0x4 ADD PUSH2 0x775 SWAP1 PUSH2 0x1C03 JUMP JUMPDEST PUSH1 0x40 MLOAD DUP1 SWAP2 SUB SWAP1 REVERT JUMPDEST PUSH1 0x1 DUP2 PUSH1 0x4 ADD PUSH0 CALLER PUSH20 0xFFFFFFFFFFFFFFFFFFFFFFFFFFFFFFFFFFFFFFFF AND PUSH20 0xFFFFFFFFFFFFFFFFFFFFFFFFFFFFFFFFFFFFFFFF AND DUP2 MSTORE PUSH1 0x20 ADD SWAP1 DUP2 MSTORE PUSH1 0x20 ADD PUSH0 KECCAK256 PUSH0 PUSH2 0x100 EXP DUP2 SLOAD DUP2 PUSH1 0xFF MUL NOT AND SWAP1 DUP4 ISZERO ISZERO MUL OR SWAP1 SSTORE POP DUP1 PUSH1 0x3 ADD PUSH0 DUP2 SLOAD DUP1 SWAP3 SWAP2 SWAP1 PUSH2 0x7E9 SWAP1 PUSH2 0x1A13 JUMP JUMPDEST SWAP2 SWAP1 POP SSTORE POP PUSH32 0x924813D717E221B5F46DCD8A56DA1679E4612584AB3237D55E5FAABF6F6A3079 DUP3 CALLER PUSH1 0x40 MLOAD PUSH2 0x81F SWAP3 SWAP2 SWAP1 PUSH2 0x1C21 JUMP JUMPDEST PUSH1 0x40 MLOAD DUP1 SWAP2 SUB SWAP1 LOG1 PUSH1 0x2 PUSH1 0x8 SLOAD PUSH2 0x836 SWAP2 SWAP1 PUSH2 0x1C75 JUMP JUMPDEST DUP2 PUSH1 0x3 ADD SLOAD GT ISZERO PUSH2 0x84B JUMPI PUSH2 0x84A DUP3 PUSH2 0x108A JUMP JUMPDEST JUMPDEST POP POP JUMP JUMPDEST PUSH0 PUSH1 0x12 SWAP1 POP SWAP1 JUMP JUMPDEST PUSH1 0x6 PUSH0 CALLER PUSH20 0xFFFFFFFFFFFFFFFFFFFFFFFFFFFFFFFFFFFFFFFF AND PUSH20 0xFFFFFFFFFFFFFFFFFFFFFFFFFFFFFFFFFFFFFFFF AND DUP2 MSTORE PUSH1 0x20 ADD SWAP1 DUP2 MSTORE PUSH1 0x20 ADD PUSH0 KECCAK256 PUSH0 SWAP1 SLOAD SWAP1 PUSH2 0x100 EXP SWAP1 DIV PUSH1 0xFF AND ISZERO PUSH2 0x8E1 JUMPI PUSH1 0x40 MLOAD PUSH32 0x8C379A000000000000000000000000000000000000000000000000000000000 DUP2 MSTORE PUSH1 0x4 ADD PUSH2 0x8D8 SWAP1 PUSH2 0x1CEF JUMP JUMPDEST PUSH1 0x40 MLOAD DUP1 SWAP2 SUB SWAP1 REVERT JUMPDEST PUSH1 0x7 PUSH0 CALLER PUSH20 0xFFFFFFFFFFFFFFFFFFFFFFFFFFFFFFFFFFFFFFFF AND PUSH20 0xFFFFFFFFFFFFFFFFFFFFFFFFFFFFFFFFFFFFFFFF AND DUP2 MSTORE PUSH1 0x20 ADD SWAP1 DUP2 MSTORE PUSH1 0x20 ADD PUSH0 KECCAK256 PUSH0 SWAP1 SLOAD SWAP1 PUSH2 0x100 EXP SWAP1 DIV PUSH1 0xFF AND ISZERO PUSH2 0x96B JUMPI PUSH1 0x40 MLOAD PUSH32 0x8C379A000000000000000000000000000000000000000000000000000000000 DUP2 MSTORE PUSH1 0x4 ADD PUSH2 0x962 SWAP1 PUSH2 0x1D57 JUMP JUMPDEST PUSH1 0x40 MLOAD DUP1 SWAP2 SUB SWAP1 REVERT JUMPDEST PUSH1 0x1 PUSH1 0x7 PUSH0 CALLER PUSH20 0xFFFFFFFFFFFFFFFFFFFFFFFFFFFFFFFFFFFFFFFF AND PUSH20 0xFFFFFFFFFFFFFFFFFFFFFFFFFFFFFFFFFFFFFFFF AND DUP2 MSTORE PUSH1 0x20 ADD SWAP1 DUP2 MSTORE PUSH1 0x20 ADD PUSH0 KECCAK256 PUSH0 PUSH2 0x100 EXP DUP2 SLOAD DUP2 PUSH1 0xFF MUL NOT AND SWAP1 DUP4 ISZERO ISZERO MUL OR SWAP1 SSTORE POP PUSH32 0x80AC0FCF7B2E6101CA51F7FA686995D8766AF6ABEDB2267D0ED8784CE7515A8D CALLER PUSH1 0x40 MLOAD PUSH2 0x9EF SWAP2 SWAP1 PUSH2 0x1879 JUMP JUMPDEST PUSH1 0x40 MLOAD DUP1 SWAP2 SUB SWAP1 LOG1 JUMP JUMPDEST PUSH1 0x6 PUSH1 0x20 MSTORE DUP1 PUSH0 MSTORE PUSH1 0x40 PUSH0 KECCAK256 PUSH0 SWAP2 POP SLOAD SWAP1 PUSH2 0x100 EXP SWAP1 DIV PUSH1 0xFF AND DUP2 JUMP JUMPDEST PUSH0 DUP1 PUSH0 DUP4 PUSH20 0xFFFFFFFFFFFFFFFFFFFFFFFFFFFFFFFFFFFFFFFF AND PUSH20 0xFFFFFFFFFFFFFFFFFFFFFFFFFFFFFFFFFFFFFFFF AND DUP2 MSTORE PUSH1 0x20 ADD SWAP1 DUP2 MSTORE PUSH1 0x20 ADD PUSH0 KECCAK256 SLOAD SWAP1 POP SWAP2 SWAP1 POP JUMP JUMPDEST PUSH1 0x7 PUSH1 0x20 MSTORE DUP1 PUSH0 MSTORE PUSH1 0x40 PUSH0 KECCAK256 PUSH0 SWAP2 POP SLOAD SWAP1 PUSH2 0x100 EXP SWAP1 DIV PUSH1 0xFF AND DUP2 JUMP JUMPDEST PUSH1 0x5 PUSH0 SWAP1 SLOAD SWAP1 PUSH2 0x100 EXP SWAP1 DIV PUSH20 0xFFFFFFFFFFFFFFFFFFFFFFFFFFFFFFFFFFFFFFFF AND DUP2 JUMP JUMPDEST PUSH1 0x6 PUSH0 DUP3 PUSH20 0xFFFFFFFFFFFFFFFFFFFFFFFFFFFFFFFFFFFFFFFF AND PUSH20 0xFFFFFFFFFFFFFFFFFFFFFFFFFFFFFFFFFFFFFFFF AND DUP2 MSTORE PUSH1 0x20 ADD SWAP1 DUP2 MSTORE PUSH1 0x20 ADD PUSH0 KECCAK256 PUSH0 SWAP1 SLOAD SWAP1 PUSH2 0x100 EXP SWAP1 DIV PUSH1 0xFF AND PUSH2 0xB26 JUMPI PUSH1 0x40 MLOAD PUSH32 0x8C379A000000000000000000000000000000000000000000000000000000000 DUP2 MSTORE PUSH1 0x4 ADD PUSH2 0xB1D SWAP1 PUSH2 0x1DBF JUMP JUMPDEST PUSH1 0x40 MLOAD DUP1 SWAP2 SUB SWAP1 REVERT JUMPDEST PUSH1 0x8 PUSH0 DUP2 SLOAD DUP1 SWAP3 SWAP2 SWAP1 PUSH2 0xB38 SWAP1 PUSH2 0x1DDD JUMP JUMPDEST SWAP2 SWAP1 POP SSTORE POP PUSH1 0x6 PUSH0 DUP3 PUSH20 0xFFFFFFFFFFFFFFFFFFFFFFFFFFFFFFFFFFFFFFFF AND PUSH20 0xFFFFFFFFFFFFFFFFFFFFFFFFFFFFFFFFFFFFFFFF AND DUP2 MSTORE PUSH1 0x20 ADD SWAP1 DUP2 MSTORE PUSH1 0x20 ADD PUSH0 KECCAK256 PUSH0 PUSH2 0x100 EXP DUP2 SLOAD SWAP1 PUSH1 0xFF MUL NOT AND SWAP1 SSTORE PUSH32 0x86537FCD7FDB3B362CC725FE5F9DA81AE7553CE4FC465E3A0F08799B0FC3BF55 DUP2 PUSH1 0x40 MLOAD PUSH2 0xBB8 SWAP2 SWAP1 PUSH2 0x1879 JUMP JUMPDEST PUSH1 0x40 MLOAD DUP1 SWAP2 SUB SWAP1 LOG1 POP JUMP JUMPDEST PUSH1 0x6 PUSH0 DUP3 PUSH20 0xFFFFFFFFFFFFFFFFFFFFFFFFFFFFFFFFFFFFFFFF AND PUSH20 0xFFFFFFFFFFFFFFFFFFFFFFFFFFFFFFFFFFFFFFFF AND DUP2 MSTORE PUSH1 0x20 ADD SWAP1 DUP2 MSTORE PUSH1 0x20 ADD PUSH0 KECCAK256 PUSH0 SWAP1 SLOAD SWAP1 PUSH2 0x100 EXP SWAP1 DIV PUSH1 0xFF AND ISZERO PUSH2 0xC4D JUMPI PUSH1 0x40 MLOAD PUSH32 0x8C379A000000000000000000000000000000000000000000000000000000000 DUP2 MSTORE PUSH1 0x4 ADD PUSH2 0xC44 SWAP1 PUSH2 0x1E4E JUMP JUMPDEST PUSH1 0x40 MLOAD DUP1 SWAP2 SUB SWAP1 REVERT JUMPDEST PUSH1 0x1 PUSH1 0x6 PUSH0 DUP4 PUSH20 0xFFFFFFFFFFFFFFFFFFFFFFFFFFFFFFFFFFFFFFFF AND PUSH20 0xFFFFFFFFFFFFFFFFFFFFFFFFFFFFFFFFFFFFFFFF AND DUP2 MSTORE PUSH1 0x20 ADD SWAP1 DUP2 MSTORE PUSH1 0x20 ADD PUSH0 KECCAK256 PUSH0 PUSH2 0x100 EXP DUP2 SLOAD DUP2 PUSH1 0xFF MUL NOT AND SWAP1 DUP4 ISZERO ISZERO MUL OR SWAP1 SSTORE POP PUSH1 0x8 PUSH0 DUP2 SLOAD DUP1 SWAP3 SWAP2 SWAP1 PUSH2 0xCB4 SWAP1 PUSH2 0x1A13 JUMP JUMPDEST SWAP2 SWAP1 POP SSTORE POP PUSH1 0x7 PUSH0 DUP3 PUSH20 0xFFFFFFFFFFFFFFFFFFFFFFFFFFFFFFFFFFFFFFFF AND PUSH20 0xFFFFFFFFFFFFFFFFFFFFFFFFFFFFFFFFFFFFFFFF AND DUP2 MSTORE PUSH1 0x20 ADD SWAP1 DUP2 MSTORE PUSH1 0x20 ADD PUSH0 KECCAK256 PUSH0 PUSH2 0x100 EXP DUP2 SLOAD SWAP1 PUSH1 0xFF MUL NOT AND SWAP1 SSTORE PUSH32 0x5D91BD0CECC45FEF102AF61DE92C5462FADC884A5CE9D21C15E8A85198F2349E DUP2 PUSH1 0x40 MLOAD PUSH2 0xD34 SWAP2 SWAP1 PUSH2 0x1879 JUMP JUMPDEST PUSH1 0x40 MLOAD DUP1 SWAP2 SUB SWAP1 LOG1 POP JUMP JUMPDEST PUSH1 0x60 PUSH1 0x4 DUP1 SLOAD PUSH2 0xD4E SWAP1 PUSH2 0x194E JUMP JUMPDEST DUP1 PUSH1 0x1F ADD PUSH1 0x20 DUP1 SWAP2 DIV MUL PUSH1 0x20 ADD PUSH1 0x40 MLOAD SWAP1 DUP2 ADD PUSH1 0x40 MSTORE DUP1 SWAP3 SWAP2 SWAP1 DUP2 DUP2 MSTORE PUSH1 0x20 ADD DUP3 DUP1 SLOAD PUSH2 0xD7A SWAP1 PUSH2 0x194E JUMP JUMPDEST DUP1 ISZERO PUSH2 0xDC5 JUMPI DUP1 PUSH1 0x1F LT PUSH2 0xD9C JUMPI PUSH2 0x100 DUP1 DUP4 SLOAD DIV MUL DUP4 MSTORE SWAP2 PUSH1 0x20 ADD SWAP2 PUSH2 0xDC5 JUMP JUMPDEST DUP3 ADD SWAP2 SWAP1 PUSH0 MSTORE PUSH1 0x20 PUSH0 KECCAK256 SWAP1 JUMPDEST DUP2 SLOAD DUP2 MSTORE SWAP1 PUSH1 0x1 ADD SWAP1 PUSH1 0x20 ADD DUP1 DUP4 GT PUSH2 0xDA8 JUMPI DUP3 SWAP1 SUB PUSH1 0x1F AND DUP3 ADD SWAP2 JUMPDEST POP POP POP POP POP SWAP1 POP SWAP1 JUMP JUMPDEST PUSH1 0xA PUSH1 0x20 MSTORE DUP1 PUSH0 MSTORE PUSH1 0x40 PUSH0 KECCAK256 PUSH0 SWAP2 POP SWAP1 POP DUP1 PUSH0 ADD PUSH0 SWAP1 SLOAD SWAP1 PUSH2 0x100 EXP SWAP1 DIV PUSH20 0xFFFFFFFFFFFFFFFFFFFFFFFFFFFFFFFFFFFFFFFF AND SWAP1 DUP1 PUSH1 0x1 ADD PUSH0 SWAP1 SLOAD SWAP1 PUSH2 0x100 EXP SWAP1 DIV PUSH20 0xFFFFFFFFFFFFFFFFFFFFFFFFFFFFFFFFFFFFFFFF AND SWAP1 DUP1 PUSH1 0x2 ADD SLOAD SWAP1 DUP1 PUSH1 0x3 ADD SLOAD SWAP1 DUP1 PUSH1 0x5 ADD PUSH0 SWAP1 SLOAD SWAP1 PUSH2 0x100 EXP SWAP1 DIV PUSH1 0xFF AND SWAP1 POP DUP6 JUMP JUMPDEST PUSH0 DUP1 PUSH2 0xE55 PUSH2 0xEEF JUMP JUMPDEST SWAP1 POP PUSH2 0xE62 DUP2 DUP6 DUP6 PUSH2 0xF9A JUMP JUMPDEST PUSH1 0x1 SWAP2 POP POP SWAP3 SWAP2 POP POP JUMP JUMPDEST PUSH0 PUSH1 0x1 PUSH0 DUP5 PUSH20 0xFFFFFFFFFFFFFFFFFFFFFFFFFFFFFFFFFFFFFFFF AND PUSH20 0xFFFFFFFFFFFFFFFFFFFFFFFFFFFFFFFFFFFFFFFF AND DUP2 MSTORE PUSH1 0x20 ADD SWAP1 DUP2 MSTORE PUSH1 0x20 ADD PUSH0 KECCAK256 PUSH0 DUP4 PUSH20 0xFFFFFFFFFFFFFFFFFFFFFFFFFFFFFFFFFFFFFFFF AND PUSH20 0xFFFFFFFFFFFFFFFFFFFFFFFFFFFFFFFFFFFFFFFF AND DUP2 MSTORE PUSH1 0x20 ADD SWAP1 DUP2 MSTORE PUSH1 0x20 ADD PUSH0 KECCAK256 SLOAD SWAP1 POP SWAP3 SWAP2 POP POP JUMP JUMPDEST PUSH0 CALLER SWAP1 POP SWAP1 JUMP JUMPDEST PUSH2 0xF03 DUP4 DUP4 DUP4 PUSH1 0x1 PUSH2 0x11EE JUMP JUMPDEST POP POP POP JUMP JUMPDEST PUSH0 PUSH2 0xF13 DUP5 DUP5 PUSH2 0xE6D JUMP JUMPDEST SWAP1 POP PUSH32 0xFFFFFFFFFFFFFFFFFFFFFFFFFFFFFFFFFFFFFFFFFFFFFFFFFFFFFFFFFFFFFFFF DUP2 EQ PUSH2 0xF94 JUMPI DUP2 DUP2 LT ISZERO PUSH2 0xF85 JUMPI DUP3 DUP2 DUP4 PUSH1 0x40 MLOAD PUSH32 0xFB8F41B200000000000000000000000000000000000000000000000000000000 DUP2 MSTORE PUSH1 0x4 ADD PUSH2 0xF7C SWAP4 SWAP3 SWAP2 SWAP1 PUSH2 0x1E6C JUMP JUMPDEST PUSH1 0x40 MLOAD DUP1 SWAP2 SUB SWAP1 REVERT JUMPDEST PUSH2 0xF93 DUP5 DUP5 DUP5 DUP5 SUB PUSH0 PUSH2 0x11EE JUMP JUMPDEST JUMPDEST POP POP POP POP JUMP JUMPDEST PUSH0 PUSH20 0xFFFFFFFFFFFFFFFFFFFFFFFFFFFFFFFFFFFFFFFF AND DUP4 PUSH20 0xFFFFFFFFFFFFFFFFFFFFFFFFFFFFFFFFFFFFFFFF AND SUB PUSH2 0x100A JUMPI PUSH0 PUSH1 0x40 MLOAD PUSH32 0x96C6FD1E00000000000000000000000000000000000000000000000000000000 DUP2 MSTORE PUSH1 0x4 ADD PUSH2 0x1001 SWAP2 SWAP1 PUSH2 0x1879 JUMP JUMPDEST PUSH1 0x40 MLOAD DUP1 SWAP2 SUB SWAP1 REVERT JUMPDEST PUSH0 PUSH20 0xFFFFFFFFFFFFFFFFFFFFFFFFFFFFFFFFFFFFFFFF AND DUP3 PUSH20 0xFFFFFFFFFFFFFFFFFFFFFFFFFFFFFFFFFFFFFFFF AND SUB PUSH2 0x107A JUMPI PUSH0 PUSH1 0x40 MLOAD PUSH32 0xEC442F0500000000000000000000000000000000000000000000000000000000 DUP2 MSTORE PUSH1 0x4 ADD PUSH2 0x1071 SWAP2 SWAP1 PUSH2 0x1879 JUMP JUMPDEST PUSH1 0x40 MLOAD DUP1 SWAP2 SUB SWAP1 REVERT JUMPDEST PUSH2 0x1085 DUP4 DUP4 DUP4 PUSH2 0x13BD JUMP JUMPDEST POP POP POP JUMP JUMPDEST PUSH0 PUSH1 0xA PUSH0 DUP4 DUP2 MSTORE PUSH1 0x20 ADD SWAP1 DUP2 MSTORE PUSH1 0x20 ADD PUSH0 KECCAK256 SWAP1 POP DUP1 PUSH1 0x5 ADD PUSH0 SWAP1 SLOAD SWAP1 PUSH2 0x100 EXP SWAP1 DIV PUSH1 0xFF AND ISZERO PUSH2 0x10EF JUMPI PUSH1 0x40 MLOAD PUSH32 0x8C379A000000000000000000000000000000000000000000000000000000000 DUP2 MSTORE PUSH1 0x4 ADD PUSH2 0x10E6 SWAP1 PUSH2 0x1B75 JUMP JUMPDEST PUSH1 0x40 MLOAD DUP1 SWAP2 SUB SWAP1 REVERT JUMPDEST PUSH1 0x2 PUSH1 0x8 SLOAD PUSH2 0x10FE SWAP2 SWAP1 PUSH2 0x1C75 JUMP JUMPDEST DUP2 PUSH1 0x3 ADD SLOAD GT PUSH2 0x1143 JUMPI PUSH1 0x40 MLOAD PUSH32 0x8C379A000000000000000000000000000000000000000000000000000000000 DUP2 MSTORE PUSH1 0x4 ADD PUSH2 0x113A SWAP1 PUSH2 0x1EEB JUMP JUMPDEST PUSH1 0x40 MLOAD DUP1 SWAP2 SUB SWAP1 REVERT JUMPDEST PUSH1 0x1 DUP2 PUSH1 0x5 ADD PUSH0 PUSH2 0x100 EXP DUP2 SLOAD DUP2 PUSH1 0xFF MUL NOT AND SWAP1 DUP4 ISZERO ISZERO MUL OR SWAP1 SSTORE POP PUSH2 0x11B3 DUP2 PUSH0 ADD PUSH0 SWAP1 SLOAD SWAP1 PUSH2 0x100 EXP SWAP1 DIV PUSH20 0xFFFFFFFFFFFFFFFFFFFFFFFFFFFFFFFFFFFFFFFF AND DUP3 PUSH1 0x1 ADD PUSH0 SWAP1 SLOAD SWAP1 PUSH2 0x100 EXP SWAP1 DIV PUSH20 0xFFFFFFFFFFFFFFFFFFFFFFFFFFFFFFFFFFFFFFFF AND DUP4 PUSH1 0x2 ADD SLOAD PUSH2 0xF9A JUMP JUMPDEST PUSH32 0x15ED165A284872EA7017F03DF402A0CADFBFAB588320FFAF83F160C2F82781C7 DUP3 PUSH1 0x40 MLOAD PUSH2 0x11E2 SWAP2 SWAP1 PUSH2 0x1777 JUMP JUMPDEST PUSH1 0x40 MLOAD DUP1 SWAP2 SUB SWAP1 LOG1 POP POP JUMP JUMPDEST PUSH0 PUSH20 0xFFFFFFFFFFFFFFFFFFFFFFFFFFFFFFFFFFFFFFFF AND DUP5 PUSH20 0xFFFFFFFFFFFFFFFFFFFFFFFFFFFFFFFFFFFFFFFF AND SUB PUSH2 0x125E JUMPI PUSH0 PUSH1 0x40 MLOAD PUSH32 0xE602DF0500000000000000000000000000000000000000000000000000000000 DUP2 MSTORE PUSH1 0x4 ADD PUSH2 0x1255 SWAP2 SWAP1 PUSH2 0x1879 JUMP JUMPDEST PUSH1 0x40 MLOAD DUP1 SWAP2 SUB SWAP1 REVERT JUMPDEST PUSH0 PUSH20 0xFFFFFFFFFFFFFFFFFFFFFFFFFFFFFFFFFFFFFFFF AND DUP4 PUSH20 0xFFFFFFFFFFFFFFFFFFFFFFFFFFFFFFFFFFFFFFFF AND SUB PUSH2 0x12CE JUMPI PUSH0 PUSH1 0x40 MLOAD PUSH32 0x94280D6200000000000000000000000000000000000000000000000000000000 DUP2 MSTORE PUSH1 0x4 ADD PUSH2 0x12C5 SWAP2 SWAP1 PUSH2 0x1879 JUMP JUMPDEST PUSH1 0x40 MLOAD DUP1 SWAP2 SUB SWAP1 REVERT JUMPDEST DUP2 PUSH1 0x1 PUSH0 DUP7 PUSH20 0xFFFFFFFFFFFFFFFFFFFFFFFFFFFFFFFFFFFFFFFF AND PUSH20 0xFFFFFFFFFFFFFFFFFFFFFFFFFFFFFFFFFFFFFFFF AND DUP2 MSTORE PUSH1 0x20 ADD SWAP1 DUP2 MSTORE PUSH1 0x20 ADD PUSH0 KECCAK256 PUSH0 DUP6 PUSH20 0xFFFFFFFFFFFFFFFFFFFFFFFFFFFFFFFFFFFFFFFF AND PUSH20 0xFFFFFFFFFFFFFFFFFFFFFFFFFFFFFFFFFFFFFFFF AND DUP2 MSTORE PUSH1 0x20 ADD SWAP1 DUP2 MSTORE PUSH1 0x20 ADD PUSH0 KECCAK256 DUP2 SWAP1 SSTORE POP DUP1 ISZERO PUSH2 0x13B7 JUMPI DUP3 PUSH20 0xFFFFFFFFFFFFFFFFFFFFFFFFFFFFFFFFFFFFFFFF AND DUP5 PUSH20 0xFFFFFFFFFFFFFFFFFFFFFFFFFFFFFFFFFFFFFFFF AND PUSH32 0x8C5BE1E5EBEC7D5BD14F71427D1E84F3DD0314C0F7B2291E5B200AC8C7C3B925 DUP5 PUSH1 0x40 MLOAD PUSH2 0x13AE SWAP2 SWAP1 PUSH2 0x1777 JUMP JUMPDEST PUSH1 0x40 MLOAD DUP1 SWAP2 SUB SWAP1 LOG3 JUMPDEST POP POP POP POP JUMP JUMPDEST PUSH0 PUSH20 0xFFFFFFFFFFFFFFFFFFFFFFFFFFFFFFFFFFFFFFFF AND DUP4 PUSH20 0xFFFFFFFFFFFFFFFFFFFFFFFFFFFFFFFFFFFFFFFF AND SUB PUSH2 0x140D JUMPI DUP1 PUSH1 0x2 PUSH0 DUP3 DUP3 SLOAD PUSH2 0x1401 SWAP2 SWAP1 PUSH2 0x1F09 JUMP JUMPDEST SWAP3 POP POP DUP2 SWAP1 SSTORE POP PUSH2 0x14DB JUMP JUMPDEST PUSH0 DUP1 PUSH0 DUP6 PUSH20 0xFFFFFFFFFFFFFFFFFFFFFFFFFFFFFFFFFFFFFFFF AND PUSH20 0xFFFFFFFFFFFFFFFFFFFFFFFFFFFFFFFFFFFFFFFF AND DUP2 MSTORE PUSH1 0x20 ADD SWAP1 DUP2 MSTORE PUSH1 0x20 ADD PUSH0 KECCAK256 SLOAD SWAP1 POP DUP2 DUP2 LT ISZERO PUSH2 0x1496 JUMPI DUP4 DUP2 DUP4 PUSH1 0x40 MLOAD PUSH32 0xE450D38C00000000000000000000000000000000000000000000000000000000 DUP2 MSTORE PUSH1 0x4 ADD PUSH2 0x148D SWAP4 SWAP3 SWAP2 SWAP1 PUSH2 0x1E6C JUMP JUMPDEST PUSH1 0x40 MLOAD DUP1 SWAP2 SUB SWAP1 REVERT JUMPDEST DUP2 DUP2 SUB PUSH0 DUP1 DUP7 PUSH20 0xFFFFFFFFFFFFFFFFFFFFFFFFFFFFFFFFFFFFFFFF AND PUSH20 0xFFFFFFFFFFFFFFFFFFFFFFFFFFFFFFFFFFFFFFFF AND DUP2 MSTORE PUSH1 0x20 ADD SWAP1 DUP2 MSTORE PUSH1 0x20 ADD PUSH0 KECCAK256 DUP2 SWAP1 SSTORE POP POP JUMPDEST PUSH0 PUSH20 0xFFFFFFFFFFFFFFFFFFFFFFFFFFFFFFFFFFFFFFFF AND DUP3 PUSH20 0xFFFFFFFFFFFFFFFFFFFFFFFFFFFFFFFFFFFFFFFF AND SUB PUSH2 0x1522 JUMPI DUP1 PUSH1 0x2 PUSH0 DUP3 DUP3 SLOAD SUB SWAP3 POP POP DUP2 SWAP1 SSTORE POP PUSH2 0x156C JUMP JUMPDEST DUP1 PUSH0 DUP1 DUP5 PUSH20 0xFFFFFFFFFFFFFFFFFFFFFFFFFFFFFFFFFFFFFFFF AND PUSH20 0xFFFFFFFFFFFFFFFFFFFFFFFFFFFFFFFFFFFFFFFF AND DUP2 MSTORE PUSH1 0x20 ADD SWAP1 DUP2 MSTORE PUSH1 0x20 ADD PUSH0 KECCAK256 PUSH0 DUP3 DUP3 SLOAD ADD SWAP3 POP POP DUP2 SWAP1 SSTORE POP JUMPDEST DUP2 PUSH20 0xFFFFFFFFFFFFFFFFFFFFFFFFFFFFFFFFFFFFFFFF AND DUP4 PUSH20 0xFFFFFFFFFFFFFFFFFFFFFFFFFFFFFFFFFFFFFFFF AND PUSH32 0xDDF252AD1BE2C89B69C2B068FC378DAA952BA7F163C4A11628F55A4DF523B3EF DUP4 PUSH1 0x40 MLOAD PUSH2 0x15C9 SWAP2 SWAP1 PUSH2 0x1777 JUMP JUMPDEST PUSH1 0x40 MLOAD DUP1 SWAP2 SUB SWAP1 LOG3 POP POP POP JUMP JUMPDEST PUSH0 DUP2 MLOAD SWAP1 POP SWAP2 SWAP1 POP JUMP JUMPDEST PUSH0 DUP3 DUP3 MSTORE PUSH1 0x20 DUP3 ADD SWAP1 POP SWAP3 SWAP2 POP POP JUMP JUMPDEST DUP3 DUP2 DUP4 MCOPY PUSH0 DUP4 DUP4 ADD MSTORE POP POP POP JUMP JUMPDEST PUSH0 PUSH1 0x1F NOT PUSH1 0x1F DUP4 ADD AND SWAP1 POP SWAP2 SWAP1 POP JUMP JUMPDEST PUSH0 PUSH2 0x1618 DUP3 PUSH2 0x15D6 JUMP JUMPDEST PUSH2 0x1622 DUP2 DUP6 PUSH2 0x15E0 JUMP JUMPDEST SWAP4 POP PUSH2 0x1632 DUP2 DUP6 PUSH1 0x20 DUP7 ADD PUSH2 0x15F0 JUMP JUMPDEST PUSH2 0x163B DUP2 PUSH2 0x15FE JUMP JUMPDEST DUP5 ADD SWAP2 POP POP SWAP3 SWAP2 POP POP JUMP JUMPDEST PUSH0 PUSH1 0x20 DUP3 ADD SWAP1 POP DUP2 DUP2 SUB PUSH0 DUP4 ADD MSTORE PUSH2 0x165E DUP2 DUP5 PUSH2 0x160E JUMP JUMPDEST SWAP1 POP SWAP3 SWAP2 POP POP JUMP JUMPDEST PUSH0 DUP1 REVERT JUMPDEST PUSH0 PUSH20 0xFFFFFFFFFFFFFFFFFFFFFFFFFFFFFFFFFFFFFFFF DUP3 AND SWAP1 POP SWAP2 SWAP1 POP JUMP JUMPDEST PUSH0 PUSH2 0x1693 DUP3 PUSH2 0x166A JUMP JUMPDEST SWAP1 POP SWAP2 SWAP1 POP JUMP JUMPDEST PUSH2 0x16A3 DUP2 PUSH2 0x1689 JUMP JUMPDEST DUP2 EQ PUSH2 0x16AD JUMPI PUSH0 DUP1 REVERT JUMPDEST POP JUMP JUMPDEST PUSH0 DUP2 CALLDATALOAD SWAP1 POP PUSH2 0x16BE DUP2 PUSH2 0x169A JUMP JUMPDEST SWAP3 SWAP2 POP POP JUMP JUMPDEST PUSH0 DUP2 SWAP1 POP SWAP2 SWAP1 POP JUMP JUMPDEST PUSH2 0x16D6 DUP2 PUSH2 0x16C4 JUMP JUMPDEST DUP2 EQ PUSH2 0x16E0 JUMPI PUSH0 DUP1 REVERT JUMPDEST POP JUMP JUMPDEST PUSH0 DUP2 CALLDATALOAD SWAP1 POP PUSH2 0x16F1 DUP2 PUSH2 0x16CD JUMP JUMPDEST SWAP3 SWAP2 POP POP JUMP JUMPDEST PUSH0 DUP1 PUSH1 0x40 DUP4 DUP6 SUB SLT ISZERO PUSH2 0x170D JUMPI PUSH2 0x170C PUSH2 0x1666 JUMP JUMPDEST JUMPDEST PUSH0 PUSH2 0x171A DUP6 DUP3 DUP7 ADD PUSH2 0x16B0 JUMP JUMPDEST SWAP3 POP POP PUSH1 0x20 PUSH2 0x172B DUP6 DUP3 DUP7 ADD PUSH2 0x16E3 JUMP JUMPDEST SWAP2 POP POP SWAP3 POP SWAP3 SWAP1 POP JUMP JUMPDEST PUSH0 DUP2 ISZERO ISZERO SWAP1 POP SWAP2 SWAP1 POP JUMP JUMPDEST PUSH2 0x1749 DUP2 PUSH2 0x1735 JUMP JUMPDEST DUP3 MSTORE POP POP JUMP JUMPDEST PUSH0 PUSH1 0x20 DUP3 ADD SWAP1 POP PUSH2 0x1762 PUSH0 DUP4 ADD DUP5 PUSH2 0x1740 JUMP JUMPDEST SWAP3 SWAP2 POP POP JUMP JUMPDEST PUSH2 0x1771 DUP2 PUSH2 0x16C4 JUMP JUMPDEST DUP3 MSTORE POP POP JUMP JUMPDEST PUSH0 PUSH1 0x20 DUP3 ADD SWAP1 POP PUSH2 0x178A PUSH0 DUP4 ADD DUP5 PUSH2 0x1768 JUMP JUMPDEST SWAP3 SWAP2 POP POP JUMP JUMPDEST PUSH0 DUP1 PUSH0 PUSH1 0x60 DUP5 DUP7 SUB SLT ISZERO PUSH2 0x17A7 JUMPI PUSH2 0x17A6 PUSH2 0x1666 JUMP JUMPDEST JUMPDEST PUSH0 PUSH2 0x17B4 DUP7 DUP3 DUP8 ADD PUSH2 0x16B0 JUMP JUMPDEST SWAP4 POP POP PUSH1 0x20 PUSH2 0x17C5 DUP7 DUP3 DUP8 ADD PUSH2 0x16B0 JUMP JUMPDEST SWAP3 POP POP PUSH1 0x40 PUSH2 0x17D6 DUP7 DUP3 DUP8 ADD PUSH2 0x16E3 JUMP JUMPDEST SWAP2 POP POP SWAP3 POP SWAP3 POP SWAP3 JUMP JUMPDEST PUSH0 PUSH1 0x20 DUP3 DUP5 SUB SLT ISZERO PUSH2 0x17F5 JUMPI PUSH2 0x17F4 PUSH2 0x1666 JUMP JUMPDEST JUMPDEST PUSH0 PUSH2 0x1802 DUP5 DUP3 DUP6 ADD PUSH2 0x16E3 JUMP JUMPDEST SWAP2 POP POP SWAP3 SWAP2 POP POP JUMP JUMPDEST PUSH0 PUSH1 0xFF DUP3 AND SWAP1 POP SWAP2 SWAP1 POP JUMP JUMPDEST PUSH2 0x1820 DUP2 PUSH2 0x180B JUMP JUMPDEST DUP3 MSTORE POP POP JUMP JUMPDEST PUSH0 PUSH1 0x20 DUP3 ADD SWAP1 POP PUSH2 0x1839 PUSH0 DUP4 ADD DUP5 PUSH2 0x1817 JUMP JUMPDEST SWAP3 SWAP2 POP POP JUMP JUMPDEST PUSH0 PUSH1 0x20 DUP3 DUP5 SUB SLT ISZERO PUSH2 0x1854 JUMPI PUSH2 0x1853 PUSH2 0x1666 JUMP JUMPDEST JUMPDEST PUSH0 PUSH2 0x1861 DUP5 DUP3 DUP6 ADD PUSH2 0x16B0 JUMP JUMPDEST SWAP2 POP POP SWAP3 SWAP2 POP POP JUMP JUMPDEST PUSH2 0x1873 DUP2 PUSH2 0x1689 JUMP JUMPDEST DUP3 MSTORE POP POP JUMP JUMPDEST PUSH0 PUSH1 0x20 DUP3 ADD SWAP1 POP PUSH2 0x188C PUSH0 DUP4 ADD DUP5 PUSH2 0x186A JUMP JUMPDEST SWAP3 SWAP2 POP POP JUMP JUMPDEST PUSH0 PUSH1 0xA0 DUP3 ADD SWAP1 POP PUSH2 0x18A5 PUSH0 DUP4 ADD DUP9 PUSH2 0x186A JUMP JUMPDEST PUSH2 0x18B2 PUSH1 0x20 DUP4 ADD DUP8 PUSH2 0x186A JUMP JUMPDEST PUSH2 0x18BF PUSH1 0x40 DUP4 ADD DUP7 PUSH2 0x1768 JUMP JUMPDEST PUSH2 0x18CC PUSH1 0x60 DUP4 ADD DUP6 PUSH2 0x1768 JUMP JUMPDEST PUSH2 0x18D9 PUSH1 0x80 DUP4 ADD DUP5 PUSH2 0x1740 JUMP JUMPDEST SWAP7 SWAP6 POP POP POP POP POP POP JUMP JUMPDEST PUSH0 DUP1 PUSH1 0x40 DUP4 DUP6 SUB SLT ISZERO PUSH2 0x18F9 JUMPI PUSH2 0x18F8 PUSH2 0x1666 JUMP JUMPDEST JUMPDEST PUSH0 PUSH2 0x1906 DUP6 DUP3 DUP7 ADD PUSH2 0x16B0 JUMP JUMPDEST SWAP3 POP POP PUSH1 0x20 PUSH2 0x1917 DUP6 DUP3 DUP7 ADD PUSH2 0x16B0 JUMP JUMPDEST SWAP2 POP POP SWAP3 POP SWAP3 SWAP1 POP JUMP JUMPDEST PUSH32 0x4E487B7100000000000000000000000000000000000000000000000000000000 PUSH0 MSTORE PUSH1 0x22 PUSH1 0x4 MSTORE PUSH1 0x24 PUSH0 REVERT JUMPDEST PUSH0 PUSH1 0x2 DUP3 DIV SWAP1 POP PUSH1 0x1 DUP3 AND DUP1 PUSH2 0x1965 JUMPI PUSH1 0x7F DUP3 AND SWAP2 POP JUMPDEST PUSH1 0x20 DUP3 LT DUP2 SUB PUSH2 0x1978 JUMPI PUSH2 0x1977 PUSH2 0x1921 JUMP JUMPDEST JUMPDEST POP SWAP2 SWAP1 POP JUMP JUMPDEST PUSH32 0x596F7520646F6E2774206861766520656E6F75676820746F6B656E7300000000 PUSH0 DUP3 ADD MSTORE POP JUMP JUMPDEST PUSH0 PUSH2 0x19B2 PUSH1 0x1C DUP4 PUSH2 0x15E0 JUMP JUMPDEST SWAP2 POP PUSH2 0x19BD DUP3 PUSH2 0x197E JUMP JUMPDEST PUSH1 0x20 DUP3 ADD SWAP1 POP SWAP2 SWAP1 POP JUMP JUMPDEST PUSH0 PUSH1 0x20 DUP3 ADD SWAP1 POP DUP2 DUP2 SUB PUSH0 DUP4 ADD MSTORE PUSH2 0x19DF DUP2 PUSH2 0x19A6 JUMP JUMPDEST SWAP1 POP SWAP2 SWAP1 POP JUMP JUMPDEST PUSH32 0x4E487B7100000000000000000000000000000000000000000000000000000000 PUSH0 MSTORE PUSH1 0x11 PUSH1 0x4 MSTORE PUSH1 0x24 PUSH0 REVERT JUMPDEST PUSH0 PUSH2 0x1A1D DUP3 PUSH2 0x16C4 JUMP JUMPDEST SWAP2 POP PUSH32 0xFFFFFFFFFFFFFFFFFFFFFFFFFFFFFFFFFFFFFFFFFFFFFFFFFFFFFFFFFFFFFFFF DUP3 SUB PUSH2 0x1A4F JUMPI PUSH2 0x1A4E PUSH2 0x19E6 JUMP JUMPDEST JUMPDEST PUSH1 0x1 DUP3 ADD SWAP1 POP SWAP2 SWAP1 POP JUMP JUMPDEST PUSH0 PUSH1 0x80 DUP3 ADD SWAP1 POP PUSH2 0x1A6D PUSH0 DUP4 ADD DUP8 PUSH2 0x1768 JUMP JUMPDEST PUSH2 0x1A7A PUSH1 0x20 DUP4 ADD DUP7 PUSH2 0x186A JUMP JUMPDEST PUSH2 0x1A87 PUSH1 0x40 DUP4 ADD DUP6 PUSH2 0x186A JUMP JUMPDEST PUSH2 0x1A94 PUSH1 0x60 DUP4 ADD DUP5 PUSH2 0x1768 JUMP JUMPDEST SWAP6 SWAP5 POP POP POP POP POP JUMP JUMPDEST PUSH32 0x4F6E6C7920617070726F766572732063616E2065786563757465207468697320 PUSH0 DUP3 ADD MSTORE PUSH32 0x66756E6374696F6E000000000000000000000000000000000000000000000000 PUSH1 0x20 DUP3 ADD MSTORE POP JUMP JUMPDEST PUSH0 PUSH2 0x1AF7 PUSH1 0x28 DUP4 PUSH2 0x15E0 JUMP JUMPDEST SWAP2 POP PUSH2 0x1B02 DUP3 PUSH2 0x1A9D JUMP JUMPDEST PUSH1 0x40 DUP3 ADD SWAP1 POP SWAP2 SWAP1 POP JUMP JUMPDEST PUSH0 PUSH1 0x20 DUP3 ADD SWAP1 POP DUP2 DUP2 SUB PUSH0 DUP4 ADD MSTORE PUSH2 0x1B24 DUP2 PUSH2 0x1AEB JUMP JUMPDEST SWAP1 POP SWAP2 SWAP1 POP JUMP JUMPDEST PUSH32 0x5472616E73616374696F6E20616C726561647920657865637574656400000000 PUSH0 DUP3 ADD MSTORE POP JUMP JUMPDEST PUSH0 PUSH2 0x1B5F PUSH1 0x1C DUP4 PUSH2 0x15E0 JUMP JUMPDEST SWAP2 POP PUSH2 0x1B6A DUP3 PUSH2 0x1B2B JUMP JUMPDEST PUSH1 0x20 DUP3 ADD SWAP1 POP SWAP2 SWAP1 POP JUMP JUMPDEST PUSH0 PUSH1 0x20 DUP3 ADD SWAP1 POP DUP2 DUP2 SUB PUSH0 DUP4 ADD MSTORE PUSH2 0x1B8C DUP2 PUSH2 0x1B53 JUMP JUMPDEST SWAP1 POP SWAP2 SWAP1 POP JUMP JUMPDEST PUSH32 0x5472616E73616374696F6E20616C726561647920617070726F76656420627920 PUSH0 DUP3 ADD MSTORE PUSH32 0x7468697320617070726F76657200000000000000000000000000000000000000 PUSH1 0x20 DUP3 ADD MSTORE POP JUMP JUMPDEST PUSH0 PUSH2 0x1BED PUSH1 0x2D DUP4 PUSH2 0x15E0 JUMP JUMPDEST SWAP2 POP PUSH2 0x1BF8 DUP3 PUSH2 0x1B93 JUMP JUMPDEST PUSH1 0x40 DUP3 ADD SWAP1 POP SWAP2 SWAP1 POP JUMP JUMPDEST PUSH0 PUSH1 0x20 DUP3 ADD SWAP1 POP DUP2 DUP2 SUB PUSH0 DUP4 ADD MSTORE PUSH2 0x1C1A DUP2 PUSH2 0x1BE1 JUMP JUMPDEST SWAP1 POP SWAP2 SWAP1 POP JUMP JUMPDEST PUSH0 PUSH1 0x40 DUP3 ADD SWAP1 POP PUSH2 0x1C34 PUSH0 DUP4 ADD DUP6 PUSH2 0x1768 JUMP JUMPDEST PUSH2 0x1C41 PUSH1 0x20 DUP4 ADD DUP5 PUSH2 0x186A JUMP JUMPDEST SWAP4 SWAP3 POP POP POP JUMP JUMPDEST PUSH32 0x4E487B7100000000000000000000000000000000000000000000000000000000 PUSH0 MSTORE PUSH1 0x12 PUSH1 0x4 MSTORE PUSH1 0x24 PUSH0 REVERT JUMPDEST PUSH0 PUSH2 0x1C7F DUP3 PUSH2 0x16C4 JUMP JUMPDEST SWAP2 POP PUSH2 0x1C8A DUP4 PUSH2 0x16C4 JUMP JUMPDEST SWAP3 POP DUP3 PUSH2 0x1C9A JUMPI PUSH2 0x1C99 PUSH2 0x1C48 JUMP JUMPDEST JUMPDEST DUP3 DUP3 DIV SWAP1 POP SWAP3 SWAP2 POP POP JUMP JUMPDEST PUSH32 0x596F752061726520616C726561647920617070726F7665640000000000000000 PUSH0 DUP3 ADD MSTORE POP JUMP JUMPDEST PUSH0 PUSH2 0x1CD9 PUSH1 0x18 DUP4 PUSH2 0x15E0 JUMP JUMPDEST SWAP2 POP PUSH2 0x1CE4 DUP3 PUSH2 0x1CA5 JUMP JUMPDEST PUSH1 0x20 DUP3 ADD SWAP1 POP SWAP2 SWAP1 POP JUMP JUMPDEST PUSH0 PUSH1 0x20 DUP3 ADD SWAP1 POP DUP2 DUP2 SUB PUSH0 DUP4 ADD MSTORE PUSH2 0x1D06 DUP2 PUSH2 0x1CCD JUMP JUMPDEST SWAP1 POP SWAP2 SWAP1 POP JUMP JUMPDEST PUSH32 0x596F75206861766520616C7265616479206170706C6965640000000000000000 PUSH0 DUP3 ADD MSTORE POP JUMP JUMPDEST PUSH0 PUSH2 0x1D41 PUSH1 0x18 DUP4 PUSH2 0x15E0 JUMP JUMPDEST SWAP2 POP PUSH2 0x1D4C DUP3 PUSH2 0x1D0D JUMP JUMPDEST PUSH1 0x20 DUP3 ADD SWAP1 POP SWAP2 SWAP1 POP JUMP JUMPDEST PUSH0 PUSH1 0x20 DUP3 ADD SWAP1 POP DUP2 DUP2 SUB PUSH0 DUP4 ADD MSTORE PUSH2 0x1D6E DUP2 PUSH2 0x1D35 JUMP JUMPDEST SWAP1 POP SWAP2 SWAP1 POP JUMP JUMPDEST PUSH32 0x41646472657373204E6F7420466F756E64000000000000000000000000000000 PUSH0 DUP3 ADD MSTORE POP JUMP JUMPDEST PUSH0 PUSH2 0x1DA9 PUSH1 0x11 DUP4 PUSH2 0x15E0 JUMP JUMPDEST SWAP2 POP PUSH2 0x1DB4 DUP3 PUSH2 0x1D75 JUMP JUMPDEST PUSH1 0x20 DUP3 ADD SWAP1 POP SWAP2 SWAP1 POP JUMP JUMPDEST PUSH0 PUSH1 0x20 DUP3 ADD SWAP1 POP DUP2 DUP2 SUB PUSH0 DUP4 ADD MSTORE PUSH2 0x1DD6 DUP2 PUSH2 0x1D9D JUMP JUMPDEST SWAP1 POP SWAP2 SWAP1 POP JUMP JUMPDEST PUSH0 PUSH2 0x1DE7 DUP3 PUSH2 0x16C4 JUMP JUMPDEST SWAP2 POP PUSH0 DUP3 SUB PUSH2 0x1DF9 JUMPI PUSH2 0x1DF8 PUSH2 0x19E6 JUMP JUMPDEST JUMPDEST PUSH1 0x1 DUP3 SUB SWAP1 POP SWAP2 SWAP1 POP JUMP JUMPDEST PUSH32 0x546865204164647265737320697320616C726561647920617070726F76656400 PUSH0 DUP3 ADD MSTORE POP JUMP JUMPDEST PUSH0 PUSH2 0x1E38 PUSH1 0x1F DUP4 PUSH2 0x15E0 JUMP JUMPDEST SWAP2 POP PUSH2 0x1E43 DUP3 PUSH2 0x1E04 JUMP JUMPDEST PUSH1 0x20 DUP3 ADD SWAP1 POP SWAP2 SWAP1 POP JUMP JUMPDEST PUSH0 PUSH1 0x20 DUP3 ADD SWAP1 POP DUP2 DUP2 SUB PUSH0 DUP4 ADD MSTORE PUSH2 0x1E65 DUP2 PUSH2 0x1E2C JUMP JUMPDEST SWAP1 POP SWAP2 SWAP1 POP JUMP JUMPDEST PUSH0 PUSH1 0x60 DUP3 ADD SWAP1 POP PUSH2 0x1E7F PUSH0 DUP4 ADD DUP7 PUSH2 0x186A JUMP JUMPDEST PUSH2 0x1E8C PUSH1 0x20 DUP4 ADD DUP6 PUSH2 0x1768 JUMP JUMPDEST PUSH2 0x1E99 PUSH1 0x40 DUP4 ADD DUP5 PUSH2 0x1768 JUMP JUMPDEST SWAP5 SWAP4 POP POP POP POP JUMP JUMPDEST PUSH32 0x496E73756666696369656E7420417070726F76616C7300000000000000000000 PUSH0 DUP3 ADD MSTORE POP JUMP JUMPDEST PUSH0 PUSH2 0x1ED5 PUSH1 0x16 DUP4 PUSH2 0x15E0 JUMP JUMPDEST SWAP2 POP PUSH2 0x1EE0 DUP3 PUSH2 0x1EA1 JUMP JUMPDEST PUSH1 0x20 DUP3 ADD SWAP1 POP SWAP2 SWAP1 POP JUMP JUMPDEST PUSH0 PUSH1 0x20 DUP3 ADD SWAP1 POP DUP2 DUP2 SUB PUSH0 DUP4 ADD MSTORE PUSH2 0x1F02 DUP2 PUSH2 0x1EC9 JUMP JUMPDEST SWAP1 POP SWAP2 SWAP1 POP JUMP JUMPDEST PUSH0 PUSH2 0x1F13 DUP3 PUSH2 0x16C4 JUMP JUMPDEST SWAP2 POP PUSH2 0x1F1E DUP4 PUSH2 0x16C4 JUMP JUMPDEST SWAP3 POP DUP3 DUP3 ADD SWAP1 POP DUP1 DUP3 GT ISZERO PUSH2 0x1F36 JUMPI PUSH2 0x1F35 PUSH2 0x19E6 JUMP JUMPDEST JUMPDEST SWAP3 SWAP2 POP POP JUMP INVALID LOG2 PUSH5 0x6970667358 0x22 SLT KECCAK256 RETURNDATACOPY CALLDATASIZE PUSH10 0x282E6BD449D183866E66 0x4E 0x2B PUSH12 0x174F5EFF64D99BFEF8640B10 0xA5 0x2D 0xE3 SWAP12 PUSH5 0x736F6C6343 STOP ADDMOD BYTE STOP CALLER "
				},
				"gasEstimates": {
					"creation": {
						"codeDepositCost": "1610000",
						"executionCost": "infinite",
						"totalCost": "infinite"
					},
					"external": {
						"allowance(address,address)": "infinite",
						"appliedForApprovals(address)": "2878",
						"applyForApproval()": "30304",
						"approve(address,uint256)": "infinite",
						"approveApprovall(address)": "infinite",
						"approveTransaction(uint256)": "infinite",
						"approvedApprovers(address)": "2944",
						"balanceOf(address)": "2852",
						"createTransaction(address,uint256)": "infinite",
						"decimals()": "405",
						"deleteApprover(address)": "infinite",
						"name()": "infinite",
						"owner()": "2575",
						"symbol()": "infinite",
						"totalSupply()": "2500",
						"transactions(uint256)": "infinite",
						"transfer(address,uint256)": "infinite",
						"transferFrom(address,address,uint256)": "infinite"
					},
					"internal": {
						"executeTransaction(uint256)": "infinite"
					}
				},
				"methodIdentifiers": {
					"allowance(address,address)": "dd62ed3e",
					"appliedForApprovals(address)": "7b0a60b0",
					"applyForApproval()": "3ca7697d",
					"approve(address,uint256)": "095ea7b3",
					"approveApprovall(address)": "94ec6756",
					"approveTransaction(uint256)": "242232d1",
					"approvedApprovers(address)": "6da2b552",
					"balanceOf(address)": "70a08231",
					"createTransaction(address,uint256)": "1e7f8f0f",
					"decimals()": "313ce567",
					"deleteApprover(address)": "9102891a",
					"name()": "06fdde03",
					"owner()": "8da5cb5b",
					"symbol()": "95d89b41",
					"totalSupply()": "18160ddd",
					"transactions(uint256)": "9ace38c2",
					"transfer(address,uint256)": "a9059cbb",
					"transferFrom(address,address,uint256)": "23b872dd"
				}
			},
			"storageLayout": {
				"storage": [
					{
						"astId": 159,
						"contract": "learning.sol:ApproverToken",
						"label": "_balances",
						"offset": 0,
						"slot": "0",
						"type": "t_mapping(t_address,t_uint256)"
					},
					{
						"astId": 165,
						"contract": "learning.sol:ApproverToken",
						"label": "_allowances",
						"offset": 0,
						"slot": "1",
						"type": "t_mapping(t_address,t_mapping(t_address,t_uint256))"
					},
					{
						"astId": 167,
						"contract": "learning.sol:ApproverToken",
						"label": "_totalSupply",
						"offset": 0,
						"slot": "2",
						"type": "t_uint256"
					},
					{
						"astId": 169,
						"contract": "learning.sol:ApproverToken",
						"label": "_name",
						"offset": 0,
						"slot": "3",
						"type": "t_string_storage"
					},
					{
						"astId": 171,
						"contract": "learning.sol:ApproverToken",
						"label": "_symbol",
						"offset": 0,
						"slot": "4",
						"type": "t_string_storage"
					},
					{
						"astId": 792,
						"contract": "learning.sol:ApproverToken",
						"label": "owner",
						"offset": 0,
						"slot": "5",
						"type": "t_address"
					},
					{
						"astId": 796,
						"contract": "learning.sol:ApproverToken",
						"label": "approvedApprovers",
						"offset": 0,
						"slot": "6",
						"type": "t_mapping(t_address,t_bool)"
					},
					{
						"astId": 800,
						"contract": "learning.sol:ApproverToken",
						"label": "appliedForApprovals",
						"offset": 0,
						"slot": "7",
						"type": "t_mapping(t_address,t_bool)"
					},
					{
						"astId": 802,
						"contract": "learning.sol:ApproverToken",
						"label": "approverCount",
						"offset": 0,
						"slot": "8",
						"type": "t_uint256"
					},
					{
						"astId": 804,
						"contract": "learning.sol:ApproverToken",
						"label": "transactionCount",
						"offset": 0,
						"slot": "9",
						"type": "t_uint256"
					},
					{
						"astId": 856,
						"contract": "learning.sol:ApproverToken",
						"label": "transactions",
						"offset": 0,
						"slot": "10",
						"type": "t_mapping(t_uint256,t_struct(Transaction)851_storage)"
					}
				],
				"types": {
					"t_address": {
						"encoding": "inplace",
						"label": "address",
						"numberOfBytes": "20"
					},
					"t_bool": {
						"encoding": "inplace",
						"label": "bool",
						"numberOfBytes": "1"
					},
					"t_mapping(t_address,t_bool)": {
						"encoding": "mapping",
						"key": "t_address",
						"label": "mapping(address => bool)",
						"numberOfBytes": "32",
						"value": "t_bool"
					},
					"t_mapping(t_address,t_mapping(t_address,t_uint256))": {
						"encoding": "mapping",
						"key": "t_address",
						"label": "mapping(address => mapping(address => uint256))",
						"numberOfBytes": "32",
						"value": "t_mapping(t_address,t_uint256)"
					},
					"t_mapping(t_address,t_uint256)": {
						"encoding": "mapping",
						"key": "t_address",
						"label": "mapping(address => uint256)",
						"numberOfBytes": "32",
						"value": "t_uint256"
					},
					"t_mapping(t_uint256,t_struct(Transaction)851_storage)": {
						"encoding": "mapping",
						"key": "t_uint256",
						"label": "mapping(uint256 => struct ApproverToken.Transaction)",
						"numberOfBytes": "32",
						"value": "t_struct(Transaction)851_storage"
					},
					"t_string_storage": {
						"encoding": "bytes",
						"label": "string",
						"numberOfBytes": "32"
					},
					"t_struct(Transaction)851_storage": {
						"encoding": "inplace",
						"label": "struct ApproverToken.Transaction",
						"members": [
							{
								"astId": 838,
								"contract": "learning.sol:ApproverToken",
								"label": "from",
								"offset": 0,
								"slot": "0",
								"type": "t_address"
							},
							{
								"astId": 840,
								"contract": "learning.sol:ApproverToken",
								"label": "to",
								"offset": 0,
								"slot": "1",
								"type": "t_address"
							},
							{
								"astId": 842,
								"contract": "learning.sol:ApproverToken",
								"label": "amount",
								"offset": 0,
								"slot": "2",
								"type": "t_uint256"
							},
							{
								"astId": 844,
								"contract": "learning.sol:ApproverToken",
								"label": "approvalCount",
								"offset": 0,
								"slot": "3",
								"type": "t_uint256"
							},
							{
								"astId": 848,
								"contract": "learning.sol:ApproverToken",
								"label": "approvals",
								"offset": 0,
								"slot": "4",
								"type": "t_mapping(t_address,t_bool)"
							},
							{
								"astId": 850,
								"contract": "learning.sol:ApproverToken",
								"label": "executed",
								"offset": 0,
								"slot": "5",
								"type": "t_bool"
							}
						],
						"numberOfBytes": "192"
					},
					"t_uint256": {
						"encoding": "inplace",
						"label": "uint256",
						"numberOfBytes": "32"
					}
				}
			},
			"userdoc": {
				"kind": "user",
				"methods": {},
				"version": 1
			}
		}
	}
}