{
	"payable2.sol": {
		"Payable": {
			"abi": [
				{
					"inputs": [
						{
							"internalType": "address",
							"name": "target",
							"type": "address"
						}
					],
					"name": "AddressEmptyCode",
					"type": "error"
				},
				{
					"inputs": [
						{
							"internalType": "address",
							"name": "implementation",
							"type": "address"
						}
					],
					"name": "ERC1967InvalidImplementation",
					"type": "error"
				},
				{
					"inputs": [],
					"name": "ERC1967NonPayable",
					"type": "error"
				},
				{
					"inputs": [],
					"name": "FailedInnerCall",
					"type": "error"
				},
				{
					"inputs": [],
					"name": "InvalidInitialization",
					"type": "error"
				},
				{
					"inputs": [],
					"name": "NotInitializing",
					"type": "error"
				},
				{
					"inputs": [
						{
							"internalType": "address",
							"name": "owner",
							"type": "address"
						}
					],
					"name": "OwnableInvalidOwner",
					"type": "error"
				},
				{
					"inputs": [
						{
							"internalType": "address",
							"name": "account",
							"type": "address"
						}
					],
					"name": "OwnableUnauthorizedAccount",
					"type": "error"
				},
				{
					"inputs": [],
					"name": "UUPSUnauthorizedCallContext",
					"type": "error"
				},
				{
					"inputs": [
						{
							"internalType": "bytes32",
							"name": "slot",
							"type": "bytes32"
						}
					],
					"name": "UUPSUnsupportedProxiableUUID",
					"type": "error"
				},
				{
					"anonymous": false,
					"inputs": [
						{
							"indexed": false,
							"internalType": "address",
							"name": "_approver",
							"type": "address"
						}
					],
					"name": "AppliedForApprovers",
					"type": "event"
				},
				{
					"anonymous": false,
					"inputs": [
						{
							"indexed": false,
							"internalType": "address",
							"name": "approved",
							"type": "address"
						}
					],
					"name": "ApproverApproved",
					"type": "event"
				},
				{
					"anonymous": false,
					"inputs": [
						{
							"indexed": false,
							"internalType": "uint256",
							"name": "id",
							"type": "uint256"
						},
						{
							"indexed": false,
							"internalType": "address",
							"name": "to",
							"type": "address"
						},
						{
							"indexed": false,
							"internalType": "uint256",
							"name": "amount",
							"type": "uint256"
						}
					],
					"name": "FundsTransferred",
					"type": "event"
				},
				{
					"anonymous": false,
					"inputs": [
						{
							"indexed": false,
							"internalType": "uint64",
							"name": "version",
							"type": "uint64"
						}
					],
					"name": "Initialized",
					"type": "event"
				},
				{
					"anonymous": false,
					"inputs": [
						{
							"indexed": true,
							"internalType": "address",
							"name": "previousOwner",
							"type": "address"
						},
						{
							"indexed": true,
							"internalType": "address",
							"name": "newOwner",
							"type": "address"
						}
					],
					"name": "OwnershipTransferred",
					"type": "event"
				},
				{
					"anonymous": false,
					"inputs": [
						{
							"indexed": false,
							"internalType": "uint256",
							"name": "id",
							"type": "uint256"
						},
						{
							"indexed": false,
							"internalType": "address",
							"name": "approver",
							"type": "address"
						}
					],
					"name": "TransactionApproved",
					"type": "event"
				},
				{
					"anonymous": false,
					"inputs": [
						{
							"indexed": false,
							"internalType": "uint256",
							"name": "id",
							"type": "uint256"
						},
						{
							"indexed": false,
							"internalType": "address",
							"name": "to",
							"type": "address"
						},
						{
							"indexed": false,
							"internalType": "uint256",
							"name": "amount",
							"type": "uint256"
						}
					],
					"name": "TransactionCreated",
					"type": "event"
				},
				{
					"anonymous": false,
					"inputs": [
						{
							"indexed": false,
							"internalType": "uint256",
							"name": "id",
							"type": "uint256"
						},
						{
							"indexed": false,
							"internalType": "address",
							"name": "disapprover",
							"type": "address"
						}
					],
					"name": "TransactionDisapproved",
					"type": "event"
				},
				{
					"anonymous": false,
					"inputs": [
						{
							"indexed": false,
							"internalType": "uint256",
							"name": "id",
							"type": "uint256"
						},
						{
							"indexed": false,
							"internalType": "address",
							"name": "to",
							"type": "address"
						},
						{
							"indexed": false,
							"internalType": "uint256",
							"name": "amount",
							"type": "uint256"
						}
					],
					"name": "TransactionFailed",
					"type": "event"
				},
				{
					"anonymous": false,
					"inputs": [
						{
							"indexed": true,
							"internalType": "address",
							"name": "implementation",
							"type": "address"
						}
					],
					"name": "Upgraded",
					"type": "event"
				},
				{
					"inputs": [],
					"name": "UPGRADE_INTERFACE_VERSION",
					"outputs": [
						{
							"internalType": "string",
							"name": "",
							"type": "string"
						}
					],
					"stateMutability": "view",
					"type": "function"
				},
				{
					"inputs": [
						{
							"internalType": "address[]",
							"name": "addresses",
							"type": "address[]"
						}
					],
					"name": "addApprovers",
					"outputs": [],
					"stateMutability": "nonpayable",
					"type": "function"
				},
				{
					"inputs": [],
					"name": "appliedApproversList",
					"outputs": [
						{
							"internalType": "address[]",
							"name": "",
							"type": "address[]"
						}
					],
					"stateMutability": "view",
					"type": "function"
				},
				{
					"inputs": [
						{
							"internalType": "address",
							"name": "adress",
							"type": "address"
						}
					],
					"name": "applyForApprover",
					"outputs": [],
					"stateMutability": "nonpayable",
					"type": "function"
				},
				{
					"inputs": [
						{
							"internalType": "address",
							"name": "adres",
							"type": "address"
						}
					],
					"name": "approveApprover",
					"outputs": [],
					"stateMutability": "nonpayable",
					"type": "function"
				},
				{
					"inputs": [
						{
							"internalType": "uint256",
							"name": "transactionId",
							"type": "uint256"
						}
					],
					"name": "approveTransaction",
					"outputs": [],
					"stateMutability": "nonpayable",
					"type": "function"
				},
				{
					"inputs": [],
					"name": "approversList",
					"outputs": [
						{
							"internalType": "address[]",
							"name": "",
							"type": "address[]"
						}
					],
					"stateMutability": "view",
					"type": "function"
				},
				{
					"inputs": [],
					"name": "balance",
					"outputs": [
						{
							"internalType": "uint256",
							"name": "",
							"type": "uint256"
						}
					],
					"stateMutability": "view",
					"type": "function"
				},
				{
					"inputs": [
						{
							"internalType": "address",
							"name": "to",
							"type": "address"
						},
						{
							"internalType": "uint256",
							"name": "_amount",
							"type": "uint256"
						}
					],
					"name": "createTransaction",
					"outputs": [
						{
							"internalType": "uint256",
							"name": "",
							"type": "uint256"
						}
					],
					"stateMutability": "nonpayable",
					"type": "function"
				},
				{
					"inputs": [
						{
							"internalType": "uint256",
							"name": "transactionId",
							"type": "uint256"
						}
					],
					"name": "disapproveTransaction",
					"outputs": [],
					"stateMutability": "nonpayable",
					"type": "function"
				},
				{
					"inputs": [],
					"name": "getAllTransactions",
					"outputs": [
						{
							"components": [
								{
									"internalType": "address",
									"name": "to",
									"type": "address"
								},
								{
									"internalType": "uint256",
									"name": "amount",
									"type": "uint256"
								},
								{
									"internalType": "address[]",
									"name": "approvals",
									"type": "address[]"
								},
								{
									"internalType": "address[]",
									"name": "disapprovals",
									"type": "address[]"
								},
								{
									"internalType": "bool",
									"name": "executed",
									"type": "bool"
								},
								{
									"internalType": "uint256",
									"name": "timestamp",
									"type": "uint256"
								},
								{
									"internalType": "uint256",
									"name": "approvalCount",
									"type": "uint256"
								},
								{
									"internalType": "uint256",
									"name": "disapprovalCount",
									"type": "uint256"
								}
							],
							"internalType": "struct Payable.Transaction[]",
							"name": "",
							"type": "tuple[]"
						}
					],
					"stateMutability": "view",
					"type": "function"
				},
				{
					"inputs": [
						{
							"internalType": "address",
							"name": "ad",
							"type": "address"
						}
					],
					"name": "getBalance",
					"outputs": [
						{
							"internalType": "uint256",
							"name": "",
							"type": "uint256"
						}
					],
					"stateMutability": "view",
					"type": "function"
				},
				{
					"inputs": [
						{
							"internalType": "uint256",
							"name": "transactionId",
							"type": "uint256"
						}
					],
					"name": "getTransactionDetails",
					"outputs": [
						{
							"components": [
								{
									"internalType": "address",
									"name": "to",
									"type": "address"
								},
								{
									"internalType": "uint256",
									"name": "amount",
									"type": "uint256"
								},
								{
									"internalType": "address[]",
									"name": "approvals",
									"type": "address[]"
								},
								{
									"internalType": "address[]",
									"name": "disapprovals",
									"type": "address[]"
								},
								{
									"internalType": "bool",
									"name": "executed",
									"type": "bool"
								},
								{
									"internalType": "uint256",
									"name": "timestamp",
									"type": "uint256"
								},
								{
									"internalType": "uint256",
									"name": "approvalCount",
									"type": "uint256"
								},
								{
									"internalType": "uint256",
									"name": "disapprovalCount",
									"type": "uint256"
								}
							],
							"internalType": "struct Payable.Transaction",
							"name": "",
							"type": "tuple"
						}
					],
					"stateMutability": "view",
					"type": "function"
				},
				{
					"inputs": [],
					"name": "initialize",
					"outputs": [],
					"stateMutability": "nonpayable",
					"type": "function"
				},
				{
					"inputs": [],
					"name": "owner",
					"outputs": [
						{
							"internalType": "address",
							"name": "",
							"type": "address"
						}
					],
					"stateMutability": "view",
					"type": "function"
				},
				{
					"inputs": [],
					"name": "proxiableUUID",
					"outputs": [
						{
							"internalType": "bytes32",
							"name": "",
							"type": "bytes32"
						}
					],
					"stateMutability": "view",
					"type": "function"
				},
				{
					"inputs": [],
					"name": "receivEthers",
					"outputs": [],
					"stateMutability": "payable",
					"type": "function"
				},
				{
					"inputs": [],
					"name": "renounceOwnership",
					"outputs": [],
					"stateMutability": "nonpayable",
					"type": "function"
				},
				{
					"inputs": [
						{
							"internalType": "address",
							"name": "newOwner",
							"type": "address"
						}
					],
					"name": "transferOwnership",
					"outputs": [],
					"stateMutability": "nonpayable",
					"type": "function"
				},
				{
					"inputs": [
						{
							"internalType": "address",
							"name": "newImplementation",
							"type": "address"
						},
						{
							"internalType": "bytes",
							"name": "data",
							"type": "bytes"
						}
					],
					"name": "upgradeToAndCall",
					"outputs": [],
					"stateMutability": "payable",
					"type": "function"
				}
			],
			"devdoc": {
				"errors": {
					"AddressEmptyCode(address)": [
						{
							"details": "There's no code at `target` (it is not a contract)."
						}
					],
					"ERC1967InvalidImplementation(address)": [
						{
							"details": "The `implementation` of the proxy is invalid."
						}
					],
					"ERC1967NonPayable()": [
						{
							"details": "An upgrade function sees `msg.value > 0` that may be lost."
						}
					],
					"FailedInnerCall()": [
						{
							"details": "A call to an address target failed. The target may have reverted."
						}
					],
					"InvalidInitialization()": [
						{
							"details": "The contract is already initialized."
						}
					],
					"NotInitializing()": [
						{
							"details": "The contract is not initializing."
						}
					],
					"OwnableInvalidOwner(address)": [
						{
							"details": "The owner is not a valid owner account. (eg. `address(0)`)"
						}
					],
					"OwnableUnauthorizedAccount(address)": [
						{
							"details": "The caller account is not authorized to perform an operation."
						}
					],
					"UUPSUnauthorizedCallContext()": [
						{
							"details": "The call is from an unauthorized context."
						}
					],
					"UUPSUnsupportedProxiableUUID(bytes32)": [
						{
							"details": "The storage `slot` is unsupported as a UUID."
						}
					]
				},
				"events": {
					"Initialized(uint64)": {
						"details": "Triggered when the contract has been initialized or reinitialized."
					},
					"Upgraded(address)": {
						"details": "Emitted when the implementation is upgraded."
					}
				},
				"kind": "dev",
				"methods": {
					"owner()": {
						"details": "Returns the address of the current owner."
					},
					"proxiableUUID()": {
						"details": "Implementation of the ERC1822 {proxiableUUID} function. This returns the storage slot used by the implementation. It is used to validate the implementation's compatibility when performing an upgrade. IMPORTANT: A proxy pointing at a proxiable contract should not be considered proxiable itself, because this risks bricking a proxy that upgrades to it, by delegating to itself until out of gas. Thus it is critical that this function revert if invoked through a proxy. This is guaranteed by the `notDelegated` modifier."
					},
					"renounceOwnership()": {
						"details": "Leaves the contract without owner. It will not be possible to call `onlyOwner` functions. Can only be called by the current owner. NOTE: Renouncing ownership will leave the contract without an owner, thereby disabling any functionality that is only available to the owner."
					},
					"transferOwnership(address)": {
						"details": "Transfers ownership of the contract to a new account (`newOwner`). Can only be called by the current owner."
					},
					"upgradeToAndCall(address,bytes)": {
						"custom:oz-upgrades-unsafe-allow-reachable": "delegatecall",
						"details": "Upgrade the implementation of the proxy to `newImplementation`, and subsequently execute the function call encoded in `data`. Calls {_authorizeUpgrade}. Emits an {Upgraded} event."
					}
				},
				"version": 1
			},
			"evm": {
				"assembly": "    /* \"payable2.sol\":289:6620  contract Payable is... */\n  mstore(0x40, 0xa0)\n    /* \"@openzeppelin/contracts-upgradeable/proxy/utils/UUPSUpgradeable.sol\":1171:1175  this */\n  address\n    /* \"@openzeppelin/contracts-upgradeable/proxy/utils/UUPSUpgradeable.sol\":1128:1176  address private immutable __self = address(this) */\n  0xffffffffffffffffffffffffffffffffffffffff\n  and\n  0x80\n  swap1\n  0xffffffffffffffffffffffffffffffffffffffff\n  and\n  dup2\n  mstore\n  pop\n    /* \"payable2.sol\":289:6620  contract Payable is... */\n  callvalue\n  dup1\n  iszero\n  tag_1\n  jumpi\n  0x00\n  dup1\n  revert\ntag_1:\n  pop\n  mload(0x80)\n  codecopy(0x00, dataOffset(sub_0), dataSize(sub_0))\n  0x00\n  assignImmutable(\"0x0b83f23a4eeb8c3f5f7d5934a2289bcf0186d09a12e1b7f20adf54e4b179db15\")\n  return(0x00, dataSize(sub_0))\nstop\n\nsub_0: assembly {\n        /* \"payable2.sol\":289:6620  contract Payable is... */\n      mstore(0x40, 0x80)\n      jumpi(tag_1, lt(calldatasize, 0x04))\n      shr(0xe0, calldataload(0x00))\n      dup1\n      0x838d4cd1\n      gt\n      tag_22\n      jumpi\n      dup1\n      0xbe2af9cb\n      gt\n      tag_23\n      jumpi\n      dup1\n      0xbe2af9cb\n      eq\n      tag_17\n      jumpi\n      dup1\n      0xc82830ea\n      eq\n      tag_18\n      jumpi\n      dup1\n      0xf2fde38b\n      eq\n      tag_19\n      jumpi\n      dup1\n      0xf8b2cb4f\n      eq\n      tag_20\n      jumpi\n      dup1\n      0xff7d55ea\n      eq\n      tag_21\n      jumpi\n      jump(tag_1)\n    tag_23:\n      dup1\n      0x838d4cd1\n      eq\n      tag_12\n      jumpi\n      dup1\n      0x8da5cb5b\n      eq\n      tag_13\n      jumpi\n      dup1\n      0x9911a149\n      eq\n      tag_14\n      jumpi\n      dup1\n      0xad3cb1cc\n      eq\n      tag_15\n      jumpi\n      dup1\n      0xb69ef8a8\n      eq\n      tag_16\n      jumpi\n      jump(tag_1)\n    tag_22:\n      dup1\n      0x4f1ef286\n      gt\n      tag_24\n      jumpi\n      dup1\n      0x4f1ef286\n      eq\n      tag_7\n      jumpi\n      dup1\n      0x52d1902d\n      eq\n      tag_8\n      jumpi\n      dup1\n      0x6a882d51\n      eq\n      tag_9\n      jumpi\n      dup1\n      0x715018a6\n      eq\n      tag_10\n      jumpi\n      dup1\n      0x8129fc1c\n      eq\n      tag_11\n      jumpi\n      jump(tag_1)\n    tag_24:\n      dup1\n      0x0fa683d3\n      eq\n      tag_2\n      jumpi\n      dup1\n      0x1e7f8f0f\n      eq\n      tag_3\n      jumpi\n      dup1\n      0x242232d1\n      eq\n      tag_4\n      jumpi\n      dup1\n      0x27506f53\n      eq\n      tag_5\n      jumpi\n      dup1\n      0x35b0d745\n      eq\n      tag_6\n      jumpi\n    tag_1:\n      0x00\n      dup1\n      revert\n        /* \"payable2.sol\":3747:3890  function getTransactionDetails(uint transactionId) public view returns (Transaction memory) {... */\n    tag_2:\n      callvalue\n      dup1\n      iszero\n      tag_25\n      jumpi\n      0x00\n      dup1\n      revert\n    tag_25:\n      pop\n      tag_26\n      0x04\n      dup1\n      calldatasize\n      sub\n      dup2\n      add\n      swap1\n      tag_27\n      swap2\n      swap1\n      tag_28\n      jump\t// in\n    tag_27:\n      tag_29\n      jump\t// in\n    tag_26:\n      mload(0x40)\n      tag_30\n      swap2\n      swap1\n      tag_31\n      jump\t// in\n    tag_30:\n      mload(0x40)\n      dup1\n      swap2\n      sub\n      swap1\n      return\n        /* \"payable2.sol\":1929:2655  function createTransaction(address to, uint _amount) external returns (uint) {... */\n    tag_3:\n      callvalue\n      dup1\n      iszero\n      tag_32\n      jumpi\n      0x00\n      dup1\n      revert\n    tag_32:\n      pop\n      tag_33\n      0x04\n      dup1\n      calldatasize\n      sub\n      dup2\n      add\n      swap1\n      tag_34\n      swap2\n      swap1\n      tag_35\n      jump\t// in\n    tag_34:\n      tag_36\n      jump\t// in\n    tag_33:\n      mload(0x40)\n      tag_37\n      swap2\n      swap1\n      tag_38\n      jump\t// in\n    tag_37:\n      mload(0x40)\n      dup1\n      swap2\n      sub\n      swap1\n      return\n        /* \"payable2.sol\":2665:3424  function approveTransaction(uint256 transactionId) public onlyApprover {... */\n    tag_4:\n      callvalue\n      dup1\n      iszero\n      tag_39\n      jumpi\n      0x00\n      dup1\n      revert\n    tag_39:\n      pop\n      tag_40\n      0x04\n      dup1\n      calldatasize\n      sub\n      dup2\n      add\n      swap1\n      tag_41\n      swap2\n      swap1\n      tag_28\n      jump\t// in\n    tag_41:\n      tag_42\n      jump\t// in\n    tag_40:\n      stop\n        /* \"payable2.sol\":3896:4005  function getAllTransactions() public view returns (Transaction[] memory) {... */\n    tag_5:\n      callvalue\n      dup1\n      iszero\n      tag_43\n      jumpi\n      0x00\n      dup1\n      revert\n    tag_43:\n      pop\n      tag_44\n      tag_45\n      jump\t// in\n    tag_44:\n      mload(0x40)\n      tag_46\n      swap2\n      swap1\n      tag_47\n      jump\t// in\n    tag_46:\n      mload(0x40)\n      dup1\n      swap2\n      sub\n      swap1\n      return\n        /* \"payable2.sol\":4125:4239  function appliedApproversList() public view returns (address[] memory) {... */\n    tag_6:\n      callvalue\n      dup1\n      iszero\n      tag_48\n      jumpi\n      0x00\n      dup1\n      revert\n    tag_48:\n      pop\n      tag_49\n      tag_50\n      jump\t// in\n    tag_49:\n      mload(0x40)\n      tag_51\n      swap2\n      swap1\n      tag_52\n      jump\t// in\n    tag_51:\n      mload(0x40)\n      dup1\n      swap2\n      sub\n      swap1\n      return\n        /* \"@openzeppelin/contracts-upgradeable/proxy/utils/UUPSUpgradeable.sol\":4158:4372  function upgradeToAndCall(address newImplementation, bytes memory data) public payable virtual onlyProxy {... */\n    tag_7:\n      tag_53\n      0x04\n      dup1\n      calldatasize\n      sub\n      dup2\n      add\n      swap1\n      tag_54\n      swap2\n      swap1\n      tag_55\n      jump\t// in\n    tag_54:\n      tag_56\n      jump\t// in\n    tag_53:\n      stop\n        /* \"@openzeppelin/contracts-upgradeable/proxy/utils/UUPSUpgradeable.sol\":3705:3839  function proxiableUUID() external view virtual notDelegated returns (bytes32) {... */\n    tag_8:\n      callvalue\n      dup1\n      iszero\n      tag_57\n      jumpi\n      0x00\n      dup1\n      revert\n    tag_57:\n      pop\n      tag_58\n      tag_59\n      jump\t// in\n    tag_58:\n      mload(0x40)\n      tag_60\n      swap2\n      swap1\n      tag_61\n      jump\t// in\n    tag_60:\n      mload(0x40)\n      dup1\n      swap2\n      sub\n      swap1\n      return\n        /* \"payable2.sol\":5018:5388  function addApprovers(address[] memory addresses) public onlyOwner {... */\n    tag_9:\n      callvalue\n      dup1\n      iszero\n      tag_62\n      jumpi\n      0x00\n      dup1\n      revert\n    tag_62:\n      pop\n      tag_63\n      0x04\n      dup1\n      calldatasize\n      sub\n      dup2\n      add\n      swap1\n      tag_64\n      swap2\n      swap1\n      tag_65\n      jump\t// in\n    tag_64:\n      tag_66\n      jump\t// in\n    tag_63:\n      stop\n        /* \"@openzeppelin/contracts-upgradeable/access/OwnableUpgradeable.sol\":3155:3256  function renounceOwnership() public virtual onlyOwner {... */\n    tag_10:\n      callvalue\n      dup1\n      iszero\n      tag_67\n      jumpi\n      0x00\n      dup1\n      revert\n    tag_67:\n      pop\n      tag_68\n      tag_69\n      jump\t// in\n    tag_68:\n      stop\n        /* \"payable2.sol\":1483:1667  function initialize() public initializer {... */\n    tag_11:\n      callvalue\n      dup1\n      iszero\n      tag_70\n      jumpi\n      0x00\n      dup1\n      revert\n    tag_70:\n      pop\n      tag_71\n      tag_72\n      jump\t// in\n    tag_71:\n      stop\n        /* \"payable2.sol\":5735:6360  function approveApprover(address adres) public onlyOwner {... */\n    tag_12:\n      callvalue\n      dup1\n      iszero\n      tag_73\n      jumpi\n      0x00\n      dup1\n      revert\n    tag_73:\n      pop\n      tag_74\n      0x04\n      dup1\n      calldatasize\n      sub\n      dup2\n      add\n      swap1\n      tag_75\n      swap2\n      swap1\n      tag_76\n      jump\t// in\n    tag_75:\n      tag_77\n      jump\t// in\n    tag_74:\n      stop\n        /* \"@openzeppelin/contracts-upgradeable/access/OwnableUpgradeable.sol\":2441:2585  function owner() public view virtual returns (address) {... */\n    tag_13:\n      callvalue\n      dup1\n      iszero\n      tag_78\n      jumpi\n      0x00\n      dup1\n      revert\n    tag_78:\n      pop\n      tag_79\n      tag_80\n      jump\t// in\n    tag_79:\n      mload(0x40)\n      tag_81\n      swap2\n      swap1\n      tag_82\n      jump\t// in\n    tag_81:\n      mload(0x40)\n      dup1\n      swap2\n      sub\n      swap1\n      return\n        /* \"payable2.sol\":3430:3737  function disapproveTransaction(uint256 transactionId) public onlyApprover {... */\n    tag_14:\n      callvalue\n      dup1\n      iszero\n      tag_83\n      jumpi\n      0x00\n      dup1\n      revert\n    tag_83:\n      pop\n      tag_84\n      0x04\n      dup1\n      calldatasize\n      sub\n      dup2\n      add\n      swap1\n      tag_85\n      swap2\n      swap1\n      tag_28\n      jump\t// in\n    tag_85:\n      tag_86\n      jump\t// in\n    tag_84:\n      stop\n        /* \"@openzeppelin/contracts-upgradeable/proxy/utils/UUPSUpgradeable.sol\":1819:1877  string public constant UPGRADE_INTERFACE_VERSION = \"5.0.0\" */\n    tag_15:\n      callvalue\n      dup1\n      iszero\n      tag_87\n      jumpi\n      0x00\n      dup1\n      revert\n    tag_87:\n      pop\n      tag_88\n      tag_89\n      jump\t// in\n    tag_88:\n      mload(0x40)\n      tag_90\n      swap2\n      swap1\n      tag_91\n      jump\t// in\n    tag_90:\n      mload(0x40)\n      dup1\n      swap2\n      sub\n      swap1\n      return\n        /* \"payable2.sol\":6478:6569  function balance() public view returns (uint) {... */\n    tag_16:\n      callvalue\n      dup1\n      iszero\n      tag_92\n      jumpi\n      0x00\n      dup1\n      revert\n    tag_92:\n      pop\n      tag_93\n      tag_94\n      jump\t// in\n    tag_93:\n      mload(0x40)\n      tag_95\n      swap2\n      swap1\n      tag_38\n      jump\t// in\n    tag_95:\n      mload(0x40)\n      dup1\n      swap2\n      sub\n      swap1\n      return\n        /* \"payable2.sol\":4011:4119  function approversList() public view returns (address[] memory) {... */\n    tag_17:\n      callvalue\n      dup1\n      iszero\n      tag_96\n      jumpi\n      0x00\n      dup1\n      revert\n    tag_96:\n      pop\n      tag_97\n      tag_98\n      jump\t// in\n    tag_97:\n      mload(0x40)\n      tag_99\n      swap2\n      swap1\n      tag_52\n      jump\t// in\n    tag_99:\n      mload(0x40)\n      dup1\n      swap2\n      sub\n      swap1\n      return\n        /* \"payable2.sol\":5394:5729  function applyForApprover(address adress) public {... */\n    tag_18:\n      callvalue\n      dup1\n      iszero\n      tag_100\n      jumpi\n      0x00\n      dup1\n      revert\n    tag_100:\n      pop\n      tag_101\n      0x04\n      dup1\n      calldatasize\n      sub\n      dup2\n      add\n      swap1\n      tag_102\n      swap2\n      swap1\n      tag_76\n      jump\t// in\n    tag_102:\n      tag_103\n      jump\t// in\n    tag_101:\n      stop\n        /* \"@openzeppelin/contracts-upgradeable/access/OwnableUpgradeable.sol\":3405:3620  function transferOwnership(address newOwner) public virtual onlyOwner {... */\n    tag_19:\n      callvalue\n      dup1\n      iszero\n      tag_104\n      jumpi\n      0x00\n      dup1\n      revert\n    tag_104:\n      pop\n      tag_105\n      0x04\n      dup1\n      calldatasize\n      sub\n      dup2\n      add\n      swap1\n      tag_106\n      swap2\n      swap1\n      tag_76\n      jump\t// in\n    tag_106:\n      tag_107\n      jump\t// in\n    tag_105:\n      stop\n        /* \"payable2.sol\":6366:6468  function getBalance(address ad) public view returns (uint) {... */\n    tag_20:\n      callvalue\n      dup1\n      iszero\n      tag_108\n      jumpi\n      0x00\n      dup1\n      revert\n    tag_108:\n      pop\n      tag_109\n      0x04\n      dup1\n      calldatasize\n      sub\n      dup2\n      add\n      swap1\n      tag_110\n      swap2\n      swap1\n      tag_76\n      jump\t// in\n    tag_110:\n      tag_111\n      jump\t// in\n    tag_109:\n      mload(0x40)\n      tag_112\n      swap2\n      swap1\n      tag_38\n      jump\t// in\n    tag_112:\n      mload(0x40)\n      dup1\n      swap2\n      sub\n      swap1\n      return\n        /* \"payable2.sol\":6575:6618  function receivEthers() external payable {} */\n    tag_21:\n      tag_113\n      tag_114\n      jump\t// in\n    tag_113:\n      stop\n        /* \"payable2.sol\":3747:3890  function getTransactionDetails(uint transactionId) public view returns (Transaction memory) {... */\n    tag_29:\n        /* \"payable2.sol\":3819:3837  Transaction memory */\n      tag_115\n      tag_116\n      jump\t// in\n    tag_115:\n        /* \"payable2.sol\":3856:3868  transactions */\n      0x05\n        /* \"payable2.sol\":3869:3882  transactionId */\n      dup3\n        /* \"payable2.sol\":3856:3883  transactions[transactionId] */\n      dup2\n      sload\n      dup2\n      lt\n      tag_118\n      jumpi\n      tag_119\n      tag_120\n      jump\t// in\n    tag_119:\n    tag_118:\n      swap1\n      0x00\n      mstore\n      keccak256(0x00, 0x20)\n      swap1\n      0x08\n      mul\n      add\n        /* \"payable2.sol\":3849:3883  return transactions[transactionId] */\n      mload(0x40)\n      dup1\n      0x0100\n      add\n      0x40\n      mstore\n      swap1\n      dup2\n      0x00\n      dup3\n      add\n      0x00\n      swap1\n      sload\n      swap1\n      0x0100\n      exp\n      swap1\n      div\n      0xffffffffffffffffffffffffffffffffffffffff\n      and\n      0xffffffffffffffffffffffffffffffffffffffff\n      and\n      0xffffffffffffffffffffffffffffffffffffffff\n      and\n      dup2\n      mstore\n      0x20\n      add\n      0x01\n      dup3\n      add\n      sload\n      dup2\n      mstore\n      0x20\n      add\n      0x02\n      dup3\n      add\n      dup1\n      sload\n      dup1\n      0x20\n      mul\n      0x20\n      add\n      mload(0x40)\n      swap1\n      dup2\n      add\n      0x40\n      mstore\n      dup1\n      swap3\n      swap2\n      swap1\n      dup2\n      dup2\n      mstore\n      0x20\n      add\n      dup3\n      dup1\n      sload\n      dup1\n      iszero\n      tag_122\n      jumpi\n      0x20\n      mul\n      dup3\n      add\n      swap2\n      swap1\n      0x00\n      mstore\n      keccak256(0x00, 0x20)\n      swap1\n    tag_123:\n      dup2\n      0x00\n      swap1\n      sload\n      swap1\n      0x0100\n      exp\n      swap1\n      div\n      0xffffffffffffffffffffffffffffffffffffffff\n      and\n      0xffffffffffffffffffffffffffffffffffffffff\n      and\n      dup2\n      mstore\n      0x20\n      add\n      swap1\n      0x01\n      add\n      swap1\n      dup1\n      dup4\n      gt\n      tag_123\n      jumpi\n    tag_122:\n      pop\n      pop\n      pop\n      pop\n      pop\n      dup2\n      mstore\n      0x20\n      add\n      0x03\n      dup3\n      add\n      dup1\n      sload\n      dup1\n      0x20\n      mul\n      0x20\n      add\n      mload(0x40)\n      swap1\n      dup2\n      add\n      0x40\n      mstore\n      dup1\n      swap3\n      swap2\n      swap1\n      dup2\n      dup2\n      mstore\n      0x20\n      add\n      dup3\n      dup1\n      sload\n      dup1\n      iszero\n      tag_124\n      jumpi\n      0x20\n      mul\n      dup3\n      add\n      swap2\n      swap1\n      0x00\n      mstore\n      keccak256(0x00, 0x20)\n      swap1\n    tag_125:\n      dup2\n      0x00\n      swap1\n      sload\n      swap1\n      0x0100\n      exp\n      swap1\n      div\n      0xffffffffffffffffffffffffffffffffffffffff\n      and\n      0xffffffffffffffffffffffffffffffffffffffff\n      and\n      dup2\n      mstore\n      0x20\n      add\n      swap1\n      0x01\n      add\n      swap1\n      dup1\n      dup4\n      gt\n      tag_125\n      jumpi\n    tag_124:\n      pop\n      pop\n      pop\n      pop\n      pop\n      dup2\n      mstore\n      0x20\n      add\n      0x04\n      dup3\n      add\n      0x00\n      swap1\n      sload\n      swap1\n      0x0100\n      exp\n      swap1\n      div\n      0xff\n      and\n      iszero\n      iszero\n      iszero\n      iszero\n      dup2\n      mstore\n      0x20\n      add\n      0x05\n      dup3\n      add\n      sload\n      dup2\n      mstore\n      0x20\n      add\n      0x06\n      dup3\n      add\n      sload\n      dup2\n      mstore\n      0x20\n      add\n      0x07\n      dup3\n      add\n      sload\n      dup2\n      mstore\n      pop\n      pop\n      swap1\n      pop\n        /* \"payable2.sol\":3747:3890  function getTransactionDetails(uint transactionId) public view returns (Transaction memory) {... */\n      swap2\n      swap1\n      pop\n      jump\t// out\n        /* \"payable2.sol\":1929:2655  function createTransaction(address to, uint _amount) external returns (uint) {... */\n    tag_36:\n        /* \"payable2.sol\":2000:2004  uint */\n      0x00\n        /* \"payable2.sol\":2049:2056  _amount */\n      dup2\n        /* \"payable2.sol\":2024:2045  address(this).balance */\n      selfbalance\n        /* \"payable2.sol\":2024:2056  address(this).balance >= _amount */\n      lt\n      iszero\n        /* \"payable2.sol\":2016:2097  require(address(this).balance >= _amount, \"Insufficient balance in the contract\") */\n      tag_127\n      jumpi\n      mload(0x40)\n      0x08c379a000000000000000000000000000000000000000000000000000000000\n      dup2\n      mstore\n      0x04\n      add\n      tag_128\n      swap1\n      tag_129\n      jump\t// in\n    tag_128:\n      mload(0x40)\n      dup1\n      swap2\n      sub\n      swap1\n      revert\n    tag_127:\n        /* \"payable2.sol\":2118:2122  1000 */\n      0x03e8\n        /* \"payable2.sol\":2110:2117  _amount */\n      dup3\n        /* \"payable2.sol\":2110:2122  _amount<1000 */\n      lt\n        /* \"payable2.sol\":2107:2184  if(_amount<1000){... */\n      iszero\n      tag_130\n      jumpi\n        /* \"payable2.sol\":2137:2173  revert(\"Please set a higher amount\") */\n      mload(0x40)\n      0x08c379a000000000000000000000000000000000000000000000000000000000\n      dup2\n      mstore\n      0x04\n      add\n      tag_131\n      swap1\n      tag_132\n      jump\t// in\n    tag_131:\n      mload(0x40)\n      dup1\n      swap2\n      sub\n      swap1\n      revert\n        /* \"payable2.sol\":2107:2184  if(_amount<1000){... */\n    tag_130:\n        /* \"payable2.sol\":2193:2214  uint256 transactionId */\n      0x00\n        /* \"payable2.sol\":2217:2229  transactions */\n      0x05\n        /* \"payable2.sol\":2217:2236  transactions.length */\n      dup1\n      sload\n      swap1\n      pop\n        /* \"payable2.sol\":2193:2236  uint256 transactionId = transactions.length */\n      swap1\n      pop\n        /* \"payable2.sol\":2246:2280  Transaction storage newTransaction */\n      0x00\n        /* \"payable2.sol\":2283:2295  transactions */\n      0x05\n        /* \"payable2.sol\":2283:2302  transactions.push() */\n      0x01\n      dup2\n      0x01\n      dup2\n      sload\n      add\n      dup1\n      dup3\n      sstore\n      dup1\n      swap2\n      pop\n      pop\n      sub\n      swap1\n      0x00\n      mstore\n      keccak256(0x00, 0x20)\n      swap1\n      0x08\n      mul\n      add\n        /* \"payable2.sol\":2246:2302  Transaction storage newTransaction = transactions.push() */\n      swap1\n      pop\n        /* \"payable2.sol\":2333:2335  to */\n      dup5\n        /* \"payable2.sol\":2313:2327  newTransaction */\n      dup2\n        /* \"payable2.sol\":2313:2330  newTransaction.to */\n      0x00\n      add\n      0x00\n        /* \"payable2.sol\":2313:2335  newTransaction.to = to */\n      0x0100\n      exp\n      dup2\n      sload\n      dup2\n      0xffffffffffffffffffffffffffffffffffffffff\n      mul\n      not\n      and\n      swap1\n      dup4\n      0xffffffffffffffffffffffffffffffffffffffff\n      and\n      mul\n      or\n      swap1\n      sstore\n      pop\n        /* \"payable2.sol\":2369:2376  _amount */\n      dup4\n        /* \"payable2.sol\":2345:2359  newTransaction */\n      dup2\n        /* \"payable2.sol\":2345:2366  newTransaction.amount */\n      0x01\n      add\n        /* \"payable2.sol\":2345:2376  newTransaction.amount = _amount */\n      dup2\n      swap1\n      sstore\n      pop\n        /* \"payable2.sol\":2412:2417  false */\n      0x00\n        /* \"payable2.sol\":2386:2400  newTransaction */\n      dup2\n        /* \"payable2.sol\":2386:2409  newTransaction.executed */\n      0x04\n      add\n      0x00\n        /* \"payable2.sol\":2386:2417  newTransaction.executed = false */\n      0x0100\n      exp\n      dup2\n      sload\n      dup2\n      0xff\n      mul\n      not\n      and\n      swap1\n      dup4\n      iszero\n      iszero\n      mul\n      or\n      swap1\n      sstore\n      pop\n        /* \"payable2.sol\":2454:2469  block.timestamp */\n      timestamp\n        /* \"payable2.sol\":2427:2441  newTransaction */\n      dup2\n        /* \"payable2.sol\":2427:2451  newTransaction.timestamp */\n      0x05\n      add\n        /* \"payable2.sol\":2427:2469  newTransaction.timestamp = block.timestamp */\n      dup2\n      swap1\n      sstore\n      pop\n        /* \"payable2.sol\":2510:2511  0 */\n      0x00\n        /* \"payable2.sol\":2479:2493  newTransaction */\n      dup2\n        /* \"payable2.sol\":2479:2507  newTransaction.approvalCount */\n      0x06\n      add\n        /* \"payable2.sol\":2479:2511  newTransaction.approvalCount = 0 */\n      dup2\n      swap1\n      sstore\n      pop\n        /* \"payable2.sol\":2555:2556  0 */\n      0x00\n        /* \"payable2.sol\":2521:2535  newTransaction */\n      dup2\n        /* \"payable2.sol\":2521:2552  newTransaction.disapprovalCount */\n      0x07\n      add\n        /* \"payable2.sol\":2521:2556  newTransaction.disapprovalCount = 0 */\n      dup2\n      swap1\n      sstore\n      pop\n        /* \"payable2.sol\":2572:2618  TransactionCreated(transactionId, to, _amount) */\n      0xfd27d176b6ebb21e0182c0e43df5818e0d632867e1eb47c383c58d221205fce3\n        /* \"payable2.sol\":2591:2604  transactionId */\n      dup3\n        /* \"payable2.sol\":2606:2608  to */\n      dup7\n        /* \"payable2.sol\":2610:2617  _amount */\n      dup7\n        /* \"payable2.sol\":2572:2618  TransactionCreated(transactionId, to, _amount) */\n      mload(0x40)\n      tag_134\n      swap4\n      swap3\n      swap2\n      swap1\n      tag_135\n      jump\t// in\n    tag_134:\n      mload(0x40)\n      dup1\n      swap2\n      sub\n      swap1\n      log1\n        /* \"payable2.sol\":2635:2648  transactionId */\n      dup2\n        /* \"payable2.sol\":2628:2648  return transactionId */\n      swap3\n      pop\n      pop\n      pop\n        /* \"payable2.sol\":1929:2655  function createTransaction(address to, uint _amount) external returns (uint) {... */\n      swap3\n      swap2\n      pop\n      pop\n      jump\t// out\n        /* \"payable2.sol\":2665:3424  function approveTransaction(uint256 transactionId) public onlyApprover {... */\n    tag_42:\n        /* \"payable2.sol\":1720:1737  approvedApprovers */\n      0x01\n        /* \"payable2.sol\":1720:1749  approvedApprovers[msg.sender] */\n      0x00\n        /* \"payable2.sol\":1738:1748  msg.sender */\n      caller\n        /* \"payable2.sol\":1720:1749  approvedApprovers[msg.sender] */\n      0xffffffffffffffffffffffffffffffffffffffff\n      and\n      0xffffffffffffffffffffffffffffffffffffffff\n      and\n      dup2\n      mstore\n      0x20\n      add\n      swap1\n      dup2\n      mstore\n      0x20\n      add\n      0x00\n      keccak256\n      0x00\n      swap1\n      sload\n      swap1\n      0x0100\n      exp\n      swap1\n      div\n      0xff\n      and\n        /* \"payable2.sol\":1712:1801  require(approvedApprovers[msg.sender], \"This function can only be called by an Approver\") */\n      tag_137\n      jumpi\n      mload(0x40)\n      0x08c379a000000000000000000000000000000000000000000000000000000000\n      dup2\n      mstore\n      0x04\n      add\n      tag_138\n      swap1\n      tag_139\n      jump\t// in\n    tag_138:\n      mload(0x40)\n      dup1\n      swap2\n      sub\n      swap1\n      revert\n    tag_137:\n        /* \"payable2.sol\":2746:2777  Transaction storage transaction */\n      0x00\n        /* \"payable2.sol\":2780:2792  transactions */\n      0x05\n        /* \"payable2.sol\":2793:2806  transactionId */\n      dup3\n        /* \"payable2.sol\":2780:2807  transactions[transactionId] */\n      dup2\n      sload\n      dup2\n      lt\n      tag_141\n      jumpi\n      tag_142\n      tag_120\n      jump\t// in\n    tag_142:\n    tag_141:\n      swap1\n      0x00\n      mstore\n      keccak256(0x00, 0x20)\n      swap1\n      0x08\n      mul\n      add\n        /* \"payable2.sol\":2746:2807  Transaction storage transaction = transactions[transactionId] */\n      swap1\n      pop\n        /* \"payable2.sol\":2826:2837  transaction */\n      dup1\n        /* \"payable2.sol\":2826:2846  transaction.executed */\n      0x04\n      add\n      0x00\n      swap1\n      sload\n      swap1\n      0x0100\n      exp\n      swap1\n      div\n      0xff\n      and\n        /* \"payable2.sol\":2825:2846  !transaction.executed */\n      iszero\n        /* \"payable2.sol\":2817:2886  require(!transaction.executed, \"The Transaction is already executed\") */\n      tag_144\n      jumpi\n      mload(0x40)\n      0x08c379a000000000000000000000000000000000000000000000000000000000\n      dup2\n      mstore\n      0x04\n      add\n      tag_145\n      swap1\n      tag_146\n      jump\t// in\n    tag_145:\n      mload(0x40)\n      dup1\n      swap2\n      sub\n      swap1\n      revert\n    tag_144:\n        /* \"payable2.sol\":2896:2907  transaction */\n      dup1\n        /* \"payable2.sol\":2896:2917  transaction.approvals */\n      0x02\n      add\n        /* \"payable2.sol\":2923:2933  msg.sender */\n      caller\n        /* \"payable2.sol\":2896:2934  transaction.approvals.push(msg.sender) */\n      swap1\n      dup1\n      0x01\n      dup2\n      sload\n      add\n      dup1\n      dup3\n      sstore\n      dup1\n      swap2\n      pop\n      pop\n      0x01\n      swap1\n      sub\n      swap1\n      0x00\n      mstore\n      keccak256(0x00, 0x20)\n      add\n      0x00\n      swap1\n      swap2\n      swap1\n      swap2\n      swap1\n      swap2\n      0x0100\n      exp\n      dup2\n      sload\n      dup2\n      0xffffffffffffffffffffffffffffffffffffffff\n      mul\n      not\n      and\n      swap1\n      dup4\n      0xffffffffffffffffffffffffffffffffffffffff\n      and\n      mul\n      or\n      swap1\n      sstore\n      pop\n        /* \"payable2.sol\":2944:2955  transaction */\n      dup1\n        /* \"payable2.sol\":2944:2969  transaction.approvalCount */\n      0x06\n      add\n      0x00\n        /* \"payable2.sol\":2944:2971  transaction.approvalCount++ */\n      dup2\n      sload\n      dup1\n      swap3\n      swap2\n      swap1\n      tag_148\n      swap1\n      tag_149\n      jump\t// in\n    tag_148:\n      swap2\n      swap1\n      pop\n      sstore\n      pop\n        /* \"payable2.sol\":3014:3055  getMax(minimumApprovals, approverCount/2) */\n      tag_150\n        /* \"payable2.sol\":3021:3037  minimumApprovals */\n      sload(0x07)\n        /* \"payable2.sol\":3053:3054  2 */\n      0x02\n        /* \"payable2.sol\":3039:3052  approverCount */\n      sload(0x06)\n        /* \"payable2.sol\":3039:3054  approverCount/2 */\n      tag_151\n      swap2\n      swap1\n      tag_152\n      jump\t// in\n    tag_151:\n        /* \"payable2.sol\":3014:3020  getMax */\n      tag_153\n        /* \"payable2.sol\":3014:3055  getMax(minimumApprovals, approverCount/2) */\n      jump\t// in\n    tag_150:\n        /* \"payable2.sol\":2985:2996  transaction */\n      dup2\n        /* \"payable2.sol\":2985:3010  transaction.approvalCount */\n      0x06\n      add\n      sload\n        /* \"payable2.sol\":2985:3055  transaction.approvalCount >= getMax(minimumApprovals, approverCount/2) */\n      lt\n        /* \"payable2.sol\":2982:3418  if(transaction.approvalCount >= getMax(minimumApprovals, approverCount/2)) {... */\n      tag_154\n      jumpi\n        /* \"payable2.sol\":3074:3107  executeTransaction(transactionId) */\n      tag_155\n        /* \"payable2.sol\":3093:3106  transactionId */\n      dup3\n        /* \"payable2.sol\":3074:3092  executeTransaction */\n      tag_156\n        /* \"payable2.sol\":3074:3107  executeTransaction(transactionId) */\n      jump\t// in\n    tag_155:\n        /* \"payable2.sol\":3071:3326  if(executeTransaction(transactionId)) {... */\n      iszero\n      tag_157\n      jumpi\n        /* \"payable2.sol\":3132:3199  FundsTransferred(transactionId, transaction.to, transaction.amount) */\n      0xe90ae330e5aefc2a73ddff0dd88bcaf8f4a0629d6553a2a85b22cac3d5f4a19e\n        /* \"payable2.sol\":3149:3162  transactionId */\n      dup3\n        /* \"payable2.sol\":3164:3175  transaction */\n      dup3\n        /* \"payable2.sol\":3164:3178  transaction.to */\n      0x00\n      add\n      0x00\n      swap1\n      sload\n      swap1\n      0x0100\n      exp\n      swap1\n      div\n      0xffffffffffffffffffffffffffffffffffffffff\n      and\n        /* \"payable2.sol\":3180:3191  transaction */\n      dup4\n        /* \"payable2.sol\":3180:3198  transaction.amount */\n      0x01\n      add\n      sload\n        /* \"payable2.sol\":3132:3199  FundsTransferred(transactionId, transaction.to, transaction.amount) */\n      mload(0x40)\n      tag_158\n      swap4\n      swap3\n      swap2\n      swap1\n      tag_135\n      jump\t// in\n    tag_158:\n      mload(0x40)\n      dup1\n      swap2\n      sub\n      swap1\n      log1\n        /* \"payable2.sol\":3071:3326  if(executeTransaction(transactionId)) {... */\n      jump(tag_159)\n    tag_157:\n        /* \"payable2.sol\":3243:3311  TransactionFailed(transactionId, transaction.to, transaction.amount) */\n      0xe015d34eef89d312e7f4ce9ac2b7d0a952a1a5329981aa762e2a64ccfd88dcc3\n        /* \"payable2.sol\":3261:3274  transactionId */\n      dup3\n        /* \"payable2.sol\":3276:3287  transaction */\n      dup3\n        /* \"payable2.sol\":3276:3290  transaction.to */\n      0x00\n      add\n      0x00\n      swap1\n      sload\n      swap1\n      0x0100\n      exp\n      swap1\n      div\n      0xffffffffffffffffffffffffffffffffffffffff\n      and\n        /* \"payable2.sol\":3292:3303  transaction */\n      dup4\n        /* \"payable2.sol\":3292:3310  transaction.amount */\n      0x01\n      add\n      sload\n        /* \"payable2.sol\":3243:3311  TransactionFailed(transactionId, transaction.to, transaction.amount) */\n      mload(0x40)\n      tag_160\n      swap4\n      swap3\n      swap2\n      swap1\n      tag_135\n      jump\t// in\n    tag_160:\n      mload(0x40)\n      dup1\n      swap2\n      sub\n      swap1\n      log1\n        /* \"payable2.sol\":3071:3326  if(executeTransaction(transactionId)) {... */\n    tag_159:\n        /* \"payable2.sol\":2982:3418  if(transaction.approvalCount >= getMax(minimumApprovals, approverCount/2)) {... */\n      jump(tag_161)\n    tag_154:\n        /* \"payable2.sol\":3361:3407  TransactionApproved(transactionId, msg.sender) */\n      0x924813d717e221b5f46dcd8a56da1679e4612584ab3237d55e5faabf6f6a3079\n        /* \"payable2.sol\":3381:3394  transactionId */\n      dup3\n        /* \"payable2.sol\":3396:3406  msg.sender */\n      caller\n        /* \"payable2.sol\":3361:3407  TransactionApproved(transactionId, msg.sender) */\n      mload(0x40)\n      tag_162\n      swap3\n      swap2\n      swap1\n      tag_163\n      jump\t// in\n    tag_162:\n      mload(0x40)\n      dup1\n      swap2\n      sub\n      swap1\n      log1\n        /* \"payable2.sol\":2982:3418  if(transaction.approvalCount >= getMax(minimumApprovals, approverCount/2)) {... */\n    tag_161:\n        /* \"payable2.sol\":2736:3424  {... */\n      pop\n        /* \"payable2.sol\":2665:3424  function approveTransaction(uint256 transactionId) public onlyApprover {... */\n      pop\n      jump\t// out\n        /* \"payable2.sol\":3896:4005  function getAllTransactions() public view returns (Transaction[] memory) {... */\n    tag_45:\n        /* \"payable2.sol\":3947:3967  Transaction[] memory */\n      0x60\n        /* \"payable2.sol\":3986:3998  transactions */\n      0x05\n        /* \"payable2.sol\":3979:3998  return transactions */\n      dup1\n      sload\n      dup1\n      0x20\n      mul\n      0x20\n      add\n      mload(0x40)\n      swap1\n      dup2\n      add\n      0x40\n      mstore\n      dup1\n      swap3\n      swap2\n      swap1\n      dup2\n      dup2\n      mstore\n      0x20\n      add\n      0x00\n      swap1\n    tag_165:\n      dup3\n      dup3\n      lt\n      iszero\n      tag_166\n      jumpi\n      dup4\n      dup3\n      swap1\n      0x00\n      mstore\n      keccak256(0x00, 0x20)\n      swap1\n      0x08\n      mul\n      add\n      mload(0x40)\n      dup1\n      0x0100\n      add\n      0x40\n      mstore\n      swap1\n      dup2\n      0x00\n      dup3\n      add\n      0x00\n      swap1\n      sload\n      swap1\n      0x0100\n      exp\n      swap1\n      div\n      0xffffffffffffffffffffffffffffffffffffffff\n      and\n      0xffffffffffffffffffffffffffffffffffffffff\n      and\n      0xffffffffffffffffffffffffffffffffffffffff\n      and\n      dup2\n      mstore\n      0x20\n      add\n      0x01\n      dup3\n      add\n      sload\n      dup2\n      mstore\n      0x20\n      add\n      0x02\n      dup3\n      add\n      dup1\n      sload\n      dup1\n      0x20\n      mul\n      0x20\n      add\n      mload(0x40)\n      swap1\n      dup2\n      add\n      0x40\n      mstore\n      dup1\n      swap3\n      swap2\n      swap1\n      dup2\n      dup2\n      mstore\n      0x20\n      add\n      dup3\n      dup1\n      sload\n      dup1\n      iszero\n      tag_168\n      jumpi\n      0x20\n      mul\n      dup3\n      add\n      swap2\n      swap1\n      0x00\n      mstore\n      keccak256(0x00, 0x20)\n      swap1\n    tag_169:\n      dup2\n      0x00\n      swap1\n      sload\n      swap1\n      0x0100\n      exp\n      swap1\n      div\n      0xffffffffffffffffffffffffffffffffffffffff\n      and\n      0xffffffffffffffffffffffffffffffffffffffff\n      and\n      dup2\n      mstore\n      0x20\n      add\n      swap1\n      0x01\n      add\n      swap1\n      dup1\n      dup4\n      gt\n      tag_169\n      jumpi\n    tag_168:\n      pop\n      pop\n      pop\n      pop\n      pop\n      dup2\n      mstore\n      0x20\n      add\n      0x03\n      dup3\n      add\n      dup1\n      sload\n      dup1\n      0x20\n      mul\n      0x20\n      add\n      mload(0x40)\n      swap1\n      dup2\n      add\n      0x40\n      mstore\n      dup1\n      swap3\n      swap2\n      swap1\n      dup2\n      dup2\n      mstore\n      0x20\n      add\n      dup3\n      dup1\n      sload\n      dup1\n      iszero\n      tag_170\n      jumpi\n      0x20\n      mul\n      dup3\n      add\n      swap2\n      swap1\n      0x00\n      mstore\n      keccak256(0x00, 0x20)\n      swap1\n    tag_171:\n      dup2\n      0x00\n      swap1\n      sload\n      swap1\n      0x0100\n      exp\n      swap1\n      div\n      0xffffffffffffffffffffffffffffffffffffffff\n      and\n      0xffffffffffffffffffffffffffffffffffffffff\n      and\n      dup2\n      mstore\n      0x20\n      add\n      swap1\n      0x01\n      add\n      swap1\n      dup1\n      dup4\n      gt\n      tag_171\n      jumpi\n    tag_170:\n      pop\n      pop\n      pop\n      pop\n      pop\n      dup2\n      mstore\n      0x20\n      add\n      0x04\n      dup3\n      add\n      0x00\n      swap1\n      sload\n      swap1\n      0x0100\n      exp\n      swap1\n      div\n      0xff\n      and\n      iszero\n      iszero\n      iszero\n      iszero\n      dup2\n      mstore\n      0x20\n      add\n      0x05\n      dup3\n      add\n      sload\n      dup2\n      mstore\n      0x20\n      add\n      0x06\n      dup3\n      add\n      sload\n      dup2\n      mstore\n      0x20\n      add\n      0x07\n      dup3\n      add\n      sload\n      dup2\n      mstore\n      pop\n      pop\n      dup2\n      mstore\n      0x20\n      add\n      swap1\n      0x01\n      add\n      swap1\n      jump(tag_165)\n    tag_166:\n      pop\n      pop\n      pop\n      pop\n      swap1\n      pop\n        /* \"payable2.sol\":3896:4005  function getAllTransactions() public view returns (Transaction[] memory) {... */\n      swap1\n      jump\t// out\n        /* \"payable2.sol\":4125:4239  function appliedApproversList() public view returns (address[] memory) {... */\n    tag_50:\n        /* \"payable2.sol\":4178:4194  address[] memory */\n      0x60\n        /* \"payable2.sol\":4213:4232  allAppliedAddresses */\n      0x04\n        /* \"payable2.sol\":4206:4232  return allAppliedAddresses */\n      dup1\n      sload\n      dup1\n      0x20\n      mul\n      0x20\n      add\n      mload(0x40)\n      swap1\n      dup2\n      add\n      0x40\n      mstore\n      dup1\n      swap3\n      swap2\n      swap1\n      dup2\n      dup2\n      mstore\n      0x20\n      add\n      dup3\n      dup1\n      sload\n      dup1\n      iszero\n      tag_173\n      jumpi\n      0x20\n      mul\n      dup3\n      add\n      swap2\n      swap1\n      0x00\n      mstore\n      keccak256(0x00, 0x20)\n      swap1\n    tag_174:\n      dup2\n      0x00\n      swap1\n      sload\n      swap1\n      0x0100\n      exp\n      swap1\n      div\n      0xffffffffffffffffffffffffffffffffffffffff\n      and\n      0xffffffffffffffffffffffffffffffffffffffff\n      and\n      dup2\n      mstore\n      0x20\n      add\n      swap1\n      0x01\n      add\n      swap1\n      dup1\n      dup4\n      gt\n      tag_174\n      jumpi\n    tag_173:\n      pop\n      pop\n      pop\n      pop\n      pop\n      swap1\n      pop\n        /* \"payable2.sol\":4125:4239  function appliedApproversList() public view returns (address[] memory) {... */\n      swap1\n      jump\t// out\n        /* \"@openzeppelin/contracts-upgradeable/proxy/utils/UUPSUpgradeable.sol\":4158:4372  function upgradeToAndCall(address newImplementation, bytes memory data) public payable virtual onlyProxy {... */\n    tag_56:\n        /* \"@openzeppelin/contracts-upgradeable/proxy/utils/UUPSUpgradeable.sol\":2653:2666  _checkProxy() */\n      tag_176\n        /* \"@openzeppelin/contracts-upgradeable/proxy/utils/UUPSUpgradeable.sol\":2653:2664  _checkProxy */\n      tag_177\n        /* \"@openzeppelin/contracts-upgradeable/proxy/utils/UUPSUpgradeable.sol\":2653:2666  _checkProxy() */\n      jump\t// in\n    tag_176:\n        /* \"@openzeppelin/contracts-upgradeable/proxy/utils/UUPSUpgradeable.sol\":4273:4309  _authorizeUpgrade(newImplementation) */\n      tag_179\n        /* \"@openzeppelin/contracts-upgradeable/proxy/utils/UUPSUpgradeable.sol\":4291:4308  newImplementation */\n      dup3\n        /* \"@openzeppelin/contracts-upgradeable/proxy/utils/UUPSUpgradeable.sol\":4273:4290  _authorizeUpgrade */\n      tag_180\n        /* \"@openzeppelin/contracts-upgradeable/proxy/utils/UUPSUpgradeable.sol\":4273:4309  _authorizeUpgrade(newImplementation) */\n      jump\t// in\n    tag_179:\n        /* \"@openzeppelin/contracts-upgradeable/proxy/utils/UUPSUpgradeable.sol\":4319:4365  _upgradeToAndCallUUPS(newImplementation, data) */\n      tag_181\n        /* \"@openzeppelin/contracts-upgradeable/proxy/utils/UUPSUpgradeable.sol\":4341:4358  newImplementation */\n      dup3\n        /* \"@openzeppelin/contracts-upgradeable/proxy/utils/UUPSUpgradeable.sol\":4360:4364  data */\n      dup3\n        /* \"@openzeppelin/contracts-upgradeable/proxy/utils/UUPSUpgradeable.sol\":4319:4340  _upgradeToAndCallUUPS */\n      tag_182\n        /* \"@openzeppelin/contracts-upgradeable/proxy/utils/UUPSUpgradeable.sol\":4319:4365  _upgradeToAndCallUUPS(newImplementation, data) */\n      jump\t// in\n    tag_181:\n        /* \"@openzeppelin/contracts-upgradeable/proxy/utils/UUPSUpgradeable.sol\":4158:4372  function upgradeToAndCall(address newImplementation, bytes memory data) public payable virtual onlyProxy {... */\n      pop\n      pop\n      jump\t// out\n        /* \"@openzeppelin/contracts-upgradeable/proxy/utils/UUPSUpgradeable.sol\":3705:3839  function proxiableUUID() external view virtual notDelegated returns (bytes32) {... */\n    tag_59:\n        /* \"@openzeppelin/contracts-upgradeable/proxy/utils/UUPSUpgradeable.sol\":3774:3781  bytes32 */\n      0x00\n        /* \"@openzeppelin/contracts-upgradeable/proxy/utils/UUPSUpgradeable.sol\":2924:2944  _checkNotDelegated() */\n      tag_184\n        /* \"@openzeppelin/contracts-upgradeable/proxy/utils/UUPSUpgradeable.sol\":2924:2942  _checkNotDelegated */\n      tag_185\n        /* \"@openzeppelin/contracts-upgradeable/proxy/utils/UUPSUpgradeable.sol\":2924:2944  _checkNotDelegated() */\n      jump\t// in\n    tag_184:\n        /* \"@openzeppelin/contracts/proxy/ERC1967/ERC1967Utils.sol\":1327:1393  0x360894a13ba1a3210667c828492db98dca3e2076cc3735a920a3ca505d382bbc */\n      0x360894a13ba1a3210667c828492db98dca3e2076cc3735a920a3ca505d382bbc\n        /* \"@openzeppelin/contracts-upgradeable/proxy/utils/UUPSUpgradeable.sol\":3800:3832  ERC1967Utils.IMPLEMENTATION_SLOT */\n      0x00\n      shl\n        /* \"@openzeppelin/contracts-upgradeable/proxy/utils/UUPSUpgradeable.sol\":3793:3832  return ERC1967Utils.IMPLEMENTATION_SLOT */\n      swap1\n      pop\n        /* \"@openzeppelin/contracts-upgradeable/proxy/utils/UUPSUpgradeable.sol\":3705:3839  function proxiableUUID() external view virtual notDelegated returns (bytes32) {... */\n      swap1\n      jump\t// out\n        /* \"payable2.sol\":5018:5388  function addApprovers(address[] memory addresses) public onlyOwner {... */\n    tag_66:\n        /* \"@openzeppelin/contracts-upgradeable/access/OwnableUpgradeable.sol\":2334:2347  _checkOwner() */\n      tag_188\n        /* \"@openzeppelin/contracts-upgradeable/access/OwnableUpgradeable.sol\":2334:2345  _checkOwner */\n      tag_189\n        /* \"@openzeppelin/contracts-upgradeable/access/OwnableUpgradeable.sol\":2334:2347  _checkOwner() */\n      jump\t// in\n    tag_188:\n        /* \"payable2.sol\":5100:5106  uint i */\n      0x00\n        /* \"payable2.sol\":5095:5382  for (uint i = 0; i < addresses.length; i++) {... */\n    tag_191:\n        /* \"payable2.sol\":5116:5125  addresses */\n      dup2\n        /* \"payable2.sol\":5116:5132  addresses.length */\n      mload\n        /* \"payable2.sol\":5112:5113  i */\n      dup2\n        /* \"payable2.sol\":5112:5132  i < addresses.length */\n      lt\n        /* \"payable2.sol\":5095:5382  for (uint i = 0; i < addresses.length; i++) {... */\n      iszero\n      tag_192\n      jumpi\n        /* \"payable2.sol\":5158:5175  approvedApprovers */\n      0x01\n        /* \"payable2.sol\":5158:5189  approvedApprovers[addresses[i]] */\n      0x00\n        /* \"payable2.sol\":5176:5185  addresses */\n      dup4\n        /* \"payable2.sol\":5186:5187  i */\n      dup4\n        /* \"payable2.sol\":5176:5188  addresses[i] */\n      dup2\n      mload\n      dup2\n      lt\n      tag_194\n      jumpi\n      tag_195\n      tag_120\n      jump\t// in\n    tag_195:\n    tag_194:\n      0x20\n      mul\n      0x20\n      add\n      add\n      mload\n        /* \"payable2.sol\":5158:5189  approvedApprovers[addresses[i]] */\n      0xffffffffffffffffffffffffffffffffffffffff\n      and\n      0xffffffffffffffffffffffffffffffffffffffff\n      and\n      dup2\n      mstore\n      0x20\n      add\n      swap1\n      dup2\n      mstore\n      0x20\n      add\n      0x00\n      keccak256\n      0x00\n      swap1\n      sload\n      swap1\n      0x0100\n      exp\n      swap1\n      div\n      0xff\n      and\n        /* \"payable2.sol\":5153:5372  if (!approvedApprovers[addresses[i]]) {... */\n      tag_196\n      jumpi\n        /* \"payable2.sol\":5243:5247  true */\n      0x01\n        /* \"payable2.sol\":5209:5226  approvedApprovers */\n      dup1\n        /* \"payable2.sol\":5209:5240  approvedApprovers[addresses[i]] */\n      0x00\n        /* \"payable2.sol\":5227:5236  addresses */\n      dup5\n        /* \"payable2.sol\":5237:5238  i */\n      dup5\n        /* \"payable2.sol\":5227:5239  addresses[i] */\n      dup2\n      mload\n      dup2\n      lt\n      tag_197\n      jumpi\n      tag_198\n      tag_120\n      jump\t// in\n    tag_198:\n    tag_197:\n      0x20\n      mul\n      0x20\n      add\n      add\n      mload\n        /* \"payable2.sol\":5209:5240  approvedApprovers[addresses[i]] */\n      0xffffffffffffffffffffffffffffffffffffffff\n      and\n      0xffffffffffffffffffffffffffffffffffffffff\n      and\n      dup2\n      mstore\n      0x20\n      add\n      swap1\n      dup2\n      mstore\n      0x20\n      add\n      0x00\n      keccak256\n      0x00\n        /* \"payable2.sol\":5209:5247  approvedApprovers[addresses[i]] = true */\n      0x0100\n      exp\n      dup2\n      sload\n      dup2\n      0xff\n      mul\n      not\n      and\n      swap1\n      dup4\n      iszero\n      iszero\n      mul\n      or\n      swap1\n      sstore\n      pop\n        /* \"payable2.sol\":5265:5285  allApprovedAddresses */\n      0x03\n        /* \"payable2.sol\":5291:5300  addresses */\n      dup3\n        /* \"payable2.sol\":5301:5302  i */\n      dup3\n        /* \"payable2.sol\":5291:5303  addresses[i] */\n      dup2\n      mload\n      dup2\n      lt\n      tag_199\n      jumpi\n      tag_200\n      tag_120\n      jump\t// in\n    tag_200:\n    tag_199:\n      0x20\n      mul\n      0x20\n      add\n      add\n      mload\n        /* \"payable2.sol\":5265:5304  allApprovedAddresses.push(addresses[i]) */\n      swap1\n      dup1\n      0x01\n      dup2\n      sload\n      add\n      dup1\n      dup3\n      sstore\n      dup1\n      swap2\n      pop\n      pop\n      0x01\n      swap1\n      sub\n      swap1\n      0x00\n      mstore\n      keccak256(0x00, 0x20)\n      add\n      0x00\n      swap1\n      swap2\n      swap1\n      swap2\n      swap1\n      swap2\n      0x0100\n      exp\n      dup2\n      sload\n      dup2\n      0xffffffffffffffffffffffffffffffffffffffff\n      mul\n      not\n      and\n      swap1\n      dup4\n      0xffffffffffffffffffffffffffffffffffffffff\n      and\n      mul\n      or\n      swap1\n      sstore\n      pop\n        /* \"payable2.sol\":5327:5357  ApproverApproved(addresses[i]) */\n      0x8ffbf603707f31ab466f6b711c89ae5521b6f93b25d3f86200054018476696d6\n        /* \"payable2.sol\":5344:5353  addresses */\n      dup3\n        /* \"payable2.sol\":5354:5355  i */\n      dup3\n        /* \"payable2.sol\":5344:5356  addresses[i] */\n      dup2\n      mload\n      dup2\n      lt\n      tag_202\n      jumpi\n      tag_203\n      tag_120\n      jump\t// in\n    tag_203:\n    tag_202:\n      0x20\n      mul\n      0x20\n      add\n      add\n      mload\n        /* \"payable2.sol\":5327:5357  ApproverApproved(addresses[i]) */\n      mload(0x40)\n      tag_204\n      swap2\n      swap1\n      tag_82\n      jump\t// in\n    tag_204:\n      mload(0x40)\n      dup1\n      swap2\n      sub\n      swap1\n      log1\n        /* \"payable2.sol\":5153:5372  if (!approvedApprovers[addresses[i]]) {... */\n    tag_196:\n        /* \"payable2.sol\":5134:5137  i++ */\n      dup1\n      dup1\n      0x01\n      add\n      swap2\n      pop\n      pop\n        /* \"payable2.sol\":5095:5382  for (uint i = 0; i < addresses.length; i++) {... */\n      jump(tag_191)\n    tag_192:\n      pop\n        /* \"payable2.sol\":5018:5388  function addApprovers(address[] memory addresses) public onlyOwner {... */\n      pop\n      jump\t// out\n        /* \"@openzeppelin/contracts-upgradeable/access/OwnableUpgradeable.sol\":3155:3256  function renounceOwnership() public virtual onlyOwner {... */\n    tag_69:\n        /* \"@openzeppelin/contracts-upgradeable/access/OwnableUpgradeable.sol\":2334:2347  _checkOwner() */\n      tag_206\n        /* \"@openzeppelin/contracts-upgradeable/access/OwnableUpgradeable.sol\":2334:2345  _checkOwner */\n      tag_189\n        /* \"@openzeppelin/contracts-upgradeable/access/OwnableUpgradeable.sol\":2334:2347  _checkOwner() */\n      jump\t// in\n    tag_206:\n        /* \"@openzeppelin/contracts-upgradeable/access/OwnableUpgradeable.sol\":3219:3249  _transferOwnership(address(0)) */\n      tag_208\n        /* \"@openzeppelin/contracts-upgradeable/access/OwnableUpgradeable.sol\":3246:3247  0 */\n      0x00\n        /* \"@openzeppelin/contracts-upgradeable/access/OwnableUpgradeable.sol\":3219:3237  _transferOwnership */\n      tag_209\n        /* \"@openzeppelin/contracts-upgradeable/access/OwnableUpgradeable.sol\":3219:3249  _transferOwnership(address(0)) */\n      jump\t// in\n    tag_208:\n        /* \"@openzeppelin/contracts-upgradeable/access/OwnableUpgradeable.sol\":3155:3256  function renounceOwnership() public virtual onlyOwner {... */\n      jump\t// out\n        /* \"payable2.sol\":1483:1667  function initialize() public initializer {... */\n    tag_72:\n        /* \"@openzeppelin/contracts-upgradeable/proxy/utils/Initializable.sol\":4158:4188  InitializableStorage storage $ */\n      0x00\n        /* \"@openzeppelin/contracts-upgradeable/proxy/utils/Initializable.sol\":4191:4217  _getInitializableStorage() */\n      tag_211\n        /* \"@openzeppelin/contracts-upgradeable/proxy/utils/Initializable.sol\":4191:4215  _getInitializableStorage */\n      tag_212\n        /* \"@openzeppelin/contracts-upgradeable/proxy/utils/Initializable.sol\":4191:4217  _getInitializableStorage() */\n      jump\t// in\n    tag_211:\n        /* \"@openzeppelin/contracts-upgradeable/proxy/utils/Initializable.sol\":4158:4217  InitializableStorage storage $ = _getInitializableStorage() */\n      swap1\n      pop\n        /* \"@openzeppelin/contracts-upgradeable/proxy/utils/Initializable.sol\":4279:4298  bool isTopLevelCall */\n      0x00\n        /* \"@openzeppelin/contracts-upgradeable/proxy/utils/Initializable.sol\":4302:4303  $ */\n      dup2\n        /* \"@openzeppelin/contracts-upgradeable/proxy/utils/Initializable.sol\":4302:4317  $._initializing */\n      0x00\n      add\n      0x08\n      swap1\n      sload\n      swap1\n      0x0100\n      exp\n      swap1\n      div\n      0xff\n      and\n        /* \"@openzeppelin/contracts-upgradeable/proxy/utils/Initializable.sol\":4301:4317  !$._initializing */\n      iszero\n        /* \"@openzeppelin/contracts-upgradeable/proxy/utils/Initializable.sol\":4279:4317  bool isTopLevelCall = !$._initializing */\n      swap1\n      pop\n        /* \"@openzeppelin/contracts-upgradeable/proxy/utils/Initializable.sol\":4327:4345  uint64 initialized */\n      0x00\n        /* \"@openzeppelin/contracts-upgradeable/proxy/utils/Initializable.sol\":4348:4349  $ */\n      dup3\n        /* \"@openzeppelin/contracts-upgradeable/proxy/utils/Initializable.sol\":4348:4362  $._initialized */\n      0x00\n      add\n      0x00\n      swap1\n      sload\n      swap1\n      0x0100\n      exp\n      swap1\n      div\n      0xffffffffffffffff\n      and\n        /* \"@openzeppelin/contracts-upgradeable/proxy/utils/Initializable.sol\":4327:4362  uint64 initialized = $._initialized */\n      swap1\n      pop\n        /* \"@openzeppelin/contracts-upgradeable/proxy/utils/Initializable.sol\":4706:4723  bool initialSetup */\n      0x00\n        /* \"@openzeppelin/contracts-upgradeable/proxy/utils/Initializable.sol\":4741:4742  0 */\n      dup1\n        /* \"@openzeppelin/contracts-upgradeable/proxy/utils/Initializable.sol\":4726:4737  initialized */\n      dup3\n        /* \"@openzeppelin/contracts-upgradeable/proxy/utils/Initializable.sol\":4726:4742  initialized == 0 */\n      0xffffffffffffffff\n      and\n      eq\n        /* \"@openzeppelin/contracts-upgradeable/proxy/utils/Initializable.sol\":4726:4760  initialized == 0 && isTopLevelCall */\n      dup1\n      iszero\n      tag_213\n      jumpi\n      pop\n        /* \"@openzeppelin/contracts-upgradeable/proxy/utils/Initializable.sol\":4746:4760  isTopLevelCall */\n      dup3\n        /* \"@openzeppelin/contracts-upgradeable/proxy/utils/Initializable.sol\":4726:4760  initialized == 0 && isTopLevelCall */\n    tag_213:\n        /* \"@openzeppelin/contracts-upgradeable/proxy/utils/Initializable.sol\":4706:4760  bool initialSetup = initialized == 0 && isTopLevelCall */\n      swap1\n      pop\n        /* \"@openzeppelin/contracts-upgradeable/proxy/utils/Initializable.sol\":4770:4787  bool construction */\n      0x00\n        /* \"@openzeppelin/contracts-upgradeable/proxy/utils/Initializable.sol\":4805:4806  1 */\n      0x01\n        /* \"@openzeppelin/contracts-upgradeable/proxy/utils/Initializable.sol\":4790:4801  initialized */\n      dup4\n        /* \"@openzeppelin/contracts-upgradeable/proxy/utils/Initializable.sol\":4790:4806  initialized == 1 */\n      0xffffffffffffffff\n      and\n      eq\n        /* \"@openzeppelin/contracts-upgradeable/proxy/utils/Initializable.sol\":4790:4840  initialized == 1 && address(this).code.length == 0 */\n      dup1\n      iszero\n      tag_214\n      jumpi\n      pop\n        /* \"@openzeppelin/contracts-upgradeable/proxy/utils/Initializable.sol\":4839:4840  0 */\n      0x00\n        /* \"@openzeppelin/contracts-upgradeable/proxy/utils/Initializable.sol\":4818:4822  this */\n      address\n        /* \"@openzeppelin/contracts-upgradeable/proxy/utils/Initializable.sol\":4810:4835  address(this).code.length */\n      0xffffffffffffffffffffffffffffffffffffffff\n      and\n      extcodesize\n        /* \"@openzeppelin/contracts-upgradeable/proxy/utils/Initializable.sol\":4810:4840  address(this).code.length == 0 */\n      eq\n        /* \"@openzeppelin/contracts-upgradeable/proxy/utils/Initializable.sol\":4790:4840  initialized == 1 && address(this).code.length == 0 */\n    tag_214:\n        /* \"@openzeppelin/contracts-upgradeable/proxy/utils/Initializable.sol\":4770:4840  bool construction = initialized == 1 && address(this).code.length == 0 */\n      swap1\n      pop\n        /* \"@openzeppelin/contracts-upgradeable/proxy/utils/Initializable.sol\":4856:4868  initialSetup */\n      dup2\n        /* \"@openzeppelin/contracts-upgradeable/proxy/utils/Initializable.sol\":4855:4868  !initialSetup */\n      iszero\n        /* \"@openzeppelin/contracts-upgradeable/proxy/utils/Initializable.sol\":4855:4885  !initialSetup && !construction */\n      dup1\n      iszero\n      tag_215\n      jumpi\n      pop\n        /* \"@openzeppelin/contracts-upgradeable/proxy/utils/Initializable.sol\":4873:4885  construction */\n      dup1\n        /* \"@openzeppelin/contracts-upgradeable/proxy/utils/Initializable.sol\":4872:4885  !construction */\n      iszero\n        /* \"@openzeppelin/contracts-upgradeable/proxy/utils/Initializable.sol\":4855:4885  !initialSetup && !construction */\n    tag_215:\n        /* \"@openzeppelin/contracts-upgradeable/proxy/utils/Initializable.sol\":4851:4942  if (!initialSetup && !construction) {... */\n      iszero\n      tag_216\n      jumpi\n        /* \"@openzeppelin/contracts-upgradeable/proxy/utils/Initializable.sol\":4908:4931  InvalidInitialization() */\n      mload(0x40)\n      0xf92ee8a900000000000000000000000000000000000000000000000000000000\n      dup2\n      mstore\n      0x04\n      add\n      mload(0x40)\n      dup1\n      swap2\n      sub\n      swap1\n      revert\n        /* \"@openzeppelin/contracts-upgradeable/proxy/utils/Initializable.sol\":4851:4942  if (!initialSetup && !construction) {... */\n    tag_216:\n        /* \"@openzeppelin/contracts-upgradeable/proxy/utils/Initializable.sol\":4968:4969  1 */\n      0x01\n        /* \"@openzeppelin/contracts-upgradeable/proxy/utils/Initializable.sol\":4951:4952  $ */\n      dup6\n        /* \"@openzeppelin/contracts-upgradeable/proxy/utils/Initializable.sol\":4951:4965  $._initialized */\n      0x00\n      add\n      0x00\n        /* \"@openzeppelin/contracts-upgradeable/proxy/utils/Initializable.sol\":4951:4969  $._initialized = 1 */\n      0x0100\n      exp\n      dup2\n      sload\n      dup2\n      0xffffffffffffffff\n      mul\n      not\n      and\n      swap1\n      dup4\n      0xffffffffffffffff\n      and\n      mul\n      or\n      swap1\n      sstore\n      pop\n        /* \"@openzeppelin/contracts-upgradeable/proxy/utils/Initializable.sol\":4983:4997  isTopLevelCall */\n      dup4\n        /* \"@openzeppelin/contracts-upgradeable/proxy/utils/Initializable.sol\":4979:5046  if (isTopLevelCall) {... */\n      iszero\n      tag_217\n      jumpi\n        /* \"@openzeppelin/contracts-upgradeable/proxy/utils/Initializable.sol\":5031:5035  true */\n      0x01\n        /* \"@openzeppelin/contracts-upgradeable/proxy/utils/Initializable.sol\":5013:5014  $ */\n      dup6\n        /* \"@openzeppelin/contracts-upgradeable/proxy/utils/Initializable.sol\":5013:5028  $._initializing */\n      0x00\n      add\n      0x08\n        /* \"@openzeppelin/contracts-upgradeable/proxy/utils/Initializable.sol\":5013:5035  $._initializing = true */\n      0x0100\n      exp\n      dup2\n      sload\n      dup2\n      0xff\n      mul\n      not\n      and\n      swap1\n      dup4\n      iszero\n      iszero\n      mul\n      or\n      swap1\n      sstore\n      pop\n        /* \"@openzeppelin/contracts-upgradeable/proxy/utils/Initializable.sol\":4979:5046  if (isTopLevelCall) {... */\n    tag_217:\n        /* \"payable2.sol\":1534:1560  __Ownable_init(msg.sender) */\n      tag_219\n        /* \"payable2.sol\":1549:1559  msg.sender */\n      caller\n        /* \"payable2.sol\":1534:1548  __Ownable_init */\n      tag_220\n        /* \"payable2.sol\":1534:1560  __Ownable_init(msg.sender) */\n      jump\t// in\n    tag_219:\n        /* \"payable2.sol\":1570:1594  __UUPSUpgradeable_init() */\n      tag_221\n        /* \"payable2.sol\":1570:1592  __UUPSUpgradeable_init */\n      tag_222\n        /* \"payable2.sol\":1570:1594  __UUPSUpgradeable_init() */\n      jump\t// in\n    tag_221:\n        /* \"payable2.sol\":1620:1630  msg.sender */\n      caller\n        /* \"payable2.sol\":1604:1617  Contarctowner */\n      0x00\n      dup1\n        /* \"payable2.sol\":1604:1630  Contarctowner = msg.sender */\n      0x0100\n      exp\n      dup2\n      sload\n      dup2\n      0xffffffffffffffffffffffffffffffffffffffff\n      mul\n      not\n      and\n      swap1\n      dup4\n      0xffffffffffffffffffffffffffffffffffffffff\n      and\n      mul\n      or\n      swap1\n      sstore\n      pop\n        /* \"payable2.sol\":1659:1660  5 */\n      0x05\n        /* \"payable2.sol\":1640:1656  minimumApprovals */\n      0x07\n        /* \"payable2.sol\":1640:1660  minimumApprovals = 5 */\n      dup2\n      swap1\n      sstore\n      pop\n        /* \"@openzeppelin/contracts-upgradeable/proxy/utils/Initializable.sol\":5070:5084  isTopLevelCall */\n      dup4\n        /* \"@openzeppelin/contracts-upgradeable/proxy/utils/Initializable.sol\":5066:5167  if (isTopLevelCall) {... */\n      iszero\n      tag_223\n      jumpi\n        /* \"@openzeppelin/contracts-upgradeable/proxy/utils/Initializable.sol\":5118:5123  false */\n      0x00\n        /* \"@openzeppelin/contracts-upgradeable/proxy/utils/Initializable.sol\":5100:5101  $ */\n      dup6\n        /* \"@openzeppelin/contracts-upgradeable/proxy/utils/Initializable.sol\":5100:5115  $._initializing */\n      0x00\n      add\n      0x08\n        /* \"@openzeppelin/contracts-upgradeable/proxy/utils/Initializable.sol\":5100:5123  $._initializing = false */\n      0x0100\n      exp\n      dup2\n      sload\n      dup2\n      0xff\n      mul\n      not\n      and\n      swap1\n      dup4\n      iszero\n      iszero\n      mul\n      or\n      swap1\n      sstore\n      pop\n        /* \"@openzeppelin/contracts-upgradeable/proxy/utils/Initializable.sol\":5142:5156  Initialized(1) */\n      0xc7f505b2f371ae2175ee4913f4499e1f2633a7b5936321eed1cdaeb6115181d2\n        /* \"@openzeppelin/contracts-upgradeable/proxy/utils/Initializable.sol\":5154:5155  1 */\n      0x01\n        /* \"@openzeppelin/contracts-upgradeable/proxy/utils/Initializable.sol\":5142:5156  Initialized(1) */\n      mload(0x40)\n      tag_224\n      swap2\n      swap1\n      tag_225\n      jump\t// in\n    tag_224:\n      mload(0x40)\n      dup1\n      swap2\n      sub\n      swap1\n      log1\n        /* \"@openzeppelin/contracts-upgradeable/proxy/utils/Initializable.sol\":5066:5167  if (isTopLevelCall) {... */\n    tag_223:\n        /* \"@openzeppelin/contracts-upgradeable/proxy/utils/Initializable.sol\":4092:5173  {... */\n      pop\n      pop\n      pop\n      pop\n      pop\n        /* \"payable2.sol\":1483:1667  function initialize() public initializer {... */\n      jump\t// out\n        /* \"payable2.sol\":5735:6360  function approveApprover(address adres) public onlyOwner {... */\n    tag_77:\n        /* \"@openzeppelin/contracts-upgradeable/access/OwnableUpgradeable.sol\":2334:2347  _checkOwner() */\n      tag_227\n        /* \"@openzeppelin/contracts-upgradeable/access/OwnableUpgradeable.sol\":2334:2345  _checkOwner */\n      tag_189\n        /* \"@openzeppelin/contracts-upgradeable/access/OwnableUpgradeable.sol\":2334:2347  _checkOwner() */\n      jump\t// in\n    tag_227:\n        /* \"payable2.sol\":5811:5828  approvedApprovers */\n      0x01\n        /* \"payable2.sol\":5811:5835  approvedApprovers[adres] */\n      0x00\n        /* \"payable2.sol\":5829:5834  adres */\n      dup3\n        /* \"payable2.sol\":5811:5835  approvedApprovers[adres] */\n      0xffffffffffffffffffffffffffffffffffffffff\n      and\n      0xffffffffffffffffffffffffffffffffffffffff\n      and\n      dup2\n      mstore\n      0x20\n      add\n      swap1\n      dup2\n      mstore\n      0x20\n      add\n      0x00\n      keccak256\n      0x00\n      swap1\n      sload\n      swap1\n      0x0100\n      exp\n      swap1\n      div\n      0xff\n      and\n        /* \"payable2.sol\":5810:5835  !approvedApprovers[adres] */\n      iszero\n        /* \"payable2.sol\":5802:5864  require(!approvedApprovers[adres], \"You are already approved\") */\n      tag_229\n      jumpi\n      mload(0x40)\n      0x08c379a000000000000000000000000000000000000000000000000000000000\n      dup2\n      mstore\n      0x04\n      add\n      tag_230\n      swap1\n      tag_231\n      jump\t// in\n    tag_230:\n      mload(0x40)\n      dup1\n      swap2\n      sub\n      swap1\n      revert\n    tag_229:\n        /* \"payable2.sol\":5881:5900  appliedForApprovers */\n      0x02\n        /* \"payable2.sol\":5881:5907  appliedForApprovers[adres] */\n      0x00\n        /* \"payable2.sol\":5901:5906  adres */\n      dup3\n        /* \"payable2.sol\":5881:5907  appliedForApprovers[adres] */\n      0xffffffffffffffffffffffffffffffffffffffff\n      and\n      0xffffffffffffffffffffffffffffffffffffffff\n      and\n      dup2\n      mstore\n      0x20\n      add\n      swap1\n      dup2\n      mstore\n      0x20\n      add\n      0x00\n      keccak256\n      0x00\n        /* \"payable2.sol\":5874:5907  delete appliedForApprovers[adres] */\n      0x0100\n      exp\n      dup2\n      sload\n      swap1\n      0xff\n      mul\n      not\n      and\n      swap1\n      sstore\n        /* \"payable2.sol\":5922:5928  uint i */\n      0x00\n        /* \"payable2.sol\":5917:6207  for (uint i = 0; i < allAppliedAddresses.length; i++) {... */\n    tag_232:\n        /* \"payable2.sol\":5938:5957  allAppliedAddresses */\n      0x04\n        /* \"payable2.sol\":5938:5964  allAppliedAddresses.length */\n      dup1\n      sload\n      swap1\n      pop\n        /* \"payable2.sol\":5934:5935  i */\n      dup2\n        /* \"payable2.sol\":5934:5964  i < allAppliedAddresses.length */\n      lt\n        /* \"payable2.sol\":5917:6207  for (uint i = 0; i < allAppliedAddresses.length; i++) {... */\n      iszero\n      tag_233\n      jumpi\n        /* \"payable2.sol\":6015:6020  adres */\n      dup2\n        /* \"payable2.sol\":5989:6020  allAppliedAddresses[i] == adres */\n      0xffffffffffffffffffffffffffffffffffffffff\n      and\n        /* \"payable2.sol\":5989:6008  allAppliedAddresses */\n      0x04\n        /* \"payable2.sol\":6009:6010  i */\n      dup3\n        /* \"payable2.sol\":5989:6011  allAppliedAddresses[i] */\n      dup2\n      sload\n      dup2\n      lt\n      tag_235\n      jumpi\n      tag_236\n      tag_120\n      jump\t// in\n    tag_236:\n    tag_235:\n      swap1\n      0x00\n      mstore\n      keccak256(0x00, 0x20)\n      add\n      0x00\n      swap1\n      sload\n      swap1\n      0x0100\n      exp\n      swap1\n      div\n      0xffffffffffffffffffffffffffffffffffffffff\n      and\n        /* \"payable2.sol\":5989:6020  allAppliedAddresses[i] == adres */\n      0xffffffffffffffffffffffffffffffffffffffff\n      and\n      sub\n        /* \"payable2.sol\":5985:6197  if (allAppliedAddresses[i] == adres) {... */\n      tag_238\n      jumpi\n        /* \"payable2.sol\":6065:6084  allAppliedAddresses */\n      0x04\n        /* \"payable2.sol\":6114:6115  1 */\n      0x01\n        /* \"payable2.sol\":6085:6104  allAppliedAddresses */\n      0x04\n        /* \"payable2.sol\":6085:6111  allAppliedAddresses.length */\n      dup1\n      sload\n      swap1\n      pop\n        /* \"payable2.sol\":6085:6115  allAppliedAddresses.length - 1 */\n      tag_239\n      swap2\n      swap1\n      tag_240\n      jump\t// in\n    tag_239:\n        /* \"payable2.sol\":6065:6116  allAppliedAddresses[allAppliedAddresses.length - 1] */\n      dup2\n      sload\n      dup2\n      lt\n      tag_241\n      jumpi\n      tag_242\n      tag_120\n      jump\t// in\n    tag_242:\n    tag_241:\n      swap1\n      0x00\n      mstore\n      keccak256(0x00, 0x20)\n      add\n      0x00\n      swap1\n      sload\n      swap1\n      0x0100\n      exp\n      swap1\n      div\n      0xffffffffffffffffffffffffffffffffffffffff\n      and\n        /* \"payable2.sol\":6040:6059  allAppliedAddresses */\n      0x04\n        /* \"payable2.sol\":6060:6061  i */\n      dup3\n        /* \"payable2.sol\":6040:6062  allAppliedAddresses[i] */\n      dup2\n      sload\n      dup2\n      lt\n      tag_244\n      jumpi\n      tag_245\n      tag_120\n      jump\t// in\n    tag_245:\n    tag_244:\n      swap1\n      0x00\n      mstore\n      keccak256(0x00, 0x20)\n      add\n      0x00\n        /* \"payable2.sol\":6040:6116  allAppliedAddresses[i] = allAppliedAddresses[allAppliedAddresses.length - 1] */\n      0x0100\n      exp\n      dup2\n      sload\n      dup2\n      0xffffffffffffffffffffffffffffffffffffffff\n      mul\n      not\n      and\n      swap1\n      dup4\n      0xffffffffffffffffffffffffffffffffffffffff\n      and\n      mul\n      or\n      swap1\n      sstore\n      pop\n        /* \"payable2.sol\":6134:6153  allAppliedAddresses */\n      0x04\n        /* \"payable2.sol\":6134:6159  allAppliedAddresses.pop() */\n      dup1\n      sload\n      dup1\n      tag_247\n      jumpi\n      tag_248\n      tag_249\n      jump\t// in\n    tag_248:\n    tag_247:\n      0x01\n      swap1\n      sub\n      dup2\n      dup2\n      swap1\n      0x00\n      mstore\n      keccak256(0x00, 0x20)\n      add\n      exp(0x0100, 0x00)\n      dup2\n      sload\n      swap1\n      0xffffffffffffffffffffffffffffffffffffffff\n      mul\n      not\n      and\n      swap1\n      sstore\n      swap1\n      sstore\n        /* \"payable2.sol\":6177:6182  break */\n      jump(tag_233)\n        /* \"payable2.sol\":5985:6197  if (allAppliedAddresses[i] == adres) {... */\n    tag_238:\n        /* \"payable2.sol\":5966:5969  i++ */\n      dup1\n      dup1\n      0x01\n      add\n      swap2\n      pop\n      pop\n        /* \"payable2.sol\":5917:6207  for (uint i = 0; i < allAppliedAddresses.length; i++) {... */\n      jump(tag_232)\n    tag_233:\n      pop\n        /* \"payable2.sol\":6243:6247  true */\n      0x01\n        /* \"payable2.sol\":6216:6233  approvedApprovers */\n      dup1\n        /* \"payable2.sol\":6216:6240  approvedApprovers[adres] */\n      0x00\n        /* \"payable2.sol\":6234:6239  adres */\n      dup4\n        /* \"payable2.sol\":6216:6240  approvedApprovers[adres] */\n      0xffffffffffffffffffffffffffffffffffffffff\n      and\n      0xffffffffffffffffffffffffffffffffffffffff\n      and\n      dup2\n      mstore\n      0x20\n      add\n      swap1\n      dup2\n      mstore\n      0x20\n      add\n      0x00\n      keccak256\n      0x00\n        /* \"payable2.sol\":6216:6247  approvedApprovers[adres] = true */\n      0x0100\n      exp\n      dup2\n      sload\n      dup2\n      0xff\n      mul\n      not\n      and\n      swap1\n      dup4\n      iszero\n      iszero\n      mul\n      or\n      swap1\n      sstore\n      pop\n        /* \"payable2.sol\":6257:6277  allApprovedAddresses */\n      0x03\n        /* \"payable2.sol\":6283:6288  adres */\n      dup2\n        /* \"payable2.sol\":6257:6289  allApprovedAddresses.push(adres) */\n      swap1\n      dup1\n      0x01\n      dup2\n      sload\n      add\n      dup1\n      dup3\n      sstore\n      dup1\n      swap2\n      pop\n      pop\n      0x01\n      swap1\n      sub\n      swap1\n      0x00\n      mstore\n      keccak256(0x00, 0x20)\n      add\n      0x00\n      swap1\n      swap2\n      swap1\n      swap2\n      swap1\n      swap2\n      0x0100\n      exp\n      dup2\n      sload\n      dup2\n      0xffffffffffffffffffffffffffffffffffffffff\n      mul\n      not\n      and\n      swap1\n      dup4\n      0xffffffffffffffffffffffffffffffffffffffff\n      and\n      mul\n      or\n      swap1\n      sstore\n      pop\n        /* \"payable2.sol\":6299:6312  approverCount */\n      0x06\n      0x00\n        /* \"payable2.sol\":6299:6314  approverCount++ */\n      dup2\n      sload\n      dup1\n      swap3\n      swap2\n      swap1\n      tag_252\n      swap1\n      tag_149\n      jump\t// in\n    tag_252:\n      swap2\n      swap1\n      pop\n      sstore\n      pop\n        /* \"payable2.sol\":6330:6353  ApproverApproved(adres) */\n      0x8ffbf603707f31ab466f6b711c89ae5521b6f93b25d3f86200054018476696d6\n        /* \"payable2.sol\":6347:6352  adres */\n      dup2\n        /* \"payable2.sol\":6330:6353  ApproverApproved(adres) */\n      mload(0x40)\n      tag_253\n      swap2\n      swap1\n      tag_82\n      jump\t// in\n    tag_253:\n      mload(0x40)\n      dup1\n      swap2\n      sub\n      swap1\n      log1\n        /* \"payable2.sol\":5735:6360  function approveApprover(address adres) public onlyOwner {... */\n      pop\n      jump\t// out\n        /* \"@openzeppelin/contracts-upgradeable/access/OwnableUpgradeable.sol\":2441:2585  function owner() public view virtual returns (address) {... */\n    tag_80:\n        /* \"@openzeppelin/contracts-upgradeable/access/OwnableUpgradeable.sol\":2487:2494  address */\n      0x00\n        /* \"@openzeppelin/contracts-upgradeable/access/OwnableUpgradeable.sol\":2506:2530  OwnableStorage storage $ */\n      dup1\n        /* \"@openzeppelin/contracts-upgradeable/access/OwnableUpgradeable.sol\":2533:2553  _getOwnableStorage() */\n      tag_255\n        /* \"@openzeppelin/contracts-upgradeable/access/OwnableUpgradeable.sol\":2533:2551  _getOwnableStorage */\n      tag_256\n        /* \"@openzeppelin/contracts-upgradeable/access/OwnableUpgradeable.sol\":2533:2553  _getOwnableStorage() */\n      jump\t// in\n    tag_255:\n        /* \"@openzeppelin/contracts-upgradeable/access/OwnableUpgradeable.sol\":2506:2553  OwnableStorage storage $ = _getOwnableStorage() */\n      swap1\n      pop\n        /* \"@openzeppelin/contracts-upgradeable/access/OwnableUpgradeable.sol\":2570:2571  $ */\n      dup1\n        /* \"@openzeppelin/contracts-upgradeable/access/OwnableUpgradeable.sol\":2570:2578  $._owner */\n      0x00\n      add\n      0x00\n      swap1\n      sload\n      swap1\n      0x0100\n      exp\n      swap1\n      div\n      0xffffffffffffffffffffffffffffffffffffffff\n      and\n        /* \"@openzeppelin/contracts-upgradeable/access/OwnableUpgradeable.sol\":2563:2578  return $._owner */\n      swap2\n      pop\n      pop\n        /* \"@openzeppelin/contracts-upgradeable/access/OwnableUpgradeable.sol\":2441:2585  function owner() public view virtual returns (address) {... */\n      swap1\n      jump\t// out\n        /* \"payable2.sol\":3430:3737  function disapproveTransaction(uint256 transactionId) public onlyApprover {... */\n    tag_86:\n        /* \"payable2.sol\":1720:1737  approvedApprovers */\n      0x01\n        /* \"payable2.sol\":1720:1749  approvedApprovers[msg.sender] */\n      0x00\n        /* \"payable2.sol\":1738:1748  msg.sender */\n      caller\n        /* \"payable2.sol\":1720:1749  approvedApprovers[msg.sender] */\n      0xffffffffffffffffffffffffffffffffffffffff\n      and\n      0xffffffffffffffffffffffffffffffffffffffff\n      and\n      dup2\n      mstore\n      0x20\n      add\n      swap1\n      dup2\n      mstore\n      0x20\n      add\n      0x00\n      keccak256\n      0x00\n      swap1\n      sload\n      swap1\n      0x0100\n      exp\n      swap1\n      div\n      0xff\n      and\n        /* \"payable2.sol\":1712:1801  require(approvedApprovers[msg.sender], \"This function can only be called by an Approver\") */\n      tag_258\n      jumpi\n      mload(0x40)\n      0x08c379a000000000000000000000000000000000000000000000000000000000\n      dup2\n      mstore\n      0x04\n      add\n      tag_259\n      swap1\n      tag_139\n      jump\t// in\n    tag_259:\n      mload(0x40)\n      dup1\n      swap2\n      sub\n      swap1\n      revert\n    tag_258:\n        /* \"payable2.sol\":3514:3545  Transaction storage transaction */\n      0x00\n        /* \"payable2.sol\":3548:3560  transactions */\n      0x05\n        /* \"payable2.sol\":3561:3574  transactionId */\n      dup3\n        /* \"payable2.sol\":3548:3575  transactions[transactionId] */\n      dup2\n      sload\n      dup2\n      lt\n      tag_261\n      jumpi\n      tag_262\n      tag_120\n      jump\t// in\n    tag_262:\n    tag_261:\n      swap1\n      0x00\n      mstore\n      keccak256(0x00, 0x20)\n      swap1\n      0x08\n      mul\n      add\n        /* \"payable2.sol\":3514:3575  Transaction storage transaction = transactions[transactionId] */\n      swap1\n      pop\n        /* \"payable2.sol\":3585:3596  transaction */\n      dup1\n        /* \"payable2.sol\":3585:3609  transaction.disapprovals */\n      0x03\n      add\n        /* \"payable2.sol\":3615:3625  msg.sender */\n      caller\n        /* \"payable2.sol\":3585:3626  transaction.disapprovals.push(msg.sender) */\n      swap1\n      dup1\n      0x01\n      dup2\n      sload\n      add\n      dup1\n      dup3\n      sstore\n      dup1\n      swap2\n      pop\n      pop\n      0x01\n      swap1\n      sub\n      swap1\n      0x00\n      mstore\n      keccak256(0x00, 0x20)\n      add\n      0x00\n      swap1\n      swap2\n      swap1\n      swap2\n      swap1\n      swap2\n      0x0100\n      exp\n      dup2\n      sload\n      dup2\n      0xffffffffffffffffffffffffffffffffffffffff\n      mul\n      not\n      and\n      swap1\n      dup4\n      0xffffffffffffffffffffffffffffffffffffffff\n      and\n      mul\n      or\n      swap1\n      sstore\n      pop\n        /* \"payable2.sol\":3636:3647  transaction */\n      dup1\n        /* \"payable2.sol\":3636:3664  transaction.disapprovalCount */\n      0x07\n      add\n      0x00\n        /* \"payable2.sol\":3636:3666  transaction.disapprovalCount++ */\n      dup2\n      sload\n      dup1\n      swap3\n      swap2\n      swap1\n      tag_265\n      swap1\n      tag_149\n      jump\t// in\n    tag_265:\n      swap2\n      swap1\n      pop\n      sstore\n      pop\n        /* \"payable2.sol\":3681:3730  TransactionDisapproved(transactionId, msg.sender) */\n      0x51e2a629616d21b16f9d1d2549b4b88aba4d3b132f12a47ef7696e4a4263d1e8\n        /* \"payable2.sol\":3704:3717  transactionId */\n      dup3\n        /* \"payable2.sol\":3719:3729  msg.sender */\n      caller\n        /* \"payable2.sol\":3681:3730  TransactionDisapproved(transactionId, msg.sender) */\n      mload(0x40)\n      tag_266\n      swap3\n      swap2\n      swap1\n      tag_163\n      jump\t// in\n    tag_266:\n      mload(0x40)\n      dup1\n      swap2\n      sub\n      swap1\n      log1\n        /* \"payable2.sol\":3504:3737  {... */\n      pop\n        /* \"payable2.sol\":3430:3737  function disapproveTransaction(uint256 transactionId) public onlyApprover {... */\n      pop\n      jump\t// out\n        /* \"@openzeppelin/contracts-upgradeable/proxy/utils/UUPSUpgradeable.sol\":1819:1877  string public constant UPGRADE_INTERFACE_VERSION = \"5.0.0\" */\n    tag_89:\n      mload(0x40)\n      dup1\n      0x40\n      add\n      0x40\n      mstore\n      dup1\n      0x05\n      dup2\n      mstore\n      0x20\n      add\n      0x352e302e30000000000000000000000000000000000000000000000000000000\n      dup2\n      mstore\n      pop\n      dup2\n      jump\t// out\n        /* \"payable2.sol\":6478:6569  function balance() public view returns (uint) {... */\n    tag_94:\n        /* \"payable2.sol\":6518:6522  uint */\n      0x00\n        /* \"payable2.sol\":6541:6562  address(this).balance */\n      selfbalance\n        /* \"payable2.sol\":6534:6562  return address(this).balance */\n      swap1\n      pop\n        /* \"payable2.sol\":6478:6569  function balance() public view returns (uint) {... */\n      swap1\n      jump\t// out\n        /* \"payable2.sol\":4011:4119  function approversList() public view returns (address[] memory) {... */\n    tag_98:\n        /* \"payable2.sol\":4057:4073  address[] memory */\n      0x60\n        /* \"payable2.sol\":4092:4112  allApprovedAddresses */\n      0x03\n        /* \"payable2.sol\":4085:4112  return allApprovedAddresses */\n      dup1\n      sload\n      dup1\n      0x20\n      mul\n      0x20\n      add\n      mload(0x40)\n      swap1\n      dup2\n      add\n      0x40\n      mstore\n      dup1\n      swap3\n      swap2\n      swap1\n      dup2\n      dup2\n      mstore\n      0x20\n      add\n      dup3\n      dup1\n      sload\n      dup1\n      iszero\n      tag_269\n      jumpi\n      0x20\n      mul\n      dup3\n      add\n      swap2\n      swap1\n      0x00\n      mstore\n      keccak256(0x00, 0x20)\n      swap1\n    tag_270:\n      dup2\n      0x00\n      swap1\n      sload\n      swap1\n      0x0100\n      exp\n      swap1\n      div\n      0xffffffffffffffffffffffffffffffffffffffff\n      and\n      0xffffffffffffffffffffffffffffffffffffffff\n      and\n      dup2\n      mstore\n      0x20\n      add\n      swap1\n      0x01\n      add\n      swap1\n      dup1\n      dup4\n      gt\n      tag_270\n      jumpi\n    tag_269:\n      pop\n      pop\n      pop\n      pop\n      pop\n      swap1\n      pop\n        /* \"payable2.sol\":4011:4119  function approversList() public view returns (address[] memory) {... */\n      swap1\n      jump\t// out\n        /* \"payable2.sol\":5394:5729  function applyForApprover(address adress) public {... */\n    tag_103:\n        /* \"payable2.sol\":5462:5479  approvedApprovers */\n      0x01\n        /* \"payable2.sol\":5462:5487  approvedApprovers[adress] */\n      0x00\n        /* \"payable2.sol\":5480:5486  adress */\n      dup3\n        /* \"payable2.sol\":5462:5487  approvedApprovers[adress] */\n      0xffffffffffffffffffffffffffffffffffffffff\n      and\n      0xffffffffffffffffffffffffffffffffffffffff\n      and\n      dup2\n      mstore\n      0x20\n      add\n      swap1\n      dup2\n      mstore\n      0x20\n      add\n      0x00\n      keccak256\n      0x00\n      swap1\n      sload\n      swap1\n      0x0100\n      exp\n      swap1\n      div\n      0xff\n      and\n        /* \"payable2.sol\":5461:5487  !approvedApprovers[adress] */\n      iszero\n        /* \"payable2.sol\":5453:5519  require(!approvedApprovers[adress], \"You are already an approver\") */\n      tag_272\n      jumpi\n      mload(0x40)\n      0x08c379a000000000000000000000000000000000000000000000000000000000\n      dup2\n      mstore\n      0x04\n      add\n      tag_273\n      swap1\n      tag_274\n      jump\t// in\n    tag_273:\n      mload(0x40)\n      dup1\n      swap2\n      sub\n      swap1\n      revert\n    tag_272:\n        /* \"payable2.sol\":5538:5557  appliedForApprovers */\n      0x02\n        /* \"payable2.sol\":5538:5565  appliedForApprovers[adress] */\n      0x00\n        /* \"payable2.sol\":5558:5564  adress */\n      dup3\n        /* \"payable2.sol\":5538:5565  appliedForApprovers[adress] */\n      0xffffffffffffffffffffffffffffffffffffffff\n      and\n      0xffffffffffffffffffffffffffffffffffffffff\n      and\n      dup2\n      mstore\n      0x20\n      add\n      swap1\n      dup2\n      mstore\n      0x20\n      add\n      0x00\n      keccak256\n      0x00\n      swap1\n      sload\n      swap1\n      0x0100\n      exp\n      swap1\n      div\n      0xff\n      and\n        /* \"payable2.sol\":5537:5565  !appliedForApprovers[adress] */\n      iszero\n        /* \"payable2.sol\":5529:5594  require(!appliedForApprovers[adress], \"You Have already applied\") */\n      tag_275\n      jumpi\n      mload(0x40)\n      0x08c379a000000000000000000000000000000000000000000000000000000000\n      dup2\n      mstore\n      0x04\n      add\n      tag_276\n      swap1\n      tag_277\n      jump\t// in\n    tag_276:\n      mload(0x40)\n      dup1\n      swap2\n      sub\n      swap1\n      revert\n    tag_275:\n        /* \"payable2.sol\":5604:5623  allAppliedAddresses */\n      0x04\n        /* \"payable2.sol\":5629:5635  adress */\n      dup2\n        /* \"payable2.sol\":5604:5636  allAppliedAddresses.push(adress) */\n      swap1\n      dup1\n      0x01\n      dup2\n      sload\n      add\n      dup1\n      dup3\n      sstore\n      dup1\n      swap2\n      pop\n      pop\n      0x01\n      swap1\n      sub\n      swap1\n      0x00\n      mstore\n      keccak256(0x00, 0x20)\n      add\n      0x00\n      swap1\n      swap2\n      swap1\n      swap2\n      swap1\n      swap2\n      0x0100\n      exp\n      dup2\n      sload\n      dup2\n      0xffffffffffffffffffffffffffffffffffffffff\n      mul\n      not\n      and\n      swap1\n      dup4\n      0xffffffffffffffffffffffffffffffffffffffff\n      and\n      mul\n      or\n      swap1\n      sstore\n      pop\n        /* \"payable2.sol\":5676:5680  true */\n      0x01\n        /* \"payable2.sol\":5646:5665  appliedForApprovers */\n      0x02\n        /* \"payable2.sol\":5646:5673  appliedForApprovers[adress] */\n      0x00\n        /* \"payable2.sol\":5666:5672  adress */\n      dup4\n        /* \"payable2.sol\":5646:5673  appliedForApprovers[adress] */\n      0xffffffffffffffffffffffffffffffffffffffff\n      and\n      0xffffffffffffffffffffffffffffffffffffffff\n      and\n      dup2\n      mstore\n      0x20\n      add\n      swap1\n      dup2\n      mstore\n      0x20\n      add\n      0x00\n      keccak256\n      0x00\n        /* \"payable2.sol\":5646:5680  appliedForApprovers[adress] = true */\n      0x0100\n      exp\n      dup2\n      sload\n      dup2\n      0xff\n      mul\n      not\n      and\n      swap1\n      dup4\n      iszero\n      iszero\n      mul\n      or\n      swap1\n      sstore\n      pop\n        /* \"payable2.sol\":5695:5722  AppliedForApprovers(adress) */\n      0x626e4500941465f8684ab220d11d81f3a776c4ed7010715f25cd8e772dcbb484\n        /* \"payable2.sol\":5715:5721  adress */\n      dup2\n        /* \"payable2.sol\":5695:5722  AppliedForApprovers(adress) */\n      mload(0x40)\n      tag_279\n      swap2\n      swap1\n      tag_82\n      jump\t// in\n    tag_279:\n      mload(0x40)\n      dup1\n      swap2\n      sub\n      swap1\n      log1\n        /* \"payable2.sol\":5394:5729  function applyForApprover(address adress) public {... */\n      pop\n      jump\t// out\n        /* \"@openzeppelin/contracts-upgradeable/access/OwnableUpgradeable.sol\":3405:3620  function transferOwnership(address newOwner) public virtual onlyOwner {... */\n    tag_107:\n        /* \"@openzeppelin/contracts-upgradeable/access/OwnableUpgradeable.sol\":2334:2347  _checkOwner() */\n      tag_281\n        /* \"@openzeppelin/contracts-upgradeable/access/OwnableUpgradeable.sol\":2334:2345  _checkOwner */\n      tag_189\n        /* \"@openzeppelin/contracts-upgradeable/access/OwnableUpgradeable.sol\":2334:2347  _checkOwner() */\n      jump\t// in\n    tag_281:\n        /* \"@openzeppelin/contracts-upgradeable/access/OwnableUpgradeable.sol\":3509:3510  0 */\n      0x00\n        /* \"@openzeppelin/contracts-upgradeable/access/OwnableUpgradeable.sol\":3489:3511  newOwner == address(0) */\n      0xffffffffffffffffffffffffffffffffffffffff\n      and\n        /* \"@openzeppelin/contracts-upgradeable/access/OwnableUpgradeable.sol\":3489:3497  newOwner */\n      dup2\n        /* \"@openzeppelin/contracts-upgradeable/access/OwnableUpgradeable.sol\":3489:3511  newOwner == address(0) */\n      0xffffffffffffffffffffffffffffffffffffffff\n      and\n      sub\n        /* \"@openzeppelin/contracts-upgradeable/access/OwnableUpgradeable.sol\":3485:3576  if (newOwner == address(0)) {... */\n      tag_283\n      jumpi\n        /* \"@openzeppelin/contracts-upgradeable/access/OwnableUpgradeable.sol\":3562:3563  0 */\n      0x00\n        /* \"@openzeppelin/contracts-upgradeable/access/OwnableUpgradeable.sol\":3534:3565  OwnableInvalidOwner(address(0)) */\n      mload(0x40)\n      0x1e4fbdf700000000000000000000000000000000000000000000000000000000\n      dup2\n      mstore\n      0x04\n      add\n      tag_284\n      swap2\n      swap1\n      tag_82\n      jump\t// in\n    tag_284:\n      mload(0x40)\n      dup1\n      swap2\n      sub\n      swap1\n      revert\n        /* \"@openzeppelin/contracts-upgradeable/access/OwnableUpgradeable.sol\":3485:3576  if (newOwner == address(0)) {... */\n    tag_283:\n        /* \"@openzeppelin/contracts-upgradeable/access/OwnableUpgradeable.sol\":3585:3613  _transferOwnership(newOwner) */\n      tag_285\n        /* \"@openzeppelin/contracts-upgradeable/access/OwnableUpgradeable.sol\":3604:3612  newOwner */\n      dup2\n        /* \"@openzeppelin/contracts-upgradeable/access/OwnableUpgradeable.sol\":3585:3603  _transferOwnership */\n      tag_209\n        /* \"@openzeppelin/contracts-upgradeable/access/OwnableUpgradeable.sol\":3585:3613  _transferOwnership(newOwner) */\n      jump\t// in\n    tag_285:\n        /* \"@openzeppelin/contracts-upgradeable/access/OwnableUpgradeable.sol\":3405:3620  function transferOwnership(address newOwner) public virtual onlyOwner {... */\n      pop\n      jump\t// out\n        /* \"payable2.sol\":6366:6468  function getBalance(address ad) public view returns (uint) {... */\n    tag_111:\n        /* \"payable2.sol\":6419:6423  uint */\n      0x00\n        /* \"payable2.sol\":6450:6452  ad */\n      dup2\n        /* \"payable2.sol\":6442:6461  address(ad).balance */\n      0xffffffffffffffffffffffffffffffffffffffff\n      and\n      balance\n        /* \"payable2.sol\":6435:6461  return address(ad).balance */\n      swap1\n      pop\n        /* \"payable2.sol\":6366:6468  function getBalance(address ad) public view returns (uint) {... */\n      swap2\n      swap1\n      pop\n      jump\t// out\n        /* \"payable2.sol\":6575:6618  function receivEthers() external payable {} */\n    tag_114:\n      jump\t// out\n        /* \"payable2.sol\":1825:1923  function getMax(uint a, uint b) internal pure returns (uint) {... */\n    tag_153:\n        /* \"payable2.sol\":1880:1884  uint */\n      0x00\n        /* \"payable2.sol\":1907:1908  b */\n      dup2\n        /* \"payable2.sol\":1903:1904  a */\n      dup4\n        /* \"payable2.sol\":1903:1908  a > b */\n      gt\n        /* \"payable2.sol\":1903:1916  a > b ? a : b */\n      tag_289\n      jumpi\n        /* \"payable2.sol\":1915:1916  b */\n      dup2\n        /* \"payable2.sol\":1903:1916  a > b ? a : b */\n      jump(tag_290)\n    tag_289:\n        /* \"payable2.sol\":1911:1912  a */\n      dup3\n        /* \"payable2.sol\":1903:1916  a > b ? a : b */\n    tag_290:\n        /* \"payable2.sol\":1896:1916  return a > b ? a : b */\n      swap1\n      pop\n        /* \"payable2.sol\":1825:1923  function getMax(uint a, uint b) internal pure returns (uint) {... */\n      swap3\n      swap2\n      pop\n      pop\n      jump\t// out\n        /* \"payable2.sol\":4245:5012  function executeTransaction(uint256 transactionId) internal returns (bool) {... */\n    tag_156:\n        /* \"payable2.sol\":4314:4318  bool */\n      0x00\n        /* \"payable2.sol\":4330:4361  Transaction storage transaction */\n      dup1\n        /* \"payable2.sol\":4364:4376  transactions */\n      0x05\n        /* \"payable2.sol\":4377:4390  transactionId */\n      dup4\n        /* \"payable2.sol\":4364:4391  transactions[transactionId] */\n      dup2\n      sload\n      dup2\n      lt\n      tag_292\n      jumpi\n      tag_293\n      tag_120\n      jump\t// in\n    tag_293:\n    tag_292:\n      swap1\n      0x00\n      mstore\n      keccak256(0x00, 0x20)\n      swap1\n      0x08\n      mul\n      add\n        /* \"payable2.sol\":4330:4391  Transaction storage transaction = transactions[transactionId] */\n      swap1\n      pop\n        /* \"payable2.sol\":4465:4477  bool success */\n      0x00\n        /* \"payable2.sol\":4491:4502  transaction */\n      dup2\n        /* \"payable2.sol\":4491:4505  transaction.to */\n      0x00\n      add\n      0x00\n      swap1\n      sload\n      swap1\n      0x0100\n      exp\n      swap1\n      div\n      0xffffffffffffffffffffffffffffffffffffffff\n      and\n        /* \"payable2.sol\":4483:4511  payable(transaction.to).call */\n      0xffffffffffffffffffffffffffffffffffffffff\n      and\n        /* \"payable2.sol\":4519:4530  transaction */\n      dup3\n        /* \"payable2.sol\":4519:4537  transaction.amount */\n      0x01\n      add\n      sload\n        /* \"payable2.sol\":4483:4542  payable(transaction.to).call{value: transaction.amount}(\"\") */\n      mload(0x40)\n      tag_295\n      swap1\n      tag_296\n      jump\t// in\n    tag_295:\n      0x00\n      mload(0x40)\n      dup1\n      dup4\n      sub\n      dup2\n      dup6\n      dup8\n      gas\n      call\n      swap3\n      pop\n      pop\n      pop\n      returndatasize\n      dup1\n      0x00\n      dup2\n      eq\n      tag_299\n      jumpi\n      mload(0x40)\n      swap2\n      pop\n      and(add(returndatasize, 0x3f), not(0x1f))\n      dup3\n      add\n      0x40\n      mstore\n      returndatasize\n      dup3\n      mstore\n      returndatasize\n      0x00\n      0x20\n      dup5\n      add\n      returndatacopy\n      jump(tag_298)\n    tag_299:\n      0x60\n      swap2\n      pop\n    tag_298:\n      pop\n        /* \"payable2.sol\":4464:4542  (bool success, ) = payable(transaction.to).call{value: transaction.amount}(\"\") */\n      pop\n      swap1\n      pop\n        /* \"payable2.sol\":4556:4563  success */\n      dup1\n        /* \"payable2.sol\":4552:4617  if (success) {... */\n      iszero\n      tag_300\n      jumpi\n        /* \"payable2.sol\":4602:4606  true */\n      0x01\n        /* \"payable2.sol\":4579:4590  transaction */\n      dup3\n        /* \"payable2.sol\":4579:4599  transaction.executed */\n      0x04\n      add\n      0x00\n        /* \"payable2.sol\":4579:4606  transaction.executed = true */\n      0x0100\n      exp\n      dup2\n      sload\n      dup2\n      0xff\n      mul\n      not\n      and\n      swap1\n      dup4\n      iszero\n      iszero\n      mul\n      or\n      swap1\n      sstore\n      pop\n        /* \"payable2.sol\":4552:4617  if (success) {... */\n    tag_300:\n        /* \"payable2.sol\":4633:4640  success */\n      dup1\n        /* \"payable2.sol\":4626:4640  return success */\n      swap3\n      pop\n      pop\n      pop\n        /* \"payable2.sol\":4245:5012  function executeTransaction(uint256 transactionId) internal returns (bool) {... */\n      swap2\n      swap1\n      pop\n      jump\t// out\n        /* \"@openzeppelin/contracts-upgradeable/proxy/utils/UUPSUpgradeable.sol\":4599:4911  function _checkProxy() internal view virtual {... */\n    tag_177:\n        /* \"@openzeppelin/contracts-upgradeable/proxy/utils/UUPSUpgradeable.sol\":4688:4694  __self */\n      immutable(\"0x0b83f23a4eeb8c3f5f7d5934a2289bcf0186d09a12e1b7f20adf54e4b179db15\")\n        /* \"@openzeppelin/contracts-upgradeable/proxy/utils/UUPSUpgradeable.sol\":4671:4694  address(this) == __self */\n      0xffffffffffffffffffffffffffffffffffffffff\n      and\n        /* \"@openzeppelin/contracts-upgradeable/proxy/utils/UUPSUpgradeable.sol\":4679:4683  this */\n      address\n        /* \"@openzeppelin/contracts-upgradeable/proxy/utils/UUPSUpgradeable.sol\":4671:4694  address(this) == __self */\n      0xffffffffffffffffffffffffffffffffffffffff\n      and\n      eq\n        /* \"@openzeppelin/contracts-upgradeable/proxy/utils/UUPSUpgradeable.sol\":4671:4791  address(this) == __self || // Must be called through delegatecall... */\n      dup1\n      tag_302\n      jumpi\n      pop\n        /* \"@openzeppelin/contracts-upgradeable/proxy/utils/UUPSUpgradeable.sol\":4785:4791  __self */\n      immutable(\"0x0b83f23a4eeb8c3f5f7d5934a2289bcf0186d09a12e1b7f20adf54e4b179db15\")\n        /* \"@openzeppelin/contracts-upgradeable/proxy/utils/UUPSUpgradeable.sol\":4749:4791  ERC1967Utils.getImplementation() != __self */\n      0xffffffffffffffffffffffffffffffffffffffff\n      and\n        /* \"@openzeppelin/contracts-upgradeable/proxy/utils/UUPSUpgradeable.sol\":4749:4781  ERC1967Utils.getImplementation() */\n      tag_303\n        /* \"@openzeppelin/contracts-upgradeable/proxy/utils/UUPSUpgradeable.sol\":4749:4779  ERC1967Utils.getImplementation */\n      tag_304\n        /* \"@openzeppelin/contracts-upgradeable/proxy/utils/UUPSUpgradeable.sol\":4749:4781  ERC1967Utils.getImplementation() */\n      jump\t// in\n    tag_303:\n        /* \"@openzeppelin/contracts-upgradeable/proxy/utils/UUPSUpgradeable.sol\":4749:4791  ERC1967Utils.getImplementation() != __self */\n      0xffffffffffffffffffffffffffffffffffffffff\n      and\n      eq\n      iszero\n        /* \"@openzeppelin/contracts-upgradeable/proxy/utils/UUPSUpgradeable.sol\":4671:4791  address(this) == __self || // Must be called through delegatecall... */\n    tag_302:\n        /* \"@openzeppelin/contracts-upgradeable/proxy/utils/UUPSUpgradeable.sol\":4654:4905  if (... */\n      iszero\n      tag_305\n      jumpi\n        /* \"@openzeppelin/contracts-upgradeable/proxy/utils/UUPSUpgradeable.sol\":4865:4894  UUPSUnauthorizedCallContext() */\n      mload(0x40)\n      0xe07c8dba00000000000000000000000000000000000000000000000000000000\n      dup2\n      mstore\n      0x04\n      add\n      mload(0x40)\n      dup1\n      swap2\n      sub\n      swap1\n      revert\n        /* \"@openzeppelin/contracts-upgradeable/proxy/utils/UUPSUpgradeable.sol\":4654:4905  if (... */\n    tag_305:\n        /* \"@openzeppelin/contracts-upgradeable/proxy/utils/UUPSUpgradeable.sol\":4599:4911  function _checkProxy() internal view virtual {... */\n      jump\t// out\n        /* \"payable2.sol\":403:487  function _authorizeUpgrade(address newImplementation) internal override onlyOwner {} */\n    tag_180:\n        /* \"@openzeppelin/contracts-upgradeable/access/OwnableUpgradeable.sol\":2334:2347  _checkOwner() */\n      tag_307\n        /* \"@openzeppelin/contracts-upgradeable/access/OwnableUpgradeable.sol\":2334:2345  _checkOwner */\n      tag_189\n        /* \"@openzeppelin/contracts-upgradeable/access/OwnableUpgradeable.sol\":2334:2347  _checkOwner() */\n      jump\t// in\n    tag_307:\n        /* \"payable2.sol\":403:487  function _authorizeUpgrade(address newImplementation) internal override onlyOwner {} */\n      pop\n      jump\t// out\n        /* \"@openzeppelin/contracts-upgradeable/proxy/utils/UUPSUpgradeable.sol\":6052:6590  function _upgradeToAndCallUUPS(address newImplementation, bytes memory data) private {... */\n    tag_182:\n        /* \"@openzeppelin/contracts-upgradeable/proxy/utils/UUPSUpgradeable.sol\":6169:6186  newImplementation */\n      dup2\n        /* \"@openzeppelin/contracts-upgradeable/proxy/utils/UUPSUpgradeable.sol\":6151:6201  IERC1822Proxiable(newImplementation).proxiableUUID */\n      0xffffffffffffffffffffffffffffffffffffffff\n      and\n      0x52d1902d\n        /* \"@openzeppelin/contracts-upgradeable/proxy/utils/UUPSUpgradeable.sol\":6151:6203  IERC1822Proxiable(newImplementation).proxiableUUID() */\n      mload(0x40)\n      dup2\n      0xffffffff\n      and\n      0xe0\n      shl\n      dup2\n      mstore\n      0x04\n      add\n      0x20\n      mload(0x40)\n      dup1\n      dup4\n      sub\n      dup2\n      dup7\n      gas\n      staticcall\n      swap3\n      pop\n      pop\n      pop\n      dup1\n      iszero\n      tag_310\n      jumpi\n      pop\n      mload(0x40)\n      returndatasize\n      not(0x1f)\n      0x1f\n      dup3\n      add\n      and\n      dup3\n      add\n      dup1\n      0x40\n      mstore\n      pop\n      dup2\n      add\n      swap1\n      tag_311\n      swap2\n      swap1\n      tag_312\n      jump\t// in\n    tag_311:\n      0x01\n    tag_310:\n        /* \"@openzeppelin/contracts-upgradeable/proxy/utils/UUPSUpgradeable.sol\":6147:6584  try IERC1822Proxiable(newImplementation).proxiableUUID() returns (bytes32 slot) {... */\n      tag_313\n      jumpi\n        /* \"@openzeppelin/contracts-upgradeable/proxy/utils/UUPSUpgradeable.sol\":6555:6572  newImplementation */\n      dup2\n        /* \"@openzeppelin/contracts-upgradeable/proxy/utils/UUPSUpgradeable.sol\":6513:6573  ERC1967Utils.ERC1967InvalidImplementation(newImplementation) */\n      mload(0x40)\n      0x4c9c8ce300000000000000000000000000000000000000000000000000000000\n      dup2\n      mstore\n      0x04\n      add\n      tag_317\n      swap2\n      swap1\n      tag_82\n      jump\t// in\n    tag_317:\n      mload(0x40)\n      dup1\n      swap2\n      sub\n      swap1\n      revert\n        /* \"@openzeppelin/contracts-upgradeable/proxy/utils/UUPSUpgradeable.sol\":6147:6584  try IERC1822Proxiable(newImplementation).proxiableUUID() returns (bytes32 slot) {... */\n    tag_313:\n        /* \"@openzeppelin/contracts/proxy/ERC1967/ERC1967Utils.sol\":1327:1393  0x360894a13ba1a3210667c828492db98dca3e2076cc3735a920a3ca505d382bbc */\n      0x360894a13ba1a3210667c828492db98dca3e2076cc3735a920a3ca505d382bbc\n        /* \"@openzeppelin/contracts-upgradeable/proxy/utils/UUPSUpgradeable.sol\":6253:6285  ERC1967Utils.IMPLEMENTATION_SLOT */\n      0x00\n      shl\n        /* \"@openzeppelin/contracts-upgradeable/proxy/utils/UUPSUpgradeable.sol\":6245:6249  slot */\n      dup2\n        /* \"@openzeppelin/contracts-upgradeable/proxy/utils/UUPSUpgradeable.sol\":6245:6285  slot != ERC1967Utils.IMPLEMENTATION_SLOT */\n      eq\n        /* \"@openzeppelin/contracts-upgradeable/proxy/utils/UUPSUpgradeable.sol\":6241:6361  if (slot != ERC1967Utils.IMPLEMENTATION_SLOT) {... */\n      tag_319\n      jumpi\n        /* \"@openzeppelin/contracts-upgradeable/proxy/utils/UUPSUpgradeable.sol\":6341:6345  slot */\n      dup1\n        /* \"@openzeppelin/contracts-upgradeable/proxy/utils/UUPSUpgradeable.sol\":6312:6346  UUPSUnsupportedProxiableUUID(slot) */\n      mload(0x40)\n      0xaa1d49a400000000000000000000000000000000000000000000000000000000\n      dup2\n      mstore\n      0x04\n      add\n      tag_320\n      swap2\n      swap1\n      tag_61\n      jump\t// in\n    tag_320:\n      mload(0x40)\n      dup1\n      swap2\n      sub\n      swap1\n      revert\n        /* \"@openzeppelin/contracts-upgradeable/proxy/utils/UUPSUpgradeable.sol\":6241:6361  if (slot != ERC1967Utils.IMPLEMENTATION_SLOT) {... */\n    tag_319:\n        /* \"@openzeppelin/contracts-upgradeable/proxy/utils/UUPSUpgradeable.sol\":6374:6428  ERC1967Utils.upgradeToAndCall(newImplementation, data) */\n      tag_321\n        /* \"@openzeppelin/contracts-upgradeable/proxy/utils/UUPSUpgradeable.sol\":6404:6421  newImplementation */\n      dup4\n        /* \"@openzeppelin/contracts-upgradeable/proxy/utils/UUPSUpgradeable.sol\":6423:6427  data */\n      dup4\n        /* \"@openzeppelin/contracts-upgradeable/proxy/utils/UUPSUpgradeable.sol\":6374:6403  ERC1967Utils.upgradeToAndCall */\n      tag_322\n        /* \"@openzeppelin/contracts-upgradeable/proxy/utils/UUPSUpgradeable.sol\":6374:6428  ERC1967Utils.upgradeToAndCall(newImplementation, data) */\n      jump\t// in\n    tag_321:\n        /* \"@openzeppelin/contracts-upgradeable/proxy/utils/UUPSUpgradeable.sol\":6204:6439  returns (bytes32 slot) {... */\n      pop\n        /* \"@openzeppelin/contracts-upgradeable/proxy/utils/UUPSUpgradeable.sol\":6052:6590  function _upgradeToAndCallUUPS(address newImplementation, bytes memory data) private {... */\n      pop\n      pop\n      jump\t// out\n        /* \"@openzeppelin/contracts-upgradeable/proxy/utils/UUPSUpgradeable.sol\":5028:5241  function _checkNotDelegated() internal view virtual {... */\n    tag_185:\n        /* \"@openzeppelin/contracts-upgradeable/proxy/utils/UUPSUpgradeable.sol\":5111:5117  __self */\n      immutable(\"0x0b83f23a4eeb8c3f5f7d5934a2289bcf0186d09a12e1b7f20adf54e4b179db15\")\n        /* \"@openzeppelin/contracts-upgradeable/proxy/utils/UUPSUpgradeable.sol\":5094:5117  address(this) != __self */\n      0xffffffffffffffffffffffffffffffffffffffff\n      and\n        /* \"@openzeppelin/contracts-upgradeable/proxy/utils/UUPSUpgradeable.sol\":5102:5106  this */\n      address\n        /* \"@openzeppelin/contracts-upgradeable/proxy/utils/UUPSUpgradeable.sol\":5094:5117  address(this) != __self */\n      0xffffffffffffffffffffffffffffffffffffffff\n      and\n      eq\n        /* \"@openzeppelin/contracts-upgradeable/proxy/utils/UUPSUpgradeable.sol\":5090:5235  if (address(this) != __self) {... */\n      tag_324\n      jumpi\n        /* \"@openzeppelin/contracts-upgradeable/proxy/utils/UUPSUpgradeable.sol\":5195:5224  UUPSUnauthorizedCallContext() */\n      mload(0x40)\n      0xe07c8dba00000000000000000000000000000000000000000000000000000000\n      dup2\n      mstore\n      0x04\n      add\n      mload(0x40)\n      dup1\n      swap2\n      sub\n      swap1\n      revert\n        /* \"@openzeppelin/contracts-upgradeable/proxy/utils/UUPSUpgradeable.sol\":5090:5235  if (address(this) != __self) {... */\n    tag_324:\n        /* \"@openzeppelin/contracts-upgradeable/proxy/utils/UUPSUpgradeable.sol\":5028:5241  function _checkNotDelegated() internal view virtual {... */\n      jump\t// out\n        /* \"@openzeppelin/contracts-upgradeable/access/OwnableUpgradeable.sol\":2658:2820  function _checkOwner() internal view virtual {... */\n    tag_189:\n        /* \"@openzeppelin/contracts-upgradeable/access/OwnableUpgradeable.sol\":2728:2740  _msgSender() */\n      tag_326\n        /* \"@openzeppelin/contracts-upgradeable/access/OwnableUpgradeable.sol\":2728:2738  _msgSender */\n      tag_327\n        /* \"@openzeppelin/contracts-upgradeable/access/OwnableUpgradeable.sol\":2728:2740  _msgSender() */\n      jump\t// in\n    tag_326:\n        /* \"@openzeppelin/contracts-upgradeable/access/OwnableUpgradeable.sol\":2717:2740  owner() != _msgSender() */\n      0xffffffffffffffffffffffffffffffffffffffff\n      and\n        /* \"@openzeppelin/contracts-upgradeable/access/OwnableUpgradeable.sol\":2717:2724  owner() */\n      tag_328\n        /* \"@openzeppelin/contracts-upgradeable/access/OwnableUpgradeable.sol\":2717:2722  owner */\n      tag_80\n        /* \"@openzeppelin/contracts-upgradeable/access/OwnableUpgradeable.sol\":2717:2724  owner() */\n      jump\t// in\n    tag_328:\n        /* \"@openzeppelin/contracts-upgradeable/access/OwnableUpgradeable.sol\":2717:2740  owner() != _msgSender() */\n      0xffffffffffffffffffffffffffffffffffffffff\n      and\n      eq\n        /* \"@openzeppelin/contracts-upgradeable/access/OwnableUpgradeable.sol\":2713:2814  if (owner() != _msgSender()) {... */\n      tag_329\n      jumpi\n        /* \"@openzeppelin/contracts-upgradeable/access/OwnableUpgradeable.sol\":2790:2802  _msgSender() */\n      tag_330\n        /* \"@openzeppelin/contracts-upgradeable/access/OwnableUpgradeable.sol\":2790:2800  _msgSender */\n      tag_327\n        /* \"@openzeppelin/contracts-upgradeable/access/OwnableUpgradeable.sol\":2790:2802  _msgSender() */\n      jump\t// in\n    tag_330:\n        /* \"@openzeppelin/contracts-upgradeable/access/OwnableUpgradeable.sol\":2763:2803  OwnableUnauthorizedAccount(_msgSender()) */\n      mload(0x40)\n      0x118cdaa700000000000000000000000000000000000000000000000000000000\n      dup2\n      mstore\n      0x04\n      add\n      tag_331\n      swap2\n      swap1\n      tag_82\n      jump\t// in\n    tag_331:\n      mload(0x40)\n      dup1\n      swap2\n      sub\n      swap1\n      revert\n        /* \"@openzeppelin/contracts-upgradeable/access/OwnableUpgradeable.sol\":2713:2814  if (owner() != _msgSender()) {... */\n    tag_329:\n        /* \"@openzeppelin/contracts-upgradeable/access/OwnableUpgradeable.sol\":2658:2820  function _checkOwner() internal view virtual {... */\n      jump\t// out\n        /* \"@openzeppelin/contracts-upgradeable/access/OwnableUpgradeable.sol\":3774:4022  function _transferOwnership(address newOwner) internal virtual {... */\n    tag_209:\n        /* \"@openzeppelin/contracts-upgradeable/access/OwnableUpgradeable.sol\":3847:3871  OwnableStorage storage $ */\n      0x00\n        /* \"@openzeppelin/contracts-upgradeable/access/OwnableUpgradeable.sol\":3874:3894  _getOwnableStorage() */\n      tag_333\n        /* \"@openzeppelin/contracts-upgradeable/access/OwnableUpgradeable.sol\":3874:3892  _getOwnableStorage */\n      tag_256\n        /* \"@openzeppelin/contracts-upgradeable/access/OwnableUpgradeable.sol\":3874:3894  _getOwnableStorage() */\n      jump\t// in\n    tag_333:\n        /* \"@openzeppelin/contracts-upgradeable/access/OwnableUpgradeable.sol\":3847:3894  OwnableStorage storage $ = _getOwnableStorage() */\n      swap1\n      pop\n        /* \"@openzeppelin/contracts-upgradeable/access/OwnableUpgradeable.sol\":3904:3920  address oldOwner */\n      0x00\n        /* \"@openzeppelin/contracts-upgradeable/access/OwnableUpgradeable.sol\":3923:3924  $ */\n      dup2\n        /* \"@openzeppelin/contracts-upgradeable/access/OwnableUpgradeable.sol\":3923:3931  $._owner */\n      0x00\n      add\n      0x00\n      swap1\n      sload\n      swap1\n      0x0100\n      exp\n      swap1\n      div\n      0xffffffffffffffffffffffffffffffffffffffff\n      and\n        /* \"@openzeppelin/contracts-upgradeable/access/OwnableUpgradeable.sol\":3904:3931  address oldOwner = $._owner */\n      swap1\n      pop\n        /* \"@openzeppelin/contracts-upgradeable/access/OwnableUpgradeable.sol\":3952:3960  newOwner */\n      dup3\n        /* \"@openzeppelin/contracts-upgradeable/access/OwnableUpgradeable.sol\":3941:3942  $ */\n      dup3\n        /* \"@openzeppelin/contracts-upgradeable/access/OwnableUpgradeable.sol\":3941:3949  $._owner */\n      0x00\n      add\n      0x00\n        /* \"@openzeppelin/contracts-upgradeable/access/OwnableUpgradeable.sol\":3941:3960  $._owner = newOwner */\n      0x0100\n      exp\n      dup2\n      sload\n      dup2\n      0xffffffffffffffffffffffffffffffffffffffff\n      mul\n      not\n      and\n      swap1\n      dup4\n      0xffffffffffffffffffffffffffffffffffffffff\n      and\n      mul\n      or\n      swap1\n      sstore\n      pop\n        /* \"@openzeppelin/contracts-upgradeable/access/OwnableUpgradeable.sol\":4006:4014  newOwner */\n      dup3\n        /* \"@openzeppelin/contracts-upgradeable/access/OwnableUpgradeable.sol\":3975:4015  OwnershipTransferred(oldOwner, newOwner) */\n      0xffffffffffffffffffffffffffffffffffffffff\n      and\n        /* \"@openzeppelin/contracts-upgradeable/access/OwnableUpgradeable.sol\":3996:4004  oldOwner */\n      dup2\n        /* \"@openzeppelin/contracts-upgradeable/access/OwnableUpgradeable.sol\":3975:4015  OwnershipTransferred(oldOwner, newOwner) */\n      0xffffffffffffffffffffffffffffffffffffffff\n      and\n      0x8be0079c531659141344cd1fd0a4f28419497f9722a3daafe3b4186f6b6457e0\n      mload(0x40)\n      mload(0x40)\n      dup1\n      swap2\n      sub\n      swap1\n      log3\n        /* \"@openzeppelin/contracts-upgradeable/access/OwnableUpgradeable.sol\":3837:4022  {... */\n      pop\n      pop\n        /* \"@openzeppelin/contracts-upgradeable/access/OwnableUpgradeable.sol\":3774:4022  function _transferOwnership(address newOwner) internal virtual {... */\n      pop\n      jump\t// out\n        /* \"@openzeppelin/contracts-upgradeable/proxy/utils/Initializable.sol\":8737:8907  function _getInitializableStorage() private pure returns (InitializableStorage storage $) {... */\n    tag_212:\n        /* \"@openzeppelin/contracts-upgradeable/proxy/utils/Initializable.sol\":8795:8825  InitializableStorage storage $ */\n      0x00\n        /* \"@openzeppelin/contracts-upgradeable/proxy/utils/Initializable.sol\":8870:8891  INITIALIZABLE_STORAGE */\n      0xf0c57e16840df040f15088dc2f81fe391c3923bec73e23a9662efc9c229c6a00\n        /* \"@openzeppelin/contracts-upgradeable/proxy/utils/Initializable.sol\":8860:8891  $.slot := INITIALIZABLE_STORAGE */\n      swap1\n      pop\n        /* \"@openzeppelin/contracts-upgradeable/proxy/utils/Initializable.sol\":8737:8907  function _getInitializableStorage() private pure returns (InitializableStorage storage $) {... */\n      swap1\n      jump\t// out\n        /* \"@openzeppelin/contracts-upgradeable/access/OwnableUpgradeable.sol\":1847:1974  function __Ownable_init(address initialOwner) internal onlyInitializing {... */\n    tag_220:\n        /* \"@openzeppelin/contracts-upgradeable/proxy/utils/Initializable.sol\":6931:6951  _checkInitializing() */\n      tag_336\n        /* \"@openzeppelin/contracts-upgradeable/proxy/utils/Initializable.sol\":6931:6949  _checkInitializing */\n      tag_337\n        /* \"@openzeppelin/contracts-upgradeable/proxy/utils/Initializable.sol\":6931:6951  _checkInitializing() */\n      jump\t// in\n    tag_336:\n        /* \"@openzeppelin/contracts-upgradeable/access/OwnableUpgradeable.sol\":1929:1967  __Ownable_init_unchained(initialOwner) */\n      tag_339\n        /* \"@openzeppelin/contracts-upgradeable/access/OwnableUpgradeable.sol\":1954:1966  initialOwner */\n      dup2\n        /* \"@openzeppelin/contracts-upgradeable/access/OwnableUpgradeable.sol\":1929:1953  __Ownable_init_unchained */\n      tag_340\n        /* \"@openzeppelin/contracts-upgradeable/access/OwnableUpgradeable.sol\":1929:1967  __Ownable_init_unchained(initialOwner) */\n      jump\t// in\n    tag_339:\n        /* \"@openzeppelin/contracts-upgradeable/access/OwnableUpgradeable.sol\":1847:1974  function __Ownable_init(address initialOwner) internal onlyInitializing {... */\n      pop\n      jump\t// out\n        /* \"@openzeppelin/contracts-upgradeable/proxy/utils/UUPSUpgradeable.sol\":2968:3035  function __UUPSUpgradeable_init() internal onlyInitializing {... */\n    tag_222:\n        /* \"@openzeppelin/contracts-upgradeable/proxy/utils/Initializable.sol\":6931:6951  _checkInitializing() */\n      tag_342\n        /* \"@openzeppelin/contracts-upgradeable/proxy/utils/Initializable.sol\":6931:6949  _checkInitializing */\n      tag_337\n        /* \"@openzeppelin/contracts-upgradeable/proxy/utils/Initializable.sol\":6931:6951  _checkInitializing() */\n      jump\t// in\n    tag_342:\n        /* \"@openzeppelin/contracts-upgradeable/proxy/utils/UUPSUpgradeable.sol\":2968:3035  function __UUPSUpgradeable_init() internal onlyInitializing {... */\n      jump\t// out\n        /* \"@openzeppelin/contracts-upgradeable/access/OwnableUpgradeable.sol\":1192:1351  function _getOwnableStorage() private pure returns (OwnableStorage storage $) {... */\n    tag_256:\n        /* \"@openzeppelin/contracts-upgradeable/access/OwnableUpgradeable.sol\":1244:1268  OwnableStorage storage $ */\n      0x00\n        /* \"@openzeppelin/contracts-upgradeable/access/OwnableUpgradeable.sol\":1313:1335  OwnableStorageLocation */\n      0x9016d09d72d40fdae2fd8ceac6b6234c7706214fd39c1cd1e609a0528c199300\n        /* \"@openzeppelin/contracts-upgradeable/access/OwnableUpgradeable.sol\":1303:1335  $.slot := OwnableStorageLocation */\n      swap1\n      pop\n        /* \"@openzeppelin/contracts-upgradeable/access/OwnableUpgradeable.sol\":1192:1351  function _getOwnableStorage() private pure returns (OwnableStorage storage $) {... */\n      swap1\n      jump\t// out\n        /* \"@openzeppelin/contracts/proxy/ERC1967/ERC1967Utils.sol\":1957:2095  function getImplementation() internal view returns (address) {... */\n    tag_304:\n        /* \"@openzeppelin/contracts/proxy/ERC1967/ERC1967Utils.sol\":2009:2016  address */\n      0x00\n        /* \"@openzeppelin/contracts/proxy/ERC1967/ERC1967Utils.sol\":2035:2082  StorageSlot.getAddressSlot(IMPLEMENTATION_SLOT) */\n      tag_346\n        /* \"@openzeppelin/contracts/proxy/ERC1967/ERC1967Utils.sol\":1327:1393  0x360894a13ba1a3210667c828492db98dca3e2076cc3735a920a3ca505d382bbc */\n      0x360894a13ba1a3210667c828492db98dca3e2076cc3735a920a3ca505d382bbc\n        /* \"@openzeppelin/contracts/proxy/ERC1967/ERC1967Utils.sol\":2062:2081  IMPLEMENTATION_SLOT */\n      0x00\n      shl\n        /* \"@openzeppelin/contracts/proxy/ERC1967/ERC1967Utils.sol\":2035:2061  StorageSlot.getAddressSlot */\n      tag_347\n        /* \"@openzeppelin/contracts/proxy/ERC1967/ERC1967Utils.sol\":2035:2082  StorageSlot.getAddressSlot(IMPLEMENTATION_SLOT) */\n      jump\t// in\n    tag_346:\n        /* \"@openzeppelin/contracts/proxy/ERC1967/ERC1967Utils.sol\":2035:2088  StorageSlot.getAddressSlot(IMPLEMENTATION_SLOT).value */\n      0x00\n      add\n      0x00\n      swap1\n      sload\n      swap1\n      0x0100\n      exp\n      swap1\n      div\n      0xffffffffffffffffffffffffffffffffffffffff\n      and\n        /* \"@openzeppelin/contracts/proxy/ERC1967/ERC1967Utils.sol\":2028:2088  return StorageSlot.getAddressSlot(IMPLEMENTATION_SLOT).value */\n      swap1\n      pop\n        /* \"@openzeppelin/contracts/proxy/ERC1967/ERC1967Utils.sol\":1957:2095  function getImplementation() internal view returns (address) {... */\n      swap1\n      jump\t// out\n        /* \"@openzeppelin/contracts/proxy/ERC1967/ERC1967Utils.sol\":2779:3114  function upgradeToAndCall(address newImplementation, bytes memory data) internal {... */\n    tag_322:\n        /* \"@openzeppelin/contracts/proxy/ERC1967/ERC1967Utils.sol\":2870:2907  _setImplementation(newImplementation) */\n      tag_349\n        /* \"@openzeppelin/contracts/proxy/ERC1967/ERC1967Utils.sol\":2889:2906  newImplementation */\n      dup3\n        /* \"@openzeppelin/contracts/proxy/ERC1967/ERC1967Utils.sol\":2870:2888  _setImplementation */\n      tag_350\n        /* \"@openzeppelin/contracts/proxy/ERC1967/ERC1967Utils.sol\":2870:2907  _setImplementation(newImplementation) */\n      jump\t// in\n    tag_349:\n        /* \"@openzeppelin/contracts/proxy/ERC1967/ERC1967Utils.sol\":2931:2948  newImplementation */\n      dup2\n        /* \"@openzeppelin/contracts/proxy/ERC1967/ERC1967Utils.sol\":2922:2949  Upgraded(newImplementation) */\n      0xffffffffffffffffffffffffffffffffffffffff\n      and\n      0xbc7cd75a20ee27fd9adebab32041f755214dbc6bffa90cc0225b39da2e5c2d3b\n      mload(0x40)\n      mload(0x40)\n      dup1\n      swap2\n      sub\n      swap1\n      log2\n        /* \"@openzeppelin/contracts/proxy/ERC1967/ERC1967Utils.sol\":2978:2979  0 */\n      0x00\n        /* \"@openzeppelin/contracts/proxy/ERC1967/ERC1967Utils.sol\":2964:2968  data */\n      dup2\n        /* \"@openzeppelin/contracts/proxy/ERC1967/ERC1967Utils.sol\":2964:2975  data.length */\n      mload\n        /* \"@openzeppelin/contracts/proxy/ERC1967/ERC1967Utils.sol\":2964:2979  data.length > 0 */\n      gt\n        /* \"@openzeppelin/contracts/proxy/ERC1967/ERC1967Utils.sol\":2960:3108  if (data.length > 0) {... */\n      iszero\n      tag_351\n      jumpi\n        /* \"@openzeppelin/contracts/proxy/ERC1967/ERC1967Utils.sol\":2995:3048  Address.functionDelegateCall(newImplementation, data) */\n      tag_352\n        /* \"@openzeppelin/contracts/proxy/ERC1967/ERC1967Utils.sol\":3024:3041  newImplementation */\n      dup3\n        /* \"@openzeppelin/contracts/proxy/ERC1967/ERC1967Utils.sol\":3043:3047  data */\n      dup3\n        /* \"@openzeppelin/contracts/proxy/ERC1967/ERC1967Utils.sol\":2995:3023  Address.functionDelegateCall */\n      tag_353\n        /* \"@openzeppelin/contracts/proxy/ERC1967/ERC1967Utils.sol\":2995:3048  Address.functionDelegateCall(newImplementation, data) */\n      jump\t// in\n    tag_352:\n      pop\n        /* \"@openzeppelin/contracts/proxy/ERC1967/ERC1967Utils.sol\":2960:3108  if (data.length > 0) {... */\n      jump(tag_354)\n    tag_351:\n        /* \"@openzeppelin/contracts/proxy/ERC1967/ERC1967Utils.sol\":3079:3097  _checkNonPayable() */\n      tag_355\n        /* \"@openzeppelin/contracts/proxy/ERC1967/ERC1967Utils.sol\":3079:3095  _checkNonPayable */\n      tag_356\n        /* \"@openzeppelin/contracts/proxy/ERC1967/ERC1967Utils.sol\":3079:3097  _checkNonPayable() */\n      jump\t// in\n    tag_355:\n        /* \"@openzeppelin/contracts/proxy/ERC1967/ERC1967Utils.sol\":2960:3108  if (data.length > 0) {... */\n    tag_354:\n        /* \"@openzeppelin/contracts/proxy/ERC1967/ERC1967Utils.sol\":2779:3114  function upgradeToAndCall(address newImplementation, bytes memory data) internal {... */\n      pop\n      pop\n      jump\t// out\n        /* \"@openzeppelin/contracts-upgradeable/utils/ContextUpgradeable.sol\":887:983  function _msgSender() internal view virtual returns (address) {... */\n    tag_327:\n        /* \"@openzeppelin/contracts-upgradeable/utils/ContextUpgradeable.sol\":940:947  address */\n      0x00\n        /* \"@openzeppelin/contracts-upgradeable/utils/ContextUpgradeable.sol\":966:976  msg.sender */\n      caller\n        /* \"@openzeppelin/contracts-upgradeable/utils/ContextUpgradeable.sol\":959:976  return msg.sender */\n      swap1\n      pop\n        /* \"@openzeppelin/contracts-upgradeable/utils/ContextUpgradeable.sol\":887:983  function _msgSender() internal view virtual returns (address) {... */\n      swap1\n      jump\t// out\n        /* \"@openzeppelin/contracts-upgradeable/proxy/utils/Initializable.sol\":7084:7225  function _checkInitializing() internal view virtual {... */\n    tag_337:\n        /* \"@openzeppelin/contracts-upgradeable/proxy/utils/Initializable.sol\":7151:7168  _isInitializing() */\n      tag_359\n        /* \"@openzeppelin/contracts-upgradeable/proxy/utils/Initializable.sol\":7151:7166  _isInitializing */\n      tag_360\n        /* \"@openzeppelin/contracts-upgradeable/proxy/utils/Initializable.sol\":7151:7168  _isInitializing() */\n      jump\t// in\n    tag_359:\n        /* \"@openzeppelin/contracts-upgradeable/proxy/utils/Initializable.sol\":7146:7219  if (!_isInitializing()) {... */\n      tag_361\n      jumpi\n        /* \"@openzeppelin/contracts-upgradeable/proxy/utils/Initializable.sol\":7191:7208  NotInitializing() */\n      mload(0x40)\n      0xd7e6bcf800000000000000000000000000000000000000000000000000000000\n      dup2\n      mstore\n      0x04\n      add\n      mload(0x40)\n      dup1\n      swap2\n      sub\n      swap1\n      revert\n        /* \"@openzeppelin/contracts-upgradeable/proxy/utils/Initializable.sol\":7146:7219  if (!_isInitializing()) {... */\n    tag_361:\n        /* \"@openzeppelin/contracts-upgradeable/proxy/utils/Initializable.sol\":7084:7225  function _checkInitializing() internal view virtual {... */\n      jump\t// out\n        /* \"@openzeppelin/contracts-upgradeable/access/OwnableUpgradeable.sol\":1980:2215  function __Ownable_init_unchained(address initialOwner) internal onlyInitializing {... */\n    tag_340:\n        /* \"@openzeppelin/contracts-upgradeable/proxy/utils/Initializable.sol\":6931:6951  _checkInitializing() */\n      tag_363\n        /* \"@openzeppelin/contracts-upgradeable/proxy/utils/Initializable.sol\":6931:6949  _checkInitializing */\n      tag_337\n        /* \"@openzeppelin/contracts-upgradeable/proxy/utils/Initializable.sol\":6931:6951  _checkInitializing() */\n      jump\t// in\n    tag_363:\n        /* \"@openzeppelin/contracts-upgradeable/access/OwnableUpgradeable.sol\":2100:2101  0 */\n      0x00\n        /* \"@openzeppelin/contracts-upgradeable/access/OwnableUpgradeable.sol\":2076:2102  initialOwner == address(0) */\n      0xffffffffffffffffffffffffffffffffffffffff\n      and\n        /* \"@openzeppelin/contracts-upgradeable/access/OwnableUpgradeable.sol\":2076:2088  initialOwner */\n      dup2\n        /* \"@openzeppelin/contracts-upgradeable/access/OwnableUpgradeable.sol\":2076:2102  initialOwner == address(0) */\n      0xffffffffffffffffffffffffffffffffffffffff\n      and\n      sub\n        /* \"@openzeppelin/contracts-upgradeable/access/OwnableUpgradeable.sol\":2072:2167  if (initialOwner == address(0)) {... */\n      tag_365\n      jumpi\n        /* \"@openzeppelin/contracts-upgradeable/access/OwnableUpgradeable.sol\":2153:2154  0 */\n      0x00\n        /* \"@openzeppelin/contracts-upgradeable/access/OwnableUpgradeable.sol\":2125:2156  OwnableInvalidOwner(address(0)) */\n      mload(0x40)\n      0x1e4fbdf700000000000000000000000000000000000000000000000000000000\n      dup2\n      mstore\n      0x04\n      add\n      tag_366\n      swap2\n      swap1\n      tag_82\n      jump\t// in\n    tag_366:\n      mload(0x40)\n      dup1\n      swap2\n      sub\n      swap1\n      revert\n        /* \"@openzeppelin/contracts-upgradeable/access/OwnableUpgradeable.sol\":2072:2167  if (initialOwner == address(0)) {... */\n    tag_365:\n        /* \"@openzeppelin/contracts-upgradeable/access/OwnableUpgradeable.sol\":2176:2208  _transferOwnership(initialOwner) */\n      tag_367\n        /* \"@openzeppelin/contracts-upgradeable/access/OwnableUpgradeable.sol\":2195:2207  initialOwner */\n      dup2\n        /* \"@openzeppelin/contracts-upgradeable/access/OwnableUpgradeable.sol\":2176:2194  _transferOwnership */\n      tag_209\n        /* \"@openzeppelin/contracts-upgradeable/access/OwnableUpgradeable.sol\":2176:2208  _transferOwnership(initialOwner) */\n      jump\t// in\n    tag_367:\n        /* \"@openzeppelin/contracts-upgradeable/access/OwnableUpgradeable.sol\":1980:2215  function __Ownable_init_unchained(address initialOwner) internal onlyInitializing {... */\n      pop\n      jump\t// out\n        /* \"@openzeppelin/contracts/utils/StorageSlot.sol\":1684:1874  function getAddressSlot(bytes32 slot) internal pure returns (AddressSlot storage r) {... */\n    tag_347:\n        /* \"@openzeppelin/contracts/utils/StorageSlot.sol\":1745:1766  AddressSlot storage r */\n      0x00\n        /* \"@openzeppelin/contracts/utils/StorageSlot.sol\":1854:1858  slot */\n      dup2\n        /* \"@openzeppelin/contracts/utils/StorageSlot.sol\":1844:1858  r.slot := slot */\n      swap1\n      pop\n        /* \"@openzeppelin/contracts/utils/StorageSlot.sol\":1684:1874  function getAddressSlot(bytes32 slot) internal pure returns (AddressSlot storage r) {... */\n      swap2\n      swap1\n      pop\n      jump\t// out\n        /* \"@openzeppelin/contracts/proxy/ERC1967/ERC1967Utils.sol\":2186:2467  function _setImplementation(address newImplementation) private {... */\n    tag_350:\n        /* \"@openzeppelin/contracts/proxy/ERC1967/ERC1967Utils.sol\":2296:2297  0 */\n      0x00\n        /* \"@openzeppelin/contracts/proxy/ERC1967/ERC1967Utils.sol\":2263:2280  newImplementation */\n      dup2\n        /* \"@openzeppelin/contracts/proxy/ERC1967/ERC1967Utils.sol\":2263:2292  newImplementation.code.length */\n      0xffffffffffffffffffffffffffffffffffffffff\n      and\n      extcodesize\n        /* \"@openzeppelin/contracts/proxy/ERC1967/ERC1967Utils.sol\":2263:2297  newImplementation.code.length == 0 */\n      sub\n        /* \"@openzeppelin/contracts/proxy/ERC1967/ERC1967Utils.sol\":2259:2378  if (newImplementation.code.length == 0) {... */\n      tag_370\n      jumpi\n        /* \"@openzeppelin/contracts/proxy/ERC1967/ERC1967Utils.sol\":2349:2366  newImplementation */\n      dup1\n        /* \"@openzeppelin/contracts/proxy/ERC1967/ERC1967Utils.sol\":2320:2367  ERC1967InvalidImplementation(newImplementation) */\n      mload(0x40)\n      0x4c9c8ce300000000000000000000000000000000000000000000000000000000\n      dup2\n      mstore\n      0x04\n      add\n      tag_371\n      swap2\n      swap1\n      tag_82\n      jump\t// in\n    tag_371:\n      mload(0x40)\n      dup1\n      swap2\n      sub\n      swap1\n      revert\n        /* \"@openzeppelin/contracts/proxy/ERC1967/ERC1967Utils.sol\":2259:2378  if (newImplementation.code.length == 0) {... */\n    tag_370:\n        /* \"@openzeppelin/contracts/proxy/ERC1967/ERC1967Utils.sol\":2443:2460  newImplementation */\n      dup1\n        /* \"@openzeppelin/contracts/proxy/ERC1967/ERC1967Utils.sol\":2387:2434  StorageSlot.getAddressSlot(IMPLEMENTATION_SLOT) */\n      tag_372\n        /* \"@openzeppelin/contracts/proxy/ERC1967/ERC1967Utils.sol\":1327:1393  0x360894a13ba1a3210667c828492db98dca3e2076cc3735a920a3ca505d382bbc */\n      0x360894a13ba1a3210667c828492db98dca3e2076cc3735a920a3ca505d382bbc\n        /* \"@openzeppelin/contracts/proxy/ERC1967/ERC1967Utils.sol\":2414:2433  IMPLEMENTATION_SLOT */\n      0x00\n      shl\n        /* \"@openzeppelin/contracts/proxy/ERC1967/ERC1967Utils.sol\":2387:2413  StorageSlot.getAddressSlot */\n      tag_347\n        /* \"@openzeppelin/contracts/proxy/ERC1967/ERC1967Utils.sol\":2387:2434  StorageSlot.getAddressSlot(IMPLEMENTATION_SLOT) */\n      jump\t// in\n    tag_372:\n        /* \"@openzeppelin/contracts/proxy/ERC1967/ERC1967Utils.sol\":2387:2440  StorageSlot.getAddressSlot(IMPLEMENTATION_SLOT).value */\n      0x00\n      add\n      0x00\n        /* \"@openzeppelin/contracts/proxy/ERC1967/ERC1967Utils.sol\":2387:2460  StorageSlot.getAddressSlot(IMPLEMENTATION_SLOT).value = newImplementation */\n      0x0100\n      exp\n      dup2\n      sload\n      dup2\n      0xffffffffffffffffffffffffffffffffffffffff\n      mul\n      not\n      and\n      swap1\n      dup4\n      0xffffffffffffffffffffffffffffffffffffffff\n      and\n      mul\n      or\n      swap1\n      sstore\n      pop\n        /* \"@openzeppelin/contracts/proxy/ERC1967/ERC1967Utils.sol\":2186:2467  function _setImplementation(address newImplementation) private {... */\n      pop\n      jump\t// out\n        /* \"@openzeppelin/contracts/utils/Address.sol\":4106:4359  function functionDelegateCall(address target, bytes memory data) internal returns (bytes memory) {... */\n    tag_353:\n        /* \"@openzeppelin/contracts/utils/Address.sol\":4189:4201  bytes memory */\n      0x60\n        /* \"@openzeppelin/contracts/utils/Address.sol\":4214:4226  bool success */\n      0x00\n        /* \"@openzeppelin/contracts/utils/Address.sol\":4228:4251  bytes memory returndata */\n      dup1\n        /* \"@openzeppelin/contracts/utils/Address.sol\":4255:4261  target */\n      dup5\n        /* \"@openzeppelin/contracts/utils/Address.sol\":4255:4274  target.delegatecall */\n      0xffffffffffffffffffffffffffffffffffffffff\n      and\n        /* \"@openzeppelin/contracts/utils/Address.sol\":4275:4279  data */\n      dup5\n        /* \"@openzeppelin/contracts/utils/Address.sol\":4255:4280  target.delegatecall(data) */\n      mload(0x40)\n      tag_374\n      swap2\n      swap1\n      tag_375\n      jump\t// in\n    tag_374:\n      0x00\n      mload(0x40)\n      dup1\n      dup4\n      sub\n      dup2\n      dup6\n      gas\n      delegatecall\n      swap2\n      pop\n      pop\n      returndatasize\n      dup1\n      0x00\n      dup2\n      eq\n      tag_378\n      jumpi\n      mload(0x40)\n      swap2\n      pop\n      and(add(returndatasize, 0x3f), not(0x1f))\n      dup3\n      add\n      0x40\n      mstore\n      returndatasize\n      dup3\n      mstore\n      returndatasize\n      0x00\n      0x20\n      dup5\n      add\n      returndatacopy\n      jump(tag_377)\n    tag_378:\n      0x60\n      swap2\n      pop\n    tag_377:\n      pop\n        /* \"@openzeppelin/contracts/utils/Address.sol\":4213:4280  (bool success, bytes memory returndata) = target.delegatecall(data) */\n      swap2\n      pop\n      swap2\n      pop\n        /* \"@openzeppelin/contracts/utils/Address.sol\":4297:4352  verifyCallResultFromTarget(target, success, returndata) */\n      tag_379\n        /* \"@openzeppelin/contracts/utils/Address.sol\":4324:4330  target */\n      dup6\n        /* \"@openzeppelin/contracts/utils/Address.sol\":4332:4339  success */\n      dup4\n        /* \"@openzeppelin/contracts/utils/Address.sol\":4341:4351  returndata */\n      dup4\n        /* \"@openzeppelin/contracts/utils/Address.sol\":4297:4323  verifyCallResultFromTarget */\n      tag_380\n        /* \"@openzeppelin/contracts/utils/Address.sol\":4297:4352  verifyCallResultFromTarget(target, success, returndata) */\n      jump\t// in\n    tag_379:\n        /* \"@openzeppelin/contracts/utils/Address.sol\":4290:4352  return verifyCallResultFromTarget(target, success, returndata) */\n      swap3\n      pop\n      pop\n      pop\n        /* \"@openzeppelin/contracts/utils/Address.sol\":4106:4359  function functionDelegateCall(address target, bytes memory data) internal returns (bytes memory) {... */\n      swap3\n      swap2\n      pop\n      pop\n      jump\t// out\n        /* \"@openzeppelin/contracts/proxy/ERC1967/ERC1967Utils.sol\":6598:6720  function _checkNonPayable() private {... */\n    tag_356:\n        /* \"@openzeppelin/contracts/proxy/ERC1967/ERC1967Utils.sol\":6660:6661  0 */\n      0x00\n        /* \"@openzeppelin/contracts/proxy/ERC1967/ERC1967Utils.sol\":6648:6657  msg.value */\n      callvalue\n        /* \"@openzeppelin/contracts/proxy/ERC1967/ERC1967Utils.sol\":6648:6661  msg.value > 0 */\n      gt\n        /* \"@openzeppelin/contracts/proxy/ERC1967/ERC1967Utils.sol\":6644:6714  if (msg.value > 0) {... */\n      iszero\n      tag_382\n      jumpi\n        /* \"@openzeppelin/contracts/proxy/ERC1967/ERC1967Utils.sol\":6684:6703  ERC1967NonPayable() */\n      mload(0x40)\n      0xb398979f00000000000000000000000000000000000000000000000000000000\n      dup2\n      mstore\n      0x04\n      add\n      mload(0x40)\n      dup1\n      swap2\n      sub\n      swap1\n      revert\n        /* \"@openzeppelin/contracts/proxy/ERC1967/ERC1967Utils.sol\":6644:6714  if (msg.value > 0) {... */\n    tag_382:\n        /* \"@openzeppelin/contracts/proxy/ERC1967/ERC1967Utils.sol\":6598:6720  function _checkNonPayable() private {... */\n      jump\t// out\n        /* \"@openzeppelin/contracts-upgradeable/proxy/utils/Initializable.sol\":8487:8607  function _isInitializing() internal view returns (bool) {... */\n    tag_360:\n        /* \"@openzeppelin/contracts-upgradeable/proxy/utils/Initializable.sol\":8537:8541  bool */\n      0x00\n        /* \"@openzeppelin/contracts-upgradeable/proxy/utils/Initializable.sol\":8560:8586  _getInitializableStorage() */\n      tag_384\n        /* \"@openzeppelin/contracts-upgradeable/proxy/utils/Initializable.sol\":8560:8584  _getInitializableStorage */\n      tag_212\n        /* \"@openzeppelin/contracts-upgradeable/proxy/utils/Initializable.sol\":8560:8586  _getInitializableStorage() */\n      jump\t// in\n    tag_384:\n        /* \"@openzeppelin/contracts-upgradeable/proxy/utils/Initializable.sol\":8560:8600  _getInitializableStorage()._initializing */\n      0x00\n      add\n      0x08\n      swap1\n      sload\n      swap1\n      0x0100\n      exp\n      swap1\n      div\n      0xff\n      and\n        /* \"@openzeppelin/contracts-upgradeable/proxy/utils/Initializable.sol\":8553:8600  return _getInitializableStorage()._initializing */\n      swap1\n      pop\n        /* \"@openzeppelin/contracts-upgradeable/proxy/utils/Initializable.sol\":8487:8607  function _isInitializing() internal view returns (bool) {... */\n      swap1\n      jump\t// out\n        /* \"@openzeppelin/contracts/utils/Address.sol\":4625:5207  function verifyCallResultFromTarget(... */\n    tag_380:\n        /* \"@openzeppelin/contracts/utils/Address.sol\":4769:4781  bytes memory */\n      0x60\n        /* \"@openzeppelin/contracts/utils/Address.sol\":4798:4805  success */\n      dup3\n        /* \"@openzeppelin/contracts/utils/Address.sol\":4793:5201  if (!success) {... */\n      tag_386\n      jumpi\n        /* \"@openzeppelin/contracts/utils/Address.sol\":4821:4840  _revert(returndata) */\n      tag_387\n        /* \"@openzeppelin/contracts/utils/Address.sol\":4829:4839  returndata */\n      dup3\n        /* \"@openzeppelin/contracts/utils/Address.sol\":4821:4828  _revert */\n      tag_388\n        /* \"@openzeppelin/contracts/utils/Address.sol\":4821:4840  _revert(returndata) */\n      jump\t// in\n    tag_387:\n        /* \"@openzeppelin/contracts/utils/Address.sol\":4793:5201  if (!success) {... */\n      jump(tag_389)\n    tag_386:\n        /* \"@openzeppelin/contracts/utils/Address.sol\":5066:5067  0 */\n      0x00\n        /* \"@openzeppelin/contracts/utils/Address.sol\":5045:5055  returndata */\n      dup3\n        /* \"@openzeppelin/contracts/utils/Address.sol\":5045:5062  returndata.length */\n      mload\n        /* \"@openzeppelin/contracts/utils/Address.sol\":5045:5067  returndata.length == 0 */\n      eq\n        /* \"@openzeppelin/contracts/utils/Address.sol\":5045:5094  returndata.length == 0 && target.code.length == 0 */\n      dup1\n      iszero\n      tag_390\n      jumpi\n      pop\n        /* \"@openzeppelin/contracts/utils/Address.sol\":5093:5094  0 */\n      0x00\n        /* \"@openzeppelin/contracts/utils/Address.sol\":5071:5077  target */\n      dup5\n        /* \"@openzeppelin/contracts/utils/Address.sol\":5071:5089  target.code.length */\n      0xffffffffffffffffffffffffffffffffffffffff\n      and\n      extcodesize\n        /* \"@openzeppelin/contracts/utils/Address.sol\":5071:5094  target.code.length == 0 */\n      eq\n        /* \"@openzeppelin/contracts/utils/Address.sol\":5045:5094  returndata.length == 0 && target.code.length == 0 */\n    tag_390:\n        /* \"@openzeppelin/contracts/utils/Address.sol\":5041:5160  if (returndata.length == 0 && target.code.length == 0) {... */\n      iszero\n      tag_391\n      jumpi\n        /* \"@openzeppelin/contracts/utils/Address.sol\":5138:5144  target */\n      dup4\n        /* \"@openzeppelin/contracts/utils/Address.sol\":5121:5145  AddressEmptyCode(target) */\n      mload(0x40)\n      0x9996b31500000000000000000000000000000000000000000000000000000000\n      dup2\n      mstore\n      0x04\n      add\n      tag_392\n      swap2\n      swap1\n      tag_82\n      jump\t// in\n    tag_392:\n      mload(0x40)\n      dup1\n      swap2\n      sub\n      swap1\n      revert\n        /* \"@openzeppelin/contracts/utils/Address.sol\":5041:5160  if (returndata.length == 0 && target.code.length == 0) {... */\n    tag_391:\n        /* \"@openzeppelin/contracts/utils/Address.sol\":5180:5190  returndata */\n      dup2\n        /* \"@openzeppelin/contracts/utils/Address.sol\":5173:5190  return returndata */\n      swap1\n      pop\n      jump(tag_385)\n        /* \"@openzeppelin/contracts/utils/Address.sol\":4793:5201  if (!success) {... */\n    tag_389:\n        /* \"@openzeppelin/contracts/utils/Address.sol\":4625:5207  function verifyCallResultFromTarget(... */\n    tag_385:\n      swap4\n      swap3\n      pop\n      pop\n      pop\n      jump\t// out\n        /* \"@openzeppelin/contracts/utils/Address.sol\":5743:6259  function _revert(bytes memory returndata) private pure {... */\n    tag_388:\n        /* \"@openzeppelin/contracts/utils/Address.sol\":5894:5895  0 */\n      0x00\n        /* \"@openzeppelin/contracts/utils/Address.sol\":5874:5884  returndata */\n      dup2\n        /* \"@openzeppelin/contracts/utils/Address.sol\":5874:5891  returndata.length */\n      mload\n        /* \"@openzeppelin/contracts/utils/Address.sol\":5874:5895  returndata.length > 0 */\n      gt\n        /* \"@openzeppelin/contracts/utils/Address.sol\":5870:6253  if (returndata.length > 0) {... */\n      iszero\n      tag_394\n      jumpi\n        /* \"@openzeppelin/contracts/utils/Address.sol\":6102:6112  returndata */\n      dup1\n        /* \"@openzeppelin/contracts/utils/Address.sol\":6096:6113  mload(returndata) */\n      mload\n        /* \"@openzeppelin/contracts/utils/Address.sol\":6158:6173  returndata_size */\n      dup1\n        /* \"@openzeppelin/contracts/utils/Address.sol\":6145:6155  returndata */\n      dup3\n        /* \"@openzeppelin/contracts/utils/Address.sol\":6141:6143  32 */\n      0x20\n        /* \"@openzeppelin/contracts/utils/Address.sol\":6137:6156  add(32, returndata) */\n      add\n        /* \"@openzeppelin/contracts/utils/Address.sol\":6130:6174  revert(add(32, returndata), returndata_size) */\n      revert\n        /* \"@openzeppelin/contracts/utils/Address.sol\":5870:6253  if (returndata.length > 0) {... */\n    tag_394:\n        /* \"@openzeppelin/contracts/utils/Address.sol\":6225:6242  FailedInnerCall() */\n      mload(0x40)\n      0x1425ea4200000000000000000000000000000000000000000000000000000000\n      dup2\n      mstore\n      0x04\n      add\n      mload(0x40)\n      dup1\n      swap2\n      sub\n      swap1\n      revert\n    tag_116:\n      mload(0x40)\n      dup1\n      0x0100\n      add\n      0x40\n      mstore\n      dup1\n      and(0xffffffffffffffffffffffffffffffffffffffff, 0x00)\n      dup2\n      mstore\n      0x20\n      add\n      0x00\n      dup2\n      mstore\n      0x20\n      add\n      0x60\n      dup2\n      mstore\n      0x20\n      add\n      0x60\n      dup2\n      mstore\n      0x20\n      add\n      iszero(iszero(0x00))\n      dup2\n      mstore\n      0x20\n      add\n      0x00\n      dup2\n      mstore\n      0x20\n      add\n      0x00\n      dup2\n      mstore\n      0x20\n      add\n      0x00\n      dup2\n      mstore\n      pop\n      swap1\n      jump\t// out\n        /* \"#utility.yul\":7:82   */\n    tag_396:\n        /* \"#utility.yul\":40:46   */\n      0x00\n        /* \"#utility.yul\":73:75   */\n      0x40\n        /* \"#utility.yul\":67:76   */\n      mload\n        /* \"#utility.yul\":57:76   */\n      swap1\n      pop\n        /* \"#utility.yul\":7:82   */\n      swap1\n      jump\t// out\n        /* \"#utility.yul\":88:205   */\n    tag_397:\n        /* \"#utility.yul\":197:198   */\n      0x00\n        /* \"#utility.yul\":194:195   */\n      dup1\n        /* \"#utility.yul\":187:199   */\n      revert\n        /* \"#utility.yul\":211:328   */\n    tag_398:\n        /* \"#utility.yul\":320:321   */\n      0x00\n        /* \"#utility.yul\":317:318   */\n      dup1\n        /* \"#utility.yul\":310:322   */\n      revert\n        /* \"#utility.yul\":334:411   */\n    tag_399:\n        /* \"#utility.yul\":371:378   */\n      0x00\n        /* \"#utility.yul\":400:405   */\n      dup2\n        /* \"#utility.yul\":389:405   */\n      swap1\n      pop\n        /* \"#utility.yul\":334:411   */\n      swap2\n      swap1\n      pop\n      jump\t// out\n        /* \"#utility.yul\":417:539   */\n    tag_400:\n        /* \"#utility.yul\":490:514   */\n      tag_482\n        /* \"#utility.yul\":508:513   */\n      dup2\n        /* \"#utility.yul\":490:514   */\n      tag_399\n      jump\t// in\n    tag_482:\n        /* \"#utility.yul\":483:488   */\n      dup2\n        /* \"#utility.yul\":480:515   */\n      eq\n        /* \"#utility.yul\":470:533   */\n      tag_483\n      jumpi\n        /* \"#utility.yul\":529:530   */\n      0x00\n        /* \"#utility.yul\":526:527   */\n      dup1\n        /* \"#utility.yul\":519:531   */\n      revert\n        /* \"#utility.yul\":470:533   */\n    tag_483:\n        /* \"#utility.yul\":417:539   */\n      pop\n      jump\t// out\n        /* \"#utility.yul\":545:684   */\n    tag_401:\n        /* \"#utility.yul\":591:596   */\n      0x00\n        /* \"#utility.yul\":629:635   */\n      dup2\n        /* \"#utility.yul\":616:636   */\n      calldataload\n        /* \"#utility.yul\":607:636   */\n      swap1\n      pop\n        /* \"#utility.yul\":645:678   */\n      tag_485\n        /* \"#utility.yul\":672:677   */\n      dup2\n        /* \"#utility.yul\":645:678   */\n      tag_400\n      jump\t// in\n    tag_485:\n        /* \"#utility.yul\":545:684   */\n      swap3\n      swap2\n      pop\n      pop\n      jump\t// out\n        /* \"#utility.yul\":690:1019   */\n    tag_28:\n        /* \"#utility.yul\":749:755   */\n      0x00\n        /* \"#utility.yul\":798:800   */\n      0x20\n        /* \"#utility.yul\":786:795   */\n      dup3\n        /* \"#utility.yul\":777:784   */\n      dup5\n        /* \"#utility.yul\":773:796   */\n      sub\n        /* \"#utility.yul\":769:801   */\n      slt\n        /* \"#utility.yul\":766:885   */\n      iszero\n      tag_487\n      jumpi\n        /* \"#utility.yul\":804:883   */\n      tag_488\n      tag_397\n      jump\t// in\n    tag_488:\n        /* \"#utility.yul\":766:885   */\n    tag_487:\n        /* \"#utility.yul\":924:925   */\n      0x00\n        /* \"#utility.yul\":949:1002   */\n      tag_489\n        /* \"#utility.yul\":994:1001   */\n      dup5\n        /* \"#utility.yul\":985:991   */\n      dup3\n        /* \"#utility.yul\":974:983   */\n      dup6\n        /* \"#utility.yul\":970:992   */\n      add\n        /* \"#utility.yul\":949:1002   */\n      tag_401\n      jump\t// in\n    tag_489:\n        /* \"#utility.yul\":939:1002   */\n      swap2\n      pop\n        /* \"#utility.yul\":895:1012   */\n      pop\n        /* \"#utility.yul\":690:1019   */\n      swap3\n      swap2\n      pop\n      pop\n      jump\t// out\n        /* \"#utility.yul\":1025:1151   */\n    tag_402:\n        /* \"#utility.yul\":1062:1069   */\n      0x00\n        /* \"#utility.yul\":1102:1144   */\n      0xffffffffffffffffffffffffffffffffffffffff\n        /* \"#utility.yul\":1095:1100   */\n      dup3\n        /* \"#utility.yul\":1091:1145   */\n      and\n        /* \"#utility.yul\":1080:1145   */\n      swap1\n      pop\n        /* \"#utility.yul\":1025:1151   */\n      swap2\n      swap1\n      pop\n      jump\t// out\n        /* \"#utility.yul\":1157:1253   */\n    tag_403:\n        /* \"#utility.yul\":1194:1201   */\n      0x00\n        /* \"#utility.yul\":1223:1247   */\n      tag_492\n        /* \"#utility.yul\":1241:1246   */\n      dup3\n        /* \"#utility.yul\":1223:1247   */\n      tag_402\n      jump\t// in\n    tag_492:\n        /* \"#utility.yul\":1212:1247   */\n      swap1\n      pop\n        /* \"#utility.yul\":1157:1253   */\n      swap2\n      swap1\n      pop\n      jump\t// out\n        /* \"#utility.yul\":1259:1367   */\n    tag_404:\n        /* \"#utility.yul\":1336:1360   */\n      tag_494\n        /* \"#utility.yul\":1354:1359   */\n      dup2\n        /* \"#utility.yul\":1336:1360   */\n      tag_403\n      jump\t// in\n    tag_494:\n        /* \"#utility.yul\":1331:1334   */\n      dup3\n        /* \"#utility.yul\":1324:1361   */\n      mstore\n        /* \"#utility.yul\":1259:1367   */\n      pop\n      pop\n      jump\t// out\n        /* \"#utility.yul\":1373:1481   */\n    tag_405:\n        /* \"#utility.yul\":1450:1474   */\n      tag_496\n        /* \"#utility.yul\":1468:1473   */\n      dup2\n        /* \"#utility.yul\":1450:1474   */\n      tag_399\n      jump\t// in\n    tag_496:\n        /* \"#utility.yul\":1445:1448   */\n      dup3\n        /* \"#utility.yul\":1438:1475   */\n      mstore\n        /* \"#utility.yul\":1373:1481   */\n      pop\n      pop\n      jump\t// out\n        /* \"#utility.yul\":1487:1601   */\n    tag_406:\n        /* \"#utility.yul\":1554:1560   */\n      0x00\n        /* \"#utility.yul\":1588:1593   */\n      dup2\n        /* \"#utility.yul\":1582:1594   */\n      mload\n        /* \"#utility.yul\":1572:1594   */\n      swap1\n      pop\n        /* \"#utility.yul\":1487:1601   */\n      swap2\n      swap1\n      pop\n      jump\t// out\n        /* \"#utility.yul\":1607:1781   */\n    tag_407:\n        /* \"#utility.yul\":1696:1707   */\n      0x00\n        /* \"#utility.yul\":1730:1736   */\n      dup3\n        /* \"#utility.yul\":1725:1728   */\n      dup3\n        /* \"#utility.yul\":1718:1737   */\n      mstore\n        /* \"#utility.yul\":1770:1774   */\n      0x20\n        /* \"#utility.yul\":1765:1768   */\n      dup3\n        /* \"#utility.yul\":1761:1775   */\n      add\n        /* \"#utility.yul\":1746:1775   */\n      swap1\n      pop\n        /* \"#utility.yul\":1607:1781   */\n      swap3\n      swap2\n      pop\n      pop\n      jump\t// out\n        /* \"#utility.yul\":1787:1919   */\n    tag_408:\n        /* \"#utility.yul\":1854:1858   */\n      0x00\n        /* \"#utility.yul\":1877:1880   */\n      dup2\n        /* \"#utility.yul\":1869:1880   */\n      swap1\n      pop\n        /* \"#utility.yul\":1907:1911   */\n      0x20\n        /* \"#utility.yul\":1902:1905   */\n      dup3\n        /* \"#utility.yul\":1898:1912   */\n      add\n        /* \"#utility.yul\":1890:1912   */\n      swap1\n      pop\n        /* \"#utility.yul\":1787:1919   */\n      swap2\n      swap1\n      pop\n      jump\t// out\n        /* \"#utility.yul\":1925:2104   */\n    tag_409:\n        /* \"#utility.yul\":1994:2004   */\n      0x00\n        /* \"#utility.yul\":2015:2061   */\n      tag_501\n        /* \"#utility.yul\":2057:2060   */\n      dup4\n        /* \"#utility.yul\":2049:2055   */\n      dup4\n        /* \"#utility.yul\":2015:2061   */\n      tag_404\n      jump\t// in\n    tag_501:\n        /* \"#utility.yul\":2093:2097   */\n      0x20\n        /* \"#utility.yul\":2088:2091   */\n      dup4\n        /* \"#utility.yul\":2084:2098   */\n      add\n        /* \"#utility.yul\":2070:2098   */\n      swap1\n      pop\n        /* \"#utility.yul\":1925:2104   */\n      swap3\n      swap2\n      pop\n      pop\n      jump\t// out\n        /* \"#utility.yul\":2110:2223   */\n    tag_410:\n        /* \"#utility.yul\":2180:2184   */\n      0x00\n        /* \"#utility.yul\":2212:2216   */\n      0x20\n        /* \"#utility.yul\":2207:2210   */\n      dup3\n        /* \"#utility.yul\":2203:2217   */\n      add\n        /* \"#utility.yul\":2195:2217   */\n      swap1\n      pop\n        /* \"#utility.yul\":2110:2223   */\n      swap2\n      swap1\n      pop\n      jump\t// out\n        /* \"#utility.yul\":2259:2971   */\n    tag_411:\n        /* \"#utility.yul\":2368:2371   */\n      0x00\n        /* \"#utility.yul\":2397:2451   */\n      tag_504\n        /* \"#utility.yul\":2445:2450   */\n      dup3\n        /* \"#utility.yul\":2397:2451   */\n      tag_406\n      jump\t// in\n    tag_504:\n        /* \"#utility.yul\":2467:2543   */\n      tag_505\n        /* \"#utility.yul\":2536:2542   */\n      dup2\n        /* \"#utility.yul\":2531:2534   */\n      dup6\n        /* \"#utility.yul\":2467:2543   */\n      tag_407\n      jump\t// in\n    tag_505:\n        /* \"#utility.yul\":2460:2543   */\n      swap4\n      pop\n        /* \"#utility.yul\":2567:2623   */\n      tag_506\n        /* \"#utility.yul\":2617:2622   */\n      dup4\n        /* \"#utility.yul\":2567:2623   */\n      tag_408\n      jump\t// in\n    tag_506:\n        /* \"#utility.yul\":2646:2653   */\n      dup1\n        /* \"#utility.yul\":2677:2678   */\n      0x00\n        /* \"#utility.yul\":2662:2946   */\n    tag_507:\n        /* \"#utility.yul\":2687:2693   */\n      dup4\n        /* \"#utility.yul\":2684:2685   */\n      dup2\n        /* \"#utility.yul\":2681:2694   */\n      lt\n        /* \"#utility.yul\":2662:2946   */\n      iszero\n      tag_509\n      jumpi\n        /* \"#utility.yul\":2763:2769   */\n      dup2\n        /* \"#utility.yul\":2757:2770   */\n      mload\n        /* \"#utility.yul\":2790:2853   */\n      tag_510\n        /* \"#utility.yul\":2849:2852   */\n      dup9\n        /* \"#utility.yul\":2834:2847   */\n      dup3\n        /* \"#utility.yul\":2790:2853   */\n      tag_409\n      jump\t// in\n    tag_510:\n        /* \"#utility.yul\":2783:2853   */\n      swap8\n      pop\n        /* \"#utility.yul\":2876:2936   */\n      tag_511\n        /* \"#utility.yul\":2929:2935   */\n      dup4\n        /* \"#utility.yul\":2876:2936   */\n      tag_410\n      jump\t// in\n    tag_511:\n        /* \"#utility.yul\":2866:2936   */\n      swap3\n      pop\n        /* \"#utility.yul\":2722:2946   */\n      pop\n        /* \"#utility.yul\":2709:2710   */\n      0x01\n        /* \"#utility.yul\":2706:2707   */\n      dup2\n        /* \"#utility.yul\":2702:2711   */\n      add\n        /* \"#utility.yul\":2697:2711   */\n      swap1\n      pop\n        /* \"#utility.yul\":2662:2946   */\n      jump(tag_507)\n    tag_509:\n        /* \"#utility.yul\":2666:2680   */\n      pop\n        /* \"#utility.yul\":2962:2965   */\n      dup6\n        /* \"#utility.yul\":2955:2965   */\n      swap4\n      pop\n        /* \"#utility.yul\":2373:2971   */\n      pop\n      pop\n      pop\n        /* \"#utility.yul\":2259:2971   */\n      swap3\n      swap2\n      pop\n      pop\n      jump\t// out\n        /* \"#utility.yul\":2977:3067   */\n    tag_412:\n        /* \"#utility.yul\":3011:3018   */\n      0x00\n        /* \"#utility.yul\":3054:3059   */\n      dup2\n        /* \"#utility.yul\":3047:3060   */\n      iszero\n        /* \"#utility.yul\":3040:3061   */\n      iszero\n        /* \"#utility.yul\":3029:3061   */\n      swap1\n      pop\n        /* \"#utility.yul\":2977:3067   */\n      swap2\n      swap1\n      pop\n      jump\t// out\n        /* \"#utility.yul\":3073:3172   */\n    tag_413:\n        /* \"#utility.yul\":3144:3165   */\n      tag_514\n        /* \"#utility.yul\":3159:3164   */\n      dup2\n        /* \"#utility.yul\":3144:3165   */\n      tag_412\n      jump\t// in\n    tag_514:\n        /* \"#utility.yul\":3139:3142   */\n      dup3\n        /* \"#utility.yul\":3132:3166   */\n      mstore\n        /* \"#utility.yul\":3073:3172   */\n      pop\n      pop\n      jump\t// out\n        /* \"#utility.yul\":3242:5070   */\n    tag_414:\n        /* \"#utility.yul\":3369:3372   */\n      0x00\n        /* \"#utility.yul\":3405:3411   */\n      0x0100\n        /* \"#utility.yul\":3400:3403   */\n      dup4\n        /* \"#utility.yul\":3396:3412   */\n      add\n        /* \"#utility.yul\":3492:3496   */\n      0x00\n        /* \"#utility.yul\":3485:3490   */\n      dup4\n        /* \"#utility.yul\":3481:3497   */\n      add\n        /* \"#utility.yul\":3475:3498   */\n      mload\n        /* \"#utility.yul\":3511:3574   */\n      tag_516\n        /* \"#utility.yul\":3568:3572   */\n      0x00\n        /* \"#utility.yul\":3563:3566   */\n      dup7\n        /* \"#utility.yul\":3559:3573   */\n      add\n        /* \"#utility.yul\":3545:3557   */\n      dup3\n        /* \"#utility.yul\":3511:3574   */\n      tag_404\n      jump\t// in\n    tag_516:\n        /* \"#utility.yul\":3422:3584   */\n      pop\n        /* \"#utility.yul\":3668:3672   */\n      0x20\n        /* \"#utility.yul\":3661:3666   */\n      dup4\n        /* \"#utility.yul\":3657:3673   */\n      add\n        /* \"#utility.yul\":3651:3674   */\n      mload\n        /* \"#utility.yul\":3687:3750   */\n      tag_517\n        /* \"#utility.yul\":3744:3748   */\n      0x20\n        /* \"#utility.yul\":3739:3742   */\n      dup7\n        /* \"#utility.yul\":3735:3749   */\n      add\n        /* \"#utility.yul\":3721:3733   */\n      dup3\n        /* \"#utility.yul\":3687:3750   */\n      tag_405\n      jump\t// in\n    tag_517:\n        /* \"#utility.yul\":3594:3760   */\n      pop\n        /* \"#utility.yul\":3847:3851   */\n      0x40\n        /* \"#utility.yul\":3840:3845   */\n      dup4\n        /* \"#utility.yul\":3836:3852   */\n      add\n        /* \"#utility.yul\":3830:3853   */\n      mload\n        /* \"#utility.yul\":3900:3903   */\n      dup5\n        /* \"#utility.yul\":3894:3898   */\n      dup3\n        /* \"#utility.yul\":3890:3904   */\n      sub\n        /* \"#utility.yul\":3883:3887   */\n      0x40\n        /* \"#utility.yul\":3878:3881   */\n      dup7\n        /* \"#utility.yul\":3874:3888   */\n      add\n        /* \"#utility.yul\":3867:3905   */\n      mstore\n        /* \"#utility.yul\":3926:4029   */\n      tag_518\n        /* \"#utility.yul\":4024:4028   */\n      dup3\n        /* \"#utility.yul\":4010:4022   */\n      dup3\n        /* \"#utility.yul\":3926:4029   */\n      tag_411\n      jump\t// in\n    tag_518:\n        /* \"#utility.yul\":3918:4029   */\n      swap2\n      pop\n        /* \"#utility.yul\":3770:4040   */\n      pop\n        /* \"#utility.yul\":4130:4134   */\n      0x60\n        /* \"#utility.yul\":4123:4128   */\n      dup4\n        /* \"#utility.yul\":4119:4135   */\n      add\n        /* \"#utility.yul\":4113:4136   */\n      mload\n        /* \"#utility.yul\":4183:4186   */\n      dup5\n        /* \"#utility.yul\":4177:4181   */\n      dup3\n        /* \"#utility.yul\":4173:4187   */\n      sub\n        /* \"#utility.yul\":4166:4170   */\n      0x60\n        /* \"#utility.yul\":4161:4164   */\n      dup7\n        /* \"#utility.yul\":4157:4171   */\n      add\n        /* \"#utility.yul\":4150:4188   */\n      mstore\n        /* \"#utility.yul\":4209:4312   */\n      tag_519\n        /* \"#utility.yul\":4307:4311   */\n      dup3\n        /* \"#utility.yul\":4293:4305   */\n      dup3\n        /* \"#utility.yul\":4209:4312   */\n      tag_411\n      jump\t// in\n    tag_519:\n        /* \"#utility.yul\":4201:4312   */\n      swap2\n      pop\n        /* \"#utility.yul\":4050:4323   */\n      pop\n        /* \"#utility.yul\":4409:4413   */\n      0x80\n        /* \"#utility.yul\":4402:4407   */\n      dup4\n        /* \"#utility.yul\":4398:4414   */\n      add\n        /* \"#utility.yul\":4392:4415   */\n      mload\n        /* \"#utility.yul\":4428:4485   */\n      tag_520\n        /* \"#utility.yul\":4479:4483   */\n      0x80\n        /* \"#utility.yul\":4474:4477   */\n      dup7\n        /* \"#utility.yul\":4470:4484   */\n      add\n        /* \"#utility.yul\":4456:4468   */\n      dup3\n        /* \"#utility.yul\":4428:4485   */\n      tag_413\n      jump\t// in\n    tag_520:\n        /* \"#utility.yul\":4333:4495   */\n      pop\n        /* \"#utility.yul\":4582:4586   */\n      0xa0\n        /* \"#utility.yul\":4575:4580   */\n      dup4\n        /* \"#utility.yul\":4571:4587   */\n      add\n        /* \"#utility.yul\":4565:4588   */\n      mload\n        /* \"#utility.yul\":4601:4664   */\n      tag_521\n        /* \"#utility.yul\":4658:4662   */\n      0xa0\n        /* \"#utility.yul\":4653:4656   */\n      dup7\n        /* \"#utility.yul\":4649:4663   */\n      add\n        /* \"#utility.yul\":4635:4647   */\n      dup3\n        /* \"#utility.yul\":4601:4664   */\n      tag_405\n      jump\t// in\n    tag_521:\n        /* \"#utility.yul\":4505:4674   */\n      pop\n        /* \"#utility.yul\":4765:4769   */\n      0xc0\n        /* \"#utility.yul\":4758:4763   */\n      dup4\n        /* \"#utility.yul\":4754:4770   */\n      add\n        /* \"#utility.yul\":4748:4771   */\n      mload\n        /* \"#utility.yul\":4784:4847   */\n      tag_522\n        /* \"#utility.yul\":4841:4845   */\n      0xc0\n        /* \"#utility.yul\":4836:4839   */\n      dup7\n        /* \"#utility.yul\":4832:4846   */\n      add\n        /* \"#utility.yul\":4818:4830   */\n      dup3\n        /* \"#utility.yul\":4784:4847   */\n      tag_405\n      jump\t// in\n    tag_522:\n        /* \"#utility.yul\":4684:4857   */\n      pop\n        /* \"#utility.yul\":4951:4955   */\n      0xe0\n        /* \"#utility.yul\":4944:4949   */\n      dup4\n        /* \"#utility.yul\":4940:4956   */\n      add\n        /* \"#utility.yul\":4934:4957   */\n      mload\n        /* \"#utility.yul\":4970:5033   */\n      tag_523\n        /* \"#utility.yul\":5027:5031   */\n      0xe0\n        /* \"#utility.yul\":5022:5025   */\n      dup7\n        /* \"#utility.yul\":5018:5032   */\n      add\n        /* \"#utility.yul\":5004:5016   */\n      dup3\n        /* \"#utility.yul\":4970:5033   */\n      tag_405\n      jump\t// in\n    tag_523:\n        /* \"#utility.yul\":4867:5043   */\n      pop\n        /* \"#utility.yul\":5060:5064   */\n      dup1\n        /* \"#utility.yul\":5053:5064   */\n      swap2\n      pop\n        /* \"#utility.yul\":3374:5070   */\n      pop\n        /* \"#utility.yul\":3242:5070   */\n      swap3\n      swap2\n      pop\n      pop\n      jump\t// out\n        /* \"#utility.yul\":5076:5465   */\n    tag_31:\n        /* \"#utility.yul\":5227:5231   */\n      0x00\n        /* \"#utility.yul\":5265:5267   */\n      0x20\n        /* \"#utility.yul\":5254:5263   */\n      dup3\n        /* \"#utility.yul\":5250:5268   */\n      add\n        /* \"#utility.yul\":5242:5268   */\n      swap1\n      pop\n        /* \"#utility.yul\":5314:5323   */\n      dup2\n        /* \"#utility.yul\":5308:5312   */\n      dup2\n        /* \"#utility.yul\":5304:5324   */\n      sub\n        /* \"#utility.yul\":5300:5301   */\n      0x00\n        /* \"#utility.yul\":5289:5298   */\n      dup4\n        /* \"#utility.yul\":5285:5302   */\n      add\n        /* \"#utility.yul\":5278:5325   */\n      mstore\n        /* \"#utility.yul\":5342:5458   */\n      tag_525\n        /* \"#utility.yul\":5453:5457   */\n      dup2\n        /* \"#utility.yul\":5444:5450   */\n      dup5\n        /* \"#utility.yul\":5342:5458   */\n      tag_414\n      jump\t// in\n    tag_525:\n        /* \"#utility.yul\":5334:5458   */\n      swap1\n      pop\n        /* \"#utility.yul\":5076:5465   */\n      swap3\n      swap2\n      pop\n      pop\n      jump\t// out\n        /* \"#utility.yul\":5471:5593   */\n    tag_415:\n        /* \"#utility.yul\":5544:5568   */\n      tag_527\n        /* \"#utility.yul\":5562:5567   */\n      dup2\n        /* \"#utility.yul\":5544:5568   */\n      tag_403\n      jump\t// in\n    tag_527:\n        /* \"#utility.yul\":5537:5542   */\n      dup2\n        /* \"#utility.yul\":5534:5569   */\n      eq\n        /* \"#utility.yul\":5524:5587   */\n      tag_528\n      jumpi\n        /* \"#utility.yul\":5583:5584   */\n      0x00\n        /* \"#utility.yul\":5580:5581   */\n      dup1\n        /* \"#utility.yul\":5573:5585   */\n      revert\n        /* \"#utility.yul\":5524:5587   */\n    tag_528:\n        /* \"#utility.yul\":5471:5593   */\n      pop\n      jump\t// out\n        /* \"#utility.yul\":5599:5738   */\n    tag_416:\n        /* \"#utility.yul\":5645:5650   */\n      0x00\n        /* \"#utility.yul\":5683:5689   */\n      dup2\n        /* \"#utility.yul\":5670:5690   */\n      calldataload\n        /* \"#utility.yul\":5661:5690   */\n      swap1\n      pop\n        /* \"#utility.yul\":5699:5732   */\n      tag_530\n        /* \"#utility.yul\":5726:5731   */\n      dup2\n        /* \"#utility.yul\":5699:5732   */\n      tag_415\n      jump\t// in\n    tag_530:\n        /* \"#utility.yul\":5599:5738   */\n      swap3\n      swap2\n      pop\n      pop\n      jump\t// out\n        /* \"#utility.yul\":5744:6218   */\n    tag_35:\n        /* \"#utility.yul\":5812:5818   */\n      0x00\n        /* \"#utility.yul\":5820:5826   */\n      dup1\n        /* \"#utility.yul\":5869:5871   */\n      0x40\n        /* \"#utility.yul\":5857:5866   */\n      dup4\n        /* \"#utility.yul\":5848:5855   */\n      dup6\n        /* \"#utility.yul\":5844:5867   */\n      sub\n        /* \"#utility.yul\":5840:5872   */\n      slt\n        /* \"#utility.yul\":5837:5956   */\n      iszero\n      tag_532\n      jumpi\n        /* \"#utility.yul\":5875:5954   */\n      tag_533\n      tag_397\n      jump\t// in\n    tag_533:\n        /* \"#utility.yul\":5837:5956   */\n    tag_532:\n        /* \"#utility.yul\":5995:5996   */\n      0x00\n        /* \"#utility.yul\":6020:6073   */\n      tag_534\n        /* \"#utility.yul\":6065:6072   */\n      dup6\n        /* \"#utility.yul\":6056:6062   */\n      dup3\n        /* \"#utility.yul\":6045:6054   */\n      dup7\n        /* \"#utility.yul\":6041:6063   */\n      add\n        /* \"#utility.yul\":6020:6073   */\n      tag_416\n      jump\t// in\n    tag_534:\n        /* \"#utility.yul\":6010:6073   */\n      swap3\n      pop\n        /* \"#utility.yul\":5966:6083   */\n      pop\n        /* \"#utility.yul\":6122:6124   */\n      0x20\n        /* \"#utility.yul\":6148:6201   */\n      tag_535\n        /* \"#utility.yul\":6193:6200   */\n      dup6\n        /* \"#utility.yul\":6184:6190   */\n      dup3\n        /* \"#utility.yul\":6173:6182   */\n      dup7\n        /* \"#utility.yul\":6169:6191   */\n      add\n        /* \"#utility.yul\":6148:6201   */\n      tag_401\n      jump\t// in\n    tag_535:\n        /* \"#utility.yul\":6138:6201   */\n      swap2\n      pop\n        /* \"#utility.yul\":6093:6211   */\n      pop\n        /* \"#utility.yul\":5744:6218   */\n      swap3\n      pop\n      swap3\n      swap1\n      pop\n      jump\t// out\n        /* \"#utility.yul\":6224:6342   */\n    tag_417:\n        /* \"#utility.yul\":6311:6335   */\n      tag_537\n        /* \"#utility.yul\":6329:6334   */\n      dup2\n        /* \"#utility.yul\":6311:6335   */\n      tag_399\n      jump\t// in\n    tag_537:\n        /* \"#utility.yul\":6306:6309   */\n      dup3\n        /* \"#utility.yul\":6299:6336   */\n      mstore\n        /* \"#utility.yul\":6224:6342   */\n      pop\n      pop\n      jump\t// out\n        /* \"#utility.yul\":6348:6570   */\n    tag_38:\n        /* \"#utility.yul\":6441:6445   */\n      0x00\n        /* \"#utility.yul\":6479:6481   */\n      0x20\n        /* \"#utility.yul\":6468:6477   */\n      dup3\n        /* \"#utility.yul\":6464:6482   */\n      add\n        /* \"#utility.yul\":6456:6482   */\n      swap1\n      pop\n        /* \"#utility.yul\":6492:6563   */\n      tag_539\n        /* \"#utility.yul\":6560:6561   */\n      0x00\n        /* \"#utility.yul\":6549:6558   */\n      dup4\n        /* \"#utility.yul\":6545:6562   */\n      add\n        /* \"#utility.yul\":6536:6542   */\n      dup5\n        /* \"#utility.yul\":6492:6563   */\n      tag_417\n      jump\t// in\n    tag_539:\n        /* \"#utility.yul\":6348:6570   */\n      swap3\n      swap2\n      pop\n      pop\n      jump\t// out\n        /* \"#utility.yul\":6576:6719   */\n    tag_418:\n        /* \"#utility.yul\":6672:6678   */\n      0x00\n        /* \"#utility.yul\":6706:6711   */\n      dup2\n        /* \"#utility.yul\":6700:6712   */\n      mload\n        /* \"#utility.yul\":6690:6712   */\n      swap1\n      pop\n        /* \"#utility.yul\":6576:6719   */\n      swap2\n      swap1\n      pop\n      jump\t// out\n        /* \"#utility.yul\":6725:6938   */\n    tag_419:\n        /* \"#utility.yul\":6853:6864   */\n      0x00\n        /* \"#utility.yul\":6887:6893   */\n      dup3\n        /* \"#utility.yul\":6882:6885   */\n      dup3\n        /* \"#utility.yul\":6875:6894   */\n      mstore\n        /* \"#utility.yul\":6927:6931   */\n      0x20\n        /* \"#utility.yul\":6922:6925   */\n      dup3\n        /* \"#utility.yul\":6918:6932   */\n      add\n        /* \"#utility.yul\":6903:6932   */\n      swap1\n      pop\n        /* \"#utility.yul\":6725:6938   */\n      swap3\n      swap2\n      pop\n      pop\n      jump\t// out\n        /* \"#utility.yul\":6944:7105   */\n    tag_420:\n        /* \"#utility.yul\":7040:7044   */\n      0x00\n        /* \"#utility.yul\":7063:7066   */\n      dup2\n        /* \"#utility.yul\":7055:7066   */\n      swap1\n      pop\n        /* \"#utility.yul\":7093:7097   */\n      0x20\n        /* \"#utility.yul\":7088:7091   */\n      dup3\n        /* \"#utility.yul\":7084:7098   */\n      add\n        /* \"#utility.yul\":7076:7098   */\n      swap1\n      pop\n        /* \"#utility.yul\":6944:7105   */\n      swap2\n      swap1\n      pop\n      jump\t// out\n        /* \"#utility.yul\":7175:8993   */\n    tag_421:\n        /* \"#utility.yul\":7292:7295   */\n      0x00\n        /* \"#utility.yul\":7328:7334   */\n      0x0100\n        /* \"#utility.yul\":7323:7326   */\n      dup4\n        /* \"#utility.yul\":7319:7335   */\n      add\n        /* \"#utility.yul\":7415:7419   */\n      0x00\n        /* \"#utility.yul\":7408:7413   */\n      dup4\n        /* \"#utility.yul\":7404:7420   */\n      add\n        /* \"#utility.yul\":7398:7421   */\n      mload\n        /* \"#utility.yul\":7434:7497   */\n      tag_544\n        /* \"#utility.yul\":7491:7495   */\n      0x00\n        /* \"#utility.yul\":7486:7489   */\n      dup7\n        /* \"#utility.yul\":7482:7496   */\n      add\n        /* \"#utility.yul\":7468:7480   */\n      dup3\n        /* \"#utility.yul\":7434:7497   */\n      tag_404\n      jump\t// in\n    tag_544:\n        /* \"#utility.yul\":7345:7507   */\n      pop\n        /* \"#utility.yul\":7591:7595   */\n      0x20\n        /* \"#utility.yul\":7584:7589   */\n      dup4\n        /* \"#utility.yul\":7580:7596   */\n      add\n        /* \"#utility.yul\":7574:7597   */\n      mload\n        /* \"#utility.yul\":7610:7673   */\n      tag_545\n        /* \"#utility.yul\":7667:7671   */\n      0x20\n        /* \"#utility.yul\":7662:7665   */\n      dup7\n        /* \"#utility.yul\":7658:7672   */\n      add\n        /* \"#utility.yul\":7644:7656   */\n      dup3\n        /* \"#utility.yul\":7610:7673   */\n      tag_405\n      jump\t// in\n    tag_545:\n        /* \"#utility.yul\":7517:7683   */\n      pop\n        /* \"#utility.yul\":7770:7774   */\n      0x40\n        /* \"#utility.yul\":7763:7768   */\n      dup4\n        /* \"#utility.yul\":7759:7775   */\n      add\n        /* \"#utility.yul\":7753:7776   */\n      mload\n        /* \"#utility.yul\":7823:7826   */\n      dup5\n        /* \"#utility.yul\":7817:7821   */\n      dup3\n        /* \"#utility.yul\":7813:7827   */\n      sub\n        /* \"#utility.yul\":7806:7810   */\n      0x40\n        /* \"#utility.yul\":7801:7804   */\n      dup7\n        /* \"#utility.yul\":7797:7811   */\n      add\n        /* \"#utility.yul\":7790:7828   */\n      mstore\n        /* \"#utility.yul\":7849:7952   */\n      tag_546\n        /* \"#utility.yul\":7947:7951   */\n      dup3\n        /* \"#utility.yul\":7933:7945   */\n      dup3\n        /* \"#utility.yul\":7849:7952   */\n      tag_411\n      jump\t// in\n    tag_546:\n        /* \"#utility.yul\":7841:7952   */\n      swap2\n      pop\n        /* \"#utility.yul\":7693:7963   */\n      pop\n        /* \"#utility.yul\":8053:8057   */\n      0x60\n        /* \"#utility.yul\":8046:8051   */\n      dup4\n        /* \"#utility.yul\":8042:8058   */\n      add\n        /* \"#utility.yul\":8036:8059   */\n      mload\n        /* \"#utility.yul\":8106:8109   */\n      dup5\n        /* \"#utility.yul\":8100:8104   */\n      dup3\n        /* \"#utility.yul\":8096:8110   */\n      sub\n        /* \"#utility.yul\":8089:8093   */\n      0x60\n        /* \"#utility.yul\":8084:8087   */\n      dup7\n        /* \"#utility.yul\":8080:8094   */\n      add\n        /* \"#utility.yul\":8073:8111   */\n      mstore\n        /* \"#utility.yul\":8132:8235   */\n      tag_547\n        /* \"#utility.yul\":8230:8234   */\n      dup3\n        /* \"#utility.yul\":8216:8228   */\n      dup3\n        /* \"#utility.yul\":8132:8235   */\n      tag_411\n      jump\t// in\n    tag_547:\n        /* \"#utility.yul\":8124:8235   */\n      swap2\n      pop\n        /* \"#utility.yul\":7973:8246   */\n      pop\n        /* \"#utility.yul\":8332:8336   */\n      0x80\n        /* \"#utility.yul\":8325:8330   */\n      dup4\n        /* \"#utility.yul\":8321:8337   */\n      add\n        /* \"#utility.yul\":8315:8338   */\n      mload\n        /* \"#utility.yul\":8351:8408   */\n      tag_548\n        /* \"#utility.yul\":8402:8406   */\n      0x80\n        /* \"#utility.yul\":8397:8400   */\n      dup7\n        /* \"#utility.yul\":8393:8407   */\n      add\n        /* \"#utility.yul\":8379:8391   */\n      dup3\n        /* \"#utility.yul\":8351:8408   */\n      tag_413\n      jump\t// in\n    tag_548:\n        /* \"#utility.yul\":8256:8418   */\n      pop\n        /* \"#utility.yul\":8505:8509   */\n      0xa0\n        /* \"#utility.yul\":8498:8503   */\n      dup4\n        /* \"#utility.yul\":8494:8510   */\n      add\n        /* \"#utility.yul\":8488:8511   */\n      mload\n        /* \"#utility.yul\":8524:8587   */\n      tag_549\n        /* \"#utility.yul\":8581:8585   */\n      0xa0\n        /* \"#utility.yul\":8576:8579   */\n      dup7\n        /* \"#utility.yul\":8572:8586   */\n      add\n        /* \"#utility.yul\":8558:8570   */\n      dup3\n        /* \"#utility.yul\":8524:8587   */\n      tag_405\n      jump\t// in\n    tag_549:\n        /* \"#utility.yul\":8428:8597   */\n      pop\n        /* \"#utility.yul\":8688:8692   */\n      0xc0\n        /* \"#utility.yul\":8681:8686   */\n      dup4\n        /* \"#utility.yul\":8677:8693   */\n      add\n        /* \"#utility.yul\":8671:8694   */\n      mload\n        /* \"#utility.yul\":8707:8770   */\n      tag_550\n        /* \"#utility.yul\":8764:8768   */\n      0xc0\n        /* \"#utility.yul\":8759:8762   */\n      dup7\n        /* \"#utility.yul\":8755:8769   */\n      add\n        /* \"#utility.yul\":8741:8753   */\n      dup3\n        /* \"#utility.yul\":8707:8770   */\n      tag_405\n      jump\t// in\n    tag_550:\n        /* \"#utility.yul\":8607:8780   */\n      pop\n        /* \"#utility.yul\":8874:8878   */\n      0xe0\n        /* \"#utility.yul\":8867:8872   */\n      dup4\n        /* \"#utility.yul\":8863:8879   */\n      add\n        /* \"#utility.yul\":8857:8880   */\n      mload\n        /* \"#utility.yul\":8893:8956   */\n      tag_551\n        /* \"#utility.yul\":8950:8954   */\n      0xe0\n        /* \"#utility.yul\":8945:8948   */\n      dup7\n        /* \"#utility.yul\":8941:8955   */\n      add\n        /* \"#utility.yul\":8927:8939   */\n      dup3\n        /* \"#utility.yul\":8893:8956   */\n      tag_405\n      jump\t// in\n    tag_551:\n        /* \"#utility.yul\":8790:8966   */\n      pop\n        /* \"#utility.yul\":8983:8987   */\n      dup1\n        /* \"#utility.yul\":8976:8987   */\n      swap2\n      pop\n        /* \"#utility.yul\":7297:8993   */\n      pop\n        /* \"#utility.yul\":7175:8993   */\n      swap3\n      swap2\n      pop\n      pop\n      jump\t// out\n        /* \"#utility.yul\":8999:9271   */\n    tag_422:\n        /* \"#utility.yul\":9126:9136   */\n      0x00\n        /* \"#utility.yul\":9161:9265   */\n      tag_553\n        /* \"#utility.yul\":9261:9264   */\n      dup4\n        /* \"#utility.yul\":9253:9259   */\n      dup4\n        /* \"#utility.yul\":9161:9265   */\n      tag_421\n      jump\t// in\n    tag_553:\n        /* \"#utility.yul\":9147:9265   */\n      swap1\n      pop\n        /* \"#utility.yul\":8999:9271   */\n      swap3\n      swap2\n      pop\n      pop\n      jump\t// out\n        /* \"#utility.yul\":9277:9419   */\n    tag_423:\n        /* \"#utility.yul\":9376:9380   */\n      0x00\n        /* \"#utility.yul\":9408:9412   */\n      0x20\n        /* \"#utility.yul\":9403:9406   */\n      dup3\n        /* \"#utility.yul\":9399:9413   */\n      add\n        /* \"#utility.yul\":9391:9413   */\n      swap1\n      pop\n        /* \"#utility.yul\":9277:9419   */\n      swap2\n      swap1\n      pop\n      jump\t// out\n        /* \"#utility.yul\":9493:10636   */\n    tag_424:\n        /* \"#utility.yul\":9670:9673   */\n      0x00\n        /* \"#utility.yul\":9699:9782   */\n      tag_556\n        /* \"#utility.yul\":9776:9781   */\n      dup3\n        /* \"#utility.yul\":9699:9782   */\n      tag_418\n      jump\t// in\n    tag_556:\n        /* \"#utility.yul\":9798:9913   */\n      tag_557\n        /* \"#utility.yul\":9906:9912   */\n      dup2\n        /* \"#utility.yul\":9901:9904   */\n      dup6\n        /* \"#utility.yul\":9798:9913   */\n      tag_419\n      jump\t// in\n    tag_557:\n        /* \"#utility.yul\":9791:9913   */\n      swap4\n      pop\n        /* \"#utility.yul\":9939:9942   */\n      dup4\n        /* \"#utility.yul\":9984:9988   */\n      0x20\n        /* \"#utility.yul\":9976:9982   */\n      dup3\n        /* \"#utility.yul\":9972:9989   */\n      mul\n        /* \"#utility.yul\":9967:9970   */\n      dup6\n        /* \"#utility.yul\":9963:9990   */\n      add\n        /* \"#utility.yul\":10014:10099   */\n      tag_558\n        /* \"#utility.yul\":10093:10098   */\n      dup6\n        /* \"#utility.yul\":10014:10099   */\n      tag_420\n      jump\t// in\n    tag_558:\n        /* \"#utility.yul\":10122:10129   */\n      dup1\n        /* \"#utility.yul\":10153:10154   */\n      0x00\n        /* \"#utility.yul\":10138:10591   */\n    tag_559:\n        /* \"#utility.yul\":10163:10169   */\n      dup6\n        /* \"#utility.yul\":10160:10161   */\n      dup2\n        /* \"#utility.yul\":10157:10170   */\n      lt\n        /* \"#utility.yul\":10138:10591   */\n      iszero\n      tag_561\n      jumpi\n        /* \"#utility.yul\":10234:10243   */\n      dup5\n        /* \"#utility.yul\":10228:10232   */\n      dup5\n        /* \"#utility.yul\":10224:10244   */\n      sub\n        /* \"#utility.yul\":10219:10222   */\n      dup10\n        /* \"#utility.yul\":10212:10245   */\n      mstore\n        /* \"#utility.yul\":10285:10291   */\n      dup2\n        /* \"#utility.yul\":10279:10292   */\n      mload\n        /* \"#utility.yul\":10313:10435   */\n      tag_562\n        /* \"#utility.yul\":10430:10434   */\n      dup6\n        /* \"#utility.yul\":10415:10428   */\n      dup3\n        /* \"#utility.yul\":10313:10435   */\n      tag_422\n      jump\t// in\n    tag_562:\n        /* \"#utility.yul\":10305:10435   */\n      swap5\n      pop\n        /* \"#utility.yul\":10458:10547   */\n      tag_563\n        /* \"#utility.yul\":10540:10546   */\n      dup4\n        /* \"#utility.yul\":10458:10547   */\n      tag_423\n      jump\t// in\n    tag_563:\n        /* \"#utility.yul\":10448:10547   */\n      swap3\n      pop\n        /* \"#utility.yul\":10576:10580   */\n      0x20\n        /* \"#utility.yul\":10571:10574   */\n      dup11\n        /* \"#utility.yul\":10567:10581   */\n      add\n        /* \"#utility.yul\":10560:10581   */\n      swap10\n      pop\n        /* \"#utility.yul\":10198:10591   */\n      pop\n        /* \"#utility.yul\":10185:10186   */\n      0x01\n        /* \"#utility.yul\":10182:10183   */\n      dup2\n        /* \"#utility.yul\":10178:10187   */\n      add\n        /* \"#utility.yul\":10173:10187   */\n      swap1\n      pop\n        /* \"#utility.yul\":10138:10591   */\n      jump(tag_559)\n    tag_561:\n        /* \"#utility.yul\":10142:10156   */\n      pop\n        /* \"#utility.yul\":10607:10611   */\n      dup3\n        /* \"#utility.yul\":10600:10611   */\n      swap8\n      pop\n        /* \"#utility.yul\":10627:10630   */\n      dup8\n        /* \"#utility.yul\":10620:10630   */\n      swap6\n      pop\n        /* \"#utility.yul\":9675:10636   */\n      pop\n      pop\n      pop\n      pop\n      pop\n        /* \"#utility.yul\":9493:10636   */\n      swap3\n      swap2\n      pop\n      pop\n      jump\t// out\n        /* \"#utility.yul\":10642:11131   */\n    tag_47:\n        /* \"#utility.yul\":10843:10847   */\n      0x00\n        /* \"#utility.yul\":10881:10883   */\n      0x20\n        /* \"#utility.yul\":10870:10879   */\n      dup3\n        /* \"#utility.yul\":10866:10884   */\n      add\n        /* \"#utility.yul\":10858:10884   */\n      swap1\n      pop\n        /* \"#utility.yul\":10930:10939   */\n      dup2\n        /* \"#utility.yul\":10924:10928   */\n      dup2\n        /* \"#utility.yul\":10920:10940   */\n      sub\n        /* \"#utility.yul\":10916:10917   */\n      0x00\n        /* \"#utility.yul\":10905:10914   */\n      dup4\n        /* \"#utility.yul\":10901:10918   */\n      add\n        /* \"#utility.yul\":10894:10941   */\n      mstore\n        /* \"#utility.yul\":10958:11124   */\n      tag_565\n        /* \"#utility.yul\":11119:11123   */\n      dup2\n        /* \"#utility.yul\":11110:11116   */\n      dup5\n        /* \"#utility.yul\":10958:11124   */\n      tag_424\n      jump\t// in\n    tag_565:\n        /* \"#utility.yul\":10950:11124   */\n      swap1\n      pop\n        /* \"#utility.yul\":10642:11131   */\n      swap3\n      swap2\n      pop\n      pop\n      jump\t// out\n        /* \"#utility.yul\":11137:11321   */\n    tag_425:\n        /* \"#utility.yul\":11236:11247   */\n      0x00\n        /* \"#utility.yul\":11270:11276   */\n      dup3\n        /* \"#utility.yul\":11265:11268   */\n      dup3\n        /* \"#utility.yul\":11258:11277   */\n      mstore\n        /* \"#utility.yul\":11310:11314   */\n      0x20\n        /* \"#utility.yul\":11305:11308   */\n      dup3\n        /* \"#utility.yul\":11301:11315   */\n      add\n        /* \"#utility.yul\":11286:11315   */\n      swap1\n      pop\n        /* \"#utility.yul\":11137:11321   */\n      swap3\n      swap2\n      pop\n      pop\n      jump\t// out\n        /* \"#utility.yul\":11357:12089   */\n    tag_426:\n        /* \"#utility.yul\":11476:11479   */\n      0x00\n        /* \"#utility.yul\":11505:11559   */\n      tag_568\n        /* \"#utility.yul\":11553:11558   */\n      dup3\n        /* \"#utility.yul\":11505:11559   */\n      tag_406\n      jump\t// in\n    tag_568:\n        /* \"#utility.yul\":11575:11661   */\n      tag_569\n        /* \"#utility.yul\":11654:11660   */\n      dup2\n        /* \"#utility.yul\":11649:11652   */\n      dup6\n        /* \"#utility.yul\":11575:11661   */\n      tag_425\n      jump\t// in\n    tag_569:\n        /* \"#utility.yul\":11568:11661   */\n      swap4\n      pop\n        /* \"#utility.yul\":11685:11741   */\n      tag_570\n        /* \"#utility.yul\":11735:11740   */\n      dup4\n        /* \"#utility.yul\":11685:11741   */\n      tag_408\n      jump\t// in\n    tag_570:\n        /* \"#utility.yul\":11764:11771   */\n      dup1\n        /* \"#utility.yul\":11795:11796   */\n      0x00\n        /* \"#utility.yul\":11780:12064   */\n    tag_571:\n        /* \"#utility.yul\":11805:11811   */\n      dup4\n        /* \"#utility.yul\":11802:11803   */\n      dup2\n        /* \"#utility.yul\":11799:11812   */\n      lt\n        /* \"#utility.yul\":11780:12064   */\n      iszero\n      tag_573\n      jumpi\n        /* \"#utility.yul\":11881:11887   */\n      dup2\n        /* \"#utility.yul\":11875:11888   */\n      mload\n        /* \"#utility.yul\":11908:11971   */\n      tag_574\n        /* \"#utility.yul\":11967:11970   */\n      dup9\n        /* \"#utility.yul\":11952:11965   */\n      dup3\n        /* \"#utility.yul\":11908:11971   */\n      tag_409\n      jump\t// in\n    tag_574:\n        /* \"#utility.yul\":11901:11971   */\n      swap8\n      pop\n        /* \"#utility.yul\":11994:12054   */\n      tag_575\n        /* \"#utility.yul\":12047:12053   */\n      dup4\n        /* \"#utility.yul\":11994:12054   */\n      tag_410\n      jump\t// in\n    tag_575:\n        /* \"#utility.yul\":11984:12054   */\n      swap3\n      pop\n        /* \"#utility.yul\":11840:12064   */\n      pop\n        /* \"#utility.yul\":11827:11828   */\n      0x01\n        /* \"#utility.yul\":11824:11825   */\n      dup2\n        /* \"#utility.yul\":11820:11829   */\n      add\n        /* \"#utility.yul\":11815:11829   */\n      swap1\n      pop\n        /* \"#utility.yul\":11780:12064   */\n      jump(tag_571)\n    tag_573:\n        /* \"#utility.yul\":11784:11798   */\n      pop\n        /* \"#utility.yul\":12080:12083   */\n      dup6\n        /* \"#utility.yul\":12073:12083   */\n      swap4\n      pop\n        /* \"#utility.yul\":11481:12089   */\n      pop\n      pop\n      pop\n        /* \"#utility.yul\":11357:12089   */\n      swap3\n      swap2\n      pop\n      pop\n      jump\t// out\n        /* \"#utility.yul\":12095:12468   */\n    tag_52:\n        /* \"#utility.yul\":12238:12242   */\n      0x00\n        /* \"#utility.yul\":12276:12278   */\n      0x20\n        /* \"#utility.yul\":12265:12274   */\n      dup3\n        /* \"#utility.yul\":12261:12279   */\n      add\n        /* \"#utility.yul\":12253:12279   */\n      swap1\n      pop\n        /* \"#utility.yul\":12325:12334   */\n      dup2\n        /* \"#utility.yul\":12319:12323   */\n      dup2\n        /* \"#utility.yul\":12315:12335   */\n      sub\n        /* \"#utility.yul\":12311:12312   */\n      0x00\n        /* \"#utility.yul\":12300:12309   */\n      dup4\n        /* \"#utility.yul\":12296:12313   */\n      add\n        /* \"#utility.yul\":12289:12336   */\n      mstore\n        /* \"#utility.yul\":12353:12461   */\n      tag_577\n        /* \"#utility.yul\":12456:12460   */\n      dup2\n        /* \"#utility.yul\":12447:12453   */\n      dup5\n        /* \"#utility.yul\":12353:12461   */\n      tag_426\n      jump\t// in\n    tag_577:\n        /* \"#utility.yul\":12345:12461   */\n      swap1\n      pop\n        /* \"#utility.yul\":12095:12468   */\n      swap3\n      swap2\n      pop\n      pop\n      jump\t// out\n        /* \"#utility.yul\":12474:12591   */\n    tag_427:\n        /* \"#utility.yul\":12583:12584   */\n      0x00\n        /* \"#utility.yul\":12580:12581   */\n      dup1\n        /* \"#utility.yul\":12573:12585   */\n      revert\n        /* \"#utility.yul\":12597:12714   */\n    tag_428:\n        /* \"#utility.yul\":12706:12707   */\n      0x00\n        /* \"#utility.yul\":12703:12704   */\n      dup1\n        /* \"#utility.yul\":12696:12708   */\n      revert\n        /* \"#utility.yul\":12720:12822   */\n    tag_429:\n        /* \"#utility.yul\":12761:12767   */\n      0x00\n        /* \"#utility.yul\":12812:12814   */\n      0x1f\n        /* \"#utility.yul\":12808:12815   */\n      not\n        /* \"#utility.yul\":12803:12805   */\n      0x1f\n        /* \"#utility.yul\":12796:12801   */\n      dup4\n        /* \"#utility.yul\":12792:12806   */\n      add\n        /* \"#utility.yul\":12788:12816   */\n      and\n        /* \"#utility.yul\":12778:12816   */\n      swap1\n      pop\n        /* \"#utility.yul\":12720:12822   */\n      swap2\n      swap1\n      pop\n      jump\t// out\n        /* \"#utility.yul\":12828:13008   */\n    tag_430:\n        /* \"#utility.yul\":12876:12953   */\n      0x4e487b7100000000000000000000000000000000000000000000000000000000\n        /* \"#utility.yul\":12873:12874   */\n      0x00\n        /* \"#utility.yul\":12866:12954   */\n      mstore\n        /* \"#utility.yul\":12973:12977   */\n      0x41\n        /* \"#utility.yul\":12970:12971   */\n      0x04\n        /* \"#utility.yul\":12963:12978   */\n      mstore\n        /* \"#utility.yul\":12997:13001   */\n      0x24\n        /* \"#utility.yul\":12994:12995   */\n      0x00\n        /* \"#utility.yul\":12987:13002   */\n      revert\n        /* \"#utility.yul\":13014:13295   */\n    tag_431:\n        /* \"#utility.yul\":13097:13124   */\n      tag_583\n        /* \"#utility.yul\":13119:13123   */\n      dup3\n        /* \"#utility.yul\":13097:13124   */\n      tag_429\n      jump\t// in\n    tag_583:\n        /* \"#utility.yul\":13089:13095   */\n      dup2\n        /* \"#utility.yul\":13085:13125   */\n      add\n        /* \"#utility.yul\":13227:13233   */\n      dup2\n        /* \"#utility.yul\":13215:13225   */\n      dup2\n        /* \"#utility.yul\":13212:13234   */\n      lt\n        /* \"#utility.yul\":13191:13209   */\n      0xffffffffffffffff\n        /* \"#utility.yul\":13179:13189   */\n      dup3\n        /* \"#utility.yul\":13176:13210   */\n      gt\n        /* \"#utility.yul\":13173:13235   */\n      or\n        /* \"#utility.yul\":13170:13258   */\n      iszero\n      tag_584\n      jumpi\n        /* \"#utility.yul\":13238:13256   */\n      tag_585\n      tag_430\n      jump\t// in\n    tag_585:\n        /* \"#utility.yul\":13170:13258   */\n    tag_584:\n        /* \"#utility.yul\":13278:13288   */\n      dup1\n        /* \"#utility.yul\":13274:13276   */\n      0x40\n        /* \"#utility.yul\":13267:13289   */\n      mstore\n        /* \"#utility.yul\":13057:13295   */\n      pop\n        /* \"#utility.yul\":13014:13295   */\n      pop\n      pop\n      jump\t// out\n        /* \"#utility.yul\":13301:13430   */\n    tag_432:\n        /* \"#utility.yul\":13335:13341   */\n      0x00\n        /* \"#utility.yul\":13362:13382   */\n      tag_587\n      tag_396\n      jump\t// in\n    tag_587:\n        /* \"#utility.yul\":13352:13382   */\n      swap1\n      pop\n        /* \"#utility.yul\":13391:13424   */\n      tag_588\n        /* \"#utility.yul\":13419:13423   */\n      dup3\n        /* \"#utility.yul\":13411:13417   */\n      dup3\n        /* \"#utility.yul\":13391:13424   */\n      tag_431\n      jump\t// in\n    tag_588:\n        /* \"#utility.yul\":13301:13430   */\n      swap2\n      swap1\n      pop\n      jump\t// out\n        /* \"#utility.yul\":13436:13743   */\n    tag_433:\n        /* \"#utility.yul\":13497:13501   */\n      0x00\n        /* \"#utility.yul\":13587:13605   */\n      0xffffffffffffffff\n        /* \"#utility.yul\":13579:13585   */\n      dup3\n        /* \"#utility.yul\":13576:13606   */\n      gt\n        /* \"#utility.yul\":13573:13629   */\n      iszero\n      tag_590\n      jumpi\n        /* \"#utility.yul\":13609:13627   */\n      tag_591\n      tag_430\n      jump\t// in\n    tag_591:\n        /* \"#utility.yul\":13573:13629   */\n    tag_590:\n        /* \"#utility.yul\":13647:13676   */\n      tag_592\n        /* \"#utility.yul\":13669:13675   */\n      dup3\n        /* \"#utility.yul\":13647:13676   */\n      tag_429\n      jump\t// in\n    tag_592:\n        /* \"#utility.yul\":13639:13676   */\n      swap1\n      pop\n        /* \"#utility.yul\":13731:13735   */\n      0x20\n        /* \"#utility.yul\":13725:13729   */\n      dup2\n        /* \"#utility.yul\":13721:13736   */\n      add\n        /* \"#utility.yul\":13713:13736   */\n      swap1\n      pop\n        /* \"#utility.yul\":13436:13743   */\n      swap2\n      swap1\n      pop\n      jump\t// out\n        /* \"#utility.yul\":13749:13897   */\n    tag_434:\n        /* \"#utility.yul\":13847:13853   */\n      dup3\n        /* \"#utility.yul\":13842:13845   */\n      dup2\n        /* \"#utility.yul\":13837:13840   */\n      dup4\n        /* \"#utility.yul\":13824:13854   */\n      calldatacopy\n        /* \"#utility.yul\":13888:13889   */\n      0x00\n        /* \"#utility.yul\":13879:13885   */\n      dup4\n        /* \"#utility.yul\":13874:13877   */\n      dup4\n        /* \"#utility.yul\":13870:13886   */\n      add\n        /* \"#utility.yul\":13863:13890   */\n      mstore\n        /* \"#utility.yul\":13749:13897   */\n      pop\n      pop\n      pop\n      jump\t// out\n        /* \"#utility.yul\":13903:14326   */\n    tag_435:\n        /* \"#utility.yul\":13980:13985   */\n      0x00\n        /* \"#utility.yul\":14005:14070   */\n      tag_595\n        /* \"#utility.yul\":14021:14069   */\n      tag_596\n        /* \"#utility.yul\":14062:14068   */\n      dup5\n        /* \"#utility.yul\":14021:14069   */\n      tag_433\n      jump\t// in\n    tag_596:\n        /* \"#utility.yul\":14005:14070   */\n      tag_432\n      jump\t// in\n    tag_595:\n        /* \"#utility.yul\":13996:14070   */\n      swap1\n      pop\n        /* \"#utility.yul\":14093:14099   */\n      dup3\n        /* \"#utility.yul\":14086:14091   */\n      dup2\n        /* \"#utility.yul\":14079:14100   */\n      mstore\n        /* \"#utility.yul\":14131:14135   */\n      0x20\n        /* \"#utility.yul\":14124:14129   */\n      dup2\n        /* \"#utility.yul\":14120:14136   */\n      add\n        /* \"#utility.yul\":14169:14172   */\n      dup5\n        /* \"#utility.yul\":14160:14166   */\n      dup5\n        /* \"#utility.yul\":14155:14158   */\n      dup5\n        /* \"#utility.yul\":14151:14167   */\n      add\n        /* \"#utility.yul\":14148:14173   */\n      gt\n        /* \"#utility.yul\":14145:14257   */\n      iszero\n      tag_597\n      jumpi\n        /* \"#utility.yul\":14176:14255   */\n      tag_598\n      tag_428\n      jump\t// in\n    tag_598:\n        /* \"#utility.yul\":14145:14257   */\n    tag_597:\n        /* \"#utility.yul\":14266:14320   */\n      tag_599\n        /* \"#utility.yul\":14313:14319   */\n      dup5\n        /* \"#utility.yul\":14308:14311   */\n      dup3\n        /* \"#utility.yul\":14303:14306   */\n      dup6\n        /* \"#utility.yul\":14266:14320   */\n      tag_434\n      jump\t// in\n    tag_599:\n        /* \"#utility.yul\":13986:14326   */\n      pop\n        /* \"#utility.yul\":13903:14326   */\n      swap4\n      swap3\n      pop\n      pop\n      pop\n      jump\t// out\n        /* \"#utility.yul\":14345:14683   */\n    tag_436:\n        /* \"#utility.yul\":14400:14405   */\n      0x00\n        /* \"#utility.yul\":14449:14452   */\n      dup3\n        /* \"#utility.yul\":14442:14446   */\n      0x1f\n        /* \"#utility.yul\":14434:14440   */\n      dup4\n        /* \"#utility.yul\":14430:14447   */\n      add\n        /* \"#utility.yul\":14426:14453   */\n      slt\n        /* \"#utility.yul\":14416:14538   */\n      tag_601\n      jumpi\n        /* \"#utility.yul\":14457:14536   */\n      tag_602\n      tag_427\n      jump\t// in\n    tag_602:\n        /* \"#utility.yul\":14416:14538   */\n    tag_601:\n        /* \"#utility.yul\":14574:14580   */\n      dup2\n        /* \"#utility.yul\":14561:14581   */\n      calldataload\n        /* \"#utility.yul\":14599:14677   */\n      tag_603\n        /* \"#utility.yul\":14673:14676   */\n      dup5\n        /* \"#utility.yul\":14665:14671   */\n      dup3\n        /* \"#utility.yul\":14658:14662   */\n      0x20\n        /* \"#utility.yul\":14650:14656   */\n      dup7\n        /* \"#utility.yul\":14646:14663   */\n      add\n        /* \"#utility.yul\":14599:14677   */\n      tag_435\n      jump\t// in\n    tag_603:\n        /* \"#utility.yul\":14590:14677   */\n      swap2\n      pop\n        /* \"#utility.yul\":14406:14683   */\n      pop\n        /* \"#utility.yul\":14345:14683   */\n      swap3\n      swap2\n      pop\n      pop\n      jump\t// out\n        /* \"#utility.yul\":14689:15341   */\n    tag_55:\n        /* \"#utility.yul\":14766:14772   */\n      0x00\n        /* \"#utility.yul\":14774:14780   */\n      dup1\n        /* \"#utility.yul\":14823:14825   */\n      0x40\n        /* \"#utility.yul\":14811:14820   */\n      dup4\n        /* \"#utility.yul\":14802:14809   */\n      dup6\n        /* \"#utility.yul\":14798:14821   */\n      sub\n        /* \"#utility.yul\":14794:14826   */\n      slt\n        /* \"#utility.yul\":14791:14910   */\n      iszero\n      tag_605\n      jumpi\n        /* \"#utility.yul\":14829:14908   */\n      tag_606\n      tag_397\n      jump\t// in\n    tag_606:\n        /* \"#utility.yul\":14791:14910   */\n    tag_605:\n        /* \"#utility.yul\":14949:14950   */\n      0x00\n        /* \"#utility.yul\":14974:15027   */\n      tag_607\n        /* \"#utility.yul\":15019:15026   */\n      dup6\n        /* \"#utility.yul\":15010:15016   */\n      dup3\n        /* \"#utility.yul\":14999:15008   */\n      dup7\n        /* \"#utility.yul\":14995:15017   */\n      add\n        /* \"#utility.yul\":14974:15027   */\n      tag_416\n      jump\t// in\n    tag_607:\n        /* \"#utility.yul\":14964:15027   */\n      swap3\n      pop\n        /* \"#utility.yul\":14920:15037   */\n      pop\n        /* \"#utility.yul\":15104:15106   */\n      0x20\n        /* \"#utility.yul\":15093:15102   */\n      dup4\n        /* \"#utility.yul\":15089:15107   */\n      add\n        /* \"#utility.yul\":15076:15108   */\n      calldataload\n        /* \"#utility.yul\":15135:15153   */\n      0xffffffffffffffff\n        /* \"#utility.yul\":15127:15133   */\n      dup2\n        /* \"#utility.yul\":15124:15154   */\n      gt\n        /* \"#utility.yul\":15121:15238   */\n      iszero\n      tag_608\n      jumpi\n        /* \"#utility.yul\":15157:15236   */\n      tag_609\n      tag_398\n      jump\t// in\n    tag_609:\n        /* \"#utility.yul\":15121:15238   */\n    tag_608:\n        /* \"#utility.yul\":15262:15324   */\n      tag_610\n        /* \"#utility.yul\":15316:15323   */\n      dup6\n        /* \"#utility.yul\":15307:15313   */\n      dup3\n        /* \"#utility.yul\":15296:15305   */\n      dup7\n        /* \"#utility.yul\":15292:15314   */\n      add\n        /* \"#utility.yul\":15262:15324   */\n      tag_436\n      jump\t// in\n    tag_610:\n        /* \"#utility.yul\":15252:15324   */\n      swap2\n      pop\n        /* \"#utility.yul\":15047:15334   */\n      pop\n        /* \"#utility.yul\":14689:15341   */\n      swap3\n      pop\n      swap3\n      swap1\n      pop\n      jump\t// out\n        /* \"#utility.yul\":15347:15424   */\n    tag_437:\n        /* \"#utility.yul\":15384:15391   */\n      0x00\n        /* \"#utility.yul\":15413:15418   */\n      dup2\n        /* \"#utility.yul\":15402:15418   */\n      swap1\n      pop\n        /* \"#utility.yul\":15347:15424   */\n      swap2\n      swap1\n      pop\n      jump\t// out\n        /* \"#utility.yul\":15430:15548   */\n    tag_438:\n        /* \"#utility.yul\":15517:15541   */\n      tag_613\n        /* \"#utility.yul\":15535:15540   */\n      dup2\n        /* \"#utility.yul\":15517:15541   */\n      tag_437\n      jump\t// in\n    tag_613:\n        /* \"#utility.yul\":15512:15515   */\n      dup3\n        /* \"#utility.yul\":15505:15542   */\n      mstore\n        /* \"#utility.yul\":15430:15548   */\n      pop\n      pop\n      jump\t// out\n        /* \"#utility.yul\":15554:15776   */\n    tag_61:\n        /* \"#utility.yul\":15647:15651   */\n      0x00\n        /* \"#utility.yul\":15685:15687   */\n      0x20\n        /* \"#utility.yul\":15674:15683   */\n      dup3\n        /* \"#utility.yul\":15670:15688   */\n      add\n        /* \"#utility.yul\":15662:15688   */\n      swap1\n      pop\n        /* \"#utility.yul\":15698:15769   */\n      tag_615\n        /* \"#utility.yul\":15766:15767   */\n      0x00\n        /* \"#utility.yul\":15755:15764   */\n      dup4\n        /* \"#utility.yul\":15751:15768   */\n      add\n        /* \"#utility.yul\":15742:15748   */\n      dup5\n        /* \"#utility.yul\":15698:15769   */\n      tag_438\n      jump\t// in\n    tag_615:\n        /* \"#utility.yul\":15554:15776   */\n      swap3\n      swap2\n      pop\n      pop\n      jump\t// out\n        /* \"#utility.yul\":15782:16093   */\n    tag_439:\n        /* \"#utility.yul\":15859:15863   */\n      0x00\n        /* \"#utility.yul\":15949:15967   */\n      0xffffffffffffffff\n        /* \"#utility.yul\":15941:15947   */\n      dup3\n        /* \"#utility.yul\":15938:15968   */\n      gt\n        /* \"#utility.yul\":15935:15991   */\n      iszero\n      tag_617\n      jumpi\n        /* \"#utility.yul\":15971:15989   */\n      tag_618\n      tag_430\n      jump\t// in\n    tag_618:\n        /* \"#utility.yul\":15935:15991   */\n    tag_617:\n        /* \"#utility.yul\":16021:16025   */\n      0x20\n        /* \"#utility.yul\":16013:16019   */\n      dup3\n        /* \"#utility.yul\":16009:16026   */\n      mul\n        /* \"#utility.yul\":16001:16026   */\n      swap1\n      pop\n        /* \"#utility.yul\":16081:16085   */\n      0x20\n        /* \"#utility.yul\":16075:16079   */\n      dup2\n        /* \"#utility.yul\":16071:16086   */\n      add\n        /* \"#utility.yul\":16063:16086   */\n      swap1\n      pop\n        /* \"#utility.yul\":15782:16093   */\n      swap2\n      swap1\n      pop\n      jump\t// out\n        /* \"#utility.yul\":16099:16216   */\n    tag_440:\n        /* \"#utility.yul\":16208:16209   */\n      0x00\n        /* \"#utility.yul\":16205:16206   */\n      dup1\n        /* \"#utility.yul\":16198:16210   */\n      revert\n        /* \"#utility.yul\":16239:16949   */\n    tag_441:\n        /* \"#utility.yul\":16335:16340   */\n      0x00\n        /* \"#utility.yul\":16360:16441   */\n      tag_621\n        /* \"#utility.yul\":16376:16440   */\n      tag_622\n        /* \"#utility.yul\":16433:16439   */\n      dup5\n        /* \"#utility.yul\":16376:16440   */\n      tag_439\n      jump\t// in\n    tag_622:\n        /* \"#utility.yul\":16360:16441   */\n      tag_432\n      jump\t// in\n    tag_621:\n        /* \"#utility.yul\":16351:16441   */\n      swap1\n      pop\n        /* \"#utility.yul\":16461:16466   */\n      dup1\n        /* \"#utility.yul\":16490:16496   */\n      dup4\n        /* \"#utility.yul\":16483:16488   */\n      dup3\n        /* \"#utility.yul\":16476:16497   */\n      mstore\n        /* \"#utility.yul\":16524:16528   */\n      0x20\n        /* \"#utility.yul\":16517:16522   */\n      dup3\n        /* \"#utility.yul\":16513:16529   */\n      add\n        /* \"#utility.yul\":16506:16529   */\n      swap1\n      pop\n        /* \"#utility.yul\":16577:16581   */\n      0x20\n        /* \"#utility.yul\":16569:16575   */\n      dup5\n        /* \"#utility.yul\":16565:16582   */\n      mul\n        /* \"#utility.yul\":16557:16563   */\n      dup4\n        /* \"#utility.yul\":16553:16583   */\n      add\n        /* \"#utility.yul\":16606:16609   */\n      dup6\n        /* \"#utility.yul\":16598:16604   */\n      dup2\n        /* \"#utility.yul\":16595:16610   */\n      gt\n        /* \"#utility.yul\":16592:16714   */\n      iszero\n      tag_623\n      jumpi\n        /* \"#utility.yul\":16625:16704   */\n      tag_624\n      tag_440\n      jump\t// in\n    tag_624:\n        /* \"#utility.yul\":16592:16714   */\n    tag_623:\n        /* \"#utility.yul\":16740:16746   */\n      dup4\n        /* \"#utility.yul\":16723:16943   */\n    tag_625:\n        /* \"#utility.yul\":16757:16763   */\n      dup2\n        /* \"#utility.yul\":16752:16755   */\n      dup2\n        /* \"#utility.yul\":16749:16764   */\n      lt\n        /* \"#utility.yul\":16723:16943   */\n      iszero\n      tag_627\n      jumpi\n        /* \"#utility.yul\":16832:16835   */\n      dup1\n        /* \"#utility.yul\":16861:16898   */\n      tag_628\n        /* \"#utility.yul\":16894:16897   */\n      dup9\n        /* \"#utility.yul\":16882:16892   */\n      dup3\n        /* \"#utility.yul\":16861:16898   */\n      tag_416\n      jump\t// in\n    tag_628:\n        /* \"#utility.yul\":16856:16859   */\n      dup5\n        /* \"#utility.yul\":16849:16899   */\n      mstore\n        /* \"#utility.yul\":16928:16932   */\n      0x20\n        /* \"#utility.yul\":16923:16926   */\n      dup5\n        /* \"#utility.yul\":16919:16933   */\n      add\n        /* \"#utility.yul\":16912:16933   */\n      swap4\n      pop\n        /* \"#utility.yul\":16799:16943   */\n      pop\n        /* \"#utility.yul\":16783:16787   */\n      0x20\n        /* \"#utility.yul\":16778:16781   */\n      dup2\n        /* \"#utility.yul\":16774:16788   */\n      add\n        /* \"#utility.yul\":16767:16788   */\n      swap1\n      pop\n        /* \"#utility.yul\":16723:16943   */\n      jump(tag_625)\n    tag_627:\n        /* \"#utility.yul\":16727:16748   */\n      pop\n        /* \"#utility.yul\":16341:16949   */\n      pop\n      pop\n        /* \"#utility.yul\":16239:16949   */\n      swap4\n      swap3\n      pop\n      pop\n      pop\n      jump\t// out\n        /* \"#utility.yul\":16972:17342   */\n    tag_442:\n        /* \"#utility.yul\":17043:17048   */\n      0x00\n        /* \"#utility.yul\":17092:17095   */\n      dup3\n        /* \"#utility.yul\":17085:17089   */\n      0x1f\n        /* \"#utility.yul\":17077:17083   */\n      dup4\n        /* \"#utility.yul\":17073:17090   */\n      add\n        /* \"#utility.yul\":17069:17096   */\n      slt\n        /* \"#utility.yul\":17059:17181   */\n      tag_630\n      jumpi\n        /* \"#utility.yul\":17100:17179   */\n      tag_631\n      tag_427\n      jump\t// in\n    tag_631:\n        /* \"#utility.yul\":17059:17181   */\n    tag_630:\n        /* \"#utility.yul\":17217:17223   */\n      dup2\n        /* \"#utility.yul\":17204:17224   */\n      calldataload\n        /* \"#utility.yul\":17242:17336   */\n      tag_632\n        /* \"#utility.yul\":17332:17335   */\n      dup5\n        /* \"#utility.yul\":17324:17330   */\n      dup3\n        /* \"#utility.yul\":17317:17321   */\n      0x20\n        /* \"#utility.yul\":17309:17315   */\n      dup7\n        /* \"#utility.yul\":17305:17322   */\n      add\n        /* \"#utility.yul\":17242:17336   */\n      tag_441\n      jump\t// in\n    tag_632:\n        /* \"#utility.yul\":17233:17336   */\n      swap2\n      pop\n        /* \"#utility.yul\":17049:17342   */\n      pop\n        /* \"#utility.yul\":16972:17342   */\n      swap3\n      swap2\n      pop\n      pop\n      jump\t// out\n        /* \"#utility.yul\":17348:17887   */\n    tag_65:\n        /* \"#utility.yul\":17432:17438   */\n      0x00\n        /* \"#utility.yul\":17481:17483   */\n      0x20\n        /* \"#utility.yul\":17469:17478   */\n      dup3\n        /* \"#utility.yul\":17460:17467   */\n      dup5\n        /* \"#utility.yul\":17456:17479   */\n      sub\n        /* \"#utility.yul\":17452:17484   */\n      slt\n        /* \"#utility.yul\":17449:17568   */\n      iszero\n      tag_634\n      jumpi\n        /* \"#utility.yul\":17487:17566   */\n      tag_635\n      tag_397\n      jump\t// in\n    tag_635:\n        /* \"#utility.yul\":17449:17568   */\n    tag_634:\n        /* \"#utility.yul\":17635:17636   */\n      0x00\n        /* \"#utility.yul\":17624:17633   */\n      dup3\n        /* \"#utility.yul\":17620:17637   */\n      add\n        /* \"#utility.yul\":17607:17638   */\n      calldataload\n        /* \"#utility.yul\":17665:17683   */\n      0xffffffffffffffff\n        /* \"#utility.yul\":17657:17663   */\n      dup2\n        /* \"#utility.yul\":17654:17684   */\n      gt\n        /* \"#utility.yul\":17651:17768   */\n      iszero\n      tag_636\n      jumpi\n        /* \"#utility.yul\":17687:17766   */\n      tag_637\n      tag_398\n      jump\t// in\n    tag_637:\n        /* \"#utility.yul\":17651:17768   */\n    tag_636:\n        /* \"#utility.yul\":17792:17870   */\n      tag_638\n        /* \"#utility.yul\":17862:17869   */\n      dup5\n        /* \"#utility.yul\":17853:17859   */\n      dup3\n        /* \"#utility.yul\":17842:17851   */\n      dup6\n        /* \"#utility.yul\":17838:17860   */\n      add\n        /* \"#utility.yul\":17792:17870   */\n      tag_442\n      jump\t// in\n    tag_638:\n        /* \"#utility.yul\":17782:17870   */\n      swap2\n      pop\n        /* \"#utility.yul\":17578:17880   */\n      pop\n        /* \"#utility.yul\":17348:17887   */\n      swap3\n      swap2\n      pop\n      pop\n      jump\t// out\n        /* \"#utility.yul\":17893:18222   */\n    tag_76:\n        /* \"#utility.yul\":17952:17958   */\n      0x00\n        /* \"#utility.yul\":18001:18003   */\n      0x20\n        /* \"#utility.yul\":17989:17998   */\n      dup3\n        /* \"#utility.yul\":17980:17987   */\n      dup5\n        /* \"#utility.yul\":17976:17999   */\n      sub\n        /* \"#utility.yul\":17972:18004   */\n      slt\n        /* \"#utility.yul\":17969:18088   */\n      iszero\n      tag_640\n      jumpi\n        /* \"#utility.yul\":18007:18086   */\n      tag_641\n      tag_397\n      jump\t// in\n    tag_641:\n        /* \"#utility.yul\":17969:18088   */\n    tag_640:\n        /* \"#utility.yul\":18127:18128   */\n      0x00\n        /* \"#utility.yul\":18152:18205   */\n      tag_642\n        /* \"#utility.yul\":18197:18204   */\n      dup5\n        /* \"#utility.yul\":18188:18194   */\n      dup3\n        /* \"#utility.yul\":18177:18186   */\n      dup6\n        /* \"#utility.yul\":18173:18195   */\n      add\n        /* \"#utility.yul\":18152:18205   */\n      tag_416\n      jump\t// in\n    tag_642:\n        /* \"#utility.yul\":18142:18205   */\n      swap2\n      pop\n        /* \"#utility.yul\":18098:18215   */\n      pop\n        /* \"#utility.yul\":17893:18222   */\n      swap3\n      swap2\n      pop\n      pop\n      jump\t// out\n        /* \"#utility.yul\":18228:18346   */\n    tag_443:\n        /* \"#utility.yul\":18315:18339   */\n      tag_644\n        /* \"#utility.yul\":18333:18338   */\n      dup2\n        /* \"#utility.yul\":18315:18339   */\n      tag_403\n      jump\t// in\n    tag_644:\n        /* \"#utility.yul\":18310:18313   */\n      dup3\n        /* \"#utility.yul\":18303:18340   */\n      mstore\n        /* \"#utility.yul\":18228:18346   */\n      pop\n      pop\n      jump\t// out\n        /* \"#utility.yul\":18352:18574   */\n    tag_82:\n        /* \"#utility.yul\":18445:18449   */\n      0x00\n        /* \"#utility.yul\":18483:18485   */\n      0x20\n        /* \"#utility.yul\":18472:18481   */\n      dup3\n        /* \"#utility.yul\":18468:18486   */\n      add\n        /* \"#utility.yul\":18460:18486   */\n      swap1\n      pop\n        /* \"#utility.yul\":18496:18567   */\n      tag_646\n        /* \"#utility.yul\":18564:18565   */\n      0x00\n        /* \"#utility.yul\":18553:18562   */\n      dup4\n        /* \"#utility.yul\":18549:18566   */\n      add\n        /* \"#utility.yul\":18540:18546   */\n      dup5\n        /* \"#utility.yul\":18496:18567   */\n      tag_443\n      jump\t// in\n    tag_646:\n        /* \"#utility.yul\":18352:18574   */\n      swap3\n      swap2\n      pop\n      pop\n      jump\t// out\n        /* \"#utility.yul\":18580:18679   */\n    tag_444:\n        /* \"#utility.yul\":18632:18638   */\n      0x00\n        /* \"#utility.yul\":18666:18671   */\n      dup2\n        /* \"#utility.yul\":18660:18672   */\n      mload\n        /* \"#utility.yul\":18650:18672   */\n      swap1\n      pop\n        /* \"#utility.yul\":18580:18679   */\n      swap2\n      swap1\n      pop\n      jump\t// out\n        /* \"#utility.yul\":18685:18854   */\n    tag_445:\n        /* \"#utility.yul\":18769:18780   */\n      0x00\n        /* \"#utility.yul\":18803:18809   */\n      dup3\n        /* \"#utility.yul\":18798:18801   */\n      dup3\n        /* \"#utility.yul\":18791:18810   */\n      mstore\n        /* \"#utility.yul\":18843:18847   */\n      0x20\n        /* \"#utility.yul\":18838:18841   */\n      dup3\n        /* \"#utility.yul\":18834:18848   */\n      add\n        /* \"#utility.yul\":18819:18848   */\n      swap1\n      pop\n        /* \"#utility.yul\":18685:18854   */\n      swap3\n      swap2\n      pop\n      pop\n      jump\t// out\n        /* \"#utility.yul\":18860:18999   */\n    tag_446:\n        /* \"#utility.yul\":18949:18955   */\n      dup3\n        /* \"#utility.yul\":18944:18947   */\n      dup2\n        /* \"#utility.yul\":18939:18942   */\n      dup4\n        /* \"#utility.yul\":18933:18956   */\n      mcopy\n        /* \"#utility.yul\":18990:18991   */\n      0x00\n        /* \"#utility.yul\":18981:18987   */\n      dup4\n        /* \"#utility.yul\":18976:18979   */\n      dup4\n        /* \"#utility.yul\":18972:18988   */\n      add\n        /* \"#utility.yul\":18965:18992   */\n      mstore\n        /* \"#utility.yul\":18860:18999   */\n      pop\n      pop\n      pop\n      jump\t// out\n        /* \"#utility.yul\":19005:19382   */\n    tag_447:\n        /* \"#utility.yul\":19093:19096   */\n      0x00\n        /* \"#utility.yul\":19121:19160   */\n      tag_651\n        /* \"#utility.yul\":19154:19159   */\n      dup3\n        /* \"#utility.yul\":19121:19160   */\n      tag_444\n      jump\t// in\n    tag_651:\n        /* \"#utility.yul\":19176:19247   */\n      tag_652\n        /* \"#utility.yul\":19240:19246   */\n      dup2\n        /* \"#utility.yul\":19235:19238   */\n      dup6\n        /* \"#utility.yul\":19176:19247   */\n      tag_445\n      jump\t// in\n    tag_652:\n        /* \"#utility.yul\":19169:19247   */\n      swap4\n      pop\n        /* \"#utility.yul\":19256:19321   */\n      tag_653\n        /* \"#utility.yul\":19314:19320   */\n      dup2\n        /* \"#utility.yul\":19309:19312   */\n      dup6\n        /* \"#utility.yul\":19302:19306   */\n      0x20\n        /* \"#utility.yul\":19295:19300   */\n      dup7\n        /* \"#utility.yul\":19291:19307   */\n      add\n        /* \"#utility.yul\":19256:19321   */\n      tag_446\n      jump\t// in\n    tag_653:\n        /* \"#utility.yul\":19346:19375   */\n      tag_654\n        /* \"#utility.yul\":19368:19374   */\n      dup2\n        /* \"#utility.yul\":19346:19375   */\n      tag_429\n      jump\t// in\n    tag_654:\n        /* \"#utility.yul\":19341:19344   */\n      dup5\n        /* \"#utility.yul\":19337:19376   */\n      add\n        /* \"#utility.yul\":19330:19376   */\n      swap2\n      pop\n        /* \"#utility.yul\":19097:19382   */\n      pop\n        /* \"#utility.yul\":19005:19382   */\n      swap3\n      swap2\n      pop\n      pop\n      jump\t// out\n        /* \"#utility.yul\":19388:19701   */\n    tag_91:\n        /* \"#utility.yul\":19501:19505   */\n      0x00\n        /* \"#utility.yul\":19539:19541   */\n      0x20\n        /* \"#utility.yul\":19528:19537   */\n      dup3\n        /* \"#utility.yul\":19524:19542   */\n      add\n        /* \"#utility.yul\":19516:19542   */\n      swap1\n      pop\n        /* \"#utility.yul\":19588:19597   */\n      dup2\n        /* \"#utility.yul\":19582:19586   */\n      dup2\n        /* \"#utility.yul\":19578:19598   */\n      sub\n        /* \"#utility.yul\":19574:19575   */\n      0x00\n        /* \"#utility.yul\":19563:19572   */\n      dup4\n        /* \"#utility.yul\":19559:19576   */\n      add\n        /* \"#utility.yul\":19552:19599   */\n      mstore\n        /* \"#utility.yul\":19616:19694   */\n      tag_656\n        /* \"#utility.yul\":19689:19693   */\n      dup2\n        /* \"#utility.yul\":19680:19686   */\n      dup5\n        /* \"#utility.yul\":19616:19694   */\n      tag_447\n      jump\t// in\n    tag_656:\n        /* \"#utility.yul\":19608:19694   */\n      swap1\n      pop\n        /* \"#utility.yul\":19388:19701   */\n      swap3\n      swap2\n      pop\n      pop\n      jump\t// out\n        /* \"#utility.yul\":19707:19887   */\n    tag_120:\n        /* \"#utility.yul\":19755:19832   */\n      0x4e487b7100000000000000000000000000000000000000000000000000000000\n        /* \"#utility.yul\":19752:19753   */\n      0x00\n        /* \"#utility.yul\":19745:19833   */\n      mstore\n        /* \"#utility.yul\":19852:19856   */\n      0x32\n        /* \"#utility.yul\":19849:19850   */\n      0x04\n        /* \"#utility.yul\":19842:19857   */\n      mstore\n        /* \"#utility.yul\":19876:19880   */\n      0x24\n        /* \"#utility.yul\":19873:19874   */\n      0x00\n        /* \"#utility.yul\":19866:19881   */\n      revert\n        /* \"#utility.yul\":19893:20116   */\n    tag_448:\n        /* \"#utility.yul\":20033:20067   */\n      0x496e73756666696369656e742062616c616e636520696e2074686520636f6e74\n        /* \"#utility.yul\":20029:20030   */\n      0x00\n        /* \"#utility.yul\":20021:20027   */\n      dup3\n        /* \"#utility.yul\":20017:20031   */\n      add\n        /* \"#utility.yul\":20010:20068   */\n      mstore\n        /* \"#utility.yul\":20102:20108   */\n      0x7261637400000000000000000000000000000000000000000000000000000000\n        /* \"#utility.yul\":20097:20099   */\n      0x20\n        /* \"#utility.yul\":20089:20095   */\n      dup3\n        /* \"#utility.yul\":20085:20100   */\n      add\n        /* \"#utility.yul\":20078:20109   */\n      mstore\n        /* \"#utility.yul\":19893:20116   */\n      pop\n      jump\t// out\n        /* \"#utility.yul\":20122:20488   */\n    tag_449:\n        /* \"#utility.yul\":20264:20267   */\n      0x00\n        /* \"#utility.yul\":20285:20352   */\n      tag_660\n        /* \"#utility.yul\":20349:20351   */\n      0x24\n        /* \"#utility.yul\":20344:20347   */\n      dup4\n        /* \"#utility.yul\":20285:20352   */\n      tag_445\n      jump\t// in\n    tag_660:\n        /* \"#utility.yul\":20278:20352   */\n      swap2\n      pop\n        /* \"#utility.yul\":20361:20454   */\n      tag_661\n        /* \"#utility.yul\":20450:20453   */\n      dup3\n        /* \"#utility.yul\":20361:20454   */\n      tag_448\n      jump\t// in\n    tag_661:\n        /* \"#utility.yul\":20479:20481   */\n      0x40\n        /* \"#utility.yul\":20474:20477   */\n      dup3\n        /* \"#utility.yul\":20470:20482   */\n      add\n        /* \"#utility.yul\":20463:20482   */\n      swap1\n      pop\n        /* \"#utility.yul\":20122:20488   */\n      swap2\n      swap1\n      pop\n      jump\t// out\n        /* \"#utility.yul\":20494:20913   */\n    tag_129:\n        /* \"#utility.yul\":20660:20664   */\n      0x00\n        /* \"#utility.yul\":20698:20700   */\n      0x20\n        /* \"#utility.yul\":20687:20696   */\n      dup3\n        /* \"#utility.yul\":20683:20701   */\n      add\n        /* \"#utility.yul\":20675:20701   */\n      swap1\n      pop\n        /* \"#utility.yul\":20747:20756   */\n      dup2\n        /* \"#utility.yul\":20741:20745   */\n      dup2\n        /* \"#utility.yul\":20737:20757   */\n      sub\n        /* \"#utility.yul\":20733:20734   */\n      0x00\n        /* \"#utility.yul\":20722:20731   */\n      dup4\n        /* \"#utility.yul\":20718:20735   */\n      add\n        /* \"#utility.yul\":20711:20758   */\n      mstore\n        /* \"#utility.yul\":20775:20906   */\n      tag_663\n        /* \"#utility.yul\":20901:20905   */\n      dup2\n        /* \"#utility.yul\":20775:20906   */\n      tag_449\n      jump\t// in\n    tag_663:\n        /* \"#utility.yul\":20767:20906   */\n      swap1\n      pop\n        /* \"#utility.yul\":20494:20913   */\n      swap2\n      swap1\n      pop\n      jump\t// out\n        /* \"#utility.yul\":20919:21095   */\n    tag_450:\n        /* \"#utility.yul\":21059:21087   */\n      0x506c656173652073657420612068696768657220616d6f756e74000000000000\n        /* \"#utility.yul\":21055:21056   */\n      0x00\n        /* \"#utility.yul\":21047:21053   */\n      dup3\n        /* \"#utility.yul\":21043:21057   */\n      add\n        /* \"#utility.yul\":21036:21088   */\n      mstore\n        /* \"#utility.yul\":20919:21095   */\n      pop\n      jump\t// out\n        /* \"#utility.yul\":21101:21467   */\n    tag_451:\n        /* \"#utility.yul\":21243:21246   */\n      0x00\n        /* \"#utility.yul\":21264:21331   */\n      tag_666\n        /* \"#utility.yul\":21328:21330   */\n      0x1a\n        /* \"#utility.yul\":21323:21326   */\n      dup4\n        /* \"#utility.yul\":21264:21331   */\n      tag_445\n      jump\t// in\n    tag_666:\n        /* \"#utility.yul\":21257:21331   */\n      swap2\n      pop\n        /* \"#utility.yul\":21340:21433   */\n      tag_667\n        /* \"#utility.yul\":21429:21432   */\n      dup3\n        /* \"#utility.yul\":21340:21433   */\n      tag_450\n      jump\t// in\n    tag_667:\n        /* \"#utility.yul\":21458:21460   */\n      0x20\n        /* \"#utility.yul\":21453:21456   */\n      dup3\n        /* \"#utility.yul\":21449:21461   */\n      add\n        /* \"#utility.yul\":21442:21461   */\n      swap1\n      pop\n        /* \"#utility.yul\":21101:21467   */\n      swap2\n      swap1\n      pop\n      jump\t// out\n        /* \"#utility.yul\":21473:21892   */\n    tag_132:\n        /* \"#utility.yul\":21639:21643   */\n      0x00\n        /* \"#utility.yul\":21677:21679   */\n      0x20\n        /* \"#utility.yul\":21666:21675   */\n      dup3\n        /* \"#utility.yul\":21662:21680   */\n      add\n        /* \"#utility.yul\":21654:21680   */\n      swap1\n      pop\n        /* \"#utility.yul\":21726:21735   */\n      dup2\n        /* \"#utility.yul\":21720:21724   */\n      dup2\n        /* \"#utility.yul\":21716:21736   */\n      sub\n        /* \"#utility.yul\":21712:21713   */\n      0x00\n        /* \"#utility.yul\":21701:21710   */\n      dup4\n        /* \"#utility.yul\":21697:21714   */\n      add\n        /* \"#utility.yul\":21690:21737   */\n      mstore\n        /* \"#utility.yul\":21754:21885   */\n      tag_669\n        /* \"#utility.yul\":21880:21884   */\n      dup2\n        /* \"#utility.yul\":21754:21885   */\n      tag_451\n      jump\t// in\n    tag_669:\n        /* \"#utility.yul\":21746:21885   */\n      swap1\n      pop\n        /* \"#utility.yul\":21473:21892   */\n      swap2\n      swap1\n      pop\n      jump\t// out\n        /* \"#utility.yul\":21898:22340   */\n    tag_135:\n        /* \"#utility.yul\":22047:22051   */\n      0x00\n        /* \"#utility.yul\":22085:22087   */\n      0x60\n        /* \"#utility.yul\":22074:22083   */\n      dup3\n        /* \"#utility.yul\":22070:22088   */\n      add\n        /* \"#utility.yul\":22062:22088   */\n      swap1\n      pop\n        /* \"#utility.yul\":22098:22169   */\n      tag_671\n        /* \"#utility.yul\":22166:22167   */\n      0x00\n        /* \"#utility.yul\":22155:22164   */\n      dup4\n        /* \"#utility.yul\":22151:22168   */\n      add\n        /* \"#utility.yul\":22142:22148   */\n      dup7\n        /* \"#utility.yul\":22098:22169   */\n      tag_417\n      jump\t// in\n    tag_671:\n        /* \"#utility.yul\":22179:22251   */\n      tag_672\n        /* \"#utility.yul\":22247:22249   */\n      0x20\n        /* \"#utility.yul\":22236:22245   */\n      dup4\n        /* \"#utility.yul\":22232:22250   */\n      add\n        /* \"#utility.yul\":22223:22229   */\n      dup6\n        /* \"#utility.yul\":22179:22251   */\n      tag_443\n      jump\t// in\n    tag_672:\n        /* \"#utility.yul\":22261:22333   */\n      tag_673\n        /* \"#utility.yul\":22329:22331   */\n      0x40\n        /* \"#utility.yul\":22318:22327   */\n      dup4\n        /* \"#utility.yul\":22314:22332   */\n      add\n        /* \"#utility.yul\":22305:22311   */\n      dup5\n        /* \"#utility.yul\":22261:22333   */\n      tag_417\n      jump\t// in\n    tag_673:\n        /* \"#utility.yul\":21898:22340   */\n      swap5\n      swap4\n      pop\n      pop\n      pop\n      pop\n      jump\t// out\n        /* \"#utility.yul\":22346:22580   */\n    tag_452:\n        /* \"#utility.yul\":22486:22520   */\n      0x546869732066756e6374696f6e2063616e206f6e6c792062652063616c6c6564\n        /* \"#utility.yul\":22482:22483   */\n      0x00\n        /* \"#utility.yul\":22474:22480   */\n      dup3\n        /* \"#utility.yul\":22470:22484   */\n      add\n        /* \"#utility.yul\":22463:22521   */\n      mstore\n        /* \"#utility.yul\":22555:22572   */\n      0x20627920616e20417070726f7665720000000000000000000000000000000000\n        /* \"#utility.yul\":22550:22552   */\n      0x20\n        /* \"#utility.yul\":22542:22548   */\n      dup3\n        /* \"#utility.yul\":22538:22553   */\n      add\n        /* \"#utility.yul\":22531:22573   */\n      mstore\n        /* \"#utility.yul\":22346:22580   */\n      pop\n      jump\t// out\n        /* \"#utility.yul\":22586:22952   */\n    tag_453:\n        /* \"#utility.yul\":22728:22731   */\n      0x00\n        /* \"#utility.yul\":22749:22816   */\n      tag_676\n        /* \"#utility.yul\":22813:22815   */\n      0x2f\n        /* \"#utility.yul\":22808:22811   */\n      dup4\n        /* \"#utility.yul\":22749:22816   */\n      tag_445\n      jump\t// in\n    tag_676:\n        /* \"#utility.yul\":22742:22816   */\n      swap2\n      pop\n        /* \"#utility.yul\":22825:22918   */\n      tag_677\n        /* \"#utility.yul\":22914:22917   */\n      dup3\n        /* \"#utility.yul\":22825:22918   */\n      tag_452\n      jump\t// in\n    tag_677:\n        /* \"#utility.yul\":22943:22945   */\n      0x40\n        /* \"#utility.yul\":22938:22941   */\n      dup3\n        /* \"#utility.yul\":22934:22946   */\n      add\n        /* \"#utility.yul\":22927:22946   */\n      swap1\n      pop\n        /* \"#utility.yul\":22586:22952   */\n      swap2\n      swap1\n      pop\n      jump\t// out\n        /* \"#utility.yul\":22958:23377   */\n    tag_139:\n        /* \"#utility.yul\":23124:23128   */\n      0x00\n        /* \"#utility.yul\":23162:23164   */\n      0x20\n        /* \"#utility.yul\":23151:23160   */\n      dup3\n        /* \"#utility.yul\":23147:23165   */\n      add\n        /* \"#utility.yul\":23139:23165   */\n      swap1\n      pop\n        /* \"#utility.yul\":23211:23220   */\n      dup2\n        /* \"#utility.yul\":23205:23209   */\n      dup2\n        /* \"#utility.yul\":23201:23221   */\n      sub\n        /* \"#utility.yul\":23197:23198   */\n      0x00\n        /* \"#utility.yul\":23186:23195   */\n      dup4\n        /* \"#utility.yul\":23182:23199   */\n      add\n        /* \"#utility.yul\":23175:23222   */\n      mstore\n        /* \"#utility.yul\":23239:23370   */\n      tag_679\n        /* \"#utility.yul\":23365:23369   */\n      dup2\n        /* \"#utility.yul\":23239:23370   */\n      tag_453\n      jump\t// in\n    tag_679:\n        /* \"#utility.yul\":23231:23370   */\n      swap1\n      pop\n        /* \"#utility.yul\":22958:23377   */\n      swap2\n      swap1\n      pop\n      jump\t// out\n        /* \"#utility.yul\":23383:23605   */\n    tag_454:\n        /* \"#utility.yul\":23523:23557   */\n      0x546865205472616e73616374696f6e20697320616c7265616479206578656375\n        /* \"#utility.yul\":23519:23520   */\n      0x00\n        /* \"#utility.yul\":23511:23517   */\n      dup3\n        /* \"#utility.yul\":23507:23521   */\n      add\n        /* \"#utility.yul\":23500:23558   */\n      mstore\n        /* \"#utility.yul\":23592:23597   */\n      0x7465640000000000000000000000000000000000000000000000000000000000\n        /* \"#utility.yul\":23587:23589   */\n      0x20\n        /* \"#utility.yul\":23579:23585   */\n      dup3\n        /* \"#utility.yul\":23575:23590   */\n      add\n        /* \"#utility.yul\":23568:23598   */\n      mstore\n        /* \"#utility.yul\":23383:23605   */\n      pop\n      jump\t// out\n        /* \"#utility.yul\":23611:23977   */\n    tag_455:\n        /* \"#utility.yul\":23753:23756   */\n      0x00\n        /* \"#utility.yul\":23774:23841   */\n      tag_682\n        /* \"#utility.yul\":23838:23840   */\n      0x23\n        /* \"#utility.yul\":23833:23836   */\n      dup4\n        /* \"#utility.yul\":23774:23841   */\n      tag_445\n      jump\t// in\n    tag_682:\n        /* \"#utility.yul\":23767:23841   */\n      swap2\n      pop\n        /* \"#utility.yul\":23850:23943   */\n      tag_683\n        /* \"#utility.yul\":23939:23942   */\n      dup3\n        /* \"#utility.yul\":23850:23943   */\n      tag_454\n      jump\t// in\n    tag_683:\n        /* \"#utility.yul\":23968:23970   */\n      0x40\n        /* \"#utility.yul\":23963:23966   */\n      dup3\n        /* \"#utility.yul\":23959:23971   */\n      add\n        /* \"#utility.yul\":23952:23971   */\n      swap1\n      pop\n        /* \"#utility.yul\":23611:23977   */\n      swap2\n      swap1\n      pop\n      jump\t// out\n        /* \"#utility.yul\":23983:24402   */\n    tag_146:\n        /* \"#utility.yul\":24149:24153   */\n      0x00\n        /* \"#utility.yul\":24187:24189   */\n      0x20\n        /* \"#utility.yul\":24176:24185   */\n      dup3\n        /* \"#utility.yul\":24172:24190   */\n      add\n        /* \"#utility.yul\":24164:24190   */\n      swap1\n      pop\n        /* \"#utility.yul\":24236:24245   */\n      dup2\n        /* \"#utility.yul\":24230:24234   */\n      dup2\n        /* \"#utility.yul\":24226:24246   */\n      sub\n        /* \"#utility.yul\":24222:24223   */\n      0x00\n        /* \"#utility.yul\":24211:24220   */\n      dup4\n        /* \"#utility.yul\":24207:24224   */\n      add\n        /* \"#utility.yul\":24200:24247   */\n      mstore\n        /* \"#utility.yul\":24264:24395   */\n      tag_685\n        /* \"#utility.yul\":24390:24394   */\n      dup2\n        /* \"#utility.yul\":24264:24395   */\n      tag_455\n      jump\t// in\n    tag_685:\n        /* \"#utility.yul\":24256:24395   */\n      swap1\n      pop\n        /* \"#utility.yul\":23983:24402   */\n      swap2\n      swap1\n      pop\n      jump\t// out\n        /* \"#utility.yul\":24408:24588   */\n    tag_456:\n        /* \"#utility.yul\":24456:24533   */\n      0x4e487b7100000000000000000000000000000000000000000000000000000000\n        /* \"#utility.yul\":24453:24454   */\n      0x00\n        /* \"#utility.yul\":24446:24534   */\n      mstore\n        /* \"#utility.yul\":24553:24557   */\n      0x11\n        /* \"#utility.yul\":24550:24551   */\n      0x04\n        /* \"#utility.yul\":24543:24558   */\n      mstore\n        /* \"#utility.yul\":24577:24581   */\n      0x24\n        /* \"#utility.yul\":24574:24575   */\n      0x00\n        /* \"#utility.yul\":24567:24582   */\n      revert\n        /* \"#utility.yul\":24594:24827   */\n    tag_149:\n        /* \"#utility.yul\":24633:24636   */\n      0x00\n        /* \"#utility.yul\":24656:24680   */\n      tag_688\n        /* \"#utility.yul\":24674:24679   */\n      dup3\n        /* \"#utility.yul\":24656:24680   */\n      tag_399\n      jump\t// in\n    tag_688:\n        /* \"#utility.yul\":24647:24680   */\n      swap2\n      pop\n        /* \"#utility.yul\":24702:24768   */\n      0xffffffffffffffffffffffffffffffffffffffffffffffffffffffffffffffff\n        /* \"#utility.yul\":24695:24700   */\n      dup3\n        /* \"#utility.yul\":24692:24769   */\n      sub\n        /* \"#utility.yul\":24689:24792   */\n      tag_689\n      jumpi\n        /* \"#utility.yul\":24772:24790   */\n      tag_690\n      tag_456\n      jump\t// in\n    tag_690:\n        /* \"#utility.yul\":24689:24792   */\n    tag_689:\n        /* \"#utility.yul\":24819:24820   */\n      0x01\n        /* \"#utility.yul\":24812:24817   */\n      dup3\n        /* \"#utility.yul\":24808:24821   */\n      add\n        /* \"#utility.yul\":24801:24821   */\n      swap1\n      pop\n        /* \"#utility.yul\":24594:24827   */\n      swap2\n      swap1\n      pop\n      jump\t// out\n        /* \"#utility.yul\":24833:25013   */\n    tag_457:\n        /* \"#utility.yul\":24881:24958   */\n      0x4e487b7100000000000000000000000000000000000000000000000000000000\n        /* \"#utility.yul\":24878:24879   */\n      0x00\n        /* \"#utility.yul\":24871:24959   */\n      mstore\n        /* \"#utility.yul\":24978:24982   */\n      0x12\n        /* \"#utility.yul\":24975:24976   */\n      0x04\n        /* \"#utility.yul\":24968:24983   */\n      mstore\n        /* \"#utility.yul\":25002:25006   */\n      0x24\n        /* \"#utility.yul\":24999:25000   */\n      0x00\n        /* \"#utility.yul\":24992:25007   */\n      revert\n        /* \"#utility.yul\":25019:25204   */\n    tag_152:\n        /* \"#utility.yul\":25059:25060   */\n      0x00\n        /* \"#utility.yul\":25076:25096   */\n      tag_693\n        /* \"#utility.yul\":25094:25095   */\n      dup3\n        /* \"#utility.yul\":25076:25096   */\n      tag_399\n      jump\t// in\n    tag_693:\n        /* \"#utility.yul\":25071:25096   */\n      swap2\n      pop\n        /* \"#utility.yul\":25110:25130   */\n      tag_694\n        /* \"#utility.yul\":25128:25129   */\n      dup4\n        /* \"#utility.yul\":25110:25130   */\n      tag_399\n      jump\t// in\n    tag_694:\n        /* \"#utility.yul\":25105:25130   */\n      swap3\n      pop\n        /* \"#utility.yul\":25149:25150   */\n      dup3\n        /* \"#utility.yul\":25139:25174   */\n      tag_695\n      jumpi\n        /* \"#utility.yul\":25154:25172   */\n      tag_696\n      tag_457\n      jump\t// in\n    tag_696:\n        /* \"#utility.yul\":25139:25174   */\n    tag_695:\n        /* \"#utility.yul\":25196:25197   */\n      dup3\n        /* \"#utility.yul\":25193:25194   */\n      dup3\n        /* \"#utility.yul\":25189:25198   */\n      div\n        /* \"#utility.yul\":25184:25198   */\n      swap1\n      pop\n        /* \"#utility.yul\":25019:25204   */\n      swap3\n      swap2\n      pop\n      pop\n      jump\t// out\n        /* \"#utility.yul\":25210:25542   */\n    tag_163:\n        /* \"#utility.yul\":25331:25335   */\n      0x00\n        /* \"#utility.yul\":25369:25371   */\n      0x40\n        /* \"#utility.yul\":25358:25367   */\n      dup3\n        /* \"#utility.yul\":25354:25372   */\n      add\n        /* \"#utility.yul\":25346:25372   */\n      swap1\n      pop\n        /* \"#utility.yul\":25382:25453   */\n      tag_698\n        /* \"#utility.yul\":25450:25451   */\n      0x00\n        /* \"#utility.yul\":25439:25448   */\n      dup4\n        /* \"#utility.yul\":25435:25452   */\n      add\n        /* \"#utility.yul\":25426:25432   */\n      dup6\n        /* \"#utility.yul\":25382:25453   */\n      tag_417\n      jump\t// in\n    tag_698:\n        /* \"#utility.yul\":25463:25535   */\n      tag_699\n        /* \"#utility.yul\":25531:25533   */\n      0x20\n        /* \"#utility.yul\":25520:25529   */\n      dup4\n        /* \"#utility.yul\":25516:25534   */\n      add\n        /* \"#utility.yul\":25507:25513   */\n      dup5\n        /* \"#utility.yul\":25463:25535   */\n      tag_443\n      jump\t// in\n    tag_699:\n        /* \"#utility.yul\":25210:25542   */\n      swap4\n      swap3\n      pop\n      pop\n      pop\n      jump\t// out\n        /* \"#utility.yul\":25548:25633   */\n    tag_458:\n        /* \"#utility.yul\":25593:25600   */\n      0x00\n        /* \"#utility.yul\":25622:25627   */\n      dup2\n        /* \"#utility.yul\":25611:25627   */\n      swap1\n      pop\n        /* \"#utility.yul\":25548:25633   */\n      swap2\n      swap1\n      pop\n      jump\t// out\n        /* \"#utility.yul\":25639:25740   */\n    tag_459:\n        /* \"#utility.yul\":25675:25682   */\n      0x00\n        /* \"#utility.yul\":25715:25733   */\n      0xffffffffffffffff\n        /* \"#utility.yul\":25708:25713   */\n      dup3\n        /* \"#utility.yul\":25704:25734   */\n      and\n        /* \"#utility.yul\":25693:25734   */\n      swap1\n      pop\n        /* \"#utility.yul\":25639:25740   */\n      swap2\n      swap1\n      pop\n      jump\t// out\n        /* \"#utility.yul\":25746:25806   */\n    tag_460:\n        /* \"#utility.yul\":25774:25777   */\n      0x00\n        /* \"#utility.yul\":25795:25800   */\n      dup2\n        /* \"#utility.yul\":25788:25800   */\n      swap1\n      pop\n        /* \"#utility.yul\":25746:25806   */\n      swap2\n      swap1\n      pop\n      jump\t// out\n        /* \"#utility.yul\":25812:25968   */\n    tag_461:\n        /* \"#utility.yul\":25869:25878   */\n      0x00\n        /* \"#utility.yul\":25902:25962   */\n      tag_704\n        /* \"#utility.yul\":25919:25961   */\n      tag_705\n        /* \"#utility.yul\":25928:25960   */\n      tag_706\n        /* \"#utility.yul\":25954:25959   */\n      dup5\n        /* \"#utility.yul\":25928:25960   */\n      tag_458\n      jump\t// in\n    tag_706:\n        /* \"#utility.yul\":25919:25961   */\n      tag_460\n      jump\t// in\n    tag_705:\n        /* \"#utility.yul\":25902:25962   */\n      tag_459\n      jump\t// in\n    tag_704:\n        /* \"#utility.yul\":25889:25962   */\n      swap1\n      pop\n        /* \"#utility.yul\":25812:25968   */\n      swap2\n      swap1\n      pop\n      jump\t// out\n        /* \"#utility.yul\":25974:26119   */\n    tag_462:\n        /* \"#utility.yul\":26068:26112   */\n      tag_708\n        /* \"#utility.yul\":26106:26111   */\n      dup2\n        /* \"#utility.yul\":26068:26112   */\n      tag_461\n      jump\t// in\n    tag_708:\n        /* \"#utility.yul\":26063:26066   */\n      dup3\n        /* \"#utility.yul\":26056:26113   */\n      mstore\n        /* \"#utility.yul\":25974:26119   */\n      pop\n      pop\n      jump\t// out\n        /* \"#utility.yul\":26125:26361   */\n    tag_225:\n        /* \"#utility.yul\":26225:26229   */\n      0x00\n        /* \"#utility.yul\":26263:26265   */\n      0x20\n        /* \"#utility.yul\":26252:26261   */\n      dup3\n        /* \"#utility.yul\":26248:26266   */\n      add\n        /* \"#utility.yul\":26240:26266   */\n      swap1\n      pop\n        /* \"#utility.yul\":26276:26354   */\n      tag_710\n        /* \"#utility.yul\":26351:26352   */\n      0x00\n        /* \"#utility.yul\":26340:26349   */\n      dup4\n        /* \"#utility.yul\":26336:26353   */\n      add\n        /* \"#utility.yul\":26327:26333   */\n      dup5\n        /* \"#utility.yul\":26276:26354   */\n      tag_462\n      jump\t// in\n    tag_710:\n        /* \"#utility.yul\":26125:26361   */\n      swap3\n      swap2\n      pop\n      pop\n      jump\t// out\n        /* \"#utility.yul\":26367:26541   */\n    tag_463:\n        /* \"#utility.yul\":26507:26533   */\n      0x596f752061726520616c726561647920617070726f7665640000000000000000\n        /* \"#utility.yul\":26503:26504   */\n      0x00\n        /* \"#utility.yul\":26495:26501   */\n      dup3\n        /* \"#utility.yul\":26491:26505   */\n      add\n        /* \"#utility.yul\":26484:26534   */\n      mstore\n        /* \"#utility.yul\":26367:26541   */\n      pop\n      jump\t// out\n        /* \"#utility.yul\":26547:26913   */\n    tag_464:\n        /* \"#utility.yul\":26689:26692   */\n      0x00\n        /* \"#utility.yul\":26710:26777   */\n      tag_713\n        /* \"#utility.yul\":26774:26776   */\n      0x18\n        /* \"#utility.yul\":26769:26772   */\n      dup4\n        /* \"#utility.yul\":26710:26777   */\n      tag_445\n      jump\t// in\n    tag_713:\n        /* \"#utility.yul\":26703:26777   */\n      swap2\n      pop\n        /* \"#utility.yul\":26786:26879   */\n      tag_714\n        /* \"#utility.yul\":26875:26878   */\n      dup3\n        /* \"#utility.yul\":26786:26879   */\n      tag_463\n      jump\t// in\n    tag_714:\n        /* \"#utility.yul\":26904:26906   */\n      0x20\n        /* \"#utility.yul\":26899:26902   */\n      dup3\n        /* \"#utility.yul\":26895:26907   */\n      add\n        /* \"#utility.yul\":26888:26907   */\n      swap1\n      pop\n        /* \"#utility.yul\":26547:26913   */\n      swap2\n      swap1\n      pop\n      jump\t// out\n        /* \"#utility.yul\":26919:27338   */\n    tag_231:\n        /* \"#utility.yul\":27085:27089   */\n      0x00\n        /* \"#utility.yul\":27123:27125   */\n      0x20\n        /* \"#utility.yul\":27112:27121   */\n      dup3\n        /* \"#utility.yul\":27108:27126   */\n      add\n        /* \"#utility.yul\":27100:27126   */\n      swap1\n      pop\n        /* \"#utility.yul\":27172:27181   */\n      dup2\n        /* \"#utility.yul\":27166:27170   */\n      dup2\n        /* \"#utility.yul\":27162:27182   */\n      sub\n        /* \"#utility.yul\":27158:27159   */\n      0x00\n        /* \"#utility.yul\":27147:27156   */\n      dup4\n        /* \"#utility.yul\":27143:27160   */\n      add\n        /* \"#utility.yul\":27136:27183   */\n      mstore\n        /* \"#utility.yul\":27200:27331   */\n      tag_716\n        /* \"#utility.yul\":27326:27330   */\n      dup2\n        /* \"#utility.yul\":27200:27331   */\n      tag_464\n      jump\t// in\n    tag_716:\n        /* \"#utility.yul\":27192:27331   */\n      swap1\n      pop\n        /* \"#utility.yul\":26919:27338   */\n      swap2\n      swap1\n      pop\n      jump\t// out\n        /* \"#utility.yul\":27344:27538   */\n    tag_240:\n        /* \"#utility.yul\":27384:27388   */\n      0x00\n        /* \"#utility.yul\":27404:27424   */\n      tag_718\n        /* \"#utility.yul\":27422:27423   */\n      dup3\n        /* \"#utility.yul\":27404:27424   */\n      tag_399\n      jump\t// in\n    tag_718:\n        /* \"#utility.yul\":27399:27424   */\n      swap2\n      pop\n        /* \"#utility.yul\":27438:27458   */\n      tag_719\n        /* \"#utility.yul\":27456:27457   */\n      dup4\n        /* \"#utility.yul\":27438:27458   */\n      tag_399\n      jump\t// in\n    tag_719:\n        /* \"#utility.yul\":27433:27458   */\n      swap3\n      pop\n        /* \"#utility.yul\":27482:27483   */\n      dup3\n        /* \"#utility.yul\":27479:27480   */\n      dup3\n        /* \"#utility.yul\":27475:27484   */\n      sub\n        /* \"#utility.yul\":27467:27484   */\n      swap1\n      pop\n        /* \"#utility.yul\":27506:27507   */\n      dup2\n        /* \"#utility.yul\":27500:27504   */\n      dup2\n        /* \"#utility.yul\":27497:27508   */\n      gt\n        /* \"#utility.yul\":27494:27531   */\n      iszero\n      tag_720\n      jumpi\n        /* \"#utility.yul\":27511:27529   */\n      tag_721\n      tag_456\n      jump\t// in\n    tag_721:\n        /* \"#utility.yul\":27494:27531   */\n    tag_720:\n        /* \"#utility.yul\":27344:27538   */\n      swap3\n      swap2\n      pop\n      pop\n      jump\t// out\n        /* \"#utility.yul\":27544:27724   */\n    tag_249:\n        /* \"#utility.yul\":27592:27669   */\n      0x4e487b7100000000000000000000000000000000000000000000000000000000\n        /* \"#utility.yul\":27589:27590   */\n      0x00\n        /* \"#utility.yul\":27582:27670   */\n      mstore\n        /* \"#utility.yul\":27689:27693   */\n      0x31\n        /* \"#utility.yul\":27686:27687   */\n      0x04\n        /* \"#utility.yul\":27679:27694   */\n      mstore\n        /* \"#utility.yul\":27713:27717   */\n      0x24\n        /* \"#utility.yul\":27710:27711   */\n      0x00\n        /* \"#utility.yul\":27703:27718   */\n      revert\n        /* \"#utility.yul\":27730:27907   */\n    tag_465:\n        /* \"#utility.yul\":27870:27899   */\n      0x596f752061726520616c726561647920616e20617070726f7665720000000000\n        /* \"#utility.yul\":27866:27867   */\n      0x00\n        /* \"#utility.yul\":27858:27864   */\n      dup3\n        /* \"#utility.yul\":27854:27868   */\n      add\n        /* \"#utility.yul\":27847:27900   */\n      mstore\n        /* \"#utility.yul\":27730:27907   */\n      pop\n      jump\t// out\n        /* \"#utility.yul\":27913:28279   */\n    tag_466:\n        /* \"#utility.yul\":28055:28058   */\n      0x00\n        /* \"#utility.yul\":28076:28143   */\n      tag_725\n        /* \"#utility.yul\":28140:28142   */\n      0x1b\n        /* \"#utility.yul\":28135:28138   */\n      dup4\n        /* \"#utility.yul\":28076:28143   */\n      tag_445\n      jump\t// in\n    tag_725:\n        /* \"#utility.yul\":28069:28143   */\n      swap2\n      pop\n        /* \"#utility.yul\":28152:28245   */\n      tag_726\n        /* \"#utility.yul\":28241:28244   */\n      dup3\n        /* \"#utility.yul\":28152:28245   */\n      tag_465\n      jump\t// in\n    tag_726:\n        /* \"#utility.yul\":28270:28272   */\n      0x20\n        /* \"#utility.yul\":28265:28268   */\n      dup3\n        /* \"#utility.yul\":28261:28273   */\n      add\n        /* \"#utility.yul\":28254:28273   */\n      swap1\n      pop\n        /* \"#utility.yul\":27913:28279   */\n      swap2\n      swap1\n      pop\n      jump\t// out\n        /* \"#utility.yul\":28285:28704   */\n    tag_274:\n        /* \"#utility.yul\":28451:28455   */\n      0x00\n        /* \"#utility.yul\":28489:28491   */\n      0x20\n        /* \"#utility.yul\":28478:28487   */\n      dup3\n        /* \"#utility.yul\":28474:28492   */\n      add\n        /* \"#utility.yul\":28466:28492   */\n      swap1\n      pop\n        /* \"#utility.yul\":28538:28547   */\n      dup2\n        /* \"#utility.yul\":28532:28536   */\n      dup2\n        /* \"#utility.yul\":28528:28548   */\n      sub\n        /* \"#utility.yul\":28524:28525   */\n      0x00\n        /* \"#utility.yul\":28513:28522   */\n      dup4\n        /* \"#utility.yul\":28509:28526   */\n      add\n        /* \"#utility.yul\":28502:28549   */\n      mstore\n        /* \"#utility.yul\":28566:28697   */\n      tag_728\n        /* \"#utility.yul\":28692:28696   */\n      dup2\n        /* \"#utility.yul\":28566:28697   */\n      tag_466\n      jump\t// in\n    tag_728:\n        /* \"#utility.yul\":28558:28697   */\n      swap1\n      pop\n        /* \"#utility.yul\":28285:28704   */\n      swap2\n      swap1\n      pop\n      jump\t// out\n        /* \"#utility.yul\":28710:28884   */\n    tag_467:\n        /* \"#utility.yul\":28850:28876   */\n      0x596f75204861766520616c7265616479206170706c6965640000000000000000\n        /* \"#utility.yul\":28846:28847   */\n      0x00\n        /* \"#utility.yul\":28838:28844   */\n      dup3\n        /* \"#utility.yul\":28834:28848   */\n      add\n        /* \"#utility.yul\":28827:28877   */\n      mstore\n        /* \"#utility.yul\":28710:28884   */\n      pop\n      jump\t// out\n        /* \"#utility.yul\":28890:29256   */\n    tag_468:\n        /* \"#utility.yul\":29032:29035   */\n      0x00\n        /* \"#utility.yul\":29053:29120   */\n      tag_731\n        /* \"#utility.yul\":29117:29119   */\n      0x18\n        /* \"#utility.yul\":29112:29115   */\n      dup4\n        /* \"#utility.yul\":29053:29120   */\n      tag_445\n      jump\t// in\n    tag_731:\n        /* \"#utility.yul\":29046:29120   */\n      swap2\n      pop\n        /* \"#utility.yul\":29129:29222   */\n      tag_732\n        /* \"#utility.yul\":29218:29221   */\n      dup3\n        /* \"#utility.yul\":29129:29222   */\n      tag_467\n      jump\t// in\n    tag_732:\n        /* \"#utility.yul\":29247:29249   */\n      0x20\n        /* \"#utility.yul\":29242:29245   */\n      dup3\n        /* \"#utility.yul\":29238:29250   */\n      add\n        /* \"#utility.yul\":29231:29250   */\n      swap1\n      pop\n        /* \"#utility.yul\":28890:29256   */\n      swap2\n      swap1\n      pop\n      jump\t// out\n        /* \"#utility.yul\":29262:29681   */\n    tag_277:\n        /* \"#utility.yul\":29428:29432   */\n      0x00\n        /* \"#utility.yul\":29466:29468   */\n      0x20\n        /* \"#utility.yul\":29455:29464   */\n      dup3\n        /* \"#utility.yul\":29451:29469   */\n      add\n        /* \"#utility.yul\":29443:29469   */\n      swap1\n      pop\n        /* \"#utility.yul\":29515:29524   */\n      dup2\n        /* \"#utility.yul\":29509:29513   */\n      dup2\n        /* \"#utility.yul\":29505:29525   */\n      sub\n        /* \"#utility.yul\":29501:29502   */\n      0x00\n        /* \"#utility.yul\":29490:29499   */\n      dup4\n        /* \"#utility.yul\":29486:29503   */\n      add\n        /* \"#utility.yul\":29479:29526   */\n      mstore\n        /* \"#utility.yul\":29543:29674   */\n      tag_734\n        /* \"#utility.yul\":29669:29673   */\n      dup2\n        /* \"#utility.yul\":29543:29674   */\n      tag_468\n      jump\t// in\n    tag_734:\n        /* \"#utility.yul\":29535:29674   */\n      swap1\n      pop\n        /* \"#utility.yul\":29262:29681   */\n      swap2\n      swap1\n      pop\n      jump\t// out\n        /* \"#utility.yul\":29687:29834   */\n    tag_469:\n        /* \"#utility.yul\":29788:29799   */\n      0x00\n        /* \"#utility.yul\":29825:29828   */\n      dup2\n        /* \"#utility.yul\":29810:29828   */\n      swap1\n      pop\n        /* \"#utility.yul\":29687:29834   */\n      swap3\n      swap2\n      pop\n      pop\n      jump\t// out\n        /* \"#utility.yul\":29840:29954   */\n    tag_470:\n      pop\n      jump\t// out\n        /* \"#utility.yul\":29960:30358   */\n    tag_471:\n        /* \"#utility.yul\":30119:30122   */\n      0x00\n        /* \"#utility.yul\":30140:30223   */\n      tag_738\n        /* \"#utility.yul\":30221:30222   */\n      0x00\n        /* \"#utility.yul\":30216:30219   */\n      dup4\n        /* \"#utility.yul\":30140:30223   */\n      tag_469\n      jump\t// in\n    tag_738:\n        /* \"#utility.yul\":30133:30223   */\n      swap2\n      pop\n        /* \"#utility.yul\":30232:30325   */\n      tag_739\n        /* \"#utility.yul\":30321:30324   */\n      dup3\n        /* \"#utility.yul\":30232:30325   */\n      tag_470\n      jump\t// in\n    tag_739:\n        /* \"#utility.yul\":30350:30351   */\n      0x00\n        /* \"#utility.yul\":30345:30348   */\n      dup3\n        /* \"#utility.yul\":30341:30352   */\n      add\n        /* \"#utility.yul\":30334:30352   */\n      swap1\n      pop\n        /* \"#utility.yul\":29960:30358   */\n      swap2\n      swap1\n      pop\n      jump\t// out\n        /* \"#utility.yul\":30364:30743   */\n    tag_296:\n        /* \"#utility.yul\":30548:30551   */\n      0x00\n        /* \"#utility.yul\":30570:30717   */\n      tag_741\n        /* \"#utility.yul\":30713:30716   */\n      dup3\n        /* \"#utility.yul\":30570:30717   */\n      tag_471\n      jump\t// in\n    tag_741:\n        /* \"#utility.yul\":30563:30717   */\n      swap2\n      pop\n        /* \"#utility.yul\":30734:30737   */\n      dup2\n        /* \"#utility.yul\":30727:30737   */\n      swap1\n      pop\n        /* \"#utility.yul\":30364:30743   */\n      swap2\n      swap1\n      pop\n      jump\t// out\n        /* \"#utility.yul\":30749:30871   */\n    tag_472:\n        /* \"#utility.yul\":30822:30846   */\n      tag_743\n        /* \"#utility.yul\":30840:30845   */\n      dup2\n        /* \"#utility.yul\":30822:30846   */\n      tag_437\n      jump\t// in\n    tag_743:\n        /* \"#utility.yul\":30815:30820   */\n      dup2\n        /* \"#utility.yul\":30812:30847   */\n      eq\n        /* \"#utility.yul\":30802:30865   */\n      tag_744\n      jumpi\n        /* \"#utility.yul\":30861:30862   */\n      0x00\n        /* \"#utility.yul\":30858:30859   */\n      dup1\n        /* \"#utility.yul\":30851:30863   */\n      revert\n        /* \"#utility.yul\":30802:30865   */\n    tag_744:\n        /* \"#utility.yul\":30749:30871   */\n      pop\n      jump\t// out\n        /* \"#utility.yul\":30877:31020   */\n    tag_473:\n        /* \"#utility.yul\":30934:30939   */\n      0x00\n        /* \"#utility.yul\":30965:30971   */\n      dup2\n        /* \"#utility.yul\":30959:30972   */\n      mload\n        /* \"#utility.yul\":30950:30972   */\n      swap1\n      pop\n        /* \"#utility.yul\":30981:31014   */\n      tag_746\n        /* \"#utility.yul\":31008:31013   */\n      dup2\n        /* \"#utility.yul\":30981:31014   */\n      tag_472\n      jump\t// in\n    tag_746:\n        /* \"#utility.yul\":30877:31020   */\n      swap3\n      swap2\n      pop\n      pop\n      jump\t// out\n        /* \"#utility.yul\":31026:31377   */\n    tag_312:\n        /* \"#utility.yul\":31096:31102   */\n      0x00\n        /* \"#utility.yul\":31145:31147   */\n      0x20\n        /* \"#utility.yul\":31133:31142   */\n      dup3\n        /* \"#utility.yul\":31124:31131   */\n      dup5\n        /* \"#utility.yul\":31120:31143   */\n      sub\n        /* \"#utility.yul\":31116:31148   */\n      slt\n        /* \"#utility.yul\":31113:31232   */\n      iszero\n      tag_748\n      jumpi\n        /* \"#utility.yul\":31151:31230   */\n      tag_749\n      tag_397\n      jump\t// in\n    tag_749:\n        /* \"#utility.yul\":31113:31232   */\n    tag_748:\n        /* \"#utility.yul\":31271:31272   */\n      0x00\n        /* \"#utility.yul\":31296:31360   */\n      tag_750\n        /* \"#utility.yul\":31352:31359   */\n      dup5\n        /* \"#utility.yul\":31343:31349   */\n      dup3\n        /* \"#utility.yul\":31332:31341   */\n      dup6\n        /* \"#utility.yul\":31328:31350   */\n      add\n        /* \"#utility.yul\":31296:31360   */\n      tag_473\n      jump\t// in\n    tag_750:\n        /* \"#utility.yul\":31286:31360   */\n      swap2\n      pop\n        /* \"#utility.yul\":31242:31370   */\n      pop\n        /* \"#utility.yul\":31026:31377   */\n      swap3\n      swap2\n      pop\n      pop\n      jump\t// out\n        /* \"#utility.yul\":31383:31481   */\n    tag_474:\n        /* \"#utility.yul\":31434:31440   */\n      0x00\n        /* \"#utility.yul\":31468:31473   */\n      dup2\n        /* \"#utility.yul\":31462:31474   */\n      mload\n        /* \"#utility.yul\":31452:31474   */\n      swap1\n      pop\n        /* \"#utility.yul\":31383:31481   */\n      swap2\n      swap1\n      pop\n      jump\t// out\n        /* \"#utility.yul\":31487:31873   */\n    tag_475:\n        /* \"#utility.yul\":31591:31594   */\n      0x00\n        /* \"#utility.yul\":31619:31657   */\n      tag_753\n        /* \"#utility.yul\":31651:31656   */\n      dup3\n        /* \"#utility.yul\":31619:31657   */\n      tag_474\n      jump\t// in\n    tag_753:\n        /* \"#utility.yul\":31673:31761   */\n      tag_754\n        /* \"#utility.yul\":31754:31760   */\n      dup2\n        /* \"#utility.yul\":31749:31752   */\n      dup6\n        /* \"#utility.yul\":31673:31761   */\n      tag_469\n      jump\t// in\n    tag_754:\n        /* \"#utility.yul\":31666:31761   */\n      swap4\n      pop\n        /* \"#utility.yul\":31770:31835   */\n      tag_755\n        /* \"#utility.yul\":31828:31834   */\n      dup2\n        /* \"#utility.yul\":31823:31826   */\n      dup6\n        /* \"#utility.yul\":31816:31820   */\n      0x20\n        /* \"#utility.yul\":31809:31814   */\n      dup7\n        /* \"#utility.yul\":31805:31821   */\n      add\n        /* \"#utility.yul\":31770:31835   */\n      tag_446\n      jump\t// in\n    tag_755:\n        /* \"#utility.yul\":31860:31866   */\n      dup1\n        /* \"#utility.yul\":31855:31858   */\n      dup5\n        /* \"#utility.yul\":31851:31867   */\n      add\n        /* \"#utility.yul\":31844:31867   */\n      swap2\n      pop\n        /* \"#utility.yul\":31595:31873   */\n      pop\n        /* \"#utility.yul\":31487:31873   */\n      swap3\n      swap2\n      pop\n      pop\n      jump\t// out\n        /* \"#utility.yul\":31879:32150   */\n    tag_375:\n        /* \"#utility.yul\":32009:32012   */\n      0x00\n        /* \"#utility.yul\":32031:32124   */\n      tag_757\n        /* \"#utility.yul\":32120:32123   */\n      dup3\n        /* \"#utility.yul\":32111:32117   */\n      dup5\n        /* \"#utility.yul\":32031:32124   */\n      tag_475\n      jump\t// in\n    tag_757:\n        /* \"#utility.yul\":32024:32124   */\n      swap2\n      pop\n        /* \"#utility.yul\":32141:32144   */\n      dup2\n        /* \"#utility.yul\":32134:32144   */\n      swap1\n      pop\n        /* \"#utility.yul\":31879:32150   */\n      swap3\n      swap2\n      pop\n      pop\n      jump\t// out\n\n    auxdata: 0xa2646970667358221220f8076d60ccf20222cc871e16d13d3b89e3570ff7bc125bf0ba37d1e2c3a5a2fa64736f6c634300081a0033\n}\n",
				"bytecode": {
					"linkReferences": {},
					"object": "60a06040523073ffffffffffffffffffffffffffffffffffffffff1660809073ffffffffffffffffffffffffffffffffffffffff168152503480156041575f80fd5b5060805161322f6100685f395f8181611a4201528181611a970152611c51015261322f5ff3fe60806040526004361061011e575f3560e01c8063838d4cd11161009f578063be2af9cb11610063578063be2af9cb1461037e578063c82830ea146103a8578063f2fde38b146103d0578063f8b2cb4f146103f8578063ff7d55ea146104345761011e565b8063838d4cd1146102b05780638da5cb5b146102d85780639911a14914610302578063ad3cb1cc1461032a578063b69ef8a8146103545761011e565b80634f1ef286116100e65780634f1ef2861461021657806352d1902d146102325780636a882d511461025c578063715018a6146102845780638129fc1c1461029a5761011e565b80630fa683d3146101225780631e7f8f0f1461015e578063242232d11461019a57806327506f53146101c257806335b0d745146101ec575b5f80fd5b34801561012d575f80fd5b5061014860048036038101906101439190612342565b61043e565b6040516101559190612531565b60405180910390f35b348015610169575f80fd5b50610184600480360381019061017f919061257b565b610625565b60405161019191906125c8565b60405180910390f35b3480156101a5575f80fd5b506101c060048036038101906101bb9190612342565b61079e565b005b3480156101cd575f80fd5b506101d6610a53565b6040516101e39190612750565b60405180910390f35b3480156101f7575f80fd5b50610200610c5c565b60405161020d91906127dc565b60405180910390f35b610230600480360381019061022b9190612938565b610ce7565b005b34801561023d575f80fd5b50610246610d06565b60405161025391906129aa565b60405180910390f35b348015610267575f80fd5b50610282600480360381019061027d9190612a87565b610d37565b005b34801561028f575f80fd5b50610298610efd565b005b3480156102a5575f80fd5b506102ae610f10565b005b3480156102bb575f80fd5b506102d660048036038101906102d19190612ace565b6110df565b005b3480156102e3575f80fd5b506102ec61143c565b6040516102f99190612b08565b60405180910390f35b34801561030d575f80fd5b5061032860048036038101906103239190612342565b611471565b005b348015610335575f80fd5b5061033e6115d5565b60405161034b9190612b81565b60405180910390f35b34801561035f575f80fd5b5061036861160e565b60405161037591906125c8565b60405180910390f35b348015610389575f80fd5b50610392611615565b60405161039f91906127dc565b60405180910390f35b3480156103b3575f80fd5b506103ce60048036038101906103c99190612ace565b6116a0565b005b3480156103db575f80fd5b506103f660048036038101906103f19190612ace565b6118a3565b005b348015610403575f80fd5b5061041e60048036038101906104199190612ace565b611927565b60405161042b91906125c8565b60405180910390f35b61043c611947565b005b6104466122a7565b6005828154811061045a57610459612ba1565b5b905f5260205f209060080201604051806101000160405290815f82015f9054906101000a900473ffffffffffffffffffffffffffffffffffffffff1673ffffffffffffffffffffffffffffffffffffffff1673ffffffffffffffffffffffffffffffffffffffff168152602001600182015481526020016002820180548060200260200160405190810160405280929190818152602001828054801561055257602002820191905f5260205f20905b815f9054906101000a900473ffffffffffffffffffffffffffffffffffffffff1673ffffffffffffffffffffffffffffffffffffffff1681526020019060010190808311610509575b50505050508152602001600382018054806020026020016040519081016040528092919081815260200182805480156105dd57602002820191905f5260205f20905b815f9054906101000a900473ffffffffffffffffffffffffffffffffffffffff1673ffffffffffffffffffffffffffffffffffffffff1681526020019060010190808311610594575b50505050508152602001600482015f9054906101000a900460ff1615151515815260200160058201548152602001600682015481526020016007820154815250509050919050565b5f81471015610669576040517f08c379a000000000000000000000000000000000000000000000000000000000815260040161066090612c3e565b60405180910390fd5b6103e88210156106ae576040517f08c379a00000000000000000000000000000000000000000000000000000000081526004016106a590612ca6565b60405180910390fd5b5f60058054905090505f600560018160018154018082558091505003905f5260205f209060080201905084815f015f6101000a81548173ffffffffffffffffffffffffffffffffffffffff021916908373ffffffffffffffffffffffffffffffffffffffff1602179055508381600101819055505f816004015f6101000a81548160ff0219169083151502179055504281600501819055505f81600601819055505f81600701819055507ffd27d176b6ebb21e0182c0e43df5818e0d632867e1eb47c383c58d221205fce382868660405161078b93929190612cc4565b60405180910390a1819250505092915050565b60015f3373ffffffffffffffffffffffffffffffffffffffff1673ffffffffffffffffffffffffffffffffffffffff1681526020019081526020015f205f9054906101000a900460ff16610827576040517f08c379a000000000000000000000000000000000000000000000000000000000815260040161081e90612d69565b60405180910390fd5b5f6005828154811061083c5761083b612ba1565b5b905f5260205f2090600802019050806004015f9054906101000a900460ff161561089b576040517f08c379a000000000000000000000000000000000000000000000000000000000815260040161089290612df7565b60405180910390fd5b8060020133908060018154018082558091505060019003905f5260205f20015f9091909190916101000a81548173ffffffffffffffffffffffffffffffffffffffff021916908373ffffffffffffffffffffffffffffffffffffffff160217905550806006015f81548092919061091190612e42565b9190505550610930600754600260065461092b9190612eb6565b611949565b816006015410610a155761094382611961565b156109ae577fe90ae330e5aefc2a73ddff0dd88bcaf8f4a0629d6553a2a85b22cac3d5f4a19e82825f015f9054906101000a900473ffffffffffffffffffffffffffffffffffffffff1683600101546040516109a193929190612cc4565b60405180910390a1610a10565b7fe015d34eef89d312e7f4ce9ac2b7d0a952a1a5329981aa762e2a64ccfd88dcc382825f015f9054906101000a900473ffffffffffffffffffffffffffffffffffffffff168360010154604051610a0793929190612cc4565b60405180910390a15b610a4f565b7f924813d717e221b5f46dcd8a56da1679e4612584ab3237d55e5faabf6f6a30798233604051610a46929190612ee6565b60405180910390a15b5050565b60606005805480602002602001604051908101604052809291908181526020015f905b82821015610c53578382905f5260205f209060080201604051806101000160405290815f82015f9054906101000a900473ffffffffffffffffffffffffffffffffffffffff1673ffffffffffffffffffffffffffffffffffffffff1673ffffffffffffffffffffffffffffffffffffffff1681526020016001820154815260200160028201805480602002602001604051908101604052809291908181526020018280548015610b7857602002820191905f5260205f20905b815f9054906101000a900473ffffffffffffffffffffffffffffffffffffffff1673ffffffffffffffffffffffffffffffffffffffff1681526020019060010190808311610b2f575b5050505050815260200160038201805480602002602001604051908101604052809291908181526020018280548015610c0357602002820191905f5260205f20905b815f9054906101000a900473ffffffffffffffffffffffffffffffffffffffff1673ffffffffffffffffffffffffffffffffffffffff1681526020019060010190808311610bba575b50505050508152602001600482015f9054906101000a900460ff16151515158152602001600582015481526020016006820154815260200160078201548152505081526020019060010190610a76565b50505050905090565b60606004805480602002602001604051908101604052809291908181526020018280548015610cdd57602002820191905f5260205f20905b815f9054906101000a900473ffffffffffffffffffffffffffffffffffffffff1673ffffffffffffffffffffffffffffffffffffffff1681526020019060010190808311610c94575b5050505050905090565b610cef611a40565b610cf882611b26565b610d028282611b31565b5050565b5f610d0f611c4f565b7f360894a13ba1a3210667c828492db98dca3e2076cc3735a920a3ca505d382bbc5f1b905090565b610d3f611cd6565b5f5b8151811015610ef95760015f838381518110610d6057610d5f612ba1565b5b602002602001015173ffffffffffffffffffffffffffffffffffffffff1673ffffffffffffffffffffffffffffffffffffffff1681526020019081526020015f205f9054906101000a900460ff16610eec576001805f848481518110610dc957610dc8612ba1565b5b602002602001015173ffffffffffffffffffffffffffffffffffffffff1673ffffffffffffffffffffffffffffffffffffffff1681526020019081526020015f205f6101000a81548160ff0219169083151502179055506003828281518110610e3557610e34612ba1565b5b6020026020010151908060018154018082558091505060019003905f5260205f20015f9091909190916101000a81548173ffffffffffffffffffffffffffffffffffffffff021916908373ffffffffffffffffffffffffffffffffffffffff1602179055507f8ffbf603707f31ab466f6b711c89ae5521b6f93b25d3f86200054018476696d6828281518110610ece57610ecd612ba1565b5b6020026020010151604051610ee39190612b08565b60405180910390a15b8080600101915050610d41565b5050565b610f05611cd6565b610f0e5f611d5d565b565b5f610f19611e2e565b90505f815f0160089054906101000a900460ff161590505f825f015f9054906101000a900467ffffffffffffffff1690505f808267ffffffffffffffff16148015610f615750825b90505f60018367ffffffffffffffff16148015610f9457505f3073ffffffffffffffffffffffffffffffffffffffff163b145b905081158015610fa2575080155b15610fd9576040517ff92ee8a900000000000000000000000000000000000000000000000000000000815260040160405180910390fd5b6001855f015f6101000a81548167ffffffffffffffff021916908367ffffffffffffffff1602179055508315611026576001855f0160086101000a81548160ff0219169083151502179055505b61102f33611e55565b611037611e69565b335f806101000a81548173ffffffffffffffffffffffffffffffffffffffff021916908373ffffffffffffffffffffffffffffffffffffffff160217905550600560078190555083156110d8575f855f0160086101000a81548160ff0219169083151502179055507fc7f505b2f371ae2175ee4913f4499e1f2633a7b5936321eed1cdaeb6115181d260016040516110cf9190612f62565b60405180910390a15b5050505050565b6110e7611cd6565b60015f8273ffffffffffffffffffffffffffffffffffffffff1673ffffffffffffffffffffffffffffffffffffffff1681526020019081526020015f205f9054906101000a900460ff1615611171576040517f08c379a000000000000000000000000000000000000000000000000000000000815260040161116890612fc5565b60405180910390fd5b60025f8273ffffffffffffffffffffffffffffffffffffffff1673ffffffffffffffffffffffffffffffffffffffff1681526020019081526020015f205f6101000a81549060ff02191690555f5b600480549050811015611336578173ffffffffffffffffffffffffffffffffffffffff16600482815481106111f7576111f6612ba1565b5b905f5260205f20015f9054906101000a900473ffffffffffffffffffffffffffffffffffffffff1673ffffffffffffffffffffffffffffffffffffffff1603611329576004600160048054905061124e9190612fe3565b8154811061125f5761125e612ba1565b5b905f5260205f20015f9054906101000a900473ffffffffffffffffffffffffffffffffffffffff166004828154811061129b5761129a612ba1565b5b905f5260205f20015f6101000a81548173ffffffffffffffffffffffffffffffffffffffff021916908373ffffffffffffffffffffffffffffffffffffffff16021790555060048054806112f2576112f1613016565b5b600190038181905f5260205f20015f6101000a81549073ffffffffffffffffffffffffffffffffffffffff02191690559055611336565b80806001019150506111bf565b506001805f8373ffffffffffffffffffffffffffffffffffffffff1673ffffffffffffffffffffffffffffffffffffffff1681526020019081526020015f205f6101000a81548160ff021916908315150217905550600381908060018154018082558091505060019003905f5260205f20015f9091909190916101000a81548173ffffffffffffffffffffffffffffffffffffffff021916908373ffffffffffffffffffffffffffffffffffffffff16021790555060065f8154809291906113fd90612e42565b91905055507f8ffbf603707f31ab466f6b711c89ae5521b6f93b25d3f86200054018476696d6816040516114319190612b08565b60405180910390a150565b5f80611446611e73565b9050805f015f9054906101000a900473ffffffffffffffffffffffffffffffffffffffff1691505090565b60015f3373ffffffffffffffffffffffffffffffffffffffff1673ffffffffffffffffffffffffffffffffffffffff1681526020019081526020015f205f9054906101000a900460ff166114fa576040517f08c379a00000000000000000000000000000000000000000000000000000000081526004016114f190612d69565b60405180910390fd5b5f6005828154811061150f5761150e612ba1565b5b905f5260205f20906008020190508060030133908060018154018082558091505060019003905f5260205f20015f9091909190916101000a81548173ffffffffffffffffffffffffffffffffffffffff021916908373ffffffffffffffffffffffffffffffffffffffff160217905550806007015f81548092919061159390612e42565b91905055507f51e2a629616d21b16f9d1d2549b4b88aba4d3b132f12a47ef7696e4a4263d1e882336040516115c9929190612ee6565b60405180910390a15050565b6040518060400160405280600581526020017f352e302e3000000000000000000000000000000000000000000000000000000081525081565b5f47905090565b6060600380548060200260200160405190810160405280929190818152602001828054801561169657602002820191905f5260205f20905b815f9054906101000a900473ffffffffffffffffffffffffffffffffffffffff1673ffffffffffffffffffffffffffffffffffffffff168152602001906001019080831161164d575b5050505050905090565b60015f8273ffffffffffffffffffffffffffffffffffffffff1673ffffffffffffffffffffffffffffffffffffffff1681526020019081526020015f205f9054906101000a900460ff161561172a576040517f08c379a00000000000000000000000000000000000000000000000000000000081526004016117219061308d565b60405180910390fd5b60025f8273ffffffffffffffffffffffffffffffffffffffff1673ffffffffffffffffffffffffffffffffffffffff1681526020019081526020015f205f9054906101000a900460ff16156117b4576040517f08c379a00000000000000000000000000000000000000000000000000000000081526004016117ab906130f5565b60405180910390fd5b600481908060018154018082558091505060019003905f5260205f20015f9091909190916101000a81548173ffffffffffffffffffffffffffffffffffffffff021916908373ffffffffffffffffffffffffffffffffffffffff160217905550600160025f8373ffffffffffffffffffffffffffffffffffffffff1673ffffffffffffffffffffffffffffffffffffffff1681526020019081526020015f205f6101000a81548160ff0219169083151502179055507f626e4500941465f8684ab220d11d81f3a776c4ed7010715f25cd8e772dcbb484816040516118989190612b08565b60405180910390a150565b6118ab611cd6565b5f73ffffffffffffffffffffffffffffffffffffffff168173ffffffffffffffffffffffffffffffffffffffff160361191b575f6040517f1e4fbdf70000000000000000000000000000000000000000000000000000000081526004016119129190612b08565b60405180910390fd5b61192481611d5d565b50565b5f8173ffffffffffffffffffffffffffffffffffffffff16319050919050565b565b5f8183116119575781611959565b825b905092915050565b5f806005838154811061197757611976612ba1565b5b905f5260205f20906008020190505f815f015f9054906101000a900473ffffffffffffffffffffffffffffffffffffffff1673ffffffffffffffffffffffffffffffffffffffff1682600101546040516119d090613140565b5f6040518083038185875af1925050503d805f8114611a0a576040519150601f19603f3d011682016040523d82523d5f602084013e611a0f565b606091505b505090508015611a36576001826004015f6101000a81548160ff0219169083151502179055505b8092505050919050565b7f000000000000000000000000000000000000000000000000000000000000000073ffffffffffffffffffffffffffffffffffffffff163073ffffffffffffffffffffffffffffffffffffffff161480611aed57507f000000000000000000000000000000000000000000000000000000000000000073ffffffffffffffffffffffffffffffffffffffff16611ad4611e9a565b73ffffffffffffffffffffffffffffffffffffffff1614155b15611b24576040517fe07c8dba00000000000000000000000000000000000000000000000000000000815260040160405180910390fd5b565b611b2e611cd6565b50565b8173ffffffffffffffffffffffffffffffffffffffff166352d1902d6040518163ffffffff1660e01b8152600401602060405180830381865afa925050508015611b9957506040513d601f19601f82011682018060405250810190611b96919061317e565b60015b611bda57816040517f4c9c8ce3000000000000000000000000000000000000000000000000000000008152600401611bd19190612b08565b60405180910390fd5b7f360894a13ba1a3210667c828492db98dca3e2076cc3735a920a3ca505d382bbc5f1b8114611c4057806040517faa1d49a4000000000000000000000000000000000000000000000000000000008152600401611c3791906129aa565b60405180910390fd5b611c4a8383611eed565b505050565b7f000000000000000000000000000000000000000000000000000000000000000073ffffffffffffffffffffffffffffffffffffffff163073ffffffffffffffffffffffffffffffffffffffff1614611cd4576040517fe07c8dba00000000000000000000000000000000000000000000000000000000815260040160405180910390fd5b565b611cde611f5f565b73ffffffffffffffffffffffffffffffffffffffff16611cfc61143c565b73ffffffffffffffffffffffffffffffffffffffff1614611d5b57611d1f611f5f565b6040517f118cdaa7000000000000000000000000000000000000000000000000000000008152600401611d529190612b08565b60405180910390fd5b565b5f611d66611e73565b90505f815f015f9054906101000a900473ffffffffffffffffffffffffffffffffffffffff16905082825f015f6101000a81548173ffffffffffffffffffffffffffffffffffffffff021916908373ffffffffffffffffffffffffffffffffffffffff1602179055508273ffffffffffffffffffffffffffffffffffffffff168173ffffffffffffffffffffffffffffffffffffffff167f8be0079c531659141344cd1fd0a4f28419497f9722a3daafe3b4186f6b6457e060405160405180910390a3505050565b5f7ff0c57e16840df040f15088dc2f81fe391c3923bec73e23a9662efc9c229c6a00905090565b611e5d611f66565b611e6681611fa6565b50565b611e71611f66565b565b5f7f9016d09d72d40fdae2fd8ceac6b6234c7706214fd39c1cd1e609a0528c199300905090565b5f611ec67f360894a13ba1a3210667c828492db98dca3e2076cc3735a920a3ca505d382bbc5f1b61202a565b5f015f9054906101000a900473ffffffffffffffffffffffffffffffffffffffff16905090565b611ef682612033565b8173ffffffffffffffffffffffffffffffffffffffff167fbc7cd75a20ee27fd9adebab32041f755214dbc6bffa90cc0225b39da2e5c2d3b60405160405180910390a25f81511115611f5257611f4c82826120fc565b50611f5b565b611f5a61217c565b5b5050565b5f33905090565b611f6e6121b8565b611fa4576040517fd7e6bcf800000000000000000000000000000000000000000000000000000000815260040160405180910390fd5b565b611fae611f66565b5f73ffffffffffffffffffffffffffffffffffffffff168173ffffffffffffffffffffffffffffffffffffffff160361201e575f6040517f1e4fbdf70000000000000000000000000000000000000000000000000000000081526004016120159190612b08565b60405180910390fd5b61202781611d5d565b50565b5f819050919050565b5f8173ffffffffffffffffffffffffffffffffffffffff163b0361208e57806040517f4c9c8ce30000000000000000000000000000000000000000000000000000000081526004016120859190612b08565b60405180910390fd5b806120ba7f360894a13ba1a3210667c828492db98dca3e2076cc3735a920a3ca505d382bbc5f1b61202a565b5f015f6101000a81548173ffffffffffffffffffffffffffffffffffffffff021916908373ffffffffffffffffffffffffffffffffffffffff16021790555050565b60605f808473ffffffffffffffffffffffffffffffffffffffff168460405161212591906131e3565b5f60405180830381855af49150503d805f811461215d576040519150601f19603f3d011682016040523d82523d5f602084013e612162565b606091505b50915091506121728583836121d6565b9250505092915050565b5f3411156121b6576040517fb398979f00000000000000000000000000000000000000000000000000000000815260040160405180910390fd5b565b5f6121c1611e2e565b5f0160089054906101000a900460ff16905090565b6060826121eb576121e682612263565b61225b565b5f825114801561221157505f8473ffffffffffffffffffffffffffffffffffffffff163b145b1561225357836040517f9996b31500000000000000000000000000000000000000000000000000000000815260040161224a9190612b08565b60405180910390fd5b81905061225c565b5b9392505050565b5f815111156122755780518082602001fd5b6040517f1425ea4200000000000000000000000000000000000000000000000000000000815260040160405180910390fd5b6040518061010001604052805f73ffffffffffffffffffffffffffffffffffffffff1681526020015f815260200160608152602001606081526020015f151581526020015f81526020015f81526020015f81525090565b5f604051905090565b5f80fd5b5f80fd5b5f819050919050565b6123218161230f565b811461232b575f80fd5b50565b5f8135905061233c81612318565b92915050565b5f6020828403121561235757612356612307565b5b5f6123648482850161232e565b91505092915050565b5f73ffffffffffffffffffffffffffffffffffffffff82169050919050565b5f6123968261236d565b9050919050565b6123a68161238c565b82525050565b6123b58161230f565b82525050565b5f81519050919050565b5f82825260208201905092915050565b5f819050602082019050919050565b5f6123ef838361239d565b60208301905092915050565b5f602082019050919050565b5f612411826123bb565b61241b81856123c5565b9350612426836123d5565b805f5b8381101561245657815161243d88826123e4565b9750612448836123fb565b925050600181019050612429565b5085935050505092915050565b5f8115159050919050565b61247781612463565b82525050565b5f61010083015f8301516124935f86018261239d565b5060208301516124a660208601826123ac565b50604083015184820360408601526124be8282612407565b915050606083015184820360608601526124d88282612407565b91505060808301516124ed608086018261246e565b5060a083015161250060a08601826123ac565b5060c083015161251360c08601826123ac565b5060e083015161252660e08601826123ac565b508091505092915050565b5f6020820190508181035f830152612549818461247d565b905092915050565b61255a8161238c565b8114612564575f80fd5b50565b5f8135905061257581612551565b92915050565b5f806040838503121561259157612590612307565b5b5f61259e85828601612567565b92505060206125af8582860161232e565b9150509250929050565b6125c28161230f565b82525050565b5f6020820190506125db5f8301846125b9565b92915050565b5f81519050919050565b5f82825260208201905092915050565b5f819050602082019050919050565b5f61010083015f8301516126205f86018261239d565b50602083015161263360208601826123ac565b506040830151848203604086015261264b8282612407565b915050606083015184820360608601526126658282612407565b915050608083015161267a608086018261246e565b5060a083015161268d60a08601826123ac565b5060c08301516126a060c08601826123ac565b5060e08301516126b360e08601826123ac565b508091505092915050565b5f6126c9838361260a565b905092915050565b5f602082019050919050565b5f6126e7826125e1565b6126f181856125eb565b935083602082028501612703856125fb565b805f5b8581101561273e578484038952815161271f85826126be565b945061272a836126d1565b925060208a01995050600181019050612706565b50829750879550505050505092915050565b5f6020820190508181035f83015261276881846126dd565b905092915050565b5f82825260208201905092915050565b5f61278a826123bb565b6127948185612770565b935061279f836123d5565b805f5b838110156127cf5781516127b688826123e4565b97506127c1836123fb565b9250506001810190506127a2565b5085935050505092915050565b5f6020820190508181035f8301526127f48184612780565b905092915050565b5f80fd5b5f80fd5b5f601f19601f8301169050919050565b7f4e487b71000000000000000000000000000000000000000000000000000000005f52604160045260245ffd5b61284a82612804565b810181811067ffffffffffffffff8211171561286957612868612814565b5b80604052505050565b5f61287b6122fe565b90506128878282612841565b919050565b5f67ffffffffffffffff8211156128a6576128a5612814565b5b6128af82612804565b9050602081019050919050565b828183375f83830152505050565b5f6128dc6128d78461288c565b612872565b9050828152602081018484840111156128f8576128f7612800565b5b6129038482856128bc565b509392505050565b5f82601f83011261291f5761291e6127fc565b5b813561292f8482602086016128ca565b91505092915050565b5f806040838503121561294e5761294d612307565b5b5f61295b85828601612567565b925050602083013567ffffffffffffffff81111561297c5761297b61230b565b5b6129888582860161290b565b9150509250929050565b5f819050919050565b6129a481612992565b82525050565b5f6020820190506129bd5f83018461299b565b92915050565b5f67ffffffffffffffff8211156129dd576129dc612814565b5b602082029050602081019050919050565b5f80fd5b5f612a046129ff846129c3565b612872565b90508083825260208201905060208402830185811115612a2757612a266129ee565b5b835b81811015612a505780612a3c8882612567565b845260208401935050602081019050612a29565b5050509392505050565b5f82601f830112612a6e57612a6d6127fc565b5b8135612a7e8482602086016129f2565b91505092915050565b5f60208284031215612a9c57612a9b612307565b5b5f82013567ffffffffffffffff811115612ab957612ab861230b565b5b612ac584828501612a5a565b91505092915050565b5f60208284031215612ae357612ae2612307565b5b5f612af084828501612567565b91505092915050565b612b028161238c565b82525050565b5f602082019050612b1b5f830184612af9565b92915050565b5f81519050919050565b5f82825260208201905092915050565b8281835e5f83830152505050565b5f612b5382612b21565b612b5d8185612b2b565b9350612b6d818560208601612b3b565b612b7681612804565b840191505092915050565b5f6020820190508181035f830152612b998184612b49565b905092915050565b7f4e487b71000000000000000000000000000000000000000000000000000000005f52603260045260245ffd5b7f496e73756666696369656e742062616c616e636520696e2074686520636f6e745f8201527f7261637400000000000000000000000000000000000000000000000000000000602082015250565b5f612c28602483612b2b565b9150612c3382612bce565b604082019050919050565b5f6020820190508181035f830152612c5581612c1c565b9050919050565b7f506c656173652073657420612068696768657220616d6f756e740000000000005f82015250565b5f612c90601a83612b2b565b9150612c9b82612c5c565b602082019050919050565b5f6020820190508181035f830152612cbd81612c84565b9050919050565b5f606082019050612cd75f8301866125b9565b612ce46020830185612af9565b612cf160408301846125b9565b949350505050565b7f546869732066756e6374696f6e2063616e206f6e6c792062652063616c6c65645f8201527f20627920616e20417070726f7665720000000000000000000000000000000000602082015250565b5f612d53602f83612b2b565b9150612d5e82612cf9565b604082019050919050565b5f6020820190508181035f830152612d8081612d47565b9050919050565b7f546865205472616e73616374696f6e20697320616c72656164792065786563755f8201527f7465640000000000000000000000000000000000000000000000000000000000602082015250565b5f612de1602383612b2b565b9150612dec82612d87565b604082019050919050565b5f6020820190508181035f830152612e0e81612dd5565b9050919050565b7f4e487b71000000000000000000000000000000000000000000000000000000005f52601160045260245ffd5b5f612e4c8261230f565b91507fffffffffffffffffffffffffffffffffffffffffffffffffffffffffffffffff8203612e7e57612e7d612e15565b5b600182019050919050565b7f4e487b71000000000000000000000000000000000000000000000000000000005f52601260045260245ffd5b5f612ec08261230f565b9150612ecb8361230f565b925082612edb57612eda612e89565b5b828204905092915050565b5f604082019050612ef95f8301856125b9565b612f066020830184612af9565b9392505050565b5f819050919050565b5f67ffffffffffffffff82169050919050565b5f819050919050565b5f612f4c612f47612f4284612f0d565b612f29565b612f16565b9050919050565b612f5c81612f32565b82525050565b5f602082019050612f755f830184612f53565b92915050565b7f596f752061726520616c726561647920617070726f76656400000000000000005f82015250565b5f612faf601883612b2b565b9150612fba82612f7b565b602082019050919050565b5f6020820190508181035f830152612fdc81612fa3565b9050919050565b5f612fed8261230f565b9150612ff88361230f565b92508282039050818111156130105761300f612e15565b5b92915050565b7f4e487b71000000000000000000000000000000000000000000000000000000005f52603160045260245ffd5b7f596f752061726520616c726561647920616e20617070726f76657200000000005f82015250565b5f613077601b83612b2b565b915061308282613043565b602082019050919050565b5f6020820190508181035f8301526130a48161306b565b9050919050565b7f596f75204861766520616c7265616479206170706c69656400000000000000005f82015250565b5f6130df601883612b2b565b91506130ea826130ab565b602082019050919050565b5f6020820190508181035f83015261310c816130d3565b9050919050565b5f81905092915050565b50565b5f61312b5f83613113565b91506131368261311d565b5f82019050919050565b5f61314a82613120565b9150819050919050565b61315d81612992565b8114613167575f80fd5b50565b5f8151905061317881613154565b92915050565b5f6020828403121561319357613192612307565b5b5f6131a08482850161316a565b91505092915050565b5f81519050919050565b5f6131bd826131a9565b6131c78185613113565b93506131d7818560208601612b3b565b80840191505092915050565b5f6131ee82846131b3565b91508190509291505056fea2646970667358221220f8076d60ccf20222cc871e16d13d3b89e3570ff7bc125bf0ba37d1e2c3a5a2fa64736f6c634300081a0033",
					"opcodes": "PUSH1 0xA0 PUSH1 0x40 MSTORE ADDRESS PUSH20 0xFFFFFFFFFFFFFFFFFFFFFFFFFFFFFFFFFFFFFFFF AND PUSH1 0x80 SWAP1 PUSH20 0xFFFFFFFFFFFFFFFFFFFFFFFFFFFFFFFFFFFFFFFF AND DUP2 MSTORE POP CALLVALUE DUP1 ISZERO PUSH1 0x41 JUMPI PUSH0 DUP1 REVERT JUMPDEST POP PUSH1 0x80 MLOAD PUSH2 0x322F PUSH2 0x68 PUSH0 CODECOPY PUSH0 DUP2 DUP2 PUSH2 0x1A42 ADD MSTORE DUP2 DUP2 PUSH2 0x1A97 ADD MSTORE PUSH2 0x1C51 ADD MSTORE PUSH2 0x322F PUSH0 RETURN INVALID PUSH1 0x80 PUSH1 0x40 MSTORE PUSH1 0x4 CALLDATASIZE LT PUSH2 0x11E JUMPI PUSH0 CALLDATALOAD PUSH1 0xE0 SHR DUP1 PUSH4 0x838D4CD1 GT PUSH2 0x9F JUMPI DUP1 PUSH4 0xBE2AF9CB GT PUSH2 0x63 JUMPI DUP1 PUSH4 0xBE2AF9CB EQ PUSH2 0x37E JUMPI DUP1 PUSH4 0xC82830EA EQ PUSH2 0x3A8 JUMPI DUP1 PUSH4 0xF2FDE38B EQ PUSH2 0x3D0 JUMPI DUP1 PUSH4 0xF8B2CB4F EQ PUSH2 0x3F8 JUMPI DUP1 PUSH4 0xFF7D55EA EQ PUSH2 0x434 JUMPI PUSH2 0x11E JUMP JUMPDEST DUP1 PUSH4 0x838D4CD1 EQ PUSH2 0x2B0 JUMPI DUP1 PUSH4 0x8DA5CB5B EQ PUSH2 0x2D8 JUMPI DUP1 PUSH4 0x9911A149 EQ PUSH2 0x302 JUMPI DUP1 PUSH4 0xAD3CB1CC EQ PUSH2 0x32A JUMPI DUP1 PUSH4 0xB69EF8A8 EQ PUSH2 0x354 JUMPI PUSH2 0x11E JUMP JUMPDEST DUP1 PUSH4 0x4F1EF286 GT PUSH2 0xE6 JUMPI DUP1 PUSH4 0x4F1EF286 EQ PUSH2 0x216 JUMPI DUP1 PUSH4 0x52D1902D EQ PUSH2 0x232 JUMPI DUP1 PUSH4 0x6A882D51 EQ PUSH2 0x25C JUMPI DUP1 PUSH4 0x715018A6 EQ PUSH2 0x284 JUMPI DUP1 PUSH4 0x8129FC1C EQ PUSH2 0x29A JUMPI PUSH2 0x11E JUMP JUMPDEST DUP1 PUSH4 0xFA683D3 EQ PUSH2 0x122 JUMPI DUP1 PUSH4 0x1E7F8F0F EQ PUSH2 0x15E JUMPI DUP1 PUSH4 0x242232D1 EQ PUSH2 0x19A JUMPI DUP1 PUSH4 0x27506F53 EQ PUSH2 0x1C2 JUMPI DUP1 PUSH4 0x35B0D745 EQ PUSH2 0x1EC JUMPI JUMPDEST PUSH0 DUP1 REVERT JUMPDEST CALLVALUE DUP1 ISZERO PUSH2 0x12D JUMPI PUSH0 DUP1 REVERT JUMPDEST POP PUSH2 0x148 PUSH1 0x4 DUP1 CALLDATASIZE SUB DUP2 ADD SWAP1 PUSH2 0x143 SWAP2 SWAP1 PUSH2 0x2342 JUMP JUMPDEST PUSH2 0x43E JUMP JUMPDEST PUSH1 0x40 MLOAD PUSH2 0x155 SWAP2 SWAP1 PUSH2 0x2531 JUMP JUMPDEST PUSH1 0x40 MLOAD DUP1 SWAP2 SUB SWAP1 RETURN JUMPDEST CALLVALUE DUP1 ISZERO PUSH2 0x169 JUMPI PUSH0 DUP1 REVERT JUMPDEST POP PUSH2 0x184 PUSH1 0x4 DUP1 CALLDATASIZE SUB DUP2 ADD SWAP1 PUSH2 0x17F SWAP2 SWAP1 PUSH2 0x257B JUMP JUMPDEST PUSH2 0x625 JUMP JUMPDEST PUSH1 0x40 MLOAD PUSH2 0x191 SWAP2 SWAP1 PUSH2 0x25C8 JUMP JUMPDEST PUSH1 0x40 MLOAD DUP1 SWAP2 SUB SWAP1 RETURN JUMPDEST CALLVALUE DUP1 ISZERO PUSH2 0x1A5 JUMPI PUSH0 DUP1 REVERT JUMPDEST POP PUSH2 0x1C0 PUSH1 0x4 DUP1 CALLDATASIZE SUB DUP2 ADD SWAP1 PUSH2 0x1BB SWAP2 SWAP1 PUSH2 0x2342 JUMP JUMPDEST PUSH2 0x79E JUMP JUMPDEST STOP JUMPDEST CALLVALUE DUP1 ISZERO PUSH2 0x1CD JUMPI PUSH0 DUP1 REVERT JUMPDEST POP PUSH2 0x1D6 PUSH2 0xA53 JUMP JUMPDEST PUSH1 0x40 MLOAD PUSH2 0x1E3 SWAP2 SWAP1 PUSH2 0x2750 JUMP JUMPDEST PUSH1 0x40 MLOAD DUP1 SWAP2 SUB SWAP1 RETURN JUMPDEST CALLVALUE DUP1 ISZERO PUSH2 0x1F7 JUMPI PUSH0 DUP1 REVERT JUMPDEST POP PUSH2 0x200 PUSH2 0xC5C JUMP JUMPDEST PUSH1 0x40 MLOAD PUSH2 0x20D SWAP2 SWAP1 PUSH2 0x27DC JUMP JUMPDEST PUSH1 0x40 MLOAD DUP1 SWAP2 SUB SWAP1 RETURN JUMPDEST PUSH2 0x230 PUSH1 0x4 DUP1 CALLDATASIZE SUB DUP2 ADD SWAP1 PUSH2 0x22B SWAP2 SWAP1 PUSH2 0x2938 JUMP JUMPDEST PUSH2 0xCE7 JUMP JUMPDEST STOP JUMPDEST CALLVALUE DUP1 ISZERO PUSH2 0x23D JUMPI PUSH0 DUP1 REVERT JUMPDEST POP PUSH2 0x246 PUSH2 0xD06 JUMP JUMPDEST PUSH1 0x40 MLOAD PUSH2 0x253 SWAP2 SWAP1 PUSH2 0x29AA JUMP JUMPDEST PUSH1 0x40 MLOAD DUP1 SWAP2 SUB SWAP1 RETURN JUMPDEST CALLVALUE DUP1 ISZERO PUSH2 0x267 JUMPI PUSH0 DUP1 REVERT JUMPDEST POP PUSH2 0x282 PUSH1 0x4 DUP1 CALLDATASIZE SUB DUP2 ADD SWAP1 PUSH2 0x27D SWAP2 SWAP1 PUSH2 0x2A87 JUMP JUMPDEST PUSH2 0xD37 JUMP JUMPDEST STOP JUMPDEST CALLVALUE DUP1 ISZERO PUSH2 0x28F JUMPI PUSH0 DUP1 REVERT JUMPDEST POP PUSH2 0x298 PUSH2 0xEFD JUMP JUMPDEST STOP JUMPDEST CALLVALUE DUP1 ISZERO PUSH2 0x2A5 JUMPI PUSH0 DUP1 REVERT JUMPDEST POP PUSH2 0x2AE PUSH2 0xF10 JUMP JUMPDEST STOP JUMPDEST CALLVALUE DUP1 ISZERO PUSH2 0x2BB JUMPI PUSH0 DUP1 REVERT JUMPDEST POP PUSH2 0x2D6 PUSH1 0x4 DUP1 CALLDATASIZE SUB DUP2 ADD SWAP1 PUSH2 0x2D1 SWAP2 SWAP1 PUSH2 0x2ACE JUMP JUMPDEST PUSH2 0x10DF JUMP JUMPDEST STOP JUMPDEST CALLVALUE DUP1 ISZERO PUSH2 0x2E3 JUMPI PUSH0 DUP1 REVERT JUMPDEST POP PUSH2 0x2EC PUSH2 0x143C JUMP JUMPDEST PUSH1 0x40 MLOAD PUSH2 0x2F9 SWAP2 SWAP1 PUSH2 0x2B08 JUMP JUMPDEST PUSH1 0x40 MLOAD DUP1 SWAP2 SUB SWAP1 RETURN JUMPDEST CALLVALUE DUP1 ISZERO PUSH2 0x30D JUMPI PUSH0 DUP1 REVERT JUMPDEST POP PUSH2 0x328 PUSH1 0x4 DUP1 CALLDATASIZE SUB DUP2 ADD SWAP1 PUSH2 0x323 SWAP2 SWAP1 PUSH2 0x2342 JUMP JUMPDEST PUSH2 0x1471 JUMP JUMPDEST STOP JUMPDEST CALLVALUE DUP1 ISZERO PUSH2 0x335 JUMPI PUSH0 DUP1 REVERT JUMPDEST POP PUSH2 0x33E PUSH2 0x15D5 JUMP JUMPDEST PUSH1 0x40 MLOAD PUSH2 0x34B SWAP2 SWAP1 PUSH2 0x2B81 JUMP JUMPDEST PUSH1 0x40 MLOAD DUP1 SWAP2 SUB SWAP1 RETURN JUMPDEST CALLVALUE DUP1 ISZERO PUSH2 0x35F JUMPI PUSH0 DUP1 REVERT JUMPDEST POP PUSH2 0x368 PUSH2 0x160E JUMP JUMPDEST PUSH1 0x40 MLOAD PUSH2 0x375 SWAP2 SWAP1 PUSH2 0x25C8 JUMP JUMPDEST PUSH1 0x40 MLOAD DUP1 SWAP2 SUB SWAP1 RETURN JUMPDEST CALLVALUE DUP1 ISZERO PUSH2 0x389 JUMPI PUSH0 DUP1 REVERT JUMPDEST POP PUSH2 0x392 PUSH2 0x1615 JUMP JUMPDEST PUSH1 0x40 MLOAD PUSH2 0x39F SWAP2 SWAP1 PUSH2 0x27DC JUMP JUMPDEST PUSH1 0x40 MLOAD DUP1 SWAP2 SUB SWAP1 RETURN JUMPDEST CALLVALUE DUP1 ISZERO PUSH2 0x3B3 JUMPI PUSH0 DUP1 REVERT JUMPDEST POP PUSH2 0x3CE PUSH1 0x4 DUP1 CALLDATASIZE SUB DUP2 ADD SWAP1 PUSH2 0x3C9 SWAP2 SWAP1 PUSH2 0x2ACE JUMP JUMPDEST PUSH2 0x16A0 JUMP JUMPDEST STOP JUMPDEST CALLVALUE DUP1 ISZERO PUSH2 0x3DB JUMPI PUSH0 DUP1 REVERT JUMPDEST POP PUSH2 0x3F6 PUSH1 0x4 DUP1 CALLDATASIZE SUB DUP2 ADD SWAP1 PUSH2 0x3F1 SWAP2 SWAP1 PUSH2 0x2ACE JUMP JUMPDEST PUSH2 0x18A3 JUMP JUMPDEST STOP JUMPDEST CALLVALUE DUP1 ISZERO PUSH2 0x403 JUMPI PUSH0 DUP1 REVERT JUMPDEST POP PUSH2 0x41E PUSH1 0x4 DUP1 CALLDATASIZE SUB DUP2 ADD SWAP1 PUSH2 0x419 SWAP2 SWAP1 PUSH2 0x2ACE JUMP JUMPDEST PUSH2 0x1927 JUMP JUMPDEST PUSH1 0x40 MLOAD PUSH2 0x42B SWAP2 SWAP1 PUSH2 0x25C8 JUMP JUMPDEST PUSH1 0x40 MLOAD DUP1 SWAP2 SUB SWAP1 RETURN JUMPDEST PUSH2 0x43C PUSH2 0x1947 JUMP JUMPDEST STOP JUMPDEST PUSH2 0x446 PUSH2 0x22A7 JUMP JUMPDEST PUSH1 0x5 DUP3 DUP2 SLOAD DUP2 LT PUSH2 0x45A JUMPI PUSH2 0x459 PUSH2 0x2BA1 JUMP JUMPDEST JUMPDEST SWAP1 PUSH0 MSTORE PUSH1 0x20 PUSH0 KECCAK256 SWAP1 PUSH1 0x8 MUL ADD PUSH1 0x40 MLOAD DUP1 PUSH2 0x100 ADD PUSH1 0x40 MSTORE SWAP1 DUP2 PUSH0 DUP3 ADD PUSH0 SWAP1 SLOAD SWAP1 PUSH2 0x100 EXP SWAP1 DIV PUSH20 0xFFFFFFFFFFFFFFFFFFFFFFFFFFFFFFFFFFFFFFFF AND PUSH20 0xFFFFFFFFFFFFFFFFFFFFFFFFFFFFFFFFFFFFFFFF AND PUSH20 0xFFFFFFFFFFFFFFFFFFFFFFFFFFFFFFFFFFFFFFFF AND DUP2 MSTORE PUSH1 0x20 ADD PUSH1 0x1 DUP3 ADD SLOAD DUP2 MSTORE PUSH1 0x20 ADD PUSH1 0x2 DUP3 ADD DUP1 SLOAD DUP1 PUSH1 0x20 MUL PUSH1 0x20 ADD PUSH1 0x40 MLOAD SWAP1 DUP2 ADD PUSH1 0x40 MSTORE DUP1 SWAP3 SWAP2 SWAP1 DUP2 DUP2 MSTORE PUSH1 0x20 ADD DUP3 DUP1 SLOAD DUP1 ISZERO PUSH2 0x552 JUMPI PUSH1 0x20 MUL DUP3 ADD SWAP2 SWAP1 PUSH0 MSTORE PUSH1 0x20 PUSH0 KECCAK256 SWAP1 JUMPDEST DUP2 PUSH0 SWAP1 SLOAD SWAP1 PUSH2 0x100 EXP SWAP1 DIV PUSH20 0xFFFFFFFFFFFFFFFFFFFFFFFFFFFFFFFFFFFFFFFF AND PUSH20 0xFFFFFFFFFFFFFFFFFFFFFFFFFFFFFFFFFFFFFFFF AND DUP2 MSTORE PUSH1 0x20 ADD SWAP1 PUSH1 0x1 ADD SWAP1 DUP1 DUP4 GT PUSH2 0x509 JUMPI JUMPDEST POP POP POP POP POP DUP2 MSTORE PUSH1 0x20 ADD PUSH1 0x3 DUP3 ADD DUP1 SLOAD DUP1 PUSH1 0x20 MUL PUSH1 0x20 ADD PUSH1 0x40 MLOAD SWAP1 DUP2 ADD PUSH1 0x40 MSTORE DUP1 SWAP3 SWAP2 SWAP1 DUP2 DUP2 MSTORE PUSH1 0x20 ADD DUP3 DUP1 SLOAD DUP1 ISZERO PUSH2 0x5DD JUMPI PUSH1 0x20 MUL DUP3 ADD SWAP2 SWAP1 PUSH0 MSTORE PUSH1 0x20 PUSH0 KECCAK256 SWAP1 JUMPDEST DUP2 PUSH0 SWAP1 SLOAD SWAP1 PUSH2 0x100 EXP SWAP1 DIV PUSH20 0xFFFFFFFFFFFFFFFFFFFFFFFFFFFFFFFFFFFFFFFF AND PUSH20 0xFFFFFFFFFFFFFFFFFFFFFFFFFFFFFFFFFFFFFFFF AND DUP2 MSTORE PUSH1 0x20 ADD SWAP1 PUSH1 0x1 ADD SWAP1 DUP1 DUP4 GT PUSH2 0x594 JUMPI JUMPDEST POP POP POP POP POP DUP2 MSTORE PUSH1 0x20 ADD PUSH1 0x4 DUP3 ADD PUSH0 SWAP1 SLOAD SWAP1 PUSH2 0x100 EXP SWAP1 DIV PUSH1 0xFF AND ISZERO ISZERO ISZERO ISZERO DUP2 MSTORE PUSH1 0x20 ADD PUSH1 0x5 DUP3 ADD SLOAD DUP2 MSTORE PUSH1 0x20 ADD PUSH1 0x6 DUP3 ADD SLOAD DUP2 MSTORE PUSH1 0x20 ADD PUSH1 0x7 DUP3 ADD SLOAD DUP2 MSTORE POP POP SWAP1 POP SWAP2 SWAP1 POP JUMP JUMPDEST PUSH0 DUP2 SELFBALANCE LT ISZERO PUSH2 0x669 JUMPI PUSH1 0x40 MLOAD PUSH32 0x8C379A000000000000000000000000000000000000000000000000000000000 DUP2 MSTORE PUSH1 0x4 ADD PUSH2 0x660 SWAP1 PUSH2 0x2C3E JUMP JUMPDEST PUSH1 0x40 MLOAD DUP1 SWAP2 SUB SWAP1 REVERT JUMPDEST PUSH2 0x3E8 DUP3 LT ISZERO PUSH2 0x6AE JUMPI PUSH1 0x40 MLOAD PUSH32 0x8C379A000000000000000000000000000000000000000000000000000000000 DUP2 MSTORE PUSH1 0x4 ADD PUSH2 0x6A5 SWAP1 PUSH2 0x2CA6 JUMP JUMPDEST PUSH1 0x40 MLOAD DUP1 SWAP2 SUB SWAP1 REVERT JUMPDEST PUSH0 PUSH1 0x5 DUP1 SLOAD SWAP1 POP SWAP1 POP PUSH0 PUSH1 0x5 PUSH1 0x1 DUP2 PUSH1 0x1 DUP2 SLOAD ADD DUP1 DUP3 SSTORE DUP1 SWAP2 POP POP SUB SWAP1 PUSH0 MSTORE PUSH1 0x20 PUSH0 KECCAK256 SWAP1 PUSH1 0x8 MUL ADD SWAP1 POP DUP5 DUP2 PUSH0 ADD PUSH0 PUSH2 0x100 EXP DUP2 SLOAD DUP2 PUSH20 0xFFFFFFFFFFFFFFFFFFFFFFFFFFFFFFFFFFFFFFFF MUL NOT AND SWAP1 DUP4 PUSH20 0xFFFFFFFFFFFFFFFFFFFFFFFFFFFFFFFFFFFFFFFF AND MUL OR SWAP1 SSTORE POP DUP4 DUP2 PUSH1 0x1 ADD DUP2 SWAP1 SSTORE POP PUSH0 DUP2 PUSH1 0x4 ADD PUSH0 PUSH2 0x100 EXP DUP2 SLOAD DUP2 PUSH1 0xFF MUL NOT AND SWAP1 DUP4 ISZERO ISZERO MUL OR SWAP1 SSTORE POP TIMESTAMP DUP2 PUSH1 0x5 ADD DUP2 SWAP1 SSTORE POP PUSH0 DUP2 PUSH1 0x6 ADD DUP2 SWAP1 SSTORE POP PUSH0 DUP2 PUSH1 0x7 ADD DUP2 SWAP1 SSTORE POP PUSH32 0xFD27D176B6EBB21E0182C0E43DF5818E0D632867E1EB47C383C58D221205FCE3 DUP3 DUP7 DUP7 PUSH1 0x40 MLOAD PUSH2 0x78B SWAP4 SWAP3 SWAP2 SWAP1 PUSH2 0x2CC4 JUMP JUMPDEST PUSH1 0x40 MLOAD DUP1 SWAP2 SUB SWAP1 LOG1 DUP2 SWAP3 POP POP POP SWAP3 SWAP2 POP POP JUMP JUMPDEST PUSH1 0x1 PUSH0 CALLER PUSH20 0xFFFFFFFFFFFFFFFFFFFFFFFFFFFFFFFFFFFFFFFF AND PUSH20 0xFFFFFFFFFFFFFFFFFFFFFFFFFFFFFFFFFFFFFFFF AND DUP2 MSTORE PUSH1 0x20 ADD SWAP1 DUP2 MSTORE PUSH1 0x20 ADD PUSH0 KECCAK256 PUSH0 SWAP1 SLOAD SWAP1 PUSH2 0x100 EXP SWAP1 DIV PUSH1 0xFF AND PUSH2 0x827 JUMPI PUSH1 0x40 MLOAD PUSH32 0x8C379A000000000000000000000000000000000000000000000000000000000 DUP2 MSTORE PUSH1 0x4 ADD PUSH2 0x81E SWAP1 PUSH2 0x2D69 JUMP JUMPDEST PUSH1 0x40 MLOAD DUP1 SWAP2 SUB SWAP1 REVERT JUMPDEST PUSH0 PUSH1 0x5 DUP3 DUP2 SLOAD DUP2 LT PUSH2 0x83C JUMPI PUSH2 0x83B PUSH2 0x2BA1 JUMP JUMPDEST JUMPDEST SWAP1 PUSH0 MSTORE PUSH1 0x20 PUSH0 KECCAK256 SWAP1 PUSH1 0x8 MUL ADD SWAP1 POP DUP1 PUSH1 0x4 ADD PUSH0 SWAP1 SLOAD SWAP1 PUSH2 0x100 EXP SWAP1 DIV PUSH1 0xFF AND ISZERO PUSH2 0x89B JUMPI PUSH1 0x40 MLOAD PUSH32 0x8C379A000000000000000000000000000000000000000000000000000000000 DUP2 MSTORE PUSH1 0x4 ADD PUSH2 0x892 SWAP1 PUSH2 0x2DF7 JUMP JUMPDEST PUSH1 0x40 MLOAD DUP1 SWAP2 SUB SWAP1 REVERT JUMPDEST DUP1 PUSH1 0x2 ADD CALLER SWAP1 DUP1 PUSH1 0x1 DUP2 SLOAD ADD DUP1 DUP3 SSTORE DUP1 SWAP2 POP POP PUSH1 0x1 SWAP1 SUB SWAP1 PUSH0 MSTORE PUSH1 0x20 PUSH0 KECCAK256 ADD PUSH0 SWAP1 SWAP2 SWAP1 SWAP2 SWAP1 SWAP2 PUSH2 0x100 EXP DUP2 SLOAD DUP2 PUSH20 0xFFFFFFFFFFFFFFFFFFFFFFFFFFFFFFFFFFFFFFFF MUL NOT AND SWAP1 DUP4 PUSH20 0xFFFFFFFFFFFFFFFFFFFFFFFFFFFFFFFFFFFFFFFF AND MUL OR SWAP1 SSTORE POP DUP1 PUSH1 0x6 ADD PUSH0 DUP2 SLOAD DUP1 SWAP3 SWAP2 SWAP1 PUSH2 0x911 SWAP1 PUSH2 0x2E42 JUMP JUMPDEST SWAP2 SWAP1 POP SSTORE POP PUSH2 0x930 PUSH1 0x7 SLOAD PUSH1 0x2 PUSH1 0x6 SLOAD PUSH2 0x92B SWAP2 SWAP1 PUSH2 0x2EB6 JUMP JUMPDEST PUSH2 0x1949 JUMP JUMPDEST DUP2 PUSH1 0x6 ADD SLOAD LT PUSH2 0xA15 JUMPI PUSH2 0x943 DUP3 PUSH2 0x1961 JUMP JUMPDEST ISZERO PUSH2 0x9AE JUMPI PUSH32 0xE90AE330E5AEFC2A73DDFF0DD88BCAF8F4A0629D6553A2A85B22CAC3D5F4A19E DUP3 DUP3 PUSH0 ADD PUSH0 SWAP1 SLOAD SWAP1 PUSH2 0x100 EXP SWAP1 DIV PUSH20 0xFFFFFFFFFFFFFFFFFFFFFFFFFFFFFFFFFFFFFFFF AND DUP4 PUSH1 0x1 ADD SLOAD PUSH1 0x40 MLOAD PUSH2 0x9A1 SWAP4 SWAP3 SWAP2 SWAP1 PUSH2 0x2CC4 JUMP JUMPDEST PUSH1 0x40 MLOAD DUP1 SWAP2 SUB SWAP1 LOG1 PUSH2 0xA10 JUMP JUMPDEST PUSH32 0xE015D34EEF89D312E7F4CE9AC2B7D0A952A1A5329981AA762E2A64CCFD88DCC3 DUP3 DUP3 PUSH0 ADD PUSH0 SWAP1 SLOAD SWAP1 PUSH2 0x100 EXP SWAP1 DIV PUSH20 0xFFFFFFFFFFFFFFFFFFFFFFFFFFFFFFFFFFFFFFFF AND DUP4 PUSH1 0x1 ADD SLOAD PUSH1 0x40 MLOAD PUSH2 0xA07 SWAP4 SWAP3 SWAP2 SWAP1 PUSH2 0x2CC4 JUMP JUMPDEST PUSH1 0x40 MLOAD DUP1 SWAP2 SUB SWAP1 LOG1 JUMPDEST PUSH2 0xA4F JUMP JUMPDEST PUSH32 0x924813D717E221B5F46DCD8A56DA1679E4612584AB3237D55E5FAABF6F6A3079 DUP3 CALLER PUSH1 0x40 MLOAD PUSH2 0xA46 SWAP3 SWAP2 SWAP1 PUSH2 0x2EE6 JUMP JUMPDEST PUSH1 0x40 MLOAD DUP1 SWAP2 SUB SWAP1 LOG1 JUMPDEST POP POP JUMP JUMPDEST PUSH1 0x60 PUSH1 0x5 DUP1 SLOAD DUP1 PUSH1 0x20 MUL PUSH1 0x20 ADD PUSH1 0x40 MLOAD SWAP1 DUP2 ADD PUSH1 0x40 MSTORE DUP1 SWAP3 SWAP2 SWAP1 DUP2 DUP2 MSTORE PUSH1 0x20 ADD PUSH0 SWAP1 JUMPDEST DUP3 DUP3 LT ISZERO PUSH2 0xC53 JUMPI DUP4 DUP3 SWAP1 PUSH0 MSTORE PUSH1 0x20 PUSH0 KECCAK256 SWAP1 PUSH1 0x8 MUL ADD PUSH1 0x40 MLOAD DUP1 PUSH2 0x100 ADD PUSH1 0x40 MSTORE SWAP1 DUP2 PUSH0 DUP3 ADD PUSH0 SWAP1 SLOAD SWAP1 PUSH2 0x100 EXP SWAP1 DIV PUSH20 0xFFFFFFFFFFFFFFFFFFFFFFFFFFFFFFFFFFFFFFFF AND PUSH20 0xFFFFFFFFFFFFFFFFFFFFFFFFFFFFFFFFFFFFFFFF AND PUSH20 0xFFFFFFFFFFFFFFFFFFFFFFFFFFFFFFFFFFFFFFFF AND DUP2 MSTORE PUSH1 0x20 ADD PUSH1 0x1 DUP3 ADD SLOAD DUP2 MSTORE PUSH1 0x20 ADD PUSH1 0x2 DUP3 ADD DUP1 SLOAD DUP1 PUSH1 0x20 MUL PUSH1 0x20 ADD PUSH1 0x40 MLOAD SWAP1 DUP2 ADD PUSH1 0x40 MSTORE DUP1 SWAP3 SWAP2 SWAP1 DUP2 DUP2 MSTORE PUSH1 0x20 ADD DUP3 DUP1 SLOAD DUP1 ISZERO PUSH2 0xB78 JUMPI PUSH1 0x20 MUL DUP3 ADD SWAP2 SWAP1 PUSH0 MSTORE PUSH1 0x20 PUSH0 KECCAK256 SWAP1 JUMPDEST DUP2 PUSH0 SWAP1 SLOAD SWAP1 PUSH2 0x100 EXP SWAP1 DIV PUSH20 0xFFFFFFFFFFFFFFFFFFFFFFFFFFFFFFFFFFFFFFFF AND PUSH20 0xFFFFFFFFFFFFFFFFFFFFFFFFFFFFFFFFFFFFFFFF AND DUP2 MSTORE PUSH1 0x20 ADD SWAP1 PUSH1 0x1 ADD SWAP1 DUP1 DUP4 GT PUSH2 0xB2F JUMPI JUMPDEST POP POP POP POP POP DUP2 MSTORE PUSH1 0x20 ADD PUSH1 0x3 DUP3 ADD DUP1 SLOAD DUP1 PUSH1 0x20 MUL PUSH1 0x20 ADD PUSH1 0x40 MLOAD SWAP1 DUP2 ADD PUSH1 0x40 MSTORE DUP1 SWAP3 SWAP2 SWAP1 DUP2 DUP2 MSTORE PUSH1 0x20 ADD DUP3 DUP1 SLOAD DUP1 ISZERO PUSH2 0xC03 JUMPI PUSH1 0x20 MUL DUP3 ADD SWAP2 SWAP1 PUSH0 MSTORE PUSH1 0x20 PUSH0 KECCAK256 SWAP1 JUMPDEST DUP2 PUSH0 SWAP1 SLOAD SWAP1 PUSH2 0x100 EXP SWAP1 DIV PUSH20 0xFFFFFFFFFFFFFFFFFFFFFFFFFFFFFFFFFFFFFFFF AND PUSH20 0xFFFFFFFFFFFFFFFFFFFFFFFFFFFFFFFFFFFFFFFF AND DUP2 MSTORE PUSH1 0x20 ADD SWAP1 PUSH1 0x1 ADD SWAP1 DUP1 DUP4 GT PUSH2 0xBBA JUMPI JUMPDEST POP POP POP POP POP DUP2 MSTORE PUSH1 0x20 ADD PUSH1 0x4 DUP3 ADD PUSH0 SWAP1 SLOAD SWAP1 PUSH2 0x100 EXP SWAP1 DIV PUSH1 0xFF AND ISZERO ISZERO ISZERO ISZERO DUP2 MSTORE PUSH1 0x20 ADD PUSH1 0x5 DUP3 ADD SLOAD DUP2 MSTORE PUSH1 0x20 ADD PUSH1 0x6 DUP3 ADD SLOAD DUP2 MSTORE PUSH1 0x20 ADD PUSH1 0x7 DUP3 ADD SLOAD DUP2 MSTORE POP POP DUP2 MSTORE PUSH1 0x20 ADD SWAP1 PUSH1 0x1 ADD SWAP1 PUSH2 0xA76 JUMP JUMPDEST POP POP POP POP SWAP1 POP SWAP1 JUMP JUMPDEST PUSH1 0x60 PUSH1 0x4 DUP1 SLOAD DUP1 PUSH1 0x20 MUL PUSH1 0x20 ADD PUSH1 0x40 MLOAD SWAP1 DUP2 ADD PUSH1 0x40 MSTORE DUP1 SWAP3 SWAP2 SWAP1 DUP2 DUP2 MSTORE PUSH1 0x20 ADD DUP3 DUP1 SLOAD DUP1 ISZERO PUSH2 0xCDD JUMPI PUSH1 0x20 MUL DUP3 ADD SWAP2 SWAP1 PUSH0 MSTORE PUSH1 0x20 PUSH0 KECCAK256 SWAP1 JUMPDEST DUP2 PUSH0 SWAP1 SLOAD SWAP1 PUSH2 0x100 EXP SWAP1 DIV PUSH20 0xFFFFFFFFFFFFFFFFFFFFFFFFFFFFFFFFFFFFFFFF AND PUSH20 0xFFFFFFFFFFFFFFFFFFFFFFFFFFFFFFFFFFFFFFFF AND DUP2 MSTORE PUSH1 0x20 ADD SWAP1 PUSH1 0x1 ADD SWAP1 DUP1 DUP4 GT PUSH2 0xC94 JUMPI JUMPDEST POP POP POP POP POP SWAP1 POP SWAP1 JUMP JUMPDEST PUSH2 0xCEF PUSH2 0x1A40 JUMP JUMPDEST PUSH2 0xCF8 DUP3 PUSH2 0x1B26 JUMP JUMPDEST PUSH2 0xD02 DUP3 DUP3 PUSH2 0x1B31 JUMP JUMPDEST POP POP JUMP JUMPDEST PUSH0 PUSH2 0xD0F PUSH2 0x1C4F JUMP JUMPDEST PUSH32 0x360894A13BA1A3210667C828492DB98DCA3E2076CC3735A920A3CA505D382BBC PUSH0 SHL SWAP1 POP SWAP1 JUMP JUMPDEST PUSH2 0xD3F PUSH2 0x1CD6 JUMP JUMPDEST PUSH0 JUMPDEST DUP2 MLOAD DUP2 LT ISZERO PUSH2 0xEF9 JUMPI PUSH1 0x1 PUSH0 DUP4 DUP4 DUP2 MLOAD DUP2 LT PUSH2 0xD60 JUMPI PUSH2 0xD5F PUSH2 0x2BA1 JUMP JUMPDEST JUMPDEST PUSH1 0x20 MUL PUSH1 0x20 ADD ADD MLOAD PUSH20 0xFFFFFFFFFFFFFFFFFFFFFFFFFFFFFFFFFFFFFFFF AND PUSH20 0xFFFFFFFFFFFFFFFFFFFFFFFFFFFFFFFFFFFFFFFF AND DUP2 MSTORE PUSH1 0x20 ADD SWAP1 DUP2 MSTORE PUSH1 0x20 ADD PUSH0 KECCAK256 PUSH0 SWAP1 SLOAD SWAP1 PUSH2 0x100 EXP SWAP1 DIV PUSH1 0xFF AND PUSH2 0xEEC JUMPI PUSH1 0x1 DUP1 PUSH0 DUP5 DUP5 DUP2 MLOAD DUP2 LT PUSH2 0xDC9 JUMPI PUSH2 0xDC8 PUSH2 0x2BA1 JUMP JUMPDEST JUMPDEST PUSH1 0x20 MUL PUSH1 0x20 ADD ADD MLOAD PUSH20 0xFFFFFFFFFFFFFFFFFFFFFFFFFFFFFFFFFFFFFFFF AND PUSH20 0xFFFFFFFFFFFFFFFFFFFFFFFFFFFFFFFFFFFFFFFF AND DUP2 MSTORE PUSH1 0x20 ADD SWAP1 DUP2 MSTORE PUSH1 0x20 ADD PUSH0 KECCAK256 PUSH0 PUSH2 0x100 EXP DUP2 SLOAD DUP2 PUSH1 0xFF MUL NOT AND SWAP1 DUP4 ISZERO ISZERO MUL OR SWAP1 SSTORE POP PUSH1 0x3 DUP3 DUP3 DUP2 MLOAD DUP2 LT PUSH2 0xE35 JUMPI PUSH2 0xE34 PUSH2 0x2BA1 JUMP JUMPDEST JUMPDEST PUSH1 0x20 MUL PUSH1 0x20 ADD ADD MLOAD SWAP1 DUP1 PUSH1 0x1 DUP2 SLOAD ADD DUP1 DUP3 SSTORE DUP1 SWAP2 POP POP PUSH1 0x1 SWAP1 SUB SWAP1 PUSH0 MSTORE PUSH1 0x20 PUSH0 KECCAK256 ADD PUSH0 SWAP1 SWAP2 SWAP1 SWAP2 SWAP1 SWAP2 PUSH2 0x100 EXP DUP2 SLOAD DUP2 PUSH20 0xFFFFFFFFFFFFFFFFFFFFFFFFFFFFFFFFFFFFFFFF MUL NOT AND SWAP1 DUP4 PUSH20 0xFFFFFFFFFFFFFFFFFFFFFFFFFFFFFFFFFFFFFFFF AND MUL OR SWAP1 SSTORE POP PUSH32 0x8FFBF603707F31AB466F6B711C89AE5521B6F93B25D3F86200054018476696D6 DUP3 DUP3 DUP2 MLOAD DUP2 LT PUSH2 0xECE JUMPI PUSH2 0xECD PUSH2 0x2BA1 JUMP JUMPDEST JUMPDEST PUSH1 0x20 MUL PUSH1 0x20 ADD ADD MLOAD PUSH1 0x40 MLOAD PUSH2 0xEE3 SWAP2 SWAP1 PUSH2 0x2B08 JUMP JUMPDEST PUSH1 0x40 MLOAD DUP1 SWAP2 SUB SWAP1 LOG1 JUMPDEST DUP1 DUP1 PUSH1 0x1 ADD SWAP2 POP POP PUSH2 0xD41 JUMP JUMPDEST POP POP JUMP JUMPDEST PUSH2 0xF05 PUSH2 0x1CD6 JUMP JUMPDEST PUSH2 0xF0E PUSH0 PUSH2 0x1D5D JUMP JUMPDEST JUMP JUMPDEST PUSH0 PUSH2 0xF19 PUSH2 0x1E2E JUMP JUMPDEST SWAP1 POP PUSH0 DUP2 PUSH0 ADD PUSH1 0x8 SWAP1 SLOAD SWAP1 PUSH2 0x100 EXP SWAP1 DIV PUSH1 0xFF AND ISZERO SWAP1 POP PUSH0 DUP3 PUSH0 ADD PUSH0 SWAP1 SLOAD SWAP1 PUSH2 0x100 EXP SWAP1 DIV PUSH8 0xFFFFFFFFFFFFFFFF AND SWAP1 POP PUSH0 DUP1 DUP3 PUSH8 0xFFFFFFFFFFFFFFFF AND EQ DUP1 ISZERO PUSH2 0xF61 JUMPI POP DUP3 JUMPDEST SWAP1 POP PUSH0 PUSH1 0x1 DUP4 PUSH8 0xFFFFFFFFFFFFFFFF AND EQ DUP1 ISZERO PUSH2 0xF94 JUMPI POP PUSH0 ADDRESS PUSH20 0xFFFFFFFFFFFFFFFFFFFFFFFFFFFFFFFFFFFFFFFF AND EXTCODESIZE EQ JUMPDEST SWAP1 POP DUP2 ISZERO DUP1 ISZERO PUSH2 0xFA2 JUMPI POP DUP1 ISZERO JUMPDEST ISZERO PUSH2 0xFD9 JUMPI PUSH1 0x40 MLOAD PUSH32 0xF92EE8A900000000000000000000000000000000000000000000000000000000 DUP2 MSTORE PUSH1 0x4 ADD PUSH1 0x40 MLOAD DUP1 SWAP2 SUB SWAP1 REVERT JUMPDEST PUSH1 0x1 DUP6 PUSH0 ADD PUSH0 PUSH2 0x100 EXP DUP2 SLOAD DUP2 PUSH8 0xFFFFFFFFFFFFFFFF MUL NOT AND SWAP1 DUP4 PUSH8 0xFFFFFFFFFFFFFFFF AND MUL OR SWAP1 SSTORE POP DUP4 ISZERO PUSH2 0x1026 JUMPI PUSH1 0x1 DUP6 PUSH0 ADD PUSH1 0x8 PUSH2 0x100 EXP DUP2 SLOAD DUP2 PUSH1 0xFF MUL NOT AND SWAP1 DUP4 ISZERO ISZERO MUL OR SWAP1 SSTORE POP JUMPDEST PUSH2 0x102F CALLER PUSH2 0x1E55 JUMP JUMPDEST PUSH2 0x1037 PUSH2 0x1E69 JUMP JUMPDEST CALLER PUSH0 DUP1 PUSH2 0x100 EXP DUP2 SLOAD DUP2 PUSH20 0xFFFFFFFFFFFFFFFFFFFFFFFFFFFFFFFFFFFFFFFF MUL NOT AND SWAP1 DUP4 PUSH20 0xFFFFFFFFFFFFFFFFFFFFFFFFFFFFFFFFFFFFFFFF AND MUL OR SWAP1 SSTORE POP PUSH1 0x5 PUSH1 0x7 DUP2 SWAP1 SSTORE POP DUP4 ISZERO PUSH2 0x10D8 JUMPI PUSH0 DUP6 PUSH0 ADD PUSH1 0x8 PUSH2 0x100 EXP DUP2 SLOAD DUP2 PUSH1 0xFF MUL NOT AND SWAP1 DUP4 ISZERO ISZERO MUL OR SWAP1 SSTORE POP PUSH32 0xC7F505B2F371AE2175EE4913F4499E1F2633A7B5936321EED1CDAEB6115181D2 PUSH1 0x1 PUSH1 0x40 MLOAD PUSH2 0x10CF SWAP2 SWAP1 PUSH2 0x2F62 JUMP JUMPDEST PUSH1 0x40 MLOAD DUP1 SWAP2 SUB SWAP1 LOG1 JUMPDEST POP POP POP POP POP JUMP JUMPDEST PUSH2 0x10E7 PUSH2 0x1CD6 JUMP JUMPDEST PUSH1 0x1 PUSH0 DUP3 PUSH20 0xFFFFFFFFFFFFFFFFFFFFFFFFFFFFFFFFFFFFFFFF AND PUSH20 0xFFFFFFFFFFFFFFFFFFFFFFFFFFFFFFFFFFFFFFFF AND DUP2 MSTORE PUSH1 0x20 ADD SWAP1 DUP2 MSTORE PUSH1 0x20 ADD PUSH0 KECCAK256 PUSH0 SWAP1 SLOAD SWAP1 PUSH2 0x100 EXP SWAP1 DIV PUSH1 0xFF AND ISZERO PUSH2 0x1171 JUMPI PUSH1 0x40 MLOAD PUSH32 0x8C379A000000000000000000000000000000000000000000000000000000000 DUP2 MSTORE PUSH1 0x4 ADD PUSH2 0x1168 SWAP1 PUSH2 0x2FC5 JUMP JUMPDEST PUSH1 0x40 MLOAD DUP1 SWAP2 SUB SWAP1 REVERT JUMPDEST PUSH1 0x2 PUSH0 DUP3 PUSH20 0xFFFFFFFFFFFFFFFFFFFFFFFFFFFFFFFFFFFFFFFF AND PUSH20 0xFFFFFFFFFFFFFFFFFFFFFFFFFFFFFFFFFFFFFFFF AND DUP2 MSTORE PUSH1 0x20 ADD SWAP1 DUP2 MSTORE PUSH1 0x20 ADD PUSH0 KECCAK256 PUSH0 PUSH2 0x100 EXP DUP2 SLOAD SWAP1 PUSH1 0xFF MUL NOT AND SWAP1 SSTORE PUSH0 JUMPDEST PUSH1 0x4 DUP1 SLOAD SWAP1 POP DUP2 LT ISZERO PUSH2 0x1336 JUMPI DUP2 PUSH20 0xFFFFFFFFFFFFFFFFFFFFFFFFFFFFFFFFFFFFFFFF AND PUSH1 0x4 DUP3 DUP2 SLOAD DUP2 LT PUSH2 0x11F7 JUMPI PUSH2 0x11F6 PUSH2 0x2BA1 JUMP JUMPDEST JUMPDEST SWAP1 PUSH0 MSTORE PUSH1 0x20 PUSH0 KECCAK256 ADD PUSH0 SWAP1 SLOAD SWAP1 PUSH2 0x100 EXP SWAP1 DIV PUSH20 0xFFFFFFFFFFFFFFFFFFFFFFFFFFFFFFFFFFFFFFFF AND PUSH20 0xFFFFFFFFFFFFFFFFFFFFFFFFFFFFFFFFFFFFFFFF AND SUB PUSH2 0x1329 JUMPI PUSH1 0x4 PUSH1 0x1 PUSH1 0x4 DUP1 SLOAD SWAP1 POP PUSH2 0x124E SWAP2 SWAP1 PUSH2 0x2FE3 JUMP JUMPDEST DUP2 SLOAD DUP2 LT PUSH2 0x125F JUMPI PUSH2 0x125E PUSH2 0x2BA1 JUMP JUMPDEST JUMPDEST SWAP1 PUSH0 MSTORE PUSH1 0x20 PUSH0 KECCAK256 ADD PUSH0 SWAP1 SLOAD SWAP1 PUSH2 0x100 EXP SWAP1 DIV PUSH20 0xFFFFFFFFFFFFFFFFFFFFFFFFFFFFFFFFFFFFFFFF AND PUSH1 0x4 DUP3 DUP2 SLOAD DUP2 LT PUSH2 0x129B JUMPI PUSH2 0x129A PUSH2 0x2BA1 JUMP JUMPDEST JUMPDEST SWAP1 PUSH0 MSTORE PUSH1 0x20 PUSH0 KECCAK256 ADD PUSH0 PUSH2 0x100 EXP DUP2 SLOAD DUP2 PUSH20 0xFFFFFFFFFFFFFFFFFFFFFFFFFFFFFFFFFFFFFFFF MUL NOT AND SWAP1 DUP4 PUSH20 0xFFFFFFFFFFFFFFFFFFFFFFFFFFFFFFFFFFFFFFFF AND MUL OR SWAP1 SSTORE POP PUSH1 0x4 DUP1 SLOAD DUP1 PUSH2 0x12F2 JUMPI PUSH2 0x12F1 PUSH2 0x3016 JUMP JUMPDEST JUMPDEST PUSH1 0x1 SWAP1 SUB DUP2 DUP2 SWAP1 PUSH0 MSTORE PUSH1 0x20 PUSH0 KECCAK256 ADD PUSH0 PUSH2 0x100 EXP DUP2 SLOAD SWAP1 PUSH20 0xFFFFFFFFFFFFFFFFFFFFFFFFFFFFFFFFFFFFFFFF MUL NOT AND SWAP1 SSTORE SWAP1 SSTORE PUSH2 0x1336 JUMP JUMPDEST DUP1 DUP1 PUSH1 0x1 ADD SWAP2 POP POP PUSH2 0x11BF JUMP JUMPDEST POP PUSH1 0x1 DUP1 PUSH0 DUP4 PUSH20 0xFFFFFFFFFFFFFFFFFFFFFFFFFFFFFFFFFFFFFFFF AND PUSH20 0xFFFFFFFFFFFFFFFFFFFFFFFFFFFFFFFFFFFFFFFF AND DUP2 MSTORE PUSH1 0x20 ADD SWAP1 DUP2 MSTORE PUSH1 0x20 ADD PUSH0 KECCAK256 PUSH0 PUSH2 0x100 EXP DUP2 SLOAD DUP2 PUSH1 0xFF MUL NOT AND SWAP1 DUP4 ISZERO ISZERO MUL OR SWAP1 SSTORE POP PUSH1 0x3 DUP2 SWAP1 DUP1 PUSH1 0x1 DUP2 SLOAD ADD DUP1 DUP3 SSTORE DUP1 SWAP2 POP POP PUSH1 0x1 SWAP1 SUB SWAP1 PUSH0 MSTORE PUSH1 0x20 PUSH0 KECCAK256 ADD PUSH0 SWAP1 SWAP2 SWAP1 SWAP2 SWAP1 SWAP2 PUSH2 0x100 EXP DUP2 SLOAD DUP2 PUSH20 0xFFFFFFFFFFFFFFFFFFFFFFFFFFFFFFFFFFFFFFFF MUL NOT AND SWAP1 DUP4 PUSH20 0xFFFFFFFFFFFFFFFFFFFFFFFFFFFFFFFFFFFFFFFF AND MUL OR SWAP1 SSTORE POP PUSH1 0x6 PUSH0 DUP2 SLOAD DUP1 SWAP3 SWAP2 SWAP1 PUSH2 0x13FD SWAP1 PUSH2 0x2E42 JUMP JUMPDEST SWAP2 SWAP1 POP SSTORE POP PUSH32 0x8FFBF603707F31AB466F6B711C89AE5521B6F93B25D3F86200054018476696D6 DUP2 PUSH1 0x40 MLOAD PUSH2 0x1431 SWAP2 SWAP1 PUSH2 0x2B08 JUMP JUMPDEST PUSH1 0x40 MLOAD DUP1 SWAP2 SUB SWAP1 LOG1 POP JUMP JUMPDEST PUSH0 DUP1 PUSH2 0x1446 PUSH2 0x1E73 JUMP JUMPDEST SWAP1 POP DUP1 PUSH0 ADD PUSH0 SWAP1 SLOAD SWAP1 PUSH2 0x100 EXP SWAP1 DIV PUSH20 0xFFFFFFFFFFFFFFFFFFFFFFFFFFFFFFFFFFFFFFFF AND SWAP2 POP POP SWAP1 JUMP JUMPDEST PUSH1 0x1 PUSH0 CALLER PUSH20 0xFFFFFFFFFFFFFFFFFFFFFFFFFFFFFFFFFFFFFFFF AND PUSH20 0xFFFFFFFFFFFFFFFFFFFFFFFFFFFFFFFFFFFFFFFF AND DUP2 MSTORE PUSH1 0x20 ADD SWAP1 DUP2 MSTORE PUSH1 0x20 ADD PUSH0 KECCAK256 PUSH0 SWAP1 SLOAD SWAP1 PUSH2 0x100 EXP SWAP1 DIV PUSH1 0xFF AND PUSH2 0x14FA JUMPI PUSH1 0x40 MLOAD PUSH32 0x8C379A000000000000000000000000000000000000000000000000000000000 DUP2 MSTORE PUSH1 0x4 ADD PUSH2 0x14F1 SWAP1 PUSH2 0x2D69 JUMP JUMPDEST PUSH1 0x40 MLOAD DUP1 SWAP2 SUB SWAP1 REVERT JUMPDEST PUSH0 PUSH1 0x5 DUP3 DUP2 SLOAD DUP2 LT PUSH2 0x150F JUMPI PUSH2 0x150E PUSH2 0x2BA1 JUMP JUMPDEST JUMPDEST SWAP1 PUSH0 MSTORE PUSH1 0x20 PUSH0 KECCAK256 SWAP1 PUSH1 0x8 MUL ADD SWAP1 POP DUP1 PUSH1 0x3 ADD CALLER SWAP1 DUP1 PUSH1 0x1 DUP2 SLOAD ADD DUP1 DUP3 SSTORE DUP1 SWAP2 POP POP PUSH1 0x1 SWAP1 SUB SWAP1 PUSH0 MSTORE PUSH1 0x20 PUSH0 KECCAK256 ADD PUSH0 SWAP1 SWAP2 SWAP1 SWAP2 SWAP1 SWAP2 PUSH2 0x100 EXP DUP2 SLOAD DUP2 PUSH20 0xFFFFFFFFFFFFFFFFFFFFFFFFFFFFFFFFFFFFFFFF MUL NOT AND SWAP1 DUP4 PUSH20 0xFFFFFFFFFFFFFFFFFFFFFFFFFFFFFFFFFFFFFFFF AND MUL OR SWAP1 SSTORE POP DUP1 PUSH1 0x7 ADD PUSH0 DUP2 SLOAD DUP1 SWAP3 SWAP2 SWAP1 PUSH2 0x1593 SWAP1 PUSH2 0x2E42 JUMP JUMPDEST SWAP2 SWAP1 POP SSTORE POP PUSH32 0x51E2A629616D21B16F9D1D2549B4B88ABA4D3B132F12A47EF7696E4A4263D1E8 DUP3 CALLER PUSH1 0x40 MLOAD PUSH2 0x15C9 SWAP3 SWAP2 SWAP1 PUSH2 0x2EE6 JUMP JUMPDEST PUSH1 0x40 MLOAD DUP1 SWAP2 SUB SWAP1 LOG1 POP POP JUMP JUMPDEST PUSH1 0x40 MLOAD DUP1 PUSH1 0x40 ADD PUSH1 0x40 MSTORE DUP1 PUSH1 0x5 DUP2 MSTORE PUSH1 0x20 ADD PUSH32 0x352E302E30000000000000000000000000000000000000000000000000000000 DUP2 MSTORE POP DUP2 JUMP JUMPDEST PUSH0 SELFBALANCE SWAP1 POP SWAP1 JUMP JUMPDEST PUSH1 0x60 PUSH1 0x3 DUP1 SLOAD DUP1 PUSH1 0x20 MUL PUSH1 0x20 ADD PUSH1 0x40 MLOAD SWAP1 DUP2 ADD PUSH1 0x40 MSTORE DUP1 SWAP3 SWAP2 SWAP1 DUP2 DUP2 MSTORE PUSH1 0x20 ADD DUP3 DUP1 SLOAD DUP1 ISZERO PUSH2 0x1696 JUMPI PUSH1 0x20 MUL DUP3 ADD SWAP2 SWAP1 PUSH0 MSTORE PUSH1 0x20 PUSH0 KECCAK256 SWAP1 JUMPDEST DUP2 PUSH0 SWAP1 SLOAD SWAP1 PUSH2 0x100 EXP SWAP1 DIV PUSH20 0xFFFFFFFFFFFFFFFFFFFFFFFFFFFFFFFFFFFFFFFF AND PUSH20 0xFFFFFFFFFFFFFFFFFFFFFFFFFFFFFFFFFFFFFFFF AND DUP2 MSTORE PUSH1 0x20 ADD SWAP1 PUSH1 0x1 ADD SWAP1 DUP1 DUP4 GT PUSH2 0x164D JUMPI JUMPDEST POP POP POP POP POP SWAP1 POP SWAP1 JUMP JUMPDEST PUSH1 0x1 PUSH0 DUP3 PUSH20 0xFFFFFFFFFFFFFFFFFFFFFFFFFFFFFFFFFFFFFFFF AND PUSH20 0xFFFFFFFFFFFFFFFFFFFFFFFFFFFFFFFFFFFFFFFF AND DUP2 MSTORE PUSH1 0x20 ADD SWAP1 DUP2 MSTORE PUSH1 0x20 ADD PUSH0 KECCAK256 PUSH0 SWAP1 SLOAD SWAP1 PUSH2 0x100 EXP SWAP1 DIV PUSH1 0xFF AND ISZERO PUSH2 0x172A JUMPI PUSH1 0x40 MLOAD PUSH32 0x8C379A000000000000000000000000000000000000000000000000000000000 DUP2 MSTORE PUSH1 0x4 ADD PUSH2 0x1721 SWAP1 PUSH2 0x308D JUMP JUMPDEST PUSH1 0x40 MLOAD DUP1 SWAP2 SUB SWAP1 REVERT JUMPDEST PUSH1 0x2 PUSH0 DUP3 PUSH20 0xFFFFFFFFFFFFFFFFFFFFFFFFFFFFFFFFFFFFFFFF AND PUSH20 0xFFFFFFFFFFFFFFFFFFFFFFFFFFFFFFFFFFFFFFFF AND DUP2 MSTORE PUSH1 0x20 ADD SWAP1 DUP2 MSTORE PUSH1 0x20 ADD PUSH0 KECCAK256 PUSH0 SWAP1 SLOAD SWAP1 PUSH2 0x100 EXP SWAP1 DIV PUSH1 0xFF AND ISZERO PUSH2 0x17B4 JUMPI PUSH1 0x40 MLOAD PUSH32 0x8C379A000000000000000000000000000000000000000000000000000000000 DUP2 MSTORE PUSH1 0x4 ADD PUSH2 0x17AB SWAP1 PUSH2 0x30F5 JUMP JUMPDEST PUSH1 0x40 MLOAD DUP1 SWAP2 SUB SWAP1 REVERT JUMPDEST PUSH1 0x4 DUP2 SWAP1 DUP1 PUSH1 0x1 DUP2 SLOAD ADD DUP1 DUP3 SSTORE DUP1 SWAP2 POP POP PUSH1 0x1 SWAP1 SUB SWAP1 PUSH0 MSTORE PUSH1 0x20 PUSH0 KECCAK256 ADD PUSH0 SWAP1 SWAP2 SWAP1 SWAP2 SWAP1 SWAP2 PUSH2 0x100 EXP DUP2 SLOAD DUP2 PUSH20 0xFFFFFFFFFFFFFFFFFFFFFFFFFFFFFFFFFFFFFFFF MUL NOT AND SWAP1 DUP4 PUSH20 0xFFFFFFFFFFFFFFFFFFFFFFFFFFFFFFFFFFFFFFFF AND MUL OR SWAP1 SSTORE POP PUSH1 0x1 PUSH1 0x2 PUSH0 DUP4 PUSH20 0xFFFFFFFFFFFFFFFFFFFFFFFFFFFFFFFFFFFFFFFF AND PUSH20 0xFFFFFFFFFFFFFFFFFFFFFFFFFFFFFFFFFFFFFFFF AND DUP2 MSTORE PUSH1 0x20 ADD SWAP1 DUP2 MSTORE PUSH1 0x20 ADD PUSH0 KECCAK256 PUSH0 PUSH2 0x100 EXP DUP2 SLOAD DUP2 PUSH1 0xFF MUL NOT AND SWAP1 DUP4 ISZERO ISZERO MUL OR SWAP1 SSTORE POP PUSH32 0x626E4500941465F8684AB220D11D81F3A776C4ED7010715F25CD8E772DCBB484 DUP2 PUSH1 0x40 MLOAD PUSH2 0x1898 SWAP2 SWAP1 PUSH2 0x2B08 JUMP JUMPDEST PUSH1 0x40 MLOAD DUP1 SWAP2 SUB SWAP1 LOG1 POP JUMP JUMPDEST PUSH2 0x18AB PUSH2 0x1CD6 JUMP JUMPDEST PUSH0 PUSH20 0xFFFFFFFFFFFFFFFFFFFFFFFFFFFFFFFFFFFFFFFF AND DUP2 PUSH20 0xFFFFFFFFFFFFFFFFFFFFFFFFFFFFFFFFFFFFFFFF AND SUB PUSH2 0x191B JUMPI PUSH0 PUSH1 0x40 MLOAD PUSH32 0x1E4FBDF700000000000000000000000000000000000000000000000000000000 DUP2 MSTORE PUSH1 0x4 ADD PUSH2 0x1912 SWAP2 SWAP1 PUSH2 0x2B08 JUMP JUMPDEST PUSH1 0x40 MLOAD DUP1 SWAP2 SUB SWAP1 REVERT JUMPDEST PUSH2 0x1924 DUP2 PUSH2 0x1D5D JUMP JUMPDEST POP JUMP JUMPDEST PUSH0 DUP2 PUSH20 0xFFFFFFFFFFFFFFFFFFFFFFFFFFFFFFFFFFFFFFFF AND BALANCE SWAP1 POP SWAP2 SWAP1 POP JUMP JUMPDEST JUMP JUMPDEST PUSH0 DUP2 DUP4 GT PUSH2 0x1957 JUMPI DUP2 PUSH2 0x1959 JUMP JUMPDEST DUP3 JUMPDEST SWAP1 POP SWAP3 SWAP2 POP POP JUMP JUMPDEST PUSH0 DUP1 PUSH1 0x5 DUP4 DUP2 SLOAD DUP2 LT PUSH2 0x1977 JUMPI PUSH2 0x1976 PUSH2 0x2BA1 JUMP JUMPDEST JUMPDEST SWAP1 PUSH0 MSTORE PUSH1 0x20 PUSH0 KECCAK256 SWAP1 PUSH1 0x8 MUL ADD SWAP1 POP PUSH0 DUP2 PUSH0 ADD PUSH0 SWAP1 SLOAD SWAP1 PUSH2 0x100 EXP SWAP1 DIV PUSH20 0xFFFFFFFFFFFFFFFFFFFFFFFFFFFFFFFFFFFFFFFF AND PUSH20 0xFFFFFFFFFFFFFFFFFFFFFFFFFFFFFFFFFFFFFFFF AND DUP3 PUSH1 0x1 ADD SLOAD PUSH1 0x40 MLOAD PUSH2 0x19D0 SWAP1 PUSH2 0x3140 JUMP JUMPDEST PUSH0 PUSH1 0x40 MLOAD DUP1 DUP4 SUB DUP2 DUP6 DUP8 GAS CALL SWAP3 POP POP POP RETURNDATASIZE DUP1 PUSH0 DUP2 EQ PUSH2 0x1A0A JUMPI PUSH1 0x40 MLOAD SWAP2 POP PUSH1 0x1F NOT PUSH1 0x3F RETURNDATASIZE ADD AND DUP3 ADD PUSH1 0x40 MSTORE RETURNDATASIZE DUP3 MSTORE RETURNDATASIZE PUSH0 PUSH1 0x20 DUP5 ADD RETURNDATACOPY PUSH2 0x1A0F JUMP JUMPDEST PUSH1 0x60 SWAP2 POP JUMPDEST POP POP SWAP1 POP DUP1 ISZERO PUSH2 0x1A36 JUMPI PUSH1 0x1 DUP3 PUSH1 0x4 ADD PUSH0 PUSH2 0x100 EXP DUP2 SLOAD DUP2 PUSH1 0xFF MUL NOT AND SWAP1 DUP4 ISZERO ISZERO MUL OR SWAP1 SSTORE POP JUMPDEST DUP1 SWAP3 POP POP POP SWAP2 SWAP1 POP JUMP JUMPDEST PUSH32 0x0 PUSH20 0xFFFFFFFFFFFFFFFFFFFFFFFFFFFFFFFFFFFFFFFF AND ADDRESS PUSH20 0xFFFFFFFFFFFFFFFFFFFFFFFFFFFFFFFFFFFFFFFF AND EQ DUP1 PUSH2 0x1AED JUMPI POP PUSH32 0x0 PUSH20 0xFFFFFFFFFFFFFFFFFFFFFFFFFFFFFFFFFFFFFFFF AND PUSH2 0x1AD4 PUSH2 0x1E9A JUMP JUMPDEST PUSH20 0xFFFFFFFFFFFFFFFFFFFFFFFFFFFFFFFFFFFFFFFF AND EQ ISZERO JUMPDEST ISZERO PUSH2 0x1B24 JUMPI PUSH1 0x40 MLOAD PUSH32 0xE07C8DBA00000000000000000000000000000000000000000000000000000000 DUP2 MSTORE PUSH1 0x4 ADD PUSH1 0x40 MLOAD DUP1 SWAP2 SUB SWAP1 REVERT JUMPDEST JUMP JUMPDEST PUSH2 0x1B2E PUSH2 0x1CD6 JUMP JUMPDEST POP JUMP JUMPDEST DUP2 PUSH20 0xFFFFFFFFFFFFFFFFFFFFFFFFFFFFFFFFFFFFFFFF AND PUSH4 0x52D1902D PUSH1 0x40 MLOAD DUP2 PUSH4 0xFFFFFFFF AND PUSH1 0xE0 SHL DUP2 MSTORE PUSH1 0x4 ADD PUSH1 0x20 PUSH1 0x40 MLOAD DUP1 DUP4 SUB DUP2 DUP7 GAS STATICCALL SWAP3 POP POP POP DUP1 ISZERO PUSH2 0x1B99 JUMPI POP PUSH1 0x40 MLOAD RETURNDATASIZE PUSH1 0x1F NOT PUSH1 0x1F DUP3 ADD AND DUP3 ADD DUP1 PUSH1 0x40 MSTORE POP DUP2 ADD SWAP1 PUSH2 0x1B96 SWAP2 SWAP1 PUSH2 0x317E JUMP JUMPDEST PUSH1 0x1 JUMPDEST PUSH2 0x1BDA JUMPI DUP2 PUSH1 0x40 MLOAD PUSH32 0x4C9C8CE300000000000000000000000000000000000000000000000000000000 DUP2 MSTORE PUSH1 0x4 ADD PUSH2 0x1BD1 SWAP2 SWAP1 PUSH2 0x2B08 JUMP JUMPDEST PUSH1 0x40 MLOAD DUP1 SWAP2 SUB SWAP1 REVERT JUMPDEST PUSH32 0x360894A13BA1A3210667C828492DB98DCA3E2076CC3735A920A3CA505D382BBC PUSH0 SHL DUP2 EQ PUSH2 0x1C40 JUMPI DUP1 PUSH1 0x40 MLOAD PUSH32 0xAA1D49A400000000000000000000000000000000000000000000000000000000 DUP2 MSTORE PUSH1 0x4 ADD PUSH2 0x1C37 SWAP2 SWAP1 PUSH2 0x29AA JUMP JUMPDEST PUSH1 0x40 MLOAD DUP1 SWAP2 SUB SWAP1 REVERT JUMPDEST PUSH2 0x1C4A DUP4 DUP4 PUSH2 0x1EED JUMP JUMPDEST POP POP POP JUMP JUMPDEST PUSH32 0x0 PUSH20 0xFFFFFFFFFFFFFFFFFFFFFFFFFFFFFFFFFFFFFFFF AND ADDRESS PUSH20 0xFFFFFFFFFFFFFFFFFFFFFFFFFFFFFFFFFFFFFFFF AND EQ PUSH2 0x1CD4 JUMPI PUSH1 0x40 MLOAD PUSH32 0xE07C8DBA00000000000000000000000000000000000000000000000000000000 DUP2 MSTORE PUSH1 0x4 ADD PUSH1 0x40 MLOAD DUP1 SWAP2 SUB SWAP1 REVERT JUMPDEST JUMP JUMPDEST PUSH2 0x1CDE PUSH2 0x1F5F JUMP JUMPDEST PUSH20 0xFFFFFFFFFFFFFFFFFFFFFFFFFFFFFFFFFFFFFFFF AND PUSH2 0x1CFC PUSH2 0x143C JUMP JUMPDEST PUSH20 0xFFFFFFFFFFFFFFFFFFFFFFFFFFFFFFFFFFFFFFFF AND EQ PUSH2 0x1D5B JUMPI PUSH2 0x1D1F PUSH2 0x1F5F JUMP JUMPDEST PUSH1 0x40 MLOAD PUSH32 0x118CDAA700000000000000000000000000000000000000000000000000000000 DUP2 MSTORE PUSH1 0x4 ADD PUSH2 0x1D52 SWAP2 SWAP1 PUSH2 0x2B08 JUMP JUMPDEST PUSH1 0x40 MLOAD DUP1 SWAP2 SUB SWAP1 REVERT JUMPDEST JUMP JUMPDEST PUSH0 PUSH2 0x1D66 PUSH2 0x1E73 JUMP JUMPDEST SWAP1 POP PUSH0 DUP2 PUSH0 ADD PUSH0 SWAP1 SLOAD SWAP1 PUSH2 0x100 EXP SWAP1 DIV PUSH20 0xFFFFFFFFFFFFFFFFFFFFFFFFFFFFFFFFFFFFFFFF AND SWAP1 POP DUP3 DUP3 PUSH0 ADD PUSH0 PUSH2 0x100 EXP DUP2 SLOAD DUP2 PUSH20 0xFFFFFFFFFFFFFFFFFFFFFFFFFFFFFFFFFFFFFFFF MUL NOT AND SWAP1 DUP4 PUSH20 0xFFFFFFFFFFFFFFFFFFFFFFFFFFFFFFFFFFFFFFFF AND MUL OR SWAP1 SSTORE POP DUP3 PUSH20 0xFFFFFFFFFFFFFFFFFFFFFFFFFFFFFFFFFFFFFFFF AND DUP2 PUSH20 0xFFFFFFFFFFFFFFFFFFFFFFFFFFFFFFFFFFFFFFFF AND PUSH32 0x8BE0079C531659141344CD1FD0A4F28419497F9722A3DAAFE3B4186F6B6457E0 PUSH1 0x40 MLOAD PUSH1 0x40 MLOAD DUP1 SWAP2 SUB SWAP1 LOG3 POP POP POP JUMP JUMPDEST PUSH0 PUSH32 0xF0C57E16840DF040F15088DC2F81FE391C3923BEC73E23A9662EFC9C229C6A00 SWAP1 POP SWAP1 JUMP JUMPDEST PUSH2 0x1E5D PUSH2 0x1F66 JUMP JUMPDEST PUSH2 0x1E66 DUP2 PUSH2 0x1FA6 JUMP JUMPDEST POP JUMP JUMPDEST PUSH2 0x1E71 PUSH2 0x1F66 JUMP JUMPDEST JUMP JUMPDEST PUSH0 PUSH32 0x9016D09D72D40FDAE2FD8CEAC6B6234C7706214FD39C1CD1E609A0528C199300 SWAP1 POP SWAP1 JUMP JUMPDEST PUSH0 PUSH2 0x1EC6 PUSH32 0x360894A13BA1A3210667C828492DB98DCA3E2076CC3735A920A3CA505D382BBC PUSH0 SHL PUSH2 0x202A JUMP JUMPDEST PUSH0 ADD PUSH0 SWAP1 SLOAD SWAP1 PUSH2 0x100 EXP SWAP1 DIV PUSH20 0xFFFFFFFFFFFFFFFFFFFFFFFFFFFFFFFFFFFFFFFF AND SWAP1 POP SWAP1 JUMP JUMPDEST PUSH2 0x1EF6 DUP3 PUSH2 0x2033 JUMP JUMPDEST DUP2 PUSH20 0xFFFFFFFFFFFFFFFFFFFFFFFFFFFFFFFFFFFFFFFF AND PUSH32 0xBC7CD75A20EE27FD9ADEBAB32041F755214DBC6BFFA90CC0225B39DA2E5C2D3B PUSH1 0x40 MLOAD PUSH1 0x40 MLOAD DUP1 SWAP2 SUB SWAP1 LOG2 PUSH0 DUP2 MLOAD GT ISZERO PUSH2 0x1F52 JUMPI PUSH2 0x1F4C DUP3 DUP3 PUSH2 0x20FC JUMP JUMPDEST POP PUSH2 0x1F5B JUMP JUMPDEST PUSH2 0x1F5A PUSH2 0x217C JUMP JUMPDEST JUMPDEST POP POP JUMP JUMPDEST PUSH0 CALLER SWAP1 POP SWAP1 JUMP JUMPDEST PUSH2 0x1F6E PUSH2 0x21B8 JUMP JUMPDEST PUSH2 0x1FA4 JUMPI PUSH1 0x40 MLOAD PUSH32 0xD7E6BCF800000000000000000000000000000000000000000000000000000000 DUP2 MSTORE PUSH1 0x4 ADD PUSH1 0x40 MLOAD DUP1 SWAP2 SUB SWAP1 REVERT JUMPDEST JUMP JUMPDEST PUSH2 0x1FAE PUSH2 0x1F66 JUMP JUMPDEST PUSH0 PUSH20 0xFFFFFFFFFFFFFFFFFFFFFFFFFFFFFFFFFFFFFFFF AND DUP2 PUSH20 0xFFFFFFFFFFFFFFFFFFFFFFFFFFFFFFFFFFFFFFFF AND SUB PUSH2 0x201E JUMPI PUSH0 PUSH1 0x40 MLOAD PUSH32 0x1E4FBDF700000000000000000000000000000000000000000000000000000000 DUP2 MSTORE PUSH1 0x4 ADD PUSH2 0x2015 SWAP2 SWAP1 PUSH2 0x2B08 JUMP JUMPDEST PUSH1 0x40 MLOAD DUP1 SWAP2 SUB SWAP1 REVERT JUMPDEST PUSH2 0x2027 DUP2 PUSH2 0x1D5D JUMP JUMPDEST POP JUMP JUMPDEST PUSH0 DUP2 SWAP1 POP SWAP2 SWAP1 POP JUMP JUMPDEST PUSH0 DUP2 PUSH20 0xFFFFFFFFFFFFFFFFFFFFFFFFFFFFFFFFFFFFFFFF AND EXTCODESIZE SUB PUSH2 0x208E JUMPI DUP1 PUSH1 0x40 MLOAD PUSH32 0x4C9C8CE300000000000000000000000000000000000000000000000000000000 DUP2 MSTORE PUSH1 0x4 ADD PUSH2 0x2085 SWAP2 SWAP1 PUSH2 0x2B08 JUMP JUMPDEST PUSH1 0x40 MLOAD DUP1 SWAP2 SUB SWAP1 REVERT JUMPDEST DUP1 PUSH2 0x20BA PUSH32 0x360894A13BA1A3210667C828492DB98DCA3E2076CC3735A920A3CA505D382BBC PUSH0 SHL PUSH2 0x202A JUMP JUMPDEST PUSH0 ADD PUSH0 PUSH2 0x100 EXP DUP2 SLOAD DUP2 PUSH20 0xFFFFFFFFFFFFFFFFFFFFFFFFFFFFFFFFFFFFFFFF MUL NOT AND SWAP1 DUP4 PUSH20 0xFFFFFFFFFFFFFFFFFFFFFFFFFFFFFFFFFFFFFFFF AND MUL OR SWAP1 SSTORE POP POP JUMP JUMPDEST PUSH1 0x60 PUSH0 DUP1 DUP5 PUSH20 0xFFFFFFFFFFFFFFFFFFFFFFFFFFFFFFFFFFFFFFFF AND DUP5 PUSH1 0x40 MLOAD PUSH2 0x2125 SWAP2 SWAP1 PUSH2 0x31E3 JUMP JUMPDEST PUSH0 PUSH1 0x40 MLOAD DUP1 DUP4 SUB DUP2 DUP6 GAS DELEGATECALL SWAP2 POP POP RETURNDATASIZE DUP1 PUSH0 DUP2 EQ PUSH2 0x215D JUMPI PUSH1 0x40 MLOAD SWAP2 POP PUSH1 0x1F NOT PUSH1 0x3F RETURNDATASIZE ADD AND DUP3 ADD PUSH1 0x40 MSTORE RETURNDATASIZE DUP3 MSTORE RETURNDATASIZE PUSH0 PUSH1 0x20 DUP5 ADD RETURNDATACOPY PUSH2 0x2162 JUMP JUMPDEST PUSH1 0x60 SWAP2 POP JUMPDEST POP SWAP2 POP SWAP2 POP PUSH2 0x2172 DUP6 DUP4 DUP4 PUSH2 0x21D6 JUMP JUMPDEST SWAP3 POP POP POP SWAP3 SWAP2 POP POP JUMP JUMPDEST PUSH0 CALLVALUE GT ISZERO PUSH2 0x21B6 JUMPI PUSH1 0x40 MLOAD PUSH32 0xB398979F00000000000000000000000000000000000000000000000000000000 DUP2 MSTORE PUSH1 0x4 ADD PUSH1 0x40 MLOAD DUP1 SWAP2 SUB SWAP1 REVERT JUMPDEST JUMP JUMPDEST PUSH0 PUSH2 0x21C1 PUSH2 0x1E2E JUMP JUMPDEST PUSH0 ADD PUSH1 0x8 SWAP1 SLOAD SWAP1 PUSH2 0x100 EXP SWAP1 DIV PUSH1 0xFF AND SWAP1 POP SWAP1 JUMP JUMPDEST PUSH1 0x60 DUP3 PUSH2 0x21EB JUMPI PUSH2 0x21E6 DUP3 PUSH2 0x2263 JUMP JUMPDEST PUSH2 0x225B JUMP JUMPDEST PUSH0 DUP3 MLOAD EQ DUP1 ISZERO PUSH2 0x2211 JUMPI POP PUSH0 DUP5 PUSH20 0xFFFFFFFFFFFFFFFFFFFFFFFFFFFFFFFFFFFFFFFF AND EXTCODESIZE EQ JUMPDEST ISZERO PUSH2 0x2253 JUMPI DUP4 PUSH1 0x40 MLOAD PUSH32 0x9996B31500000000000000000000000000000000000000000000000000000000 DUP2 MSTORE PUSH1 0x4 ADD PUSH2 0x224A SWAP2 SWAP1 PUSH2 0x2B08 JUMP JUMPDEST PUSH1 0x40 MLOAD DUP1 SWAP2 SUB SWAP1 REVERT JUMPDEST DUP2 SWAP1 POP PUSH2 0x225C JUMP JUMPDEST JUMPDEST SWAP4 SWAP3 POP POP POP JUMP JUMPDEST PUSH0 DUP2 MLOAD GT ISZERO PUSH2 0x2275 JUMPI DUP1 MLOAD DUP1 DUP3 PUSH1 0x20 ADD REVERT JUMPDEST PUSH1 0x40 MLOAD PUSH32 0x1425EA4200000000000000000000000000000000000000000000000000000000 DUP2 MSTORE PUSH1 0x4 ADD PUSH1 0x40 MLOAD DUP1 SWAP2 SUB SWAP1 REVERT JUMPDEST PUSH1 0x40 MLOAD DUP1 PUSH2 0x100 ADD PUSH1 0x40 MSTORE DUP1 PUSH0 PUSH20 0xFFFFFFFFFFFFFFFFFFFFFFFFFFFFFFFFFFFFFFFF AND DUP2 MSTORE PUSH1 0x20 ADD PUSH0 DUP2 MSTORE PUSH1 0x20 ADD PUSH1 0x60 DUP2 MSTORE PUSH1 0x20 ADD PUSH1 0x60 DUP2 MSTORE PUSH1 0x20 ADD PUSH0 ISZERO ISZERO DUP2 MSTORE PUSH1 0x20 ADD PUSH0 DUP2 MSTORE PUSH1 0x20 ADD PUSH0 DUP2 MSTORE PUSH1 0x20 ADD PUSH0 DUP2 MSTORE POP SWAP1 JUMP JUMPDEST PUSH0 PUSH1 0x40 MLOAD SWAP1 POP SWAP1 JUMP JUMPDEST PUSH0 DUP1 REVERT JUMPDEST PUSH0 DUP1 REVERT JUMPDEST PUSH0 DUP2 SWAP1 POP SWAP2 SWAP1 POP JUMP JUMPDEST PUSH2 0x2321 DUP2 PUSH2 0x230F JUMP JUMPDEST DUP2 EQ PUSH2 0x232B JUMPI PUSH0 DUP1 REVERT JUMPDEST POP JUMP JUMPDEST PUSH0 DUP2 CALLDATALOAD SWAP1 POP PUSH2 0x233C DUP2 PUSH2 0x2318 JUMP JUMPDEST SWAP3 SWAP2 POP POP JUMP JUMPDEST PUSH0 PUSH1 0x20 DUP3 DUP5 SUB SLT ISZERO PUSH2 0x2357 JUMPI PUSH2 0x2356 PUSH2 0x2307 JUMP JUMPDEST JUMPDEST PUSH0 PUSH2 0x2364 DUP5 DUP3 DUP6 ADD PUSH2 0x232E JUMP JUMPDEST SWAP2 POP POP SWAP3 SWAP2 POP POP JUMP JUMPDEST PUSH0 PUSH20 0xFFFFFFFFFFFFFFFFFFFFFFFFFFFFFFFFFFFFFFFF DUP3 AND SWAP1 POP SWAP2 SWAP1 POP JUMP JUMPDEST PUSH0 PUSH2 0x2396 DUP3 PUSH2 0x236D JUMP JUMPDEST SWAP1 POP SWAP2 SWAP1 POP JUMP JUMPDEST PUSH2 0x23A6 DUP2 PUSH2 0x238C JUMP JUMPDEST DUP3 MSTORE POP POP JUMP JUMPDEST PUSH2 0x23B5 DUP2 PUSH2 0x230F JUMP JUMPDEST DUP3 MSTORE POP POP JUMP JUMPDEST PUSH0 DUP2 MLOAD SWAP1 POP SWAP2 SWAP1 POP JUMP JUMPDEST PUSH0 DUP3 DUP3 MSTORE PUSH1 0x20 DUP3 ADD SWAP1 POP SWAP3 SWAP2 POP POP JUMP JUMPDEST PUSH0 DUP2 SWAP1 POP PUSH1 0x20 DUP3 ADD SWAP1 POP SWAP2 SWAP1 POP JUMP JUMPDEST PUSH0 PUSH2 0x23EF DUP4 DUP4 PUSH2 0x239D JUMP JUMPDEST PUSH1 0x20 DUP4 ADD SWAP1 POP SWAP3 SWAP2 POP POP JUMP JUMPDEST PUSH0 PUSH1 0x20 DUP3 ADD SWAP1 POP SWAP2 SWAP1 POP JUMP JUMPDEST PUSH0 PUSH2 0x2411 DUP3 PUSH2 0x23BB JUMP JUMPDEST PUSH2 0x241B DUP2 DUP6 PUSH2 0x23C5 JUMP JUMPDEST SWAP4 POP PUSH2 0x2426 DUP4 PUSH2 0x23D5 JUMP JUMPDEST DUP1 PUSH0 JUMPDEST DUP4 DUP2 LT ISZERO PUSH2 0x2456 JUMPI DUP2 MLOAD PUSH2 0x243D DUP9 DUP3 PUSH2 0x23E4 JUMP JUMPDEST SWAP8 POP PUSH2 0x2448 DUP4 PUSH2 0x23FB JUMP JUMPDEST SWAP3 POP POP PUSH1 0x1 DUP2 ADD SWAP1 POP PUSH2 0x2429 JUMP JUMPDEST POP DUP6 SWAP4 POP POP POP POP SWAP3 SWAP2 POP POP JUMP JUMPDEST PUSH0 DUP2 ISZERO ISZERO SWAP1 POP SWAP2 SWAP1 POP JUMP JUMPDEST PUSH2 0x2477 DUP2 PUSH2 0x2463 JUMP JUMPDEST DUP3 MSTORE POP POP JUMP JUMPDEST PUSH0 PUSH2 0x100 DUP4 ADD PUSH0 DUP4 ADD MLOAD PUSH2 0x2493 PUSH0 DUP7 ADD DUP3 PUSH2 0x239D JUMP JUMPDEST POP PUSH1 0x20 DUP4 ADD MLOAD PUSH2 0x24A6 PUSH1 0x20 DUP7 ADD DUP3 PUSH2 0x23AC JUMP JUMPDEST POP PUSH1 0x40 DUP4 ADD MLOAD DUP5 DUP3 SUB PUSH1 0x40 DUP7 ADD MSTORE PUSH2 0x24BE DUP3 DUP3 PUSH2 0x2407 JUMP JUMPDEST SWAP2 POP POP PUSH1 0x60 DUP4 ADD MLOAD DUP5 DUP3 SUB PUSH1 0x60 DUP7 ADD MSTORE PUSH2 0x24D8 DUP3 DUP3 PUSH2 0x2407 JUMP JUMPDEST SWAP2 POP POP PUSH1 0x80 DUP4 ADD MLOAD PUSH2 0x24ED PUSH1 0x80 DUP7 ADD DUP3 PUSH2 0x246E JUMP JUMPDEST POP PUSH1 0xA0 DUP4 ADD MLOAD PUSH2 0x2500 PUSH1 0xA0 DUP7 ADD DUP3 PUSH2 0x23AC JUMP JUMPDEST POP PUSH1 0xC0 DUP4 ADD MLOAD PUSH2 0x2513 PUSH1 0xC0 DUP7 ADD DUP3 PUSH2 0x23AC JUMP JUMPDEST POP PUSH1 0xE0 DUP4 ADD MLOAD PUSH2 0x2526 PUSH1 0xE0 DUP7 ADD DUP3 PUSH2 0x23AC JUMP JUMPDEST POP DUP1 SWAP2 POP POP SWAP3 SWAP2 POP POP JUMP JUMPDEST PUSH0 PUSH1 0x20 DUP3 ADD SWAP1 POP DUP2 DUP2 SUB PUSH0 DUP4 ADD MSTORE PUSH2 0x2549 DUP2 DUP5 PUSH2 0x247D JUMP JUMPDEST SWAP1 POP SWAP3 SWAP2 POP POP JUMP JUMPDEST PUSH2 0x255A DUP2 PUSH2 0x238C JUMP JUMPDEST DUP2 EQ PUSH2 0x2564 JUMPI PUSH0 DUP1 REVERT JUMPDEST POP JUMP JUMPDEST PUSH0 DUP2 CALLDATALOAD SWAP1 POP PUSH2 0x2575 DUP2 PUSH2 0x2551 JUMP JUMPDEST SWAP3 SWAP2 POP POP JUMP JUMPDEST PUSH0 DUP1 PUSH1 0x40 DUP4 DUP6 SUB SLT ISZERO PUSH2 0x2591 JUMPI PUSH2 0x2590 PUSH2 0x2307 JUMP JUMPDEST JUMPDEST PUSH0 PUSH2 0x259E DUP6 DUP3 DUP7 ADD PUSH2 0x2567 JUMP JUMPDEST SWAP3 POP POP PUSH1 0x20 PUSH2 0x25AF DUP6 DUP3 DUP7 ADD PUSH2 0x232E JUMP JUMPDEST SWAP2 POP POP SWAP3 POP SWAP3 SWAP1 POP JUMP JUMPDEST PUSH2 0x25C2 DUP2 PUSH2 0x230F JUMP JUMPDEST DUP3 MSTORE POP POP JUMP JUMPDEST PUSH0 PUSH1 0x20 DUP3 ADD SWAP1 POP PUSH2 0x25DB PUSH0 DUP4 ADD DUP5 PUSH2 0x25B9 JUMP JUMPDEST SWAP3 SWAP2 POP POP JUMP JUMPDEST PUSH0 DUP2 MLOAD SWAP1 POP SWAP2 SWAP1 POP JUMP JUMPDEST PUSH0 DUP3 DUP3 MSTORE PUSH1 0x20 DUP3 ADD SWAP1 POP SWAP3 SWAP2 POP POP JUMP JUMPDEST PUSH0 DUP2 SWAP1 POP PUSH1 0x20 DUP3 ADD SWAP1 POP SWAP2 SWAP1 POP JUMP JUMPDEST PUSH0 PUSH2 0x100 DUP4 ADD PUSH0 DUP4 ADD MLOAD PUSH2 0x2620 PUSH0 DUP7 ADD DUP3 PUSH2 0x239D JUMP JUMPDEST POP PUSH1 0x20 DUP4 ADD MLOAD PUSH2 0x2633 PUSH1 0x20 DUP7 ADD DUP3 PUSH2 0x23AC JUMP JUMPDEST POP PUSH1 0x40 DUP4 ADD MLOAD DUP5 DUP3 SUB PUSH1 0x40 DUP7 ADD MSTORE PUSH2 0x264B DUP3 DUP3 PUSH2 0x2407 JUMP JUMPDEST SWAP2 POP POP PUSH1 0x60 DUP4 ADD MLOAD DUP5 DUP3 SUB PUSH1 0x60 DUP7 ADD MSTORE PUSH2 0x2665 DUP3 DUP3 PUSH2 0x2407 JUMP JUMPDEST SWAP2 POP POP PUSH1 0x80 DUP4 ADD MLOAD PUSH2 0x267A PUSH1 0x80 DUP7 ADD DUP3 PUSH2 0x246E JUMP JUMPDEST POP PUSH1 0xA0 DUP4 ADD MLOAD PUSH2 0x268D PUSH1 0xA0 DUP7 ADD DUP3 PUSH2 0x23AC JUMP JUMPDEST POP PUSH1 0xC0 DUP4 ADD MLOAD PUSH2 0x26A0 PUSH1 0xC0 DUP7 ADD DUP3 PUSH2 0x23AC JUMP JUMPDEST POP PUSH1 0xE0 DUP4 ADD MLOAD PUSH2 0x26B3 PUSH1 0xE0 DUP7 ADD DUP3 PUSH2 0x23AC JUMP JUMPDEST POP DUP1 SWAP2 POP POP SWAP3 SWAP2 POP POP JUMP JUMPDEST PUSH0 PUSH2 0x26C9 DUP4 DUP4 PUSH2 0x260A JUMP JUMPDEST SWAP1 POP SWAP3 SWAP2 POP POP JUMP JUMPDEST PUSH0 PUSH1 0x20 DUP3 ADD SWAP1 POP SWAP2 SWAP1 POP JUMP JUMPDEST PUSH0 PUSH2 0x26E7 DUP3 PUSH2 0x25E1 JUMP JUMPDEST PUSH2 0x26F1 DUP2 DUP6 PUSH2 0x25EB JUMP JUMPDEST SWAP4 POP DUP4 PUSH1 0x20 DUP3 MUL DUP6 ADD PUSH2 0x2703 DUP6 PUSH2 0x25FB JUMP JUMPDEST DUP1 PUSH0 JUMPDEST DUP6 DUP2 LT ISZERO PUSH2 0x273E JUMPI DUP5 DUP5 SUB DUP10 MSTORE DUP2 MLOAD PUSH2 0x271F DUP6 DUP3 PUSH2 0x26BE JUMP JUMPDEST SWAP5 POP PUSH2 0x272A DUP4 PUSH2 0x26D1 JUMP JUMPDEST SWAP3 POP PUSH1 0x20 DUP11 ADD SWAP10 POP POP PUSH1 0x1 DUP2 ADD SWAP1 POP PUSH2 0x2706 JUMP JUMPDEST POP DUP3 SWAP8 POP DUP8 SWAP6 POP POP POP POP POP POP SWAP3 SWAP2 POP POP JUMP JUMPDEST PUSH0 PUSH1 0x20 DUP3 ADD SWAP1 POP DUP2 DUP2 SUB PUSH0 DUP4 ADD MSTORE PUSH2 0x2768 DUP2 DUP5 PUSH2 0x26DD JUMP JUMPDEST SWAP1 POP SWAP3 SWAP2 POP POP JUMP JUMPDEST PUSH0 DUP3 DUP3 MSTORE PUSH1 0x20 DUP3 ADD SWAP1 POP SWAP3 SWAP2 POP POP JUMP JUMPDEST PUSH0 PUSH2 0x278A DUP3 PUSH2 0x23BB JUMP JUMPDEST PUSH2 0x2794 DUP2 DUP6 PUSH2 0x2770 JUMP JUMPDEST SWAP4 POP PUSH2 0x279F DUP4 PUSH2 0x23D5 JUMP JUMPDEST DUP1 PUSH0 JUMPDEST DUP4 DUP2 LT ISZERO PUSH2 0x27CF JUMPI DUP2 MLOAD PUSH2 0x27B6 DUP9 DUP3 PUSH2 0x23E4 JUMP JUMPDEST SWAP8 POP PUSH2 0x27C1 DUP4 PUSH2 0x23FB JUMP JUMPDEST SWAP3 POP POP PUSH1 0x1 DUP2 ADD SWAP1 POP PUSH2 0x27A2 JUMP JUMPDEST POP DUP6 SWAP4 POP POP POP POP SWAP3 SWAP2 POP POP JUMP JUMPDEST PUSH0 PUSH1 0x20 DUP3 ADD SWAP1 POP DUP2 DUP2 SUB PUSH0 DUP4 ADD MSTORE PUSH2 0x27F4 DUP2 DUP5 PUSH2 0x2780 JUMP JUMPDEST SWAP1 POP SWAP3 SWAP2 POP POP JUMP JUMPDEST PUSH0 DUP1 REVERT JUMPDEST PUSH0 DUP1 REVERT JUMPDEST PUSH0 PUSH1 0x1F NOT PUSH1 0x1F DUP4 ADD AND SWAP1 POP SWAP2 SWAP1 POP JUMP JUMPDEST PUSH32 0x4E487B7100000000000000000000000000000000000000000000000000000000 PUSH0 MSTORE PUSH1 0x41 PUSH1 0x4 MSTORE PUSH1 0x24 PUSH0 REVERT JUMPDEST PUSH2 0x284A DUP3 PUSH2 0x2804 JUMP JUMPDEST DUP2 ADD DUP2 DUP2 LT PUSH8 0xFFFFFFFFFFFFFFFF DUP3 GT OR ISZERO PUSH2 0x2869 JUMPI PUSH2 0x2868 PUSH2 0x2814 JUMP JUMPDEST JUMPDEST DUP1 PUSH1 0x40 MSTORE POP POP POP JUMP JUMPDEST PUSH0 PUSH2 0x287B PUSH2 0x22FE JUMP JUMPDEST SWAP1 POP PUSH2 0x2887 DUP3 DUP3 PUSH2 0x2841 JUMP JUMPDEST SWAP2 SWAP1 POP JUMP JUMPDEST PUSH0 PUSH8 0xFFFFFFFFFFFFFFFF DUP3 GT ISZERO PUSH2 0x28A6 JUMPI PUSH2 0x28A5 PUSH2 0x2814 JUMP JUMPDEST JUMPDEST PUSH2 0x28AF DUP3 PUSH2 0x2804 JUMP JUMPDEST SWAP1 POP PUSH1 0x20 DUP2 ADD SWAP1 POP SWAP2 SWAP1 POP JUMP JUMPDEST DUP3 DUP2 DUP4 CALLDATACOPY PUSH0 DUP4 DUP4 ADD MSTORE POP POP POP JUMP JUMPDEST PUSH0 PUSH2 0x28DC PUSH2 0x28D7 DUP5 PUSH2 0x288C JUMP JUMPDEST PUSH2 0x2872 JUMP JUMPDEST SWAP1 POP DUP3 DUP2 MSTORE PUSH1 0x20 DUP2 ADD DUP5 DUP5 DUP5 ADD GT ISZERO PUSH2 0x28F8 JUMPI PUSH2 0x28F7 PUSH2 0x2800 JUMP JUMPDEST JUMPDEST PUSH2 0x2903 DUP5 DUP3 DUP6 PUSH2 0x28BC JUMP JUMPDEST POP SWAP4 SWAP3 POP POP POP JUMP JUMPDEST PUSH0 DUP3 PUSH1 0x1F DUP4 ADD SLT PUSH2 0x291F JUMPI PUSH2 0x291E PUSH2 0x27FC JUMP JUMPDEST JUMPDEST DUP2 CALLDATALOAD PUSH2 0x292F DUP5 DUP3 PUSH1 0x20 DUP7 ADD PUSH2 0x28CA JUMP JUMPDEST SWAP2 POP POP SWAP3 SWAP2 POP POP JUMP JUMPDEST PUSH0 DUP1 PUSH1 0x40 DUP4 DUP6 SUB SLT ISZERO PUSH2 0x294E JUMPI PUSH2 0x294D PUSH2 0x2307 JUMP JUMPDEST JUMPDEST PUSH0 PUSH2 0x295B DUP6 DUP3 DUP7 ADD PUSH2 0x2567 JUMP JUMPDEST SWAP3 POP POP PUSH1 0x20 DUP4 ADD CALLDATALOAD PUSH8 0xFFFFFFFFFFFFFFFF DUP2 GT ISZERO PUSH2 0x297C JUMPI PUSH2 0x297B PUSH2 0x230B JUMP JUMPDEST JUMPDEST PUSH2 0x2988 DUP6 DUP3 DUP7 ADD PUSH2 0x290B JUMP JUMPDEST SWAP2 POP POP SWAP3 POP SWAP3 SWAP1 POP JUMP JUMPDEST PUSH0 DUP2 SWAP1 POP SWAP2 SWAP1 POP JUMP JUMPDEST PUSH2 0x29A4 DUP2 PUSH2 0x2992 JUMP JUMPDEST DUP3 MSTORE POP POP JUMP JUMPDEST PUSH0 PUSH1 0x20 DUP3 ADD SWAP1 POP PUSH2 0x29BD PUSH0 DUP4 ADD DUP5 PUSH2 0x299B JUMP JUMPDEST SWAP3 SWAP2 POP POP JUMP JUMPDEST PUSH0 PUSH8 0xFFFFFFFFFFFFFFFF DUP3 GT ISZERO PUSH2 0x29DD JUMPI PUSH2 0x29DC PUSH2 0x2814 JUMP JUMPDEST JUMPDEST PUSH1 0x20 DUP3 MUL SWAP1 POP PUSH1 0x20 DUP2 ADD SWAP1 POP SWAP2 SWAP1 POP JUMP JUMPDEST PUSH0 DUP1 REVERT JUMPDEST PUSH0 PUSH2 0x2A04 PUSH2 0x29FF DUP5 PUSH2 0x29C3 JUMP JUMPDEST PUSH2 0x2872 JUMP JUMPDEST SWAP1 POP DUP1 DUP4 DUP3 MSTORE PUSH1 0x20 DUP3 ADD SWAP1 POP PUSH1 0x20 DUP5 MUL DUP4 ADD DUP6 DUP2 GT ISZERO PUSH2 0x2A27 JUMPI PUSH2 0x2A26 PUSH2 0x29EE JUMP JUMPDEST JUMPDEST DUP4 JUMPDEST DUP2 DUP2 LT ISZERO PUSH2 0x2A50 JUMPI DUP1 PUSH2 0x2A3C DUP9 DUP3 PUSH2 0x2567 JUMP JUMPDEST DUP5 MSTORE PUSH1 0x20 DUP5 ADD SWAP4 POP POP PUSH1 0x20 DUP2 ADD SWAP1 POP PUSH2 0x2A29 JUMP JUMPDEST POP POP POP SWAP4 SWAP3 POP POP POP JUMP JUMPDEST PUSH0 DUP3 PUSH1 0x1F DUP4 ADD SLT PUSH2 0x2A6E JUMPI PUSH2 0x2A6D PUSH2 0x27FC JUMP JUMPDEST JUMPDEST DUP2 CALLDATALOAD PUSH2 0x2A7E DUP5 DUP3 PUSH1 0x20 DUP7 ADD PUSH2 0x29F2 JUMP JUMPDEST SWAP2 POP POP SWAP3 SWAP2 POP POP JUMP JUMPDEST PUSH0 PUSH1 0x20 DUP3 DUP5 SUB SLT ISZERO PUSH2 0x2A9C JUMPI PUSH2 0x2A9B PUSH2 0x2307 JUMP JUMPDEST JUMPDEST PUSH0 DUP3 ADD CALLDATALOAD PUSH8 0xFFFFFFFFFFFFFFFF DUP2 GT ISZERO PUSH2 0x2AB9 JUMPI PUSH2 0x2AB8 PUSH2 0x230B JUMP JUMPDEST JUMPDEST PUSH2 0x2AC5 DUP5 DUP3 DUP6 ADD PUSH2 0x2A5A JUMP JUMPDEST SWAP2 POP POP SWAP3 SWAP2 POP POP JUMP JUMPDEST PUSH0 PUSH1 0x20 DUP3 DUP5 SUB SLT ISZERO PUSH2 0x2AE3 JUMPI PUSH2 0x2AE2 PUSH2 0x2307 JUMP JUMPDEST JUMPDEST PUSH0 PUSH2 0x2AF0 DUP5 DUP3 DUP6 ADD PUSH2 0x2567 JUMP JUMPDEST SWAP2 POP POP SWAP3 SWAP2 POP POP JUMP JUMPDEST PUSH2 0x2B02 DUP2 PUSH2 0x238C JUMP JUMPDEST DUP3 MSTORE POP POP JUMP JUMPDEST PUSH0 PUSH1 0x20 DUP3 ADD SWAP1 POP PUSH2 0x2B1B PUSH0 DUP4 ADD DUP5 PUSH2 0x2AF9 JUMP JUMPDEST SWAP3 SWAP2 POP POP JUMP JUMPDEST PUSH0 DUP2 MLOAD SWAP1 POP SWAP2 SWAP1 POP JUMP JUMPDEST PUSH0 DUP3 DUP3 MSTORE PUSH1 0x20 DUP3 ADD SWAP1 POP SWAP3 SWAP2 POP POP JUMP JUMPDEST DUP3 DUP2 DUP4 MCOPY PUSH0 DUP4 DUP4 ADD MSTORE POP POP POP JUMP JUMPDEST PUSH0 PUSH2 0x2B53 DUP3 PUSH2 0x2B21 JUMP JUMPDEST PUSH2 0x2B5D DUP2 DUP6 PUSH2 0x2B2B JUMP JUMPDEST SWAP4 POP PUSH2 0x2B6D DUP2 DUP6 PUSH1 0x20 DUP7 ADD PUSH2 0x2B3B JUMP JUMPDEST PUSH2 0x2B76 DUP2 PUSH2 0x2804 JUMP JUMPDEST DUP5 ADD SWAP2 POP POP SWAP3 SWAP2 POP POP JUMP JUMPDEST PUSH0 PUSH1 0x20 DUP3 ADD SWAP1 POP DUP2 DUP2 SUB PUSH0 DUP4 ADD MSTORE PUSH2 0x2B99 DUP2 DUP5 PUSH2 0x2B49 JUMP JUMPDEST SWAP1 POP SWAP3 SWAP2 POP POP JUMP JUMPDEST PUSH32 0x4E487B7100000000000000000000000000000000000000000000000000000000 PUSH0 MSTORE PUSH1 0x32 PUSH1 0x4 MSTORE PUSH1 0x24 PUSH0 REVERT JUMPDEST PUSH32 0x496E73756666696369656E742062616C616E636520696E2074686520636F6E74 PUSH0 DUP3 ADD MSTORE PUSH32 0x7261637400000000000000000000000000000000000000000000000000000000 PUSH1 0x20 DUP3 ADD MSTORE POP JUMP JUMPDEST PUSH0 PUSH2 0x2C28 PUSH1 0x24 DUP4 PUSH2 0x2B2B JUMP JUMPDEST SWAP2 POP PUSH2 0x2C33 DUP3 PUSH2 0x2BCE JUMP JUMPDEST PUSH1 0x40 DUP3 ADD SWAP1 POP SWAP2 SWAP1 POP JUMP JUMPDEST PUSH0 PUSH1 0x20 DUP3 ADD SWAP1 POP DUP2 DUP2 SUB PUSH0 DUP4 ADD MSTORE PUSH2 0x2C55 DUP2 PUSH2 0x2C1C JUMP JUMPDEST SWAP1 POP SWAP2 SWAP1 POP JUMP JUMPDEST PUSH32 0x506C656173652073657420612068696768657220616D6F756E74000000000000 PUSH0 DUP3 ADD MSTORE POP JUMP JUMPDEST PUSH0 PUSH2 0x2C90 PUSH1 0x1A DUP4 PUSH2 0x2B2B JUMP JUMPDEST SWAP2 POP PUSH2 0x2C9B DUP3 PUSH2 0x2C5C JUMP JUMPDEST PUSH1 0x20 DUP3 ADD SWAP1 POP SWAP2 SWAP1 POP JUMP JUMPDEST PUSH0 PUSH1 0x20 DUP3 ADD SWAP1 POP DUP2 DUP2 SUB PUSH0 DUP4 ADD MSTORE PUSH2 0x2CBD DUP2 PUSH2 0x2C84 JUMP JUMPDEST SWAP1 POP SWAP2 SWAP1 POP JUMP JUMPDEST PUSH0 PUSH1 0x60 DUP3 ADD SWAP1 POP PUSH2 0x2CD7 PUSH0 DUP4 ADD DUP7 PUSH2 0x25B9 JUMP JUMPDEST PUSH2 0x2CE4 PUSH1 0x20 DUP4 ADD DUP6 PUSH2 0x2AF9 JUMP JUMPDEST PUSH2 0x2CF1 PUSH1 0x40 DUP4 ADD DUP5 PUSH2 0x25B9 JUMP JUMPDEST SWAP5 SWAP4 POP POP POP POP JUMP JUMPDEST PUSH32 0x546869732066756E6374696F6E2063616E206F6E6C792062652063616C6C6564 PUSH0 DUP3 ADD MSTORE PUSH32 0x20627920616E20417070726F7665720000000000000000000000000000000000 PUSH1 0x20 DUP3 ADD MSTORE POP JUMP JUMPDEST PUSH0 PUSH2 0x2D53 PUSH1 0x2F DUP4 PUSH2 0x2B2B JUMP JUMPDEST SWAP2 POP PUSH2 0x2D5E DUP3 PUSH2 0x2CF9 JUMP JUMPDEST PUSH1 0x40 DUP3 ADD SWAP1 POP SWAP2 SWAP1 POP JUMP JUMPDEST PUSH0 PUSH1 0x20 DUP3 ADD SWAP1 POP DUP2 DUP2 SUB PUSH0 DUP4 ADD MSTORE PUSH2 0x2D80 DUP2 PUSH2 0x2D47 JUMP JUMPDEST SWAP1 POP SWAP2 SWAP1 POP JUMP JUMPDEST PUSH32 0x546865205472616E73616374696F6E20697320616C7265616479206578656375 PUSH0 DUP3 ADD MSTORE PUSH32 0x7465640000000000000000000000000000000000000000000000000000000000 PUSH1 0x20 DUP3 ADD MSTORE POP JUMP JUMPDEST PUSH0 PUSH2 0x2DE1 PUSH1 0x23 DUP4 PUSH2 0x2B2B JUMP JUMPDEST SWAP2 POP PUSH2 0x2DEC DUP3 PUSH2 0x2D87 JUMP JUMPDEST PUSH1 0x40 DUP3 ADD SWAP1 POP SWAP2 SWAP1 POP JUMP JUMPDEST PUSH0 PUSH1 0x20 DUP3 ADD SWAP1 POP DUP2 DUP2 SUB PUSH0 DUP4 ADD MSTORE PUSH2 0x2E0E DUP2 PUSH2 0x2DD5 JUMP JUMPDEST SWAP1 POP SWAP2 SWAP1 POP JUMP JUMPDEST PUSH32 0x4E487B7100000000000000000000000000000000000000000000000000000000 PUSH0 MSTORE PUSH1 0x11 PUSH1 0x4 MSTORE PUSH1 0x24 PUSH0 REVERT JUMPDEST PUSH0 PUSH2 0x2E4C DUP3 PUSH2 0x230F JUMP JUMPDEST SWAP2 POP PUSH32 0xFFFFFFFFFFFFFFFFFFFFFFFFFFFFFFFFFFFFFFFFFFFFFFFFFFFFFFFFFFFFFFFF DUP3 SUB PUSH2 0x2E7E JUMPI PUSH2 0x2E7D PUSH2 0x2E15 JUMP JUMPDEST JUMPDEST PUSH1 0x1 DUP3 ADD SWAP1 POP SWAP2 SWAP1 POP JUMP JUMPDEST PUSH32 0x4E487B7100000000000000000000000000000000000000000000000000000000 PUSH0 MSTORE PUSH1 0x12 PUSH1 0x4 MSTORE PUSH1 0x24 PUSH0 REVERT JUMPDEST PUSH0 PUSH2 0x2EC0 DUP3 PUSH2 0x230F JUMP JUMPDEST SWAP2 POP PUSH2 0x2ECB DUP4 PUSH2 0x230F JUMP JUMPDEST SWAP3 POP DUP3 PUSH2 0x2EDB JUMPI PUSH2 0x2EDA PUSH2 0x2E89 JUMP JUMPDEST JUMPDEST DUP3 DUP3 DIV SWAP1 POP SWAP3 SWAP2 POP POP JUMP JUMPDEST PUSH0 PUSH1 0x40 DUP3 ADD SWAP1 POP PUSH2 0x2EF9 PUSH0 DUP4 ADD DUP6 PUSH2 0x25B9 JUMP JUMPDEST PUSH2 0x2F06 PUSH1 0x20 DUP4 ADD DUP5 PUSH2 0x2AF9 JUMP JUMPDEST SWAP4 SWAP3 POP POP POP JUMP JUMPDEST PUSH0 DUP2 SWAP1 POP SWAP2 SWAP1 POP JUMP JUMPDEST PUSH0 PUSH8 0xFFFFFFFFFFFFFFFF DUP3 AND SWAP1 POP SWAP2 SWAP1 POP JUMP JUMPDEST PUSH0 DUP2 SWAP1 POP SWAP2 SWAP1 POP JUMP JUMPDEST PUSH0 PUSH2 0x2F4C PUSH2 0x2F47 PUSH2 0x2F42 DUP5 PUSH2 0x2F0D JUMP JUMPDEST PUSH2 0x2F29 JUMP JUMPDEST PUSH2 0x2F16 JUMP JUMPDEST SWAP1 POP SWAP2 SWAP1 POP JUMP JUMPDEST PUSH2 0x2F5C DUP2 PUSH2 0x2F32 JUMP JUMPDEST DUP3 MSTORE POP POP JUMP JUMPDEST PUSH0 PUSH1 0x20 DUP3 ADD SWAP1 POP PUSH2 0x2F75 PUSH0 DUP4 ADD DUP5 PUSH2 0x2F53 JUMP JUMPDEST SWAP3 SWAP2 POP POP JUMP JUMPDEST PUSH32 0x596F752061726520616C726561647920617070726F7665640000000000000000 PUSH0 DUP3 ADD MSTORE POP JUMP JUMPDEST PUSH0 PUSH2 0x2FAF PUSH1 0x18 DUP4 PUSH2 0x2B2B JUMP JUMPDEST SWAP2 POP PUSH2 0x2FBA DUP3 PUSH2 0x2F7B JUMP JUMPDEST PUSH1 0x20 DUP3 ADD SWAP1 POP SWAP2 SWAP1 POP JUMP JUMPDEST PUSH0 PUSH1 0x20 DUP3 ADD SWAP1 POP DUP2 DUP2 SUB PUSH0 DUP4 ADD MSTORE PUSH2 0x2FDC DUP2 PUSH2 0x2FA3 JUMP JUMPDEST SWAP1 POP SWAP2 SWAP1 POP JUMP JUMPDEST PUSH0 PUSH2 0x2FED DUP3 PUSH2 0x230F JUMP JUMPDEST SWAP2 POP PUSH2 0x2FF8 DUP4 PUSH2 0x230F JUMP JUMPDEST SWAP3 POP DUP3 DUP3 SUB SWAP1 POP DUP2 DUP2 GT ISZERO PUSH2 0x3010 JUMPI PUSH2 0x300F PUSH2 0x2E15 JUMP JUMPDEST JUMPDEST SWAP3 SWAP2 POP POP JUMP JUMPDEST PUSH32 0x4E487B7100000000000000000000000000000000000000000000000000000000 PUSH0 MSTORE PUSH1 0x31 PUSH1 0x4 MSTORE PUSH1 0x24 PUSH0 REVERT JUMPDEST PUSH32 0x596F752061726520616C726561647920616E20617070726F7665720000000000 PUSH0 DUP3 ADD MSTORE POP JUMP JUMPDEST PUSH0 PUSH2 0x3077 PUSH1 0x1B DUP4 PUSH2 0x2B2B JUMP JUMPDEST SWAP2 POP PUSH2 0x3082 DUP3 PUSH2 0x3043 JUMP JUMPDEST PUSH1 0x20 DUP3 ADD SWAP1 POP SWAP2 SWAP1 POP JUMP JUMPDEST PUSH0 PUSH1 0x20 DUP3 ADD SWAP1 POP DUP2 DUP2 SUB PUSH0 DUP4 ADD MSTORE PUSH2 0x30A4 DUP2 PUSH2 0x306B JUMP JUMPDEST SWAP1 POP SWAP2 SWAP1 POP JUMP JUMPDEST PUSH32 0x596F75204861766520616C7265616479206170706C6965640000000000000000 PUSH0 DUP3 ADD MSTORE POP JUMP JUMPDEST PUSH0 PUSH2 0x30DF PUSH1 0x18 DUP4 PUSH2 0x2B2B JUMP JUMPDEST SWAP2 POP PUSH2 0x30EA DUP3 PUSH2 0x30AB JUMP JUMPDEST PUSH1 0x20 DUP3 ADD SWAP1 POP SWAP2 SWAP1 POP JUMP JUMPDEST PUSH0 PUSH1 0x20 DUP3 ADD SWAP1 POP DUP2 DUP2 SUB PUSH0 DUP4 ADD MSTORE PUSH2 0x310C DUP2 PUSH2 0x30D3 JUMP JUMPDEST SWAP1 POP SWAP2 SWAP1 POP JUMP JUMPDEST PUSH0 DUP2 SWAP1 POP SWAP3 SWAP2 POP POP JUMP JUMPDEST POP JUMP JUMPDEST PUSH0 PUSH2 0x312B PUSH0 DUP4 PUSH2 0x3113 JUMP JUMPDEST SWAP2 POP PUSH2 0x3136 DUP3 PUSH2 0x311D JUMP JUMPDEST PUSH0 DUP3 ADD SWAP1 POP SWAP2 SWAP1 POP JUMP JUMPDEST PUSH0 PUSH2 0x314A DUP3 PUSH2 0x3120 JUMP JUMPDEST SWAP2 POP DUP2 SWAP1 POP SWAP2 SWAP1 POP JUMP JUMPDEST PUSH2 0x315D DUP2 PUSH2 0x2992 JUMP JUMPDEST DUP2 EQ PUSH2 0x3167 JUMPI PUSH0 DUP1 REVERT JUMPDEST POP JUMP JUMPDEST PUSH0 DUP2 MLOAD SWAP1 POP PUSH2 0x3178 DUP2 PUSH2 0x3154 JUMP JUMPDEST SWAP3 SWAP2 POP POP JUMP JUMPDEST PUSH0 PUSH1 0x20 DUP3 DUP5 SUB SLT ISZERO PUSH2 0x3193 JUMPI PUSH2 0x3192 PUSH2 0x2307 JUMP JUMPDEST JUMPDEST PUSH0 PUSH2 0x31A0 DUP5 DUP3 DUP6 ADD PUSH2 0x316A JUMP JUMPDEST SWAP2 POP POP SWAP3 SWAP2 POP POP JUMP JUMPDEST PUSH0 DUP2 MLOAD SWAP1 POP SWAP2 SWAP1 POP JUMP JUMPDEST PUSH0 PUSH2 0x31BD DUP3 PUSH2 0x31A9 JUMP JUMPDEST PUSH2 0x31C7 DUP2 DUP6 PUSH2 0x3113 JUMP JUMPDEST SWAP4 POP PUSH2 0x31D7 DUP2 DUP6 PUSH1 0x20 DUP7 ADD PUSH2 0x2B3B JUMP JUMPDEST DUP1 DUP5 ADD SWAP2 POP POP SWAP3 SWAP2 POP POP JUMP JUMPDEST PUSH0 PUSH2 0x31EE DUP3 DUP5 PUSH2 0x31B3 JUMP JUMPDEST SWAP2 POP DUP2 SWAP1 POP SWAP3 SWAP2 POP POP JUMP INVALID LOG2 PUSH5 0x6970667358 0x22 SLT KECCAK256 0xF8 SMOD PUSH14 0x60CCF20222CC871E16D13D3B89E3 JUMPI 0xF 0xF7 0xBC SLT JUMPDEST CREATE 0xBA CALLDATACOPY 0xD1 0xE2 0xC3 0xA5 LOG2 STATICCALL PUSH5 0x736F6C6343 STOP ADDMOD BYTE STOP CALLER "
				},
				"gasEstimates": {
					"creation": {
						"codeDepositCost": "2569400",
						"executionCost": "infinite",
						"totalCost": "infinite"
					},
					"external": {
						"UPGRADE_INTERFACE_VERSION()": "infinite",
						"addApprovers(address[])": "infinite",
						"appliedApproversList()": "infinite",
						"applyForApprover(address)": "infinite",
						"approveApprover(address)": "infinite",
						"approveTransaction(uint256)": "infinite",
						"approversList()": "infinite",
						"balance()": "445",
						"createTransaction(address,uint256)": "infinite",
						"disapproveTransaction(uint256)": "infinite",
						"getAllTransactions()": "infinite",
						"getBalance(address)": "3335",
						"getTransactionDetails(uint256)": "infinite",
						"initialize()": "infinite",
						"owner()": "2612",
						"proxiableUUID()": "infinite",
						"receivEthers()": "229",
						"renounceOwnership()": "infinite",
						"transferOwnership(address)": "infinite",
						"upgradeToAndCall(address,bytes)": "infinite"
					},
					"internal": {
						"_authorizeUpgrade(address)": "infinite",
						"executeTransaction(uint256)": "infinite",
						"getMax(uint256,uint256)": "63"
					}
				},
				"methodIdentifiers": {
					"UPGRADE_INTERFACE_VERSION()": "ad3cb1cc",
					"addApprovers(address[])": "6a882d51",
					"appliedApproversList()": "35b0d745",
					"applyForApprover(address)": "c82830ea",
					"approveApprover(address)": "838d4cd1",
					"approveTransaction(uint256)": "242232d1",
					"approversList()": "be2af9cb",
					"balance()": "b69ef8a8",
					"createTransaction(address,uint256)": "1e7f8f0f",
					"disapproveTransaction(uint256)": "9911a149",
					"getAllTransactions()": "27506f53",
					"getBalance(address)": "f8b2cb4f",
					"getTransactionDetails(uint256)": "0fa683d3",
					"initialize()": "8129fc1c",
					"owner()": "8da5cb5b",
					"proxiableUUID()": "52d1902d",
					"receivEthers()": "ff7d55ea",
					"renounceOwnership()": "715018a6",
					"transferOwnership(address)": "f2fde38b",
					"upgradeToAndCall(address,bytes)": "4f1ef286"
				}
			},
			"storageLayout": {
				"storage": [
					{
						"astId": 1456,
						"contract": "payable2.sol:Payable",
						"label": "Contarctowner",
						"offset": 0,
						"slot": "0",
						"type": "t_address"
					},
					{
						"astId": 1460,
						"contract": "payable2.sol:Payable",
						"label": "approvedApprovers",
						"offset": 0,
						"slot": "1",
						"type": "t_mapping(t_address,t_bool)"
					},
					{
						"astId": 1464,
						"contract": "payable2.sol:Payable",
						"label": "appliedForApprovers",
						"offset": 0,
						"slot": "2",
						"type": "t_mapping(t_address,t_bool)"
					},
					{
						"astId": 1467,
						"contract": "payable2.sol:Payable",
						"label": "allApprovedAddresses",
						"offset": 0,
						"slot": "3",
						"type": "t_array(t_address)dyn_storage"
					},
					{
						"astId": 1470,
						"contract": "payable2.sol:Payable",
						"label": "allAppliedAddresses",
						"offset": 0,
						"slot": "4",
						"type": "t_array(t_address)dyn_storage"
					},
					{
						"astId": 1474,
						"contract": "payable2.sol:Payable",
						"label": "transactions",
						"offset": 0,
						"slot": "5",
						"type": "t_array(t_struct(Transaction)1541_storage)dyn_storage"
					},
					{
						"astId": 1476,
						"contract": "payable2.sol:Payable",
						"label": "approverCount",
						"offset": 0,
						"slot": "6",
						"type": "t_uint256"
					},
					{
						"astId": 1478,
						"contract": "payable2.sol:Payable",
						"label": "minimumApprovals",
						"offset": 0,
						"slot": "7",
						"type": "t_uint256"
					}
				],
				"types": {
					"t_address": {
						"encoding": "inplace",
						"label": "address",
						"numberOfBytes": "20"
					},
					"t_array(t_address)dyn_storage": {
						"base": "t_address",
						"encoding": "dynamic_array",
						"label": "address[]",
						"numberOfBytes": "32"
					},
					"t_array(t_struct(Transaction)1541_storage)dyn_storage": {
						"base": "t_struct(Transaction)1541_storage",
						"encoding": "dynamic_array",
						"label": "struct Payable.Transaction[]",
						"numberOfBytes": "32"
					},
					"t_bool": {
						"encoding": "inplace",
						"label": "bool",
						"numberOfBytes": "1"
					},
					"t_mapping(t_address,t_bool)": {
						"encoding": "mapping",
						"key": "t_address",
						"label": "mapping(address => bool)",
						"numberOfBytes": "32",
						"value": "t_bool"
					},
					"t_struct(Transaction)1541_storage": {
						"encoding": "inplace",
						"label": "struct Payable.Transaction",
						"members": [
							{
								"astId": 1524,
								"contract": "payable2.sol:Payable",
								"label": "to",
								"offset": 0,
								"slot": "0",
								"type": "t_address"
							},
							{
								"astId": 1526,
								"contract": "payable2.sol:Payable",
								"label": "amount",
								"offset": 0,
								"slot": "1",
								"type": "t_uint256"
							},
							{
								"astId": 1529,
								"contract": "payable2.sol:Payable",
								"label": "approvals",
								"offset": 0,
								"slot": "2",
								"type": "t_array(t_address)dyn_storage"
							},
							{
								"astId": 1532,
								"contract": "payable2.sol:Payable",
								"label": "disapprovals",
								"offset": 0,
								"slot": "3",
								"type": "t_array(t_address)dyn_storage"
							},
							{
								"astId": 1534,
								"contract": "payable2.sol:Payable",
								"label": "executed",
								"offset": 0,
								"slot": "4",
								"type": "t_bool"
							},
							{
								"astId": 1536,
								"contract": "payable2.sol:Payable",
								"label": "timestamp",
								"offset": 0,
								"slot": "5",
								"type": "t_uint256"
							},
							{
								"astId": 1538,
								"contract": "payable2.sol:Payable",
								"label": "approvalCount",
								"offset": 0,
								"slot": "6",
								"type": "t_uint256"
							},
							{
								"astId": 1540,
								"contract": "payable2.sol:Payable",
								"label": "disapprovalCount",
								"offset": 0,
								"slot": "7",
								"type": "t_uint256"
							}
						],
						"numberOfBytes": "256"
					},
					"t_uint256": {
						"encoding": "inplace",
						"label": "uint256",
						"numberOfBytes": "32"
					}
				}
			},
			"userdoc": {
				"kind": "user",
				"methods": {},
				"version": 1
			}
		}
	}
}